{
  "address": "0xDC891752642e1e98C9e4b5060045FD7C8Db4fD92",
  "abi": [
    {
      "inputs": [
        {
          "internalType": "address",
          "name": "_priceOracleAddress",
          "type": "address"
        },
        {
          "internalType": "address",
          "name": "_exaToken",
          "type": "address"
        }
      ],
      "stateMutability": "nonpayable",
      "type": "constructor"
    },
    {
      "inputs": [
        {
          "internalType": "enum ErrorCode",
          "name": "error",
          "type": "uint8"
        }
      ],
      "name": "GenericError",
      "type": "error"
    },
    {
      "inputs": [
        {
          "internalType": "enum TSUtils.State",
          "name": "state",
          "type": "uint8"
        },
        {
          "internalType": "enum TSUtils.State",
          "name": "requiredState",
          "type": "uint8"
        }
      ],
      "name": "UnmatchedPoolState",
      "type": "error"
    },
    {
      "anonymous": false,
      "inputs": [
        {
          "indexed": false,
          "internalType": "address",
          "name": "fixedLender",
          "type": "address"
        },
        {
          "indexed": false,
          "internalType": "string",
          "name": "action",
          "type": "string"
        },
        {
          "indexed": false,
          "internalType": "bool",
          "name": "paused",
          "type": "bool"
        }
      ],
      "name": "ActionPaused",
      "type": "event"
    },
    {
      "anonymous": false,
      "inputs": [
        {
          "indexed": true,
          "internalType": "address",
          "name": "fixedLender",
          "type": "address"
        },
        {
          "indexed": true,
          "internalType": "address",
          "name": "borrower",
          "type": "address"
        },
        {
          "indexed": false,
          "internalType": "uint256",
          "name": "mpBorrowerDelta",
          "type": "uint256"
        },
        {
          "indexed": false,
          "internalType": "uint256",
          "name": "exaMPBorrowIndex",
          "type": "uint256"
        }
      ],
      "name": "DistributedMPBorrowerExa",
      "type": "event"
    },
    {
      "anonymous": false,
      "inputs": [
        {
          "indexed": true,
          "internalType": "address",
          "name": "fixedLender",
          "type": "address"
        },
        {
          "indexed": true,
          "internalType": "address",
          "name": "supplier",
          "type": "address"
        },
        {
          "indexed": false,
          "internalType": "uint256",
          "name": "mpSupplierDelta",
          "type": "uint256"
        },
        {
          "indexed": false,
          "internalType": "uint256",
          "name": "exaMPSupplyIndex",
          "type": "uint256"
        }
      ],
      "name": "DistributedMPSupplierExa",
      "type": "event"
    },
    {
      "anonymous": false,
      "inputs": [
        {
          "indexed": true,
          "internalType": "address",
          "name": "fixedLender",
          "type": "address"
        },
        {
          "indexed": true,
          "internalType": "address",
          "name": "supplier",
          "type": "address"
        },
        {
          "indexed": false,
          "internalType": "uint256",
          "name": "spSupplierDelta",
          "type": "uint256"
        },
        {
          "indexed": false,
          "internalType": "uint256",
          "name": "exaSPSupplyIndex",
          "type": "uint256"
        }
      ],
      "name": "DistributedSPSupplierExa",
      "type": "event"
    },
    {
      "anonymous": false,
      "inputs": [
        {
          "indexed": false,
          "internalType": "address",
          "name": "fixedLenderAddress",
          "type": "address"
        },
        {
          "indexed": false,
          "internalType": "uint256",
          "name": "newSpeed",
          "type": "uint256"
        }
      ],
      "name": "ExaSpeedUpdated",
      "type": "event"
    },
    {
      "anonymous": false,
      "inputs": [
        {
          "indexed": false,
          "internalType": "address",
          "name": "fixedLender",
          "type": "address"
        },
        {
          "indexed": false,
          "internalType": "address",
          "name": "account",
          "type": "address"
        },
        {
          "indexed": false,
          "internalType": "uint256",
          "name": "maturityDate",
          "type": "uint256"
        }
      ],
      "name": "MarketEntered",
      "type": "event"
    },
    {
      "anonymous": false,
      "inputs": [
        {
          "indexed": false,
          "internalType": "address",
          "name": "fixedLender",
          "type": "address"
        },
        {
          "indexed": false,
          "internalType": "address",
          "name": "account",
          "type": "address"
        },
        {
          "indexed": false,
          "internalType": "uint256",
          "name": "maturityDate",
          "type": "uint256"
        }
      ],
      "name": "MarketExited",
      "type": "event"
    },
    {
      "anonymous": false,
      "inputs": [
        {
          "indexed": false,
          "internalType": "address",
          "name": "fixedLender",
          "type": "address"
        }
      ],
      "name": "MarketListed",
      "type": "event"
    },
    {
      "anonymous": false,
      "inputs": [
        {
          "indexed": true,
          "internalType": "address",
          "name": "fixedLender",
          "type": "address"
        },
        {
          "indexed": false,
          "internalType": "uint256",
          "name": "newBorrowCap",
          "type": "uint256"
        }
      ],
      "name": "NewBorrowCap",
      "type": "event"
    },
    {
      "anonymous": false,
      "inputs": [
        {
          "indexed": false,
          "internalType": "address",
          "name": "newOracle",
          "type": "address"
        }
      ],
      "name": "OracleChanged",
      "type": "event"
    },
    {
      "anonymous": false,
      "inputs": [
        {
          "indexed": true,
          "internalType": "bytes32",
          "name": "role",
          "type": "bytes32"
        },
        {
          "indexed": true,
          "internalType": "bytes32",
          "name": "previousAdminRole",
          "type": "bytes32"
        },
        {
          "indexed": true,
          "internalType": "bytes32",
          "name": "newAdminRole",
          "type": "bytes32"
        }
      ],
      "name": "RoleAdminChanged",
      "type": "event"
    },
    {
      "anonymous": false,
      "inputs": [
        {
          "indexed": true,
          "internalType": "bytes32",
          "name": "role",
          "type": "bytes32"
        },
        {
          "indexed": true,
          "internalType": "address",
          "name": "account",
          "type": "address"
        },
        {
          "indexed": true,
          "internalType": "address",
          "name": "sender",
          "type": "address"
        }
      ],
      "name": "RoleGranted",
      "type": "event"
    },
    {
      "anonymous": false,
      "inputs": [
        {
          "indexed": true,
          "internalType": "bytes32",
          "name": "role",
          "type": "bytes32"
        },
        {
          "indexed": true,
          "internalType": "address",
          "name": "account",
          "type": "address"
        },
        {
          "indexed": true,
          "internalType": "address",
          "name": "sender",
          "type": "address"
        }
      ],
      "name": "RoleRevoked",
      "type": "event"
    },
    {
      "inputs": [],
      "name": "DEFAULT_ADMIN_ROLE",
      "outputs": [
        {
          "internalType": "bytes32",
          "name": "",
          "type": "bytes32"
        }
      ],
      "stateMutability": "view",
      "type": "function"
    },
    {
      "inputs": [
        {
          "internalType": "address",
          "name": "fixedLenderAddress",
          "type": "address"
        },
        {
          "internalType": "address",
          "name": "borrower",
          "type": "address"
        },
        {
          "internalType": "uint256",
          "name": "borrowAmount",
          "type": "uint256"
        },
        {
          "internalType": "uint256",
          "name": "maturityDate",
          "type": "uint256"
        }
      ],
      "name": "beforeBorrowMP",
      "outputs": [],
      "stateMutability": "nonpayable",
      "type": "function"
    },
    {
      "inputs": [
        {
          "internalType": "address",
          "name": "fixedLenderAddress",
          "type": "address"
        },
        {
          "internalType": "address",
          "name": "supplier",
          "type": "address"
        },
        {
          "internalType": "uint256",
          "name": "maturityDate",
          "type": "uint256"
        }
      ],
      "name": "beforeDepositMP",
      "outputs": [],
      "stateMutability": "nonpayable",
      "type": "function"
    },
    {
      "inputs": [
        {
          "internalType": "address",
          "name": "fixedLenderAddress",
          "type": "address"
        },
        {
          "internalType": "address",
          "name": "borrower",
          "type": "address"
        }
      ],
      "name": "beforeRepayMP",
      "outputs": [],
      "stateMutability": "nonpayable",
      "type": "function"
    },
    {
      "inputs": [
        {
          "internalType": "address",
          "name": "fixedLenderAddress",
          "type": "address"
        },
        {
          "internalType": "address",
          "name": "supplier",
          "type": "address"
        }
      ],
      "name": "beforeSupplySP",
      "outputs": [],
      "stateMutability": "nonpayable",
      "type": "function"
    },
    {
      "inputs": [
        {
          "internalType": "address",
          "name": "fixedLenderAddress",
          "type": "address"
        },
        {
          "internalType": "address",
          "name": "redeemer",
          "type": "address"
        },
        {
          "internalType": "uint256",
          "name": "redeemAmount",
          "type": "uint256"
        },
        {
          "internalType": "uint256",
          "name": "maturityDate",
          "type": "uint256"
        }
      ],
      "name": "beforeWithdrawMP",
      "outputs": [],
      "stateMutability": "nonpayable",
      "type": "function"
    },
    {
      "inputs": [
        {
          "internalType": "address",
          "name": "fixedLenderAddress",
          "type": "address"
        },
        {
          "internalType": "address",
          "name": "supplier",
          "type": "address"
        }
      ],
      "name": "beforeWithdrawSP",
      "outputs": [],
      "stateMutability": "nonpayable",
      "type": "function"
    },
    {
      "inputs": [
        {
          "internalType": "address",
          "name": "holder",
          "type": "address"
        },
        {
          "internalType": "address[]",
          "name": "fixedLenders",
          "type": "address[]"
        }
      ],
      "name": "claimExa",
      "outputs": [],
      "stateMutability": "nonpayable",
      "type": "function"
    },
    {
      "inputs": [
        {
          "internalType": "address",
          "name": "holder",
          "type": "address"
        }
      ],
      "name": "claimExaAll",
      "outputs": [],
      "stateMutability": "nonpayable",
      "type": "function"
    },
    {
      "inputs": [],
      "name": "closeFactor",
      "outputs": [
        {
          "internalType": "uint256",
          "name": "",
          "type": "uint256"
        }
      ],
      "stateMutability": "view",
      "type": "function"
    },
    {
      "inputs": [
        {
          "internalType": "address",
          "name": "fixedLender",
          "type": "address"
        },
        {
          "internalType": "uint256",
          "name": "collateralFactor",
          "type": "uint256"
        },
        {
          "internalType": "string",
          "name": "symbol",
          "type": "string"
        },
        {
          "internalType": "string",
          "name": "name",
          "type": "string"
        },
        {
          "internalType": "uint8",
          "name": "decimals",
          "type": "uint8"
        }
      ],
      "name": "enableMarket",
      "outputs": [],
      "stateMutability": "nonpayable",
      "type": "function"
    },
    {
      "inputs": [
        {
          "internalType": "address[]",
          "name": "fixedLenders",
          "type": "address[]"
        },
        {
          "internalType": "uint256",
          "name": "maturityDate",
          "type": "uint256"
        }
      ],
      "name": "enterMarkets",
      "outputs": [],
      "stateMutability": "nonpayable",
      "type": "function"
    },
    {
      "inputs": [
        {
          "internalType": "address",
          "name": "fixedLenderAddress",
          "type": "address"
        },
        {
          "internalType": "uint256",
          "name": "maturityDate",
          "type": "uint256"
        }
      ],
      "name": "exitMarket",
      "outputs": [],
      "stateMutability": "nonpayable",
      "type": "function"
    },
    {
      "inputs": [
        {
          "internalType": "address",
          "name": "account",
          "type": "address"
        },
        {
          "internalType": "uint256",
          "name": "maturityDate",
          "type": "uint256"
        }
      ],
      "name": "getAccountLiquidity",
      "outputs": [
        {
          "internalType": "uint256",
          "name": "",
          "type": "uint256"
        },
        {
          "internalType": "uint256",
          "name": "",
          "type": "uint256"
        }
      ],
      "stateMutability": "view",
      "type": "function"
    },
    {
      "inputs": [],
      "name": "getFuturePools",
      "outputs": [
        {
          "internalType": "uint256[]",
          "name": "",
          "type": "uint256[]"
        }
      ],
      "stateMutability": "view",
      "type": "function"
    },
    {
      "inputs": [],
      "name": "getMarketAddresses",
      "outputs": [
        {
          "internalType": "address[]",
          "name": "",
          "type": "address[]"
        }
      ],
      "stateMutability": "view",
      "type": "function"
    },
    {
      "inputs": [
        {
          "internalType": "address",
          "name": "fixedLenderAddress",
          "type": "address"
        }
      ],
      "name": "getMarketData",
      "outputs": [
        {
          "internalType": "string",
          "name": "",
          "type": "string"
        },
        {
          "internalType": "string",
          "name": "",
          "type": "string"
        },
        {
          "internalType": "bool",
          "name": "",
          "type": "bool"
        },
        {
          "internalType": "uint256",
          "name": "",
          "type": "uint256"
        },
        {
          "internalType": "uint8",
          "name": "",
          "type": "uint8"
        }
      ],
      "stateMutability": "view",
      "type": "function"
    },
    {
      "inputs": [
        {
          "internalType": "bytes32",
          "name": "role",
          "type": "bytes32"
        }
      ],
      "name": "getRoleAdmin",
      "outputs": [
        {
          "internalType": "bytes32",
          "name": "",
          "type": "bytes32"
        }
      ],
      "stateMutability": "view",
      "type": "function"
    },
    {
      "inputs": [
        {
          "internalType": "bytes32",
          "name": "role",
          "type": "bytes32"
        },
        {
          "internalType": "address",
          "name": "account",
          "type": "address"
        }
      ],
      "name": "grantRole",
      "outputs": [],
      "stateMutability": "nonpayable",
      "type": "function"
    },
    {
      "inputs": [
        {
          "internalType": "bytes32",
          "name": "role",
          "type": "bytes32"
        },
        {
          "internalType": "address",
          "name": "account",
          "type": "address"
        }
      ],
      "name": "hasRole",
      "outputs": [
        {
          "internalType": "bool",
          "name": "",
          "type": "bool"
        }
      ],
      "stateMutability": "view",
      "type": "function"
    },
    {
      "inputs": [
        {
          "internalType": "address",
          "name": "fixedLenderBorrowed",
          "type": "address"
        },
        {
          "internalType": "address",
          "name": "fixedLenderCollateral",
          "type": "address"
        },
        {
          "internalType": "address",
          "name": "liquidator",
          "type": "address"
        },
        {
          "internalType": "address",
          "name": "borrower",
          "type": "address"
        },
        {
          "internalType": "uint256",
          "name": "repayAmount",
          "type": "uint256"
        },
        {
          "internalType": "uint256",
          "name": "maturityDate",
          "type": "uint256"
        }
      ],
      "name": "liquidateAllowed",
      "outputs": [],
      "stateMutability": "view",
      "type": "function"
    },
    {
      "inputs": [
        {
          "internalType": "address",
          "name": "fixedLenderBorrowed",
          "type": "address"
        },
        {
          "internalType": "address",
          "name": "fixedLenderCollateral",
          "type": "address"
        },
        {
          "internalType": "uint256",
          "name": "actualRepayAmount",
          "type": "uint256"
        }
      ],
      "name": "liquidateCalculateSeizeAmount",
      "outputs": [
        {
          "internalType": "uint256",
          "name": "",
          "type": "uint256"
        }
      ],
      "stateMutability": "view",
      "type": "function"
    },
    {
      "inputs": [],
      "name": "liquidationIncentive",
      "outputs": [
        {
          "internalType": "uint256",
          "name": "",
          "type": "uint256"
        }
      ],
      "stateMutability": "view",
      "type": "function"
    },
    {
      "inputs": [
        {
          "internalType": "uint256",
          "name": "",
          "type": "uint256"
        }
      ],
      "name": "marketsAddresses",
      "outputs": [
        {
          "internalType": "address",
          "name": "",
          "type": "address"
        }
      ],
      "stateMutability": "view",
      "type": "function"
    },
    {
      "inputs": [],
      "name": "maxFuturePools",
      "outputs": [
        {
          "internalType": "uint8",
          "name": "",
          "type": "uint8"
        }
      ],
      "stateMutability": "view",
      "type": "function"
    },
    {
      "inputs": [],
      "name": "oracle",
      "outputs": [
        {
          "internalType": "contract IOracle",
          "name": "",
          "type": "address"
        }
      ],
      "stateMutability": "view",
      "type": "function"
    },
    {
      "inputs": [
        {
          "internalType": "address",
          "name": "fixedLender",
          "type": "address"
        },
        {
          "internalType": "bool",
          "name": "paused",
          "type": "bool"
        }
      ],
      "name": "pauseBorrow",
      "outputs": [
        {
          "internalType": "bool",
          "name": "",
          "type": "bool"
        }
      ],
      "stateMutability": "nonpayable",
      "type": "function"
    },
    {
      "inputs": [
        {
          "internalType": "bytes32",
          "name": "role",
          "type": "bytes32"
        },
        {
          "internalType": "address",
          "name": "account",
          "type": "address"
        }
      ],
      "name": "renounceRole",
      "outputs": [],
      "stateMutability": "nonpayable",
      "type": "function"
    },
    {
      "inputs": [
        {
          "internalType": "uint256",
          "name": "maturityDate",
          "type": "uint256"
        },
        {
          "internalType": "enum TSUtils.State",
          "name": "requiredState",
          "type": "uint8"
        }
      ],
      "name": "requirePoolState",
      "outputs": [],
      "stateMutability": "view",
      "type": "function"
    },
    {
      "inputs": [
        {
          "internalType": "bytes32",
          "name": "role",
          "type": "bytes32"
        },
        {
          "internalType": "address",
          "name": "account",
          "type": "address"
        }
      ],
      "name": "revokeRole",
      "outputs": [],
      "stateMutability": "nonpayable",
      "type": "function"
    },
    {
      "inputs": [],
      "name": "rewardsState",
      "outputs": [
        {
          "internalType": "address",
          "name": "exaToken",
          "type": "address"
        }
      ],
      "stateMutability": "view",
      "type": "function"
    },
    {
      "inputs": [
        {
          "internalType": "address",
          "name": "fixedLenderCollateral",
          "type": "address"
        },
        {
          "internalType": "address",
          "name": "fixedLenderBorrowed",
          "type": "address"
        },
        {
          "internalType": "address",
          "name": "liquidator",
          "type": "address"
        },
        {
          "internalType": "address",
          "name": "borrower",
          "type": "address"
        }
      ],
      "name": "seizeAllowed",
      "outputs": [],
      "stateMutability": "view",
      "type": "function"
    },
    {
      "inputs": [
        {
          "internalType": "address",
          "name": "fixedLenderAddress",
          "type": "address"
        },
        {
          "internalType": "uint256",
          "name": "exaSpeed",
          "type": "uint256"
        }
      ],
      "name": "setExaSpeed",
      "outputs": [],
      "stateMutability": "nonpayable",
      "type": "function"
    },
    {
      "inputs": [
        {
          "internalType": "uint256",
          "name": "_liquidationIncentive",
          "type": "uint256"
        }
      ],
      "name": "setLiquidationIncentive",
      "outputs": [],
      "stateMutability": "nonpayable",
      "type": "function"
    },
    {
      "inputs": [
        {
          "internalType": "address[]",
          "name": "fixedLenders",
          "type": "address[]"
        },
        {
          "internalType": "uint256[]",
          "name": "newBorrowCaps",
          "type": "uint256[]"
        }
      ],
      "name": "setMarketBorrowCaps",
      "outputs": [],
      "stateMutability": "nonpayable",
      "type": "function"
    },
    {
      "inputs": [
        {
          "internalType": "address",
          "name": "_priceOracleAddress",
          "type": "address"
        }
      ],
      "name": "setOracle",
      "outputs": [],
      "stateMutability": "nonpayable",
      "type": "function"
    },
    {
      "inputs": [
        {
          "internalType": "bytes4",
          "name": "interfaceId",
          "type": "bytes4"
        }
      ],
      "name": "supportsInterface",
      "outputs": [
        {
          "internalType": "bool",
          "name": "",
          "type": "bool"
        }
      ],
      "stateMutability": "view",
      "type": "function"
    }
  ],
  "transactionHash": "0xa152c8bfbd1c2c63ef9e4e78929de8669928eb59d6e8f3d44d212fc90a7dc6af",
  "args": [
    "0xD8Eedc43a1b640E6aBD56aC6cc66Cc53f25B2c53",
    "0x1Bb0851a116e8d90A19d1087d1A51Ac267961cfb"
  ],
  "solcInputHash": "55b41d0d375b94982167edc35fa1a51a",
  "bytecode": "0x60806040526706f05b59d3b20000600555670f43fc2c04ee0000600655600c600760006101000a81548160ff021916908360ff1602179055503480156200004557600080fd5b5060405162005a1238038062005a1283398181016040528101906200006b91906200029d565b80600960000160006101000a81548173ffffffffffffffffffffffffffffffffffffffff021916908373ffffffffffffffffffffffffffffffffffffffff16021790555081600c60006101000a81548173ffffffffffffffffffffffffffffffffffffffff021916908373ffffffffffffffffffffffffffffffffffffffff160217905550620001056000801b336200010d60201b60201c565b50506200032c565b6200011f82826200012360201b60201c565b5050565b6200013582826200021460201b60201c565b6200021057600160008084815260200190815260200160002060000160008373ffffffffffffffffffffffffffffffffffffffff1673ffffffffffffffffffffffffffffffffffffffff16815260200190815260200160002060006101000a81548160ff021916908315150217905550620001b56200027e60201b60201c565b73ffffffffffffffffffffffffffffffffffffffff168173ffffffffffffffffffffffffffffffffffffffff16837f2f8788117e7eff1d82e926ec794901d17c78024a50270940304540a733656f0d60405160405180910390a45b5050565b600080600084815260200190815260200160002060000160008373ffffffffffffffffffffffffffffffffffffffff1673ffffffffffffffffffffffffffffffffffffffff16815260200190815260200160002060009054906101000a900460ff16905092915050565b600033905090565b600081519050620002978162000312565b92915050565b60008060408385031215620002b157600080fd5b6000620002c18582860162000286565b9250506020620002d48582860162000286565b9150509250929050565b6000620002eb82620002f2565b9050919050565b600073ffffffffffffffffffffffffffffffffffffffff82169050919050565b6200031d81620002de565b81146200032957600080fd5b50565b6156d6806200033c6000396000f3fe608060405234801561001057600080fd5b50600436106102275760003560e01c806363ae097a11610130578063a217fddf116100b8578063bb987aef1161007c578063bb987aef1461064b578063c7333f0414610667578063d547741f14610685578063dec481b8146106a1578063eafe967b146106d157610227565b8063a217fddf14610591578063a30c302d146105af578063a8431081146105e3578063b10ed768146105ff578063b35dd5dd1461061b57610227565b80638c765e94116100ff5780638c765e94146104d857806391d14854146104f6578063924f6ced1461052657806397ce0d31146105425780639e35e1421461056057610227565b806363ae097a146104665780637adbf973146104825780637dc0d1d01461049e578063806a9f80146104bc57610227565b806321e23a98116101b35780632f2ff15d116101825780632f2ff15d146103c657806336568abe146103e25780635cf232e6146103fe5780635efadbd11461041a578063635f8fc21461044a57610227565b806321e23a9814610342578063248a9ca31461035e57806328bc83c11461038e5780632c7c0ae8146103aa57610227565b80630ac8f744116101fa5780630ac8f744146102b45780630e52dbec146102d0578063186db48f146102ee5780631d48f1d61461030a5780631e69d4301461032657610227565b806301ffc9a71461022c57806305308b9f1461025c578063055d32541461027a57806307219b0914610296575b600080fd5b61024660048036038101906102419190614283565b6106ed565b6040516102539190614896565b60405180910390f35b610264610767565b6040516102719190614d2d565b60405180910390f35b610294600480360381019061028f9190613d9a565b61076d565b005b61029e6108e2565b6040516102ab9190614874565b60405180910390f35b6102ce60048036038101906102c99190613f11565b610986565b005b6102d8610c7c565b6040516102e59190614dd1565b60405180910390f35b610308600480360381019061030391906140e7565b610c8f565b005b610324600480360381019061031f919061415c565b610fbd565b005b610340600480360381019061033b9190614004565b6110b2565b005b61035c60048036038101906103579190613f11565b61136f565b005b6103786004803603810190610373919061421e565b61145d565b60405161038591906148b1565b60405180910390f35b6103a860048036038101906103a39190613d9a565b61147c565b005b6103c460048036038101906103bf9190613e39565b6115f1565b005b6103e060048036038101906103db9190614247565b61199a565b005b6103fc60048036038101906103f79190614247565b6119c3565b005b61041860048036038101906104139190614040565b611a46565b005b610434600480360381019061042f9190613ec2565b611cfc565b6040516104419190614d2d565b60405180910390f35b610464600480360381019061045f9190613ec2565b612043565b005b610480600480360381019061047b9190613f74565b6121c4565b005b61049c60048036038101906104979190613d71565b612330565b005b6104a66123c1565b6040516104b391906148cc565b60405180910390f35b6104d660048036038101906104d19190614391565b6123e7565b005b6104e06123f5565b6040516104ed9190614d2d565b60405180910390f35b610510600480360381019061050b9190614247565b6123fb565b60405161051d9190614896565b60405180910390f35b610540600480360381019061053b9190613d9a565b612465565b005b61054a6125da565b6040516105579190614852565b60405180910390f35b61057a60048036038101906105759190614004565b612668565b604051610588929190614d48565b60405180910390f35b61059961272f565b6040516105a691906148b1565b60405180910390f35b6105c960048036038101906105c49190613d71565b612736565b6040516105da95949392919061494d565b60405180910390f35b6105fd60048036038101906105f8919061433f565b612976565b005b61061960048036038101906106149190613d71565b612996565b005b6106356004803603810190610630919061433f565b612a29565b60405161064291906147d2565b60405180910390f35b61066560048036038101906106609190614004565b612a68565b005b61066f612bfb565b60405161067c91906147d2565b60405180910390f35b61069f600480360381019061069a9190614247565b612c27565b005b6106bb60048036038101906106b69190613fc8565b612c50565b6040516106c89190614896565b60405180910390f35b6106eb60048036038101906106e69190613dd6565b612d98565b005b60007f7965db0b000000000000000000000000000000000000000000000000000000007bffffffffffffffffffffffffffffffffffffffffffffffffffffffff1916827bffffffffffffffffffffffffffffffffffffffffffffffffffffffff19161480610760575061075f82612f02565b5b9050919050565b60055481565b600160000160008373ffffffffffffffffffffffffffffffffffffffff1673ffffffffffffffffffffffffffffffffffffffff16815260200190815260200160002060020160009054906101000a900460ff166108025760016040517fede8a5990000000000000000000000000000000000000000000000000000000081526004016107f991906148e7565b60405180910390fd5b600973DD82cCC242A1F88EC2c02b0986E15E71897B7fc763cfabf395909143856040518463ffffffff1660e01b815260040161084093929190614c0a565b60006040518083038186803b15801561085857600080fd5b505af415801561086c573d6000803e3d6000fd5b50505050600973DD82cCC242A1F88EC2c02b0986E15E71897B7fc763eb5df71c909184846040518463ffffffff1660e01b81526004016108ae93929190614bd3565b60006040518083038186803b1580156108c657600080fd5b505af41580156108da573d6000803e3d6000fd5b505050505050565b606073f6780c6eCFbF39CE58ac293dC2F00da27c91df4E63ee5c40d442600760009054906101000a900460ff166040518363ffffffff1660e01b815260040161092c929190614da8565b60006040518083038186803b15801561094457600080fd5b505af4158015610958573d6000803e3d6000fd5b505050506040513d6000823e3d601f19601f8201168201806040525081019061098191906141b4565b905090565b6001800160008573ffffffffffffffffffffffffffffffffffffffff1673ffffffffffffffffffffffffffffffffffffffff16815260200190815260200160002060009054906101000a900460ff1615610a1857600e6040517fede8a599000000000000000000000000000000000000000000000000000000008152600401610a0f91906148e7565b60405180910390fd5b610a23816002612f6c565b6001735F5A5531CF864FA2BB97A7d455E0850d8ea2792263ce41cb4c9091868686866040518663ffffffff1660e01b8152600401610a65959493929190614a33565b60006040518083038186803b158015610a7d57600080fd5b505af4158015610a91573d6000803e3d6000fd5b5050505060006001735F5A5531CF864FA2BB97A7d455E0850d8ea2792263bde290fb9091600c60009054906101000a900473ffffffffffffffffffffffffffffffffffffffff1687868a60008a6040518863ffffffff1660e01b8152600401610b009796959493929190614af5565b604080518083038186803b158015610b1757600080fd5b505af4158015610b2b573d6000803e3d6000fd5b505050506040513d601f19601f82011682018060405250810190610b4f91906143cd565b9150506000811115610b995760056040517fede8a599000000000000000000000000000000000000000000000000000000008152600401610b9091906148e7565b60405180910390fd5b600973DD82cCC242A1F88EC2c02b0986E15E71897B7fc763f54529ae909143886040518463ffffffff1660e01b8152600401610bd793929190614c0a565b60006040518083038186803b158015610bef57600080fd5b505af4158015610c03573d6000803e3d6000fd5b50505050600973DD82cCC242A1F88EC2c02b0986E15E71897B7fc76303ef12f4909187876040518463ffffffff1660e01b8152600401610c4593929190614bd3565b60006040518083038186803b158015610c5d57600080fd5b505af4158015610c71573d6000803e3d6000fd5b505050505050505050565b600760009054906101000a900460ff1681565b6000801b610ca481610c9f6130c5565b6130cd565b600085859050905060008484905090506000821480610cc35750808214155b15610d065760106040517fede8a599000000000000000000000000000000000000000000000000000000008152600401610cfd91906148e7565b60405180910390fd5b60005b82811015610fb35760016000016000898984818110610d51577f4e487b7100000000000000000000000000000000000000000000000000000000600052603260045260246000fd5b9050602002016020810190610d669190613d71565b73ffffffffffffffffffffffffffffffffffffffff1673ffffffffffffffffffffffffffffffffffffffff16815260200190815260200160002060020160009054906101000a900460ff16610df35760016040517fede8a599000000000000000000000000000000000000000000000000000000008152600401610dea91906148e7565b60405180910390fd5b858582818110610e2c577f4e487b7100000000000000000000000000000000000000000000000000000000600052603260045260246000fd5b90506020020135600160020160008a8a85818110610e73577f4e487b7100000000000000000000000000000000000000000000000000000000600052603260045260246000fd5b9050602002016020810190610e889190613d71565b73ffffffffffffffffffffffffffffffffffffffff1673ffffffffffffffffffffffffffffffffffffffff16815260200190815260200160002081905550878782818110610eff577f4e487b7100000000000000000000000000000000000000000000000000000000600052603260045260246000fd5b9050602002016020810190610f149190613d71565b73ffffffffffffffffffffffffffffffffffffffff167f6f1951b2aad10f3fc81b86d91105b413a5b3f847a34bbc5ce1904201b14438f6878784818110610f84577f4e487b7100000000000000000000000000000000000000000000000000000000600052603260045260246000fd5b90506020020135604051610f989190614d2d565b60405180910390a28080610fab90615382565b915050610d09565b5050505050505050565b610fc8816002612f6c565b600083839050905060005b818110156110ab576001735F5A5531CF864FA2BB97A7d455E0850d8ea279226363a6cadd9091878785818110611032577f4e487b7100000000000000000000000000000000000000000000000000000000600052603260045260246000fd5b90506020020160208101906110479190613d71565b33876040518563ffffffff1660e01b815260040161106894939291906149ee565b60006040518083038186803b15801561108057600080fd5b505af4158015611094573d6000803e3d6000fd5b5050505080806110a390615382565b915050610fd3565b5050505050565b600160000160008373ffffffffffffffffffffffffffffffffffffffff1673ffffffffffffffffffffffffffffffffffffffff16815260200190815260200160002060020160009054906101000a900460ff166111475760016040517fede8a59900000000000000000000000000000000000000000000000000000000815260040161113e91906148e7565b60405180910390fd5b600082905073f6780c6eCFbF39CE58ac293dC2F00da27c91df4E63b142980a836040518263ffffffff1660e01b81526004016111839190614d12565b60206040518083038186803b15801561119b57600080fd5b505af41580156111af573d6000803e3d6000fd5b505050506040513d601f19601f820116820180604052508101906111d391906141f5565b61121557600c6040517fede8a59900000000000000000000000000000000000000000000000000000000815260040161120c91906148e7565b60405180910390fd5b6000808273ffffffffffffffffffffffffffffffffffffffff166355a1ac2e33866040518363ffffffff1660e01b8152600401611253929190614829565b604080518083038186803b15801561126a57600080fd5b505afa15801561127e573d6000803e3d6000fd5b505050506040513d601f19601f820116820180604052508101906112a291906143cd565b91509150600081146112ec5760146040517fede8a5990000000000000000000000000000000000000000000000000000000081526004016112e391906148e7565b60405180910390fd5b6112f88533848761316a565b6001735F5A5531CF864FA2BB97A7d455E0850d8ea27922632c0636c790918733886040518563ffffffff1660e01b815260040161133894939291906149ee565b60006040518083038186803b15801561135057600080fd5b505af4158015611364573d6000803e3d6000fd5b505050505050505050565b61137b8484848461316a565b600973DD82cCC242A1F88EC2c02b0986E15E71897B7fc763a32ae44d909143876040518463ffffffff1660e01b81526004016113b993929190614c0a565b60006040518083038186803b1580156113d157600080fd5b505af41580156113e5573d6000803e3d6000fd5b50505050600973DD82cCC242A1F88EC2c02b0986E15E71897B7fc7633e9e174a909186866040518463ffffffff1660e01b815260040161142793929190614bd3565b60006040518083038186803b15801561143f57600080fd5b505af4158015611453573d6000803e3d6000fd5b5050505050505050565b6000806000838152602001908152602001600020600101549050919050565b600160000160008373ffffffffffffffffffffffffffffffffffffffff1673ffffffffffffffffffffffffffffffffffffffff16815260200190815260200160002060020160009054906101000a900460ff166115115760016040517fede8a59900000000000000000000000000000000000000000000000000000000815260040161150891906148e7565b60405180910390fd5b600973DD82cCC242A1F88EC2c02b0986E15E71897B7fc763cfabf395909143856040518463ffffffff1660e01b815260040161154f93929190614c0a565b60006040518083038186803b15801561156757600080fd5b505af415801561157b573d6000803e3d6000fd5b50505050600973DD82cCC242A1F88EC2c02b0986E15E71897B7fc763eb5df71c909184846040518463ffffffff1660e01b81526004016115bd93929190614bd3565b60006040518083038186803b1580156115d557600080fd5b505af41580156115e9573d6000803e3d6000fd5b505050505050565b60008214156116385760096040517fede8a59900000000000000000000000000000000000000000000000000000000815260040161162f91906148e7565b60405180910390fd5b8373ffffffffffffffffffffffffffffffffffffffff168373ffffffffffffffffffffffffffffffffffffffff1614156116aa57600d6040517fede8a5990000000000000000000000000000000000000000000000000000000081526004016116a191906148e7565b60405180910390fd5b600160000160008773ffffffffffffffffffffffffffffffffffffffff1673ffffffffffffffffffffffffffffffffffffffff16815260200190815260200160002060020160009054906101000a900460ff1615806117595750600160000160008673ffffffffffffffffffffffffffffffffffffffff1673ffffffffffffffffffffffffffffffffffffffff16815260200190815260200160002060020160009054906101000a900460ff16155b1561179c5760016040517fede8a59900000000000000000000000000000000000000000000000000000000815260040161179391906148e7565b60405180910390fd5b60006001735F5A5531CF864FA2BB97A7d455E0850d8ea2792263bde290fb9091600c60009054906101000a900473ffffffffffffffffffffffffffffffffffffffff16878660008060006040518863ffffffff1660e01b81526004016118089796959493929190614a86565b604080518083038186803b15801561181f57600080fd5b505af4158015611833573d6000803e3d6000fd5b505050506040513d601f19601f8201168201806040525081019061185791906143cd565b91505060008114156118a15760066040517fede8a59900000000000000000000000000000000000000000000000000000000815260040161189891906148e7565b60405180910390fd5b60008773ffffffffffffffffffffffffffffffffffffffff166355a1ac2e86856040518363ffffffff1660e01b81526004016118de929190614829565b604080518083038186803b1580156118f557600080fd5b505afa158015611909573d6000803e3d6000fd5b505050506040513d601f19601f8201168201806040525081019061192d91906143cd565b9150506000611947826005546133c090919063ffffffff16565b90508085111561198f5760086040517fede8a59900000000000000000000000000000000000000000000000000000000815260040161198691906148e7565b60405180910390fd5b505050505050505050565b6119a38261145d565b6119b4816119af6130c5565b6130cd565b6119be83836133e9565b505050565b6119cb6130c5565b73ffffffffffffffffffffffffffffffffffffffff168173ffffffffffffffffffffffffffffffffffffffff1614611a38576040517f08c379a0000000000000000000000000000000000000000000000000000000008152600401611a2f906149ce565b60405180910390fd5b611a4282826134c9565b5050565b6000801b611a5b81611a566130c5565b6130cd565b6000600160000160008873ffffffffffffffffffffffffffffffffffffffff1673ffffffffffffffffffffffffffffffffffffffff16815260200190815260200160002090508060020160009054906101000a900460ff1615611af65760026040517fede8a599000000000000000000000000000000000000000000000000000000008152600401611aed91906148e7565b60405180910390fd5b3073ffffffffffffffffffffffffffffffffffffffff168773ffffffffffffffffffffffffffffffffffffffff1663b72ddee96040518163ffffffff1660e01b815260040160206040518083038186803b158015611b5357600080fd5b505afa158015611b67573d6000803e3d6000fd5b505050506040513d601f19601f82011682018060405250810190611b8b91906142ac565b73ffffffffffffffffffffffffffffffffffffffff1614611be45760076040517fede8a599000000000000000000000000000000000000000000000000000000008152600401611bdb91906148e7565b60405180910390fd5b60018160020160006101000a81548160ff02191690831515021790555085816003018190555084816000019080519060200190611c22929190613957565b5083816001019080519060200190611c3b929190613957565b50828160040160006101000a81548160ff021916908360ff1602179055506008879080600181540180825580915050600190039060005260206000200160009091909190916101000a81548173ffffffffffffffffffffffffffffffffffffffff021916908373ffffffffffffffffffffffffffffffffffffffff1602179055507fcf583bb0c569eb967f806b11601c4cb93c10310485c67add5f8362c2f212321f87604051611ceb91906147d2565b60405180910390a150505050505050565b600080600c60009054906101000a900473ffffffffffffffffffffffffffffffffffffffff1673ffffffffffffffffffffffffffffffffffffffff16632aedd0eb8673ffffffffffffffffffffffffffffffffffffffff166391f3e4726040518163ffffffff1660e01b815260040160006040518083038186803b158015611d8357600080fd5b505afa158015611d97573d6000803e3d6000fd5b505050506040513d6000823e3d601f19601f82011682018060405250810190611dc091906142fe565b6040518263ffffffff1660e01b8152600401611ddc919061492b565b60206040518083038186803b158015611df457600080fd5b505afa158015611e08573d6000803e3d6000fd5b505050506040513d601f19601f82011682018060405250810190611e2c9190614368565b90506000600c60009054906101000a900473ffffffffffffffffffffffffffffffffffffffff1673ffffffffffffffffffffffffffffffffffffffff16632aedd0eb8673ffffffffffffffffffffffffffffffffffffffff166391f3e4726040518163ffffffff1660e01b815260040160006040518083038186803b158015611eb457600080fd5b505afa158015611ec8573d6000803e3d6000fd5b505050506040513d6000823e3d601f19601f82011682018060405250810190611ef191906142fe565b6040518263ffffffff1660e01b8152600401611f0d919061492b565b60206040518083038186803b158015611f2557600080fd5b505afa158015611f39573d6000803e3d6000fd5b505050506040513d601f19601f82011682018060405250810190611f5d9190614368565b90506000611fbe8584600160000160008b73ffffffffffffffffffffffffffffffffffffffff1673ffffffffffffffffffffffffffffffffffffffff16815260200190815260200160002060040160009054906101000a900460ff166135aa565b9050600061201f8284600160000160008b73ffffffffffffffffffffffffffffffffffffffff1673ffffffffffffffffffffffffffffffffffffffff16815260200190815260200160002060040160009054906101000a900460ff16613609565b9050612036600654826133c090919063ffffffff16565b9450505050509392505050565b600160000160008473ffffffffffffffffffffffffffffffffffffffff1673ffffffffffffffffffffffffffffffffffffffff16815260200190815260200160002060020160009054906101000a900460ff166120d85760016040517fede8a5990000000000000000000000000000000000000000000000000000000081526004016120cf91906148e7565b60405180910390fd5b6120e3816002612f6c565b600973DD82cCC242A1F88EC2c02b0986E15E71897B7fc763a32ae44d909143866040518463ffffffff1660e01b815260040161212193929190614c0a565b60006040518083038186803b15801561213957600080fd5b505af415801561214d573d6000803e3d6000fd5b50505050600973DD82cCC242A1F88EC2c02b0986E15E71897B7fc7633e9e174a909185856040518463ffffffff1660e01b815260040161218f93929190614bd3565b60006040518083038186803b1580156121a757600080fd5b505af41580156121bb573d6000803e3d6000fd5b50505050505050565b6000600167ffffffffffffffff811115612207577f4e487b7100000000000000000000000000000000000000000000000000000000600052604160045260246000fd5b6040519080825280602002602001820160405280156122355781602001602082028036833780820191505090505b5090508281600081518110612273577f4e487b7100000000000000000000000000000000000000000000000000000000600052603260045260246000fd5b602002602001019073ffffffffffffffffffffffffffffffffffffffff16908173ffffffffffffffffffffffffffffffffffffffff1681525050600973DD82cCC242A1F88EC2c02b0986E15E71897B7fc7633d00bbe59091436001600001858760018060016040518963ffffffff1660e01b81526004016122fb989796959493929190614c86565b60006040518083038186803b15801561231357600080fd5b505af4158015612327573d6000803e3d6000fd5b50505050505050565b6000801b612345816123406130c5565b6130cd565b81600c60006101000a81548173ffffffffffffffffffffffffffffffffffffffff021916908373ffffffffffffffffffffffffffffffffffffffff1602179055507f0e05ae75e8b926552cf6fcd744d19f422561e3ced1e426868730852702dbe418826040516123b591906147d2565b60405180910390a15050565b600c60009054906101000a900473ffffffffffffffffffffffffffffffffffffffff1681565b6123f18282612f6c565b5050565b60065481565b600080600084815260200190815260200160002060000160008373ffffffffffffffffffffffffffffffffffffffff1673ffffffffffffffffffffffffffffffffffffffff16815260200190815260200160002060009054906101000a900460ff16905092915050565b600160000160008373ffffffffffffffffffffffffffffffffffffffff1673ffffffffffffffffffffffffffffffffffffffff16815260200190815260200160002060020160009054906101000a900460ff166124fa5760016040517fede8a5990000000000000000000000000000000000000000000000000000000081526004016124f191906148e7565b60405180910390fd5b600973DD82cCC242A1F88EC2c02b0986E15E71897B7fc763f54529ae909143856040518463ffffffff1660e01b815260040161253893929190614c0a565b60006040518083038186803b15801561255057600080fd5b505af4158015612564573d6000803e3d6000fd5b50505050600973DD82cCC242A1F88EC2c02b0986E15E71897B7fc76303ef12f4909184846040518463ffffffff1660e01b81526004016125a693929190614bd3565b60006040518083038186803b1580156125be57600080fd5b505af41580156125d2573d6000803e3d6000fd5b505050505050565b6060600880548060200260200160405190810160405280929190818152602001828054801561265e57602002820191906000526020600020905b8160009054906101000a900473ffffffffffffffffffffffffffffffffffffffff1673ffffffffffffffffffffffffffffffffffffffff1681526020019060010190808311612614575b5050505050905090565b6000806001735F5A5531CF864FA2BB97A7d455E0850d8ea2792263bde290fb9091600c60009054906101000a900473ffffffffffffffffffffffffffffffffffffffff16878760008060006040518863ffffffff1660e01b81526004016126d59796959493929190614a86565b604080518083038186803b1580156126ec57600080fd5b505af4158015612700573d6000803e3d6000fd5b505050506040513d601f19601f8201168201806040525081019061272491906143cd565b915091509250929050565b6000801b81565b6060806000806000600160000160008773ffffffffffffffffffffffffffffffffffffffff1673ffffffffffffffffffffffffffffffffffffffff16815260200190815260200160002060020160009054906101000a900460ff166127d35760016040517fede8a5990000000000000000000000000000000000000000000000000000000081526004016127ca91906148e7565b60405180910390fd5b6000600160000160008873ffffffffffffffffffffffffffffffffffffffff1673ffffffffffffffffffffffffffffffffffffffff168152602001908152602001600020905080600001816001018260020160009054906101000a900460ff1683600301548460040160009054906101000a900460ff168480546128569061531f565b80601f01602080910402602001604051908101604052809291908181526020018280546128829061531f565b80156128cf5780601f106128a4576101008083540402835291602001916128cf565b820191906000526020600020905b8154815290600101906020018083116128b257829003601f168201915b505050505094508380546128e29061531f565b80601f016020809104026020016040519081016040528092919081815260200182805461290e9061531f565b801561295b5780601f106129305761010080835404028352916020019161295b565b820191906000526020600020905b81548152906001019060200180831161293e57829003601f168201915b50505050509350955095509550955095505091939590929450565b6000801b61298b816129866130c5565b6130cd565b816006819055505050565b612a26816008805480602002602001604051908101604052809291908181526020018280548015612a1c57602002820191906000526020600020905b8160009054906101000a900473ffffffffffffffffffffffffffffffffffffffff1673ffffffffffffffffffffffffffffffffffffffff16815260200190600101908083116129d2575b50505050506121c4565b50565b60088181548110612a3957600080fd5b906000526020600020016000915054906101000a900473ffffffffffffffffffffffffffffffffffffffff1681565b6000801b612a7d81612a786130c5565b6130cd565b6000600160000160008573ffffffffffffffffffffffffffffffffffffffff1673ffffffffffffffffffffffffffffffffffffffff1681526020019081526020016000209050600015158160020160009054906101000a900460ff1615151415612b1f5760016040517fede8a599000000000000000000000000000000000000000000000000000000008152600401612b1691906148e7565b60405180910390fd5b60011515600973DD82cCC242A1F88EC2c02b0986E15E71897B7fc76353962db490914388886040518563ffffffff1660e01b8152600401612b639493929190614c41565b60206040518083038186803b158015612b7b57600080fd5b505af4158015612b8f573d6000803e3d6000fd5b505050506040513d601f19601f82011682018060405250810190612bb391906141f5565b15151415612bf5577fdbe1acf0f191a9aecba27ad74b59bb70426fe3f6129596f53b0f03a230c083238484604051612bec929190614829565b60405180910390a15b50505050565b60098060000160009054906101000a900473ffffffffffffffffffffffffffffffffffffffff16905081565b612c308261145d565b612c4181612c3c6130c5565b6130cd565b612c4b83836134c9565b505050565b60008060001b612c6781612c626130c5565b6130cd565b600160000160008573ffffffffffffffffffffffffffffffffffffffff1673ffffffffffffffffffffffffffffffffffffffff16815260200190815260200160002060020160009054906101000a900460ff16612cfc5760016040517fede8a599000000000000000000000000000000000000000000000000000000008152600401612cf391906148e7565b60405180910390fd5b826001800160008673ffffffffffffffffffffffffffffffffffffffff1673ffffffffffffffffffffffffffffffffffffffff16815260200190815260200160002060006101000a81548160ff0219169083151502179055507f71aec636243f9709bb0007ae15e9afb8150ab01716d75fd7573be5cc096e03b08484604051612d869291906147ed565b60405180910390a18291505092915050565b8173ffffffffffffffffffffffffffffffffffffffff168173ffffffffffffffffffffffffffffffffffffffff161415612e0a57600d6040517fede8a599000000000000000000000000000000000000000000000000000000008152600401612e0191906148e7565b60405180910390fd5b600160000160008573ffffffffffffffffffffffffffffffffffffffff1673ffffffffffffffffffffffffffffffffffffffff16815260200190815260200160002060020160009054906101000a900460ff161580612eb95750600160000160008473ffffffffffffffffffffffffffffffffffffffff1673ffffffffffffffffffffffffffffffffffffffff16815260200190815260200160002060020160009054906101000a900460ff16155b15612efc5760016040517fede8a599000000000000000000000000000000000000000000000000000000008152600401612ef391906148e7565b60405180910390fd5b50505050565b60007f01ffc9a7000000000000000000000000000000000000000000000000000000007bffffffffffffffffffffffffffffffffffffffffffffffffffffffff1916827bffffffffffffffffffffffffffffffffffffffffffffffffffffffff1916149050919050565b600073f6780c6eCFbF39CE58ac293dC2F00da27c91df4E63da4b8a4c4285600760009054906101000a900460ff166040518463ffffffff1660e01b8152600401612fb893929190614d71565b60206040518083038186803b158015612fd057600080fd5b505af4158015612fe4573d6000803e3d6000fd5b505050506040513d601f19601f8201168201806040525081019061300891906142d5565b9050816003811115613043577f4e487b7100000000000000000000000000000000000000000000000000000000600052602160045260246000fd5b81600381111561307c577f4e487b7100000000000000000000000000000000000000000000000000000000600052602160045260246000fd5b146130c05780826040517f34e2603a0000000000000000000000000000000000000000000000000000000081526004016130b7929190614902565b60405180910390fd5b505050565b600033905090565b6130d782826123fb565b613166576130fc8173ffffffffffffffffffffffffffffffffffffffff16601461365d565b61310a8360001c602061365d565b60405160200161311b929190614798565b6040516020818303038152906040526040517f08c379a000000000000000000000000000000000000000000000000000000000815260040161315d919061492b565b60405180910390fd5b5050565b600160000160008573ffffffffffffffffffffffffffffffffffffffff1673ffffffffffffffffffffffffffffffffffffffff16815260200190815260200160002060020160009054906101000a900460ff166131ff5760016040517fede8a5990000000000000000000000000000000000000000000000000000000081526004016131f691906148e7565b60405180910390fd5b61320a816001612f6c565b600160000160008573ffffffffffffffffffffffffffffffffffffffff1673ffffffffffffffffffffffffffffffffffffffff16815260200190815260200160002060050160008473ffffffffffffffffffffffffffffffffffffffff1673ffffffffffffffffffffffffffffffffffffffff168152602001908152602001600020600082815260200190815260200160002060009054906101000a900460ff166132b4576133ba565b60006001735F5A5531CF864FA2BB97A7d455E0850d8ea2792263bde290fb9091600c60009054906101000a900473ffffffffffffffffffffffffffffffffffffffff1687868a8960006040518863ffffffff1660e01b815260040161331f9796959493929190614b64565b604080518083038186803b15801561333657600080fd5b505af415801561334a573d6000803e3d6000fd5b505050506040513d601f19601f8201168201806040525081019061336e91906143cd565b91505060008111156133b85760056040517fede8a5990000000000000000000000000000000000000000000000000000000081526004016133af91906148e7565b60405180910390fd5b505b50505050565b6000670de0b6b3a764000082846133d7919061513c565b6133e19190614f9a565b905092915050565b6133f382826123fb565b6134c557600160008084815260200190815260200160002060000160008373ffffffffffffffffffffffffffffffffffffffff1673ffffffffffffffffffffffffffffffffffffffff16815260200190815260200160002060006101000a81548160ff02191690831515021790555061346a6130c5565b73ffffffffffffffffffffffffffffffffffffffff168173ffffffffffffffffffffffffffffffffffffffff16837f2f8788117e7eff1d82e926ec794901d17c78024a50270940304540a733656f0d60405160405180910390a45b5050565b6134d382826123fb565b156135a657600080600084815260200190815260200160002060000160008373ffffffffffffffffffffffffffffffffffffffff1673ffffffffffffffffffffffffffffffffffffffff16815260200190815260200160002060006101000a81548160ff02191690831515021790555061354b6130c5565b73ffffffffffffffffffffffffffffffffffffffff168173ffffffffffffffffffffffffffffffffffffffff16837ff6391f5c32d9c69d2a47ea670b442974b53935d1edc7fd64eb21e047a839171b60405160405180910390a45b5050565b60008082600a6135ba919061501e565b9050600081670de0b6b3a7640000876135d3919061513c565b6135dd9190614f9a565b9050670de0b6b3a764000085826135f4919061513c565b6135fe9190614f9a565b925050509392505050565b6000670de0b6b3a764000082600a613621919061501e565b84670de0b6b3a764000087613636919061513c565b6136409190614f9a565b61364a919061513c565b6136549190614f9a565b90509392505050565b606060006002836002613670919061513c565b61367a9190614f44565b67ffffffffffffffff8111156136b9577f4e487b7100000000000000000000000000000000000000000000000000000000600052604160045260246000fd5b6040519080825280601f01601f1916602001820160405280156136eb5781602001600182028036833780820191505090505b5090507f300000000000000000000000000000000000000000000000000000000000000081600081518110613749577f4e487b7100000000000000000000000000000000000000000000000000000000600052603260045260246000fd5b60200101907effffffffffffffffffffffffffffffffffffffffffffffffffffffffffffff1916908160001a9053507f7800000000000000000000000000000000000000000000000000000000000000816001815181106137d3577f4e487b7100000000000000000000000000000000000000000000000000000000600052603260045260246000fd5b60200101907effffffffffffffffffffffffffffffffffffffffffffffffffffffffffffff1916908160001a90535060006001846002613813919061513c565b61381d9190614f44565b90505b6001811115613909577f3031323334353637383961626364656600000000000000000000000000000000600f861660108110613885577f4e487b7100000000000000000000000000000000000000000000000000000000600052603260045260246000fd5b1a60f81b8282815181106138c2577f4e487b7100000000000000000000000000000000000000000000000000000000600052603260045260246000fd5b60200101907effffffffffffffffffffffffffffffffffffffffffffffffffffffffffffff1916908160001a905350600485901c945080613902906152f5565b9050613820565b506000841461394d576040517f08c379a0000000000000000000000000000000000000000000000000000000008152600401613944906149ae565b60405180910390fd5b8091505092915050565b8280546139639061531f565b90600052602060002090601f01602090048101928261398557600085556139cc565b82601f1061399e57805160ff19168380011785556139cc565b828001600101855582156139cc579182015b828111156139cb5782518255916020019190600101906139b0565b5b5090506139d991906139dd565b5090565b5b808211156139f65760008160009055506001016139de565b5090565b6000613a0d613a0884614e11565b614dec565b90508083825260208201905082856020860282011115613a2c57600080fd5b60005b85811015613a5c5781613a428882613b4e565b845260208401935060208301925050600181019050613a2f565b5050509392505050565b6000613a79613a7484614e3d565b614dec565b90508083825260208201905082856020860282011115613a9857600080fd5b60005b85811015613ac85781613aae8882613d47565b845260208401935060208301925050600181019050613a9b565b5050509392505050565b6000613ae5613ae084614e69565b614dec565b905082815260208101848484011115613afd57600080fd5b613b088482856152b3565b509392505050565b6000613b23613b1e84614e69565b614dec565b905082815260208101848484011115613b3b57600080fd5b613b468482856152c2565b509392505050565b600081359050613b5d816155ef565b92915050565b60008083601f840112613b7557600080fd5b8235905067ffffffffffffffff811115613b8e57600080fd5b602083019150836020820283011115613ba657600080fd5b9250929050565b600082601f830112613bbe57600080fd5b8135613bce8482602086016139fa565b91505092915050565b60008083601f840112613be957600080fd5b8235905067ffffffffffffffff811115613c0257600080fd5b602083019150836020820283011115613c1a57600080fd5b9250929050565b600082601f830112613c3257600080fd5b8151613c42848260208601613a66565b91505092915050565b600081359050613c5a81615606565b92915050565b600081519050613c6f81615606565b92915050565b600081359050613c848161561d565b92915050565b600081359050613c9981615634565b92915050565b600081519050613cae8161564b565b92915050565b600081359050613cc381615662565b92915050565b600081519050613cd881615662565b92915050565b600082601f830112613cef57600080fd5b8135613cff848260208601613ad2565b91505092915050565b600082601f830112613d1957600080fd5b8151613d29848260208601613b10565b91505092915050565b600081359050613d4181615672565b92915050565b600081519050613d5681615672565b92915050565b600081359050613d6b81615689565b92915050565b600060208284031215613d8357600080fd5b6000613d9184828501613b4e565b91505092915050565b60008060408385031215613dad57600080fd5b6000613dbb85828601613b4e565b9250506020613dcc85828601613b4e565b9150509250929050565b60008060008060808587031215613dec57600080fd5b6000613dfa87828801613b4e565b9450506020613e0b87828801613b4e565b9350506040613e1c87828801613b4e565b9250506060613e2d87828801613b4e565b91505092959194509250565b60008060008060008060c08789031215613e5257600080fd5b6000613e6089828a01613b4e565b9650506020613e7189828a01613b4e565b9550506040613e8289828a01613b4e565b9450506060613e9389828a01613b4e565b9350506080613ea489828a01613d32565b92505060a0613eb589828a01613d32565b9150509295509295509295565b600080600060608486031215613ed757600080fd5b6000613ee586828701613b4e565b9350506020613ef686828701613b4e565b9250506040613f0786828701613d32565b9150509250925092565b60008060008060808587031215613f2757600080fd5b6000613f3587828801613b4e565b9450506020613f4687828801613b4e565b9350506040613f5787828801613d32565b9250506060613f6887828801613d32565b91505092959194509250565b60008060408385031215613f8757600080fd5b6000613f9585828601613b4e565b925050602083013567ffffffffffffffff811115613fb257600080fd5b613fbe85828601613bad565b9150509250929050565b60008060408385031215613fdb57600080fd5b6000613fe985828601613b4e565b9250506020613ffa85828601613c4b565b9150509250929050565b6000806040838503121561401757600080fd5b600061402585828601613b4e565b925050602061403685828601613d32565b9150509250929050565b600080600080600060a0868803121561405857600080fd5b600061406688828901613b4e565b955050602061407788828901613d32565b945050604086013567ffffffffffffffff81111561409457600080fd5b6140a088828901613cde565b935050606086013567ffffffffffffffff8111156140bd57600080fd5b6140c988828901613cde565b92505060806140da88828901613d5c565b9150509295509295909350565b600080600080604085870312156140fd57600080fd5b600085013567ffffffffffffffff81111561411757600080fd5b61412387828801613b63565b9450945050602085013567ffffffffffffffff81111561414257600080fd5b61414e87828801613bd7565b925092505092959194509250565b60008060006040848603121561417157600080fd5b600084013567ffffffffffffffff81111561418b57600080fd5b61419786828701613b63565b935093505060206141aa86828701613d32565b9150509250925092565b6000602082840312156141c657600080fd5b600082015167ffffffffffffffff8111156141e057600080fd5b6141ec84828501613c21565b91505092915050565b60006020828403121561420757600080fd5b600061421584828501613c60565b91505092915050565b60006020828403121561423057600080fd5b600061423e84828501613c75565b91505092915050565b6000806040838503121561425a57600080fd5b600061426885828601613c75565b925050602061427985828601613b4e565b9150509250929050565b60006020828403121561429557600080fd5b60006142a384828501613c8a565b91505092915050565b6000602082840312156142be57600080fd5b60006142cc84828501613c9f565b91505092915050565b6000602082840312156142e757600080fd5b60006142f584828501613cc9565b91505092915050565b60006020828403121561431057600080fd5b600082015167ffffffffffffffff81111561432a57600080fd5b61433684828501613d08565b91505092915050565b60006020828403121561435157600080fd5b600061435f84828501613d32565b91505092915050565b60006020828403121561437a57600080fd5b600061438884828501613d47565b91505092915050565b600080604083850312156143a457600080fd5b60006143b285828601613d32565b92505060206143c385828601613cb4565b9150509250929050565b600080604083850312156143e057600080fd5b60006143ee85828601613d47565b92505060206143ff85828601613d47565b9150509250929050565b60006144158383614451565b60208301905092915050565b600061442d838361447e565b60208301905092915050565b6000614445838361474d565b60208301905092915050565b61445a81615196565b82525050565b61446981615196565b82525050565b61447881615196565b82525050565b61448781615196565b82525050565b600061449882614eba565b6144a28185614ef5565b93506144ad83614e9a565b8060005b838110156144de5781516144c58882614409565b97506144d083614edb565b9250506001810190506144b1565b5085935050505092915050565b60006144f682614eba565b6145008185614f06565b935061450b83614e9a565b8060005b8381101561453c5781516145238882614421565b975061452e83614edb565b92505060018101905061450f565b5085935050505092915050565b600061455482614ec5565b61455e8185614f17565b935061456983614eaa565b8060005b8381101561459a5781516145818882614439565b975061458c83614ee8565b92505060018101905061456d565b5085935050505092915050565b6145b0816151a8565b82525050565b6145bf816151a8565b82525050565b6145ce816151b4565b82525050565b6145dd81615259565b82525050565b6145ec81615259565b82525050565b6145fb8161527d565b82525050565b61460a8161528f565b82525050565b8082525050565b614620816152a1565b82525050565b600061463182614ed0565b61463b8185614f28565b935061464b8185602086016152c2565b614654816154b6565b840191505092915050565b600061466a82614ed0565b6146748185614f39565b93506146848185602086016152c2565b80840191505092915050565b600061469d602083614f28565b91506146a8826154d4565b602082019050919050565b60006146c0600683614f28565b91506146cb826154fd565b602082019050919050565b60006146e3601783614f39565b91506146ee82615526565b601782019050919050565b6000614706601183614f39565b91506147118261554f565b601182019050919050565b6000614729602f83614f28565b915061473482615578565b604082019050919050565b8082525050565b8082525050565b61475681615242565b82525050565b61476581615242565b82525050565b61477481615242565b82525050565b6147838161524c565b82525050565b6147928161524c565b82525050565b60006147a3826146d6565b91506147af828561465f565b91506147ba826146f9565b91506147c6828461465f565b91508190509392505050565b60006020820190506147e76000830184614460565b92915050565b60006060820190506148026000830185614460565b8181036020830152614813816146b3565b905061482260408301846145a7565b9392505050565b600060408201905061483e6000830185614460565b61484b602083018461475c565b9392505050565b6000602082019050818103600083015261486c818461448d565b905092915050565b6000602082019050818103600083015261488e8184614549565b905092915050565b60006020820190506148ab60008301846145a7565b92915050565b60006020820190506148c660008301846145c5565b92915050565b60006020820190506148e160008301846145d4565b92915050565b60006020820190506148fc60008301846145f2565b92915050565b60006040820190506149176000830185614601565b6149246020830184614601565b9392505050565b600060208201905081810360008301526149458184614626565b905092915050565b600060a08201905081810360008301526149678188614626565b9050818103602083015261497b8187614626565b905061498a60408301866145a7565b614997606083018561475c565b6149a4608083018461477a565b9695505050505050565b600060208201905081810360008301526149c781614690565b9050919050565b600060208201905081810360008301526149e78161471c565b9050919050565b6000608082019050614a03600083018761473f565b614a10602083018661446f565b614a1d604083018561446f565b614a2a606083018461476b565b95945050505050565b600060a082019050614a48600083018861473f565b614a55602083018761446f565b614a62604083018661446f565b614a6f606083018561476b565b614a7c608083018461476b565b9695505050505050565b600060e082019050614a9b600083018a61473f565b614aa860208301896145e3565b614ab5604083018861446f565b614ac2606083018761476b565b614acf608083018661446f565b614adc60a0830185614617565b614ae960c0830184614617565b98975050505050505050565b600060e082019050614b0a600083018a61473f565b614b1760208301896145e3565b614b24604083018861446f565b614b31606083018761476b565b614b3e608083018661446f565b614b4b60a0830185614617565b614b5860c083018461476b565b98975050505050505050565b600060e082019050614b79600083018a61473f565b614b8660208301896145e3565b614b93604083018861446f565b614ba0606083018761476b565b614bad608083018661446f565b614bba60a083018561476b565b614bc760c0830184614617565b98975050505050505050565b6000606082019050614be86000830186614746565b614bf5602083018561446f565b614c02604083018461446f565b949350505050565b6000606082019050614c1f6000830186614746565b614c2c602083018561476b565b614c39604083018461446f565b949350505050565b6000608082019050614c566000830187614746565b614c63602083018661476b565b614c70604083018561446f565b614c7d606083018461476b565b95945050505050565b600061010082019050614c9c600083018b614746565b614ca9602083018a61476b565b614cb66040830189614610565b8181036060830152614cc881886144eb565b90508181036080830152614cdc81876144eb565b9050614ceb60a08301866145b6565b614cf860c08301856145b6565b614d0560e08301846145b6565b9998505050505050505050565b6000602082019050614d27600083018461476b565b92915050565b6000602082019050614d42600083018461475c565b92915050565b6000604082019050614d5d600083018561475c565b614d6a602083018461475c565b9392505050565b6000606082019050614d86600083018661476b565b614d93602083018561476b565b614da06040830184614789565b949350505050565b6000604082019050614dbd600083018561476b565b614dca6020830184614789565b9392505050565b6000602082019050614de6600083018461477a565b92915050565b6000614df6614e07565b9050614e028282615351565b919050565b6000604051905090565b600067ffffffffffffffff821115614e2c57614e2b615487565b5b602082029050602081019050919050565b600067ffffffffffffffff821115614e5857614e57615487565b5b602082029050602081019050919050565b600067ffffffffffffffff821115614e8457614e83615487565b5b614e8d826154b6565b9050602081019050919050565b6000819050602082019050919050565b6000819050602082019050919050565b600081519050919050565b600081519050919050565b600081519050919050565b6000602082019050919050565b6000602082019050919050565b600082825260208201905092915050565b600082825260208201905092915050565b600082825260208201905092915050565b600082825260208201905092915050565b600081905092915050565b6000614f4f82615242565b9150614f5a83615242565b9250827fffffffffffffffffffffffffffffffffffffffffffffffffffffffffffffffff03821115614f8f57614f8e6153cb565b5b828201905092915050565b6000614fa582615242565b9150614fb083615242565b925082614fc057614fbf6153fa565b5b828204905092915050565b6000808291508390505b600185111561501557808604811115614ff157614ff06153cb565b5b60018516156150005780820291505b808102905061500e856154c7565b9450614fd5565b94509492505050565b600061502982615242565b91506150348361524c565b92506150617fffffffffffffffffffffffffffffffffffffffffffffffffffffffffffffffff8484615069565b905092915050565b6000826150795760019050615135565b816150875760009050615135565b816001811461509d57600281146150a7576150d6565b6001915050615135565b60ff8411156150b9576150b86153cb565b5b8360020a9150848211156150d0576150cf6153cb565b5b50615135565b5060208310610133831016604e8410600b841016171561510b5782820a905083811115615106576151056153cb565b5b615135565b6151188484846001614fcb565b9250905081840481111561512f5761512e6153cb565b5b81810290505b9392505050565b600061514782615242565b915061515283615242565b9250817fffffffffffffffffffffffffffffffffffffffffffffffffffffffffffffffff048311821515161561518b5761518a6153cb565b5b828202905092915050565b60006151a182615222565b9050919050565b60008115159050919050565b6000819050919050565b60007fffffffff0000000000000000000000000000000000000000000000000000000082169050919050565b60006151f582615196565b9050919050565b600081905061520a826155c7565b919050565b600081905061521d826155db565b919050565b600073ffffffffffffffffffffffffffffffffffffffff82169050919050565b6000819050919050565b600060ff82169050919050565b60006152648261526b565b9050919050565b600061527682615222565b9050919050565b6000615288826151fc565b9050919050565b600061529a8261520f565b9050919050565b60006152ac82615242565b9050919050565b82818337600083830152505050565b60005b838110156152e05780820151818401526020810190506152c5565b838111156152ef576000848401525b50505050565b600061530082615242565b91506000821415615314576153136153cb565b5b600182039050919050565b6000600282049050600182168061533757607f821691505b6020821081141561534b5761534a615458565b5b50919050565b61535a826154b6565b810181811067ffffffffffffffff8211171561537957615378615487565b5b80604052505050565b600061538d82615242565b91507fffffffffffffffffffffffffffffffffffffffffffffffffffffffffffffffff8214156153c0576153bf6153cb565b5b600182019050919050565b7f4e487b7100000000000000000000000000000000000000000000000000000000600052601160045260246000fd5b7f4e487b7100000000000000000000000000000000000000000000000000000000600052601260045260246000fd5b7f4e487b7100000000000000000000000000000000000000000000000000000000600052602160045260246000fd5b7f4e487b7100000000000000000000000000000000000000000000000000000000600052602260045260246000fd5b7f4e487b7100000000000000000000000000000000000000000000000000000000600052604160045260246000fd5b6000601f19601f8301169050919050565b60008160011c9050919050565b7f537472696e67733a20686578206c656e67746820696e73756666696369656e74600082015250565b7f426f72726f770000000000000000000000000000000000000000000000000000600082015250565b7f416363657373436f6e74726f6c3a206163636f756e7420000000000000000000600082015250565b7f206973206d697373696e6720726f6c6520000000000000000000000000000000600082015250565b7f416363657373436f6e74726f6c3a2063616e206f6e6c792072656e6f756e636560008201527f20726f6c657320666f722073656c660000000000000000000000000000000000602082015250565b601881106155d8576155d7615429565b5b50565b600481106155ec576155eb615429565b5b50565b6155f881615196565b811461560357600080fd5b50565b61560f816151a8565b811461561a57600080fd5b50565b615626816151b4565b811461563157600080fd5b50565b61563d816151be565b811461564857600080fd5b50565b615654816151ea565b811461565f57600080fd5b50565b6004811061566f57600080fd5b50565b61567b81615242565b811461568657600080fd5b50565b6156928161524c565b811461569d57600080fd5b5056fea2646970667358221220b3eeeb7743a80a300622734c60d67c0fd42656b022dce1deed4eb9367ec48e4064736f6c63430008040033",
  "deployedBytecode": "0x608060405234801561001057600080fd5b50600436106102275760003560e01c806363ae097a11610130578063a217fddf116100b8578063bb987aef1161007c578063bb987aef1461064b578063c7333f0414610667578063d547741f14610685578063dec481b8146106a1578063eafe967b146106d157610227565b8063a217fddf14610591578063a30c302d146105af578063a8431081146105e3578063b10ed768146105ff578063b35dd5dd1461061b57610227565b80638c765e94116100ff5780638c765e94146104d857806391d14854146104f6578063924f6ced1461052657806397ce0d31146105425780639e35e1421461056057610227565b806363ae097a146104665780637adbf973146104825780637dc0d1d01461049e578063806a9f80146104bc57610227565b806321e23a98116101b35780632f2ff15d116101825780632f2ff15d146103c657806336568abe146103e25780635cf232e6146103fe5780635efadbd11461041a578063635f8fc21461044a57610227565b806321e23a9814610342578063248a9ca31461035e57806328bc83c11461038e5780632c7c0ae8146103aa57610227565b80630ac8f744116101fa5780630ac8f744146102b45780630e52dbec146102d0578063186db48f146102ee5780631d48f1d61461030a5780631e69d4301461032657610227565b806301ffc9a71461022c57806305308b9f1461025c578063055d32541461027a57806307219b0914610296575b600080fd5b61024660048036038101906102419190614283565b6106ed565b6040516102539190614896565b60405180910390f35b610264610767565b6040516102719190614d2d565b60405180910390f35b610294600480360381019061028f9190613d9a565b61076d565b005b61029e6108e2565b6040516102ab9190614874565b60405180910390f35b6102ce60048036038101906102c99190613f11565b610986565b005b6102d8610c7c565b6040516102e59190614dd1565b60405180910390f35b610308600480360381019061030391906140e7565b610c8f565b005b610324600480360381019061031f919061415c565b610fbd565b005b610340600480360381019061033b9190614004565b6110b2565b005b61035c60048036038101906103579190613f11565b61136f565b005b6103786004803603810190610373919061421e565b61145d565b60405161038591906148b1565b60405180910390f35b6103a860048036038101906103a39190613d9a565b61147c565b005b6103c460048036038101906103bf9190613e39565b6115f1565b005b6103e060048036038101906103db9190614247565b61199a565b005b6103fc60048036038101906103f79190614247565b6119c3565b005b61041860048036038101906104139190614040565b611a46565b005b610434600480360381019061042f9190613ec2565b611cfc565b6040516104419190614d2d565b60405180910390f35b610464600480360381019061045f9190613ec2565b612043565b005b610480600480360381019061047b9190613f74565b6121c4565b005b61049c60048036038101906104979190613d71565b612330565b005b6104a66123c1565b6040516104b391906148cc565b60405180910390f35b6104d660048036038101906104d19190614391565b6123e7565b005b6104e06123f5565b6040516104ed9190614d2d565b60405180910390f35b610510600480360381019061050b9190614247565b6123fb565b60405161051d9190614896565b60405180910390f35b610540600480360381019061053b9190613d9a565b612465565b005b61054a6125da565b6040516105579190614852565b60405180910390f35b61057a60048036038101906105759190614004565b612668565b604051610588929190614d48565b60405180910390f35b61059961272f565b6040516105a691906148b1565b60405180910390f35b6105c960048036038101906105c49190613d71565b612736565b6040516105da95949392919061494d565b60405180910390f35b6105fd60048036038101906105f8919061433f565b612976565b005b61061960048036038101906106149190613d71565b612996565b005b6106356004803603810190610630919061433f565b612a29565b60405161064291906147d2565b60405180910390f35b61066560048036038101906106609190614004565b612a68565b005b61066f612bfb565b60405161067c91906147d2565b60405180910390f35b61069f600480360381019061069a9190614247565b612c27565b005b6106bb60048036038101906106b69190613fc8565b612c50565b6040516106c89190614896565b60405180910390f35b6106eb60048036038101906106e69190613dd6565b612d98565b005b60007f7965db0b000000000000000000000000000000000000000000000000000000007bffffffffffffffffffffffffffffffffffffffffffffffffffffffff1916827bffffffffffffffffffffffffffffffffffffffffffffffffffffffff19161480610760575061075f82612f02565b5b9050919050565b60055481565b600160000160008373ffffffffffffffffffffffffffffffffffffffff1673ffffffffffffffffffffffffffffffffffffffff16815260200190815260200160002060020160009054906101000a900460ff166108025760016040517fede8a5990000000000000000000000000000000000000000000000000000000081526004016107f991906148e7565b60405180910390fd5b600973__$362cfe25f3e11228b53aea52cf811ef65a$__63cfabf395909143856040518463ffffffff1660e01b815260040161084093929190614c0a565b60006040518083038186803b15801561085857600080fd5b505af415801561086c573d6000803e3d6000fd5b50505050600973__$362cfe25f3e11228b53aea52cf811ef65a$__63eb5df71c909184846040518463ffffffff1660e01b81526004016108ae93929190614bd3565b60006040518083038186803b1580156108c657600080fd5b505af41580156108da573d6000803e3d6000fd5b505050505050565b606073__$90f1fa1b3f91137ac60e95891d324fdd69$__63ee5c40d442600760009054906101000a900460ff166040518363ffffffff1660e01b815260040161092c929190614da8565b60006040518083038186803b15801561094457600080fd5b505af4158015610958573d6000803e3d6000fd5b505050506040513d6000823e3d601f19601f8201168201806040525081019061098191906141b4565b905090565b6001800160008573ffffffffffffffffffffffffffffffffffffffff1673ffffffffffffffffffffffffffffffffffffffff16815260200190815260200160002060009054906101000a900460ff1615610a1857600e6040517fede8a599000000000000000000000000000000000000000000000000000000008152600401610a0f91906148e7565b60405180910390fd5b610a23816002612f6c565b600173__$a5e3e26db51d661f8cd2686e868ae9d1a5$__63ce41cb4c9091868686866040518663ffffffff1660e01b8152600401610a65959493929190614a33565b60006040518083038186803b158015610a7d57600080fd5b505af4158015610a91573d6000803e3d6000fd5b505050506000600173__$a5e3e26db51d661f8cd2686e868ae9d1a5$__63bde290fb9091600c60009054906101000a900473ffffffffffffffffffffffffffffffffffffffff1687868a60008a6040518863ffffffff1660e01b8152600401610b009796959493929190614af5565b604080518083038186803b158015610b1757600080fd5b505af4158015610b2b573d6000803e3d6000fd5b505050506040513d601f19601f82011682018060405250810190610b4f91906143cd565b9150506000811115610b995760056040517fede8a599000000000000000000000000000000000000000000000000000000008152600401610b9091906148e7565b60405180910390fd5b600973__$362cfe25f3e11228b53aea52cf811ef65a$__63f54529ae909143886040518463ffffffff1660e01b8152600401610bd793929190614c0a565b60006040518083038186803b158015610bef57600080fd5b505af4158015610c03573d6000803e3d6000fd5b50505050600973__$362cfe25f3e11228b53aea52cf811ef65a$__6303ef12f4909187876040518463ffffffff1660e01b8152600401610c4593929190614bd3565b60006040518083038186803b158015610c5d57600080fd5b505af4158015610c71573d6000803e3d6000fd5b505050505050505050565b600760009054906101000a900460ff1681565b6000801b610ca481610c9f6130c5565b6130cd565b600085859050905060008484905090506000821480610cc35750808214155b15610d065760106040517fede8a599000000000000000000000000000000000000000000000000000000008152600401610cfd91906148e7565b60405180910390fd5b60005b82811015610fb35760016000016000898984818110610d51577f4e487b7100000000000000000000000000000000000000000000000000000000600052603260045260246000fd5b9050602002016020810190610d669190613d71565b73ffffffffffffffffffffffffffffffffffffffff1673ffffffffffffffffffffffffffffffffffffffff16815260200190815260200160002060020160009054906101000a900460ff16610df35760016040517fede8a599000000000000000000000000000000000000000000000000000000008152600401610dea91906148e7565b60405180910390fd5b858582818110610e2c577f4e487b7100000000000000000000000000000000000000000000000000000000600052603260045260246000fd5b90506020020135600160020160008a8a85818110610e73577f4e487b7100000000000000000000000000000000000000000000000000000000600052603260045260246000fd5b9050602002016020810190610e889190613d71565b73ffffffffffffffffffffffffffffffffffffffff1673ffffffffffffffffffffffffffffffffffffffff16815260200190815260200160002081905550878782818110610eff577f4e487b7100000000000000000000000000000000000000000000000000000000600052603260045260246000fd5b9050602002016020810190610f149190613d71565b73ffffffffffffffffffffffffffffffffffffffff167f6f1951b2aad10f3fc81b86d91105b413a5b3f847a34bbc5ce1904201b14438f6878784818110610f84577f4e487b7100000000000000000000000000000000000000000000000000000000600052603260045260246000fd5b90506020020135604051610f989190614d2d565b60405180910390a28080610fab90615382565b915050610d09565b5050505050505050565b610fc8816002612f6c565b600083839050905060005b818110156110ab57600173__$a5e3e26db51d661f8cd2686e868ae9d1a5$__6363a6cadd9091878785818110611032577f4e487b7100000000000000000000000000000000000000000000000000000000600052603260045260246000fd5b90506020020160208101906110479190613d71565b33876040518563ffffffff1660e01b815260040161106894939291906149ee565b60006040518083038186803b15801561108057600080fd5b505af4158015611094573d6000803e3d6000fd5b5050505080806110a390615382565b915050610fd3565b5050505050565b600160000160008373ffffffffffffffffffffffffffffffffffffffff1673ffffffffffffffffffffffffffffffffffffffff16815260200190815260200160002060020160009054906101000a900460ff166111475760016040517fede8a59900000000000000000000000000000000000000000000000000000000815260040161113e91906148e7565b60405180910390fd5b600082905073__$90f1fa1b3f91137ac60e95891d324fdd69$__63b142980a836040518263ffffffff1660e01b81526004016111839190614d12565b60206040518083038186803b15801561119b57600080fd5b505af41580156111af573d6000803e3d6000fd5b505050506040513d601f19601f820116820180604052508101906111d391906141f5565b61121557600c6040517fede8a59900000000000000000000000000000000000000000000000000000000815260040161120c91906148e7565b60405180910390fd5b6000808273ffffffffffffffffffffffffffffffffffffffff166355a1ac2e33866040518363ffffffff1660e01b8152600401611253929190614829565b604080518083038186803b15801561126a57600080fd5b505afa15801561127e573d6000803e3d6000fd5b505050506040513d601f19601f820116820180604052508101906112a291906143cd565b91509150600081146112ec5760146040517fede8a5990000000000000000000000000000000000000000000000000000000081526004016112e391906148e7565b60405180910390fd5b6112f88533848761316a565b600173__$a5e3e26db51d661f8cd2686e868ae9d1a5$__632c0636c790918733886040518563ffffffff1660e01b815260040161133894939291906149ee565b60006040518083038186803b15801561135057600080fd5b505af4158015611364573d6000803e3d6000fd5b505050505050505050565b61137b8484848461316a565b600973__$362cfe25f3e11228b53aea52cf811ef65a$__63a32ae44d909143876040518463ffffffff1660e01b81526004016113b993929190614c0a565b60006040518083038186803b1580156113d157600080fd5b505af41580156113e5573d6000803e3d6000fd5b50505050600973__$362cfe25f3e11228b53aea52cf811ef65a$__633e9e174a909186866040518463ffffffff1660e01b815260040161142793929190614bd3565b60006040518083038186803b15801561143f57600080fd5b505af4158015611453573d6000803e3d6000fd5b5050505050505050565b6000806000838152602001908152602001600020600101549050919050565b600160000160008373ffffffffffffffffffffffffffffffffffffffff1673ffffffffffffffffffffffffffffffffffffffff16815260200190815260200160002060020160009054906101000a900460ff166115115760016040517fede8a59900000000000000000000000000000000000000000000000000000000815260040161150891906148e7565b60405180910390fd5b600973__$362cfe25f3e11228b53aea52cf811ef65a$__63cfabf395909143856040518463ffffffff1660e01b815260040161154f93929190614c0a565b60006040518083038186803b15801561156757600080fd5b505af415801561157b573d6000803e3d6000fd5b50505050600973__$362cfe25f3e11228b53aea52cf811ef65a$__63eb5df71c909184846040518463ffffffff1660e01b81526004016115bd93929190614bd3565b60006040518083038186803b1580156115d557600080fd5b505af41580156115e9573d6000803e3d6000fd5b505050505050565b60008214156116385760096040517fede8a59900000000000000000000000000000000000000000000000000000000815260040161162f91906148e7565b60405180910390fd5b8373ffffffffffffffffffffffffffffffffffffffff168373ffffffffffffffffffffffffffffffffffffffff1614156116aa57600d6040517fede8a5990000000000000000000000000000000000000000000000000000000081526004016116a191906148e7565b60405180910390fd5b600160000160008773ffffffffffffffffffffffffffffffffffffffff1673ffffffffffffffffffffffffffffffffffffffff16815260200190815260200160002060020160009054906101000a900460ff1615806117595750600160000160008673ffffffffffffffffffffffffffffffffffffffff1673ffffffffffffffffffffffffffffffffffffffff16815260200190815260200160002060020160009054906101000a900460ff16155b1561179c5760016040517fede8a59900000000000000000000000000000000000000000000000000000000815260040161179391906148e7565b60405180910390fd5b6000600173__$a5e3e26db51d661f8cd2686e868ae9d1a5$__63bde290fb9091600c60009054906101000a900473ffffffffffffffffffffffffffffffffffffffff16878660008060006040518863ffffffff1660e01b81526004016118089796959493929190614a86565b604080518083038186803b15801561181f57600080fd5b505af4158015611833573d6000803e3d6000fd5b505050506040513d601f19601f8201168201806040525081019061185791906143cd565b91505060008114156118a15760066040517fede8a59900000000000000000000000000000000000000000000000000000000815260040161189891906148e7565b60405180910390fd5b60008773ffffffffffffffffffffffffffffffffffffffff166355a1ac2e86856040518363ffffffff1660e01b81526004016118de929190614829565b604080518083038186803b1580156118f557600080fd5b505afa158015611909573d6000803e3d6000fd5b505050506040513d601f19601f8201168201806040525081019061192d91906143cd565b9150506000611947826005546133c090919063ffffffff16565b90508085111561198f5760086040517fede8a59900000000000000000000000000000000000000000000000000000000815260040161198691906148e7565b60405180910390fd5b505050505050505050565b6119a38261145d565b6119b4816119af6130c5565b6130cd565b6119be83836133e9565b505050565b6119cb6130c5565b73ffffffffffffffffffffffffffffffffffffffff168173ffffffffffffffffffffffffffffffffffffffff1614611a38576040517f08c379a0000000000000000000000000000000000000000000000000000000008152600401611a2f906149ce565b60405180910390fd5b611a4282826134c9565b5050565b6000801b611a5b81611a566130c5565b6130cd565b6000600160000160008873ffffffffffffffffffffffffffffffffffffffff1673ffffffffffffffffffffffffffffffffffffffff16815260200190815260200160002090508060020160009054906101000a900460ff1615611af65760026040517fede8a599000000000000000000000000000000000000000000000000000000008152600401611aed91906148e7565b60405180910390fd5b3073ffffffffffffffffffffffffffffffffffffffff168773ffffffffffffffffffffffffffffffffffffffff1663b72ddee96040518163ffffffff1660e01b815260040160206040518083038186803b158015611b5357600080fd5b505afa158015611b67573d6000803e3d6000fd5b505050506040513d601f19601f82011682018060405250810190611b8b91906142ac565b73ffffffffffffffffffffffffffffffffffffffff1614611be45760076040517fede8a599000000000000000000000000000000000000000000000000000000008152600401611bdb91906148e7565b60405180910390fd5b60018160020160006101000a81548160ff02191690831515021790555085816003018190555084816000019080519060200190611c22929190613957565b5083816001019080519060200190611c3b929190613957565b50828160040160006101000a81548160ff021916908360ff1602179055506008879080600181540180825580915050600190039060005260206000200160009091909190916101000a81548173ffffffffffffffffffffffffffffffffffffffff021916908373ffffffffffffffffffffffffffffffffffffffff1602179055507fcf583bb0c569eb967f806b11601c4cb93c10310485c67add5f8362c2f212321f87604051611ceb91906147d2565b60405180910390a150505050505050565b600080600c60009054906101000a900473ffffffffffffffffffffffffffffffffffffffff1673ffffffffffffffffffffffffffffffffffffffff16632aedd0eb8673ffffffffffffffffffffffffffffffffffffffff166391f3e4726040518163ffffffff1660e01b815260040160006040518083038186803b158015611d8357600080fd5b505afa158015611d97573d6000803e3d6000fd5b505050506040513d6000823e3d601f19601f82011682018060405250810190611dc091906142fe565b6040518263ffffffff1660e01b8152600401611ddc919061492b565b60206040518083038186803b158015611df457600080fd5b505afa158015611e08573d6000803e3d6000fd5b505050506040513d601f19601f82011682018060405250810190611e2c9190614368565b90506000600c60009054906101000a900473ffffffffffffffffffffffffffffffffffffffff1673ffffffffffffffffffffffffffffffffffffffff16632aedd0eb8673ffffffffffffffffffffffffffffffffffffffff166391f3e4726040518163ffffffff1660e01b815260040160006040518083038186803b158015611eb457600080fd5b505afa158015611ec8573d6000803e3d6000fd5b505050506040513d6000823e3d601f19601f82011682018060405250810190611ef191906142fe565b6040518263ffffffff1660e01b8152600401611f0d919061492b565b60206040518083038186803b158015611f2557600080fd5b505afa158015611f39573d6000803e3d6000fd5b505050506040513d601f19601f82011682018060405250810190611f5d9190614368565b90506000611fbe8584600160000160008b73ffffffffffffffffffffffffffffffffffffffff1673ffffffffffffffffffffffffffffffffffffffff16815260200190815260200160002060040160009054906101000a900460ff166135aa565b9050600061201f8284600160000160008b73ffffffffffffffffffffffffffffffffffffffff1673ffffffffffffffffffffffffffffffffffffffff16815260200190815260200160002060040160009054906101000a900460ff16613609565b9050612036600654826133c090919063ffffffff16565b9450505050509392505050565b600160000160008473ffffffffffffffffffffffffffffffffffffffff1673ffffffffffffffffffffffffffffffffffffffff16815260200190815260200160002060020160009054906101000a900460ff166120d85760016040517fede8a5990000000000000000000000000000000000000000000000000000000081526004016120cf91906148e7565b60405180910390fd5b6120e3816002612f6c565b600973__$362cfe25f3e11228b53aea52cf811ef65a$__63a32ae44d909143866040518463ffffffff1660e01b815260040161212193929190614c0a565b60006040518083038186803b15801561213957600080fd5b505af415801561214d573d6000803e3d6000fd5b50505050600973__$362cfe25f3e11228b53aea52cf811ef65a$__633e9e174a909185856040518463ffffffff1660e01b815260040161218f93929190614bd3565b60006040518083038186803b1580156121a757600080fd5b505af41580156121bb573d6000803e3d6000fd5b50505050505050565b6000600167ffffffffffffffff811115612207577f4e487b7100000000000000000000000000000000000000000000000000000000600052604160045260246000fd5b6040519080825280602002602001820160405280156122355781602001602082028036833780820191505090505b5090508281600081518110612273577f4e487b7100000000000000000000000000000000000000000000000000000000600052603260045260246000fd5b602002602001019073ffffffffffffffffffffffffffffffffffffffff16908173ffffffffffffffffffffffffffffffffffffffff1681525050600973__$362cfe25f3e11228b53aea52cf811ef65a$__633d00bbe59091436001600001858760018060016040518963ffffffff1660e01b81526004016122fb989796959493929190614c86565b60006040518083038186803b15801561231357600080fd5b505af4158015612327573d6000803e3d6000fd5b50505050505050565b6000801b612345816123406130c5565b6130cd565b81600c60006101000a81548173ffffffffffffffffffffffffffffffffffffffff021916908373ffffffffffffffffffffffffffffffffffffffff1602179055507f0e05ae75e8b926552cf6fcd744d19f422561e3ced1e426868730852702dbe418826040516123b591906147d2565b60405180910390a15050565b600c60009054906101000a900473ffffffffffffffffffffffffffffffffffffffff1681565b6123f18282612f6c565b5050565b60065481565b600080600084815260200190815260200160002060000160008373ffffffffffffffffffffffffffffffffffffffff1673ffffffffffffffffffffffffffffffffffffffff16815260200190815260200160002060009054906101000a900460ff16905092915050565b600160000160008373ffffffffffffffffffffffffffffffffffffffff1673ffffffffffffffffffffffffffffffffffffffff16815260200190815260200160002060020160009054906101000a900460ff166124fa5760016040517fede8a5990000000000000000000000000000000000000000000000000000000081526004016124f191906148e7565b60405180910390fd5b600973__$362cfe25f3e11228b53aea52cf811ef65a$__63f54529ae909143856040518463ffffffff1660e01b815260040161253893929190614c0a565b60006040518083038186803b15801561255057600080fd5b505af4158015612564573d6000803e3d6000fd5b50505050600973__$362cfe25f3e11228b53aea52cf811ef65a$__6303ef12f4909184846040518463ffffffff1660e01b81526004016125a693929190614bd3565b60006040518083038186803b1580156125be57600080fd5b505af41580156125d2573d6000803e3d6000fd5b505050505050565b6060600880548060200260200160405190810160405280929190818152602001828054801561265e57602002820191906000526020600020905b8160009054906101000a900473ffffffffffffffffffffffffffffffffffffffff1673ffffffffffffffffffffffffffffffffffffffff1681526020019060010190808311612614575b5050505050905090565b600080600173__$a5e3e26db51d661f8cd2686e868ae9d1a5$__63bde290fb9091600c60009054906101000a900473ffffffffffffffffffffffffffffffffffffffff16878760008060006040518863ffffffff1660e01b81526004016126d59796959493929190614a86565b604080518083038186803b1580156126ec57600080fd5b505af4158015612700573d6000803e3d6000fd5b505050506040513d601f19601f8201168201806040525081019061272491906143cd565b915091509250929050565b6000801b81565b6060806000806000600160000160008773ffffffffffffffffffffffffffffffffffffffff1673ffffffffffffffffffffffffffffffffffffffff16815260200190815260200160002060020160009054906101000a900460ff166127d35760016040517fede8a5990000000000000000000000000000000000000000000000000000000081526004016127ca91906148e7565b60405180910390fd5b6000600160000160008873ffffffffffffffffffffffffffffffffffffffff1673ffffffffffffffffffffffffffffffffffffffff168152602001908152602001600020905080600001816001018260020160009054906101000a900460ff1683600301548460040160009054906101000a900460ff168480546128569061531f565b80601f01602080910402602001604051908101604052809291908181526020018280546128829061531f565b80156128cf5780601f106128a4576101008083540402835291602001916128cf565b820191906000526020600020905b8154815290600101906020018083116128b257829003601f168201915b505050505094508380546128e29061531f565b80601f016020809104026020016040519081016040528092919081815260200182805461290e9061531f565b801561295b5780601f106129305761010080835404028352916020019161295b565b820191906000526020600020905b81548152906001019060200180831161293e57829003601f168201915b50505050509350955095509550955095505091939590929450565b6000801b61298b816129866130c5565b6130cd565b816006819055505050565b612a26816008805480602002602001604051908101604052809291908181526020018280548015612a1c57602002820191906000526020600020905b8160009054906101000a900473ffffffffffffffffffffffffffffffffffffffff1673ffffffffffffffffffffffffffffffffffffffff16815260200190600101908083116129d2575b50505050506121c4565b50565b60088181548110612a3957600080fd5b906000526020600020016000915054906101000a900473ffffffffffffffffffffffffffffffffffffffff1681565b6000801b612a7d81612a786130c5565b6130cd565b6000600160000160008573ffffffffffffffffffffffffffffffffffffffff1673ffffffffffffffffffffffffffffffffffffffff1681526020019081526020016000209050600015158160020160009054906101000a900460ff1615151415612b1f5760016040517fede8a599000000000000000000000000000000000000000000000000000000008152600401612b1691906148e7565b60405180910390fd5b60011515600973__$362cfe25f3e11228b53aea52cf811ef65a$__6353962db490914388886040518563ffffffff1660e01b8152600401612b639493929190614c41565b60206040518083038186803b158015612b7b57600080fd5b505af4158015612b8f573d6000803e3d6000fd5b505050506040513d601f19601f82011682018060405250810190612bb391906141f5565b15151415612bf5577fdbe1acf0f191a9aecba27ad74b59bb70426fe3f6129596f53b0f03a230c083238484604051612bec929190614829565b60405180910390a15b50505050565b60098060000160009054906101000a900473ffffffffffffffffffffffffffffffffffffffff16905081565b612c308261145d565b612c4181612c3c6130c5565b6130cd565b612c4b83836134c9565b505050565b60008060001b612c6781612c626130c5565b6130cd565b600160000160008573ffffffffffffffffffffffffffffffffffffffff1673ffffffffffffffffffffffffffffffffffffffff16815260200190815260200160002060020160009054906101000a900460ff16612cfc5760016040517fede8a599000000000000000000000000000000000000000000000000000000008152600401612cf391906148e7565b60405180910390fd5b826001800160008673ffffffffffffffffffffffffffffffffffffffff1673ffffffffffffffffffffffffffffffffffffffff16815260200190815260200160002060006101000a81548160ff0219169083151502179055507f71aec636243f9709bb0007ae15e9afb8150ab01716d75fd7573be5cc096e03b08484604051612d869291906147ed565b60405180910390a18291505092915050565b8173ffffffffffffffffffffffffffffffffffffffff168173ffffffffffffffffffffffffffffffffffffffff161415612e0a57600d6040517fede8a599000000000000000000000000000000000000000000000000000000008152600401612e0191906148e7565b60405180910390fd5b600160000160008573ffffffffffffffffffffffffffffffffffffffff1673ffffffffffffffffffffffffffffffffffffffff16815260200190815260200160002060020160009054906101000a900460ff161580612eb95750600160000160008473ffffffffffffffffffffffffffffffffffffffff1673ffffffffffffffffffffffffffffffffffffffff16815260200190815260200160002060020160009054906101000a900460ff16155b15612efc5760016040517fede8a599000000000000000000000000000000000000000000000000000000008152600401612ef391906148e7565b60405180910390fd5b50505050565b60007f01ffc9a7000000000000000000000000000000000000000000000000000000007bffffffffffffffffffffffffffffffffffffffffffffffffffffffff1916827bffffffffffffffffffffffffffffffffffffffffffffffffffffffff1916149050919050565b600073__$90f1fa1b3f91137ac60e95891d324fdd69$__63da4b8a4c4285600760009054906101000a900460ff166040518463ffffffff1660e01b8152600401612fb893929190614d71565b60206040518083038186803b158015612fd057600080fd5b505af4158015612fe4573d6000803e3d6000fd5b505050506040513d601f19601f8201168201806040525081019061300891906142d5565b9050816003811115613043577f4e487b7100000000000000000000000000000000000000000000000000000000600052602160045260246000fd5b81600381111561307c577f4e487b7100000000000000000000000000000000000000000000000000000000600052602160045260246000fd5b146130c05780826040517f34e2603a0000000000000000000000000000000000000000000000000000000081526004016130b7929190614902565b60405180910390fd5b505050565b600033905090565b6130d782826123fb565b613166576130fc8173ffffffffffffffffffffffffffffffffffffffff16601461365d565b61310a8360001c602061365d565b60405160200161311b929190614798565b6040516020818303038152906040526040517f08c379a000000000000000000000000000000000000000000000000000000000815260040161315d919061492b565b60405180910390fd5b5050565b600160000160008573ffffffffffffffffffffffffffffffffffffffff1673ffffffffffffffffffffffffffffffffffffffff16815260200190815260200160002060020160009054906101000a900460ff166131ff5760016040517fede8a5990000000000000000000000000000000000000000000000000000000081526004016131f691906148e7565b60405180910390fd5b61320a816001612f6c565b600160000160008573ffffffffffffffffffffffffffffffffffffffff1673ffffffffffffffffffffffffffffffffffffffff16815260200190815260200160002060050160008473ffffffffffffffffffffffffffffffffffffffff1673ffffffffffffffffffffffffffffffffffffffff168152602001908152602001600020600082815260200190815260200160002060009054906101000a900460ff166132b4576133ba565b6000600173__$a5e3e26db51d661f8cd2686e868ae9d1a5$__63bde290fb9091600c60009054906101000a900473ffffffffffffffffffffffffffffffffffffffff1687868a8960006040518863ffffffff1660e01b815260040161331f9796959493929190614b64565b604080518083038186803b15801561333657600080fd5b505af415801561334a573d6000803e3d6000fd5b505050506040513d601f19601f8201168201806040525081019061336e91906143cd565b91505060008111156133b85760056040517fede8a5990000000000000000000000000000000000000000000000000000000081526004016133af91906148e7565b60405180910390fd5b505b50505050565b6000670de0b6b3a764000082846133d7919061513c565b6133e19190614f9a565b905092915050565b6133f382826123fb565b6134c557600160008084815260200190815260200160002060000160008373ffffffffffffffffffffffffffffffffffffffff1673ffffffffffffffffffffffffffffffffffffffff16815260200190815260200160002060006101000a81548160ff02191690831515021790555061346a6130c5565b73ffffffffffffffffffffffffffffffffffffffff168173ffffffffffffffffffffffffffffffffffffffff16837f2f8788117e7eff1d82e926ec794901d17c78024a50270940304540a733656f0d60405160405180910390a45b5050565b6134d382826123fb565b156135a657600080600084815260200190815260200160002060000160008373ffffffffffffffffffffffffffffffffffffffff1673ffffffffffffffffffffffffffffffffffffffff16815260200190815260200160002060006101000a81548160ff02191690831515021790555061354b6130c5565b73ffffffffffffffffffffffffffffffffffffffff168173ffffffffffffffffffffffffffffffffffffffff16837ff6391f5c32d9c69d2a47ea670b442974b53935d1edc7fd64eb21e047a839171b60405160405180910390a45b5050565b60008082600a6135ba919061501e565b9050600081670de0b6b3a7640000876135d3919061513c565b6135dd9190614f9a565b9050670de0b6b3a764000085826135f4919061513c565b6135fe9190614f9a565b925050509392505050565b6000670de0b6b3a764000082600a613621919061501e565b84670de0b6b3a764000087613636919061513c565b6136409190614f9a565b61364a919061513c565b6136549190614f9a565b90509392505050565b606060006002836002613670919061513c565b61367a9190614f44565b67ffffffffffffffff8111156136b9577f4e487b7100000000000000000000000000000000000000000000000000000000600052604160045260246000fd5b6040519080825280601f01601f1916602001820160405280156136eb5781602001600182028036833780820191505090505b5090507f300000000000000000000000000000000000000000000000000000000000000081600081518110613749577f4e487b7100000000000000000000000000000000000000000000000000000000600052603260045260246000fd5b60200101907effffffffffffffffffffffffffffffffffffffffffffffffffffffffffffff1916908160001a9053507f7800000000000000000000000000000000000000000000000000000000000000816001815181106137d3577f4e487b7100000000000000000000000000000000000000000000000000000000600052603260045260246000fd5b60200101907effffffffffffffffffffffffffffffffffffffffffffffffffffffffffffff1916908160001a90535060006001846002613813919061513c565b61381d9190614f44565b90505b6001811115613909577f3031323334353637383961626364656600000000000000000000000000000000600f861660108110613885577f4e487b7100000000000000000000000000000000000000000000000000000000600052603260045260246000fd5b1a60f81b8282815181106138c2577f4e487b7100000000000000000000000000000000000000000000000000000000600052603260045260246000fd5b60200101907effffffffffffffffffffffffffffffffffffffffffffffffffffffffffffff1916908160001a905350600485901c945080613902906152f5565b9050613820565b506000841461394d576040517f08c379a0000000000000000000000000000000000000000000000000000000008152600401613944906149ae565b60405180910390fd5b8091505092915050565b8280546139639061531f565b90600052602060002090601f01602090048101928261398557600085556139cc565b82601f1061399e57805160ff19168380011785556139cc565b828001600101855582156139cc579182015b828111156139cb5782518255916020019190600101906139b0565b5b5090506139d991906139dd565b5090565b5b808211156139f65760008160009055506001016139de565b5090565b6000613a0d613a0884614e11565b614dec565b90508083825260208201905082856020860282011115613a2c57600080fd5b60005b85811015613a5c5781613a428882613b4e565b845260208401935060208301925050600181019050613a2f565b5050509392505050565b6000613a79613a7484614e3d565b614dec565b90508083825260208201905082856020860282011115613a9857600080fd5b60005b85811015613ac85781613aae8882613d47565b845260208401935060208301925050600181019050613a9b565b5050509392505050565b6000613ae5613ae084614e69565b614dec565b905082815260208101848484011115613afd57600080fd5b613b088482856152b3565b509392505050565b6000613b23613b1e84614e69565b614dec565b905082815260208101848484011115613b3b57600080fd5b613b468482856152c2565b509392505050565b600081359050613b5d816155ef565b92915050565b60008083601f840112613b7557600080fd5b8235905067ffffffffffffffff811115613b8e57600080fd5b602083019150836020820283011115613ba657600080fd5b9250929050565b600082601f830112613bbe57600080fd5b8135613bce8482602086016139fa565b91505092915050565b60008083601f840112613be957600080fd5b8235905067ffffffffffffffff811115613c0257600080fd5b602083019150836020820283011115613c1a57600080fd5b9250929050565b600082601f830112613c3257600080fd5b8151613c42848260208601613a66565b91505092915050565b600081359050613c5a81615606565b92915050565b600081519050613c6f81615606565b92915050565b600081359050613c848161561d565b92915050565b600081359050613c9981615634565b92915050565b600081519050613cae8161564b565b92915050565b600081359050613cc381615662565b92915050565b600081519050613cd881615662565b92915050565b600082601f830112613cef57600080fd5b8135613cff848260208601613ad2565b91505092915050565b600082601f830112613d1957600080fd5b8151613d29848260208601613b10565b91505092915050565b600081359050613d4181615672565b92915050565b600081519050613d5681615672565b92915050565b600081359050613d6b81615689565b92915050565b600060208284031215613d8357600080fd5b6000613d9184828501613b4e565b91505092915050565b60008060408385031215613dad57600080fd5b6000613dbb85828601613b4e565b9250506020613dcc85828601613b4e565b9150509250929050565b60008060008060808587031215613dec57600080fd5b6000613dfa87828801613b4e565b9450506020613e0b87828801613b4e565b9350506040613e1c87828801613b4e565b9250506060613e2d87828801613b4e565b91505092959194509250565b60008060008060008060c08789031215613e5257600080fd5b6000613e6089828a01613b4e565b9650506020613e7189828a01613b4e565b9550506040613e8289828a01613b4e565b9450506060613e9389828a01613b4e565b9350506080613ea489828a01613d32565b92505060a0613eb589828a01613d32565b9150509295509295509295565b600080600060608486031215613ed757600080fd5b6000613ee586828701613b4e565b9350506020613ef686828701613b4e565b9250506040613f0786828701613d32565b9150509250925092565b60008060008060808587031215613f2757600080fd5b6000613f3587828801613b4e565b9450506020613f4687828801613b4e565b9350506040613f5787828801613d32565b9250506060613f6887828801613d32565b91505092959194509250565b60008060408385031215613f8757600080fd5b6000613f9585828601613b4e565b925050602083013567ffffffffffffffff811115613fb257600080fd5b613fbe85828601613bad565b9150509250929050565b60008060408385031215613fdb57600080fd5b6000613fe985828601613b4e565b9250506020613ffa85828601613c4b565b9150509250929050565b6000806040838503121561401757600080fd5b600061402585828601613b4e565b925050602061403685828601613d32565b9150509250929050565b600080600080600060a0868803121561405857600080fd5b600061406688828901613b4e565b955050602061407788828901613d32565b945050604086013567ffffffffffffffff81111561409457600080fd5b6140a088828901613cde565b935050606086013567ffffffffffffffff8111156140bd57600080fd5b6140c988828901613cde565b92505060806140da88828901613d5c565b9150509295509295909350565b600080600080604085870312156140fd57600080fd5b600085013567ffffffffffffffff81111561411757600080fd5b61412387828801613b63565b9450945050602085013567ffffffffffffffff81111561414257600080fd5b61414e87828801613bd7565b925092505092959194509250565b60008060006040848603121561417157600080fd5b600084013567ffffffffffffffff81111561418b57600080fd5b61419786828701613b63565b935093505060206141aa86828701613d32565b9150509250925092565b6000602082840312156141c657600080fd5b600082015167ffffffffffffffff8111156141e057600080fd5b6141ec84828501613c21565b91505092915050565b60006020828403121561420757600080fd5b600061421584828501613c60565b91505092915050565b60006020828403121561423057600080fd5b600061423e84828501613c75565b91505092915050565b6000806040838503121561425a57600080fd5b600061426885828601613c75565b925050602061427985828601613b4e565b9150509250929050565b60006020828403121561429557600080fd5b60006142a384828501613c8a565b91505092915050565b6000602082840312156142be57600080fd5b60006142cc84828501613c9f565b91505092915050565b6000602082840312156142e757600080fd5b60006142f584828501613cc9565b91505092915050565b60006020828403121561431057600080fd5b600082015167ffffffffffffffff81111561432a57600080fd5b61433684828501613d08565b91505092915050565b60006020828403121561435157600080fd5b600061435f84828501613d32565b91505092915050565b60006020828403121561437a57600080fd5b600061438884828501613d47565b91505092915050565b600080604083850312156143a457600080fd5b60006143b285828601613d32565b92505060206143c385828601613cb4565b9150509250929050565b600080604083850312156143e057600080fd5b60006143ee85828601613d47565b92505060206143ff85828601613d47565b9150509250929050565b60006144158383614451565b60208301905092915050565b600061442d838361447e565b60208301905092915050565b6000614445838361474d565b60208301905092915050565b61445a81615196565b82525050565b61446981615196565b82525050565b61447881615196565b82525050565b61448781615196565b82525050565b600061449882614eba565b6144a28185614ef5565b93506144ad83614e9a565b8060005b838110156144de5781516144c58882614409565b97506144d083614edb565b9250506001810190506144b1565b5085935050505092915050565b60006144f682614eba565b6145008185614f06565b935061450b83614e9a565b8060005b8381101561453c5781516145238882614421565b975061452e83614edb565b92505060018101905061450f565b5085935050505092915050565b600061455482614ec5565b61455e8185614f17565b935061456983614eaa565b8060005b8381101561459a5781516145818882614439565b975061458c83614ee8565b92505060018101905061456d565b5085935050505092915050565b6145b0816151a8565b82525050565b6145bf816151a8565b82525050565b6145ce816151b4565b82525050565b6145dd81615259565b82525050565b6145ec81615259565b82525050565b6145fb8161527d565b82525050565b61460a8161528f565b82525050565b8082525050565b614620816152a1565b82525050565b600061463182614ed0565b61463b8185614f28565b935061464b8185602086016152c2565b614654816154b6565b840191505092915050565b600061466a82614ed0565b6146748185614f39565b93506146848185602086016152c2565b80840191505092915050565b600061469d602083614f28565b91506146a8826154d4565b602082019050919050565b60006146c0600683614f28565b91506146cb826154fd565b602082019050919050565b60006146e3601783614f39565b91506146ee82615526565b601782019050919050565b6000614706601183614f39565b91506147118261554f565b601182019050919050565b6000614729602f83614f28565b915061473482615578565b604082019050919050565b8082525050565b8082525050565b61475681615242565b82525050565b61476581615242565b82525050565b61477481615242565b82525050565b6147838161524c565b82525050565b6147928161524c565b82525050565b60006147a3826146d6565b91506147af828561465f565b91506147ba826146f9565b91506147c6828461465f565b91508190509392505050565b60006020820190506147e76000830184614460565b92915050565b60006060820190506148026000830185614460565b8181036020830152614813816146b3565b905061482260408301846145a7565b9392505050565b600060408201905061483e6000830185614460565b61484b602083018461475c565b9392505050565b6000602082019050818103600083015261486c818461448d565b905092915050565b6000602082019050818103600083015261488e8184614549565b905092915050565b60006020820190506148ab60008301846145a7565b92915050565b60006020820190506148c660008301846145c5565b92915050565b60006020820190506148e160008301846145d4565b92915050565b60006020820190506148fc60008301846145f2565b92915050565b60006040820190506149176000830185614601565b6149246020830184614601565b9392505050565b600060208201905081810360008301526149458184614626565b905092915050565b600060a08201905081810360008301526149678188614626565b9050818103602083015261497b8187614626565b905061498a60408301866145a7565b614997606083018561475c565b6149a4608083018461477a565b9695505050505050565b600060208201905081810360008301526149c781614690565b9050919050565b600060208201905081810360008301526149e78161471c565b9050919050565b6000608082019050614a03600083018761473f565b614a10602083018661446f565b614a1d604083018561446f565b614a2a606083018461476b565b95945050505050565b600060a082019050614a48600083018861473f565b614a55602083018761446f565b614a62604083018661446f565b614a6f606083018561476b565b614a7c608083018461476b565b9695505050505050565b600060e082019050614a9b600083018a61473f565b614aa860208301896145e3565b614ab5604083018861446f565b614ac2606083018761476b565b614acf608083018661446f565b614adc60a0830185614617565b614ae960c0830184614617565b98975050505050505050565b600060e082019050614b0a600083018a61473f565b614b1760208301896145e3565b614b24604083018861446f565b614b31606083018761476b565b614b3e608083018661446f565b614b4b60a0830185614617565b614b5860c083018461476b565b98975050505050505050565b600060e082019050614b79600083018a61473f565b614b8660208301896145e3565b614b93604083018861446f565b614ba0606083018761476b565b614bad608083018661446f565b614bba60a083018561476b565b614bc760c0830184614617565b98975050505050505050565b6000606082019050614be86000830186614746565b614bf5602083018561446f565b614c02604083018461446f565b949350505050565b6000606082019050614c1f6000830186614746565b614c2c602083018561476b565b614c39604083018461446f565b949350505050565b6000608082019050614c566000830187614746565b614c63602083018661476b565b614c70604083018561446f565b614c7d606083018461476b565b95945050505050565b600061010082019050614c9c600083018b614746565b614ca9602083018a61476b565b614cb66040830189614610565b8181036060830152614cc881886144eb565b90508181036080830152614cdc81876144eb565b9050614ceb60a08301866145b6565b614cf860c08301856145b6565b614d0560e08301846145b6565b9998505050505050505050565b6000602082019050614d27600083018461476b565b92915050565b6000602082019050614d42600083018461475c565b92915050565b6000604082019050614d5d600083018561475c565b614d6a602083018461475c565b9392505050565b6000606082019050614d86600083018661476b565b614d93602083018561476b565b614da06040830184614789565b949350505050565b6000604082019050614dbd600083018561476b565b614dca6020830184614789565b9392505050565b6000602082019050614de6600083018461477a565b92915050565b6000614df6614e07565b9050614e028282615351565b919050565b6000604051905090565b600067ffffffffffffffff821115614e2c57614e2b615487565b5b602082029050602081019050919050565b600067ffffffffffffffff821115614e5857614e57615487565b5b602082029050602081019050919050565b600067ffffffffffffffff821115614e8457614e83615487565b5b614e8d826154b6565b9050602081019050919050565b6000819050602082019050919050565b6000819050602082019050919050565b600081519050919050565b600081519050919050565b600081519050919050565b6000602082019050919050565b6000602082019050919050565b600082825260208201905092915050565b600082825260208201905092915050565b600082825260208201905092915050565b600082825260208201905092915050565b600081905092915050565b6000614f4f82615242565b9150614f5a83615242565b9250827fffffffffffffffffffffffffffffffffffffffffffffffffffffffffffffffff03821115614f8f57614f8e6153cb565b5b828201905092915050565b6000614fa582615242565b9150614fb083615242565b925082614fc057614fbf6153fa565b5b828204905092915050565b6000808291508390505b600185111561501557808604811115614ff157614ff06153cb565b5b60018516156150005780820291505b808102905061500e856154c7565b9450614fd5565b94509492505050565b600061502982615242565b91506150348361524c565b92506150617fffffffffffffffffffffffffffffffffffffffffffffffffffffffffffffffff8484615069565b905092915050565b6000826150795760019050615135565b816150875760009050615135565b816001811461509d57600281146150a7576150d6565b6001915050615135565b60ff8411156150b9576150b86153cb565b5b8360020a9150848211156150d0576150cf6153cb565b5b50615135565b5060208310610133831016604e8410600b841016171561510b5782820a905083811115615106576151056153cb565b5b615135565b6151188484846001614fcb565b9250905081840481111561512f5761512e6153cb565b5b81810290505b9392505050565b600061514782615242565b915061515283615242565b9250817fffffffffffffffffffffffffffffffffffffffffffffffffffffffffffffffff048311821515161561518b5761518a6153cb565b5b828202905092915050565b60006151a182615222565b9050919050565b60008115159050919050565b6000819050919050565b60007fffffffff0000000000000000000000000000000000000000000000000000000082169050919050565b60006151f582615196565b9050919050565b600081905061520a826155c7565b919050565b600081905061521d826155db565b919050565b600073ffffffffffffffffffffffffffffffffffffffff82169050919050565b6000819050919050565b600060ff82169050919050565b60006152648261526b565b9050919050565b600061527682615222565b9050919050565b6000615288826151fc565b9050919050565b600061529a8261520f565b9050919050565b60006152ac82615242565b9050919050565b82818337600083830152505050565b60005b838110156152e05780820151818401526020810190506152c5565b838111156152ef576000848401525b50505050565b600061530082615242565b91506000821415615314576153136153cb565b5b600182039050919050565b6000600282049050600182168061533757607f821691505b6020821081141561534b5761534a615458565b5b50919050565b61535a826154b6565b810181811067ffffffffffffffff8211171561537957615378615487565b5b80604052505050565b600061538d82615242565b91507fffffffffffffffffffffffffffffffffffffffffffffffffffffffffffffffff8214156153c0576153bf6153cb565b5b600182019050919050565b7f4e487b7100000000000000000000000000000000000000000000000000000000600052601160045260246000fd5b7f4e487b7100000000000000000000000000000000000000000000000000000000600052601260045260246000fd5b7f4e487b7100000000000000000000000000000000000000000000000000000000600052602160045260246000fd5b7f4e487b7100000000000000000000000000000000000000000000000000000000600052602260045260246000fd5b7f4e487b7100000000000000000000000000000000000000000000000000000000600052604160045260246000fd5b6000601f19601f8301169050919050565b60008160011c9050919050565b7f537472696e67733a20686578206c656e67746820696e73756666696369656e74600082015250565b7f426f72726f770000000000000000000000000000000000000000000000000000600082015250565b7f416363657373436f6e74726f6c3a206163636f756e7420000000000000000000600082015250565b7f206973206d697373696e6720726f6c6520000000000000000000000000000000600082015250565b7f416363657373436f6e74726f6c3a2063616e206f6e6c792072656e6f756e636560008201527f20726f6c657320666f722073656c660000000000000000000000000000000000602082015250565b601881106155d8576155d7615429565b5b50565b600481106155ec576155eb615429565b5b50565b6155f881615196565b811461560357600080fd5b50565b61560f816151a8565b811461561a57600080fd5b50565b615626816151b4565b811461563157600080fd5b50565b61563d816151be565b811461564857600080fd5b50565b615654816151ea565b811461565f57600080fd5b50565b6004811061566f57600080fd5b50565b61567b81615242565b811461568657600080fd5b50565b6156928161524c565b811461569d57600080fd5b5056fea2646970667358221220b3eeeb7743a80a300622734c60d67c0fd42656b022dce1deed4eb9367ec48e4064736f6c63430008040033",
  "libraries": {
    "TSUtils": "0xf6780c6eCFbF39CE58ac293dC2F00da27c91df4E",
    "DecimalMath": "0x687Daa40FEc9A0Bad9a4153787cd1F295f4abc33",
    "ExaLib": "0xDD82cCC242A1F88EC2c02b0986E15E71897B7fc7",
    "MarketsLib": "0x5F5A5531CF864FA2BB97A7d455E0850d8ea27922"
  },
  "devdoc": {
    "events": {
      "ActionPaused(address,string,bool)": {
        "params": {
          "action": "string describing the action that has been paused/re-enabled",
          "fixedLender": "address of the market that a certain feature has been paused/re-enabled",
          "paused": "boolean describing if the action has been paused or re-enabled"
        }
      },
      "DistributedMPBorrowerExa(address,address,uint256,uint256)": {
        "params": {
          "borrower": "address of the borrower that have received rewards in a given fixedLender space",
          "exaMPBorrowIndex": "index of the given market that was used to update user rewards",
          "fixedLender": "address of the fixed lender market in which a user has received rewards",
          "mpBorrowerDelta": "delta blocks that have been processed"
        }
      },
      "DistributedMPSupplierExa(address,address,uint256,uint256)": {
        "params": {
          "exaMPSupplyIndex": "index of the given market that was used to update user rewards",
          "fixedLender": "address of the fixed lender market in which a user has received rewards",
          "mpSupplierDelta": "delta blocks that have been processed",
          "supplier": "address of the supplier that have received rewards in a given lender space"
        }
      },
      "DistributedSPSupplierExa(address,address,uint256,uint256)": {
        "params": {
          "exaSPSupplyIndex": "index of the given market that was used to update user rewards",
          "fixedLender": "address of the fixed lender market in which a user has received rewards",
          "spSupplierDelta": "delta blocks that have been processed",
          "supplier": "address of the supplier that have received rewards in a given lender space"
        }
      },
      "ExaSpeedUpdated(address,uint256)": {
        "params": {
          "fixedLenderAddress": "address of the lender that has a new borrow cap",
          "newSpeed": "new borrow cap expressed with 1e18 precision for the given market."
        }
      },
      "MarketEntered(address,address,uint256)": {
        "params": {
          "account": "address of the user that just entered a market",
          "fixedLender": "address of the market that the user entered",
          "maturityDate": "dateID/poolID/maturity that the user just entered"
        }
      },
      "MarketExited(address,address,uint256)": {
        "params": {
          "account": "address of the user that just left a market",
          "fixedLender": "address of the market that the user just left",
          "maturityDate": "dateID/poolID/maturity that the user just left"
        }
      },
      "MarketListed(address)": {
        "params": {
          "fixedLender": "address of the fixedLender market that it was listed"
        }
      },
      "NewBorrowCap(address,uint256)": {
        "params": {
          "fixedLender": "address of the lender that has a new borrow cap",
          "newBorrowCap": "new borrow cap expressed with 1e18 precision for the given market.                     0 = means no cap"
        }
      },
      "OracleChanged(address)": {
        "params": {
          "newOracle": "address of the new oracle that is used to calculate liquidity"
        }
      }
    },
    "kind": "dev",
    "methods": {
      "beforeBorrowMP(address,address,uint256,uint256)": {
        "details": "Hook function to be called before someone borrows money to a market/maturity.      This function verifies if market is valid, maturity is valid, checks if the user has enough collateral      and accrues rewards accordingly.",
        "params": {
          "borrowAmount": "amount that will be lent out to the borrower (expressed with same precision as underlying)",
          "borrower": "address of the user that will borrow money from a maturity date",
          "fixedLenderAddress": "address of the fixedLender that will lend money in a maturity",
          "maturityDate": "timestamp for the maturity date that the user wants to borrow money. It should                     be in a VALID state (meaning that is not in the distant future, nor matured)"
        }
      },
      "beforeDepositMP(address,address,uint256)": {
        "details": "Hook function to be called before someone supplies money to a market/maturity.      This function verifies if market is valid, maturity is valid, and accrues rewards accordingly.",
        "params": {
          "fixedLenderAddress": "address of the fixedLender that will deposit money in a maturity",
          "maturityDate": "timestamp for the maturity date that the user wants to supply money. It should                     be in a VALID state (meaning that is not in the distant future, nor matured)",
          "supplier": "address of the user that will supply money to a certain maturity (it can be later on                 used as collater with _enterMarkets_ functions)"
        }
      },
      "beforeRepayMP(address,address)": {
        "details": "Hook function to be called before someone wants to repay its debt in a market/maturity.      This function verifies if market is valid, maturity is MATURED and accrues rewards accordingly.      This function is called from fixedLender contracts.",
        "params": {
          "borrower": "address of the user that wants to repay its debt",
          "fixedLenderAddress": "address of the fixedLender that will collect money in a maturity"
        }
      },
      "beforeSupplySP(address,address)": {
        "details": "Hook function to be called before someone supplies money to the smart pool      This function basically checks if the address of the fixed Lender market is      valid and makes sure to accrue EXA tokens to the market and the user.",
        "params": {
          "fixedLenderAddress": "address of the fixed lender that will receive money in                           it's smart pool",
          "supplier": "address of the user that will supply money to the smart pool"
        }
      },
      "beforeWithdrawMP(address,address,uint256,uint256)": {
        "details": "Hook function to be called before someone wants to receive its money back from a market/maturity.      This function verifies if market is valid, maturity is MATURED, checks if the user has no outstanding      debts and accrues rewards accordingly. This function is called from fixedLender contracts.",
        "params": {
          "fixedLenderAddress": "address of the fixedLender that will lend money in a maturity",
          "maturityDate": "timestamp for the maturity date that the user wants to get it's money from. It should                     be in a MATURED state (meaning that the date is VALID + MATURED)",
          "redeemAmount": "amount that the user wants to withdraw from the maturity",
          "redeemer": "address of the user that wants to withdraw it's money"
        }
      },
      "beforeWithdrawSP(address,address)": {
        "details": "Hook function to be called before someone withdraws money from the smart pool      This function basically checks if the address of the fixed Lender market is      valid and makes sure to accrue EXA tokens to the market and the user.",
        "params": {
          "fixedLenderAddress": "address of the fixed lender that will receive money in                           it's smart pool",
          "supplier": "address of the user that will withdraw money from the smart pool"
        }
      },
      "claimExa(address,address[])": {
        "params": {
          "fixedLenders": "The list of markets to claim EXA in",
          "holder": "The address to claim EXA for"
        }
      },
      "claimExaAll(address)": {
        "params": {
          "holder": "The address to claim EXA for"
        }
      },
      "enableMarket(address,uint256,string,string,uint8)": {
        "details": "Function to enable a certain FixedLender market to be used as collateral",
        "params": {
          "collateralFactor": "fixedLender's collateral factor for the underlying asset",
          "fixedLender": "address to add to the protocol"
        }
      },
      "enterMarkets(address[],uint256)": {
        "details": "Allows wallet to enter certain markets (fixedLenderDAI, fixedLenderETH, etc)      By performing this action, the wallet's money could be used as collateral",
        "params": {
          "fixedLenders": "contracts addresses to enable for `msg.sender` for a certain maturity",
          "maturityDate": "poolID in which the fixedLenders will be enabled"
        }
      },
      "exitMarket(address,uint256)": {
        "details": "Sender must not have an outstanding borrow balance in the asset,      or be providing necessary collateral for an outstanding borrow.",
        "params": {
          "fixedLenderAddress": "The address of the asset to be removed",
          "maturityDate": "The timestamp/poolID where the user wants to stop providing collateral"
        }
      },
      "getAccountLiquidity(address,uint256)": {
        "details": "Function to get account's liquidity for a certain maturity pool",
        "params": {
          "account": "wallet to retrieve liquidity for a certain maturity date",
          "maturityDate": "timestamp to calculate maturity's pool"
        }
      },
      "getFuturePools()": {
        "details": "Function to retrieve valid future pools"
      },
      "getMarketAddresses()": {
        "details": "Function to retrieve all markets"
      },
      "getMarketData(address)": {
        "details": "Given a fixedLender address, it returns the corresponding market data",
        "params": {
          "fixedLenderAddress": "Address of the contract where we are getting the data"
        }
      },
      "getRoleAdmin(bytes32)": {
        "details": "Returns the admin role that controls `role`. See {grantRole} and {revokeRole}. To change a role's admin, use {_setRoleAdmin}."
      },
      "grantRole(bytes32,address)": {
        "details": "Grants `role` to `account`. If `account` had not been already granted `role`, emits a {RoleGranted} event. Requirements: - the caller must have ``role``'s admin role."
      },
      "hasRole(bytes32,address)": {
        "details": "Returns `true` if `account` has been granted `role`."
      },
      "liquidateAllowed(address,address,address,address,uint256,uint256)": {
        "details": "Function to allow/reject liquidation of assets. This function can be called      externally, but only will have effect when called from a fixedLender.",
        "params": {
          "borrower": "address which the assets are being liquidated",
          "fixedLenderBorrowed": "market from where the debt is pending",
          "fixedLenderCollateral": "market where the assets will be liquidated (should be msg.sender on FixedLender.sol)",
          "liquidator": "address that is liquidating the assets",
          "maturityDate": "maturity where the position has a shortfall in liquidity",
          "repayAmount": "amount to be repaid from the debt (outstanding debt * close factor should be bigger than this value)"
        }
      },
      "liquidateCalculateSeizeAmount(address,address,uint256)": {
        "details": "Function to calculate the amount of assets to be seized      - when a position is undercollaterized it should be repaid and this functions calculates the        amount of collateral to be seized",
        "params": {
          "actualRepayAmount": "repay amount in the borrowed asset",
          "fixedLenderBorrowed": "market from where the debt is pending",
          "fixedLenderCollateral": "market where the assets will be liquidated (should be msg.sender on FixedLender.sol)"
        }
      },
      "pauseBorrow(address,bool)": {
        "details": "Function to pause/unpause borrowing on a certain market",
        "params": {
          "fixedLender": "address to pause",
          "paused": "true/false"
        }
      },
      "renounceRole(bytes32,address)": {
        "details": "Revokes `role` from the calling account. Roles are often managed via {grantRole} and {revokeRole}: this function's purpose is to provide a mechanism for accounts to lose their privileges if they are compromised (such as when a trusted device is misplaced). If the calling account had been granted `role`, emits a {RoleRevoked} event. Requirements: - the caller must be `account`."
      },
      "requirePoolState(uint256,uint8)": {
        "details": "Function to verify that a maturityDate is VALID, MATURED, NOT_READY or INVALID.      If expected state doesn't match the calculated one, it reverts with a custom error \"UnmatchedPoolState\".",
        "params": {
          "maturityDate": "timestamp of the maturity date to be verified",
          "requiredState": "state required by the caller to be verified (see TSUtils.State() for description)"
        }
      },
      "revokeRole(bytes32,address)": {
        "details": "Revokes `role` from `account`. If `account` had been granted `role`, emits a {RoleRevoked} event. Requirements: - the caller must have ``role``'s admin role."
      },
      "seizeAllowed(address,address,address,address)": {
        "details": "Function to allow/reject seizing of assets. This function can be called      externally, but only will have effect when called from a fixedLender.",
        "params": {
          "borrower": "address to validate where the assets will be removed",
          "fixedLenderBorrowed": "market from where the debt will be paid",
          "fixedLenderCollateral": "market where the assets will be seized (should be msg.sender on FixedLender.sol)",
          "liquidator": "address to validate where the seized assets will be received"
        }
      },
      "setExaSpeed(address,uint256)": {
        "params": {
          "exaSpeed": "New EXA speed for market",
          "fixedLenderAddress": "The market whose EXA speed to update"
        }
      },
      "setLiquidationIncentive(uint256)": {
        "params": {
          "_liquidationIncentive": "new liquidation incentive. It's a factor, so 15% would be 1.15e18"
        }
      },
      "setMarketBorrowCaps(address[],uint256[])": {
        "params": {
          "fixedLenders": "The addresses of the markets (tokens) to change the borrow caps for",
          "newBorrowCaps": "The new borrow cap values in underlying to be set. A value of 0 corresponds to unlimited borrowing."
        }
      },
      "setOracle(address)": {
        "details": "Function to set Oracle's to be used",
        "params": {
          "_priceOracleAddress": "address of the new oracle"
        }
      },
      "supportsInterface(bytes4)": {
        "details": "See {IERC165-supportsInterface}."
      }
    },
    "version": 1
  },
  "userdoc": {
    "events": {
      "ActionPaused(address,string,bool)": {
        "notice": "Event emitted when a certain action has been paused by the protocol"
      },
      "DistributedMPBorrowerExa(address,address,uint256,uint256)": {
        "notice": "Event emitted each time EXA has been distributed to a certain user as a maturity pool borrower"
      },
      "DistributedMPSupplierExa(address,address,uint256,uint256)": {
        "notice": "Event emitted each time EXA has been distributed to a certain user as a maturity pool supplier"
      },
      "DistributedSPSupplierExa(address,address,uint256,uint256)": {
        "notice": "Event emitted each time EXA has been distributed to a certain user as a smart pool supplier"
      },
      "ExaSpeedUpdated(address,uint256)": {
        "notice": "Event emitted when a new ExaSpeed has been set for a given fixedLender.         The speed is the amount of EXA tokens that it will be given to         suppliers/borrowers/lenders on each block. Amount distributed accordingly         to their contributions"
      },
      "MarketEntered(address,address,uint256)": {
        "notice": "Event emitted when a user enters a market to use his deposit as collateral         for a loan. Notice that the market entered is the pair fixedLender/maturityDate"
      },
      "MarketExited(address,address,uint256)": {
        "notice": "Event emitted when a user leaves a market. This means that he would stop using         his deposit as collateral and it won't ask for any loans in this market"
      },
      "MarketListed(address)": {
        "notice": "Event emitted when a new market is listed for borrow/lending"
      },
      "NewBorrowCap(address,uint256)": {
        "notice": "Event emitted when a new borrow cap has been set for a certain fixedLender         If newBorrowCap is 0, that means that there's no cap"
      },
      "OracleChanged(address)": {
        "notice": "Event emitted when a new Oracle has been set"
      }
    },
    "kind": "user",
    "methods": {
      "claimExa(address,address[])": {
        "notice": "Claim all the EXA accrued by holder in the specified markets"
      },
      "claimExaAll(address)": {
        "notice": "Claim all the EXA accrued by holder in all markets"
      },
      "exitMarket(address,uint256)": {
        "notice": "Removes fixedLender from sender's account liquidity calculation"
      },
      "setExaSpeed(address,uint256)": {
        "notice": "Set EXA speed for a single market"
      },
      "setLiquidationIncentive(uint256)": {
        "notice": "Set liquidation incentive for the whole ecosystem"
      },
      "setMarketBorrowCaps(address[],uint256[])": {
        "notice": "Set the given borrow caps for the given fixedLender markets. Borrowing that brings total borrows to or above borrow cap will revert."
      }
    },
    "version": 1
  },
  "storageLayout": {
    "storage": [
      {
        "astId": 24,
        "contract": "contracts/Auditor.sol:Auditor",
        "label": "_roles",
        "offset": 0,
        "slot": "0",
        "type": "t_mapping(t_bytes32,t_struct(RoleData)19_storage)"
      },
      {
        "astId": 3872,
        "contract": "contracts/Auditor.sol:Auditor",
        "label": "book",
        "offset": 0,
        "slot": "1",
        "type": "t_struct(Book)10810_storage"
      },
      {
        "astId": 3875,
        "contract": "contracts/Auditor.sol:Auditor",
        "label": "closeFactor",
        "offset": 0,
        "slot": "5",
        "type": "t_uint256"
      },
      {
        "astId": 3880,
        "contract": "contracts/Auditor.sol:Auditor",
        "label": "liquidationIncentive",
        "offset": 0,
        "slot": "6",
        "type": "t_uint256"
      },
      {
        "astId": 3883,
        "contract": "contracts/Auditor.sol:Auditor",
        "label": "maxFuturePools",
        "offset": 0,
        "slot": "7",
        "type": "t_uint8"
      },
      {
        "astId": 3886,
        "contract": "contracts/Auditor.sol:Auditor",
        "label": "marketsAddresses",
        "offset": 0,
        "slot": "8",
        "type": "t_array(t_address)dyn_storage"
      },
      {
        "astId": 3889,
        "contract": "contracts/Auditor.sol:Auditor",
        "label": "rewardsState",
        "offset": 0,
        "slot": "9",
        "type": "t_struct(RewardsState)9551_storage"
      },
      {
        "astId": 3892,
        "contract": "contracts/Auditor.sol:Auditor",
        "label": "oracle",
        "offset": 0,
        "slot": "12",
        "type": "t_contract(IOracle)9257"
      }
    ],
    "types": {
      "t_address": {
        "encoding": "inplace",
        "label": "address",
        "numberOfBytes": "20"
      },
      "t_array(t_address)dyn_storage": {
        "base": "t_address",
        "encoding": "dynamic_array",
        "label": "address[]",
        "numberOfBytes": "32"
      },
      "t_array(t_contract(IFixedLender)9211)dyn_storage": {
        "base": "t_contract(IFixedLender)9211",
        "encoding": "dynamic_array",
        "label": "contract IFixedLender[]",
        "numberOfBytes": "32"
      },
      "t_bool": {
        "encoding": "inplace",
        "label": "bool",
        "numberOfBytes": "1"
      },
      "t_bytes32": {
        "encoding": "inplace",
        "label": "bytes32",
        "numberOfBytes": "32"
      },
      "t_contract(IFixedLender)9211": {
        "encoding": "inplace",
        "label": "contract IFixedLender",
        "numberOfBytes": "20"
      },
      "t_contract(IOracle)9257": {
        "encoding": "inplace",
        "label": "contract IOracle",
        "numberOfBytes": "20"
      },
      "t_mapping(t_address,t_bool)": {
        "encoding": "mapping",
        "key": "t_address",
        "label": "mapping(address => bool)",
        "numberOfBytes": "32",
        "value": "t_bool"
      },
      "t_mapping(t_address,t_mapping(t_uint256,t_array(t_contract(IFixedLender)9211)dyn_storage))": {
        "encoding": "mapping",
        "key": "t_address",
        "label": "mapping(address => mapping(uint256 => contract IFixedLender[]))",
        "numberOfBytes": "32",
        "value": "t_mapping(t_uint256,t_array(t_contract(IFixedLender)9211)dyn_storage)"
      },
      "t_mapping(t_address,t_mapping(t_uint256,t_bool))": {
        "encoding": "mapping",
        "key": "t_address",
        "label": "mapping(address => mapping(uint256 => bool))",
        "numberOfBytes": "32",
        "value": "t_mapping(t_uint256,t_bool)"
      },
      "t_mapping(t_address,t_struct(ExaState)9539_storage)": {
        "encoding": "mapping",
        "key": "t_address",
        "label": "mapping(address => struct ExaLib.ExaState)",
        "numberOfBytes": "32",
        "value": "t_struct(ExaState)9539_storage"
      },
      "t_mapping(t_address,t_struct(Market)10827_storage)": {
        "encoding": "mapping",
        "key": "t_address",
        "label": "mapping(address => struct MarketsLib.Market)",
        "numberOfBytes": "32",
        "value": "t_struct(Market)10827_storage"
      },
      "t_mapping(t_address,t_uint256)": {
        "encoding": "mapping",
        "key": "t_address",
        "label": "mapping(address => uint256)",
        "numberOfBytes": "32",
        "value": "t_uint256"
      },
      "t_mapping(t_bytes32,t_struct(RoleData)19_storage)": {
        "encoding": "mapping",
        "key": "t_bytes32",
        "label": "mapping(bytes32 => struct AccessControl.RoleData)",
        "numberOfBytes": "32",
        "value": "t_struct(RoleData)19_storage"
      },
      "t_mapping(t_uint256,t_array(t_contract(IFixedLender)9211)dyn_storage)": {
        "encoding": "mapping",
        "key": "t_uint256",
        "label": "mapping(uint256 => contract IFixedLender[])",
        "numberOfBytes": "32",
        "value": "t_array(t_contract(IFixedLender)9211)dyn_storage"
      },
      "t_mapping(t_uint256,t_bool)": {
        "encoding": "mapping",
        "key": "t_uint256",
        "label": "mapping(uint256 => bool)",
        "numberOfBytes": "32",
        "value": "t_bool"
      },
      "t_string_storage": {
        "encoding": "bytes",
        "label": "string",
        "numberOfBytes": "32"
      },
      "t_struct(Book)10810_storage": {
        "encoding": "inplace",
        "label": "struct MarketsLib.Book",
        "members": [
          {
            "astId": 10793,
            "contract": "contracts/Auditor.sol:Auditor",
            "label": "markets",
            "offset": 0,
            "slot": "0",
            "type": "t_mapping(t_address,t_struct(Market)10827_storage)"
          },
          {
            "astId": 10797,
            "contract": "contracts/Auditor.sol:Auditor",
            "label": "borrowPaused",
            "offset": 0,
            "slot": "1",
            "type": "t_mapping(t_address,t_bool)"
          },
          {
            "astId": 10801,
            "contract": "contracts/Auditor.sol:Auditor",
            "label": "borrowCaps",
            "offset": 0,
            "slot": "2",
            "type": "t_mapping(t_address,t_uint256)"
          },
          {
            "astId": 10809,
            "contract": "contracts/Auditor.sol:Auditor",
            "label": "accountAssets",
            "offset": 0,
            "slot": "3",
            "type": "t_mapping(t_address,t_mapping(t_uint256,t_array(t_contract(IFixedLender)9211)dyn_storage))"
          }
        ],
        "numberOfBytes": "128"
      },
      "t_struct(ExaState)9539_storage": {
        "encoding": "inplace",
        "label": "struct ExaLib.ExaState",
        "members": [
          {
            "astId": 9517,
            "contract": "contracts/Auditor.sol:Auditor",
            "label": "exaSpeed",
            "offset": 0,
            "slot": "0",
            "type": "t_uint256"
          },
          {
            "astId": 9520,
            "contract": "contracts/Auditor.sol:Auditor",
            "label": "exaMPSupplyState",
            "offset": 0,
            "slot": "1",
            "type": "t_struct(MarketRewardsState)9505_storage"
          },
          {
            "astId": 9523,
            "contract": "contracts/Auditor.sol:Auditor",
            "label": "exaMPBorrowState",
            "offset": 0,
            "slot": "2",
            "type": "t_struct(MarketRewardsState)9505_storage"
          },
          {
            "astId": 9526,
            "contract": "contracts/Auditor.sol:Auditor",
            "label": "exaSPSupplyState",
            "offset": 0,
            "slot": "3",
            "type": "t_struct(MarketRewardsState)9505_storage"
          },
          {
            "astId": 9530,
            "contract": "contracts/Auditor.sol:Auditor",
            "label": "exaMPSupplierIndex",
            "offset": 0,
            "slot": "4",
            "type": "t_mapping(t_address,t_uint256)"
          },
          {
            "astId": 9534,
            "contract": "contracts/Auditor.sol:Auditor",
            "label": "exaMPBorrowerIndex",
            "offset": 0,
            "slot": "5",
            "type": "t_mapping(t_address,t_uint256)"
          },
          {
            "astId": 9538,
            "contract": "contracts/Auditor.sol:Auditor",
            "label": "exaSPSupplierIndex",
            "offset": 0,
            "slot": "6",
            "type": "t_mapping(t_address,t_uint256)"
          }
        ],
        "numberOfBytes": "224"
      },
      "t_struct(Market)10827_storage": {
        "encoding": "inplace",
        "label": "struct MarketsLib.Market",
        "members": [
          {
            "astId": 10812,
            "contract": "contracts/Auditor.sol:Auditor",
            "label": "symbol",
            "offset": 0,
            "slot": "0",
            "type": "t_string_storage"
          },
          {
            "astId": 10814,
            "contract": "contracts/Auditor.sol:Auditor",
            "label": "name",
            "offset": 0,
            "slot": "1",
            "type": "t_string_storage"
          },
          {
            "astId": 10816,
            "contract": "contracts/Auditor.sol:Auditor",
            "label": "isListed",
            "offset": 0,
            "slot": "2",
            "type": "t_bool"
          },
          {
            "astId": 10818,
            "contract": "contracts/Auditor.sol:Auditor",
            "label": "collateralFactor",
            "offset": 0,
            "slot": "3",
            "type": "t_uint256"
          },
          {
            "astId": 10820,
            "contract": "contracts/Auditor.sol:Auditor",
            "label": "decimals",
            "offset": 0,
            "slot": "4",
            "type": "t_uint8"
          },
          {
            "astId": 10826,
            "contract": "contracts/Auditor.sol:Auditor",
            "label": "accountMembership",
            "offset": 0,
            "slot": "5",
            "type": "t_mapping(t_address,t_mapping(t_uint256,t_bool))"
          }
        ],
        "numberOfBytes": "192"
      },
      "t_struct(MarketRewardsState)9505_storage": {
        "encoding": "inplace",
        "label": "struct MarketRewardsState",
        "members": [
          {
            "astId": 9502,
            "contract": "contracts/Auditor.sol:Auditor",
            "label": "index",
            "offset": 0,
            "slot": "0",
            "type": "t_uint224"
          },
          {
            "astId": 9504,
            "contract": "contracts/Auditor.sol:Auditor",
            "label": "block",
            "offset": 28,
            "slot": "0",
            "type": "t_uint32"
          }
        ],
        "numberOfBytes": "32"
      },
      "t_struct(RewardsState)9551_storage": {
        "encoding": "inplace",
        "label": "struct ExaLib.RewardsState",
        "members": [
          {
            "astId": 9541,
            "contract": "contracts/Auditor.sol:Auditor",
            "label": "exaToken",
            "offset": 0,
            "slot": "0",
            "type": "t_address"
          },
          {
            "astId": 9546,
            "contract": "contracts/Auditor.sol:Auditor",
            "label": "exaState",
            "offset": 0,
            "slot": "1",
            "type": "t_mapping(t_address,t_struct(ExaState)9539_storage)"
          },
          {
            "astId": 9550,
            "contract": "contracts/Auditor.sol:Auditor",
            "label": "exaAccruedUser",
            "offset": 0,
            "slot": "2",
            "type": "t_mapping(t_address,t_uint256)"
          }
        ],
        "numberOfBytes": "96"
      },
      "t_struct(RoleData)19_storage": {
        "encoding": "inplace",
        "label": "struct AccessControl.RoleData",
        "members": [
          {
            "astId": 16,
            "contract": "contracts/Auditor.sol:Auditor",
            "label": "members",
            "offset": 0,
            "slot": "0",
            "type": "t_mapping(t_address,t_bool)"
          },
          {
            "astId": 18,
            "contract": "contracts/Auditor.sol:Auditor",
            "label": "adminRole",
            "offset": 0,
            "slot": "1",
            "type": "t_bytes32"
          }
        ],
        "numberOfBytes": "64"
      },
      "t_uint224": {
        "encoding": "inplace",
        "label": "uint224",
        "numberOfBytes": "28"
      },
      "t_uint256": {
        "encoding": "inplace",
        "label": "uint256",
        "numberOfBytes": "32"
      },
      "t_uint32": {
        "encoding": "inplace",
        "label": "uint32",
        "numberOfBytes": "4"
      },
      "t_uint8": {
        "encoding": "inplace",
        "label": "uint8",
        "numberOfBytes": "1"
      }
    }
  }
}