{
  "address": "0xDC891752642e1e98C9e4b5060045FD7C8Db4fD92",
  "abi": [
    {
      "inputs": [
        {
          "internalType": "address",
          "name": "_priceOracleAddress",
          "type": "address"
        },
        {
          "internalType": "address",
          "name": "_exaToken",
          "type": "address"
        }
      ],
      "stateMutability": "nonpayable",
      "type": "constructor"
    },
    {
      "inputs": [
        {
          "internalType": "enum ErrorCode",
          "name": "error",
          "type": "uint8"
        }
      ],
      "name": "GenericError",
      "type": "error"
    },
    {
      "inputs": [
        {
          "internalType": "enum TSUtils.State",
          "name": "state",
          "type": "uint8"
        },
        {
          "internalType": "enum TSUtils.State",
          "name": "requiredState",
          "type": "uint8"
        }
      ],
      "name": "UnmatchedPoolState",
      "type": "error"
    },
    {
      "anonymous": false,
      "inputs": [
        {
          "indexed": false,
          "internalType": "address",
          "name": "fixedLender",
          "type": "address"
        },
        {
          "indexed": false,
          "internalType": "string",
          "name": "action",
          "type": "string"
        },
        {
          "indexed": false,
          "internalType": "bool",
          "name": "paused",
          "type": "bool"
        }
      ],
      "name": "ActionPaused",
      "type": "event"
    },
    {
      "anonymous": false,
      "inputs": [
        {
          "indexed": true,
          "internalType": "address",
          "name": "fixedLender",
          "type": "address"
        },
        {
          "indexed": true,
          "internalType": "address",
          "name": "borrower",
          "type": "address"
        },
        {
          "indexed": false,
          "internalType": "uint256",
          "name": "borrowerDelta",
          "type": "uint256"
        },
        {
          "indexed": false,
          "internalType": "uint256",
          "name": "exaSupplyIndex",
          "type": "uint256"
        }
      ],
      "name": "DistributedBorrowerExa",
      "type": "event"
    },
    {
      "anonymous": false,
      "inputs": [
        {
          "indexed": true,
          "internalType": "address",
          "name": "fixedLender",
          "type": "address"
        },
        {
          "indexed": true,
          "internalType": "address",
          "name": "supplier",
          "type": "address"
        },
        {
          "indexed": false,
          "internalType": "uint256",
          "name": "smartSupplierDelta",
          "type": "uint256"
        },
        {
          "indexed": false,
          "internalType": "uint256",
          "name": "smartPoolIndex",
          "type": "uint256"
        }
      ],
      "name": "DistributedSmartPoolExa",
      "type": "event"
    },
    {
      "anonymous": false,
      "inputs": [
        {
          "indexed": true,
          "internalType": "address",
          "name": "fixedLender",
          "type": "address"
        },
        {
          "indexed": true,
          "internalType": "address",
          "name": "supplier",
          "type": "address"
        },
        {
          "indexed": false,
          "internalType": "uint256",
          "name": "supplierDelta",
          "type": "uint256"
        },
        {
          "indexed": false,
          "internalType": "uint256",
          "name": "exaSupplyIndex",
          "type": "uint256"
        }
      ],
      "name": "DistributedSupplierExa",
      "type": "event"
    },
    {
      "anonymous": false,
      "inputs": [
        {
          "indexed": false,
          "internalType": "address",
          "name": "fixedLenderAddress",
          "type": "address"
        },
        {
          "indexed": false,
          "internalType": "uint256",
          "name": "newSpeed",
          "type": "uint256"
        }
      ],
      "name": "ExaSpeedUpdated",
      "type": "event"
    },
    {
      "anonymous": false,
      "inputs": [
        {
          "indexed": false,
          "internalType": "address",
          "name": "fixedLender",
          "type": "address"
        },
        {
          "indexed": false,
          "internalType": "address",
          "name": "account",
          "type": "address"
        },
        {
          "indexed": false,
          "internalType": "uint256",
          "name": "maturityDate",
          "type": "uint256"
        }
      ],
      "name": "MarketEntered",
      "type": "event"
    },
    {
      "anonymous": false,
      "inputs": [
        {
          "indexed": false,
          "internalType": "address",
          "name": "fixedLender",
          "type": "address"
        },
        {
          "indexed": false,
          "internalType": "address",
          "name": "account",
          "type": "address"
        },
        {
          "indexed": false,
          "internalType": "uint256",
          "name": "maturityDate",
          "type": "uint256"
        }
      ],
      "name": "MarketExited",
      "type": "event"
    },
    {
      "anonymous": false,
      "inputs": [
        {
          "indexed": false,
          "internalType": "address",
          "name": "fixedLender",
          "type": "address"
        }
      ],
      "name": "MarketListed",
      "type": "event"
    },
    {
      "anonymous": false,
      "inputs": [
        {
          "indexed": true,
          "internalType": "address",
          "name": "fixedLender",
          "type": "address"
        },
        {
          "indexed": false,
          "internalType": "uint256",
          "name": "newBorrowCap",
          "type": "uint256"
        }
      ],
      "name": "NewBorrowCap",
      "type": "event"
    },
    {
      "anonymous": false,
      "inputs": [
        {
          "indexed": false,
          "internalType": "address",
          "name": "newOracle",
          "type": "address"
        }
      ],
      "name": "OracleChanged",
      "type": "event"
    },
    {
      "anonymous": false,
      "inputs": [
        {
          "indexed": true,
          "internalType": "bytes32",
          "name": "role",
          "type": "bytes32"
        },
        {
          "indexed": true,
          "internalType": "bytes32",
          "name": "previousAdminRole",
          "type": "bytes32"
        },
        {
          "indexed": true,
          "internalType": "bytes32",
          "name": "newAdminRole",
          "type": "bytes32"
        }
      ],
      "name": "RoleAdminChanged",
      "type": "event"
    },
    {
      "anonymous": false,
      "inputs": [
        {
          "indexed": true,
          "internalType": "bytes32",
          "name": "role",
          "type": "bytes32"
        },
        {
          "indexed": true,
          "internalType": "address",
          "name": "account",
          "type": "address"
        },
        {
          "indexed": true,
          "internalType": "address",
          "name": "sender",
          "type": "address"
        }
      ],
      "name": "RoleGranted",
      "type": "event"
    },
    {
      "anonymous": false,
      "inputs": [
        {
          "indexed": true,
          "internalType": "bytes32",
          "name": "role",
          "type": "bytes32"
        },
        {
          "indexed": true,
          "internalType": "address",
          "name": "account",
          "type": "address"
        },
        {
          "indexed": true,
          "internalType": "address",
          "name": "sender",
          "type": "address"
        }
      ],
      "name": "RoleRevoked",
      "type": "event"
    },
    {
      "inputs": [],
      "name": "DEFAULT_ADMIN_ROLE",
      "outputs": [
        {
          "internalType": "bytes32",
          "name": "",
          "type": "bytes32"
        }
      ],
      "stateMutability": "view",
      "type": "function"
    },
    {
      "inputs": [
        {
          "internalType": "address",
          "name": "fixedLenderAddress",
          "type": "address"
        },
        {
          "internalType": "address",
          "name": "supplier",
          "type": "address"
        }
      ],
      "name": "beforeSupplySmartPool",
      "outputs": [],
      "stateMutability": "nonpayable",
      "type": "function"
    },
    {
      "inputs": [
        {
          "internalType": "address",
          "name": "fixedLenderAddress",
          "type": "address"
        },
        {
          "internalType": "address",
          "name": "supplier",
          "type": "address"
        }
      ],
      "name": "beforeWithdrawSmartPool",
      "outputs": [],
      "stateMutability": "nonpayable",
      "type": "function"
    },
    {
      "inputs": [
        {
          "internalType": "address",
          "name": "fixedLenderAddress",
          "type": "address"
        },
        {
          "internalType": "address",
          "name": "borrower",
          "type": "address"
        },
        {
          "internalType": "uint256",
          "name": "borrowAmount",
          "type": "uint256"
        },
        {
          "internalType": "uint256",
          "name": "maturityDate",
          "type": "uint256"
        }
      ],
      "name": "borrowAllowed",
      "outputs": [],
      "stateMutability": "nonpayable",
      "type": "function"
    },
    {
      "inputs": [
        {
          "internalType": "address",
          "name": "holder",
          "type": "address"
        },
        {
          "internalType": "address[]",
          "name": "fixedLenders",
          "type": "address[]"
        }
      ],
      "name": "claimExa",
      "outputs": [],
      "stateMutability": "nonpayable",
      "type": "function"
    },
    {
      "inputs": [
        {
          "internalType": "address",
          "name": "holder",
          "type": "address"
        }
      ],
      "name": "claimExaAll",
      "outputs": [],
      "stateMutability": "nonpayable",
      "type": "function"
    },
    {
      "inputs": [],
      "name": "closeFactor",
      "outputs": [
        {
          "internalType": "uint256",
          "name": "",
          "type": "uint256"
        }
      ],
      "stateMutability": "view",
      "type": "function"
    },
    {
      "inputs": [
        {
          "internalType": "address",
          "name": "fixedLender",
          "type": "address"
        },
        {
          "internalType": "uint256",
          "name": "collateralFactor",
          "type": "uint256"
        },
        {
          "internalType": "string",
          "name": "symbol",
          "type": "string"
        },
        {
          "internalType": "string",
          "name": "name",
          "type": "string"
        },
        {
          "internalType": "uint8",
          "name": "decimals",
          "type": "uint8"
        }
      ],
      "name": "enableMarket",
      "outputs": [],
      "stateMutability": "nonpayable",
      "type": "function"
    },
    {
      "inputs": [
        {
          "internalType": "address[]",
          "name": "fixedLenders",
          "type": "address[]"
        },
        {
          "internalType": "uint256",
          "name": "maturityDate",
          "type": "uint256"
        }
      ],
      "name": "enterMarkets",
      "outputs": [],
      "stateMutability": "nonpayable",
      "type": "function"
    },
    {
      "inputs": [
        {
          "internalType": "address",
          "name": "fixedLenderAddress",
          "type": "address"
        },
        {
          "internalType": "uint256",
          "name": "maturityDate",
          "type": "uint256"
        }
      ],
      "name": "exitMarket",
      "outputs": [],
      "stateMutability": "nonpayable",
      "type": "function"
    },
    {
      "inputs": [
        {
          "internalType": "address",
          "name": "account",
          "type": "address"
        },
        {
          "internalType": "uint256",
          "name": "maturityDate",
          "type": "uint256"
        }
      ],
      "name": "getAccountLiquidity",
      "outputs": [
        {
          "internalType": "uint256",
          "name": "",
          "type": "uint256"
        },
        {
          "internalType": "uint256",
          "name": "",
          "type": "uint256"
        }
      ],
      "stateMutability": "view",
      "type": "function"
    },
    {
      "inputs": [],
      "name": "getFuturePools",
      "outputs": [
        {
          "internalType": "uint256[]",
          "name": "",
          "type": "uint256[]"
        }
      ],
      "stateMutability": "view",
      "type": "function"
    },
    {
      "inputs": [],
      "name": "getMarketAddresses",
      "outputs": [
        {
          "internalType": "address[]",
          "name": "",
          "type": "address[]"
        }
      ],
      "stateMutability": "view",
      "type": "function"
    },
    {
      "inputs": [
        {
          "internalType": "bytes32",
          "name": "role",
          "type": "bytes32"
        }
      ],
      "name": "getRoleAdmin",
      "outputs": [
        {
          "internalType": "bytes32",
          "name": "",
          "type": "bytes32"
        }
      ],
      "stateMutability": "view",
      "type": "function"
    },
    {
      "inputs": [
        {
          "internalType": "bytes32",
          "name": "role",
          "type": "bytes32"
        },
        {
          "internalType": "address",
          "name": "account",
          "type": "address"
        }
      ],
      "name": "grantRole",
      "outputs": [],
      "stateMutability": "nonpayable",
      "type": "function"
    },
    {
      "inputs": [
        {
          "internalType": "bytes32",
          "name": "role",
          "type": "bytes32"
        },
        {
          "internalType": "address",
          "name": "account",
          "type": "address"
        }
      ],
      "name": "hasRole",
      "outputs": [
        {
          "internalType": "bool",
          "name": "",
          "type": "bool"
        }
      ],
      "stateMutability": "view",
      "type": "function"
    },
    {
      "inputs": [
        {
          "internalType": "address",
          "name": "fixedLenderBorrowed",
          "type": "address"
        },
        {
          "internalType": "address",
          "name": "fixedLenderCollateral",
          "type": "address"
        },
        {
          "internalType": "address",
          "name": "liquidator",
          "type": "address"
        },
        {
          "internalType": "address",
          "name": "borrower",
          "type": "address"
        },
        {
          "internalType": "uint256",
          "name": "repayAmount",
          "type": "uint256"
        },
        {
          "internalType": "uint256",
          "name": "maturityDate",
          "type": "uint256"
        }
      ],
      "name": "liquidateAllowed",
      "outputs": [],
      "stateMutability": "view",
      "type": "function"
    },
    {
      "inputs": [
        {
          "internalType": "address",
          "name": "fixedLenderBorrowed",
          "type": "address"
        },
        {
          "internalType": "address",
          "name": "fixedLenderCollateral",
          "type": "address"
        },
        {
          "internalType": "uint256",
          "name": "actualRepayAmount",
          "type": "uint256"
        }
      ],
      "name": "liquidateCalculateSeizeAmount",
      "outputs": [
        {
          "internalType": "uint256",
          "name": "",
          "type": "uint256"
        }
      ],
      "stateMutability": "view",
      "type": "function"
    },
    {
      "inputs": [],
      "name": "liquidationIncentive",
      "outputs": [
        {
          "internalType": "uint256",
          "name": "",
          "type": "uint256"
        }
      ],
      "stateMutability": "view",
      "type": "function"
    },
    {
      "inputs": [
        {
          "internalType": "uint256",
          "name": "",
          "type": "uint256"
        }
      ],
      "name": "marketsAddresses",
      "outputs": [
        {
          "internalType": "address",
          "name": "",
          "type": "address"
        }
      ],
      "stateMutability": "view",
      "type": "function"
    },
    {
      "inputs": [],
      "name": "maxFuturePools",
      "outputs": [
        {
          "internalType": "uint8",
          "name": "",
          "type": "uint8"
        }
      ],
      "stateMutability": "view",
      "type": "function"
    },
    {
      "inputs": [],
      "name": "oracle",
      "outputs": [
        {
          "internalType": "contract IOracle",
          "name": "",
          "type": "address"
        }
      ],
      "stateMutability": "view",
      "type": "function"
    },
    {
      "inputs": [
        {
          "internalType": "address",
          "name": "fixedLender",
          "type": "address"
        },
        {
          "internalType": "bool",
          "name": "paused",
          "type": "bool"
        }
      ],
      "name": "pauseBorrow",
      "outputs": [
        {
          "internalType": "bool",
          "name": "",
          "type": "bool"
        }
      ],
      "stateMutability": "nonpayable",
      "type": "function"
    },
    {
      "inputs": [
        {
          "internalType": "address",
          "name": "fixedLenderAddress",
          "type": "address"
        },
        {
          "internalType": "address",
          "name": "redeemer",
          "type": "address"
        },
        {
          "internalType": "uint256",
          "name": "redeemAmount",
          "type": "uint256"
        },
        {
          "internalType": "uint256",
          "name": "maturityDate",
          "type": "uint256"
        }
      ],
      "name": "redeemAllowed",
      "outputs": [],
      "stateMutability": "nonpayable",
      "type": "function"
    },
    {
      "inputs": [
        {
          "internalType": "bytes32",
          "name": "role",
          "type": "bytes32"
        },
        {
          "internalType": "address",
          "name": "account",
          "type": "address"
        }
      ],
      "name": "renounceRole",
      "outputs": [],
      "stateMutability": "nonpayable",
      "type": "function"
    },
    {
      "inputs": [
        {
          "internalType": "address",
          "name": "fixedLenderAddress",
          "type": "address"
        },
        {
          "internalType": "address",
          "name": "borrower",
          "type": "address"
        }
      ],
      "name": "repayAllowed",
      "outputs": [],
      "stateMutability": "nonpayable",
      "type": "function"
    },
    {
      "inputs": [
        {
          "internalType": "uint256",
          "name": "maturityDate",
          "type": "uint256"
        },
        {
          "internalType": "enum TSUtils.State",
          "name": "requiredState",
          "type": "uint8"
        }
      ],
      "name": "requirePoolState",
      "outputs": [],
      "stateMutability": "view",
      "type": "function"
    },
    {
      "inputs": [
        {
          "internalType": "bytes32",
          "name": "role",
          "type": "bytes32"
        },
        {
          "internalType": "address",
          "name": "account",
          "type": "address"
        }
      ],
      "name": "revokeRole",
      "outputs": [],
      "stateMutability": "nonpayable",
      "type": "function"
    },
    {
      "inputs": [],
      "name": "rewardsState",
      "outputs": [
        {
          "internalType": "address",
          "name": "exaToken",
          "type": "address"
        }
      ],
      "stateMutability": "view",
      "type": "function"
    },
    {
      "inputs": [
        {
          "internalType": "address",
          "name": "fixedLenderCollateral",
          "type": "address"
        },
        {
          "internalType": "address",
          "name": "fixedLenderBorrowed",
          "type": "address"
        },
        {
          "internalType": "address",
          "name": "liquidator",
          "type": "address"
        },
        {
          "internalType": "address",
          "name": "borrower",
          "type": "address"
        }
      ],
      "name": "seizeAllowed",
      "outputs": [],
      "stateMutability": "view",
      "type": "function"
    },
    {
      "inputs": [
        {
          "internalType": "address",
          "name": "fixedLenderAddress",
          "type": "address"
        },
        {
          "internalType": "uint256",
          "name": "exaSpeed",
          "type": "uint256"
        }
      ],
      "name": "setExaSpeed",
      "outputs": [],
      "stateMutability": "nonpayable",
      "type": "function"
    },
    {
      "inputs": [
        {
          "internalType": "uint256",
          "name": "_liquidationIncentive",
          "type": "uint256"
        }
      ],
      "name": "setLiquidationIncentive",
      "outputs": [],
      "stateMutability": "nonpayable",
      "type": "function"
    },
    {
      "inputs": [
        {
          "internalType": "address[]",
          "name": "fixedLenders",
          "type": "address[]"
        },
        {
          "internalType": "uint256[]",
          "name": "newBorrowCaps",
          "type": "uint256[]"
        }
      ],
      "name": "setMarketBorrowCaps",
      "outputs": [],
      "stateMutability": "nonpayable",
      "type": "function"
    },
    {
      "inputs": [
        {
          "internalType": "address",
          "name": "_priceOracleAddress",
          "type": "address"
        }
      ],
      "name": "setOracle",
      "outputs": [],
      "stateMutability": "nonpayable",
      "type": "function"
    },
    {
      "inputs": [
        {
          "internalType": "address",
          "name": "fixedLenderAddress",
          "type": "address"
        },
        {
          "internalType": "address",
          "name": "supplier",
          "type": "address"
        },
        {
          "internalType": "uint256",
          "name": "maturityDate",
          "type": "uint256"
        }
      ],
      "name": "supplyAllowed",
      "outputs": [],
      "stateMutability": "nonpayable",
      "type": "function"
    },
    {
      "inputs": [
        {
          "internalType": "bytes4",
          "name": "interfaceId",
          "type": "bytes4"
        }
      ],
      "name": "supportsInterface",
      "outputs": [
        {
          "internalType": "bool",
          "name": "",
          "type": "bool"
        }
      ],
      "stateMutability": "view",
      "type": "function"
    }
  ],
  "transactionHash": "0x93d5161aa5c31017482d5d111fac5aad6e06d1237745b7f7f747ebbcdac03bbb",
  "args": [
    "0xD8Eedc43a1b640E6aBD56aC6cc66Cc53f25B2c53",
    "0x1Bb0851a116e8d90A19d1087d1A51Ac267961cfb"
  ],
  "solcInputHash": "3cf35dcdb734498eb5af86c22f4c70c4",
  "bytecode": "0x60806040526706f05b59d3b20000600555670f43fc2c04ee0000600655600c600760006101000a81548160ff021916908360ff1602179055503480156200004557600080fd5b50604051620058803803806200588083398181016040528101906200006b91906200029d565b80600960000160006101000a81548173ffffffffffffffffffffffffffffffffffffffff021916908373ffffffffffffffffffffffffffffffffffffffff16021790555081600c60006101000a81548173ffffffffffffffffffffffffffffffffffffffff021916908373ffffffffffffffffffffffffffffffffffffffff160217905550620001056000801b336200010d60201b60201c565b50506200032c565b6200011f82826200012360201b60201c565b5050565b6200013582826200021460201b60201c565b6200021057600160008084815260200190815260200160002060000160008373ffffffffffffffffffffffffffffffffffffffff1673ffffffffffffffffffffffffffffffffffffffff16815260200190815260200160002060006101000a81548160ff021916908315150217905550620001b56200027e60201b60201c565b73ffffffffffffffffffffffffffffffffffffffff168173ffffffffffffffffffffffffffffffffffffffff16837f2f8788117e7eff1d82e926ec794901d17c78024a50270940304540a733656f0d60405160405180910390a45b5050565b600080600084815260200190815260200160002060000160008373ffffffffffffffffffffffffffffffffffffffff1673ffffffffffffffffffffffffffffffffffffffff16815260200190815260200160002060009054906101000a900460ff16905092915050565b600033905090565b600081519050620002978162000312565b92915050565b60008060408385031215620002b157600080fd5b6000620002c18582860162000286565b9250506020620002d48582860162000286565b9150509250929050565b6000620002eb82620002f2565b9050919050565b600073ffffffffffffffffffffffffffffffffffffffff82169050919050565b6200031d81620002de565b81146200032957600080fd5b50565b615544806200033c6000396000f3fe608060405234801561001057600080fd5b506004361061021c5760003560e01c80637adbf97311610125578063a82585da116100ad578063bb987aef1161007c578063bb987aef1461060c578063c7333f0414610628578063d547741f14610646578063dec481b814610662578063eafe967b146106925761021c565b8063a82585da14610588578063a8431081146105a4578063b10ed768146105c0578063b35dd5dd146105dc5761021c565b806391d14854116100f457806391d14854146104cf57806394e1329d146104ff57806397ce0d311461051b5780639e35e14214610539578063a217fddf1461056a5761021c565b80637adbf9731461045b5780637dc0d1d014610477578063806a9f80146104955780638c765e94146104b15761021c565b8063248a9ca3116101a85780632f8832d6116101775780632f8832d6146103bb57806336568abe146103d75780635cf232e6146103f35780635efadbd11461040f57806363ae097a1461043f5761021c565b8063248a9ca3146103375780632c7c0ae8146103675780632d409a67146103835780632f2ff15d1461039f5761021c565b80630ce6f630116101ef5780630ce6f630146102a95780630e52dbec146102c5578063186db48f146102e35780631d48f1d6146102ff5780631e69d4301461031b5761021c565b806301ffc9a71461022157806305308b9f14610251578063059a80081461026f57806307219b091461028b575b600080fd5b61023b60048036038101906102369190614144565b6106ae565b6040516102489190614757565b60405180910390f35b610259610728565b6040516102669190614b9b565b60405180910390f35b61028960048036038101906102849190613dd2565b61072e565b005b610293610a48565b6040516102a09190614735565b60405180910390f35b6102c360048036038101906102be9190613c5b565b610aec565b005b6102cd610c61565b6040516102da9190614c3f565b60405180910390f35b6102fd60048036038101906102f89190613fa8565b610c74565b005b6103196004803603810190610314919061401d565b610fa2565b005b61033560048036038101906103309190613ec5565b611097565b005b610351600480360381019061034c91906140df565b611354565b60405161035e9190614772565b60405180910390f35b610381600480360381019061037c9190613cfa565b611373565b005b61039d60048036038101906103989190613c5b565b611838565b005b6103b960048036038101906103b49190614108565b6119ad565b005b6103d560048036038101906103d09190613dd2565b6119d6565b005b6103f160048036038101906103ec9190614108565b611ac4565b005b61040d60048036038101906104089190613f01565b611b47565b005b61042960048036038101906104249190613d83565b611dfd565b6040516104369190614b9b565b60405180910390f35b61045960048036038101906104549190613e35565b612144565b005b61047560048036038101906104709190613c32565b6122b0565b005b61047f612341565b60405161048c919061478d565b60405180910390f35b6104af60048036038101906104aa9190614252565b612367565b005b6104b9612375565b6040516104c69190614b9b565b60405180910390f35b6104e960048036038101906104e49190614108565b61237b565b6040516104f69190614757565b60405180910390f35b61051960048036038101906105149190613c5b565b6123e5565b005b61052361255a565b6040516105309190614713565b60405180910390f35b610553600480360381019061054e9190613ec5565b6125e8565b604051610561929190614bb6565b60405180910390f35b6105726126af565b60405161057f9190614772565b60405180910390f35b6105a2600480360381019061059d9190613d83565b6126b6565b005b6105be60048036038101906105b99190614200565b612837565b005b6105da60048036038101906105d59190613c32565b612857565b005b6105f660048036038101906105f19190614200565b6128ea565b6040516106039190614693565b60405180910390f35b61062660048036038101906106219190613ec5565b612929565b005b610630612abc565b60405161063d9190614693565b60405180910390f35b610660600480360381019061065b9190614108565b612ae8565b005b61067c60048036038101906106779190613e89565b612b11565b6040516106899190614757565b60405180910390f35b6106ac60048036038101906106a79190613c97565b612c59565b005b60007f7965db0b000000000000000000000000000000000000000000000000000000007bffffffffffffffffffffffffffffffffffffffffffffffffffffffff1916827bffffffffffffffffffffffffffffffffffffffffffffffffffffffff19161480610721575061072082612dc3565b5b9050919050565b60055481565b6001800160008573ffffffffffffffffffffffffffffffffffffffff1673ffffffffffffffffffffffffffffffffffffffff16815260200190815260200160002060009054906101000a900460ff16156107c057600e6040517fede8a5990000000000000000000000000000000000000000000000000000000081526004016107b791906147a8565b60405180910390fd5b6107cb816002612e2d565b6001735F5A5531CF864FA2BB97A7d455E0850d8ea2792263dc6cf4829091600c60009054906101000a900473ffffffffffffffffffffffffffffffffffffffff16878787876040518763ffffffff1660e01b815260040161083196959493929190614893565b60006040518083038186803b15801561084957600080fd5b505af415801561085d573d6000803e3d6000fd5b5050505060006001735F5A5531CF864FA2BB97A7d455E0850d8ea2792263bde290fb9091600c60009054906101000a900473ffffffffffffffffffffffffffffffffffffffff1687868a60008a6040518863ffffffff1660e01b81526004016108cc9796959493929190614963565b604080518083038186803b1580156108e357600080fd5b505af41580156108f7573d6000803e3d6000fd5b505050506040513d601f19601f8201168201806040525081019061091b919061428e565b91505060008111156109655760056040517fede8a59900000000000000000000000000000000000000000000000000000000815260040161095c91906147a8565b60405180910390fd5b600973DD82cCC242A1F88EC2c02b0986E15E71897B7fc7634b4294ab909143886040518463ffffffff1660e01b81526004016109a393929190614a78565b60006040518083038186803b1580156109bb57600080fd5b505af41580156109cf573d6000803e3d6000fd5b50505050600973DD82cCC242A1F88EC2c02b0986E15E71897B7fc763c000a298909187876040518463ffffffff1660e01b8152600401610a1193929190614a41565b60006040518083038186803b158015610a2957600080fd5b505af4158015610a3d573d6000803e3d6000fd5b505050505050505050565b606073f6780c6eCFbF39CE58ac293dC2F00da27c91df4E63ee5c40d442600760009054906101000a900460ff166040518363ffffffff1660e01b8152600401610a92929190614c16565b60006040518083038186803b158015610aaa57600080fd5b505af4158015610abe573d6000803e3d6000fd5b505050506040513d6000823e3d601f19601f82011682018060405250810190610ae79190614075565b905090565b600160000160008373ffffffffffffffffffffffffffffffffffffffff1673ffffffffffffffffffffffffffffffffffffffff16815260200190815260200160002060020160009054906101000a900460ff16610b815760016040517fede8a599000000000000000000000000000000000000000000000000000000008152600401610b7891906147a8565b60405180910390fd5b600973DD82cCC242A1F88EC2c02b0986E15E71897B7fc7639efef244909143856040518463ffffffff1660e01b8152600401610bbf93929190614a78565b60006040518083038186803b158015610bd757600080fd5b505af4158015610beb573d6000803e3d6000fd5b50505050600973DD82cCC242A1F88EC2c02b0986E15E71897B7fc763b5467bc8909184846040518463ffffffff1660e01b8152600401610c2d93929190614a41565b60006040518083038186803b158015610c4557600080fd5b505af4158015610c59573d6000803e3d6000fd5b505050505050565b600760009054906101000a900460ff1681565b6000801b610c8981610c84612f86565b612f8e565b600085859050905060008484905090506000821480610ca85750808214155b15610ceb5760106040517fede8a599000000000000000000000000000000000000000000000000000000008152600401610ce291906147a8565b60405180910390fd5b60005b82811015610f985760016000016000898984818110610d36577f4e487b7100000000000000000000000000000000000000000000000000000000600052603260045260246000fd5b9050602002016020810190610d4b9190613c32565b73ffffffffffffffffffffffffffffffffffffffff1673ffffffffffffffffffffffffffffffffffffffff16815260200190815260200160002060020160009054906101000a900460ff16610dd85760016040517fede8a599000000000000000000000000000000000000000000000000000000008152600401610dcf91906147a8565b60405180910390fd5b858582818110610e11577f4e487b7100000000000000000000000000000000000000000000000000000000600052603260045260246000fd5b90506020020135600160020160008a8a85818110610e58577f4e487b7100000000000000000000000000000000000000000000000000000000600052603260045260246000fd5b9050602002016020810190610e6d9190613c32565b73ffffffffffffffffffffffffffffffffffffffff1673ffffffffffffffffffffffffffffffffffffffff16815260200190815260200160002081905550878782818110610ee4577f4e487b7100000000000000000000000000000000000000000000000000000000600052603260045260246000fd5b9050602002016020810190610ef99190613c32565b73ffffffffffffffffffffffffffffffffffffffff167f6f1951b2aad10f3fc81b86d91105b413a5b3f847a34bbc5ce1904201b14438f6878784818110610f69577f4e487b7100000000000000000000000000000000000000000000000000000000600052603260045260246000fd5b90506020020135604051610f7d9190614b9b565b60405180910390a28080610f90906151f0565b915050610cee565b5050505050505050565b610fad816002612e2d565b600083839050905060005b81811015611090576001735F5A5531CF864FA2BB97A7d455E0850d8ea279226363a6cadd9091878785818110611017577f4e487b7100000000000000000000000000000000000000000000000000000000600052603260045260246000fd5b905060200201602081019061102c9190613c32565b33876040518563ffffffff1660e01b815260040161104d949392919061484e565b60006040518083038186803b15801561106557600080fd5b505af4158015611079573d6000803e3d6000fd5b505050508080611088906151f0565b915050610fb8565b5050505050565b600160000160008373ffffffffffffffffffffffffffffffffffffffff1673ffffffffffffffffffffffffffffffffffffffff16815260200190815260200160002060020160009054906101000a900460ff1661112c5760016040517fede8a59900000000000000000000000000000000000000000000000000000000815260040161112391906147a8565b60405180910390fd5b600082905073f6780c6eCFbF39CE58ac293dC2F00da27c91df4E63b142980a836040518263ffffffff1660e01b81526004016111689190614b80565b60206040518083038186803b15801561118057600080fd5b505af4158015611194573d6000803e3d6000fd5b505050506040513d601f19601f820116820180604052508101906111b891906140b6565b6111fa57600c6040517fede8a5990000000000000000000000000000000000000000000000000000000081526004016111f191906147a8565b60405180910390fd5b6000808273ffffffffffffffffffffffffffffffffffffffff166355a1ac2e33866040518363ffffffff1660e01b81526004016112389291906146ea565b604080518083038186803b15801561124f57600080fd5b505afa158015611263573d6000803e3d6000fd5b505050506040513d601f19601f82011682018060405250810190611287919061428e565b91509150600081146112d15760146040517fede8a5990000000000000000000000000000000000000000000000000000000081526004016112c891906147a8565b60405180910390fd5b6112dd8533848761302b565b6001735F5A5531CF864FA2BB97A7d455E0850d8ea27922632c0636c790918733886040518563ffffffff1660e01b815260040161131d949392919061484e565b60006040518083038186803b15801561133557600080fd5b505af4158015611349573d6000803e3d6000fd5b505050505050505050565b6000806000838152602001908152602001600020600101549050919050565b60008214156113ba5760096040517fede8a5990000000000000000000000000000000000000000000000000000000081526004016113b191906147a8565b60405180910390fd5b8373ffffffffffffffffffffffffffffffffffffffff168373ffffffffffffffffffffffffffffffffffffffff16141561142c57600d6040517fede8a59900000000000000000000000000000000000000000000000000000000815260040161142391906147a8565b60405180910390fd5b600160000160008773ffffffffffffffffffffffffffffffffffffffff1673ffffffffffffffffffffffffffffffffffffffff16815260200190815260200160002060020160009054906101000a900460ff1615806114db5750600160000160008673ffffffffffffffffffffffffffffffffffffffff1673ffffffffffffffffffffffffffffffffffffffff16815260200190815260200160002060020160009054906101000a900460ff16155b1561151e5760016040517fede8a59900000000000000000000000000000000000000000000000000000000815260040161151591906147a8565b60405180910390fd5b60006001735F5A5531CF864FA2BB97A7d455E0850d8ea2792263bde290fb9091600c60009054906101000a900473ffffffffffffffffffffffffffffffffffffffff16878660008060006040518863ffffffff1660e01b815260040161158a97969594939291906148f4565b604080518083038186803b1580156115a157600080fd5b505af41580156115b5573d6000803e3d6000fd5b505050506040513d601f19601f820116820180604052508101906115d9919061428e565b915050600073f6780c6eCFbF39CE58ac293dC2F00da27c91df4E63da4b8a4c4285600760009054906101000a900460ff166040518463ffffffff1660e01b815260040161162893929190614bdf565b60206040518083038186803b15801561164057600080fd5b505af4158015611654573d6000803e3d6000fd5b505050506040513d601f19601f820116820180604052508101906116789190614196565b90506000821480156116fb5750600160038111156116bf577f4e487b7100000000000000000000000000000000000000000000000000000000600052602160045260246000fd5b8160038111156116f8577f4e487b7100000000000000000000000000000000000000000000000000000000600052602160045260246000fd5b14155b1561173e5760066040517fede8a59900000000000000000000000000000000000000000000000000000000815260040161173591906147a8565b60405180910390fd5b60008873ffffffffffffffffffffffffffffffffffffffff166355a1ac2e87866040518363ffffffff1660e01b815260040161177b9291906146ea565b604080518083038186803b15801561179257600080fd5b505afa1580156117a6573d6000803e3d6000fd5b505050506040513d601f19601f820116820180604052508101906117ca919061428e565b91505060006117e48260055461328190919063ffffffff16565b90508086111561182c5760086040517fede8a59900000000000000000000000000000000000000000000000000000000815260040161182391906147a8565b60405180910390fd5b50505050505050505050565b600160000160008373ffffffffffffffffffffffffffffffffffffffff1673ffffffffffffffffffffffffffffffffffffffff16815260200190815260200160002060020160009054906101000a900460ff166118cd5760016040517fede8a5990000000000000000000000000000000000000000000000000000000081526004016118c491906147a8565b60405180910390fd5b600973DD82cCC242A1F88EC2c02b0986E15E71897B7fc7634b4294ab909143856040518463ffffffff1660e01b815260040161190b93929190614a78565b60006040518083038186803b15801561192357600080fd5b505af4158015611937573d6000803e3d6000fd5b50505050600973DD82cCC242A1F88EC2c02b0986E15E71897B7fc763c000a298909184846040518463ffffffff1660e01b815260040161197993929190614a41565b60006040518083038186803b15801561199157600080fd5b505af41580156119a5573d6000803e3d6000fd5b505050505050565b6119b682611354565b6119c7816119c2612f86565b612f8e565b6119d183836132aa565b505050565b6119e28484848461302b565b600973DD82cCC242A1F88EC2c02b0986E15E71897B7fc76331277d74909143876040518463ffffffff1660e01b8152600401611a2093929190614a78565b60006040518083038186803b158015611a3857600080fd5b505af4158015611a4c573d6000803e3d6000fd5b50505050600973DD82cCC242A1F88EC2c02b0986E15E71897B7fc763ff7e0bf6909186866040518463ffffffff1660e01b8152600401611a8e93929190614a41565b60006040518083038186803b158015611aa657600080fd5b505af4158015611aba573d6000803e3d6000fd5b5050505050505050565b611acc612f86565b73ffffffffffffffffffffffffffffffffffffffff168173ffffffffffffffffffffffffffffffffffffffff1614611b39576040517f08c379a0000000000000000000000000000000000000000000000000000000008152600401611b309061482e565b60405180910390fd5b611b43828261338a565b5050565b6000801b611b5c81611b57612f86565b612f8e565b6000600160000160008873ffffffffffffffffffffffffffffffffffffffff1673ffffffffffffffffffffffffffffffffffffffff16815260200190815260200160002090508060020160009054906101000a900460ff1615611bf75760026040517fede8a599000000000000000000000000000000000000000000000000000000008152600401611bee91906147a8565b60405180910390fd5b3073ffffffffffffffffffffffffffffffffffffffff168773ffffffffffffffffffffffffffffffffffffffff1663b72ddee96040518163ffffffff1660e01b815260040160206040518083038186803b158015611c5457600080fd5b505afa158015611c68573d6000803e3d6000fd5b505050506040513d601f19601f82011682018060405250810190611c8c919061416d565b73ffffffffffffffffffffffffffffffffffffffff1614611ce55760076040517fede8a599000000000000000000000000000000000000000000000000000000008152600401611cdc91906147a8565b60405180910390fd5b60018160020160006101000a81548160ff02191690831515021790555085816003018190555084816000019080519060200190611d23929190613818565b5083816001019080519060200190611d3c929190613818565b50828160040160006101000a81548160ff021916908360ff1602179055506008879080600181540180825580915050600190039060005260206000200160009091909190916101000a81548173ffffffffffffffffffffffffffffffffffffffff021916908373ffffffffffffffffffffffffffffffffffffffff1602179055507fcf583bb0c569eb967f806b11601c4cb93c10310485c67add5f8362c2f212321f87604051611dec9190614693565b60405180910390a150505050505050565b600080600c60009054906101000a900473ffffffffffffffffffffffffffffffffffffffff1673ffffffffffffffffffffffffffffffffffffffff16632aedd0eb8673ffffffffffffffffffffffffffffffffffffffff166391f3e4726040518163ffffffff1660e01b815260040160006040518083038186803b158015611e8457600080fd5b505afa158015611e98573d6000803e3d6000fd5b505050506040513d6000823e3d601f19601f82011682018060405250810190611ec191906141bf565b6040518263ffffffff1660e01b8152600401611edd91906147ec565b60206040518083038186803b158015611ef557600080fd5b505afa158015611f09573d6000803e3d6000fd5b505050506040513d601f19601f82011682018060405250810190611f2d9190614229565b90506000600c60009054906101000a900473ffffffffffffffffffffffffffffffffffffffff1673ffffffffffffffffffffffffffffffffffffffff16632aedd0eb8673ffffffffffffffffffffffffffffffffffffffff166391f3e4726040518163ffffffff1660e01b815260040160006040518083038186803b158015611fb557600080fd5b505afa158015611fc9573d6000803e3d6000fd5b505050506040513d6000823e3d601f19601f82011682018060405250810190611ff291906141bf565b6040518263ffffffff1660e01b815260040161200e91906147ec565b60206040518083038186803b15801561202657600080fd5b505afa15801561203a573d6000803e3d6000fd5b505050506040513d601f19601f8201168201806040525081019061205e9190614229565b905060006120bf8584600160000160008b73ffffffffffffffffffffffffffffffffffffffff1673ffffffffffffffffffffffffffffffffffffffff16815260200190815260200160002060040160009054906101000a900460ff1661346b565b905060006121208284600160000160008b73ffffffffffffffffffffffffffffffffffffffff1673ffffffffffffffffffffffffffffffffffffffff16815260200190815260200160002060040160009054906101000a900460ff166134ca565b90506121376006548261328190919063ffffffff16565b9450505050509392505050565b6000600167ffffffffffffffff811115612187577f4e487b7100000000000000000000000000000000000000000000000000000000600052604160045260246000fd5b6040519080825280602002602001820160405280156121b55781602001602082028036833780820191505090505b50905082816000815181106121f3577f4e487b7100000000000000000000000000000000000000000000000000000000600052603260045260246000fd5b602002602001019073ffffffffffffffffffffffffffffffffffffffff16908173ffffffffffffffffffffffffffffffffffffffff1681525050600973DD82cCC242A1F88EC2c02b0986E15E71897B7fc7633d00bbe59091436001600001858760018060016040518963ffffffff1660e01b815260040161227b989796959493929190614af4565b60006040518083038186803b15801561229357600080fd5b505af41580156122a7573d6000803e3d6000fd5b50505050505050565b6000801b6122c5816122c0612f86565b612f8e565b81600c60006101000a81548173ffffffffffffffffffffffffffffffffffffffff021916908373ffffffffffffffffffffffffffffffffffffffff1602179055507f0e05ae75e8b926552cf6fcd744d19f422561e3ced1e426868730852702dbe418826040516123359190614693565b60405180910390a15050565b600c60009054906101000a900473ffffffffffffffffffffffffffffffffffffffff1681565b6123718282612e2d565b5050565b60065481565b600080600084815260200190815260200160002060000160008373ffffffffffffffffffffffffffffffffffffffff1673ffffffffffffffffffffffffffffffffffffffff16815260200190815260200160002060009054906101000a900460ff16905092915050565b600160000160008373ffffffffffffffffffffffffffffffffffffffff1673ffffffffffffffffffffffffffffffffffffffff16815260200190815260200160002060020160009054906101000a900460ff1661247a5760016040517fede8a59900000000000000000000000000000000000000000000000000000000815260040161247191906147a8565b60405180910390fd5b600973DD82cCC242A1F88EC2c02b0986E15E71897B7fc7639efef244909143856040518463ffffffff1660e01b81526004016124b893929190614a78565b60006040518083038186803b1580156124d057600080fd5b505af41580156124e4573d6000803e3d6000fd5b50505050600973DD82cCC242A1F88EC2c02b0986E15E71897B7fc763b5467bc8909184846040518463ffffffff1660e01b815260040161252693929190614a41565b60006040518083038186803b15801561253e57600080fd5b505af4158015612552573d6000803e3d6000fd5b505050505050565b606060088054806020026020016040519081016040528092919081815260200182805480156125de57602002820191906000526020600020905b8160009054906101000a900473ffffffffffffffffffffffffffffffffffffffff1673ffffffffffffffffffffffffffffffffffffffff1681526020019060010190808311612594575b5050505050905090565b6000806001735F5A5531CF864FA2BB97A7d455E0850d8ea2792263bde290fb9091600c60009054906101000a900473ffffffffffffffffffffffffffffffffffffffff16878760008060006040518863ffffffff1660e01b815260040161265597969594939291906148f4565b604080518083038186803b15801561266c57600080fd5b505af4158015612680573d6000803e3d6000fd5b505050506040513d601f19601f820116820180604052508101906126a4919061428e565b915091509250929050565b6000801b81565b600160000160008473ffffffffffffffffffffffffffffffffffffffff1673ffffffffffffffffffffffffffffffffffffffff16815260200190815260200160002060020160009054906101000a900460ff1661274b5760016040517fede8a59900000000000000000000000000000000000000000000000000000000815260040161274291906147a8565b60405180910390fd5b612756816002612e2d565b600973DD82cCC242A1F88EC2c02b0986E15E71897B7fc76331277d74909143866040518463ffffffff1660e01b815260040161279493929190614a78565b60006040518083038186803b1580156127ac57600080fd5b505af41580156127c0573d6000803e3d6000fd5b50505050600973DD82cCC242A1F88EC2c02b0986E15E71897B7fc763ff7e0bf6909185856040518463ffffffff1660e01b815260040161280293929190614a41565b60006040518083038186803b15801561281a57600080fd5b505af415801561282e573d6000803e3d6000fd5b50505050505050565b6000801b61284c81612847612f86565b612f8e565b816006819055505050565b6128e78160088054806020026020016040519081016040528092919081815260200182805480156128dd57602002820191906000526020600020905b8160009054906101000a900473ffffffffffffffffffffffffffffffffffffffff1673ffffffffffffffffffffffffffffffffffffffff1681526020019060010190808311612893575b5050505050612144565b50565b600881815481106128fa57600080fd5b906000526020600020016000915054906101000a900473ffffffffffffffffffffffffffffffffffffffff1681565b6000801b61293e81612939612f86565b612f8e565b6000600160000160008573ffffffffffffffffffffffffffffffffffffffff1673ffffffffffffffffffffffffffffffffffffffff1681526020019081526020016000209050600015158160020160009054906101000a900460ff16151514156129e05760016040517fede8a5990000000000000000000000000000000000000000000000000000000081526004016129d791906147a8565b60405180910390fd5b60011515600973DD82cCC242A1F88EC2c02b0986E15E71897B7fc76353962db490914388886040518563ffffffff1660e01b8152600401612a249493929190614aaf565b60206040518083038186803b158015612a3c57600080fd5b505af4158015612a50573d6000803e3d6000fd5b505050506040513d601f19601f82011682018060405250810190612a7491906140b6565b15151415612ab6577fdbe1acf0f191a9aecba27ad74b59bb70426fe3f6129596f53b0f03a230c083238484604051612aad9291906146ea565b60405180910390a15b50505050565b60098060000160009054906101000a900473ffffffffffffffffffffffffffffffffffffffff16905081565b612af182611354565b612b0281612afd612f86565b612f8e565b612b0c838361338a565b505050565b60008060001b612b2881612b23612f86565b612f8e565b600160000160008573ffffffffffffffffffffffffffffffffffffffff1673ffffffffffffffffffffffffffffffffffffffff16815260200190815260200160002060020160009054906101000a900460ff16612bbd5760016040517fede8a599000000000000000000000000000000000000000000000000000000008152600401612bb491906147a8565b60405180910390fd5b826001800160008673ffffffffffffffffffffffffffffffffffffffff1673ffffffffffffffffffffffffffffffffffffffff16815260200190815260200160002060006101000a81548160ff0219169083151502179055507f71aec636243f9709bb0007ae15e9afb8150ab01716d75fd7573be5cc096e03b08484604051612c479291906146ae565b60405180910390a18291505092915050565b8173ffffffffffffffffffffffffffffffffffffffff168173ffffffffffffffffffffffffffffffffffffffff161415612ccb57600d6040517fede8a599000000000000000000000000000000000000000000000000000000008152600401612cc291906147a8565b60405180910390fd5b600160000160008573ffffffffffffffffffffffffffffffffffffffff1673ffffffffffffffffffffffffffffffffffffffff16815260200190815260200160002060020160009054906101000a900460ff161580612d7a5750600160000160008473ffffffffffffffffffffffffffffffffffffffff1673ffffffffffffffffffffffffffffffffffffffff16815260200190815260200160002060020160009054906101000a900460ff16155b15612dbd5760016040517fede8a599000000000000000000000000000000000000000000000000000000008152600401612db491906147a8565b60405180910390fd5b50505050565b60007f01ffc9a7000000000000000000000000000000000000000000000000000000007bffffffffffffffffffffffffffffffffffffffffffffffffffffffff1916827bffffffffffffffffffffffffffffffffffffffffffffffffffffffff1916149050919050565b600073f6780c6eCFbF39CE58ac293dC2F00da27c91df4E63da4b8a4c4285600760009054906101000a900460ff166040518463ffffffff1660e01b8152600401612e7993929190614bdf565b60206040518083038186803b158015612e9157600080fd5b505af4158015612ea5573d6000803e3d6000fd5b505050506040513d601f19601f82011682018060405250810190612ec99190614196565b9050816003811115612f04577f4e487b7100000000000000000000000000000000000000000000000000000000600052602160045260246000fd5b816003811115612f3d577f4e487b7100000000000000000000000000000000000000000000000000000000600052602160045260246000fd5b14612f815780826040517f34e2603a000000000000000000000000000000000000000000000000000000008152600401612f789291906147c3565b60405180910390fd5b505050565b600033905090565b612f98828261237b565b61302757612fbd8173ffffffffffffffffffffffffffffffffffffffff16601461351e565b612fcb8360001c602061351e565b604051602001612fdc929190614659565b6040516020818303038152906040526040517f08c379a000000000000000000000000000000000000000000000000000000000815260040161301e91906147ec565b60405180910390fd5b5050565b600160000160008573ffffffffffffffffffffffffffffffffffffffff1673ffffffffffffffffffffffffffffffffffffffff16815260200190815260200160002060020160009054906101000a900460ff166130c05760016040517fede8a5990000000000000000000000000000000000000000000000000000000081526004016130b791906147a8565b60405180910390fd5b6130cb816001612e2d565b600160000160008573ffffffffffffffffffffffffffffffffffffffff1673ffffffffffffffffffffffffffffffffffffffff16815260200190815260200160002060050160008473ffffffffffffffffffffffffffffffffffffffff1673ffffffffffffffffffffffffffffffffffffffff168152602001908152602001600020600082815260200190815260200160002060009054906101000a900460ff166131755761327b565b60006001735F5A5531CF864FA2BB97A7d455E0850d8ea2792263bde290fb9091600c60009054906101000a900473ffffffffffffffffffffffffffffffffffffffff1687868a8960006040518863ffffffff1660e01b81526004016131e097969594939291906149d2565b604080518083038186803b1580156131f757600080fd5b505af415801561320b573d6000803e3d6000fd5b505050506040513d601f19601f8201168201806040525081019061322f919061428e565b91505060008111156132795760056040517fede8a59900000000000000000000000000000000000000000000000000000000815260040161327091906147a8565b60405180910390fd5b505b50505050565b6000670de0b6b3a764000082846132989190614faa565b6132a29190614e08565b905092915050565b6132b4828261237b565b61338657600160008084815260200190815260200160002060000160008373ffffffffffffffffffffffffffffffffffffffff1673ffffffffffffffffffffffffffffffffffffffff16815260200190815260200160002060006101000a81548160ff02191690831515021790555061332b612f86565b73ffffffffffffffffffffffffffffffffffffffff168173ffffffffffffffffffffffffffffffffffffffff16837f2f8788117e7eff1d82e926ec794901d17c78024a50270940304540a733656f0d60405160405180910390a45b5050565b613394828261237b565b1561346757600080600084815260200190815260200160002060000160008373ffffffffffffffffffffffffffffffffffffffff1673ffffffffffffffffffffffffffffffffffffffff16815260200190815260200160002060006101000a81548160ff02191690831515021790555061340c612f86565b73ffffffffffffffffffffffffffffffffffffffff168173ffffffffffffffffffffffffffffffffffffffff16837ff6391f5c32d9c69d2a47ea670b442974b53935d1edc7fd64eb21e047a839171b60405160405180910390a45b5050565b60008082600a61347b9190614e8c565b9050600081670de0b6b3a7640000876134949190614faa565b61349e9190614e08565b9050670de0b6b3a764000085826134b59190614faa565b6134bf9190614e08565b925050509392505050565b6000670de0b6b3a764000082600a6134e29190614e8c565b84670de0b6b3a7640000876134f79190614faa565b6135019190614e08565b61350b9190614faa565b6135159190614e08565b90509392505050565b6060600060028360026135319190614faa565b61353b9190614db2565b67ffffffffffffffff81111561357a577f4e487b7100000000000000000000000000000000000000000000000000000000600052604160045260246000fd5b6040519080825280601f01601f1916602001820160405280156135ac5781602001600182028036833780820191505090505b5090507f30000000000000000000000000000000000000000000000000000000000000008160008151811061360a577f4e487b7100000000000000000000000000000000000000000000000000000000600052603260045260246000fd5b60200101907effffffffffffffffffffffffffffffffffffffffffffffffffffffffffffff1916908160001a9053507f780000000000000000000000000000000000000000000000000000000000000081600181518110613694577f4e487b7100000000000000000000000000000000000000000000000000000000600052603260045260246000fd5b60200101907effffffffffffffffffffffffffffffffffffffffffffffffffffffffffffff1916908160001a905350600060018460026136d49190614faa565b6136de9190614db2565b90505b60018111156137ca577f3031323334353637383961626364656600000000000000000000000000000000600f861660108110613746577f4e487b7100000000000000000000000000000000000000000000000000000000600052603260045260246000fd5b1a60f81b828281518110613783577f4e487b7100000000000000000000000000000000000000000000000000000000600052603260045260246000fd5b60200101907effffffffffffffffffffffffffffffffffffffffffffffffffffffffffffff1916908160001a905350600485901c9450806137c390615163565b90506136e1565b506000841461380e576040517f08c379a00000000000000000000000000000000000000000000000000000000081526004016138059061480e565b60405180910390fd5b8091505092915050565b8280546138249061518d565b90600052602060002090601f016020900481019282613846576000855561388d565b82601f1061385f57805160ff191683800117855561388d565b8280016001018555821561388d579182015b8281111561388c578251825591602001919060010190613871565b5b50905061389a919061389e565b5090565b5b808211156138b757600081600090555060010161389f565b5090565b60006138ce6138c984614c7f565b614c5a565b905080838252602082019050828560208602820111156138ed57600080fd5b60005b8581101561391d57816139038882613a0f565b8452602084019350602083019250506001810190506138f0565b5050509392505050565b600061393a61393584614cab565b614c5a565b9050808382526020820190508285602086028201111561395957600080fd5b60005b85811015613989578161396f8882613c08565b84526020840193506020830192505060018101905061395c565b5050509392505050565b60006139a66139a184614cd7565b614c5a565b9050828152602081018484840111156139be57600080fd5b6139c9848285615121565b509392505050565b60006139e46139df84614cd7565b614c5a565b9050828152602081018484840111156139fc57600080fd5b613a07848285615130565b509392505050565b600081359050613a1e8161545d565b92915050565b60008083601f840112613a3657600080fd5b8235905067ffffffffffffffff811115613a4f57600080fd5b602083019150836020820283011115613a6757600080fd5b9250929050565b600082601f830112613a7f57600080fd5b8135613a8f8482602086016138bb565b91505092915050565b60008083601f840112613aaa57600080fd5b8235905067ffffffffffffffff811115613ac357600080fd5b602083019150836020820283011115613adb57600080fd5b9250929050565b600082601f830112613af357600080fd5b8151613b03848260208601613927565b91505092915050565b600081359050613b1b81615474565b92915050565b600081519050613b3081615474565b92915050565b600081359050613b458161548b565b92915050565b600081359050613b5a816154a2565b92915050565b600081519050613b6f816154b9565b92915050565b600081359050613b84816154d0565b92915050565b600081519050613b99816154d0565b92915050565b600082601f830112613bb057600080fd5b8135613bc0848260208601613993565b91505092915050565b600082601f830112613bda57600080fd5b8151613bea8482602086016139d1565b91505092915050565b600081359050613c02816154e0565b92915050565b600081519050613c17816154e0565b92915050565b600081359050613c2c816154f7565b92915050565b600060208284031215613c4457600080fd5b6000613c5284828501613a0f565b91505092915050565b60008060408385031215613c6e57600080fd5b6000613c7c85828601613a0f565b9250506020613c8d85828601613a0f565b9150509250929050565b60008060008060808587031215613cad57600080fd5b6000613cbb87828801613a0f565b9450506020613ccc87828801613a0f565b9350506040613cdd87828801613a0f565b9250506060613cee87828801613a0f565b91505092959194509250565b60008060008060008060c08789031215613d1357600080fd5b6000613d2189828a01613a0f565b9650506020613d3289828a01613a0f565b9550506040613d4389828a01613a0f565b9450506060613d5489828a01613a0f565b9350506080613d6589828a01613bf3565b92505060a0613d7689828a01613bf3565b9150509295509295509295565b600080600060608486031215613d9857600080fd5b6000613da686828701613a0f565b9350506020613db786828701613a0f565b9250506040613dc886828701613bf3565b9150509250925092565b60008060008060808587031215613de857600080fd5b6000613df687828801613a0f565b9450506020613e0787828801613a0f565b9350506040613e1887828801613bf3565b9250506060613e2987828801613bf3565b91505092959194509250565b60008060408385031215613e4857600080fd5b6000613e5685828601613a0f565b925050602083013567ffffffffffffffff811115613e7357600080fd5b613e7f85828601613a6e565b9150509250929050565b60008060408385031215613e9c57600080fd5b6000613eaa85828601613a0f565b9250506020613ebb85828601613b0c565b9150509250929050565b60008060408385031215613ed857600080fd5b6000613ee685828601613a0f565b9250506020613ef785828601613bf3565b9150509250929050565b600080600080600060a08688031215613f1957600080fd5b6000613f2788828901613a0f565b9550506020613f3888828901613bf3565b945050604086013567ffffffffffffffff811115613f5557600080fd5b613f6188828901613b9f565b935050606086013567ffffffffffffffff811115613f7e57600080fd5b613f8a88828901613b9f565b9250506080613f9b88828901613c1d565b9150509295509295909350565b60008060008060408587031215613fbe57600080fd5b600085013567ffffffffffffffff811115613fd857600080fd5b613fe487828801613a24565b9450945050602085013567ffffffffffffffff81111561400357600080fd5b61400f87828801613a98565b925092505092959194509250565b60008060006040848603121561403257600080fd5b600084013567ffffffffffffffff81111561404c57600080fd5b61405886828701613a24565b9350935050602061406b86828701613bf3565b9150509250925092565b60006020828403121561408757600080fd5b600082015167ffffffffffffffff8111156140a157600080fd5b6140ad84828501613ae2565b91505092915050565b6000602082840312156140c857600080fd5b60006140d684828501613b21565b91505092915050565b6000602082840312156140f157600080fd5b60006140ff84828501613b36565b91505092915050565b6000806040838503121561411b57600080fd5b600061412985828601613b36565b925050602061413a85828601613a0f565b9150509250929050565b60006020828403121561415657600080fd5b600061416484828501613b4b565b91505092915050565b60006020828403121561417f57600080fd5b600061418d84828501613b60565b91505092915050565b6000602082840312156141a857600080fd5b60006141b684828501613b8a565b91505092915050565b6000602082840312156141d157600080fd5b600082015167ffffffffffffffff8111156141eb57600080fd5b6141f784828501613bc9565b91505092915050565b60006020828403121561421257600080fd5b600061422084828501613bf3565b91505092915050565b60006020828403121561423b57600080fd5b600061424984828501613c08565b91505092915050565b6000806040838503121561426557600080fd5b600061427385828601613bf3565b925050602061428485828601613b75565b9150509250929050565b600080604083850312156142a157600080fd5b60006142af85828601613c08565b92505060206142c085828601613c08565b9150509250929050565b60006142d68383614312565b60208301905092915050565b60006142ee838361433f565b60208301905092915050565b6000614306838361460e565b60208301905092915050565b61431b81615004565b82525050565b61432a81615004565b82525050565b61433981615004565b82525050565b61434881615004565b82525050565b600061435982614d28565b6143638185614d63565b935061436e83614d08565b8060005b8381101561439f57815161438688826142ca565b975061439183614d49565b925050600181019050614372565b5085935050505092915050565b60006143b782614d28565b6143c18185614d74565b93506143cc83614d08565b8060005b838110156143fd5781516143e488826142e2565b97506143ef83614d49565b9250506001810190506143d0565b5085935050505092915050565b600061441582614d33565b61441f8185614d85565b935061442a83614d18565b8060005b8381101561445b57815161444288826142fa565b975061444d83614d56565b92505060018101905061442e565b5085935050505092915050565b61447181615016565b82525050565b61448081615016565b82525050565b61448f81615022565b82525050565b61449e816150c7565b82525050565b6144ad816150c7565b82525050565b6144bc816150eb565b82525050565b6144cb816150fd565b82525050565b8082525050565b6144e18161510f565b82525050565b60006144f282614d3e565b6144fc8185614d96565b935061450c818560208601615130565b61451581615324565b840191505092915050565b600061452b82614d3e565b6145358185614da7565b9350614545818560208601615130565b80840191505092915050565b600061455e602083614d96565b915061456982615342565b602082019050919050565b6000614581600683614d96565b915061458c8261536b565b602082019050919050565b60006145a4601783614da7565b91506145af82615394565b601782019050919050565b60006145c7601183614da7565b91506145d2826153bd565b601182019050919050565b60006145ea602f83614d96565b91506145f5826153e6565b604082019050919050565b8082525050565b8082525050565b614617816150b0565b82525050565b614626816150b0565b82525050565b614635816150b0565b82525050565b614644816150ba565b82525050565b614653816150ba565b82525050565b600061466482614597565b91506146708285614520565b915061467b826145ba565b91506146878284614520565b91508190509392505050565b60006020820190506146a86000830184614321565b92915050565b60006060820190506146c36000830185614321565b81810360208301526146d481614574565b90506146e36040830184614468565b9392505050565b60006040820190506146ff6000830185614321565b61470c602083018461461d565b9392505050565b6000602082019050818103600083015261472d818461434e565b905092915050565b6000602082019050818103600083015261474f818461440a565b905092915050565b600060208201905061476c6000830184614468565b92915050565b60006020820190506147876000830184614486565b92915050565b60006020820190506147a26000830184614495565b92915050565b60006020820190506147bd60008301846144b3565b92915050565b60006040820190506147d860008301856144c2565b6147e560208301846144c2565b9392505050565b6000602082019050818103600083015261480681846144e7565b905092915050565b6000602082019050818103600083015261482781614551565b9050919050565b60006020820190508181036000830152614847816145dd565b9050919050565b60006080820190506148636000830187614600565b6148706020830186614330565b61487d6040830185614330565b61488a606083018461462c565b95945050505050565b600060c0820190506148a86000830189614600565b6148b560208301886144a4565b6148c26040830187614330565b6148cf6060830186614330565b6148dc608083018561462c565b6148e960a083018461462c565b979650505050505050565b600060e082019050614909600083018a614600565b61491660208301896144a4565b6149236040830188614330565b614930606083018761462c565b61493d6080830186614330565b61494a60a08301856144d8565b61495760c08301846144d8565b98975050505050505050565b600060e082019050614978600083018a614600565b61498560208301896144a4565b6149926040830188614330565b61499f606083018761462c565b6149ac6080830186614330565b6149b960a08301856144d8565b6149c660c083018461462c565b98975050505050505050565b600060e0820190506149e7600083018a614600565b6149f460208301896144a4565b614a016040830188614330565b614a0e606083018761462c565b614a1b6080830186614330565b614a2860a083018561462c565b614a3560c08301846144d8565b98975050505050505050565b6000606082019050614a566000830186614607565b614a636020830185614330565b614a706040830184614330565b949350505050565b6000606082019050614a8d6000830186614607565b614a9a602083018561462c565b614aa76040830184614330565b949350505050565b6000608082019050614ac46000830187614607565b614ad1602083018661462c565b614ade6040830185614330565b614aeb606083018461462c565b95945050505050565b600061010082019050614b0a600083018b614607565b614b17602083018a61462c565b614b2460408301896144d1565b8181036060830152614b3681886143ac565b90508181036080830152614b4a81876143ac565b9050614b5960a0830186614477565b614b6660c0830185614477565b614b7360e0830184614477565b9998505050505050505050565b6000602082019050614b95600083018461462c565b92915050565b6000602082019050614bb0600083018461461d565b92915050565b6000604082019050614bcb600083018561461d565b614bd8602083018461461d565b9392505050565b6000606082019050614bf4600083018661462c565b614c01602083018561462c565b614c0e604083018461464a565b949350505050565b6000604082019050614c2b600083018561462c565b614c38602083018461464a565b9392505050565b6000602082019050614c54600083018461463b565b92915050565b6000614c64614c75565b9050614c7082826151bf565b919050565b6000604051905090565b600067ffffffffffffffff821115614c9a57614c996152f5565b5b602082029050602081019050919050565b600067ffffffffffffffff821115614cc657614cc56152f5565b5b602082029050602081019050919050565b600067ffffffffffffffff821115614cf257614cf16152f5565b5b614cfb82615324565b9050602081019050919050565b6000819050602082019050919050565b6000819050602082019050919050565b600081519050919050565b600081519050919050565b600081519050919050565b6000602082019050919050565b6000602082019050919050565b600082825260208201905092915050565b600082825260208201905092915050565b600082825260208201905092915050565b600082825260208201905092915050565b600081905092915050565b6000614dbd826150b0565b9150614dc8836150b0565b9250827fffffffffffffffffffffffffffffffffffffffffffffffffffffffffffffffff03821115614dfd57614dfc615239565b5b828201905092915050565b6000614e13826150b0565b9150614e1e836150b0565b925082614e2e57614e2d615268565b5b828204905092915050565b6000808291508390505b6001851115614e8357808604811115614e5f57614e5e615239565b5b6001851615614e6e5780820291505b8081029050614e7c85615335565b9450614e43565b94509492505050565b6000614e97826150b0565b9150614ea2836150ba565b9250614ecf7fffffffffffffffffffffffffffffffffffffffffffffffffffffffffffffffff8484614ed7565b905092915050565b600082614ee75760019050614fa3565b81614ef55760009050614fa3565b8160018114614f0b5760028114614f1557614f44565b6001915050614fa3565b60ff841115614f2757614f26615239565b5b8360020a915084821115614f3e57614f3d615239565b5b50614fa3565b5060208310610133831016604e8410600b8410161715614f795782820a905083811115614f7457614f73615239565b5b614fa3565b614f868484846001614e39565b92509050818404811115614f9d57614f9c615239565b5b81810290505b9392505050565b6000614fb5826150b0565b9150614fc0836150b0565b9250817fffffffffffffffffffffffffffffffffffffffffffffffffffffffffffffffff0483118215151615614ff957614ff8615239565b5b828202905092915050565b600061500f82615090565b9050919050565b60008115159050919050565b6000819050919050565b60007fffffffff0000000000000000000000000000000000000000000000000000000082169050919050565b600061506382615004565b9050919050565b600081905061507882615435565b919050565b600081905061508b82615449565b919050565b600073ffffffffffffffffffffffffffffffffffffffff82169050919050565b6000819050919050565b600060ff82169050919050565b60006150d2826150d9565b9050919050565b60006150e482615090565b9050919050565b60006150f68261506a565b9050919050565b60006151088261507d565b9050919050565b600061511a826150b0565b9050919050565b82818337600083830152505050565b60005b8381101561514e578082015181840152602081019050615133565b8381111561515d576000848401525b50505050565b600061516e826150b0565b9150600082141561518257615181615239565b5b600182039050919050565b600060028204905060018216806151a557607f821691505b602082108114156151b9576151b86152c6565b5b50919050565b6151c882615324565b810181811067ffffffffffffffff821117156151e7576151e66152f5565b5b80604052505050565b60006151fb826150b0565b91507fffffffffffffffffffffffffffffffffffffffffffffffffffffffffffffffff82141561522e5761522d615239565b5b600182019050919050565b7f4e487b7100000000000000000000000000000000000000000000000000000000600052601160045260246000fd5b7f4e487b7100000000000000000000000000000000000000000000000000000000600052601260045260246000fd5b7f4e487b7100000000000000000000000000000000000000000000000000000000600052602160045260246000fd5b7f4e487b7100000000000000000000000000000000000000000000000000000000600052602260045260246000fd5b7f4e487b7100000000000000000000000000000000000000000000000000000000600052604160045260246000fd5b6000601f19601f8301169050919050565b60008160011c9050919050565b7f537472696e67733a20686578206c656e67746820696e73756666696369656e74600082015250565b7f426f72726f770000000000000000000000000000000000000000000000000000600082015250565b7f416363657373436f6e74726f6c3a206163636f756e7420000000000000000000600082015250565b7f206973206d697373696e6720726f6c6520000000000000000000000000000000600082015250565b7f416363657373436f6e74726f6c3a2063616e206f6e6c792072656e6f756e636560008201527f20726f6c657320666f722073656c660000000000000000000000000000000000602082015250565b6018811061544657615445615297565b5b50565b6004811061545a57615459615297565b5b50565b61546681615004565b811461547157600080fd5b50565b61547d81615016565b811461548857600080fd5b50565b61549481615022565b811461549f57600080fd5b50565b6154ab8161502c565b81146154b657600080fd5b50565b6154c281615058565b81146154cd57600080fd5b50565b600481106154dd57600080fd5b50565b6154e9816150b0565b81146154f457600080fd5b50565b615500816150ba565b811461550b57600080fd5b5056fea2646970667358221220288870d477f97431f54fd8722d8ca6f5646a8093d016f43913cba9b312f9741b64736f6c63430008040033",
  "deployedBytecode": "0x608060405234801561001057600080fd5b506004361061021c5760003560e01c80637adbf97311610125578063a82585da116100ad578063bb987aef1161007c578063bb987aef1461060c578063c7333f0414610628578063d547741f14610646578063dec481b814610662578063eafe967b146106925761021c565b8063a82585da14610588578063a8431081146105a4578063b10ed768146105c0578063b35dd5dd146105dc5761021c565b806391d14854116100f457806391d14854146104cf57806394e1329d146104ff57806397ce0d311461051b5780639e35e14214610539578063a217fddf1461056a5761021c565b80637adbf9731461045b5780637dc0d1d014610477578063806a9f80146104955780638c765e94146104b15761021c565b8063248a9ca3116101a85780632f8832d6116101775780632f8832d6146103bb57806336568abe146103d75780635cf232e6146103f35780635efadbd11461040f57806363ae097a1461043f5761021c565b8063248a9ca3146103375780632c7c0ae8146103675780632d409a67146103835780632f2ff15d1461039f5761021c565b80630ce6f630116101ef5780630ce6f630146102a95780630e52dbec146102c5578063186db48f146102e35780631d48f1d6146102ff5780631e69d4301461031b5761021c565b806301ffc9a71461022157806305308b9f14610251578063059a80081461026f57806307219b091461028b575b600080fd5b61023b60048036038101906102369190614144565b6106ae565b6040516102489190614757565b60405180910390f35b610259610728565b6040516102669190614b9b565b60405180910390f35b61028960048036038101906102849190613dd2565b61072e565b005b610293610a48565b6040516102a09190614735565b60405180910390f35b6102c360048036038101906102be9190613c5b565b610aec565b005b6102cd610c61565b6040516102da9190614c3f565b60405180910390f35b6102fd60048036038101906102f89190613fa8565b610c74565b005b6103196004803603810190610314919061401d565b610fa2565b005b61033560048036038101906103309190613ec5565b611097565b005b610351600480360381019061034c91906140df565b611354565b60405161035e9190614772565b60405180910390f35b610381600480360381019061037c9190613cfa565b611373565b005b61039d60048036038101906103989190613c5b565b611838565b005b6103b960048036038101906103b49190614108565b6119ad565b005b6103d560048036038101906103d09190613dd2565b6119d6565b005b6103f160048036038101906103ec9190614108565b611ac4565b005b61040d60048036038101906104089190613f01565b611b47565b005b61042960048036038101906104249190613d83565b611dfd565b6040516104369190614b9b565b60405180910390f35b61045960048036038101906104549190613e35565b612144565b005b61047560048036038101906104709190613c32565b6122b0565b005b61047f612341565b60405161048c919061478d565b60405180910390f35b6104af60048036038101906104aa9190614252565b612367565b005b6104b9612375565b6040516104c69190614b9b565b60405180910390f35b6104e960048036038101906104e49190614108565b61237b565b6040516104f69190614757565b60405180910390f35b61051960048036038101906105149190613c5b565b6123e5565b005b61052361255a565b6040516105309190614713565b60405180910390f35b610553600480360381019061054e9190613ec5565b6125e8565b604051610561929190614bb6565b60405180910390f35b6105726126af565b60405161057f9190614772565b60405180910390f35b6105a2600480360381019061059d9190613d83565b6126b6565b005b6105be60048036038101906105b99190614200565b612837565b005b6105da60048036038101906105d59190613c32565b612857565b005b6105f660048036038101906105f19190614200565b6128ea565b6040516106039190614693565b60405180910390f35b61062660048036038101906106219190613ec5565b612929565b005b610630612abc565b60405161063d9190614693565b60405180910390f35b610660600480360381019061065b9190614108565b612ae8565b005b61067c60048036038101906106779190613e89565b612b11565b6040516106899190614757565b60405180910390f35b6106ac60048036038101906106a79190613c97565b612c59565b005b60007f7965db0b000000000000000000000000000000000000000000000000000000007bffffffffffffffffffffffffffffffffffffffffffffffffffffffff1916827bffffffffffffffffffffffffffffffffffffffffffffffffffffffff19161480610721575061072082612dc3565b5b9050919050565b60055481565b6001800160008573ffffffffffffffffffffffffffffffffffffffff1673ffffffffffffffffffffffffffffffffffffffff16815260200190815260200160002060009054906101000a900460ff16156107c057600e6040517fede8a5990000000000000000000000000000000000000000000000000000000081526004016107b791906147a8565b60405180910390fd5b6107cb816002612e2d565b600173__$a5e3e26db51d661f8cd2686e868ae9d1a5$__63dc6cf4829091600c60009054906101000a900473ffffffffffffffffffffffffffffffffffffffff16878787876040518763ffffffff1660e01b815260040161083196959493929190614893565b60006040518083038186803b15801561084957600080fd5b505af415801561085d573d6000803e3d6000fd5b505050506000600173__$a5e3e26db51d661f8cd2686e868ae9d1a5$__63bde290fb9091600c60009054906101000a900473ffffffffffffffffffffffffffffffffffffffff1687868a60008a6040518863ffffffff1660e01b81526004016108cc9796959493929190614963565b604080518083038186803b1580156108e357600080fd5b505af41580156108f7573d6000803e3d6000fd5b505050506040513d601f19601f8201168201806040525081019061091b919061428e565b91505060008111156109655760056040517fede8a59900000000000000000000000000000000000000000000000000000000815260040161095c91906147a8565b60405180910390fd5b600973__$362cfe25f3e11228b53aea52cf811ef65a$__634b4294ab909143886040518463ffffffff1660e01b81526004016109a393929190614a78565b60006040518083038186803b1580156109bb57600080fd5b505af41580156109cf573d6000803e3d6000fd5b50505050600973__$362cfe25f3e11228b53aea52cf811ef65a$__63c000a298909187876040518463ffffffff1660e01b8152600401610a1193929190614a41565b60006040518083038186803b158015610a2957600080fd5b505af4158015610a3d573d6000803e3d6000fd5b505050505050505050565b606073__$90f1fa1b3f91137ac60e95891d324fdd69$__63ee5c40d442600760009054906101000a900460ff166040518363ffffffff1660e01b8152600401610a92929190614c16565b60006040518083038186803b158015610aaa57600080fd5b505af4158015610abe573d6000803e3d6000fd5b505050506040513d6000823e3d601f19601f82011682018060405250810190610ae79190614075565b905090565b600160000160008373ffffffffffffffffffffffffffffffffffffffff1673ffffffffffffffffffffffffffffffffffffffff16815260200190815260200160002060020160009054906101000a900460ff16610b815760016040517fede8a599000000000000000000000000000000000000000000000000000000008152600401610b7891906147a8565b60405180910390fd5b600973__$362cfe25f3e11228b53aea52cf811ef65a$__639efef244909143856040518463ffffffff1660e01b8152600401610bbf93929190614a78565b60006040518083038186803b158015610bd757600080fd5b505af4158015610beb573d6000803e3d6000fd5b50505050600973__$362cfe25f3e11228b53aea52cf811ef65a$__63b5467bc8909184846040518463ffffffff1660e01b8152600401610c2d93929190614a41565b60006040518083038186803b158015610c4557600080fd5b505af4158015610c59573d6000803e3d6000fd5b505050505050565b600760009054906101000a900460ff1681565b6000801b610c8981610c84612f86565b612f8e565b600085859050905060008484905090506000821480610ca85750808214155b15610ceb5760106040517fede8a599000000000000000000000000000000000000000000000000000000008152600401610ce291906147a8565b60405180910390fd5b60005b82811015610f985760016000016000898984818110610d36577f4e487b7100000000000000000000000000000000000000000000000000000000600052603260045260246000fd5b9050602002016020810190610d4b9190613c32565b73ffffffffffffffffffffffffffffffffffffffff1673ffffffffffffffffffffffffffffffffffffffff16815260200190815260200160002060020160009054906101000a900460ff16610dd85760016040517fede8a599000000000000000000000000000000000000000000000000000000008152600401610dcf91906147a8565b60405180910390fd5b858582818110610e11577f4e487b7100000000000000000000000000000000000000000000000000000000600052603260045260246000fd5b90506020020135600160020160008a8a85818110610e58577f4e487b7100000000000000000000000000000000000000000000000000000000600052603260045260246000fd5b9050602002016020810190610e6d9190613c32565b73ffffffffffffffffffffffffffffffffffffffff1673ffffffffffffffffffffffffffffffffffffffff16815260200190815260200160002081905550878782818110610ee4577f4e487b7100000000000000000000000000000000000000000000000000000000600052603260045260246000fd5b9050602002016020810190610ef99190613c32565b73ffffffffffffffffffffffffffffffffffffffff167f6f1951b2aad10f3fc81b86d91105b413a5b3f847a34bbc5ce1904201b14438f6878784818110610f69577f4e487b7100000000000000000000000000000000000000000000000000000000600052603260045260246000fd5b90506020020135604051610f7d9190614b9b565b60405180910390a28080610f90906151f0565b915050610cee565b5050505050505050565b610fad816002612e2d565b600083839050905060005b8181101561109057600173__$a5e3e26db51d661f8cd2686e868ae9d1a5$__6363a6cadd9091878785818110611017577f4e487b7100000000000000000000000000000000000000000000000000000000600052603260045260246000fd5b905060200201602081019061102c9190613c32565b33876040518563ffffffff1660e01b815260040161104d949392919061484e565b60006040518083038186803b15801561106557600080fd5b505af4158015611079573d6000803e3d6000fd5b505050508080611088906151f0565b915050610fb8565b5050505050565b600160000160008373ffffffffffffffffffffffffffffffffffffffff1673ffffffffffffffffffffffffffffffffffffffff16815260200190815260200160002060020160009054906101000a900460ff1661112c5760016040517fede8a59900000000000000000000000000000000000000000000000000000000815260040161112391906147a8565b60405180910390fd5b600082905073__$90f1fa1b3f91137ac60e95891d324fdd69$__63b142980a836040518263ffffffff1660e01b81526004016111689190614b80565b60206040518083038186803b15801561118057600080fd5b505af4158015611194573d6000803e3d6000fd5b505050506040513d601f19601f820116820180604052508101906111b891906140b6565b6111fa57600c6040517fede8a5990000000000000000000000000000000000000000000000000000000081526004016111f191906147a8565b60405180910390fd5b6000808273ffffffffffffffffffffffffffffffffffffffff166355a1ac2e33866040518363ffffffff1660e01b81526004016112389291906146ea565b604080518083038186803b15801561124f57600080fd5b505afa158015611263573d6000803e3d6000fd5b505050506040513d601f19601f82011682018060405250810190611287919061428e565b91509150600081146112d15760146040517fede8a5990000000000000000000000000000000000000000000000000000000081526004016112c891906147a8565b60405180910390fd5b6112dd8533848761302b565b600173__$a5e3e26db51d661f8cd2686e868ae9d1a5$__632c0636c790918733886040518563ffffffff1660e01b815260040161131d949392919061484e565b60006040518083038186803b15801561133557600080fd5b505af4158015611349573d6000803e3d6000fd5b505050505050505050565b6000806000838152602001908152602001600020600101549050919050565b60008214156113ba5760096040517fede8a5990000000000000000000000000000000000000000000000000000000081526004016113b191906147a8565b60405180910390fd5b8373ffffffffffffffffffffffffffffffffffffffff168373ffffffffffffffffffffffffffffffffffffffff16141561142c57600d6040517fede8a59900000000000000000000000000000000000000000000000000000000815260040161142391906147a8565b60405180910390fd5b600160000160008773ffffffffffffffffffffffffffffffffffffffff1673ffffffffffffffffffffffffffffffffffffffff16815260200190815260200160002060020160009054906101000a900460ff1615806114db5750600160000160008673ffffffffffffffffffffffffffffffffffffffff1673ffffffffffffffffffffffffffffffffffffffff16815260200190815260200160002060020160009054906101000a900460ff16155b1561151e5760016040517fede8a59900000000000000000000000000000000000000000000000000000000815260040161151591906147a8565b60405180910390fd5b6000600173__$a5e3e26db51d661f8cd2686e868ae9d1a5$__63bde290fb9091600c60009054906101000a900473ffffffffffffffffffffffffffffffffffffffff16878660008060006040518863ffffffff1660e01b815260040161158a97969594939291906148f4565b604080518083038186803b1580156115a157600080fd5b505af41580156115b5573d6000803e3d6000fd5b505050506040513d601f19601f820116820180604052508101906115d9919061428e565b915050600073__$90f1fa1b3f91137ac60e95891d324fdd69$__63da4b8a4c4285600760009054906101000a900460ff166040518463ffffffff1660e01b815260040161162893929190614bdf565b60206040518083038186803b15801561164057600080fd5b505af4158015611654573d6000803e3d6000fd5b505050506040513d601f19601f820116820180604052508101906116789190614196565b90506000821480156116fb5750600160038111156116bf577f4e487b7100000000000000000000000000000000000000000000000000000000600052602160045260246000fd5b8160038111156116f8577f4e487b7100000000000000000000000000000000000000000000000000000000600052602160045260246000fd5b14155b1561173e5760066040517fede8a59900000000000000000000000000000000000000000000000000000000815260040161173591906147a8565b60405180910390fd5b60008873ffffffffffffffffffffffffffffffffffffffff166355a1ac2e87866040518363ffffffff1660e01b815260040161177b9291906146ea565b604080518083038186803b15801561179257600080fd5b505afa1580156117a6573d6000803e3d6000fd5b505050506040513d601f19601f820116820180604052508101906117ca919061428e565b91505060006117e48260055461328190919063ffffffff16565b90508086111561182c5760086040517fede8a59900000000000000000000000000000000000000000000000000000000815260040161182391906147a8565b60405180910390fd5b50505050505050505050565b600160000160008373ffffffffffffffffffffffffffffffffffffffff1673ffffffffffffffffffffffffffffffffffffffff16815260200190815260200160002060020160009054906101000a900460ff166118cd5760016040517fede8a5990000000000000000000000000000000000000000000000000000000081526004016118c491906147a8565b60405180910390fd5b600973__$362cfe25f3e11228b53aea52cf811ef65a$__634b4294ab909143856040518463ffffffff1660e01b815260040161190b93929190614a78565b60006040518083038186803b15801561192357600080fd5b505af4158015611937573d6000803e3d6000fd5b50505050600973__$362cfe25f3e11228b53aea52cf811ef65a$__63c000a298909184846040518463ffffffff1660e01b815260040161197993929190614a41565b60006040518083038186803b15801561199157600080fd5b505af41580156119a5573d6000803e3d6000fd5b505050505050565b6119b682611354565b6119c7816119c2612f86565b612f8e565b6119d183836132aa565b505050565b6119e28484848461302b565b600973__$362cfe25f3e11228b53aea52cf811ef65a$__6331277d74909143876040518463ffffffff1660e01b8152600401611a2093929190614a78565b60006040518083038186803b158015611a3857600080fd5b505af4158015611a4c573d6000803e3d6000fd5b50505050600973__$362cfe25f3e11228b53aea52cf811ef65a$__63ff7e0bf6909186866040518463ffffffff1660e01b8152600401611a8e93929190614a41565b60006040518083038186803b158015611aa657600080fd5b505af4158015611aba573d6000803e3d6000fd5b5050505050505050565b611acc612f86565b73ffffffffffffffffffffffffffffffffffffffff168173ffffffffffffffffffffffffffffffffffffffff1614611b39576040517f08c379a0000000000000000000000000000000000000000000000000000000008152600401611b309061482e565b60405180910390fd5b611b43828261338a565b5050565b6000801b611b5c81611b57612f86565b612f8e565b6000600160000160008873ffffffffffffffffffffffffffffffffffffffff1673ffffffffffffffffffffffffffffffffffffffff16815260200190815260200160002090508060020160009054906101000a900460ff1615611bf75760026040517fede8a599000000000000000000000000000000000000000000000000000000008152600401611bee91906147a8565b60405180910390fd5b3073ffffffffffffffffffffffffffffffffffffffff168773ffffffffffffffffffffffffffffffffffffffff1663b72ddee96040518163ffffffff1660e01b815260040160206040518083038186803b158015611c5457600080fd5b505afa158015611c68573d6000803e3d6000fd5b505050506040513d601f19601f82011682018060405250810190611c8c919061416d565b73ffffffffffffffffffffffffffffffffffffffff1614611ce55760076040517fede8a599000000000000000000000000000000000000000000000000000000008152600401611cdc91906147a8565b60405180910390fd5b60018160020160006101000a81548160ff02191690831515021790555085816003018190555084816000019080519060200190611d23929190613818565b5083816001019080519060200190611d3c929190613818565b50828160040160006101000a81548160ff021916908360ff1602179055506008879080600181540180825580915050600190039060005260206000200160009091909190916101000a81548173ffffffffffffffffffffffffffffffffffffffff021916908373ffffffffffffffffffffffffffffffffffffffff1602179055507fcf583bb0c569eb967f806b11601c4cb93c10310485c67add5f8362c2f212321f87604051611dec9190614693565b60405180910390a150505050505050565b600080600c60009054906101000a900473ffffffffffffffffffffffffffffffffffffffff1673ffffffffffffffffffffffffffffffffffffffff16632aedd0eb8673ffffffffffffffffffffffffffffffffffffffff166391f3e4726040518163ffffffff1660e01b815260040160006040518083038186803b158015611e8457600080fd5b505afa158015611e98573d6000803e3d6000fd5b505050506040513d6000823e3d601f19601f82011682018060405250810190611ec191906141bf565b6040518263ffffffff1660e01b8152600401611edd91906147ec565b60206040518083038186803b158015611ef557600080fd5b505afa158015611f09573d6000803e3d6000fd5b505050506040513d601f19601f82011682018060405250810190611f2d9190614229565b90506000600c60009054906101000a900473ffffffffffffffffffffffffffffffffffffffff1673ffffffffffffffffffffffffffffffffffffffff16632aedd0eb8673ffffffffffffffffffffffffffffffffffffffff166391f3e4726040518163ffffffff1660e01b815260040160006040518083038186803b158015611fb557600080fd5b505afa158015611fc9573d6000803e3d6000fd5b505050506040513d6000823e3d601f19601f82011682018060405250810190611ff291906141bf565b6040518263ffffffff1660e01b815260040161200e91906147ec565b60206040518083038186803b15801561202657600080fd5b505afa15801561203a573d6000803e3d6000fd5b505050506040513d601f19601f8201168201806040525081019061205e9190614229565b905060006120bf8584600160000160008b73ffffffffffffffffffffffffffffffffffffffff1673ffffffffffffffffffffffffffffffffffffffff16815260200190815260200160002060040160009054906101000a900460ff1661346b565b905060006121208284600160000160008b73ffffffffffffffffffffffffffffffffffffffff1673ffffffffffffffffffffffffffffffffffffffff16815260200190815260200160002060040160009054906101000a900460ff166134ca565b90506121376006548261328190919063ffffffff16565b9450505050509392505050565b6000600167ffffffffffffffff811115612187577f4e487b7100000000000000000000000000000000000000000000000000000000600052604160045260246000fd5b6040519080825280602002602001820160405280156121b55781602001602082028036833780820191505090505b50905082816000815181106121f3577f4e487b7100000000000000000000000000000000000000000000000000000000600052603260045260246000fd5b602002602001019073ffffffffffffffffffffffffffffffffffffffff16908173ffffffffffffffffffffffffffffffffffffffff1681525050600973__$362cfe25f3e11228b53aea52cf811ef65a$__633d00bbe59091436001600001858760018060016040518963ffffffff1660e01b815260040161227b989796959493929190614af4565b60006040518083038186803b15801561229357600080fd5b505af41580156122a7573d6000803e3d6000fd5b50505050505050565b6000801b6122c5816122c0612f86565b612f8e565b81600c60006101000a81548173ffffffffffffffffffffffffffffffffffffffff021916908373ffffffffffffffffffffffffffffffffffffffff1602179055507f0e05ae75e8b926552cf6fcd744d19f422561e3ced1e426868730852702dbe418826040516123359190614693565b60405180910390a15050565b600c60009054906101000a900473ffffffffffffffffffffffffffffffffffffffff1681565b6123718282612e2d565b5050565b60065481565b600080600084815260200190815260200160002060000160008373ffffffffffffffffffffffffffffffffffffffff1673ffffffffffffffffffffffffffffffffffffffff16815260200190815260200160002060009054906101000a900460ff16905092915050565b600160000160008373ffffffffffffffffffffffffffffffffffffffff1673ffffffffffffffffffffffffffffffffffffffff16815260200190815260200160002060020160009054906101000a900460ff1661247a5760016040517fede8a59900000000000000000000000000000000000000000000000000000000815260040161247191906147a8565b60405180910390fd5b600973__$362cfe25f3e11228b53aea52cf811ef65a$__639efef244909143856040518463ffffffff1660e01b81526004016124b893929190614a78565b60006040518083038186803b1580156124d057600080fd5b505af41580156124e4573d6000803e3d6000fd5b50505050600973__$362cfe25f3e11228b53aea52cf811ef65a$__63b5467bc8909184846040518463ffffffff1660e01b815260040161252693929190614a41565b60006040518083038186803b15801561253e57600080fd5b505af4158015612552573d6000803e3d6000fd5b505050505050565b606060088054806020026020016040519081016040528092919081815260200182805480156125de57602002820191906000526020600020905b8160009054906101000a900473ffffffffffffffffffffffffffffffffffffffff1673ffffffffffffffffffffffffffffffffffffffff1681526020019060010190808311612594575b5050505050905090565b600080600173__$a5e3e26db51d661f8cd2686e868ae9d1a5$__63bde290fb9091600c60009054906101000a900473ffffffffffffffffffffffffffffffffffffffff16878760008060006040518863ffffffff1660e01b815260040161265597969594939291906148f4565b604080518083038186803b15801561266c57600080fd5b505af4158015612680573d6000803e3d6000fd5b505050506040513d601f19601f820116820180604052508101906126a4919061428e565b915091509250929050565b6000801b81565b600160000160008473ffffffffffffffffffffffffffffffffffffffff1673ffffffffffffffffffffffffffffffffffffffff16815260200190815260200160002060020160009054906101000a900460ff1661274b5760016040517fede8a59900000000000000000000000000000000000000000000000000000000815260040161274291906147a8565b60405180910390fd5b612756816002612e2d565b600973__$362cfe25f3e11228b53aea52cf811ef65a$__6331277d74909143866040518463ffffffff1660e01b815260040161279493929190614a78565b60006040518083038186803b1580156127ac57600080fd5b505af41580156127c0573d6000803e3d6000fd5b50505050600973__$362cfe25f3e11228b53aea52cf811ef65a$__63ff7e0bf6909185856040518463ffffffff1660e01b815260040161280293929190614a41565b60006040518083038186803b15801561281a57600080fd5b505af415801561282e573d6000803e3d6000fd5b50505050505050565b6000801b61284c81612847612f86565b612f8e565b816006819055505050565b6128e78160088054806020026020016040519081016040528092919081815260200182805480156128dd57602002820191906000526020600020905b8160009054906101000a900473ffffffffffffffffffffffffffffffffffffffff1673ffffffffffffffffffffffffffffffffffffffff1681526020019060010190808311612893575b5050505050612144565b50565b600881815481106128fa57600080fd5b906000526020600020016000915054906101000a900473ffffffffffffffffffffffffffffffffffffffff1681565b6000801b61293e81612939612f86565b612f8e565b6000600160000160008573ffffffffffffffffffffffffffffffffffffffff1673ffffffffffffffffffffffffffffffffffffffff1681526020019081526020016000209050600015158160020160009054906101000a900460ff16151514156129e05760016040517fede8a5990000000000000000000000000000000000000000000000000000000081526004016129d791906147a8565b60405180910390fd5b60011515600973__$362cfe25f3e11228b53aea52cf811ef65a$__6353962db490914388886040518563ffffffff1660e01b8152600401612a249493929190614aaf565b60206040518083038186803b158015612a3c57600080fd5b505af4158015612a50573d6000803e3d6000fd5b505050506040513d601f19601f82011682018060405250810190612a7491906140b6565b15151415612ab6577fdbe1acf0f191a9aecba27ad74b59bb70426fe3f6129596f53b0f03a230c083238484604051612aad9291906146ea565b60405180910390a15b50505050565b60098060000160009054906101000a900473ffffffffffffffffffffffffffffffffffffffff16905081565b612af182611354565b612b0281612afd612f86565b612f8e565b612b0c838361338a565b505050565b60008060001b612b2881612b23612f86565b612f8e565b600160000160008573ffffffffffffffffffffffffffffffffffffffff1673ffffffffffffffffffffffffffffffffffffffff16815260200190815260200160002060020160009054906101000a900460ff16612bbd5760016040517fede8a599000000000000000000000000000000000000000000000000000000008152600401612bb491906147a8565b60405180910390fd5b826001800160008673ffffffffffffffffffffffffffffffffffffffff1673ffffffffffffffffffffffffffffffffffffffff16815260200190815260200160002060006101000a81548160ff0219169083151502179055507f71aec636243f9709bb0007ae15e9afb8150ab01716d75fd7573be5cc096e03b08484604051612c479291906146ae565b60405180910390a18291505092915050565b8173ffffffffffffffffffffffffffffffffffffffff168173ffffffffffffffffffffffffffffffffffffffff161415612ccb57600d6040517fede8a599000000000000000000000000000000000000000000000000000000008152600401612cc291906147a8565b60405180910390fd5b600160000160008573ffffffffffffffffffffffffffffffffffffffff1673ffffffffffffffffffffffffffffffffffffffff16815260200190815260200160002060020160009054906101000a900460ff161580612d7a5750600160000160008473ffffffffffffffffffffffffffffffffffffffff1673ffffffffffffffffffffffffffffffffffffffff16815260200190815260200160002060020160009054906101000a900460ff16155b15612dbd5760016040517fede8a599000000000000000000000000000000000000000000000000000000008152600401612db491906147a8565b60405180910390fd5b50505050565b60007f01ffc9a7000000000000000000000000000000000000000000000000000000007bffffffffffffffffffffffffffffffffffffffffffffffffffffffff1916827bffffffffffffffffffffffffffffffffffffffffffffffffffffffff1916149050919050565b600073__$90f1fa1b3f91137ac60e95891d324fdd69$__63da4b8a4c4285600760009054906101000a900460ff166040518463ffffffff1660e01b8152600401612e7993929190614bdf565b60206040518083038186803b158015612e9157600080fd5b505af4158015612ea5573d6000803e3d6000fd5b505050506040513d601f19601f82011682018060405250810190612ec99190614196565b9050816003811115612f04577f4e487b7100000000000000000000000000000000000000000000000000000000600052602160045260246000fd5b816003811115612f3d577f4e487b7100000000000000000000000000000000000000000000000000000000600052602160045260246000fd5b14612f815780826040517f34e2603a000000000000000000000000000000000000000000000000000000008152600401612f789291906147c3565b60405180910390fd5b505050565b600033905090565b612f98828261237b565b61302757612fbd8173ffffffffffffffffffffffffffffffffffffffff16601461351e565b612fcb8360001c602061351e565b604051602001612fdc929190614659565b6040516020818303038152906040526040517f08c379a000000000000000000000000000000000000000000000000000000000815260040161301e91906147ec565b60405180910390fd5b5050565b600160000160008573ffffffffffffffffffffffffffffffffffffffff1673ffffffffffffffffffffffffffffffffffffffff16815260200190815260200160002060020160009054906101000a900460ff166130c05760016040517fede8a5990000000000000000000000000000000000000000000000000000000081526004016130b791906147a8565b60405180910390fd5b6130cb816001612e2d565b600160000160008573ffffffffffffffffffffffffffffffffffffffff1673ffffffffffffffffffffffffffffffffffffffff16815260200190815260200160002060050160008473ffffffffffffffffffffffffffffffffffffffff1673ffffffffffffffffffffffffffffffffffffffff168152602001908152602001600020600082815260200190815260200160002060009054906101000a900460ff166131755761327b565b6000600173__$a5e3e26db51d661f8cd2686e868ae9d1a5$__63bde290fb9091600c60009054906101000a900473ffffffffffffffffffffffffffffffffffffffff1687868a8960006040518863ffffffff1660e01b81526004016131e097969594939291906149d2565b604080518083038186803b1580156131f757600080fd5b505af415801561320b573d6000803e3d6000fd5b505050506040513d601f19601f8201168201806040525081019061322f919061428e565b91505060008111156132795760056040517fede8a59900000000000000000000000000000000000000000000000000000000815260040161327091906147a8565b60405180910390fd5b505b50505050565b6000670de0b6b3a764000082846132989190614faa565b6132a29190614e08565b905092915050565b6132b4828261237b565b61338657600160008084815260200190815260200160002060000160008373ffffffffffffffffffffffffffffffffffffffff1673ffffffffffffffffffffffffffffffffffffffff16815260200190815260200160002060006101000a81548160ff02191690831515021790555061332b612f86565b73ffffffffffffffffffffffffffffffffffffffff168173ffffffffffffffffffffffffffffffffffffffff16837f2f8788117e7eff1d82e926ec794901d17c78024a50270940304540a733656f0d60405160405180910390a45b5050565b613394828261237b565b1561346757600080600084815260200190815260200160002060000160008373ffffffffffffffffffffffffffffffffffffffff1673ffffffffffffffffffffffffffffffffffffffff16815260200190815260200160002060006101000a81548160ff02191690831515021790555061340c612f86565b73ffffffffffffffffffffffffffffffffffffffff168173ffffffffffffffffffffffffffffffffffffffff16837ff6391f5c32d9c69d2a47ea670b442974b53935d1edc7fd64eb21e047a839171b60405160405180910390a45b5050565b60008082600a61347b9190614e8c565b9050600081670de0b6b3a7640000876134949190614faa565b61349e9190614e08565b9050670de0b6b3a764000085826134b59190614faa565b6134bf9190614e08565b925050509392505050565b6000670de0b6b3a764000082600a6134e29190614e8c565b84670de0b6b3a7640000876134f79190614faa565b6135019190614e08565b61350b9190614faa565b6135159190614e08565b90509392505050565b6060600060028360026135319190614faa565b61353b9190614db2565b67ffffffffffffffff81111561357a577f4e487b7100000000000000000000000000000000000000000000000000000000600052604160045260246000fd5b6040519080825280601f01601f1916602001820160405280156135ac5781602001600182028036833780820191505090505b5090507f30000000000000000000000000000000000000000000000000000000000000008160008151811061360a577f4e487b7100000000000000000000000000000000000000000000000000000000600052603260045260246000fd5b60200101907effffffffffffffffffffffffffffffffffffffffffffffffffffffffffffff1916908160001a9053507f780000000000000000000000000000000000000000000000000000000000000081600181518110613694577f4e487b7100000000000000000000000000000000000000000000000000000000600052603260045260246000fd5b60200101907effffffffffffffffffffffffffffffffffffffffffffffffffffffffffffff1916908160001a905350600060018460026136d49190614faa565b6136de9190614db2565b90505b60018111156137ca577f3031323334353637383961626364656600000000000000000000000000000000600f861660108110613746577f4e487b7100000000000000000000000000000000000000000000000000000000600052603260045260246000fd5b1a60f81b828281518110613783577f4e487b7100000000000000000000000000000000000000000000000000000000600052603260045260246000fd5b60200101907effffffffffffffffffffffffffffffffffffffffffffffffffffffffffffff1916908160001a905350600485901c9450806137c390615163565b90506136e1565b506000841461380e576040517f08c379a00000000000000000000000000000000000000000000000000000000081526004016138059061480e565b60405180910390fd5b8091505092915050565b8280546138249061518d565b90600052602060002090601f016020900481019282613846576000855561388d565b82601f1061385f57805160ff191683800117855561388d565b8280016001018555821561388d579182015b8281111561388c578251825591602001919060010190613871565b5b50905061389a919061389e565b5090565b5b808211156138b757600081600090555060010161389f565b5090565b60006138ce6138c984614c7f565b614c5a565b905080838252602082019050828560208602820111156138ed57600080fd5b60005b8581101561391d57816139038882613a0f565b8452602084019350602083019250506001810190506138f0565b5050509392505050565b600061393a61393584614cab565b614c5a565b9050808382526020820190508285602086028201111561395957600080fd5b60005b85811015613989578161396f8882613c08565b84526020840193506020830192505060018101905061395c565b5050509392505050565b60006139a66139a184614cd7565b614c5a565b9050828152602081018484840111156139be57600080fd5b6139c9848285615121565b509392505050565b60006139e46139df84614cd7565b614c5a565b9050828152602081018484840111156139fc57600080fd5b613a07848285615130565b509392505050565b600081359050613a1e8161545d565b92915050565b60008083601f840112613a3657600080fd5b8235905067ffffffffffffffff811115613a4f57600080fd5b602083019150836020820283011115613a6757600080fd5b9250929050565b600082601f830112613a7f57600080fd5b8135613a8f8482602086016138bb565b91505092915050565b60008083601f840112613aaa57600080fd5b8235905067ffffffffffffffff811115613ac357600080fd5b602083019150836020820283011115613adb57600080fd5b9250929050565b600082601f830112613af357600080fd5b8151613b03848260208601613927565b91505092915050565b600081359050613b1b81615474565b92915050565b600081519050613b3081615474565b92915050565b600081359050613b458161548b565b92915050565b600081359050613b5a816154a2565b92915050565b600081519050613b6f816154b9565b92915050565b600081359050613b84816154d0565b92915050565b600081519050613b99816154d0565b92915050565b600082601f830112613bb057600080fd5b8135613bc0848260208601613993565b91505092915050565b600082601f830112613bda57600080fd5b8151613bea8482602086016139d1565b91505092915050565b600081359050613c02816154e0565b92915050565b600081519050613c17816154e0565b92915050565b600081359050613c2c816154f7565b92915050565b600060208284031215613c4457600080fd5b6000613c5284828501613a0f565b91505092915050565b60008060408385031215613c6e57600080fd5b6000613c7c85828601613a0f565b9250506020613c8d85828601613a0f565b9150509250929050565b60008060008060808587031215613cad57600080fd5b6000613cbb87828801613a0f565b9450506020613ccc87828801613a0f565b9350506040613cdd87828801613a0f565b9250506060613cee87828801613a0f565b91505092959194509250565b60008060008060008060c08789031215613d1357600080fd5b6000613d2189828a01613a0f565b9650506020613d3289828a01613a0f565b9550506040613d4389828a01613a0f565b9450506060613d5489828a01613a0f565b9350506080613d6589828a01613bf3565b92505060a0613d7689828a01613bf3565b9150509295509295509295565b600080600060608486031215613d9857600080fd5b6000613da686828701613a0f565b9350506020613db786828701613a0f565b9250506040613dc886828701613bf3565b9150509250925092565b60008060008060808587031215613de857600080fd5b6000613df687828801613a0f565b9450506020613e0787828801613a0f565b9350506040613e1887828801613bf3565b9250506060613e2987828801613bf3565b91505092959194509250565b60008060408385031215613e4857600080fd5b6000613e5685828601613a0f565b925050602083013567ffffffffffffffff811115613e7357600080fd5b613e7f85828601613a6e565b9150509250929050565b60008060408385031215613e9c57600080fd5b6000613eaa85828601613a0f565b9250506020613ebb85828601613b0c565b9150509250929050565b60008060408385031215613ed857600080fd5b6000613ee685828601613a0f565b9250506020613ef785828601613bf3565b9150509250929050565b600080600080600060a08688031215613f1957600080fd5b6000613f2788828901613a0f565b9550506020613f3888828901613bf3565b945050604086013567ffffffffffffffff811115613f5557600080fd5b613f6188828901613b9f565b935050606086013567ffffffffffffffff811115613f7e57600080fd5b613f8a88828901613b9f565b9250506080613f9b88828901613c1d565b9150509295509295909350565b60008060008060408587031215613fbe57600080fd5b600085013567ffffffffffffffff811115613fd857600080fd5b613fe487828801613a24565b9450945050602085013567ffffffffffffffff81111561400357600080fd5b61400f87828801613a98565b925092505092959194509250565b60008060006040848603121561403257600080fd5b600084013567ffffffffffffffff81111561404c57600080fd5b61405886828701613a24565b9350935050602061406b86828701613bf3565b9150509250925092565b60006020828403121561408757600080fd5b600082015167ffffffffffffffff8111156140a157600080fd5b6140ad84828501613ae2565b91505092915050565b6000602082840312156140c857600080fd5b60006140d684828501613b21565b91505092915050565b6000602082840312156140f157600080fd5b60006140ff84828501613b36565b91505092915050565b6000806040838503121561411b57600080fd5b600061412985828601613b36565b925050602061413a85828601613a0f565b9150509250929050565b60006020828403121561415657600080fd5b600061416484828501613b4b565b91505092915050565b60006020828403121561417f57600080fd5b600061418d84828501613b60565b91505092915050565b6000602082840312156141a857600080fd5b60006141b684828501613b8a565b91505092915050565b6000602082840312156141d157600080fd5b600082015167ffffffffffffffff8111156141eb57600080fd5b6141f784828501613bc9565b91505092915050565b60006020828403121561421257600080fd5b600061422084828501613bf3565b91505092915050565b60006020828403121561423b57600080fd5b600061424984828501613c08565b91505092915050565b6000806040838503121561426557600080fd5b600061427385828601613bf3565b925050602061428485828601613b75565b9150509250929050565b600080604083850312156142a157600080fd5b60006142af85828601613c08565b92505060206142c085828601613c08565b9150509250929050565b60006142d68383614312565b60208301905092915050565b60006142ee838361433f565b60208301905092915050565b6000614306838361460e565b60208301905092915050565b61431b81615004565b82525050565b61432a81615004565b82525050565b61433981615004565b82525050565b61434881615004565b82525050565b600061435982614d28565b6143638185614d63565b935061436e83614d08565b8060005b8381101561439f57815161438688826142ca565b975061439183614d49565b925050600181019050614372565b5085935050505092915050565b60006143b782614d28565b6143c18185614d74565b93506143cc83614d08565b8060005b838110156143fd5781516143e488826142e2565b97506143ef83614d49565b9250506001810190506143d0565b5085935050505092915050565b600061441582614d33565b61441f8185614d85565b935061442a83614d18565b8060005b8381101561445b57815161444288826142fa565b975061444d83614d56565b92505060018101905061442e565b5085935050505092915050565b61447181615016565b82525050565b61448081615016565b82525050565b61448f81615022565b82525050565b61449e816150c7565b82525050565b6144ad816150c7565b82525050565b6144bc816150eb565b82525050565b6144cb816150fd565b82525050565b8082525050565b6144e18161510f565b82525050565b60006144f282614d3e565b6144fc8185614d96565b935061450c818560208601615130565b61451581615324565b840191505092915050565b600061452b82614d3e565b6145358185614da7565b9350614545818560208601615130565b80840191505092915050565b600061455e602083614d96565b915061456982615342565b602082019050919050565b6000614581600683614d96565b915061458c8261536b565b602082019050919050565b60006145a4601783614da7565b91506145af82615394565b601782019050919050565b60006145c7601183614da7565b91506145d2826153bd565b601182019050919050565b60006145ea602f83614d96565b91506145f5826153e6565b604082019050919050565b8082525050565b8082525050565b614617816150b0565b82525050565b614626816150b0565b82525050565b614635816150b0565b82525050565b614644816150ba565b82525050565b614653816150ba565b82525050565b600061466482614597565b91506146708285614520565b915061467b826145ba565b91506146878284614520565b91508190509392505050565b60006020820190506146a86000830184614321565b92915050565b60006060820190506146c36000830185614321565b81810360208301526146d481614574565b90506146e36040830184614468565b9392505050565b60006040820190506146ff6000830185614321565b61470c602083018461461d565b9392505050565b6000602082019050818103600083015261472d818461434e565b905092915050565b6000602082019050818103600083015261474f818461440a565b905092915050565b600060208201905061476c6000830184614468565b92915050565b60006020820190506147876000830184614486565b92915050565b60006020820190506147a26000830184614495565b92915050565b60006020820190506147bd60008301846144b3565b92915050565b60006040820190506147d860008301856144c2565b6147e560208301846144c2565b9392505050565b6000602082019050818103600083015261480681846144e7565b905092915050565b6000602082019050818103600083015261482781614551565b9050919050565b60006020820190508181036000830152614847816145dd565b9050919050565b60006080820190506148636000830187614600565b6148706020830186614330565b61487d6040830185614330565b61488a606083018461462c565b95945050505050565b600060c0820190506148a86000830189614600565b6148b560208301886144a4565b6148c26040830187614330565b6148cf6060830186614330565b6148dc608083018561462c565b6148e960a083018461462c565b979650505050505050565b600060e082019050614909600083018a614600565b61491660208301896144a4565b6149236040830188614330565b614930606083018761462c565b61493d6080830186614330565b61494a60a08301856144d8565b61495760c08301846144d8565b98975050505050505050565b600060e082019050614978600083018a614600565b61498560208301896144a4565b6149926040830188614330565b61499f606083018761462c565b6149ac6080830186614330565b6149b960a08301856144d8565b6149c660c083018461462c565b98975050505050505050565b600060e0820190506149e7600083018a614600565b6149f460208301896144a4565b614a016040830188614330565b614a0e606083018761462c565b614a1b6080830186614330565b614a2860a083018561462c565b614a3560c08301846144d8565b98975050505050505050565b6000606082019050614a566000830186614607565b614a636020830185614330565b614a706040830184614330565b949350505050565b6000606082019050614a8d6000830186614607565b614a9a602083018561462c565b614aa76040830184614330565b949350505050565b6000608082019050614ac46000830187614607565b614ad1602083018661462c565b614ade6040830185614330565b614aeb606083018461462c565b95945050505050565b600061010082019050614b0a600083018b614607565b614b17602083018a61462c565b614b2460408301896144d1565b8181036060830152614b3681886143ac565b90508181036080830152614b4a81876143ac565b9050614b5960a0830186614477565b614b6660c0830185614477565b614b7360e0830184614477565b9998505050505050505050565b6000602082019050614b95600083018461462c565b92915050565b6000602082019050614bb0600083018461461d565b92915050565b6000604082019050614bcb600083018561461d565b614bd8602083018461461d565b9392505050565b6000606082019050614bf4600083018661462c565b614c01602083018561462c565b614c0e604083018461464a565b949350505050565b6000604082019050614c2b600083018561462c565b614c38602083018461464a565b9392505050565b6000602082019050614c54600083018461463b565b92915050565b6000614c64614c75565b9050614c7082826151bf565b919050565b6000604051905090565b600067ffffffffffffffff821115614c9a57614c996152f5565b5b602082029050602081019050919050565b600067ffffffffffffffff821115614cc657614cc56152f5565b5b602082029050602081019050919050565b600067ffffffffffffffff821115614cf257614cf16152f5565b5b614cfb82615324565b9050602081019050919050565b6000819050602082019050919050565b6000819050602082019050919050565b600081519050919050565b600081519050919050565b600081519050919050565b6000602082019050919050565b6000602082019050919050565b600082825260208201905092915050565b600082825260208201905092915050565b600082825260208201905092915050565b600082825260208201905092915050565b600081905092915050565b6000614dbd826150b0565b9150614dc8836150b0565b9250827fffffffffffffffffffffffffffffffffffffffffffffffffffffffffffffffff03821115614dfd57614dfc615239565b5b828201905092915050565b6000614e13826150b0565b9150614e1e836150b0565b925082614e2e57614e2d615268565b5b828204905092915050565b6000808291508390505b6001851115614e8357808604811115614e5f57614e5e615239565b5b6001851615614e6e5780820291505b8081029050614e7c85615335565b9450614e43565b94509492505050565b6000614e97826150b0565b9150614ea2836150ba565b9250614ecf7fffffffffffffffffffffffffffffffffffffffffffffffffffffffffffffffff8484614ed7565b905092915050565b600082614ee75760019050614fa3565b81614ef55760009050614fa3565b8160018114614f0b5760028114614f1557614f44565b6001915050614fa3565b60ff841115614f2757614f26615239565b5b8360020a915084821115614f3e57614f3d615239565b5b50614fa3565b5060208310610133831016604e8410600b8410161715614f795782820a905083811115614f7457614f73615239565b5b614fa3565b614f868484846001614e39565b92509050818404811115614f9d57614f9c615239565b5b81810290505b9392505050565b6000614fb5826150b0565b9150614fc0836150b0565b9250817fffffffffffffffffffffffffffffffffffffffffffffffffffffffffffffffff0483118215151615614ff957614ff8615239565b5b828202905092915050565b600061500f82615090565b9050919050565b60008115159050919050565b6000819050919050565b60007fffffffff0000000000000000000000000000000000000000000000000000000082169050919050565b600061506382615004565b9050919050565b600081905061507882615435565b919050565b600081905061508b82615449565b919050565b600073ffffffffffffffffffffffffffffffffffffffff82169050919050565b6000819050919050565b600060ff82169050919050565b60006150d2826150d9565b9050919050565b60006150e482615090565b9050919050565b60006150f68261506a565b9050919050565b60006151088261507d565b9050919050565b600061511a826150b0565b9050919050565b82818337600083830152505050565b60005b8381101561514e578082015181840152602081019050615133565b8381111561515d576000848401525b50505050565b600061516e826150b0565b9150600082141561518257615181615239565b5b600182039050919050565b600060028204905060018216806151a557607f821691505b602082108114156151b9576151b86152c6565b5b50919050565b6151c882615324565b810181811067ffffffffffffffff821117156151e7576151e66152f5565b5b80604052505050565b60006151fb826150b0565b91507fffffffffffffffffffffffffffffffffffffffffffffffffffffffffffffffff82141561522e5761522d615239565b5b600182019050919050565b7f4e487b7100000000000000000000000000000000000000000000000000000000600052601160045260246000fd5b7f4e487b7100000000000000000000000000000000000000000000000000000000600052601260045260246000fd5b7f4e487b7100000000000000000000000000000000000000000000000000000000600052602160045260246000fd5b7f4e487b7100000000000000000000000000000000000000000000000000000000600052602260045260246000fd5b7f4e487b7100000000000000000000000000000000000000000000000000000000600052604160045260246000fd5b6000601f19601f8301169050919050565b60008160011c9050919050565b7f537472696e67733a20686578206c656e67746820696e73756666696369656e74600082015250565b7f426f72726f770000000000000000000000000000000000000000000000000000600082015250565b7f416363657373436f6e74726f6c3a206163636f756e7420000000000000000000600082015250565b7f206973206d697373696e6720726f6c6520000000000000000000000000000000600082015250565b7f416363657373436f6e74726f6c3a2063616e206f6e6c792072656e6f756e636560008201527f20726f6c657320666f722073656c660000000000000000000000000000000000602082015250565b6018811061544657615445615297565b5b50565b6004811061545a57615459615297565b5b50565b61546681615004565b811461547157600080fd5b50565b61547d81615016565b811461548857600080fd5b50565b61549481615022565b811461549f57600080fd5b50565b6154ab8161502c565b81146154b657600080fd5b50565b6154c281615058565b81146154cd57600080fd5b50565b600481106154dd57600080fd5b50565b6154e9816150b0565b81146154f457600080fd5b50565b615500816150ba565b811461550b57600080fd5b5056fea2646970667358221220288870d477f97431f54fd8722d8ca6f5646a8093d016f43913cba9b312f9741b64736f6c63430008040033",
  "libraries": {
    "TSUtils": "0xf6780c6eCFbF39CE58ac293dC2F00da27c91df4E",
    "DecimalMath": "0x687Daa40FEc9A0Bad9a4153787cd1F295f4abc33",
    "ExaLib": "0xDD82cCC242A1F88EC2c02b0986E15E71897B7fc7",
    "MarketsLib": "0x5F5A5531CF864FA2BB97A7d455E0850d8ea27922"
  },
  "devdoc": {
    "events": {
      "ActionPaused(address,string,bool)": {
        "params": {
          "action": "string describing the action that has been paused/re-enabled",
          "fixedLender": "address of the market that a certain feature has been paused/re-enabled",
          "paused": "boolean describing if the action has been paused or re-enabled"
        }
      },
      "DistributedBorrowerExa(address,address,uint256,uint256)": {
        "params": {
          "borrower": "address of the borrower that have received rewards in a given fixedLender space",
          "borrowerDelta": "delta blocks that have been processed",
          "exaSupplyIndex": "index of the given market that was used to update user rewards ",
          "fixedLender": "address of the fixed lender market in which a user has received rewards"
        }
      },
      "DistributedSmartPoolExa(address,address,uint256,uint256)": {
        "params": {
          "fixedLender": "address of the fixed lender market in which a user has received rewards",
          "smartPoolIndex": "index of the given market that was used to update user rewards ",
          "smartSupplierDelta": "delta blocks that have been processed",
          "supplier": "address of the supplier that have received rewards in a given lender space"
        }
      },
      "DistributedSupplierExa(address,address,uint256,uint256)": {
        "params": {
          "exaSupplyIndex": "index of the given market that was used to update user rewards ",
          "fixedLender": "address of the fixed lender market in which a user has received rewards",
          "supplier": "address of the supplier that have received rewards in a given lender space",
          "supplierDelta": "delta blocks that have been processed"
        }
      },
      "ExaSpeedUpdated(address,uint256)": {
        "params": {
          "fixedLenderAddress": "address of the lender that has a new borrow cap",
          "newSpeed": "new borrow cap expressed with 1e18 precision for the given market."
        }
      },
      "MarketEntered(address,address,uint256)": {
        "params": {
          "account": "address of the user that just entered a market",
          "fixedLender": "address of the market that the user entered",
          "maturityDate": "dateID/poolID/maturity that the user just entered"
        }
      },
      "MarketExited(address,address,uint256)": {
        "params": {
          "account": "address of the user that just left a market",
          "fixedLender": "address of the market that the user just left",
          "maturityDate": "dateID/poolID/maturity that the user just left"
        }
      },
      "MarketListed(address)": {
        "params": {
          "fixedLender": "address of the fixedLender market that it was listed"
        }
      },
      "NewBorrowCap(address,uint256)": {
        "params": {
          "fixedLender": "address of the lender that has a new borrow cap",
          "newBorrowCap": "new borrow cap expressed with 1e18 precision for the given market.                     0 = means no cap"
        }
      },
      "OracleChanged(address)": {
        "params": {
          "newOracle": "address of the new oracle that is used to calculate liquidity"
        }
      }
    },
    "kind": "dev",
    "methods": {
      "beforeSupplySmartPool(address,address)": {
        "details": "Hook function to be called before someone supplies money to the smart pool      This function basically checks if the address of the fixed Lender market is       valid and makes sure to accrue EXA tokens to the market and the user.",
        "params": {
          "fixedLenderAddress": "address of the fixed lender that will receive money in                           it's smart pool",
          "supplier": "address of the user that will supply money to the smart pool"
        }
      },
      "beforeWithdrawSmartPool(address,address)": {
        "details": "Hook function to be called before someone withdraws money from the smart pool      This function basically checks if the address of the fixed Lender market is       valid and makes sure to accrue EXA tokens to the market and the user.",
        "params": {
          "fixedLenderAddress": "address of the fixed lender that will receive money in                           it's smart pool",
          "supplier": "address of the user that will withdraw money from the smart pool"
        }
      },
      "borrowAllowed(address,address,uint256,uint256)": {
        "details": "Hook function to be called before someone borrows money to a market/maturity.      This function verifies if market is valid, maturity is valid, checks if the user has enough collateral      and accrues rewards accordingly. ",
        "params": {
          "borrowAmount": "amount that will be lent out to the borrower (expressed with same precision as underlying)",
          "borrower": "address of the user that will borrow money from a maturity date",
          "fixedLenderAddress": "address of the fixedLender that will lend money in a maturity",
          "maturityDate": "timestamp for the maturity date that the user wants to borrow money. It should                     be in a VALID state (meaning that is not in the distant future, nor matured)"
        }
      },
      "claimExa(address,address[])": {
        "params": {
          "fixedLenders": "The list of markets to claim EXA in",
          "holder": "The address to claim EXA for"
        }
      },
      "claimExaAll(address)": {
        "params": {
          "holder": "The address to claim EXA for"
        }
      },
      "enableMarket(address,uint256,string,string,uint8)": {
        "details": "Function to enable a certain FixedLender market to be used as collateral",
        "params": {
          "collateralFactor": "fixedLender's collateral factor for the underlying asset",
          "fixedLender": "address to add to the protocol"
        }
      },
      "enterMarkets(address[],uint256)": {
        "details": "Allows wallet to enter certain markets (fixedLenderDAI, fixedLenderETH, etc)      By performing this action, the wallet's money could be used as collateral",
        "params": {
          "fixedLenders": "contracts addresses to enable for `msg.sender` for a certain maturity",
          "maturityDate": "poolID in which the fixedLenders will be enabled"
        }
      },
      "exitMarket(address,uint256)": {
        "details": "Sender must not have an outstanding borrow balance in the asset,      or be providing necessary collateral for an outstanding borrow.",
        "params": {
          "fixedLenderAddress": "The address of the asset to be removed",
          "maturityDate": "The timestamp/poolID where the user wants to stop providing collateral"
        }
      },
      "getAccountLiquidity(address,uint256)": {
        "details": "Function to get account's liquidity for a certain maturity pool",
        "params": {
          "account": "wallet to retrieve liquidity for a certain maturity date",
          "maturityDate": "timestamp to calculate maturity's pool"
        }
      },
      "getFuturePools()": {
        "details": "Function to retrieve valid future pools"
      },
      "getMarketAddresses()": {
        "details": "Function to retrieve all markets"
      },
      "getRoleAdmin(bytes32)": {
        "details": "Returns the admin role that controls `role`. See {grantRole} and {revokeRole}. To change a role's admin, use {_setRoleAdmin}."
      },
      "grantRole(bytes32,address)": {
        "details": "Grants `role` to `account`. If `account` had not been already granted `role`, emits a {RoleGranted} event. Requirements: - the caller must have ``role``'s admin role."
      },
      "hasRole(bytes32,address)": {
        "details": "Returns `true` if `account` has been granted `role`."
      },
      "liquidateAllowed(address,address,address,address,uint256,uint256)": {
        "details": "Function to allow/reject liquidation of assets. This function can be called      externally, but only will have effect when called from a fixedLender.",
        "params": {
          "borrower": "address which the assets are being liquidated",
          "fixedLenderBorrowed": "market from where the debt is pending",
          "fixedLenderCollateral": "market where the assets will be liquidated (should be msg.sender on FixedLender.sol)",
          "liquidator": "address that is liquidating the assets",
          "maturityDate": "maturity where the position has a shortfall in liquidity",
          "repayAmount": "amount to be repaid from the debt (outstanding debt * close factor should be bigger than this value)"
        }
      },
      "liquidateCalculateSeizeAmount(address,address,uint256)": {
        "details": "Function to calculate the amount of assets to be seized      - when a position is undercollaterized it should be repaid and this functions calculates the        amount of collateral to be seized",
        "params": {
          "actualRepayAmount": "repay amount in the borrowed asset",
          "fixedLenderBorrowed": "market from where the debt is pending",
          "fixedLenderCollateral": "market where the assets will be liquidated (should be msg.sender on FixedLender.sol)"
        }
      },
      "pauseBorrow(address,bool)": {
        "details": "Function to pause/unpause borrowing on a certain market",
        "params": {
          "fixedLender": "address to pause",
          "paused": "true/false"
        }
      },
      "redeemAllowed(address,address,uint256,uint256)": {
        "details": "Hook function to be called before someone wants to receive its money back from a market/maturity.      This function verifies if market is valid, maturity is MATURED, checks if the user has no outstanding      debts and accrues rewards accordingly. This function is called from fixedLender contracts.",
        "params": {
          "fixedLenderAddress": "address of the fixedLender that will lend money in a maturity",
          "maturityDate": "timestamp for the maturity date that the user wants to get it's money from. It should                     be in a MATURED state (meaning that the date is VALID + MATURED)",
          "redeemAmount": "amount that the user wants to withdraw from the maturity",
          "redeemer": "address of the user that wants to withdraw it's money"
        }
      },
      "renounceRole(bytes32,address)": {
        "details": "Revokes `role` from the calling account. Roles are often managed via {grantRole} and {revokeRole}: this function's purpose is to provide a mechanism for accounts to lose their privileges if they are compromised (such as when a trusted device is misplaced). If the calling account had been granted `role`, emits a {RoleRevoked} event. Requirements: - the caller must be `account`."
      },
      "repayAllowed(address,address)": {
        "details": "Hook function to be called before someone wants to repay its debt in a market/maturity.      This function verifies if market is valid, maturity is MATURED and accrues rewards accordingly.      This function is called from fixedLender contracts.",
        "params": {
          "borrower": "address of the user that wants to repay its debt",
          "fixedLenderAddress": "address of the fixedLender that will collect money in a maturity"
        }
      },
      "requirePoolState(uint256,uint8)": {
        "details": "Function to verify that a maturityDate is VALID, MATURED, NOT_READY or INVALID.      If expected state doesn't match the calculated one, it reverts with a custom error \"UnmatchedPoolState\".",
        "params": {
          "maturityDate": "timestamp of the maturity date to be verified",
          "requiredState": "state required by the caller to be verified (see TSUtils.State() for description)"
        }
      },
      "revokeRole(bytes32,address)": {
        "details": "Revokes `role` from `account`. If `account` had been granted `role`, emits a {RoleRevoked} event. Requirements: - the caller must have ``role``'s admin role."
      },
      "seizeAllowed(address,address,address,address)": {
        "details": "Function to allow/reject seizing of assets. This function can be called      externally, but only will have effect when called from a fixedLender.",
        "params": {
          "borrower": "address to validate where the assets will be removed",
          "fixedLenderBorrowed": "market from where the debt will be paid",
          "fixedLenderCollateral": "market where the assets will be seized (should be msg.sender on FixedLender.sol)",
          "liquidator": "address to validate where the seized assets will be received"
        }
      },
      "setExaSpeed(address,uint256)": {
        "params": {
          "exaSpeed": "New EXA speed for market",
          "fixedLenderAddress": "The market whose EXA speed to update"
        }
      },
      "setLiquidationIncentive(uint256)": {
        "params": {
          "_liquidationIncentive": "new liquidation incentive. It's a factor, so 15% would be 1.15e18"
        }
      },
      "setMarketBorrowCaps(address[],uint256[])": {
        "params": {
          "fixedLenders": "The addresses of the markets (tokens) to change the borrow caps for",
          "newBorrowCaps": "The new borrow cap values in underlying to be set. A value of 0 corresponds to unlimited borrowing."
        }
      },
      "setOracle(address)": {
        "details": "Function to set Oracle's to be used",
        "params": {
          "_priceOracleAddress": "address of the new oracle"
        }
      },
      "supplyAllowed(address,address,uint256)": {
        "details": "Hook function to be called before someone supplies money to a market/maturity.      This function verifies if market is valid, maturity is valid, and accrues rewards accordingly. ",
        "params": {
          "fixedLenderAddress": "address of the fixedLender that will deposit money in a maturity",
          "maturityDate": "timestamp for the maturity date that the user wants to supply money. It should                     be in a VALID state (meaning that is not in the distant future, nor matured)",
          "supplier": "address of the user that will supply money to a certain maturity (it can be later on                 used as collater with _enterMarkets_ functions)"
        }
      },
      "supportsInterface(bytes4)": {
        "details": "See {IERC165-supportsInterface}."
      }
    },
    "version": 1
  },
  "userdoc": {
    "events": {
      "ActionPaused(address,string,bool)": {
        "notice": "Event emitted when a certain action has been paused by the protocol"
      },
      "DistributedBorrowerExa(address,address,uint256,uint256)": {
        "notice": "Event emitted each time EXA has been distributed to a certain user as a borrower"
      },
      "DistributedSmartPoolExa(address,address,uint256,uint256)": {
        "notice": "Event emitted each time EXA has been distributed to a certain user as a smart pool supplier"
      },
      "DistributedSupplierExa(address,address,uint256,uint256)": {
        "notice": "Event emitted each time EXA has been distributed to a certain user as a supplier"
      },
      "ExaSpeedUpdated(address,uint256)": {
        "notice": "Event emitted when a new ExaSpeed has been set for a given fixedLender.         The speed is the amount of EXA tokens that it will be given to         suppliers/borrowers/lenders on each block. Amount distributed accordingly         to their contributions"
      },
      "MarketEntered(address,address,uint256)": {
        "notice": "Event emitted when a user enters a market to use his deposit as collateral         for a loan. Notice that the market entered is the pair fixedLender/maturityDate"
      },
      "MarketExited(address,address,uint256)": {
        "notice": "Event emitted when a user leaves a market. This means that he would stop using          his deposit as collateral and it won't ask for any loans in this market"
      },
      "MarketListed(address)": {
        "notice": "Event emitted when a new market is listed for borrow/lending"
      },
      "NewBorrowCap(address,uint256)": {
        "notice": "Event emitted when a new borrow cap has been set for a certain fixedLender         If newBorrowCap is 0, that means that there's no cap"
      },
      "OracleChanged(address)": {
        "notice": "Event emitted when a new Oracle has been set"
      }
    },
    "kind": "user",
    "methods": {
      "claimExa(address,address[])": {
        "notice": "Claim all the EXA accrued by holder in the specified markets"
      },
      "claimExaAll(address)": {
        "notice": "Claim all the EXA accrued by holder in all markets"
      },
      "exitMarket(address,uint256)": {
        "notice": "Removes fixedLender from sender's account liquidity calculation"
      },
      "setExaSpeed(address,uint256)": {
        "notice": "Set EXA speed for a single market"
      },
      "setLiquidationIncentive(uint256)": {
        "notice": "Set liquidation incentive for the whole ecosystem"
      },
      "setMarketBorrowCaps(address[],uint256[])": {
        "notice": "Set the given borrow caps for the given fixedLender markets. Borrowing that brings total borrows to or above borrow cap will revert."
      }
    },
    "version": 1
  },
  "storageLayout": {
    "storage": [
      {
        "astId": 24,
        "contract": "contracts/Auditor.sol:Auditor",
        "label": "_roles",
        "offset": 0,
        "slot": "0",
        "type": "t_mapping(t_bytes32,t_struct(RoleData)19_storage)"
      },
      {
        "astId": 3956,
        "contract": "contracts/Auditor.sol:Auditor",
        "label": "book",
        "offset": 0,
        "slot": "1",
        "type": "t_struct(Book)10655_storage"
      },
      {
        "astId": 3959,
        "contract": "contracts/Auditor.sol:Auditor",
        "label": "closeFactor",
        "offset": 0,
        "slot": "5",
        "type": "t_uint256"
      },
      {
        "astId": 3964,
        "contract": "contracts/Auditor.sol:Auditor",
        "label": "liquidationIncentive",
        "offset": 0,
        "slot": "6",
        "type": "t_uint256"
      },
      {
        "astId": 3967,
        "contract": "contracts/Auditor.sol:Auditor",
        "label": "maxFuturePools",
        "offset": 0,
        "slot": "7",
        "type": "t_uint8"
      },
      {
        "astId": 3970,
        "contract": "contracts/Auditor.sol:Auditor",
        "label": "marketsAddresses",
        "offset": 0,
        "slot": "8",
        "type": "t_array(t_address)dyn_storage"
      },
      {
        "astId": 3973,
        "contract": "contracts/Auditor.sol:Auditor",
        "label": "rewardsState",
        "offset": 0,
        "slot": "9",
        "type": "t_struct(RewardsState)9413_storage"
      },
      {
        "astId": 3976,
        "contract": "contracts/Auditor.sol:Auditor",
        "label": "oracle",
        "offset": 0,
        "slot": "12",
        "type": "t_contract(IOracle)9086"
      }
    ],
    "types": {
      "t_address": {
        "encoding": "inplace",
        "label": "address",
        "numberOfBytes": "20"
      },
      "t_array(t_address)dyn_storage": {
        "base": "t_address",
        "encoding": "dynamic_array",
        "label": "address[]",
        "numberOfBytes": "32"
      },
      "t_array(t_contract(IFixedLender)9045)dyn_storage": {
        "base": "t_contract(IFixedLender)9045",
        "encoding": "dynamic_array",
        "label": "contract IFixedLender[]",
        "numberOfBytes": "32"
      },
      "t_bool": {
        "encoding": "inplace",
        "label": "bool",
        "numberOfBytes": "1"
      },
      "t_bytes32": {
        "encoding": "inplace",
        "label": "bytes32",
        "numberOfBytes": "32"
      },
      "t_contract(IFixedLender)9045": {
        "encoding": "inplace",
        "label": "contract IFixedLender",
        "numberOfBytes": "20"
      },
      "t_contract(IOracle)9086": {
        "encoding": "inplace",
        "label": "contract IOracle",
        "numberOfBytes": "20"
      },
      "t_mapping(t_address,t_bool)": {
        "encoding": "mapping",
        "key": "t_address",
        "label": "mapping(address => bool)",
        "numberOfBytes": "32",
        "value": "t_bool"
      },
      "t_mapping(t_address,t_mapping(t_uint256,t_array(t_contract(IFixedLender)9045)dyn_storage))": {
        "encoding": "mapping",
        "key": "t_address",
        "label": "mapping(address => mapping(uint256 => contract IFixedLender[]))",
        "numberOfBytes": "32",
        "value": "t_mapping(t_uint256,t_array(t_contract(IFixedLender)9045)dyn_storage)"
      },
      "t_mapping(t_address,t_mapping(t_uint256,t_bool))": {
        "encoding": "mapping",
        "key": "t_address",
        "label": "mapping(address => mapping(uint256 => bool))",
        "numberOfBytes": "32",
        "value": "t_mapping(t_uint256,t_bool)"
      },
      "t_mapping(t_address,t_struct(ExaState)9401_storage)": {
        "encoding": "mapping",
        "key": "t_address",
        "label": "mapping(address => struct ExaLib.ExaState)",
        "numberOfBytes": "32",
        "value": "t_struct(ExaState)9401_storage"
      },
      "t_mapping(t_address,t_struct(Market)10672_storage)": {
        "encoding": "mapping",
        "key": "t_address",
        "label": "mapping(address => struct MarketsLib.Market)",
        "numberOfBytes": "32",
        "value": "t_struct(Market)10672_storage"
      },
      "t_mapping(t_address,t_uint256)": {
        "encoding": "mapping",
        "key": "t_address",
        "label": "mapping(address => uint256)",
        "numberOfBytes": "32",
        "value": "t_uint256"
      },
      "t_mapping(t_bytes32,t_struct(RoleData)19_storage)": {
        "encoding": "mapping",
        "key": "t_bytes32",
        "label": "mapping(bytes32 => struct AccessControl.RoleData)",
        "numberOfBytes": "32",
        "value": "t_struct(RoleData)19_storage"
      },
      "t_mapping(t_uint256,t_array(t_contract(IFixedLender)9045)dyn_storage)": {
        "encoding": "mapping",
        "key": "t_uint256",
        "label": "mapping(uint256 => contract IFixedLender[])",
        "numberOfBytes": "32",
        "value": "t_array(t_contract(IFixedLender)9045)dyn_storage"
      },
      "t_mapping(t_uint256,t_bool)": {
        "encoding": "mapping",
        "key": "t_uint256",
        "label": "mapping(uint256 => bool)",
        "numberOfBytes": "32",
        "value": "t_bool"
      },
      "t_string_storage": {
        "encoding": "bytes",
        "label": "string",
        "numberOfBytes": "32"
      },
      "t_struct(Book)10655_storage": {
        "encoding": "inplace",
        "label": "struct MarketsLib.Book",
        "members": [
          {
            "astId": 10638,
            "contract": "contracts/Auditor.sol:Auditor",
            "label": "markets",
            "offset": 0,
            "slot": "0",
            "type": "t_mapping(t_address,t_struct(Market)10672_storage)"
          },
          {
            "astId": 10642,
            "contract": "contracts/Auditor.sol:Auditor",
            "label": "borrowPaused",
            "offset": 0,
            "slot": "1",
            "type": "t_mapping(t_address,t_bool)"
          },
          {
            "astId": 10646,
            "contract": "contracts/Auditor.sol:Auditor",
            "label": "borrowCaps",
            "offset": 0,
            "slot": "2",
            "type": "t_mapping(t_address,t_uint256)"
          },
          {
            "astId": 10654,
            "contract": "contracts/Auditor.sol:Auditor",
            "label": "accountAssets",
            "offset": 0,
            "slot": "3",
            "type": "t_mapping(t_address,t_mapping(t_uint256,t_array(t_contract(IFixedLender)9045)dyn_storage))"
          }
        ],
        "numberOfBytes": "128"
      },
      "t_struct(ExaState)9401_storage": {
        "encoding": "inplace",
        "label": "struct ExaLib.ExaState",
        "members": [
          {
            "astId": 9379,
            "contract": "contracts/Auditor.sol:Auditor",
            "label": "exaSpeed",
            "offset": 0,
            "slot": "0",
            "type": "t_uint256"
          },
          {
            "astId": 9382,
            "contract": "contracts/Auditor.sol:Auditor",
            "label": "exaSupplyState",
            "offset": 0,
            "slot": "1",
            "type": "t_struct(MarketRewardsState)9334_storage"
          },
          {
            "astId": 9385,
            "contract": "contracts/Auditor.sol:Auditor",
            "label": "exaBorrowState",
            "offset": 0,
            "slot": "2",
            "type": "t_struct(MarketRewardsState)9334_storage"
          },
          {
            "astId": 9388,
            "contract": "contracts/Auditor.sol:Auditor",
            "label": "exaSmartState",
            "offset": 0,
            "slot": "3",
            "type": "t_struct(MarketRewardsState)9334_storage"
          },
          {
            "astId": 9392,
            "contract": "contracts/Auditor.sol:Auditor",
            "label": "exaSupplierIndex",
            "offset": 0,
            "slot": "4",
            "type": "t_mapping(t_address,t_uint256)"
          },
          {
            "astId": 9396,
            "contract": "contracts/Auditor.sol:Auditor",
            "label": "exaBorrowerIndex",
            "offset": 0,
            "slot": "5",
            "type": "t_mapping(t_address,t_uint256)"
          },
          {
            "astId": 9400,
            "contract": "contracts/Auditor.sol:Auditor",
            "label": "exaSmartSupplierIndex",
            "offset": 0,
            "slot": "6",
            "type": "t_mapping(t_address,t_uint256)"
          }
        ],
        "numberOfBytes": "224"
      },
      "t_struct(Market)10672_storage": {
        "encoding": "inplace",
        "label": "struct MarketsLib.Market",
        "members": [
          {
            "astId": 10657,
            "contract": "contracts/Auditor.sol:Auditor",
            "label": "symbol",
            "offset": 0,
            "slot": "0",
            "type": "t_string_storage"
          },
          {
            "astId": 10659,
            "contract": "contracts/Auditor.sol:Auditor",
            "label": "name",
            "offset": 0,
            "slot": "1",
            "type": "t_string_storage"
          },
          {
            "astId": 10661,
            "contract": "contracts/Auditor.sol:Auditor",
            "label": "isListed",
            "offset": 0,
            "slot": "2",
            "type": "t_bool"
          },
          {
            "astId": 10663,
            "contract": "contracts/Auditor.sol:Auditor",
            "label": "collateralFactor",
            "offset": 0,
            "slot": "3",
            "type": "t_uint256"
          },
          {
            "astId": 10665,
            "contract": "contracts/Auditor.sol:Auditor",
            "label": "decimals",
            "offset": 0,
            "slot": "4",
            "type": "t_uint8"
          },
          {
            "astId": 10671,
            "contract": "contracts/Auditor.sol:Auditor",
            "label": "accountMembership",
            "offset": 0,
            "slot": "5",
            "type": "t_mapping(t_address,t_mapping(t_uint256,t_bool))"
          }
        ],
        "numberOfBytes": "192"
      },
      "t_struct(MarketRewardsState)9334_storage": {
        "encoding": "inplace",
        "label": "struct MarketRewardsState",
        "members": [
          {
            "astId": 9331,
            "contract": "contracts/Auditor.sol:Auditor",
            "label": "index",
            "offset": 0,
            "slot": "0",
            "type": "t_uint224"
          },
          {
            "astId": 9333,
            "contract": "contracts/Auditor.sol:Auditor",
            "label": "block",
            "offset": 28,
            "slot": "0",
            "type": "t_uint32"
          }
        ],
        "numberOfBytes": "32"
      },
      "t_struct(RewardsState)9413_storage": {
        "encoding": "inplace",
        "label": "struct ExaLib.RewardsState",
        "members": [
          {
            "astId": 9403,
            "contract": "contracts/Auditor.sol:Auditor",
            "label": "exaToken",
            "offset": 0,
            "slot": "0",
            "type": "t_address"
          },
          {
            "astId": 9408,
            "contract": "contracts/Auditor.sol:Auditor",
            "label": "exaState",
            "offset": 0,
            "slot": "1",
            "type": "t_mapping(t_address,t_struct(ExaState)9401_storage)"
          },
          {
            "astId": 9412,
            "contract": "contracts/Auditor.sol:Auditor",
            "label": "exaAccruedUser",
            "offset": 0,
            "slot": "2",
            "type": "t_mapping(t_address,t_uint256)"
          }
        ],
        "numberOfBytes": "96"
      },
      "t_struct(RoleData)19_storage": {
        "encoding": "inplace",
        "label": "struct AccessControl.RoleData",
        "members": [
          {
            "astId": 16,
            "contract": "contracts/Auditor.sol:Auditor",
            "label": "members",
            "offset": 0,
            "slot": "0",
            "type": "t_mapping(t_address,t_bool)"
          },
          {
            "astId": 18,
            "contract": "contracts/Auditor.sol:Auditor",
            "label": "adminRole",
            "offset": 0,
            "slot": "1",
            "type": "t_bytes32"
          }
        ],
        "numberOfBytes": "64"
      },
      "t_uint224": {
        "encoding": "inplace",
        "label": "uint224",
        "numberOfBytes": "28"
      },
      "t_uint256": {
        "encoding": "inplace",
        "label": "uint256",
        "numberOfBytes": "32"
      },
      "t_uint32": {
        "encoding": "inplace",
        "label": "uint32",
        "numberOfBytes": "4"
      },
      "t_uint8": {
        "encoding": "inplace",
        "label": "uint8",
        "numberOfBytes": "1"
      }
    }
  }
}