{
  "address": "0xDC891752642e1e98C9e4b5060045FD7C8Db4fD92",
  "abi": [
    {
      "inputs": [
        {
          "internalType": "address",
          "name": "_priceOracleAddress",
          "type": "address"
        },
        {
          "internalType": "address",
          "name": "_exaToken",
          "type": "address"
        }
      ],
      "stateMutability": "nonpayable",
      "type": "constructor"
    },
    {
      "inputs": [
        {
          "internalType": "enum ErrorCode",
          "name": "error",
          "type": "uint8"
        }
      ],
      "name": "GenericError",
      "type": "error"
    },
    {
      "inputs": [
        {
          "internalType": "enum TSUtils.State",
          "name": "state",
          "type": "uint8"
        },
        {
          "internalType": "enum TSUtils.State",
          "name": "requiredState",
          "type": "uint8"
        }
      ],
      "name": "UnmatchedPoolState",
      "type": "error"
    },
    {
      "anonymous": false,
      "inputs": [
        {
          "indexed": false,
          "internalType": "address",
          "name": "fixedLender",
          "type": "address"
        },
        {
          "indexed": false,
          "internalType": "string",
          "name": "action",
          "type": "string"
        },
        {
          "indexed": false,
          "internalType": "bool",
          "name": "paused",
          "type": "bool"
        }
      ],
      "name": "ActionPaused",
      "type": "event"
    },
    {
      "anonymous": false,
      "inputs": [
        {
          "indexed": true,
          "internalType": "address",
          "name": "fixedLender",
          "type": "address"
        },
        {
          "indexed": true,
          "internalType": "address",
          "name": "borrower",
          "type": "address"
        },
        {
          "indexed": false,
          "internalType": "uint256",
          "name": "mpBorrowerDelta",
          "type": "uint256"
        },
        {
          "indexed": false,
          "internalType": "uint256",
          "name": "exaMPBorrowIndex",
          "type": "uint256"
        }
      ],
      "name": "DistributedMPBorrowerExa",
      "type": "event"
    },
    {
      "anonymous": false,
      "inputs": [
        {
          "indexed": true,
          "internalType": "address",
          "name": "fixedLender",
          "type": "address"
        },
        {
          "indexed": true,
          "internalType": "address",
          "name": "supplier",
          "type": "address"
        },
        {
          "indexed": false,
          "internalType": "uint256",
          "name": "mpSupplierDelta",
          "type": "uint256"
        },
        {
          "indexed": false,
          "internalType": "uint256",
          "name": "exaMPSupplyIndex",
          "type": "uint256"
        }
      ],
      "name": "DistributedMPSupplierExa",
      "type": "event"
    },
    {
      "anonymous": false,
      "inputs": [
        {
          "indexed": true,
          "internalType": "address",
          "name": "fixedLender",
          "type": "address"
        },
        {
          "indexed": true,
          "internalType": "address",
          "name": "supplier",
          "type": "address"
        },
        {
          "indexed": false,
          "internalType": "uint256",
          "name": "spSupplierDelta",
          "type": "uint256"
        },
        {
          "indexed": false,
          "internalType": "uint256",
          "name": "exaSPSupplyIndex",
          "type": "uint256"
        }
      ],
      "name": "DistributedSPSupplierExa",
      "type": "event"
    },
    {
      "anonymous": false,
      "inputs": [
        {
          "indexed": false,
          "internalType": "address",
          "name": "fixedLenderAddress",
          "type": "address"
        },
        {
          "indexed": false,
          "internalType": "uint256",
          "name": "newSpeed",
          "type": "uint256"
        }
      ],
      "name": "ExaSpeedUpdated",
      "type": "event"
    },
    {
      "anonymous": false,
      "inputs": [
        {
          "indexed": false,
          "internalType": "address",
          "name": "fixedLender",
          "type": "address"
        },
        {
          "indexed": false,
          "internalType": "address",
          "name": "account",
          "type": "address"
        },
        {
          "indexed": false,
          "internalType": "uint256",
          "name": "maturityDate",
          "type": "uint256"
        }
      ],
      "name": "MarketEntered",
      "type": "event"
    },
    {
      "anonymous": false,
      "inputs": [
        {
          "indexed": false,
          "internalType": "address",
          "name": "fixedLender",
          "type": "address"
        },
        {
          "indexed": false,
          "internalType": "address",
          "name": "account",
          "type": "address"
        },
        {
          "indexed": false,
          "internalType": "uint256",
          "name": "maturityDate",
          "type": "uint256"
        }
      ],
      "name": "MarketExited",
      "type": "event"
    },
    {
      "anonymous": false,
      "inputs": [
        {
          "indexed": false,
          "internalType": "address",
          "name": "fixedLender",
          "type": "address"
        }
      ],
      "name": "MarketListed",
      "type": "event"
    },
    {
      "anonymous": false,
      "inputs": [
        {
          "indexed": true,
          "internalType": "address",
          "name": "fixedLender",
          "type": "address"
        },
        {
          "indexed": false,
          "internalType": "uint256",
          "name": "newBorrowCap",
          "type": "uint256"
        }
      ],
      "name": "NewBorrowCap",
      "type": "event"
    },
    {
      "anonymous": false,
      "inputs": [
        {
          "indexed": false,
          "internalType": "address",
          "name": "newOracle",
          "type": "address"
        }
      ],
      "name": "OracleChanged",
      "type": "event"
    },
    {
      "anonymous": false,
      "inputs": [
        {
          "indexed": true,
          "internalType": "bytes32",
          "name": "role",
          "type": "bytes32"
        },
        {
          "indexed": true,
          "internalType": "bytes32",
          "name": "previousAdminRole",
          "type": "bytes32"
        },
        {
          "indexed": true,
          "internalType": "bytes32",
          "name": "newAdminRole",
          "type": "bytes32"
        }
      ],
      "name": "RoleAdminChanged",
      "type": "event"
    },
    {
      "anonymous": false,
      "inputs": [
        {
          "indexed": true,
          "internalType": "bytes32",
          "name": "role",
          "type": "bytes32"
        },
        {
          "indexed": true,
          "internalType": "address",
          "name": "account",
          "type": "address"
        },
        {
          "indexed": true,
          "internalType": "address",
          "name": "sender",
          "type": "address"
        }
      ],
      "name": "RoleGranted",
      "type": "event"
    },
    {
      "anonymous": false,
      "inputs": [
        {
          "indexed": true,
          "internalType": "bytes32",
          "name": "role",
          "type": "bytes32"
        },
        {
          "indexed": true,
          "internalType": "address",
          "name": "account",
          "type": "address"
        },
        {
          "indexed": true,
          "internalType": "address",
          "name": "sender",
          "type": "address"
        }
      ],
      "name": "RoleRevoked",
      "type": "event"
    },
    {
      "inputs": [],
      "name": "DEFAULT_ADMIN_ROLE",
      "outputs": [
        {
          "internalType": "bytes32",
          "name": "",
          "type": "bytes32"
        }
      ],
      "stateMutability": "view",
      "type": "function"
    },
    {
      "inputs": [
        {
          "internalType": "address",
          "name": "fixedLenderAddress",
          "type": "address"
        },
        {
          "internalType": "address",
          "name": "borrower",
          "type": "address"
        },
        {
          "internalType": "uint256",
          "name": "borrowAmount",
          "type": "uint256"
        },
        {
          "internalType": "uint256",
          "name": "maturityDate",
          "type": "uint256"
        }
      ],
      "name": "beforeBorrowMP",
      "outputs": [],
      "stateMutability": "nonpayable",
      "type": "function"
    },
    {
      "inputs": [
        {
          "internalType": "address",
          "name": "fixedLenderAddress",
          "type": "address"
        },
        {
          "internalType": "address",
          "name": "supplier",
          "type": "address"
        },
        {
          "internalType": "uint256",
          "name": "maturityDate",
          "type": "uint256"
        }
      ],
      "name": "beforeDepositMP",
      "outputs": [],
      "stateMutability": "nonpayable",
      "type": "function"
    },
    {
      "inputs": [
        {
          "internalType": "address",
          "name": "fixedLenderAddress",
          "type": "address"
        },
        {
          "internalType": "address",
          "name": "borrower",
          "type": "address"
        }
      ],
      "name": "beforeRepayMP",
      "outputs": [],
      "stateMutability": "nonpayable",
      "type": "function"
    },
    {
      "inputs": [
        {
          "internalType": "address",
          "name": "fixedLenderAddress",
          "type": "address"
        },
        {
          "internalType": "address",
          "name": "supplier",
          "type": "address"
        }
      ],
      "name": "beforeSupplySP",
      "outputs": [],
      "stateMutability": "nonpayable",
      "type": "function"
    },
    {
      "inputs": [
        {
          "internalType": "address",
          "name": "fixedLenderAddress",
          "type": "address"
        },
        {
          "internalType": "address",
          "name": "redeemer",
          "type": "address"
        },
        {
          "internalType": "uint256",
          "name": "redeemAmount",
          "type": "uint256"
        },
        {
          "internalType": "uint256",
          "name": "maturityDate",
          "type": "uint256"
        }
      ],
      "name": "beforeWithdrawMP",
      "outputs": [],
      "stateMutability": "nonpayable",
      "type": "function"
    },
    {
      "inputs": [
        {
          "internalType": "address",
          "name": "fixedLenderAddress",
          "type": "address"
        },
        {
          "internalType": "address",
          "name": "supplier",
          "type": "address"
        }
      ],
      "name": "beforeWithdrawSP",
      "outputs": [],
      "stateMutability": "nonpayable",
      "type": "function"
    },
    {
      "inputs": [
        {
          "internalType": "address",
          "name": "holder",
          "type": "address"
        },
        {
          "internalType": "address[]",
          "name": "fixedLenders",
          "type": "address[]"
        }
      ],
      "name": "claimExa",
      "outputs": [],
      "stateMutability": "nonpayable",
      "type": "function"
    },
    {
      "inputs": [
        {
          "internalType": "address",
          "name": "holder",
          "type": "address"
        }
      ],
      "name": "claimExaAll",
      "outputs": [],
      "stateMutability": "nonpayable",
      "type": "function"
    },
    {
      "inputs": [],
      "name": "closeFactor",
      "outputs": [
        {
          "internalType": "uint256",
          "name": "",
          "type": "uint256"
        }
      ],
      "stateMutability": "view",
      "type": "function"
    },
    {
      "inputs": [
        {
          "internalType": "address",
          "name": "fixedLender",
          "type": "address"
        },
        {
          "internalType": "uint256",
          "name": "collateralFactor",
          "type": "uint256"
        },
        {
          "internalType": "string",
          "name": "symbol",
          "type": "string"
        },
        {
          "internalType": "string",
          "name": "name",
          "type": "string"
        },
        {
          "internalType": "uint8",
          "name": "decimals",
          "type": "uint8"
        }
      ],
      "name": "enableMarket",
      "outputs": [],
      "stateMutability": "nonpayable",
      "type": "function"
    },
    {
      "inputs": [
        {
          "internalType": "address[]",
          "name": "fixedLenders",
          "type": "address[]"
        },
        {
          "internalType": "uint256",
          "name": "maturityDate",
          "type": "uint256"
        }
      ],
      "name": "enterMarkets",
      "outputs": [],
      "stateMutability": "nonpayable",
      "type": "function"
    },
    {
      "inputs": [
        {
          "internalType": "address",
          "name": "fixedLenderAddress",
          "type": "address"
        },
        {
          "internalType": "uint256",
          "name": "maturityDate",
          "type": "uint256"
        }
      ],
      "name": "exitMarket",
      "outputs": [],
      "stateMutability": "nonpayable",
      "type": "function"
    },
    {
      "inputs": [
        {
          "internalType": "address",
          "name": "account",
          "type": "address"
        },
        {
          "internalType": "uint256",
          "name": "maturityDate",
          "type": "uint256"
        }
      ],
      "name": "getAccountLiquidity",
      "outputs": [
        {
          "internalType": "uint256",
          "name": "",
          "type": "uint256"
        },
        {
          "internalType": "uint256",
          "name": "",
          "type": "uint256"
        }
      ],
      "stateMutability": "view",
      "type": "function"
    },
    {
      "inputs": [],
      "name": "getFuturePools",
      "outputs": [
        {
          "internalType": "uint256[]",
          "name": "",
          "type": "uint256[]"
        }
      ],
      "stateMutability": "view",
      "type": "function"
    },
    {
      "inputs": [],
      "name": "getMarketAddresses",
      "outputs": [
        {
          "internalType": "address[]",
          "name": "",
          "type": "address[]"
        }
      ],
      "stateMutability": "view",
      "type": "function"
    },
    {
      "inputs": [
        {
          "internalType": "address",
          "name": "fixedLenderAddress",
          "type": "address"
        }
      ],
      "name": "getMarketData",
      "outputs": [
        {
          "internalType": "string",
          "name": "",
          "type": "string"
        },
        {
          "internalType": "string",
          "name": "",
          "type": "string"
        },
        {
          "internalType": "bool",
          "name": "",
          "type": "bool"
        },
        {
          "internalType": "uint256",
          "name": "",
          "type": "uint256"
        },
        {
          "internalType": "uint8",
          "name": "",
          "type": "uint8"
        },
        {
          "internalType": "address",
          "name": "",
          "type": "address"
        }
      ],
      "stateMutability": "view",
      "type": "function"
    },
    {
      "inputs": [
        {
          "internalType": "bytes32",
          "name": "role",
          "type": "bytes32"
        }
      ],
      "name": "getRoleAdmin",
      "outputs": [
        {
          "internalType": "bytes32",
          "name": "",
          "type": "bytes32"
        }
      ],
      "stateMutability": "view",
      "type": "function"
    },
    {
      "inputs": [
        {
          "internalType": "bytes32",
          "name": "role",
          "type": "bytes32"
        },
        {
          "internalType": "address",
          "name": "account",
          "type": "address"
        }
      ],
      "name": "grantRole",
      "outputs": [],
      "stateMutability": "nonpayable",
      "type": "function"
    },
    {
      "inputs": [
        {
          "internalType": "bytes32",
          "name": "role",
          "type": "bytes32"
        },
        {
          "internalType": "address",
          "name": "account",
          "type": "address"
        }
      ],
      "name": "hasRole",
      "outputs": [
        {
          "internalType": "bool",
          "name": "",
          "type": "bool"
        }
      ],
      "stateMutability": "view",
      "type": "function"
    },
    {
      "inputs": [
        {
          "internalType": "address",
          "name": "fixedLenderBorrowed",
          "type": "address"
        },
        {
          "internalType": "address",
          "name": "fixedLenderCollateral",
          "type": "address"
        },
        {
          "internalType": "address",
          "name": "liquidator",
          "type": "address"
        },
        {
          "internalType": "address",
          "name": "borrower",
          "type": "address"
        },
        {
          "internalType": "uint256",
          "name": "repayAmount",
          "type": "uint256"
        },
        {
          "internalType": "uint256",
          "name": "maturityDate",
          "type": "uint256"
        }
      ],
      "name": "liquidateAllowed",
      "outputs": [],
      "stateMutability": "view",
      "type": "function"
    },
    {
      "inputs": [
        {
          "internalType": "address",
          "name": "fixedLenderBorrowed",
          "type": "address"
        },
        {
          "internalType": "address",
          "name": "fixedLenderCollateral",
          "type": "address"
        },
        {
          "internalType": "uint256",
          "name": "actualRepayAmount",
          "type": "uint256"
        }
      ],
      "name": "liquidateCalculateSeizeAmount",
      "outputs": [
        {
          "internalType": "uint256",
          "name": "",
          "type": "uint256"
        }
      ],
      "stateMutability": "view",
      "type": "function"
    },
    {
      "inputs": [],
      "name": "liquidationIncentive",
      "outputs": [
        {
          "internalType": "uint256",
          "name": "",
          "type": "uint256"
        }
      ],
      "stateMutability": "view",
      "type": "function"
    },
    {
      "inputs": [
        {
          "internalType": "uint256",
          "name": "",
          "type": "uint256"
        }
      ],
      "name": "marketsAddresses",
      "outputs": [
        {
          "internalType": "address",
          "name": "",
          "type": "address"
        }
      ],
      "stateMutability": "view",
      "type": "function"
    },
    {
      "inputs": [],
      "name": "maxFuturePools",
      "outputs": [
        {
          "internalType": "uint8",
          "name": "",
          "type": "uint8"
        }
      ],
      "stateMutability": "view",
      "type": "function"
    },
    {
      "inputs": [],
      "name": "oracle",
      "outputs": [
        {
          "internalType": "contract IOracle",
          "name": "",
          "type": "address"
        }
      ],
      "stateMutability": "view",
      "type": "function"
    },
    {
      "inputs": [
        {
          "internalType": "address",
          "name": "fixedLender",
          "type": "address"
        },
        {
          "internalType": "bool",
          "name": "paused",
          "type": "bool"
        }
      ],
      "name": "pauseBorrow",
      "outputs": [
        {
          "internalType": "bool",
          "name": "",
          "type": "bool"
        }
      ],
      "stateMutability": "nonpayable",
      "type": "function"
    },
    {
      "inputs": [
        {
          "internalType": "bytes32",
          "name": "role",
          "type": "bytes32"
        },
        {
          "internalType": "address",
          "name": "account",
          "type": "address"
        }
      ],
      "name": "renounceRole",
      "outputs": [],
      "stateMutability": "nonpayable",
      "type": "function"
    },
    {
      "inputs": [
        {
          "internalType": "uint256",
          "name": "maturityDate",
          "type": "uint256"
        },
        {
          "internalType": "enum TSUtils.State",
          "name": "requiredState",
          "type": "uint8"
        }
      ],
      "name": "requirePoolState",
      "outputs": [],
      "stateMutability": "view",
      "type": "function"
    },
    {
      "inputs": [
        {
          "internalType": "bytes32",
          "name": "role",
          "type": "bytes32"
        },
        {
          "internalType": "address",
          "name": "account",
          "type": "address"
        }
      ],
      "name": "revokeRole",
      "outputs": [],
      "stateMutability": "nonpayable",
      "type": "function"
    },
    {
      "inputs": [],
      "name": "rewardsState",
      "outputs": [
        {
          "internalType": "address",
          "name": "exaToken",
          "type": "address"
        }
      ],
      "stateMutability": "view",
      "type": "function"
    },
    {
      "inputs": [
        {
          "internalType": "address",
          "name": "fixedLenderCollateral",
          "type": "address"
        },
        {
          "internalType": "address",
          "name": "fixedLenderBorrowed",
          "type": "address"
        },
        {
          "internalType": "address",
          "name": "liquidator",
          "type": "address"
        },
        {
          "internalType": "address",
          "name": "borrower",
          "type": "address"
        }
      ],
      "name": "seizeAllowed",
      "outputs": [],
      "stateMutability": "view",
      "type": "function"
    },
    {
      "inputs": [
        {
          "internalType": "address",
          "name": "fixedLenderAddress",
          "type": "address"
        },
        {
          "internalType": "uint256",
          "name": "exaSpeed",
          "type": "uint256"
        }
      ],
      "name": "setExaSpeed",
      "outputs": [],
      "stateMutability": "nonpayable",
      "type": "function"
    },
    {
      "inputs": [
        {
          "internalType": "uint256",
          "name": "_liquidationIncentive",
          "type": "uint256"
        }
      ],
      "name": "setLiquidationIncentive",
      "outputs": [],
      "stateMutability": "nonpayable",
      "type": "function"
    },
    {
      "inputs": [
        {
          "internalType": "address[]",
          "name": "fixedLenders",
          "type": "address[]"
        },
        {
          "internalType": "uint256[]",
          "name": "newBorrowCaps",
          "type": "uint256[]"
        }
      ],
      "name": "setMarketBorrowCaps",
      "outputs": [],
      "stateMutability": "nonpayable",
      "type": "function"
    },
    {
      "inputs": [
        {
          "internalType": "address",
          "name": "_priceOracleAddress",
          "type": "address"
        }
      ],
      "name": "setOracle",
      "outputs": [],
      "stateMutability": "nonpayable",
      "type": "function"
    },
    {
      "inputs": [
        {
          "internalType": "bytes4",
          "name": "interfaceId",
          "type": "bytes4"
        }
      ],
      "name": "supportsInterface",
      "outputs": [
        {
          "internalType": "bool",
          "name": "",
          "type": "bool"
        }
      ],
      "stateMutability": "view",
      "type": "function"
    }
  ],
  "transactionHash": "0x5f1382cae692070279e1ae4407cd4165e307535a84cc166d496a9561b8dd503c",
  "args": [
    "0xD8Eedc43a1b640E6aBD56aC6cc66Cc53f25B2c53",
    "0x1Bb0851a116e8d90A19d1087d1A51Ac267961cfb"
  ],
  "solcInputHash": "5c87df12e29dc2079cea619578365c10",
  "bytecode": "0x60806040526706f05b59d3b20000600555670f43fc2c04ee0000600655600c600760006101000a81548160ff021916908360ff1602179055503480156200004557600080fd5b50604051620059de380380620059de83398181016040528101906200006b91906200029d565b80600960000160006101000a81548173ffffffffffffffffffffffffffffffffffffffff021916908373ffffffffffffffffffffffffffffffffffffffff16021790555081600c60006101000a81548173ffffffffffffffffffffffffffffffffffffffff021916908373ffffffffffffffffffffffffffffffffffffffff160217905550620001056000801b336200010d60201b60201c565b50506200032c565b6200011f82826200012360201b60201c565b5050565b6200013582826200021460201b60201c565b6200021057600160008084815260200190815260200160002060000160008373ffffffffffffffffffffffffffffffffffffffff1673ffffffffffffffffffffffffffffffffffffffff16815260200190815260200160002060006101000a81548160ff021916908315150217905550620001b56200027e60201b60201c565b73ffffffffffffffffffffffffffffffffffffffff168173ffffffffffffffffffffffffffffffffffffffff16837f2f8788117e7eff1d82e926ec794901d17c78024a50270940304540a733656f0d60405160405180910390a45b5050565b600080600084815260200190815260200160002060000160008373ffffffffffffffffffffffffffffffffffffffff1673ffffffffffffffffffffffffffffffffffffffff16815260200190815260200160002060009054906101000a900460ff16905092915050565b600033905090565b600081519050620002978162000312565b92915050565b60008060408385031215620002b157600080fd5b6000620002c18582860162000286565b9250506020620002d48582860162000286565b9150509250929050565b6000620002eb82620002f2565b9050919050565b600073ffffffffffffffffffffffffffffffffffffffff82169050919050565b6200031d81620002de565b81146200032957600080fd5b50565b6156a2806200033c6000396000f3fe608060405234801561001057600080fd5b50600436106102275760003560e01c806363ae097a11610130578063a217fddf116100b8578063bb987aef1161007c578063bb987aef1461064c578063c7333f0414610668578063d547741f14610686578063dec481b8146106a2578063eafe967b146106d257610227565b8063a217fddf14610591578063a30c302d146105af578063a8431081146105e4578063b10ed76814610600578063b35dd5dd1461061c57610227565b80638c765e94116100ff5780638c765e94146104d857806391d14854146104f6578063924f6ced1461052657806397ce0d31146105425780639e35e1421461056057610227565b806363ae097a146104665780637adbf973146104825780637dc0d1d01461049e578063806a9f80146104bc57610227565b806321e23a98116101b35780632f2ff15d116101825780632f2ff15d146103c657806336568abe146103e25780635cf232e6146103fe5780635efadbd11461041a578063635f8fc21461044a57610227565b806321e23a9814610342578063248a9ca31461035e57806328bc83c11461038e5780632c7c0ae8146103aa57610227565b80630ac8f744116101fa5780630ac8f744146102b45780630e52dbec146102d0578063186db48f146102ee5780631d48f1d61461030a5780631e69d4301461032657610227565b806301ffc9a71461022c57806305308b9f1461025c578063055d32541461027a57806307219b0914610296575b600080fd5b61024660048036038101906102419190614241565b6106ee565b6040516102539190614854565b60405180910390f35b610264610768565b6040516102719190614cf9565b60405180910390f35b610294600480360381019061028f9190613d58565b61076e565b005b61029e6108e3565b6040516102ab9190614832565b60405180910390f35b6102ce60048036038101906102c99190613ecf565b610987565b005b6102d8610c7d565b6040516102e59190614d9d565b60405180910390f35b610308600480360381019061030391906140a5565b610c90565b005b610324600480360381019061031f919061411a565b610fbe565b005b610340600480360381019061033b9190613fc2565b6110b3565b005b61035c60048036038101906103579190613ecf565b611370565b005b610378600480360381019061037391906141dc565b61145e565b604051610385919061486f565b60405180910390f35b6103a860048036038101906103a39190613d58565b61147d565b005b6103c460048036038101906103bf9190613df7565b6115f2565b005b6103e060048036038101906103db9190614205565b611954565b005b6103fc60048036038101906103f79190614205565b61197d565b005b61041860048036038101906104139190613ffe565b611a00565b005b610434600480360381019061042f9190613e80565b611cb6565b6040516104419190614cf9565b60405180910390f35b610464600480360381019061045f9190613e80565b611ffd565b005b610480600480360381019061047b9190613f32565b61217e565b005b61049c60048036038101906104979190613d2f565b6122ea565b005b6104a661237b565b6040516104b3919061488a565b60405180910390f35b6104d660048036038101906104d1919061434f565b6123a1565b005b6104e06123af565b6040516104ed9190614cf9565b60405180910390f35b610510600480360381019061050b9190614205565b6123b5565b60405161051d9190614854565b60405180910390f35b610540600480360381019061053b9190613d58565b61241f565b005b61054a612594565b6040516105579190614810565b60405180910390f35b61057a60048036038101906105759190613fc2565b612622565b604051610588929190614d14565b60405180910390f35b6105996126e9565b6040516105a6919061486f565b60405180910390f35b6105c960048036038101906105c49190613d2f565b6126f0565b6040516105db9695949392919061490b565b60405180910390f35b6105fe60048036038101906105f991906142fd565b612934565b005b61061a60048036038101906106159190613d2f565b612954565b005b610636600480360381019061063191906142fd565b6129e7565b6040516106439190614790565b60405180910390f35b61066660048036038101906106619190613fc2565b612a26565b005b610670612bb9565b60405161067d9190614790565b60405180910390f35b6106a0600480360381019061069b9190614205565b612be5565b005b6106bc60048036038101906106b79190613f86565b612c0e565b6040516106c99190614854565b60405180910390f35b6106ec60048036038101906106e79190613d94565b612d56565b005b60007f7965db0b000000000000000000000000000000000000000000000000000000007bffffffffffffffffffffffffffffffffffffffffffffffffffffffff1916827bffffffffffffffffffffffffffffffffffffffffffffffffffffffff19161480610761575061076082612ec0565b5b9050919050565b60055481565b600160000160008373ffffffffffffffffffffffffffffffffffffffff1673ffffffffffffffffffffffffffffffffffffffff16815260200190815260200160002060020160009054906101000a900460ff166108035760016040517fede8a5990000000000000000000000000000000000000000000000000000000081526004016107fa91906148a5565b60405180910390fd5b600973DD82cCC242A1F88EC2c02b0986E15E71897B7fc763cfabf395909143856040518463ffffffff1660e01b815260040161084193929190614bd6565b60006040518083038186803b15801561085957600080fd5b505af415801561086d573d6000803e3d6000fd5b50505050600973DD82cCC242A1F88EC2c02b0986E15E71897B7fc763eb5df71c909184846040518463ffffffff1660e01b81526004016108af93929190614b9f565b60006040518083038186803b1580156108c757600080fd5b505af41580156108db573d6000803e3d6000fd5b505050505050565b606073f6780c6eCFbF39CE58ac293dC2F00da27c91df4E63ee5c40d442600760009054906101000a900460ff166040518363ffffffff1660e01b815260040161092d929190614d74565b60006040518083038186803b15801561094557600080fd5b505af4158015610959573d6000803e3d6000fd5b505050506040513d6000823e3d601f19601f820116820180604052508101906109829190614172565b905090565b6001800160008573ffffffffffffffffffffffffffffffffffffffff1673ffffffffffffffffffffffffffffffffffffffff16815260200190815260200160002060009054906101000a900460ff1615610a1957600e6040517fede8a599000000000000000000000000000000000000000000000000000000008152600401610a1091906148a5565b60405180910390fd5b610a24816002612f2a565b6001735F5A5531CF864FA2BB97A7d455E0850d8ea2792263ce41cb4c9091868686866040518663ffffffff1660e01b8152600401610a669594939291906149ff565b60006040518083038186803b158015610a7e57600080fd5b505af4158015610a92573d6000803e3d6000fd5b5050505060006001735F5A5531CF864FA2BB97A7d455E0850d8ea2792263bde290fb9091600c60009054906101000a900473ffffffffffffffffffffffffffffffffffffffff1687868a60008a6040518863ffffffff1660e01b8152600401610b019796959493929190614ac1565b604080518083038186803b158015610b1857600080fd5b505af4158015610b2c573d6000803e3d6000fd5b505050506040513d601f19601f82011682018060405250810190610b50919061438b565b9150506000811115610b9a5760056040517fede8a599000000000000000000000000000000000000000000000000000000008152600401610b9191906148a5565b60405180910390fd5b600973DD82cCC242A1F88EC2c02b0986E15E71897B7fc763f54529ae909143886040518463ffffffff1660e01b8152600401610bd893929190614bd6565b60006040518083038186803b158015610bf057600080fd5b505af4158015610c04573d6000803e3d6000fd5b50505050600973DD82cCC242A1F88EC2c02b0986E15E71897B7fc76303ef12f4909187876040518463ffffffff1660e01b8152600401610c4693929190614b9f565b60006040518083038186803b158015610c5e57600080fd5b505af4158015610c72573d6000803e3d6000fd5b505050505050505050565b600760009054906101000a900460ff1681565b6000801b610ca581610ca0613083565b61308b565b600085859050905060008484905090506000821480610cc45750808214155b15610d075760106040517fede8a599000000000000000000000000000000000000000000000000000000008152600401610cfe91906148a5565b60405180910390fd5b60005b82811015610fb45760016000016000898984818110610d52577f4e487b7100000000000000000000000000000000000000000000000000000000600052603260045260246000fd5b9050602002016020810190610d679190613d2f565b73ffffffffffffffffffffffffffffffffffffffff1673ffffffffffffffffffffffffffffffffffffffff16815260200190815260200160002060020160009054906101000a900460ff16610df45760016040517fede8a599000000000000000000000000000000000000000000000000000000008152600401610deb91906148a5565b60405180910390fd5b858582818110610e2d577f4e487b7100000000000000000000000000000000000000000000000000000000600052603260045260246000fd5b90506020020135600160020160008a8a85818110610e74577f4e487b7100000000000000000000000000000000000000000000000000000000600052603260045260246000fd5b9050602002016020810190610e899190613d2f565b73ffffffffffffffffffffffffffffffffffffffff1673ffffffffffffffffffffffffffffffffffffffff16815260200190815260200160002081905550878782818110610f00577f4e487b7100000000000000000000000000000000000000000000000000000000600052603260045260246000fd5b9050602002016020810190610f159190613d2f565b73ffffffffffffffffffffffffffffffffffffffff167f6f1951b2aad10f3fc81b86d91105b413a5b3f847a34bbc5ce1904201b14438f6878784818110610f85577f4e487b7100000000000000000000000000000000000000000000000000000000600052603260045260246000fd5b90506020020135604051610f999190614cf9565b60405180910390a28080610fac9061534e565b915050610d0a565b5050505050505050565b610fc9816002612f2a565b600083839050905060005b818110156110ac576001735F5A5531CF864FA2BB97A7d455E0850d8ea279226363a6cadd9091878785818110611033577f4e487b7100000000000000000000000000000000000000000000000000000000600052603260045260246000fd5b90506020020160208101906110489190613d2f565b33876040518563ffffffff1660e01b815260040161106994939291906149ba565b60006040518083038186803b15801561108157600080fd5b505af4158015611095573d6000803e3d6000fd5b5050505080806110a49061534e565b915050610fd4565b5050505050565b600160000160008373ffffffffffffffffffffffffffffffffffffffff1673ffffffffffffffffffffffffffffffffffffffff16815260200190815260200160002060020160009054906101000a900460ff166111485760016040517fede8a59900000000000000000000000000000000000000000000000000000000815260040161113f91906148a5565b60405180910390fd5b600082905073f6780c6eCFbF39CE58ac293dC2F00da27c91df4E63b142980a836040518263ffffffff1660e01b81526004016111849190614cde565b60206040518083038186803b15801561119c57600080fd5b505af41580156111b0573d6000803e3d6000fd5b505050506040513d601f19601f820116820180604052508101906111d491906141b3565b61121657600c6040517fede8a59900000000000000000000000000000000000000000000000000000000815260040161120d91906148a5565b60405180910390fd5b6000808273ffffffffffffffffffffffffffffffffffffffff166355a1ac2e33866040518363ffffffff1660e01b81526004016112549291906147e7565b604080518083038186803b15801561126b57600080fd5b505afa15801561127f573d6000803e3d6000fd5b505050506040513d601f19601f820116820180604052508101906112a3919061438b565b91509150600081146112ed5760146040517fede8a5990000000000000000000000000000000000000000000000000000000081526004016112e491906148a5565b60405180910390fd5b6112f985338487613128565b6001735F5A5531CF864FA2BB97A7d455E0850d8ea27922632c0636c790918733886040518563ffffffff1660e01b815260040161133994939291906149ba565b60006040518083038186803b15801561135157600080fd5b505af4158015611365573d6000803e3d6000fd5b505050505050505050565b61137c84848484613128565b600973DD82cCC242A1F88EC2c02b0986E15E71897B7fc763a32ae44d909143876040518463ffffffff1660e01b81526004016113ba93929190614bd6565b60006040518083038186803b1580156113d257600080fd5b505af41580156113e6573d6000803e3d6000fd5b50505050600973DD82cCC242A1F88EC2c02b0986E15E71897B7fc7633e9e174a909186866040518463ffffffff1660e01b815260040161142893929190614b9f565b60006040518083038186803b15801561144057600080fd5b505af4158015611454573d6000803e3d6000fd5b5050505050505050565b6000806000838152602001908152602001600020600101549050919050565b600160000160008373ffffffffffffffffffffffffffffffffffffffff1673ffffffffffffffffffffffffffffffffffffffff16815260200190815260200160002060020160009054906101000a900460ff166115125760016040517fede8a59900000000000000000000000000000000000000000000000000000000815260040161150991906148a5565b60405180910390fd5b600973DD82cCC242A1F88EC2c02b0986E15E71897B7fc763cfabf395909143856040518463ffffffff1660e01b815260040161155093929190614bd6565b60006040518083038186803b15801561156857600080fd5b505af415801561157c573d6000803e3d6000fd5b50505050600973DD82cCC242A1F88EC2c02b0986E15E71897B7fc763eb5df71c909184846040518463ffffffff1660e01b81526004016115be93929190614b9f565b60006040518083038186803b1580156115d657600080fd5b505af41580156115ea573d6000803e3d6000fd5b505050505050565b8373ffffffffffffffffffffffffffffffffffffffff168373ffffffffffffffffffffffffffffffffffffffff16141561166457600d6040517fede8a59900000000000000000000000000000000000000000000000000000000815260040161165b91906148a5565b60405180910390fd5b600160000160008773ffffffffffffffffffffffffffffffffffffffff1673ffffffffffffffffffffffffffffffffffffffff16815260200190815260200160002060020160009054906101000a900460ff1615806117135750600160000160008673ffffffffffffffffffffffffffffffffffffffff1673ffffffffffffffffffffffffffffffffffffffff16815260200190815260200160002060020160009054906101000a900460ff16155b156117565760016040517fede8a59900000000000000000000000000000000000000000000000000000000815260040161174d91906148a5565b60405180910390fd5b60006001735F5A5531CF864FA2BB97A7d455E0850d8ea2792263bde290fb9091600c60009054906101000a900473ffffffffffffffffffffffffffffffffffffffff16878660008060006040518863ffffffff1660e01b81526004016117c29796959493929190614a52565b604080518083038186803b1580156117d957600080fd5b505af41580156117ed573d6000803e3d6000fd5b505050506040513d601f19601f82011682018060405250810190611811919061438b565b915050600081141561185b5760066040517fede8a59900000000000000000000000000000000000000000000000000000000815260040161185291906148a5565b60405180910390fd5b60008773ffffffffffffffffffffffffffffffffffffffff166355a1ac2e86856040518363ffffffff1660e01b81526004016118989291906147e7565b604080518083038186803b1580156118af57600080fd5b505afa1580156118c3573d6000803e3d6000fd5b505050506040513d601f19601f820116820180604052508101906118e7919061438b565b91505060006119018260055461337e90919063ffffffff16565b9050808511156119495760086040517fede8a59900000000000000000000000000000000000000000000000000000000815260040161194091906148a5565b60405180910390fd5b505050505050505050565b61195d8261145e565b61196e81611969613083565b61308b565b61197883836133a7565b505050565b611985613083565b73ffffffffffffffffffffffffffffffffffffffff168173ffffffffffffffffffffffffffffffffffffffff16146119f2576040517f08c379a00000000000000000000000000000000000000000000000000000000081526004016119e99061499a565b60405180910390fd5b6119fc8282613487565b5050565b6000801b611a1581611a10613083565b61308b565b6000600160000160008873ffffffffffffffffffffffffffffffffffffffff1673ffffffffffffffffffffffffffffffffffffffff16815260200190815260200160002090508060020160009054906101000a900460ff1615611ab05760026040517fede8a599000000000000000000000000000000000000000000000000000000008152600401611aa791906148a5565b60405180910390fd5b3073ffffffffffffffffffffffffffffffffffffffff168773ffffffffffffffffffffffffffffffffffffffff1663b72ddee96040518163ffffffff1660e01b815260040160206040518083038186803b158015611b0d57600080fd5b505afa158015611b21573d6000803e3d6000fd5b505050506040513d601f19601f82011682018060405250810190611b45919061426a565b73ffffffffffffffffffffffffffffffffffffffff1614611b9e5760076040517fede8a599000000000000000000000000000000000000000000000000000000008152600401611b9591906148a5565b60405180910390fd5b60018160020160006101000a81548160ff02191690831515021790555085816003018190555084816000019080519060200190611bdc929190613915565b5083816001019080519060200190611bf5929190613915565b50828160040160006101000a81548160ff021916908360ff1602179055506008879080600181540180825580915050600190039060005260206000200160009091909190916101000a81548173ffffffffffffffffffffffffffffffffffffffff021916908373ffffffffffffffffffffffffffffffffffffffff1602179055507fcf583bb0c569eb967f806b11601c4cb93c10310485c67add5f8362c2f212321f87604051611ca59190614790565b60405180910390a150505050505050565b600080600c60009054906101000a900473ffffffffffffffffffffffffffffffffffffffff1673ffffffffffffffffffffffffffffffffffffffff16632aedd0eb8673ffffffffffffffffffffffffffffffffffffffff166391f3e4726040518163ffffffff1660e01b815260040160006040518083038186803b158015611d3d57600080fd5b505afa158015611d51573d6000803e3d6000fd5b505050506040513d6000823e3d601f19601f82011682018060405250810190611d7a91906142bc565b6040518263ffffffff1660e01b8152600401611d9691906148e9565b60206040518083038186803b158015611dae57600080fd5b505afa158015611dc2573d6000803e3d6000fd5b505050506040513d601f19601f82011682018060405250810190611de69190614326565b90506000600c60009054906101000a900473ffffffffffffffffffffffffffffffffffffffff1673ffffffffffffffffffffffffffffffffffffffff16632aedd0eb8673ffffffffffffffffffffffffffffffffffffffff166391f3e4726040518163ffffffff1660e01b815260040160006040518083038186803b158015611e6e57600080fd5b505afa158015611e82573d6000803e3d6000fd5b505050506040513d6000823e3d601f19601f82011682018060405250810190611eab91906142bc565b6040518263ffffffff1660e01b8152600401611ec791906148e9565b60206040518083038186803b158015611edf57600080fd5b505afa158015611ef3573d6000803e3d6000fd5b505050506040513d601f19601f82011682018060405250810190611f179190614326565b90506000611f788584600160000160008b73ffffffffffffffffffffffffffffffffffffffff1673ffffffffffffffffffffffffffffffffffffffff16815260200190815260200160002060040160009054906101000a900460ff16613568565b90506000611fd98284600160000160008b73ffffffffffffffffffffffffffffffffffffffff1673ffffffffffffffffffffffffffffffffffffffff16815260200190815260200160002060040160009054906101000a900460ff166135c7565b9050611ff06006548261337e90919063ffffffff16565b9450505050509392505050565b600160000160008473ffffffffffffffffffffffffffffffffffffffff1673ffffffffffffffffffffffffffffffffffffffff16815260200190815260200160002060020160009054906101000a900460ff166120925760016040517fede8a59900000000000000000000000000000000000000000000000000000000815260040161208991906148a5565b60405180910390fd5b61209d816002612f2a565b600973DD82cCC242A1F88EC2c02b0986E15E71897B7fc763a32ae44d909143866040518463ffffffff1660e01b81526004016120db93929190614bd6565b60006040518083038186803b1580156120f357600080fd5b505af4158015612107573d6000803e3d6000fd5b50505050600973DD82cCC242A1F88EC2c02b0986E15E71897B7fc7633e9e174a909185856040518463ffffffff1660e01b815260040161214993929190614b9f565b60006040518083038186803b15801561216157600080fd5b505af4158015612175573d6000803e3d6000fd5b50505050505050565b6000600167ffffffffffffffff8111156121c1577f4e487b7100000000000000000000000000000000000000000000000000000000600052604160045260246000fd5b6040519080825280602002602001820160405280156121ef5781602001602082028036833780820191505090505b509050828160008151811061222d577f4e487b7100000000000000000000000000000000000000000000000000000000600052603260045260246000fd5b602002602001019073ffffffffffffffffffffffffffffffffffffffff16908173ffffffffffffffffffffffffffffffffffffffff1681525050600973DD82cCC242A1F88EC2c02b0986E15E71897B7fc7633d00bbe59091436001600001858760018060016040518963ffffffff1660e01b81526004016122b5989796959493929190614c52565b60006040518083038186803b1580156122cd57600080fd5b505af41580156122e1573d6000803e3d6000fd5b50505050505050565b6000801b6122ff816122fa613083565b61308b565b81600c60006101000a81548173ffffffffffffffffffffffffffffffffffffffff021916908373ffffffffffffffffffffffffffffffffffffffff1602179055507f0e05ae75e8b926552cf6fcd744d19f422561e3ced1e426868730852702dbe4188260405161236f9190614790565b60405180910390a15050565b600c60009054906101000a900473ffffffffffffffffffffffffffffffffffffffff1681565b6123ab8282612f2a565b5050565b60065481565b600080600084815260200190815260200160002060000160008373ffffffffffffffffffffffffffffffffffffffff1673ffffffffffffffffffffffffffffffffffffffff16815260200190815260200160002060009054906101000a900460ff16905092915050565b600160000160008373ffffffffffffffffffffffffffffffffffffffff1673ffffffffffffffffffffffffffffffffffffffff16815260200190815260200160002060020160009054906101000a900460ff166124b45760016040517fede8a5990000000000000000000000000000000000000000000000000000000081526004016124ab91906148a5565b60405180910390fd5b600973DD82cCC242A1F88EC2c02b0986E15E71897B7fc763f54529ae909143856040518463ffffffff1660e01b81526004016124f293929190614bd6565b60006040518083038186803b15801561250a57600080fd5b505af415801561251e573d6000803e3d6000fd5b50505050600973DD82cCC242A1F88EC2c02b0986E15E71897B7fc76303ef12f4909184846040518463ffffffff1660e01b815260040161256093929190614b9f565b60006040518083038186803b15801561257857600080fd5b505af415801561258c573d6000803e3d6000fd5b505050505050565b6060600880548060200260200160405190810160405280929190818152602001828054801561261857602002820191906000526020600020905b8160009054906101000a900473ffffffffffffffffffffffffffffffffffffffff1673ffffffffffffffffffffffffffffffffffffffff16815260200190600101908083116125ce575b5050505050905090565b6000806001735F5A5531CF864FA2BB97A7d455E0850d8ea2792263bde290fb9091600c60009054906101000a900473ffffffffffffffffffffffffffffffffffffffff16878760008060006040518863ffffffff1660e01b815260040161268f9796959493929190614a52565b604080518083038186803b1580156126a657600080fd5b505af41580156126ba573d6000803e3d6000fd5b505050506040513d601f19601f820116820180604052508101906126de919061438b565b915091509250929050565b6000801b81565b606080600080600080600160000160008873ffffffffffffffffffffffffffffffffffffffff1673ffffffffffffffffffffffffffffffffffffffff16815260200190815260200160002060020160009054906101000a900460ff1661278e5760016040517fede8a59900000000000000000000000000000000000000000000000000000000815260040161278591906148a5565b60405180910390fd5b6000600160000160008973ffffffffffffffffffffffffffffffffffffffff1673ffffffffffffffffffffffffffffffffffffffff168152602001908152602001600020905080600001816001018260020160009054906101000a900460ff1683600301548460040160009054906101000a900460ff168c858054612812906152eb565b80601f016020809104026020016040519081016040528092919081815260200182805461283e906152eb565b801561288b5780601f106128605761010080835404028352916020019161288b565b820191906000526020600020905b81548152906001019060200180831161286e57829003601f168201915b5050505050955084805461289e906152eb565b80601f01602080910402602001604051908101604052809291908181526020018280546128ca906152eb565b80156129175780601f106128ec57610100808354040283529160200191612917565b820191906000526020600020905b8154815290600101906020018083116128fa57829003601f168201915b505050505094509650965096509650965096505091939550919395565b6000801b61294981612944613083565b61308b565b816006819055505050565b6129e48160088054806020026020016040519081016040528092919081815260200182805480156129da57602002820191906000526020600020905b8160009054906101000a900473ffffffffffffffffffffffffffffffffffffffff1673ffffffffffffffffffffffffffffffffffffffff1681526020019060010190808311612990575b505050505061217e565b50565b600881815481106129f757600080fd5b906000526020600020016000915054906101000a900473ffffffffffffffffffffffffffffffffffffffff1681565b6000801b612a3b81612a36613083565b61308b565b6000600160000160008573ffffffffffffffffffffffffffffffffffffffff1673ffffffffffffffffffffffffffffffffffffffff1681526020019081526020016000209050600015158160020160009054906101000a900460ff1615151415612add5760016040517fede8a599000000000000000000000000000000000000000000000000000000008152600401612ad491906148a5565b60405180910390fd5b60011515600973DD82cCC242A1F88EC2c02b0986E15E71897B7fc76353962db490914388886040518563ffffffff1660e01b8152600401612b219493929190614c0d565b60206040518083038186803b158015612b3957600080fd5b505af4158015612b4d573d6000803e3d6000fd5b505050506040513d601f19601f82011682018060405250810190612b7191906141b3565b15151415612bb3577fdbe1acf0f191a9aecba27ad74b59bb70426fe3f6129596f53b0f03a230c083238484604051612baa9291906147e7565b60405180910390a15b50505050565b60098060000160009054906101000a900473ffffffffffffffffffffffffffffffffffffffff16905081565b612bee8261145e565b612bff81612bfa613083565b61308b565b612c098383613487565b505050565b60008060001b612c2581612c20613083565b61308b565b600160000160008573ffffffffffffffffffffffffffffffffffffffff1673ffffffffffffffffffffffffffffffffffffffff16815260200190815260200160002060020160009054906101000a900460ff16612cba5760016040517fede8a599000000000000000000000000000000000000000000000000000000008152600401612cb191906148a5565b60405180910390fd5b826001800160008673ffffffffffffffffffffffffffffffffffffffff1673ffffffffffffffffffffffffffffffffffffffff16815260200190815260200160002060006101000a81548160ff0219169083151502179055507f71aec636243f9709bb0007ae15e9afb8150ab01716d75fd7573be5cc096e03b08484604051612d449291906147ab565b60405180910390a18291505092915050565b8173ffffffffffffffffffffffffffffffffffffffff168173ffffffffffffffffffffffffffffffffffffffff161415612dc857600d6040517fede8a599000000000000000000000000000000000000000000000000000000008152600401612dbf91906148a5565b60405180910390fd5b600160000160008573ffffffffffffffffffffffffffffffffffffffff1673ffffffffffffffffffffffffffffffffffffffff16815260200190815260200160002060020160009054906101000a900460ff161580612e775750600160000160008473ffffffffffffffffffffffffffffffffffffffff1673ffffffffffffffffffffffffffffffffffffffff16815260200190815260200160002060020160009054906101000a900460ff16155b15612eba5760016040517fede8a599000000000000000000000000000000000000000000000000000000008152600401612eb191906148a5565b60405180910390fd5b50505050565b60007f01ffc9a7000000000000000000000000000000000000000000000000000000007bffffffffffffffffffffffffffffffffffffffffffffffffffffffff1916827bffffffffffffffffffffffffffffffffffffffffffffffffffffffff1916149050919050565b600073f6780c6eCFbF39CE58ac293dC2F00da27c91df4E63da4b8a4c4285600760009054906101000a900460ff166040518463ffffffff1660e01b8152600401612f7693929190614d3d565b60206040518083038186803b158015612f8e57600080fd5b505af4158015612fa2573d6000803e3d6000fd5b505050506040513d601f19601f82011682018060405250810190612fc69190614293565b9050816003811115613001577f4e487b7100000000000000000000000000000000000000000000000000000000600052602160045260246000fd5b81600381111561303a577f4e487b7100000000000000000000000000000000000000000000000000000000600052602160045260246000fd5b1461307e5780826040517f34e2603a0000000000000000000000000000000000000000000000000000000081526004016130759291906148c0565b60405180910390fd5b505050565b600033905090565b61309582826123b5565b613124576130ba8173ffffffffffffffffffffffffffffffffffffffff16601461361b565b6130c88360001c602061361b565b6040516020016130d9929190614756565b6040516020818303038152906040526040517f08c379a000000000000000000000000000000000000000000000000000000000815260040161311b91906148e9565b60405180910390fd5b5050565b600160000160008573ffffffffffffffffffffffffffffffffffffffff1673ffffffffffffffffffffffffffffffffffffffff16815260200190815260200160002060020160009054906101000a900460ff166131bd5760016040517fede8a5990000000000000000000000000000000000000000000000000000000081526004016131b491906148a5565b60405180910390fd5b6131c8816001612f2a565b600160000160008573ffffffffffffffffffffffffffffffffffffffff1673ffffffffffffffffffffffffffffffffffffffff16815260200190815260200160002060050160008473ffffffffffffffffffffffffffffffffffffffff1673ffffffffffffffffffffffffffffffffffffffff168152602001908152602001600020600082815260200190815260200160002060009054906101000a900460ff1661327257613378565b60006001735F5A5531CF864FA2BB97A7d455E0850d8ea2792263bde290fb9091600c60009054906101000a900473ffffffffffffffffffffffffffffffffffffffff1687868a8960006040518863ffffffff1660e01b81526004016132dd9796959493929190614b30565b604080518083038186803b1580156132f457600080fd5b505af4158015613308573d6000803e3d6000fd5b505050506040513d601f19601f8201168201806040525081019061332c919061438b565b91505060008111156133765760056040517fede8a59900000000000000000000000000000000000000000000000000000000815260040161336d91906148a5565b60405180910390fd5b505b50505050565b6000670de0b6b3a764000082846133959190615108565b61339f9190614f66565b905092915050565b6133b182826123b5565b61348357600160008084815260200190815260200160002060000160008373ffffffffffffffffffffffffffffffffffffffff1673ffffffffffffffffffffffffffffffffffffffff16815260200190815260200160002060006101000a81548160ff021916908315150217905550613428613083565b73ffffffffffffffffffffffffffffffffffffffff168173ffffffffffffffffffffffffffffffffffffffff16837f2f8788117e7eff1d82e926ec794901d17c78024a50270940304540a733656f0d60405160405180910390a45b5050565b61349182826123b5565b1561356457600080600084815260200190815260200160002060000160008373ffffffffffffffffffffffffffffffffffffffff1673ffffffffffffffffffffffffffffffffffffffff16815260200190815260200160002060006101000a81548160ff021916908315150217905550613509613083565b73ffffffffffffffffffffffffffffffffffffffff168173ffffffffffffffffffffffffffffffffffffffff16837ff6391f5c32d9c69d2a47ea670b442974b53935d1edc7fd64eb21e047a839171b60405160405180910390a45b5050565b60008082600a6135789190614fea565b9050600081670de0b6b3a7640000876135919190615108565b61359b9190614f66565b9050670de0b6b3a764000085826135b29190615108565b6135bc9190614f66565b925050509392505050565b6000670de0b6b3a764000082600a6135df9190614fea565b84670de0b6b3a7640000876135f49190615108565b6135fe9190614f66565b6136089190615108565b6136129190614f66565b90509392505050565b60606000600283600261362e9190615108565b6136389190614f10565b67ffffffffffffffff811115613677577f4e487b7100000000000000000000000000000000000000000000000000000000600052604160045260246000fd5b6040519080825280601f01601f1916602001820160405280156136a95781602001600182028036833780820191505090505b5090507f300000000000000000000000000000000000000000000000000000000000000081600081518110613707577f4e487b7100000000000000000000000000000000000000000000000000000000600052603260045260246000fd5b60200101907effffffffffffffffffffffffffffffffffffffffffffffffffffffffffffff1916908160001a9053507f780000000000000000000000000000000000000000000000000000000000000081600181518110613791577f4e487b7100000000000000000000000000000000000000000000000000000000600052603260045260246000fd5b60200101907effffffffffffffffffffffffffffffffffffffffffffffffffffffffffffff1916908160001a905350600060018460026137d19190615108565b6137db9190614f10565b90505b60018111156138c7577f3031323334353637383961626364656600000000000000000000000000000000600f861660108110613843577f4e487b7100000000000000000000000000000000000000000000000000000000600052603260045260246000fd5b1a60f81b828281518110613880577f4e487b7100000000000000000000000000000000000000000000000000000000600052603260045260246000fd5b60200101907effffffffffffffffffffffffffffffffffffffffffffffffffffffffffffff1916908160001a905350600485901c9450806138c0906152c1565b90506137de565b506000841461390b576040517f08c379a00000000000000000000000000000000000000000000000000000000081526004016139029061497a565b60405180910390fd5b8091505092915050565b828054613921906152eb565b90600052602060002090601f016020900481019282613943576000855561398a565b82601f1061395c57805160ff191683800117855561398a565b8280016001018555821561398a579182015b8281111561398957825182559160200191906001019061396e565b5b509050613997919061399b565b5090565b5b808211156139b457600081600090555060010161399c565b5090565b60006139cb6139c684614ddd565b614db8565b905080838252602082019050828560208602820111156139ea57600080fd5b60005b85811015613a1a5781613a008882613b0c565b8452602084019350602083019250506001810190506139ed565b5050509392505050565b6000613a37613a3284614e09565b614db8565b90508083825260208201905082856020860282011115613a5657600080fd5b60005b85811015613a865781613a6c8882613d05565b845260208401935060208301925050600181019050613a59565b5050509392505050565b6000613aa3613a9e84614e35565b614db8565b905082815260208101848484011115613abb57600080fd5b613ac684828561527f565b509392505050565b6000613ae1613adc84614e35565b614db8565b905082815260208101848484011115613af957600080fd5b613b0484828561528e565b509392505050565b600081359050613b1b816155bb565b92915050565b60008083601f840112613b3357600080fd5b8235905067ffffffffffffffff811115613b4c57600080fd5b602083019150836020820283011115613b6457600080fd5b9250929050565b600082601f830112613b7c57600080fd5b8135613b8c8482602086016139b8565b91505092915050565b60008083601f840112613ba757600080fd5b8235905067ffffffffffffffff811115613bc057600080fd5b602083019150836020820283011115613bd857600080fd5b9250929050565b600082601f830112613bf057600080fd5b8151613c00848260208601613a24565b91505092915050565b600081359050613c18816155d2565b92915050565b600081519050613c2d816155d2565b92915050565b600081359050613c42816155e9565b92915050565b600081359050613c5781615600565b92915050565b600081519050613c6c81615617565b92915050565b600081359050613c818161562e565b92915050565b600081519050613c968161562e565b92915050565b600082601f830112613cad57600080fd5b8135613cbd848260208601613a90565b91505092915050565b600082601f830112613cd757600080fd5b8151613ce7848260208601613ace565b91505092915050565b600081359050613cff8161563e565b92915050565b600081519050613d148161563e565b92915050565b600081359050613d2981615655565b92915050565b600060208284031215613d4157600080fd5b6000613d4f84828501613b0c565b91505092915050565b60008060408385031215613d6b57600080fd5b6000613d7985828601613b0c565b9250506020613d8a85828601613b0c565b9150509250929050565b60008060008060808587031215613daa57600080fd5b6000613db887828801613b0c565b9450506020613dc987828801613b0c565b9350506040613dda87828801613b0c565b9250506060613deb87828801613b0c565b91505092959194509250565b60008060008060008060c08789031215613e1057600080fd5b6000613e1e89828a01613b0c565b9650506020613e2f89828a01613b0c565b9550506040613e4089828a01613b0c565b9450506060613e5189828a01613b0c565b9350506080613e6289828a01613cf0565b92505060a0613e7389828a01613cf0565b9150509295509295509295565b600080600060608486031215613e9557600080fd5b6000613ea386828701613b0c565b9350506020613eb486828701613b0c565b9250506040613ec586828701613cf0565b9150509250925092565b60008060008060808587031215613ee557600080fd5b6000613ef387828801613b0c565b9450506020613f0487828801613b0c565b9350506040613f1587828801613cf0565b9250506060613f2687828801613cf0565b91505092959194509250565b60008060408385031215613f4557600080fd5b6000613f5385828601613b0c565b925050602083013567ffffffffffffffff811115613f7057600080fd5b613f7c85828601613b6b565b9150509250929050565b60008060408385031215613f9957600080fd5b6000613fa785828601613b0c565b9250506020613fb885828601613c09565b9150509250929050565b60008060408385031215613fd557600080fd5b6000613fe385828601613b0c565b9250506020613ff485828601613cf0565b9150509250929050565b600080600080600060a0868803121561401657600080fd5b600061402488828901613b0c565b955050602061403588828901613cf0565b945050604086013567ffffffffffffffff81111561405257600080fd5b61405e88828901613c9c565b935050606086013567ffffffffffffffff81111561407b57600080fd5b61408788828901613c9c565b925050608061409888828901613d1a565b9150509295509295909350565b600080600080604085870312156140bb57600080fd5b600085013567ffffffffffffffff8111156140d557600080fd5b6140e187828801613b21565b9450945050602085013567ffffffffffffffff81111561410057600080fd5b61410c87828801613b95565b925092505092959194509250565b60008060006040848603121561412f57600080fd5b600084013567ffffffffffffffff81111561414957600080fd5b61415586828701613b21565b9350935050602061416886828701613cf0565b9150509250925092565b60006020828403121561418457600080fd5b600082015167ffffffffffffffff81111561419e57600080fd5b6141aa84828501613bdf565b91505092915050565b6000602082840312156141c557600080fd5b60006141d384828501613c1e565b91505092915050565b6000602082840312156141ee57600080fd5b60006141fc84828501613c33565b91505092915050565b6000806040838503121561421857600080fd5b600061422685828601613c33565b925050602061423785828601613b0c565b9150509250929050565b60006020828403121561425357600080fd5b600061426184828501613c48565b91505092915050565b60006020828403121561427c57600080fd5b600061428a84828501613c5d565b91505092915050565b6000602082840312156142a557600080fd5b60006142b384828501613c87565b91505092915050565b6000602082840312156142ce57600080fd5b600082015167ffffffffffffffff8111156142e857600080fd5b6142f484828501613cc6565b91505092915050565b60006020828403121561430f57600080fd5b600061431d84828501613cf0565b91505092915050565b60006020828403121561433857600080fd5b600061434684828501613d05565b91505092915050565b6000806040838503121561436257600080fd5b600061437085828601613cf0565b925050602061438185828601613c72565b9150509250929050565b6000806040838503121561439e57600080fd5b60006143ac85828601613d05565b92505060206143bd85828601613d05565b9150509250929050565b60006143d3838361440f565b60208301905092915050565b60006143eb838361443c565b60208301905092915050565b6000614403838361470b565b60208301905092915050565b61441881615162565b82525050565b61442781615162565b82525050565b61443681615162565b82525050565b61444581615162565b82525050565b600061445682614e86565b6144608185614ec1565b935061446b83614e66565b8060005b8381101561449c57815161448388826143c7565b975061448e83614ea7565b92505060018101905061446f565b5085935050505092915050565b60006144b482614e86565b6144be8185614ed2565b93506144c983614e66565b8060005b838110156144fa5781516144e188826143df565b97506144ec83614ea7565b9250506001810190506144cd565b5085935050505092915050565b600061451282614e91565b61451c8185614ee3565b935061452783614e76565b8060005b8381101561455857815161453f88826143f7565b975061454a83614eb4565b92505060018101905061452b565b5085935050505092915050565b61456e81615174565b82525050565b61457d81615174565b82525050565b61458c81615180565b82525050565b61459b81615225565b82525050565b6145aa81615225565b82525050565b6145b981615249565b82525050565b6145c88161525b565b82525050565b8082525050565b6145de8161526d565b82525050565b60006145ef82614e9c565b6145f98185614ef4565b935061460981856020860161528e565b61461281615482565b840191505092915050565b600061462882614e9c565b6146328185614f05565b935061464281856020860161528e565b80840191505092915050565b600061465b602083614ef4565b9150614666826154a0565b602082019050919050565b600061467e600683614ef4565b9150614689826154c9565b602082019050919050565b60006146a1601783614f05565b91506146ac826154f2565b601782019050919050565b60006146c4601183614f05565b91506146cf8261551b565b601182019050919050565b60006146e7602f83614ef4565b91506146f282615544565b604082019050919050565b8082525050565b8082525050565b6147148161520e565b82525050565b6147238161520e565b82525050565b6147328161520e565b82525050565b61474181615218565b82525050565b61475081615218565b82525050565b600061476182614694565b915061476d828561461d565b9150614778826146b7565b9150614784828461461d565b91508190509392505050565b60006020820190506147a5600083018461441e565b92915050565b60006060820190506147c0600083018561441e565b81810360208301526147d181614671565b90506147e06040830184614565565b9392505050565b60006040820190506147fc600083018561441e565b614809602083018461471a565b9392505050565b6000602082019050818103600083015261482a818461444b565b905092915050565b6000602082019050818103600083015261484c8184614507565b905092915050565b60006020820190506148696000830184614565565b92915050565b60006020820190506148846000830184614583565b92915050565b600060208201905061489f6000830184614592565b92915050565b60006020820190506148ba60008301846145b0565b92915050565b60006040820190506148d560008301856145bf565b6148e260208301846145bf565b9392505050565b6000602082019050818103600083015261490381846145e4565b905092915050565b600060c082019050818103600083015261492581896145e4565b9050818103602083015261493981886145e4565b90506149486040830187614565565b614955606083018661471a565b6149626080830185614738565b61496f60a083018461441e565b979650505050505050565b600060208201905081810360008301526149938161464e565b9050919050565b600060208201905081810360008301526149b3816146da565b9050919050565b60006080820190506149cf60008301876146fd565b6149dc602083018661442d565b6149e9604083018561442d565b6149f66060830184614729565b95945050505050565b600060a082019050614a1460008301886146fd565b614a21602083018761442d565b614a2e604083018661442d565b614a3b6060830185614729565b614a486080830184614729565b9695505050505050565b600060e082019050614a67600083018a6146fd565b614a7460208301896145a1565b614a81604083018861442d565b614a8e6060830187614729565b614a9b608083018661442d565b614aa860a08301856145d5565b614ab560c08301846145d5565b98975050505050505050565b600060e082019050614ad6600083018a6146fd565b614ae360208301896145a1565b614af0604083018861442d565b614afd6060830187614729565b614b0a608083018661442d565b614b1760a08301856145d5565b614b2460c0830184614729565b98975050505050505050565b600060e082019050614b45600083018a6146fd565b614b5260208301896145a1565b614b5f604083018861442d565b614b6c6060830187614729565b614b79608083018661442d565b614b8660a0830185614729565b614b9360c08301846145d5565b98975050505050505050565b6000606082019050614bb46000830186614704565b614bc1602083018561442d565b614bce604083018461442d565b949350505050565b6000606082019050614beb6000830186614704565b614bf86020830185614729565b614c05604083018461442d565b949350505050565b6000608082019050614c226000830187614704565b614c2f6020830186614729565b614c3c604083018561442d565b614c496060830184614729565b95945050505050565b600061010082019050614c68600083018b614704565b614c75602083018a614729565b614c8260408301896145ce565b8181036060830152614c9481886144a9565b90508181036080830152614ca881876144a9565b9050614cb760a0830186614574565b614cc460c0830185614574565b614cd160e0830184614574565b9998505050505050505050565b6000602082019050614cf36000830184614729565b92915050565b6000602082019050614d0e600083018461471a565b92915050565b6000604082019050614d29600083018561471a565b614d36602083018461471a565b9392505050565b6000606082019050614d526000830186614729565b614d5f6020830185614729565b614d6c6040830184614747565b949350505050565b6000604082019050614d896000830185614729565b614d966020830184614747565b9392505050565b6000602082019050614db26000830184614738565b92915050565b6000614dc2614dd3565b9050614dce828261531d565b919050565b6000604051905090565b600067ffffffffffffffff821115614df857614df7615453565b5b602082029050602081019050919050565b600067ffffffffffffffff821115614e2457614e23615453565b5b602082029050602081019050919050565b600067ffffffffffffffff821115614e5057614e4f615453565b5b614e5982615482565b9050602081019050919050565b6000819050602082019050919050565b6000819050602082019050919050565b600081519050919050565b600081519050919050565b600081519050919050565b6000602082019050919050565b6000602082019050919050565b600082825260208201905092915050565b600082825260208201905092915050565b600082825260208201905092915050565b600082825260208201905092915050565b600081905092915050565b6000614f1b8261520e565b9150614f268361520e565b9250827fffffffffffffffffffffffffffffffffffffffffffffffffffffffffffffffff03821115614f5b57614f5a615397565b5b828201905092915050565b6000614f718261520e565b9150614f7c8361520e565b925082614f8c57614f8b6153c6565b5b828204905092915050565b6000808291508390505b6001851115614fe157808604811115614fbd57614fbc615397565b5b6001851615614fcc5780820291505b8081029050614fda85615493565b9450614fa1565b94509492505050565b6000614ff58261520e565b915061500083615218565b925061502d7fffffffffffffffffffffffffffffffffffffffffffffffffffffffffffffffff8484615035565b905092915050565b6000826150455760019050615101565b816150535760009050615101565b81600181146150695760028114615073576150a2565b6001915050615101565b60ff84111561508557615084615397565b5b8360020a91508482111561509c5761509b615397565b5b50615101565b5060208310610133831016604e8410600b84101617156150d75782820a9050838111156150d2576150d1615397565b5b615101565b6150e48484846001614f97565b925090508184048111156150fb576150fa615397565b5b81810290505b9392505050565b60006151138261520e565b915061511e8361520e565b9250817fffffffffffffffffffffffffffffffffffffffffffffffffffffffffffffffff048311821515161561515757615156615397565b5b828202905092915050565b600061516d826151ee565b9050919050565b60008115159050919050565b6000819050919050565b60007fffffffff0000000000000000000000000000000000000000000000000000000082169050919050565b60006151c182615162565b9050919050565b60008190506151d682615593565b919050565b60008190506151e9826155a7565b919050565b600073ffffffffffffffffffffffffffffffffffffffff82169050919050565b6000819050919050565b600060ff82169050919050565b600061523082615237565b9050919050565b6000615242826151ee565b9050919050565b6000615254826151c8565b9050919050565b6000615266826151db565b9050919050565b60006152788261520e565b9050919050565b82818337600083830152505050565b60005b838110156152ac578082015181840152602081019050615291565b838111156152bb576000848401525b50505050565b60006152cc8261520e565b915060008214156152e0576152df615397565b5b600182039050919050565b6000600282049050600182168061530357607f821691505b6020821081141561531757615316615424565b5b50919050565b61532682615482565b810181811067ffffffffffffffff8211171561534557615344615453565b5b80604052505050565b60006153598261520e565b91507fffffffffffffffffffffffffffffffffffffffffffffffffffffffffffffffff82141561538c5761538b615397565b5b600182019050919050565b7f4e487b7100000000000000000000000000000000000000000000000000000000600052601160045260246000fd5b7f4e487b7100000000000000000000000000000000000000000000000000000000600052601260045260246000fd5b7f4e487b7100000000000000000000000000000000000000000000000000000000600052602160045260246000fd5b7f4e487b7100000000000000000000000000000000000000000000000000000000600052602260045260246000fd5b7f4e487b7100000000000000000000000000000000000000000000000000000000600052604160045260246000fd5b6000601f19601f8301169050919050565b60008160011c9050919050565b7f537472696e67733a20686578206c656e67746820696e73756666696369656e74600082015250565b7f426f72726f770000000000000000000000000000000000000000000000000000600082015250565b7f416363657373436f6e74726f6c3a206163636f756e7420000000000000000000600082015250565b7f206973206d697373696e6720726f6c6520000000000000000000000000000000600082015250565b7f416363657373436f6e74726f6c3a2063616e206f6e6c792072656e6f756e636560008201527f20726f6c657320666f722073656c660000000000000000000000000000000000602082015250565b601a81106155a4576155a36153f5565b5b50565b600481106155b8576155b76153f5565b5b50565b6155c481615162565b81146155cf57600080fd5b50565b6155db81615174565b81146155e657600080fd5b50565b6155f281615180565b81146155fd57600080fd5b50565b6156098161518a565b811461561457600080fd5b50565b615620816151b6565b811461562b57600080fd5b50565b6004811061563b57600080fd5b50565b6156478161520e565b811461565257600080fd5b50565b61565e81615218565b811461566957600080fd5b5056fea2646970667358221220de183c143245bedf5aa454f58132d4a9ce73d29e054c81bcadab85dc13776c4664736f6c63430008040033",
  "deployedBytecode": "0x608060405234801561001057600080fd5b50600436106102275760003560e01c806363ae097a11610130578063a217fddf116100b8578063bb987aef1161007c578063bb987aef1461064c578063c7333f0414610668578063d547741f14610686578063dec481b8146106a2578063eafe967b146106d257610227565b8063a217fddf14610591578063a30c302d146105af578063a8431081146105e4578063b10ed76814610600578063b35dd5dd1461061c57610227565b80638c765e94116100ff5780638c765e94146104d857806391d14854146104f6578063924f6ced1461052657806397ce0d31146105425780639e35e1421461056057610227565b806363ae097a146104665780637adbf973146104825780637dc0d1d01461049e578063806a9f80146104bc57610227565b806321e23a98116101b35780632f2ff15d116101825780632f2ff15d146103c657806336568abe146103e25780635cf232e6146103fe5780635efadbd11461041a578063635f8fc21461044a57610227565b806321e23a9814610342578063248a9ca31461035e57806328bc83c11461038e5780632c7c0ae8146103aa57610227565b80630ac8f744116101fa5780630ac8f744146102b45780630e52dbec146102d0578063186db48f146102ee5780631d48f1d61461030a5780631e69d4301461032657610227565b806301ffc9a71461022c57806305308b9f1461025c578063055d32541461027a57806307219b0914610296575b600080fd5b61024660048036038101906102419190614241565b6106ee565b6040516102539190614854565b60405180910390f35b610264610768565b6040516102719190614cf9565b60405180910390f35b610294600480360381019061028f9190613d58565b61076e565b005b61029e6108e3565b6040516102ab9190614832565b60405180910390f35b6102ce60048036038101906102c99190613ecf565b610987565b005b6102d8610c7d565b6040516102e59190614d9d565b60405180910390f35b610308600480360381019061030391906140a5565b610c90565b005b610324600480360381019061031f919061411a565b610fbe565b005b610340600480360381019061033b9190613fc2565b6110b3565b005b61035c60048036038101906103579190613ecf565b611370565b005b610378600480360381019061037391906141dc565b61145e565b604051610385919061486f565b60405180910390f35b6103a860048036038101906103a39190613d58565b61147d565b005b6103c460048036038101906103bf9190613df7565b6115f2565b005b6103e060048036038101906103db9190614205565b611954565b005b6103fc60048036038101906103f79190614205565b61197d565b005b61041860048036038101906104139190613ffe565b611a00565b005b610434600480360381019061042f9190613e80565b611cb6565b6040516104419190614cf9565b60405180910390f35b610464600480360381019061045f9190613e80565b611ffd565b005b610480600480360381019061047b9190613f32565b61217e565b005b61049c60048036038101906104979190613d2f565b6122ea565b005b6104a661237b565b6040516104b3919061488a565b60405180910390f35b6104d660048036038101906104d1919061434f565b6123a1565b005b6104e06123af565b6040516104ed9190614cf9565b60405180910390f35b610510600480360381019061050b9190614205565b6123b5565b60405161051d9190614854565b60405180910390f35b610540600480360381019061053b9190613d58565b61241f565b005b61054a612594565b6040516105579190614810565b60405180910390f35b61057a60048036038101906105759190613fc2565b612622565b604051610588929190614d14565b60405180910390f35b6105996126e9565b6040516105a6919061486f565b60405180910390f35b6105c960048036038101906105c49190613d2f565b6126f0565b6040516105db9695949392919061490b565b60405180910390f35b6105fe60048036038101906105f991906142fd565b612934565b005b61061a60048036038101906106159190613d2f565b612954565b005b610636600480360381019061063191906142fd565b6129e7565b6040516106439190614790565b60405180910390f35b61066660048036038101906106619190613fc2565b612a26565b005b610670612bb9565b60405161067d9190614790565b60405180910390f35b6106a0600480360381019061069b9190614205565b612be5565b005b6106bc60048036038101906106b79190613f86565b612c0e565b6040516106c99190614854565b60405180910390f35b6106ec60048036038101906106e79190613d94565b612d56565b005b60007f7965db0b000000000000000000000000000000000000000000000000000000007bffffffffffffffffffffffffffffffffffffffffffffffffffffffff1916827bffffffffffffffffffffffffffffffffffffffffffffffffffffffff19161480610761575061076082612ec0565b5b9050919050565b60055481565b600160000160008373ffffffffffffffffffffffffffffffffffffffff1673ffffffffffffffffffffffffffffffffffffffff16815260200190815260200160002060020160009054906101000a900460ff166108035760016040517fede8a5990000000000000000000000000000000000000000000000000000000081526004016107fa91906148a5565b60405180910390fd5b600973__$362cfe25f3e11228b53aea52cf811ef65a$__63cfabf395909143856040518463ffffffff1660e01b815260040161084193929190614bd6565b60006040518083038186803b15801561085957600080fd5b505af415801561086d573d6000803e3d6000fd5b50505050600973__$362cfe25f3e11228b53aea52cf811ef65a$__63eb5df71c909184846040518463ffffffff1660e01b81526004016108af93929190614b9f565b60006040518083038186803b1580156108c757600080fd5b505af41580156108db573d6000803e3d6000fd5b505050505050565b606073__$90f1fa1b3f91137ac60e95891d324fdd69$__63ee5c40d442600760009054906101000a900460ff166040518363ffffffff1660e01b815260040161092d929190614d74565b60006040518083038186803b15801561094557600080fd5b505af4158015610959573d6000803e3d6000fd5b505050506040513d6000823e3d601f19601f820116820180604052508101906109829190614172565b905090565b6001800160008573ffffffffffffffffffffffffffffffffffffffff1673ffffffffffffffffffffffffffffffffffffffff16815260200190815260200160002060009054906101000a900460ff1615610a1957600e6040517fede8a599000000000000000000000000000000000000000000000000000000008152600401610a1091906148a5565b60405180910390fd5b610a24816002612f2a565b600173__$a5e3e26db51d661f8cd2686e868ae9d1a5$__63ce41cb4c9091868686866040518663ffffffff1660e01b8152600401610a669594939291906149ff565b60006040518083038186803b158015610a7e57600080fd5b505af4158015610a92573d6000803e3d6000fd5b505050506000600173__$a5e3e26db51d661f8cd2686e868ae9d1a5$__63bde290fb9091600c60009054906101000a900473ffffffffffffffffffffffffffffffffffffffff1687868a60008a6040518863ffffffff1660e01b8152600401610b019796959493929190614ac1565b604080518083038186803b158015610b1857600080fd5b505af4158015610b2c573d6000803e3d6000fd5b505050506040513d601f19601f82011682018060405250810190610b50919061438b565b9150506000811115610b9a5760056040517fede8a599000000000000000000000000000000000000000000000000000000008152600401610b9191906148a5565b60405180910390fd5b600973__$362cfe25f3e11228b53aea52cf811ef65a$__63f54529ae909143886040518463ffffffff1660e01b8152600401610bd893929190614bd6565b60006040518083038186803b158015610bf057600080fd5b505af4158015610c04573d6000803e3d6000fd5b50505050600973__$362cfe25f3e11228b53aea52cf811ef65a$__6303ef12f4909187876040518463ffffffff1660e01b8152600401610c4693929190614b9f565b60006040518083038186803b158015610c5e57600080fd5b505af4158015610c72573d6000803e3d6000fd5b505050505050505050565b600760009054906101000a900460ff1681565b6000801b610ca581610ca0613083565b61308b565b600085859050905060008484905090506000821480610cc45750808214155b15610d075760106040517fede8a599000000000000000000000000000000000000000000000000000000008152600401610cfe91906148a5565b60405180910390fd5b60005b82811015610fb45760016000016000898984818110610d52577f4e487b7100000000000000000000000000000000000000000000000000000000600052603260045260246000fd5b9050602002016020810190610d679190613d2f565b73ffffffffffffffffffffffffffffffffffffffff1673ffffffffffffffffffffffffffffffffffffffff16815260200190815260200160002060020160009054906101000a900460ff16610df45760016040517fede8a599000000000000000000000000000000000000000000000000000000008152600401610deb91906148a5565b60405180910390fd5b858582818110610e2d577f4e487b7100000000000000000000000000000000000000000000000000000000600052603260045260246000fd5b90506020020135600160020160008a8a85818110610e74577f4e487b7100000000000000000000000000000000000000000000000000000000600052603260045260246000fd5b9050602002016020810190610e899190613d2f565b73ffffffffffffffffffffffffffffffffffffffff1673ffffffffffffffffffffffffffffffffffffffff16815260200190815260200160002081905550878782818110610f00577f4e487b7100000000000000000000000000000000000000000000000000000000600052603260045260246000fd5b9050602002016020810190610f159190613d2f565b73ffffffffffffffffffffffffffffffffffffffff167f6f1951b2aad10f3fc81b86d91105b413a5b3f847a34bbc5ce1904201b14438f6878784818110610f85577f4e487b7100000000000000000000000000000000000000000000000000000000600052603260045260246000fd5b90506020020135604051610f999190614cf9565b60405180910390a28080610fac9061534e565b915050610d0a565b5050505050505050565b610fc9816002612f2a565b600083839050905060005b818110156110ac57600173__$a5e3e26db51d661f8cd2686e868ae9d1a5$__6363a6cadd9091878785818110611033577f4e487b7100000000000000000000000000000000000000000000000000000000600052603260045260246000fd5b90506020020160208101906110489190613d2f565b33876040518563ffffffff1660e01b815260040161106994939291906149ba565b60006040518083038186803b15801561108157600080fd5b505af4158015611095573d6000803e3d6000fd5b5050505080806110a49061534e565b915050610fd4565b5050505050565b600160000160008373ffffffffffffffffffffffffffffffffffffffff1673ffffffffffffffffffffffffffffffffffffffff16815260200190815260200160002060020160009054906101000a900460ff166111485760016040517fede8a59900000000000000000000000000000000000000000000000000000000815260040161113f91906148a5565b60405180910390fd5b600082905073__$90f1fa1b3f91137ac60e95891d324fdd69$__63b142980a836040518263ffffffff1660e01b81526004016111849190614cde565b60206040518083038186803b15801561119c57600080fd5b505af41580156111b0573d6000803e3d6000fd5b505050506040513d601f19601f820116820180604052508101906111d491906141b3565b61121657600c6040517fede8a59900000000000000000000000000000000000000000000000000000000815260040161120d91906148a5565b60405180910390fd5b6000808273ffffffffffffffffffffffffffffffffffffffff166355a1ac2e33866040518363ffffffff1660e01b81526004016112549291906147e7565b604080518083038186803b15801561126b57600080fd5b505afa15801561127f573d6000803e3d6000fd5b505050506040513d601f19601f820116820180604052508101906112a3919061438b565b91509150600081146112ed5760146040517fede8a5990000000000000000000000000000000000000000000000000000000081526004016112e491906148a5565b60405180910390fd5b6112f985338487613128565b600173__$a5e3e26db51d661f8cd2686e868ae9d1a5$__632c0636c790918733886040518563ffffffff1660e01b815260040161133994939291906149ba565b60006040518083038186803b15801561135157600080fd5b505af4158015611365573d6000803e3d6000fd5b505050505050505050565b61137c84848484613128565b600973__$362cfe25f3e11228b53aea52cf811ef65a$__63a32ae44d909143876040518463ffffffff1660e01b81526004016113ba93929190614bd6565b60006040518083038186803b1580156113d257600080fd5b505af41580156113e6573d6000803e3d6000fd5b50505050600973__$362cfe25f3e11228b53aea52cf811ef65a$__633e9e174a909186866040518463ffffffff1660e01b815260040161142893929190614b9f565b60006040518083038186803b15801561144057600080fd5b505af4158015611454573d6000803e3d6000fd5b5050505050505050565b6000806000838152602001908152602001600020600101549050919050565b600160000160008373ffffffffffffffffffffffffffffffffffffffff1673ffffffffffffffffffffffffffffffffffffffff16815260200190815260200160002060020160009054906101000a900460ff166115125760016040517fede8a59900000000000000000000000000000000000000000000000000000000815260040161150991906148a5565b60405180910390fd5b600973__$362cfe25f3e11228b53aea52cf811ef65a$__63cfabf395909143856040518463ffffffff1660e01b815260040161155093929190614bd6565b60006040518083038186803b15801561156857600080fd5b505af415801561157c573d6000803e3d6000fd5b50505050600973__$362cfe25f3e11228b53aea52cf811ef65a$__63eb5df71c909184846040518463ffffffff1660e01b81526004016115be93929190614b9f565b60006040518083038186803b1580156115d657600080fd5b505af41580156115ea573d6000803e3d6000fd5b505050505050565b8373ffffffffffffffffffffffffffffffffffffffff168373ffffffffffffffffffffffffffffffffffffffff16141561166457600d6040517fede8a59900000000000000000000000000000000000000000000000000000000815260040161165b91906148a5565b60405180910390fd5b600160000160008773ffffffffffffffffffffffffffffffffffffffff1673ffffffffffffffffffffffffffffffffffffffff16815260200190815260200160002060020160009054906101000a900460ff1615806117135750600160000160008673ffffffffffffffffffffffffffffffffffffffff1673ffffffffffffffffffffffffffffffffffffffff16815260200190815260200160002060020160009054906101000a900460ff16155b156117565760016040517fede8a59900000000000000000000000000000000000000000000000000000000815260040161174d91906148a5565b60405180910390fd5b6000600173__$a5e3e26db51d661f8cd2686e868ae9d1a5$__63bde290fb9091600c60009054906101000a900473ffffffffffffffffffffffffffffffffffffffff16878660008060006040518863ffffffff1660e01b81526004016117c29796959493929190614a52565b604080518083038186803b1580156117d957600080fd5b505af41580156117ed573d6000803e3d6000fd5b505050506040513d601f19601f82011682018060405250810190611811919061438b565b915050600081141561185b5760066040517fede8a59900000000000000000000000000000000000000000000000000000000815260040161185291906148a5565b60405180910390fd5b60008773ffffffffffffffffffffffffffffffffffffffff166355a1ac2e86856040518363ffffffff1660e01b81526004016118989291906147e7565b604080518083038186803b1580156118af57600080fd5b505afa1580156118c3573d6000803e3d6000fd5b505050506040513d601f19601f820116820180604052508101906118e7919061438b565b91505060006119018260055461337e90919063ffffffff16565b9050808511156119495760086040517fede8a59900000000000000000000000000000000000000000000000000000000815260040161194091906148a5565b60405180910390fd5b505050505050505050565b61195d8261145e565b61196e81611969613083565b61308b565b61197883836133a7565b505050565b611985613083565b73ffffffffffffffffffffffffffffffffffffffff168173ffffffffffffffffffffffffffffffffffffffff16146119f2576040517f08c379a00000000000000000000000000000000000000000000000000000000081526004016119e99061499a565b60405180910390fd5b6119fc8282613487565b5050565b6000801b611a1581611a10613083565b61308b565b6000600160000160008873ffffffffffffffffffffffffffffffffffffffff1673ffffffffffffffffffffffffffffffffffffffff16815260200190815260200160002090508060020160009054906101000a900460ff1615611ab05760026040517fede8a599000000000000000000000000000000000000000000000000000000008152600401611aa791906148a5565b60405180910390fd5b3073ffffffffffffffffffffffffffffffffffffffff168773ffffffffffffffffffffffffffffffffffffffff1663b72ddee96040518163ffffffff1660e01b815260040160206040518083038186803b158015611b0d57600080fd5b505afa158015611b21573d6000803e3d6000fd5b505050506040513d601f19601f82011682018060405250810190611b45919061426a565b73ffffffffffffffffffffffffffffffffffffffff1614611b9e5760076040517fede8a599000000000000000000000000000000000000000000000000000000008152600401611b9591906148a5565b60405180910390fd5b60018160020160006101000a81548160ff02191690831515021790555085816003018190555084816000019080519060200190611bdc929190613915565b5083816001019080519060200190611bf5929190613915565b50828160040160006101000a81548160ff021916908360ff1602179055506008879080600181540180825580915050600190039060005260206000200160009091909190916101000a81548173ffffffffffffffffffffffffffffffffffffffff021916908373ffffffffffffffffffffffffffffffffffffffff1602179055507fcf583bb0c569eb967f806b11601c4cb93c10310485c67add5f8362c2f212321f87604051611ca59190614790565b60405180910390a150505050505050565b600080600c60009054906101000a900473ffffffffffffffffffffffffffffffffffffffff1673ffffffffffffffffffffffffffffffffffffffff16632aedd0eb8673ffffffffffffffffffffffffffffffffffffffff166391f3e4726040518163ffffffff1660e01b815260040160006040518083038186803b158015611d3d57600080fd5b505afa158015611d51573d6000803e3d6000fd5b505050506040513d6000823e3d601f19601f82011682018060405250810190611d7a91906142bc565b6040518263ffffffff1660e01b8152600401611d9691906148e9565b60206040518083038186803b158015611dae57600080fd5b505afa158015611dc2573d6000803e3d6000fd5b505050506040513d601f19601f82011682018060405250810190611de69190614326565b90506000600c60009054906101000a900473ffffffffffffffffffffffffffffffffffffffff1673ffffffffffffffffffffffffffffffffffffffff16632aedd0eb8673ffffffffffffffffffffffffffffffffffffffff166391f3e4726040518163ffffffff1660e01b815260040160006040518083038186803b158015611e6e57600080fd5b505afa158015611e82573d6000803e3d6000fd5b505050506040513d6000823e3d601f19601f82011682018060405250810190611eab91906142bc565b6040518263ffffffff1660e01b8152600401611ec791906148e9565b60206040518083038186803b158015611edf57600080fd5b505afa158015611ef3573d6000803e3d6000fd5b505050506040513d601f19601f82011682018060405250810190611f179190614326565b90506000611f788584600160000160008b73ffffffffffffffffffffffffffffffffffffffff1673ffffffffffffffffffffffffffffffffffffffff16815260200190815260200160002060040160009054906101000a900460ff16613568565b90506000611fd98284600160000160008b73ffffffffffffffffffffffffffffffffffffffff1673ffffffffffffffffffffffffffffffffffffffff16815260200190815260200160002060040160009054906101000a900460ff166135c7565b9050611ff06006548261337e90919063ffffffff16565b9450505050509392505050565b600160000160008473ffffffffffffffffffffffffffffffffffffffff1673ffffffffffffffffffffffffffffffffffffffff16815260200190815260200160002060020160009054906101000a900460ff166120925760016040517fede8a59900000000000000000000000000000000000000000000000000000000815260040161208991906148a5565b60405180910390fd5b61209d816002612f2a565b600973__$362cfe25f3e11228b53aea52cf811ef65a$__63a32ae44d909143866040518463ffffffff1660e01b81526004016120db93929190614bd6565b60006040518083038186803b1580156120f357600080fd5b505af4158015612107573d6000803e3d6000fd5b50505050600973__$362cfe25f3e11228b53aea52cf811ef65a$__633e9e174a909185856040518463ffffffff1660e01b815260040161214993929190614b9f565b60006040518083038186803b15801561216157600080fd5b505af4158015612175573d6000803e3d6000fd5b50505050505050565b6000600167ffffffffffffffff8111156121c1577f4e487b7100000000000000000000000000000000000000000000000000000000600052604160045260246000fd5b6040519080825280602002602001820160405280156121ef5781602001602082028036833780820191505090505b509050828160008151811061222d577f4e487b7100000000000000000000000000000000000000000000000000000000600052603260045260246000fd5b602002602001019073ffffffffffffffffffffffffffffffffffffffff16908173ffffffffffffffffffffffffffffffffffffffff1681525050600973__$362cfe25f3e11228b53aea52cf811ef65a$__633d00bbe59091436001600001858760018060016040518963ffffffff1660e01b81526004016122b5989796959493929190614c52565b60006040518083038186803b1580156122cd57600080fd5b505af41580156122e1573d6000803e3d6000fd5b50505050505050565b6000801b6122ff816122fa613083565b61308b565b81600c60006101000a81548173ffffffffffffffffffffffffffffffffffffffff021916908373ffffffffffffffffffffffffffffffffffffffff1602179055507f0e05ae75e8b926552cf6fcd744d19f422561e3ced1e426868730852702dbe4188260405161236f9190614790565b60405180910390a15050565b600c60009054906101000a900473ffffffffffffffffffffffffffffffffffffffff1681565b6123ab8282612f2a565b5050565b60065481565b600080600084815260200190815260200160002060000160008373ffffffffffffffffffffffffffffffffffffffff1673ffffffffffffffffffffffffffffffffffffffff16815260200190815260200160002060009054906101000a900460ff16905092915050565b600160000160008373ffffffffffffffffffffffffffffffffffffffff1673ffffffffffffffffffffffffffffffffffffffff16815260200190815260200160002060020160009054906101000a900460ff166124b45760016040517fede8a5990000000000000000000000000000000000000000000000000000000081526004016124ab91906148a5565b60405180910390fd5b600973__$362cfe25f3e11228b53aea52cf811ef65a$__63f54529ae909143856040518463ffffffff1660e01b81526004016124f293929190614bd6565b60006040518083038186803b15801561250a57600080fd5b505af415801561251e573d6000803e3d6000fd5b50505050600973__$362cfe25f3e11228b53aea52cf811ef65a$__6303ef12f4909184846040518463ffffffff1660e01b815260040161256093929190614b9f565b60006040518083038186803b15801561257857600080fd5b505af415801561258c573d6000803e3d6000fd5b505050505050565b6060600880548060200260200160405190810160405280929190818152602001828054801561261857602002820191906000526020600020905b8160009054906101000a900473ffffffffffffffffffffffffffffffffffffffff1673ffffffffffffffffffffffffffffffffffffffff16815260200190600101908083116125ce575b5050505050905090565b600080600173__$a5e3e26db51d661f8cd2686e868ae9d1a5$__63bde290fb9091600c60009054906101000a900473ffffffffffffffffffffffffffffffffffffffff16878760008060006040518863ffffffff1660e01b815260040161268f9796959493929190614a52565b604080518083038186803b1580156126a657600080fd5b505af41580156126ba573d6000803e3d6000fd5b505050506040513d601f19601f820116820180604052508101906126de919061438b565b915091509250929050565b6000801b81565b606080600080600080600160000160008873ffffffffffffffffffffffffffffffffffffffff1673ffffffffffffffffffffffffffffffffffffffff16815260200190815260200160002060020160009054906101000a900460ff1661278e5760016040517fede8a59900000000000000000000000000000000000000000000000000000000815260040161278591906148a5565b60405180910390fd5b6000600160000160008973ffffffffffffffffffffffffffffffffffffffff1673ffffffffffffffffffffffffffffffffffffffff168152602001908152602001600020905080600001816001018260020160009054906101000a900460ff1683600301548460040160009054906101000a900460ff168c858054612812906152eb565b80601f016020809104026020016040519081016040528092919081815260200182805461283e906152eb565b801561288b5780601f106128605761010080835404028352916020019161288b565b820191906000526020600020905b81548152906001019060200180831161286e57829003601f168201915b5050505050955084805461289e906152eb565b80601f01602080910402602001604051908101604052809291908181526020018280546128ca906152eb565b80156129175780601f106128ec57610100808354040283529160200191612917565b820191906000526020600020905b8154815290600101906020018083116128fa57829003601f168201915b505050505094509650965096509650965096505091939550919395565b6000801b61294981612944613083565b61308b565b816006819055505050565b6129e48160088054806020026020016040519081016040528092919081815260200182805480156129da57602002820191906000526020600020905b8160009054906101000a900473ffffffffffffffffffffffffffffffffffffffff1673ffffffffffffffffffffffffffffffffffffffff1681526020019060010190808311612990575b505050505061217e565b50565b600881815481106129f757600080fd5b906000526020600020016000915054906101000a900473ffffffffffffffffffffffffffffffffffffffff1681565b6000801b612a3b81612a36613083565b61308b565b6000600160000160008573ffffffffffffffffffffffffffffffffffffffff1673ffffffffffffffffffffffffffffffffffffffff1681526020019081526020016000209050600015158160020160009054906101000a900460ff1615151415612add5760016040517fede8a599000000000000000000000000000000000000000000000000000000008152600401612ad491906148a5565b60405180910390fd5b60011515600973__$362cfe25f3e11228b53aea52cf811ef65a$__6353962db490914388886040518563ffffffff1660e01b8152600401612b219493929190614c0d565b60206040518083038186803b158015612b3957600080fd5b505af4158015612b4d573d6000803e3d6000fd5b505050506040513d601f19601f82011682018060405250810190612b7191906141b3565b15151415612bb3577fdbe1acf0f191a9aecba27ad74b59bb70426fe3f6129596f53b0f03a230c083238484604051612baa9291906147e7565b60405180910390a15b50505050565b60098060000160009054906101000a900473ffffffffffffffffffffffffffffffffffffffff16905081565b612bee8261145e565b612bff81612bfa613083565b61308b565b612c098383613487565b505050565b60008060001b612c2581612c20613083565b61308b565b600160000160008573ffffffffffffffffffffffffffffffffffffffff1673ffffffffffffffffffffffffffffffffffffffff16815260200190815260200160002060020160009054906101000a900460ff16612cba5760016040517fede8a599000000000000000000000000000000000000000000000000000000008152600401612cb191906148a5565b60405180910390fd5b826001800160008673ffffffffffffffffffffffffffffffffffffffff1673ffffffffffffffffffffffffffffffffffffffff16815260200190815260200160002060006101000a81548160ff0219169083151502179055507f71aec636243f9709bb0007ae15e9afb8150ab01716d75fd7573be5cc096e03b08484604051612d449291906147ab565b60405180910390a18291505092915050565b8173ffffffffffffffffffffffffffffffffffffffff168173ffffffffffffffffffffffffffffffffffffffff161415612dc857600d6040517fede8a599000000000000000000000000000000000000000000000000000000008152600401612dbf91906148a5565b60405180910390fd5b600160000160008573ffffffffffffffffffffffffffffffffffffffff1673ffffffffffffffffffffffffffffffffffffffff16815260200190815260200160002060020160009054906101000a900460ff161580612e775750600160000160008473ffffffffffffffffffffffffffffffffffffffff1673ffffffffffffffffffffffffffffffffffffffff16815260200190815260200160002060020160009054906101000a900460ff16155b15612eba5760016040517fede8a599000000000000000000000000000000000000000000000000000000008152600401612eb191906148a5565b60405180910390fd5b50505050565b60007f01ffc9a7000000000000000000000000000000000000000000000000000000007bffffffffffffffffffffffffffffffffffffffffffffffffffffffff1916827bffffffffffffffffffffffffffffffffffffffffffffffffffffffff1916149050919050565b600073__$90f1fa1b3f91137ac60e95891d324fdd69$__63da4b8a4c4285600760009054906101000a900460ff166040518463ffffffff1660e01b8152600401612f7693929190614d3d565b60206040518083038186803b158015612f8e57600080fd5b505af4158015612fa2573d6000803e3d6000fd5b505050506040513d601f19601f82011682018060405250810190612fc69190614293565b9050816003811115613001577f4e487b7100000000000000000000000000000000000000000000000000000000600052602160045260246000fd5b81600381111561303a577f4e487b7100000000000000000000000000000000000000000000000000000000600052602160045260246000fd5b1461307e5780826040517f34e2603a0000000000000000000000000000000000000000000000000000000081526004016130759291906148c0565b60405180910390fd5b505050565b600033905090565b61309582826123b5565b613124576130ba8173ffffffffffffffffffffffffffffffffffffffff16601461361b565b6130c88360001c602061361b565b6040516020016130d9929190614756565b6040516020818303038152906040526040517f08c379a000000000000000000000000000000000000000000000000000000000815260040161311b91906148e9565b60405180910390fd5b5050565b600160000160008573ffffffffffffffffffffffffffffffffffffffff1673ffffffffffffffffffffffffffffffffffffffff16815260200190815260200160002060020160009054906101000a900460ff166131bd5760016040517fede8a5990000000000000000000000000000000000000000000000000000000081526004016131b491906148a5565b60405180910390fd5b6131c8816001612f2a565b600160000160008573ffffffffffffffffffffffffffffffffffffffff1673ffffffffffffffffffffffffffffffffffffffff16815260200190815260200160002060050160008473ffffffffffffffffffffffffffffffffffffffff1673ffffffffffffffffffffffffffffffffffffffff168152602001908152602001600020600082815260200190815260200160002060009054906101000a900460ff1661327257613378565b6000600173__$a5e3e26db51d661f8cd2686e868ae9d1a5$__63bde290fb9091600c60009054906101000a900473ffffffffffffffffffffffffffffffffffffffff1687868a8960006040518863ffffffff1660e01b81526004016132dd9796959493929190614b30565b604080518083038186803b1580156132f457600080fd5b505af4158015613308573d6000803e3d6000fd5b505050506040513d601f19601f8201168201806040525081019061332c919061438b565b91505060008111156133765760056040517fede8a59900000000000000000000000000000000000000000000000000000000815260040161336d91906148a5565b60405180910390fd5b505b50505050565b6000670de0b6b3a764000082846133959190615108565b61339f9190614f66565b905092915050565b6133b182826123b5565b61348357600160008084815260200190815260200160002060000160008373ffffffffffffffffffffffffffffffffffffffff1673ffffffffffffffffffffffffffffffffffffffff16815260200190815260200160002060006101000a81548160ff021916908315150217905550613428613083565b73ffffffffffffffffffffffffffffffffffffffff168173ffffffffffffffffffffffffffffffffffffffff16837f2f8788117e7eff1d82e926ec794901d17c78024a50270940304540a733656f0d60405160405180910390a45b5050565b61349182826123b5565b1561356457600080600084815260200190815260200160002060000160008373ffffffffffffffffffffffffffffffffffffffff1673ffffffffffffffffffffffffffffffffffffffff16815260200190815260200160002060006101000a81548160ff021916908315150217905550613509613083565b73ffffffffffffffffffffffffffffffffffffffff168173ffffffffffffffffffffffffffffffffffffffff16837ff6391f5c32d9c69d2a47ea670b442974b53935d1edc7fd64eb21e047a839171b60405160405180910390a45b5050565b60008082600a6135789190614fea565b9050600081670de0b6b3a7640000876135919190615108565b61359b9190614f66565b9050670de0b6b3a764000085826135b29190615108565b6135bc9190614f66565b925050509392505050565b6000670de0b6b3a764000082600a6135df9190614fea565b84670de0b6b3a7640000876135f49190615108565b6135fe9190614f66565b6136089190615108565b6136129190614f66565b90509392505050565b60606000600283600261362e9190615108565b6136389190614f10565b67ffffffffffffffff811115613677577f4e487b7100000000000000000000000000000000000000000000000000000000600052604160045260246000fd5b6040519080825280601f01601f1916602001820160405280156136a95781602001600182028036833780820191505090505b5090507f300000000000000000000000000000000000000000000000000000000000000081600081518110613707577f4e487b7100000000000000000000000000000000000000000000000000000000600052603260045260246000fd5b60200101907effffffffffffffffffffffffffffffffffffffffffffffffffffffffffffff1916908160001a9053507f780000000000000000000000000000000000000000000000000000000000000081600181518110613791577f4e487b7100000000000000000000000000000000000000000000000000000000600052603260045260246000fd5b60200101907effffffffffffffffffffffffffffffffffffffffffffffffffffffffffffff1916908160001a905350600060018460026137d19190615108565b6137db9190614f10565b90505b60018111156138c7577f3031323334353637383961626364656600000000000000000000000000000000600f861660108110613843577f4e487b7100000000000000000000000000000000000000000000000000000000600052603260045260246000fd5b1a60f81b828281518110613880577f4e487b7100000000000000000000000000000000000000000000000000000000600052603260045260246000fd5b60200101907effffffffffffffffffffffffffffffffffffffffffffffffffffffffffffff1916908160001a905350600485901c9450806138c0906152c1565b90506137de565b506000841461390b576040517f08c379a00000000000000000000000000000000000000000000000000000000081526004016139029061497a565b60405180910390fd5b8091505092915050565b828054613921906152eb565b90600052602060002090601f016020900481019282613943576000855561398a565b82601f1061395c57805160ff191683800117855561398a565b8280016001018555821561398a579182015b8281111561398957825182559160200191906001019061396e565b5b509050613997919061399b565b5090565b5b808211156139b457600081600090555060010161399c565b5090565b60006139cb6139c684614ddd565b614db8565b905080838252602082019050828560208602820111156139ea57600080fd5b60005b85811015613a1a5781613a008882613b0c565b8452602084019350602083019250506001810190506139ed565b5050509392505050565b6000613a37613a3284614e09565b614db8565b90508083825260208201905082856020860282011115613a5657600080fd5b60005b85811015613a865781613a6c8882613d05565b845260208401935060208301925050600181019050613a59565b5050509392505050565b6000613aa3613a9e84614e35565b614db8565b905082815260208101848484011115613abb57600080fd5b613ac684828561527f565b509392505050565b6000613ae1613adc84614e35565b614db8565b905082815260208101848484011115613af957600080fd5b613b0484828561528e565b509392505050565b600081359050613b1b816155bb565b92915050565b60008083601f840112613b3357600080fd5b8235905067ffffffffffffffff811115613b4c57600080fd5b602083019150836020820283011115613b6457600080fd5b9250929050565b600082601f830112613b7c57600080fd5b8135613b8c8482602086016139b8565b91505092915050565b60008083601f840112613ba757600080fd5b8235905067ffffffffffffffff811115613bc057600080fd5b602083019150836020820283011115613bd857600080fd5b9250929050565b600082601f830112613bf057600080fd5b8151613c00848260208601613a24565b91505092915050565b600081359050613c18816155d2565b92915050565b600081519050613c2d816155d2565b92915050565b600081359050613c42816155e9565b92915050565b600081359050613c5781615600565b92915050565b600081519050613c6c81615617565b92915050565b600081359050613c818161562e565b92915050565b600081519050613c968161562e565b92915050565b600082601f830112613cad57600080fd5b8135613cbd848260208601613a90565b91505092915050565b600082601f830112613cd757600080fd5b8151613ce7848260208601613ace565b91505092915050565b600081359050613cff8161563e565b92915050565b600081519050613d148161563e565b92915050565b600081359050613d2981615655565b92915050565b600060208284031215613d4157600080fd5b6000613d4f84828501613b0c565b91505092915050565b60008060408385031215613d6b57600080fd5b6000613d7985828601613b0c565b9250506020613d8a85828601613b0c565b9150509250929050565b60008060008060808587031215613daa57600080fd5b6000613db887828801613b0c565b9450506020613dc987828801613b0c565b9350506040613dda87828801613b0c565b9250506060613deb87828801613b0c565b91505092959194509250565b60008060008060008060c08789031215613e1057600080fd5b6000613e1e89828a01613b0c565b9650506020613e2f89828a01613b0c565b9550506040613e4089828a01613b0c565b9450506060613e5189828a01613b0c565b9350506080613e6289828a01613cf0565b92505060a0613e7389828a01613cf0565b9150509295509295509295565b600080600060608486031215613e9557600080fd5b6000613ea386828701613b0c565b9350506020613eb486828701613b0c565b9250506040613ec586828701613cf0565b9150509250925092565b60008060008060808587031215613ee557600080fd5b6000613ef387828801613b0c565b9450506020613f0487828801613b0c565b9350506040613f1587828801613cf0565b9250506060613f2687828801613cf0565b91505092959194509250565b60008060408385031215613f4557600080fd5b6000613f5385828601613b0c565b925050602083013567ffffffffffffffff811115613f7057600080fd5b613f7c85828601613b6b565b9150509250929050565b60008060408385031215613f9957600080fd5b6000613fa785828601613b0c565b9250506020613fb885828601613c09565b9150509250929050565b60008060408385031215613fd557600080fd5b6000613fe385828601613b0c565b9250506020613ff485828601613cf0565b9150509250929050565b600080600080600060a0868803121561401657600080fd5b600061402488828901613b0c565b955050602061403588828901613cf0565b945050604086013567ffffffffffffffff81111561405257600080fd5b61405e88828901613c9c565b935050606086013567ffffffffffffffff81111561407b57600080fd5b61408788828901613c9c565b925050608061409888828901613d1a565b9150509295509295909350565b600080600080604085870312156140bb57600080fd5b600085013567ffffffffffffffff8111156140d557600080fd5b6140e187828801613b21565b9450945050602085013567ffffffffffffffff81111561410057600080fd5b61410c87828801613b95565b925092505092959194509250565b60008060006040848603121561412f57600080fd5b600084013567ffffffffffffffff81111561414957600080fd5b61415586828701613b21565b9350935050602061416886828701613cf0565b9150509250925092565b60006020828403121561418457600080fd5b600082015167ffffffffffffffff81111561419e57600080fd5b6141aa84828501613bdf565b91505092915050565b6000602082840312156141c557600080fd5b60006141d384828501613c1e565b91505092915050565b6000602082840312156141ee57600080fd5b60006141fc84828501613c33565b91505092915050565b6000806040838503121561421857600080fd5b600061422685828601613c33565b925050602061423785828601613b0c565b9150509250929050565b60006020828403121561425357600080fd5b600061426184828501613c48565b91505092915050565b60006020828403121561427c57600080fd5b600061428a84828501613c5d565b91505092915050565b6000602082840312156142a557600080fd5b60006142b384828501613c87565b91505092915050565b6000602082840312156142ce57600080fd5b600082015167ffffffffffffffff8111156142e857600080fd5b6142f484828501613cc6565b91505092915050565b60006020828403121561430f57600080fd5b600061431d84828501613cf0565b91505092915050565b60006020828403121561433857600080fd5b600061434684828501613d05565b91505092915050565b6000806040838503121561436257600080fd5b600061437085828601613cf0565b925050602061438185828601613c72565b9150509250929050565b6000806040838503121561439e57600080fd5b60006143ac85828601613d05565b92505060206143bd85828601613d05565b9150509250929050565b60006143d3838361440f565b60208301905092915050565b60006143eb838361443c565b60208301905092915050565b6000614403838361470b565b60208301905092915050565b61441881615162565b82525050565b61442781615162565b82525050565b61443681615162565b82525050565b61444581615162565b82525050565b600061445682614e86565b6144608185614ec1565b935061446b83614e66565b8060005b8381101561449c57815161448388826143c7565b975061448e83614ea7565b92505060018101905061446f565b5085935050505092915050565b60006144b482614e86565b6144be8185614ed2565b93506144c983614e66565b8060005b838110156144fa5781516144e188826143df565b97506144ec83614ea7565b9250506001810190506144cd565b5085935050505092915050565b600061451282614e91565b61451c8185614ee3565b935061452783614e76565b8060005b8381101561455857815161453f88826143f7565b975061454a83614eb4565b92505060018101905061452b565b5085935050505092915050565b61456e81615174565b82525050565b61457d81615174565b82525050565b61458c81615180565b82525050565b61459b81615225565b82525050565b6145aa81615225565b82525050565b6145b981615249565b82525050565b6145c88161525b565b82525050565b8082525050565b6145de8161526d565b82525050565b60006145ef82614e9c565b6145f98185614ef4565b935061460981856020860161528e565b61461281615482565b840191505092915050565b600061462882614e9c565b6146328185614f05565b935061464281856020860161528e565b80840191505092915050565b600061465b602083614ef4565b9150614666826154a0565b602082019050919050565b600061467e600683614ef4565b9150614689826154c9565b602082019050919050565b60006146a1601783614f05565b91506146ac826154f2565b601782019050919050565b60006146c4601183614f05565b91506146cf8261551b565b601182019050919050565b60006146e7602f83614ef4565b91506146f282615544565b604082019050919050565b8082525050565b8082525050565b6147148161520e565b82525050565b6147238161520e565b82525050565b6147328161520e565b82525050565b61474181615218565b82525050565b61475081615218565b82525050565b600061476182614694565b915061476d828561461d565b9150614778826146b7565b9150614784828461461d565b91508190509392505050565b60006020820190506147a5600083018461441e565b92915050565b60006060820190506147c0600083018561441e565b81810360208301526147d181614671565b90506147e06040830184614565565b9392505050565b60006040820190506147fc600083018561441e565b614809602083018461471a565b9392505050565b6000602082019050818103600083015261482a818461444b565b905092915050565b6000602082019050818103600083015261484c8184614507565b905092915050565b60006020820190506148696000830184614565565b92915050565b60006020820190506148846000830184614583565b92915050565b600060208201905061489f6000830184614592565b92915050565b60006020820190506148ba60008301846145b0565b92915050565b60006040820190506148d560008301856145bf565b6148e260208301846145bf565b9392505050565b6000602082019050818103600083015261490381846145e4565b905092915050565b600060c082019050818103600083015261492581896145e4565b9050818103602083015261493981886145e4565b90506149486040830187614565565b614955606083018661471a565b6149626080830185614738565b61496f60a083018461441e565b979650505050505050565b600060208201905081810360008301526149938161464e565b9050919050565b600060208201905081810360008301526149b3816146da565b9050919050565b60006080820190506149cf60008301876146fd565b6149dc602083018661442d565b6149e9604083018561442d565b6149f66060830184614729565b95945050505050565b600060a082019050614a1460008301886146fd565b614a21602083018761442d565b614a2e604083018661442d565b614a3b6060830185614729565b614a486080830184614729565b9695505050505050565b600060e082019050614a67600083018a6146fd565b614a7460208301896145a1565b614a81604083018861442d565b614a8e6060830187614729565b614a9b608083018661442d565b614aa860a08301856145d5565b614ab560c08301846145d5565b98975050505050505050565b600060e082019050614ad6600083018a6146fd565b614ae360208301896145a1565b614af0604083018861442d565b614afd6060830187614729565b614b0a608083018661442d565b614b1760a08301856145d5565b614b2460c0830184614729565b98975050505050505050565b600060e082019050614b45600083018a6146fd565b614b5260208301896145a1565b614b5f604083018861442d565b614b6c6060830187614729565b614b79608083018661442d565b614b8660a0830185614729565b614b9360c08301846145d5565b98975050505050505050565b6000606082019050614bb46000830186614704565b614bc1602083018561442d565b614bce604083018461442d565b949350505050565b6000606082019050614beb6000830186614704565b614bf86020830185614729565b614c05604083018461442d565b949350505050565b6000608082019050614c226000830187614704565b614c2f6020830186614729565b614c3c604083018561442d565b614c496060830184614729565b95945050505050565b600061010082019050614c68600083018b614704565b614c75602083018a614729565b614c8260408301896145ce565b8181036060830152614c9481886144a9565b90508181036080830152614ca881876144a9565b9050614cb760a0830186614574565b614cc460c0830185614574565b614cd160e0830184614574565b9998505050505050505050565b6000602082019050614cf36000830184614729565b92915050565b6000602082019050614d0e600083018461471a565b92915050565b6000604082019050614d29600083018561471a565b614d36602083018461471a565b9392505050565b6000606082019050614d526000830186614729565b614d5f6020830185614729565b614d6c6040830184614747565b949350505050565b6000604082019050614d896000830185614729565b614d966020830184614747565b9392505050565b6000602082019050614db26000830184614738565b92915050565b6000614dc2614dd3565b9050614dce828261531d565b919050565b6000604051905090565b600067ffffffffffffffff821115614df857614df7615453565b5b602082029050602081019050919050565b600067ffffffffffffffff821115614e2457614e23615453565b5b602082029050602081019050919050565b600067ffffffffffffffff821115614e5057614e4f615453565b5b614e5982615482565b9050602081019050919050565b6000819050602082019050919050565b6000819050602082019050919050565b600081519050919050565b600081519050919050565b600081519050919050565b6000602082019050919050565b6000602082019050919050565b600082825260208201905092915050565b600082825260208201905092915050565b600082825260208201905092915050565b600082825260208201905092915050565b600081905092915050565b6000614f1b8261520e565b9150614f268361520e565b9250827fffffffffffffffffffffffffffffffffffffffffffffffffffffffffffffffff03821115614f5b57614f5a615397565b5b828201905092915050565b6000614f718261520e565b9150614f7c8361520e565b925082614f8c57614f8b6153c6565b5b828204905092915050565b6000808291508390505b6001851115614fe157808604811115614fbd57614fbc615397565b5b6001851615614fcc5780820291505b8081029050614fda85615493565b9450614fa1565b94509492505050565b6000614ff58261520e565b915061500083615218565b925061502d7fffffffffffffffffffffffffffffffffffffffffffffffffffffffffffffffff8484615035565b905092915050565b6000826150455760019050615101565b816150535760009050615101565b81600181146150695760028114615073576150a2565b6001915050615101565b60ff84111561508557615084615397565b5b8360020a91508482111561509c5761509b615397565b5b50615101565b5060208310610133831016604e8410600b84101617156150d75782820a9050838111156150d2576150d1615397565b5b615101565b6150e48484846001614f97565b925090508184048111156150fb576150fa615397565b5b81810290505b9392505050565b60006151138261520e565b915061511e8361520e565b9250817fffffffffffffffffffffffffffffffffffffffffffffffffffffffffffffffff048311821515161561515757615156615397565b5b828202905092915050565b600061516d826151ee565b9050919050565b60008115159050919050565b6000819050919050565b60007fffffffff0000000000000000000000000000000000000000000000000000000082169050919050565b60006151c182615162565b9050919050565b60008190506151d682615593565b919050565b60008190506151e9826155a7565b919050565b600073ffffffffffffffffffffffffffffffffffffffff82169050919050565b6000819050919050565b600060ff82169050919050565b600061523082615237565b9050919050565b6000615242826151ee565b9050919050565b6000615254826151c8565b9050919050565b6000615266826151db565b9050919050565b60006152788261520e565b9050919050565b82818337600083830152505050565b60005b838110156152ac578082015181840152602081019050615291565b838111156152bb576000848401525b50505050565b60006152cc8261520e565b915060008214156152e0576152df615397565b5b600182039050919050565b6000600282049050600182168061530357607f821691505b6020821081141561531757615316615424565b5b50919050565b61532682615482565b810181811067ffffffffffffffff8211171561534557615344615453565b5b80604052505050565b60006153598261520e565b91507fffffffffffffffffffffffffffffffffffffffffffffffffffffffffffffffff82141561538c5761538b615397565b5b600182019050919050565b7f4e487b7100000000000000000000000000000000000000000000000000000000600052601160045260246000fd5b7f4e487b7100000000000000000000000000000000000000000000000000000000600052601260045260246000fd5b7f4e487b7100000000000000000000000000000000000000000000000000000000600052602160045260246000fd5b7f4e487b7100000000000000000000000000000000000000000000000000000000600052602260045260246000fd5b7f4e487b7100000000000000000000000000000000000000000000000000000000600052604160045260246000fd5b6000601f19601f8301169050919050565b60008160011c9050919050565b7f537472696e67733a20686578206c656e67746820696e73756666696369656e74600082015250565b7f426f72726f770000000000000000000000000000000000000000000000000000600082015250565b7f416363657373436f6e74726f6c3a206163636f756e7420000000000000000000600082015250565b7f206973206d697373696e6720726f6c6520000000000000000000000000000000600082015250565b7f416363657373436f6e74726f6c3a2063616e206f6e6c792072656e6f756e636560008201527f20726f6c657320666f722073656c660000000000000000000000000000000000602082015250565b601a81106155a4576155a36153f5565b5b50565b600481106155b8576155b76153f5565b5b50565b6155c481615162565b81146155cf57600080fd5b50565b6155db81615174565b81146155e657600080fd5b50565b6155f281615180565b81146155fd57600080fd5b50565b6156098161518a565b811461561457600080fd5b50565b615620816151b6565b811461562b57600080fd5b50565b6004811061563b57600080fd5b50565b6156478161520e565b811461565257600080fd5b50565b61565e81615218565b811461566957600080fd5b5056fea2646970667358221220de183c143245bedf5aa454f58132d4a9ce73d29e054c81bcadab85dc13776c4664736f6c63430008040033",
  "libraries": {
    "TSUtils": "0xf6780c6eCFbF39CE58ac293dC2F00da27c91df4E",
    "DecimalMath": "0x687Daa40FEc9A0Bad9a4153787cd1F295f4abc33",
    "ExaLib": "0xDD82cCC242A1F88EC2c02b0986E15E71897B7fc7",
    "MarketsLib": "0x5F5A5531CF864FA2BB97A7d455E0850d8ea27922"
  },
  "devdoc": {
    "events": {
      "ActionPaused(address,string,bool)": {
        "params": {
          "action": "string describing the action that has been paused/re-enabled",
          "fixedLender": "address of the market that a certain feature has been paused/re-enabled",
          "paused": "boolean describing if the action has been paused or re-enabled"
        }
      },
      "DistributedMPBorrowerExa(address,address,uint256,uint256)": {
        "params": {
          "borrower": "address of the borrower that have received rewards in a given fixedLender space",
          "exaMPBorrowIndex": "index of the given market that was used to update user rewards",
          "fixedLender": "address of the fixed lender market in which a user has received rewards",
          "mpBorrowerDelta": "delta blocks that have been processed"
        }
      },
      "DistributedMPSupplierExa(address,address,uint256,uint256)": {
        "params": {
          "exaMPSupplyIndex": "index of the given market that was used to update user rewards",
          "fixedLender": "address of the fixed lender market in which a user has received rewards",
          "mpSupplierDelta": "delta blocks that have been processed",
          "supplier": "address of the supplier that have received rewards in a given lender space"
        }
      },
      "DistributedSPSupplierExa(address,address,uint256,uint256)": {
        "params": {
          "exaSPSupplyIndex": "index of the given market that was used to update user rewards",
          "fixedLender": "address of the fixed lender market in which a user has received rewards",
          "spSupplierDelta": "delta blocks that have been processed",
          "supplier": "address of the supplier that have received rewards in a given lender space"
        }
      },
      "ExaSpeedUpdated(address,uint256)": {
        "params": {
          "fixedLenderAddress": "address of the lender that has a new borrow cap",
          "newSpeed": "new borrow cap expressed with 1e18 precision for the given market."
        }
      },
      "MarketEntered(address,address,uint256)": {
        "params": {
          "account": "address of the user that just entered a market",
          "fixedLender": "address of the market that the user entered",
          "maturityDate": "dateID/poolID/maturity that the user just entered"
        }
      },
      "MarketExited(address,address,uint256)": {
        "params": {
          "account": "address of the user that just left a market",
          "fixedLender": "address of the market that the user just left",
          "maturityDate": "dateID/poolID/maturity that the user just left"
        }
      },
      "MarketListed(address)": {
        "params": {
          "fixedLender": "address of the fixedLender market that it was listed"
        }
      },
      "NewBorrowCap(address,uint256)": {
        "params": {
          "fixedLender": "address of the lender that has a new borrow cap",
          "newBorrowCap": "new borrow cap expressed with 1e18 precision for the given market.                     0 = means no cap"
        }
      },
      "OracleChanged(address)": {
        "params": {
          "newOracle": "address of the new oracle that is used to calculate liquidity"
        }
      }
    },
    "kind": "dev",
    "methods": {
      "beforeBorrowMP(address,address,uint256,uint256)": {
        "details": "Hook function to be called before someone borrows money to a market/maturity.      This function verifies if market is valid, maturity is valid, checks if the user has enough collateral      and accrues rewards accordingly.",
        "params": {
          "borrowAmount": "amount that will be lent out to the borrower (expressed with same precision as underlying)",
          "borrower": "address of the user that will borrow money from a maturity date",
          "fixedLenderAddress": "address of the fixedLender that will lend money in a maturity",
          "maturityDate": "timestamp for the maturity date that the user wants to borrow money. It should                     be in a VALID state (meaning that is not in the distant future, nor matured)"
        }
      },
      "beforeDepositMP(address,address,uint256)": {
        "details": "Hook function to be called before someone supplies money to a market/maturity.      This function verifies if market is valid, maturity is valid, and accrues rewards accordingly.",
        "params": {
          "fixedLenderAddress": "address of the fixedLender that will deposit money in a maturity",
          "maturityDate": "timestamp for the maturity date that the user wants to supply money. It should                     be in a VALID state (meaning that is not in the distant future, nor matured)",
          "supplier": "address of the user that will supply money to a certain maturity (it can be later on                 used as collater with _enterMarkets_ functions)"
        }
      },
      "beforeRepayMP(address,address)": {
        "details": "Hook function to be called before someone wants to repay its debt in a market/maturity.      This function verifies if market is valid, maturity is MATURED and accrues rewards accordingly.      This function is called from fixedLender contracts.",
        "params": {
          "borrower": "address of the user that wants to repay its debt",
          "fixedLenderAddress": "address of the fixedLender that will collect money in a maturity"
        }
      },
      "beforeSupplySP(address,address)": {
        "details": "Hook function to be called before someone supplies money to the smart pool      This function basically checks if the address of the fixed Lender market is      valid and makes sure to accrue EXA tokens to the market and the user.",
        "params": {
          "fixedLenderAddress": "address of the fixed lender that will receive money in                           it's smart pool",
          "supplier": "address of the user that will supply money to the smart pool"
        }
      },
      "beforeWithdrawMP(address,address,uint256,uint256)": {
        "details": "Hook function to be called before someone wants to receive its money back from a market/maturity.      This function verifies if market is valid, maturity is MATURED, checks if the user has no outstanding      debts and accrues rewards accordingly. This function is called from fixedLender contracts.",
        "params": {
          "fixedLenderAddress": "address of the fixedLender that will lend money in a maturity",
          "maturityDate": "timestamp for the maturity date that the user wants to get it's money from. It should                     be in a MATURED state (meaning that the date is VALID + MATURED)",
          "redeemAmount": "amount that the user wants to withdraw from the maturity",
          "redeemer": "address of the user that wants to withdraw it's money"
        }
      },
      "beforeWithdrawSP(address,address)": {
        "details": "Hook function to be called before someone withdraws money from the smart pool      This function basically checks if the address of the fixed Lender market is      valid and makes sure to accrue EXA tokens to the market and the user.",
        "params": {
          "fixedLenderAddress": "address of the fixed lender that will receive money in                           it's smart pool",
          "supplier": "address of the user that will withdraw money from the smart pool"
        }
      },
      "claimExa(address,address[])": {
        "params": {
          "fixedLenders": "The list of markets to claim EXA in",
          "holder": "The address to claim EXA for"
        }
      },
      "claimExaAll(address)": {
        "params": {
          "holder": "The address to claim EXA for"
        }
      },
      "enableMarket(address,uint256,string,string,uint8)": {
        "details": "Function to enable a certain FixedLender market to be used as collateral",
        "params": {
          "collateralFactor": "fixedLender's collateral factor for the underlying asset",
          "fixedLender": "address to add to the protocol"
        }
      },
      "enterMarkets(address[],uint256)": {
        "details": "Allows wallet to enter certain markets (fixedLenderDAI, fixedLenderETH, etc)      By performing this action, the wallet's money could be used as collateral",
        "params": {
          "fixedLenders": "contracts addresses to enable for `msg.sender` for a certain maturity",
          "maturityDate": "poolID in which the fixedLenders will be enabled"
        }
      },
      "exitMarket(address,uint256)": {
        "details": "Sender must not have an outstanding borrow balance in the asset,      or be providing necessary collateral for an outstanding borrow.",
        "params": {
          "fixedLenderAddress": "The address of the asset to be removed",
          "maturityDate": "The timestamp/poolID where the user wants to stop providing collateral"
        }
      },
      "getAccountLiquidity(address,uint256)": {
        "details": "Function to get account's liquidity for a certain maturity pool",
        "params": {
          "account": "wallet to retrieve liquidity for a certain maturity date",
          "maturityDate": "timestamp to calculate maturity's pool"
        }
      },
      "getFuturePools()": {
        "details": "Function to retrieve valid future pools"
      },
      "getMarketAddresses()": {
        "details": "Function to retrieve all markets"
      },
      "getMarketData(address)": {
        "details": "Given a fixedLender address, it returns the corresponding market data",
        "params": {
          "fixedLenderAddress": "Address of the contract where we are getting the data"
        }
      },
      "getRoleAdmin(bytes32)": {
        "details": "Returns the admin role that controls `role`. See {grantRole} and {revokeRole}. To change a role's admin, use {_setRoleAdmin}."
      },
      "grantRole(bytes32,address)": {
        "details": "Grants `role` to `account`. If `account` had not been already granted `role`, emits a {RoleGranted} event. Requirements: - the caller must have ``role``'s admin role."
      },
      "hasRole(bytes32,address)": {
        "details": "Returns `true` if `account` has been granted `role`."
      },
      "liquidateAllowed(address,address,address,address,uint256,uint256)": {
        "details": "Function to allow/reject liquidation of assets. This function can be called      externally, but only will have effect when called from a fixedLender.",
        "params": {
          "borrower": "address which the assets are being liquidated",
          "fixedLenderBorrowed": "market from where the debt is pending",
          "fixedLenderCollateral": "market where the assets will be liquidated (should be msg.sender on FixedLender.sol)",
          "liquidator": "address that is liquidating the assets",
          "maturityDate": "maturity where the position has a shortfall in liquidity",
          "repayAmount": "amount to be repaid from the debt (outstanding debt * close factor should be bigger than this value)"
        }
      },
      "liquidateCalculateSeizeAmount(address,address,uint256)": {
        "details": "Function to calculate the amount of assets to be seized      - when a position is undercollaterized it should be repaid and this functions calculates the        amount of collateral to be seized",
        "params": {
          "actualRepayAmount": "repay amount in the borrowed asset",
          "fixedLenderBorrowed": "market from where the debt is pending",
          "fixedLenderCollateral": "market where the assets will be liquidated (should be msg.sender on FixedLender.sol)"
        }
      },
      "pauseBorrow(address,bool)": {
        "details": "Function to pause/unpause borrowing on a certain market",
        "params": {
          "fixedLender": "address to pause",
          "paused": "true/false"
        }
      },
      "renounceRole(bytes32,address)": {
        "details": "Revokes `role` from the calling account. Roles are often managed via {grantRole} and {revokeRole}: this function's purpose is to provide a mechanism for accounts to lose their privileges if they are compromised (such as when a trusted device is misplaced). If the calling account had been granted `role`, emits a {RoleRevoked} event. Requirements: - the caller must be `account`."
      },
      "requirePoolState(uint256,uint8)": {
        "details": "Function to verify that a maturityDate is VALID, MATURED, NOT_READY or INVALID.      If expected state doesn't match the calculated one, it reverts with a custom error \"UnmatchedPoolState\".",
        "params": {
          "maturityDate": "timestamp of the maturity date to be verified",
          "requiredState": "state required by the caller to be verified (see TSUtils.State() for description)"
        }
      },
      "revokeRole(bytes32,address)": {
        "details": "Revokes `role` from `account`. If `account` had been granted `role`, emits a {RoleRevoked} event. Requirements: - the caller must have ``role``'s admin role."
      },
      "seizeAllowed(address,address,address,address)": {
        "details": "Function to allow/reject seizing of assets. This function can be called      externally, but only will have effect when called from a fixedLender.",
        "params": {
          "borrower": "address to validate where the assets will be removed",
          "fixedLenderBorrowed": "market from where the debt will be paid",
          "fixedLenderCollateral": "market where the assets will be seized (should be msg.sender on FixedLender.sol)",
          "liquidator": "address to validate where the seized assets will be received"
        }
      },
      "setExaSpeed(address,uint256)": {
        "params": {
          "exaSpeed": "New EXA speed for market",
          "fixedLenderAddress": "The market whose EXA speed to update"
        }
      },
      "setLiquidationIncentive(uint256)": {
        "params": {
          "_liquidationIncentive": "new liquidation incentive. It's a factor, so 15% would be 1.15e18"
        }
      },
      "setMarketBorrowCaps(address[],uint256[])": {
        "params": {
          "fixedLenders": "The addresses of the markets (tokens) to change the borrow caps for",
          "newBorrowCaps": "The new borrow cap values in underlying to be set. A value of 0 corresponds to unlimited borrowing."
        }
      },
      "setOracle(address)": {
        "details": "Function to set Oracle's to be used",
        "params": {
          "_priceOracleAddress": "address of the new oracle"
        }
      },
      "supportsInterface(bytes4)": {
        "details": "See {IERC165-supportsInterface}."
      }
    },
    "version": 1
  },
  "userdoc": {
    "events": {
      "ActionPaused(address,string,bool)": {
        "notice": "Event emitted when a certain action has been paused by the protocol"
      },
      "DistributedMPBorrowerExa(address,address,uint256,uint256)": {
        "notice": "Event emitted each time EXA has been distributed to a certain user as a maturity pool borrower"
      },
      "DistributedMPSupplierExa(address,address,uint256,uint256)": {
        "notice": "Event emitted each time EXA has been distributed to a certain user as a maturity pool supplier"
      },
      "DistributedSPSupplierExa(address,address,uint256,uint256)": {
        "notice": "Event emitted each time EXA has been distributed to a certain user as a smart pool supplier"
      },
      "ExaSpeedUpdated(address,uint256)": {
        "notice": "Event emitted when a new ExaSpeed has been set for a given fixedLender.         The speed is the amount of EXA tokens that it will be given to         suppliers/borrowers/lenders on each block. Amount distributed accordingly         to their contributions"
      },
      "MarketEntered(address,address,uint256)": {
        "notice": "Event emitted when a user enters a market to use his deposit as collateral         for a loan. Notice that the market entered is the pair fixedLender/maturityDate"
      },
      "MarketExited(address,address,uint256)": {
        "notice": "Event emitted when a user leaves a market. This means that he would stop using         his deposit as collateral and it won't ask for any loans in this market"
      },
      "MarketListed(address)": {
        "notice": "Event emitted when a new market is listed for borrow/lending"
      },
      "NewBorrowCap(address,uint256)": {
        "notice": "Event emitted when a new borrow cap has been set for a certain fixedLender         If newBorrowCap is 0, that means that there's no cap"
      },
      "OracleChanged(address)": {
        "notice": "Event emitted when a new Oracle has been set"
      }
    },
    "kind": "user",
    "methods": {
      "claimExa(address,address[])": {
        "notice": "Claim all the EXA accrued by holder in the specified markets"
      },
      "claimExaAll(address)": {
        "notice": "Claim all the EXA accrued by holder in all markets"
      },
      "exitMarket(address,uint256)": {
        "notice": "Removes fixedLender from sender's account liquidity calculation"
      },
      "setExaSpeed(address,uint256)": {
        "notice": "Set EXA speed for a single market"
      },
      "setLiquidationIncentive(uint256)": {
        "notice": "Set liquidation incentive for the whole ecosystem"
      },
      "setMarketBorrowCaps(address[],uint256[])": {
        "notice": "Set the given borrow caps for the given fixedLender markets. Borrowing that brings total borrows to or above borrow cap will revert."
      }
    },
    "version": 1
  },
  "storageLayout": {
    "storage": [
      {
        "astId": 24,
        "contract": "contracts/Auditor.sol:Auditor",
        "label": "_roles",
        "offset": 0,
        "slot": "0",
        "type": "t_mapping(t_bytes32,t_struct(RoleData)19_storage)"
      },
      {
        "astId": 3872,
        "contract": "contracts/Auditor.sol:Auditor",
        "label": "book",
        "offset": 0,
        "slot": "1",
        "type": "t_struct(Book)10975_storage"
      },
      {
        "astId": 3875,
        "contract": "contracts/Auditor.sol:Auditor",
        "label": "closeFactor",
        "offset": 0,
        "slot": "5",
        "type": "t_uint256"
      },
      {
        "astId": 3880,
        "contract": "contracts/Auditor.sol:Auditor",
        "label": "liquidationIncentive",
        "offset": 0,
        "slot": "6",
        "type": "t_uint256"
      },
      {
        "astId": 3883,
        "contract": "contracts/Auditor.sol:Auditor",
        "label": "maxFuturePools",
        "offset": 0,
        "slot": "7",
        "type": "t_uint8"
      },
      {
        "astId": 3886,
        "contract": "contracts/Auditor.sol:Auditor",
        "label": "marketsAddresses",
        "offset": 0,
        "slot": "8",
        "type": "t_array(t_address)dyn_storage"
      },
      {
        "astId": 3889,
        "contract": "contracts/Auditor.sol:Auditor",
        "label": "rewardsState",
        "offset": 0,
        "slot": "9",
        "type": "t_struct(RewardsState)9716_storage"
      },
      {
        "astId": 3892,
        "contract": "contracts/Auditor.sol:Auditor",
        "label": "oracle",
        "offset": 0,
        "slot": "12",
        "type": "t_contract(IOracle)9420"
      }
    ],
    "types": {
      "t_address": {
        "encoding": "inplace",
        "label": "address",
        "numberOfBytes": "20"
      },
      "t_array(t_address)dyn_storage": {
        "base": "t_address",
        "encoding": "dynamic_array",
        "label": "address[]",
        "numberOfBytes": "32"
      },
      "t_array(t_contract(IFixedLender)9374)dyn_storage": {
        "base": "t_contract(IFixedLender)9374",
        "encoding": "dynamic_array",
        "label": "contract IFixedLender[]",
        "numberOfBytes": "32"
      },
      "t_bool": {
        "encoding": "inplace",
        "label": "bool",
        "numberOfBytes": "1"
      },
      "t_bytes32": {
        "encoding": "inplace",
        "label": "bytes32",
        "numberOfBytes": "32"
      },
      "t_contract(IFixedLender)9374": {
        "encoding": "inplace",
        "label": "contract IFixedLender",
        "numberOfBytes": "20"
      },
      "t_contract(IOracle)9420": {
        "encoding": "inplace",
        "label": "contract IOracle",
        "numberOfBytes": "20"
      },
      "t_mapping(t_address,t_bool)": {
        "encoding": "mapping",
        "key": "t_address",
        "label": "mapping(address => bool)",
        "numberOfBytes": "32",
        "value": "t_bool"
      },
      "t_mapping(t_address,t_mapping(t_uint256,t_array(t_contract(IFixedLender)9374)dyn_storage))": {
        "encoding": "mapping",
        "key": "t_address",
        "label": "mapping(address => mapping(uint256 => contract IFixedLender[]))",
        "numberOfBytes": "32",
        "value": "t_mapping(t_uint256,t_array(t_contract(IFixedLender)9374)dyn_storage)"
      },
      "t_mapping(t_address,t_mapping(t_uint256,t_bool))": {
        "encoding": "mapping",
        "key": "t_address",
        "label": "mapping(address => mapping(uint256 => bool))",
        "numberOfBytes": "32",
        "value": "t_mapping(t_uint256,t_bool)"
      },
      "t_mapping(t_address,t_struct(ExaState)9704_storage)": {
        "encoding": "mapping",
        "key": "t_address",
        "label": "mapping(address => struct ExaLib.ExaState)",
        "numberOfBytes": "32",
        "value": "t_struct(ExaState)9704_storage"
      },
      "t_mapping(t_address,t_struct(Market)10992_storage)": {
        "encoding": "mapping",
        "key": "t_address",
        "label": "mapping(address => struct MarketsLib.Market)",
        "numberOfBytes": "32",
        "value": "t_struct(Market)10992_storage"
      },
      "t_mapping(t_address,t_uint256)": {
        "encoding": "mapping",
        "key": "t_address",
        "label": "mapping(address => uint256)",
        "numberOfBytes": "32",
        "value": "t_uint256"
      },
      "t_mapping(t_bytes32,t_struct(RoleData)19_storage)": {
        "encoding": "mapping",
        "key": "t_bytes32",
        "label": "mapping(bytes32 => struct AccessControl.RoleData)",
        "numberOfBytes": "32",
        "value": "t_struct(RoleData)19_storage"
      },
      "t_mapping(t_uint256,t_array(t_contract(IFixedLender)9374)dyn_storage)": {
        "encoding": "mapping",
        "key": "t_uint256",
        "label": "mapping(uint256 => contract IFixedLender[])",
        "numberOfBytes": "32",
        "value": "t_array(t_contract(IFixedLender)9374)dyn_storage"
      },
      "t_mapping(t_uint256,t_bool)": {
        "encoding": "mapping",
        "key": "t_uint256",
        "label": "mapping(uint256 => bool)",
        "numberOfBytes": "32",
        "value": "t_bool"
      },
      "t_string_storage": {
        "encoding": "bytes",
        "label": "string",
        "numberOfBytes": "32"
      },
      "t_struct(Book)10975_storage": {
        "encoding": "inplace",
        "label": "struct MarketsLib.Book",
        "members": [
          {
            "astId": 10958,
            "contract": "contracts/Auditor.sol:Auditor",
            "label": "markets",
            "offset": 0,
            "slot": "0",
            "type": "t_mapping(t_address,t_struct(Market)10992_storage)"
          },
          {
            "astId": 10962,
            "contract": "contracts/Auditor.sol:Auditor",
            "label": "borrowPaused",
            "offset": 0,
            "slot": "1",
            "type": "t_mapping(t_address,t_bool)"
          },
          {
            "astId": 10966,
            "contract": "contracts/Auditor.sol:Auditor",
            "label": "borrowCaps",
            "offset": 0,
            "slot": "2",
            "type": "t_mapping(t_address,t_uint256)"
          },
          {
            "astId": 10974,
            "contract": "contracts/Auditor.sol:Auditor",
            "label": "accountAssets",
            "offset": 0,
            "slot": "3",
            "type": "t_mapping(t_address,t_mapping(t_uint256,t_array(t_contract(IFixedLender)9374)dyn_storage))"
          }
        ],
        "numberOfBytes": "128"
      },
      "t_struct(ExaState)9704_storage": {
        "encoding": "inplace",
        "label": "struct ExaLib.ExaState",
        "members": [
          {
            "astId": 9682,
            "contract": "contracts/Auditor.sol:Auditor",
            "label": "exaSpeed",
            "offset": 0,
            "slot": "0",
            "type": "t_uint256"
          },
          {
            "astId": 9685,
            "contract": "contracts/Auditor.sol:Auditor",
            "label": "exaMPSupplyState",
            "offset": 0,
            "slot": "1",
            "type": "t_struct(MarketRewardsState)9670_storage"
          },
          {
            "astId": 9688,
            "contract": "contracts/Auditor.sol:Auditor",
            "label": "exaMPBorrowState",
            "offset": 0,
            "slot": "2",
            "type": "t_struct(MarketRewardsState)9670_storage"
          },
          {
            "astId": 9691,
            "contract": "contracts/Auditor.sol:Auditor",
            "label": "exaSPSupplyState",
            "offset": 0,
            "slot": "3",
            "type": "t_struct(MarketRewardsState)9670_storage"
          },
          {
            "astId": 9695,
            "contract": "contracts/Auditor.sol:Auditor",
            "label": "exaMPSupplierIndex",
            "offset": 0,
            "slot": "4",
            "type": "t_mapping(t_address,t_uint256)"
          },
          {
            "astId": 9699,
            "contract": "contracts/Auditor.sol:Auditor",
            "label": "exaMPBorrowerIndex",
            "offset": 0,
            "slot": "5",
            "type": "t_mapping(t_address,t_uint256)"
          },
          {
            "astId": 9703,
            "contract": "contracts/Auditor.sol:Auditor",
            "label": "exaSPSupplierIndex",
            "offset": 0,
            "slot": "6",
            "type": "t_mapping(t_address,t_uint256)"
          }
        ],
        "numberOfBytes": "224"
      },
      "t_struct(Market)10992_storage": {
        "encoding": "inplace",
        "label": "struct MarketsLib.Market",
        "members": [
          {
            "astId": 10977,
            "contract": "contracts/Auditor.sol:Auditor",
            "label": "symbol",
            "offset": 0,
            "slot": "0",
            "type": "t_string_storage"
          },
          {
            "astId": 10979,
            "contract": "contracts/Auditor.sol:Auditor",
            "label": "name",
            "offset": 0,
            "slot": "1",
            "type": "t_string_storage"
          },
          {
            "astId": 10981,
            "contract": "contracts/Auditor.sol:Auditor",
            "label": "isListed",
            "offset": 0,
            "slot": "2",
            "type": "t_bool"
          },
          {
            "astId": 10983,
            "contract": "contracts/Auditor.sol:Auditor",
            "label": "collateralFactor",
            "offset": 0,
            "slot": "3",
            "type": "t_uint256"
          },
          {
            "astId": 10985,
            "contract": "contracts/Auditor.sol:Auditor",
            "label": "decimals",
            "offset": 0,
            "slot": "4",
            "type": "t_uint8"
          },
          {
            "astId": 10991,
            "contract": "contracts/Auditor.sol:Auditor",
            "label": "accountMembership",
            "offset": 0,
            "slot": "5",
            "type": "t_mapping(t_address,t_mapping(t_uint256,t_bool))"
          }
        ],
        "numberOfBytes": "192"
      },
      "t_struct(MarketRewardsState)9670_storage": {
        "encoding": "inplace",
        "label": "struct MarketRewardsState",
        "members": [
          {
            "astId": 9667,
            "contract": "contracts/Auditor.sol:Auditor",
            "label": "index",
            "offset": 0,
            "slot": "0",
            "type": "t_uint224"
          },
          {
            "astId": 9669,
            "contract": "contracts/Auditor.sol:Auditor",
            "label": "block",
            "offset": 28,
            "slot": "0",
            "type": "t_uint32"
          }
        ],
        "numberOfBytes": "32"
      },
      "t_struct(RewardsState)9716_storage": {
        "encoding": "inplace",
        "label": "struct ExaLib.RewardsState",
        "members": [
          {
            "astId": 9706,
            "contract": "contracts/Auditor.sol:Auditor",
            "label": "exaToken",
            "offset": 0,
            "slot": "0",
            "type": "t_address"
          },
          {
            "astId": 9711,
            "contract": "contracts/Auditor.sol:Auditor",
            "label": "exaState",
            "offset": 0,
            "slot": "1",
            "type": "t_mapping(t_address,t_struct(ExaState)9704_storage)"
          },
          {
            "astId": 9715,
            "contract": "contracts/Auditor.sol:Auditor",
            "label": "exaAccruedUser",
            "offset": 0,
            "slot": "2",
            "type": "t_mapping(t_address,t_uint256)"
          }
        ],
        "numberOfBytes": "96"
      },
      "t_struct(RoleData)19_storage": {
        "encoding": "inplace",
        "label": "struct AccessControl.RoleData",
        "members": [
          {
            "astId": 16,
            "contract": "contracts/Auditor.sol:Auditor",
            "label": "members",
            "offset": 0,
            "slot": "0",
            "type": "t_mapping(t_address,t_bool)"
          },
          {
            "astId": 18,
            "contract": "contracts/Auditor.sol:Auditor",
            "label": "adminRole",
            "offset": 0,
            "slot": "1",
            "type": "t_bytes32"
          }
        ],
        "numberOfBytes": "64"
      },
      "t_uint224": {
        "encoding": "inplace",
        "label": "uint224",
        "numberOfBytes": "28"
      },
      "t_uint256": {
        "encoding": "inplace",
        "label": "uint256",
        "numberOfBytes": "32"
      },
      "t_uint32": {
        "encoding": "inplace",
        "label": "uint32",
        "numberOfBytes": "4"
      },
      "t_uint8": {
        "encoding": "inplace",
        "label": "uint8",
        "numberOfBytes": "1"
      }
    }
  }
}