{
  "address": "0x687Daa40FEc9A0Bad9a4153787cd1F295f4abc33",
  "abi": [
    {
      "inputs": [
        {
          "internalType": "address",
          "name": "_priceOracleAddress",
          "type": "address"
        }
      ],
      "stateMutability": "nonpayable",
      "type": "constructor"
    },
    {
      "inputs": [
        {
          "internalType": "enum ErrorCode",
          "name": "error",
          "type": "uint8"
        }
      ],
      "name": "GenericError",
      "type": "error"
    },
    {
      "inputs": [
        {
          "internalType": "enum TSUtils.State",
          "name": "state",
          "type": "uint8"
        },
        {
          "internalType": "enum TSUtils.State",
          "name": "requiredState",
          "type": "uint8"
        }
      ],
      "name": "UnmatchedPoolState",
      "type": "error"
    },
    {
      "anonymous": false,
      "inputs": [
        {
          "indexed": false,
          "internalType": "address",
          "name": "exafin",
          "type": "address"
        },
        {
          "indexed": false,
          "internalType": "string",
          "name": "action",
          "type": "string"
        },
        {
          "indexed": false,
          "internalType": "bool",
          "name": "paused",
          "type": "bool"
        }
      ],
      "name": "ActionPaused",
      "type": "event"
    },
    {
      "anonymous": false,
      "inputs": [
        {
          "indexed": false,
          "internalType": "address",
          "name": "exafin",
          "type": "address"
        },
        {
          "indexed": false,
          "internalType": "address",
          "name": "account",
          "type": "address"
        }
      ],
      "name": "MarketEntered",
      "type": "event"
    },
    {
      "anonymous": false,
      "inputs": [
        {
          "indexed": false,
          "internalType": "address",
          "name": "exafin",
          "type": "address"
        }
      ],
      "name": "MarketListed",
      "type": "event"
    },
    {
      "anonymous": false,
      "inputs": [
        {
          "indexed": true,
          "internalType": "address",
          "name": "exafin",
          "type": "address"
        },
        {
          "indexed": false,
          "internalType": "uint256",
          "name": "newBorrowCap",
          "type": "uint256"
        }
      ],
      "name": "NewBorrowCap",
      "type": "event"
    },
    {
      "anonymous": false,
      "inputs": [
        {
          "indexed": false,
          "internalType": "address",
          "name": "newOracle",
          "type": "address"
        }
      ],
      "name": "OracleChanged",
      "type": "event"
    },
    {
      "anonymous": false,
      "inputs": [
        {
          "indexed": true,
          "internalType": "address",
          "name": "previousOwner",
          "type": "address"
        },
        {
          "indexed": true,
          "internalType": "address",
          "name": "newOwner",
          "type": "address"
        }
      ],
      "name": "OwnershipTransferred",
      "type": "event"
    },
    {
      "anonymous": false,
      "inputs": [
        {
          "indexed": true,
          "internalType": "bytes32",
          "name": "role",
          "type": "bytes32"
        },
        {
          "indexed": true,
          "internalType": "bytes32",
          "name": "previousAdminRole",
          "type": "bytes32"
        },
        {
          "indexed": true,
          "internalType": "bytes32",
          "name": "newAdminRole",
          "type": "bytes32"
        }
      ],
      "name": "RoleAdminChanged",
      "type": "event"
    },
    {
      "anonymous": false,
      "inputs": [
        {
          "indexed": true,
          "internalType": "bytes32",
          "name": "role",
          "type": "bytes32"
        },
        {
          "indexed": true,
          "internalType": "address",
          "name": "account",
          "type": "address"
        },
        {
          "indexed": true,
          "internalType": "address",
          "name": "sender",
          "type": "address"
        }
      ],
      "name": "RoleGranted",
      "type": "event"
    },
    {
      "anonymous": false,
      "inputs": [
        {
          "indexed": true,
          "internalType": "bytes32",
          "name": "role",
          "type": "bytes32"
        },
        {
          "indexed": true,
          "internalType": "address",
          "name": "account",
          "type": "address"
        },
        {
          "indexed": true,
          "internalType": "address",
          "name": "sender",
          "type": "address"
        }
      ],
      "name": "RoleRevoked",
      "type": "event"
    },
    {
      "inputs": [],
      "name": "DEFAULT_ADMIN_ROLE",
      "outputs": [
        {
          "internalType": "bytes32",
          "name": "",
          "type": "bytes32"
        }
      ],
      "stateMutability": "view",
      "type": "function"
    },
    {
      "inputs": [],
      "name": "TEAM_ROLE",
      "outputs": [
        {
          "internalType": "bytes32",
          "name": "",
          "type": "bytes32"
        }
      ],
      "stateMutability": "view",
      "type": "function"
    },
    {
      "inputs": [
        {
          "internalType": "address",
          "name": "",
          "type": "address"
        },
        {
          "internalType": "uint256",
          "name": "",
          "type": "uint256"
        }
      ],
      "name": "accountAssets",
      "outputs": [
        {
          "internalType": "contract IExafin",
          "name": "",
          "type": "address"
        }
      ],
      "stateMutability": "view",
      "type": "function"
    },
    {
      "inputs": [
        {
          "internalType": "address",
          "name": "exafinAddress",
          "type": "address"
        },
        {
          "internalType": "address",
          "name": "borrower",
          "type": "address"
        },
        {
          "internalType": "uint256",
          "name": "borrowAmount",
          "type": "uint256"
        },
        {
          "internalType": "uint256",
          "name": "maturityDate",
          "type": "uint256"
        }
      ],
      "name": "borrowAllowed",
      "outputs": [],
      "stateMutability": "nonpayable",
      "type": "function"
    },
    {
      "inputs": [
        {
          "internalType": "address",
          "name": "",
          "type": "address"
        }
      ],
      "name": "borrowCaps",
      "outputs": [
        {
          "internalType": "uint256",
          "name": "",
          "type": "uint256"
        }
      ],
      "stateMutability": "view",
      "type": "function"
    },
    {
      "inputs": [
        {
          "internalType": "address",
          "name": "",
          "type": "address"
        }
      ],
      "name": "borrowPaused",
      "outputs": [
        {
          "internalType": "bool",
          "name": "",
          "type": "bool"
        }
      ],
      "stateMutability": "view",
      "type": "function"
    },
    {
      "inputs": [],
      "name": "closeFactor",
      "outputs": [
        {
          "internalType": "uint256",
          "name": "",
          "type": "uint256"
        }
      ],
      "stateMutability": "view",
      "type": "function"
    },
    {
      "inputs": [
        {
          "internalType": "address",
          "name": "exafin",
          "type": "address"
        },
        {
          "internalType": "uint256",
          "name": "collateralFactor",
          "type": "uint256"
        },
        {
          "internalType": "string",
          "name": "symbol",
          "type": "string"
        },
        {
          "internalType": "string",
          "name": "name",
          "type": "string"
        }
      ],
      "name": "enableMarket",
      "outputs": [],
      "stateMutability": "nonpayable",
      "type": "function"
    },
    {
      "inputs": [
        {
          "internalType": "address[]",
          "name": "exafins",
          "type": "address[]"
        }
      ],
      "name": "enterMarkets",
      "outputs": [],
      "stateMutability": "nonpayable",
      "type": "function"
    },
    {
      "inputs": [
        {
          "internalType": "address",
          "name": "account",
          "type": "address"
        },
        {
          "internalType": "uint256",
          "name": "maturityDate",
          "type": "uint256"
        }
      ],
      "name": "getAccountLiquidity",
      "outputs": [
        {
          "internalType": "uint256",
          "name": "",
          "type": "uint256"
        },
        {
          "internalType": "uint256",
          "name": "",
          "type": "uint256"
        }
      ],
      "stateMutability": "view",
      "type": "function"
    },
    {
      "inputs": [],
      "name": "getFuturePools",
      "outputs": [
        {
          "internalType": "uint256[]",
          "name": "",
          "type": "uint256[]"
        }
      ],
      "stateMutability": "view",
      "type": "function"
    },
    {
      "inputs": [],
      "name": "getMarketAddresses",
      "outputs": [
        {
          "internalType": "address[]",
          "name": "",
          "type": "address[]"
        }
      ],
      "stateMutability": "view",
      "type": "function"
    },
    {
      "inputs": [
        {
          "internalType": "bytes32",
          "name": "role",
          "type": "bytes32"
        }
      ],
      "name": "getRoleAdmin",
      "outputs": [
        {
          "internalType": "bytes32",
          "name": "",
          "type": "bytes32"
        }
      ],
      "stateMutability": "view",
      "type": "function"
    },
    {
      "inputs": [
        {
          "internalType": "bytes32",
          "name": "role",
          "type": "bytes32"
        },
        {
          "internalType": "address",
          "name": "account",
          "type": "address"
        }
      ],
      "name": "grantRole",
      "outputs": [],
      "stateMutability": "nonpayable",
      "type": "function"
    },
    {
      "inputs": [
        {
          "internalType": "bytes32",
          "name": "role",
          "type": "bytes32"
        },
        {
          "internalType": "address",
          "name": "account",
          "type": "address"
        }
      ],
      "name": "hasRole",
      "outputs": [
        {
          "internalType": "bool",
          "name": "",
          "type": "bool"
        }
      ],
      "stateMutability": "view",
      "type": "function"
    },
    {
      "inputs": [
        {
          "internalType": "address",
          "name": "exafinBorrowed",
          "type": "address"
        },
        {
          "internalType": "address",
          "name": "exafinCollateral",
          "type": "address"
        },
        {
          "internalType": "address",
          "name": "liquidator",
          "type": "address"
        },
        {
          "internalType": "address",
          "name": "borrower",
          "type": "address"
        },
        {
          "internalType": "uint256",
          "name": "repayAmount",
          "type": "uint256"
        },
        {
          "internalType": "uint256",
          "name": "maturityDate",
          "type": "uint256"
        }
      ],
      "name": "liquidateAllowed",
      "outputs": [],
      "stateMutability": "view",
      "type": "function"
    },
    {
      "inputs": [
        {
          "internalType": "address",
          "name": "exafinBorrowed",
          "type": "address"
        },
        {
          "internalType": "address",
          "name": "exafinCollateral",
          "type": "address"
        },
        {
          "internalType": "uint256",
          "name": "actualRepayAmount",
          "type": "uint256"
        }
      ],
      "name": "liquidateCalculateSeizeAmount",
      "outputs": [
        {
          "internalType": "uint256",
          "name": "",
          "type": "uint256"
        }
      ],
      "stateMutability": "view",
      "type": "function"
    },
    {
      "inputs": [
        {
          "internalType": "address",
          "name": "",
          "type": "address"
        }
      ],
      "name": "markets",
      "outputs": [
        {
          "internalType": "string",
          "name": "symbol",
          "type": "string"
        },
        {
          "internalType": "string",
          "name": "name",
          "type": "string"
        },
        {
          "internalType": "bool",
          "name": "isListed",
          "type": "bool"
        },
        {
          "internalType": "uint256",
          "name": "collateralFactor",
          "type": "uint256"
        }
      ],
      "stateMutability": "view",
      "type": "function"
    },
    {
      "inputs": [
        {
          "internalType": "uint256",
          "name": "",
          "type": "uint256"
        }
      ],
      "name": "marketsAddress",
      "outputs": [
        {
          "internalType": "address",
          "name": "",
          "type": "address"
        }
      ],
      "stateMutability": "view",
      "type": "function"
    },
    {
      "inputs": [],
      "name": "maxFuturePools",
      "outputs": [
        {
          "internalType": "uint8",
          "name": "",
          "type": "uint8"
        }
      ],
      "stateMutability": "view",
      "type": "function"
    },
    {
      "inputs": [],
      "name": "owner",
      "outputs": [
        {
          "internalType": "address",
          "name": "",
          "type": "address"
        }
      ],
      "stateMutability": "view",
      "type": "function"
    },
    {
      "inputs": [
        {
          "internalType": "address",
          "name": "exafin",
          "type": "address"
        },
        {
          "internalType": "bool",
          "name": "paused",
          "type": "bool"
        }
      ],
      "name": "pauseBorrow",
      "outputs": [
        {
          "internalType": "bool",
          "name": "",
          "type": "bool"
        }
      ],
      "stateMutability": "nonpayable",
      "type": "function"
    },
    {
      "inputs": [
        {
          "internalType": "address",
          "name": "exafinAddress",
          "type": "address"
        },
        {
          "internalType": "address",
          "name": "redeemer",
          "type": "address"
        },
        {
          "internalType": "uint256",
          "name": "redeemTokens",
          "type": "uint256"
        },
        {
          "internalType": "uint256",
          "name": "maturityDate",
          "type": "uint256"
        }
      ],
      "name": "redeemAllowed",
      "outputs": [],
      "stateMutability": "view",
      "type": "function"
    },
    {
      "inputs": [],
      "name": "renounceOwnership",
      "outputs": [],
      "stateMutability": "nonpayable",
      "type": "function"
    },
    {
      "inputs": [
        {
          "internalType": "bytes32",
          "name": "role",
          "type": "bytes32"
        },
        {
          "internalType": "address",
          "name": "account",
          "type": "address"
        }
      ],
      "name": "renounceRole",
      "outputs": [],
      "stateMutability": "nonpayable",
      "type": "function"
    },
    {
      "inputs": [
        {
          "internalType": "address",
          "name": "exafinAddress",
          "type": "address"
        },
        {
          "internalType": "address",
          "name": "borrower",
          "type": "address"
        },
        {
          "internalType": "uint256",
          "name": "maturityDate",
          "type": "uint256"
        }
      ],
      "name": "repayAllowed",
      "outputs": [],
      "stateMutability": "view",
      "type": "function"
    },
    {
      "inputs": [
        {
          "internalType": "uint256",
          "name": "maturityDate",
          "type": "uint256"
        },
        {
          "internalType": "enum TSUtils.State",
          "name": "requiredState",
          "type": "uint8"
        }
      ],
      "name": "requirePoolState",
      "outputs": [],
      "stateMutability": "view",
      "type": "function"
    },
    {
      "inputs": [
        {
          "internalType": "bytes32",
          "name": "role",
          "type": "bytes32"
        },
        {
          "internalType": "address",
          "name": "account",
          "type": "address"
        }
      ],
      "name": "revokeRole",
      "outputs": [],
      "stateMutability": "nonpayable",
      "type": "function"
    },
    {
      "inputs": [
        {
          "internalType": "address",
          "name": "exafinCollateral",
          "type": "address"
        },
        {
          "internalType": "address",
          "name": "exafinBorrowed",
          "type": "address"
        },
        {
          "internalType": "address",
          "name": "liquidator",
          "type": "address"
        },
        {
          "internalType": "address",
          "name": "borrower",
          "type": "address"
        }
      ],
      "name": "seizeAllowed",
      "outputs": [],
      "stateMutability": "view",
      "type": "function"
    },
    {
      "inputs": [
        {
          "internalType": "contract IExafin[]",
          "name": "exafins",
          "type": "address[]"
        },
        {
          "internalType": "uint256[]",
          "name": "newBorrowCaps",
          "type": "uint256[]"
        }
      ],
      "name": "setMarketBorrowCaps",
      "outputs": [],
      "stateMutability": "nonpayable",
      "type": "function"
    },
    {
      "inputs": [
        {
          "internalType": "address",
          "name": "_priceOracleAddress",
          "type": "address"
        }
      ],
      "name": "setOracle",
      "outputs": [],
      "stateMutability": "nonpayable",
      "type": "function"
    },
    {
      "inputs": [
        {
          "internalType": "address",
          "name": "exafinAddress",
          "type": "address"
        },
        {
          "internalType": "address",
          "name": "supplier",
          "type": "address"
        },
        {
          "internalType": "uint256",
          "name": "supplyAmount",
          "type": "uint256"
        },
        {
          "internalType": "uint256",
          "name": "maturityDate",
          "type": "uint256"
        }
      ],
      "name": "supplyAllowed",
      "outputs": [],
      "stateMutability": "view",
      "type": "function"
    },
    {
      "inputs": [
        {
          "internalType": "bytes4",
          "name": "interfaceId",
          "type": "bytes4"
        }
      ],
      "name": "supportsInterface",
      "outputs": [
        {
          "internalType": "bool",
          "name": "",
          "type": "bool"
        }
      ],
      "stateMutability": "view",
      "type": "function"
    },
    {
      "inputs": [
        {
          "internalType": "address",
          "name": "newOwner",
          "type": "address"
        }
      ],
      "name": "transferOwnership",
      "outputs": [],
      "stateMutability": "nonpayable",
      "type": "function"
    }
  ],
  "transactionHash": "0xa5be5b774e1fa14b2dd58d08edb743a59fcf65afcf67299282dedf67e0034802",
  "args": [
    "0x6d2299c48a8dd07a872fdd0f8233924872ad1071"
  ],
  "solcInputHash": "b5e250247fadf82f7a51f0e5ac668a65",
  "bytecode": "0x608060405260006006556706f05b59d3b20000600855600c600960006101000a81548160ff021916908360ff1602179055503480156200003e57600080fd5b50604051620054e8380380620054e8833981810160405281019062000064919062000334565b600062000076620001a360201b60201c565b9050806000806101000a81548173ffffffffffffffffffffffffffffffffffffffff021916908373ffffffffffffffffffffffffffffffffffffffff1602179055508073ffffffffffffffffffffffffffffffffffffffff16600073ffffffffffffffffffffffffffffffffffffffff167f8be0079c531659141344cd1fd0a4f28419497f9722a3daafe3b4186f6b6457e060405160405180910390a35080600960016101000a81548173ffffffffffffffffffffffffffffffffffffffff021916908373ffffffffffffffffffffffffffffffffffffffff1602179055506200016a6000801b33620001ab60201b60201c565b6200019c7f5146a08baf902532d0ee2f909971144f12ca32651cd70cbee1117cddfb3b3b3333620001ab60201b60201c565b50620003ae565b600033905090565b620001bd8282620001c160201b60201c565b5050565b620001d38282620002b260201b60201c565b620002ae57600180600084815260200190815260200160002060000160008373ffffffffffffffffffffffffffffffffffffffff1673ffffffffffffffffffffffffffffffffffffffff16815260200190815260200160002060006101000a81548160ff02191690831515021790555062000253620001a360201b60201c565b73ffffffffffffffffffffffffffffffffffffffff168173ffffffffffffffffffffffffffffffffffffffff16837f2f8788117e7eff1d82e926ec794901d17c78024a50270940304540a733656f0d60405160405180910390a45b5050565b60006001600084815260200190815260200160002060000160008373ffffffffffffffffffffffffffffffffffffffff1673ffffffffffffffffffffffffffffffffffffffff16815260200190815260200160002060009054906101000a900460ff16905092915050565b6000815190506200032e8162000394565b92915050565b6000602082840312156200034757600080fd5b600062000357848285016200031d565b91505092915050565b60006200036d8262000374565b9050919050565b600073ffffffffffffffffffffffffffffffffffffffff82169050919050565b6200039f8162000360565b8114620003ab57600080fd5b50565b61512a80620003be6000396000f3fe608060405234801561001057600080fd5b50600436106102065760003560e01c8063806a9f801161011a578063c2998238116100ad578063dce154491161007c578063dce15449146105d7578063dec481b814610607578063eafe967b14610637578063f2fde38b14610653578063f4ae95601461066f57610206565b8063c299823814610553578063ce8190191461056f578063d547741f1461058b578063d76a6779146105a757610206565b806397ce0d31116100e957806397ce0d31146104ca5780639e35e142146104e8578063a217fddf14610519578063b962aaeb1461053757610206565b8063806a9f801461042d5780638da5cb5b146104495780638e8f294b1461046757806391d148541461049a57610206565b80632f2ff15d1161019d5780634a5844321161016c5780634a5844321461038b57806353c4fc98146103bb5780635efadbd1146103d7578063715018a6146104075780637adbf9731461041157610206565b80632f2ff15d146103195780632f8832d61461033557806336568abe1461035157806349d5e6041461036d57610206565b80630e52dbec116101d95780630e52dbec14610293578063186db48f146102b1578063248a9ca3146102cd5780632c7c0ae8146102fd57610206565b806301ffc9a71461020b57806305308b9f1461023b578063059a80081461025957806307219b0914610275575b600080fd5b61022560048036038101906102209190614131565b61069f565b6040516102329190614706565b60405180910390f35b610243610719565b6040516102509190614890565b60405180910390f35b610273600480360381019061026e9190613e63565b61071f565b005b61027d610d1f565b60405161028a91906146e4565b60405180910390f35b61029b610dc3565b6040516102a89190614934565b60405180910390f35b6102cb60048036038101906102c69190614016565b610dd6565b005b6102e760048036038101906102e291906140cc565b61103c565b6040516102f49190614721565b60405180910390f35b61031760048036038101906103129190613d8b565b61105c565b005b610333600480360381019061032e91906140f5565b6114c0565b005b61034f600480360381019061034a9190613e63565b6114e9565b005b61036b600480360381019061036691906140f5565b61167e565b005b610375611701565b6040516103829190614721565b60405180910390f35b6103a560048036038101906103a09190613cff565b611725565b6040516103b29190614890565b60405180910390f35b6103d560048036038101906103d09190613e63565b61173d565b005b6103f160048036038101906103ec9190613e14565b6117e0565b6040516103fe9190614890565b60405180910390f35b61040f611adb565b005b61042b60048036038101906104269190613cff565b611c15565b005b61044760048036038101906104429190614268565b611cc3565b005b610451611cd1565b60405161045e9190614619565b60405180910390f35b610481600480360381019061047c9190613cff565b611cfa565b60405161049194939291906147bd565b60405180910390f35b6104b460048036038101906104af91906140f5565b611e47565b6040516104c19190614706565b60405180910390f35b6104d2611eb2565b6040516104df91906146c2565b60405180910390f35b61050260048036038101906104fd9190613f02565b611f40565b6040516105109291906148ab565b60405180910390f35b610521611f5d565b60405161052e9190614721565b60405180910390f35b610551600480360381019061054c9190613e14565b611f64565b005b61056d60048036038101906105689190613fd1565b612006565b005b61058960048036038101906105849190613f3e565b61208f565b005b6105a560048036038101906105a091906140f5565b61235b565b005b6105c160048036038101906105bc9190613cff565b612384565b6040516105ce9190614706565b60405180910390f35b6105f160048036038101906105ec9190613f02565b6123a4565b6040516105fe919061473c565b60405180910390f35b610621600480360381019061061c9190613ec6565b6123f2565b60405161062e9190614706565b60405180910390f35b610651600480360381019061064c9190613d28565b612552565b005b61066d60048036038101906106689190613cff565b612821565b005b61068960048036038101906106849190614216565b6129ca565b6040516106969190614619565b60405180910390f35b60007f7965db0b000000000000000000000000000000000000000000000000000000007bffffffffffffffffffffffffffffffffffffffffffffffffffffffff1916827bffffffffffffffffffffffffffffffffffffffffffffffffffffffff19161480610712575061071182612a09565b5b9050919050565b60085481565b600360008573ffffffffffffffffffffffffffffffffffffffff1673ffffffffffffffffffffffffffffffffffffffff16815260200190815260200160002060009054906101000a900460ff16156107af57600e6040517fede8a5990000000000000000000000000000000000000000000000000000000081526004016107a69190614757565b60405180910390fd5b6107ba816002612a73565b600260008573ffffffffffffffffffffffffffffffffffffffff1673ffffffffffffffffffffffffffffffffffffffff16815260200190815260200160002060020160009054906101000a900460ff1661084c5760016040517fede8a5990000000000000000000000000000000000000000000000000000000081526004016108439190614757565b60405180910390fd5b600260008573ffffffffffffffffffffffffffffffffffffffff1673ffffffffffffffffffffffffffffffffffffffff16815260200190815260200160002060040160008473ffffffffffffffffffffffffffffffffffffffff1673ffffffffffffffffffffffffffffffffffffffff16815260200190815260200160002060009054906101000a900460ff16610a19578373ffffffffffffffffffffffffffffffffffffffff163373ffffffffffffffffffffffffffffffffffffffff161461094e57600f6040517fede8a5990000000000000000000000000000000000000000000000000000000081526004016109459190614757565b60405180910390fd5b6109583384612bcc565b600260008573ffffffffffffffffffffffffffffffffffffffff1673ffffffffffffffffffffffffffffffffffffffff16815260200190815260200160002060040160008473ffffffffffffffffffffffffffffffffffffffff1673ffffffffffffffffffffffffffffffffffffffff16815260200190815260200160002060009054906101000a900460ff16610a18577f4e487b7100000000000000000000000000000000000000000000000000000000600052600160045260246000fd5b5b6000600960019054906101000a900473ffffffffffffffffffffffffffffffffffffffff1673ffffffffffffffffffffffffffffffffffffffff1663fe2c61988673ffffffffffffffffffffffffffffffffffffffff16636c02a9316040518163ffffffff1660e01b815260040160006040518083038186803b158015610a9f57600080fd5b505afa158015610ab3573d6000803e3d6000fd5b505050506040513d6000823e3d601f19601f82011682018060405250810190610adc91906141d5565b6040518263ffffffff1660e01b8152600401610af8919061479b565b60206040518083038186803b158015610b1057600080fd5b505afa158015610b24573d6000803e3d6000fd5b505050506040513d601f19601f82011682018060405250810190610b48919061423f565b1415610b8c5760046040517fede8a599000000000000000000000000000000000000000000000000000000008152600401610b839190614757565b60405180910390fd5b6000600460008673ffffffffffffffffffffffffffffffffffffffff1673ffffffffffffffffffffffffffffffffffffffff16815260200190815260200160002054905060008114610cbd5760008573ffffffffffffffffffffffffffffffffffffffff1663ea1cd41f846040518263ffffffff1660e01b8152600401610c139190614890565b60206040518083038186803b158015610c2b57600080fd5b505afa158015610c3f573d6000803e3d6000fd5b505050506040513d601f19601f82011682018060405250810190610c63919061423f565b905060008482610c739190614a6a565b9050828110610cba5760116040517fede8a599000000000000000000000000000000000000000000000000000000008152600401610cb19190614757565b60405180910390fd5b50505b6000610ccd858488600088612dfd565b9150506000811115610d175760056040517fede8a599000000000000000000000000000000000000000000000000000000008152600401610d0e9190614757565b60405180910390fd5b505050505050565b606073f6780c6eCFbF39CE58ac293dC2F00da27c91df4E63ee5c40d442600960009054906101000a900460ff166040518363ffffffff1660e01b8152600401610d6992919061490b565b60006040518083038186803b158015610d8157600080fd5b505af4158015610d95573d6000803e3d6000fd5b505050506040513d6000823e3d601f19601f82011682018060405250810190610dbe919061408b565b905090565b600960009054906101000a900460ff1681565b7f5146a08baf902532d0ee2f909971144f12ca32651cd70cbee1117cddfb3b3b33610e0881610e03613342565b61334a565b600085859050905060008484905090506000821480610e275750808214155b15610e6a5760106040517fede8a599000000000000000000000000000000000000000000000000000000008152600401610e619190614757565b60405180910390fd5b60005b8281101561103257858582818110610eae577f4e487b7100000000000000000000000000000000000000000000000000000000600052603260045260246000fd5b90506020020135600460008a8a85818110610ef2577f4e487b7100000000000000000000000000000000000000000000000000000000600052603260045260246000fd5b9050602002016020810190610f079190614183565b73ffffffffffffffffffffffffffffffffffffffff1673ffffffffffffffffffffffffffffffffffffffff16815260200190815260200160002081905550878782818110610f7e577f4e487b7100000000000000000000000000000000000000000000000000000000600052603260045260246000fd5b9050602002016020810190610f939190614183565b73ffffffffffffffffffffffffffffffffffffffff167f6f1951b2aad10f3fc81b86d91105b413a5b3f847a34bbc5ce1904201b14438f6878784818110611003577f4e487b7100000000000000000000000000000000000000000000000000000000600052603260045260246000fd5b905060200201356040516110179190614890565b60405180910390a2808061102a90614d6b565b915050610e6d565b5050505050505050565b600060016000838152602001908152602001600020600101549050919050565b60008214156110a35760096040517fede8a59900000000000000000000000000000000000000000000000000000000815260040161109a9190614757565b60405180910390fd5b8373ffffffffffffffffffffffffffffffffffffffff168373ffffffffffffffffffffffffffffffffffffffff16141561111557600d6040517fede8a59900000000000000000000000000000000000000000000000000000000815260040161110c9190614757565b60405180910390fd5b600260008773ffffffffffffffffffffffffffffffffffffffff1673ffffffffffffffffffffffffffffffffffffffff16815260200190815260200160002060020160009054906101000a900460ff1615806111be5750600260008673ffffffffffffffffffffffffffffffffffffffff1673ffffffffffffffffffffffffffffffffffffffff16815260200190815260200160002060020160009054906101000a900460ff16155b156112015760016040517fede8a5990000000000000000000000000000000000000000000000000000000081526004016111f89190614757565b60405180910390fd5b8473ffffffffffffffffffffffffffffffffffffffff1663b72ddee96040518163ffffffff1660e01b815260040160206040518083038186803b15801561124757600080fd5b505afa15801561125b573d6000803e3d6000fd5b505050506040513d601f19601f8201168201806040525081019061127f919061415a565b73ffffffffffffffffffffffffffffffffffffffff168673ffffffffffffffffffffffffffffffffffffffff1663b72ddee96040518163ffffffff1660e01b815260040160206040518083038186803b1580156112db57600080fd5b505afa1580156112ef573d6000803e3d6000fd5b505050506040513d601f19601f82011682018060405250810190611313919061415a565b73ffffffffffffffffffffffffffffffffffffffff161461136c5760076040517fede8a5990000000000000000000000000000000000000000000000000000000081526004016113639190614757565b60405180910390fd5b600061137d84836000806000612dfd565b91505060008114156113c75760066040517fede8a5990000000000000000000000000000000000000000000000000000000081526004016113be9190614757565b60405180910390fd5b60008773ffffffffffffffffffffffffffffffffffffffff166355a1ac2e86856040518363ffffffff1660e01b8152600401611404929190614699565b604080518083038186803b15801561141b57600080fd5b505afa15801561142f573d6000803e3d6000fd5b505050506040513d601f19601f8201168201806040525081019061145391906142a4565b915050600061146d826008546133e790919063ffffffff16565b9050808511156114b55760086040517fede8a5990000000000000000000000000000000000000000000000000000000081526004016114ac9190614757565b60405180910390fd5b505050505050505050565b6114c98261103c565b6114da816114d5613342565b61334a565b6114e48383613410565b505050565b600260008573ffffffffffffffffffffffffffffffffffffffff1673ffffffffffffffffffffffffffffffffffffffff16815260200190815260200160002060020160009054906101000a900460ff1661157b5760016040517fede8a5990000000000000000000000000000000000000000000000000000000081526004016115729190614757565b60405180910390fd5b611586816001612a73565b600260008573ffffffffffffffffffffffffffffffffffffffff1673ffffffffffffffffffffffffffffffffffffffff16815260200190815260200160002060040160008473ffffffffffffffffffffffffffffffffffffffff1673ffffffffffffffffffffffffffffffffffffffff16815260200190815260200160002060009054906101000a900460ff1661161c57611678565b600061162c848387866000612dfd565b91505060008111156116765760056040517fede8a59900000000000000000000000000000000000000000000000000000000815260040161166d9190614757565b60405180910390fd5b505b50505050565b611686613342565b73ffffffffffffffffffffffffffffffffffffffff168173ffffffffffffffffffffffffffffffffffffffff16146116f3576040517f08c379a00000000000000000000000000000000000000000000000000000000081526004016116ea90614870565b60405180910390fd5b6116fd82826134f0565b5050565b7f5146a08baf902532d0ee2f909971144f12ca32651cd70cbee1117cddfb3b3b3381565b60046020528060005260406000206000915090505481565b600260008573ffffffffffffffffffffffffffffffffffffffff1673ffffffffffffffffffffffffffffffffffffffff16815260200190815260200160002060020160009054906101000a900460ff166117cf5760016040517fede8a5990000000000000000000000000000000000000000000000000000000081526004016117c69190614757565b60405180910390fd5b6117da816002612a73565b50505050565b600080600960019054906101000a900473ffffffffffffffffffffffffffffffffffffffff1673ffffffffffffffffffffffffffffffffffffffff1663fe2c61988673ffffffffffffffffffffffffffffffffffffffff16636c02a9316040518163ffffffff1660e01b815260040160006040518083038186803b15801561186757600080fd5b505afa15801561187b573d6000803e3d6000fd5b505050506040513d6000823e3d601f19601f820116820180604052508101906118a491906141d5565b6040518263ffffffff1660e01b81526004016118c0919061479b565b60206040518083038186803b1580156118d857600080fd5b505afa1580156118ec573d6000803e3d6000fd5b505050506040513d601f19601f82011682018060405250810190611910919061423f565b90506000600960019054906101000a900473ffffffffffffffffffffffffffffffffffffffff1673ffffffffffffffffffffffffffffffffffffffff1663fe2c61988673ffffffffffffffffffffffffffffffffffffffff16636c02a9316040518163ffffffff1660e01b815260040160006040518083038186803b15801561199857600080fd5b505afa1580156119ac573d6000803e3d6000fd5b505050506040513d6000823e3d601f19601f820116820180604052508101906119d591906141d5565b6040518263ffffffff1660e01b81526004016119f1919061479b565b60206040518083038186803b158015611a0957600080fd5b505afa158015611a1d573d6000803e3d6000fd5b505050506040513d601f19601f82011682018060405250810190611a41919061423f565b90506000821480611a525750600081145b15611a955760046040517fede8a599000000000000000000000000000000000000000000000000000000008152600401611a8c9190614757565b60405180910390fd5b6000611aaf83620f4240876135d29092919063ffffffff16565b90506000611acb83620f4240846135f49092919063ffffffff16565b9050809450505050509392505050565b611ae3613342565b73ffffffffffffffffffffffffffffffffffffffff16611b01611cd1565b73ffffffffffffffffffffffffffffffffffffffff1614611b57576040517f08c379a0000000000000000000000000000000000000000000000000000000008152600401611b4e90614850565b60405180910390fd5b600073ffffffffffffffffffffffffffffffffffffffff1660008054906101000a900473ffffffffffffffffffffffffffffffffffffffff1673ffffffffffffffffffffffffffffffffffffffff167f8be0079c531659141344cd1fd0a4f28419497f9722a3daafe3b4186f6b6457e060405160405180910390a360008060006101000a81548173ffffffffffffffffffffffffffffffffffffffff021916908373ffffffffffffffffffffffffffffffffffffffff160217905550565b7f5146a08baf902532d0ee2f909971144f12ca32651cd70cbee1117cddfb3b3b33611c4781611c42613342565b61334a565b81600960016101000a81548173ffffffffffffffffffffffffffffffffffffffff021916908373ffffffffffffffffffffffffffffffffffffffff1602179055507f0e05ae75e8b926552cf6fcd744d19f422561e3ced1e426868730852702dbe41882604051611cb79190614619565b60405180910390a15050565b611ccd8282612a73565b5050565b60008060009054906101000a900473ffffffffffffffffffffffffffffffffffffffff16905090565b6002602052806000526040600020600091509050806000018054611d1d90614d08565b80601f0160208091040260200160405190810160405280929190818152602001828054611d4990614d08565b8015611d965780601f10611d6b57610100808354040283529160200191611d96565b820191906000526020600020905b815481529060010190602001808311611d7957829003601f168201915b505050505090806001018054611dab90614d08565b80601f0160208091040260200160405190810160405280929190818152602001828054611dd790614d08565b8015611e245780601f10611df957610100808354040283529160200191611e24565b820191906000526020600020905b815481529060010190602001808311611e0757829003601f168201915b5050505050908060020160009054906101000a900460ff16908060030154905084565b60006001600084815260200190815260200160002060000160008373ffffffffffffffffffffffffffffffffffffffff1673ffffffffffffffffffffffffffffffffffffffff16815260200190815260200160002060009054906101000a900460ff16905092915050565b60606007805480602002602001604051908101604052809291908181526020018280548015611f3657602002820191906000526020600020905b8160009054906101000a900473ffffffffffffffffffffffffffffffffffffffff1673ffffffffffffffffffffffffffffffffffffffff1681526020019060010190808311611eec575b5050505050905090565b600080611f5284846000806000612dfd565b915091509250929050565b6000801b81565b600260008473ffffffffffffffffffffffffffffffffffffffff1673ffffffffffffffffffffffffffffffffffffffff16815260200190815260200160002060020160009054906101000a900460ff16611ff65760016040517fede8a599000000000000000000000000000000000000000000000000000000008152600401611fed9190614757565b60405180910390fd5b612001816001612a73565b505050565b600082829050905060005b81811015612089576000848483818110612054577f4e487b7100000000000000000000000000000000000000000000000000000000600052603260045260246000fd5b90506020020160208101906120699190613cff565b90506120758133612bcc565b50808061208190614d6b565b915050612011565b50505050565b7f5146a08baf902532d0ee2f909971144f12ca32651cd70cbee1117cddfb3b3b336120c1816120bc613342565b61334a565b6000600260008773ffffffffffffffffffffffffffffffffffffffff1673ffffffffffffffffffffffffffffffffffffffff16815260200190815260200160002090508060020160009054906101000a900460ff16156121595760026040517fede8a5990000000000000000000000000000000000000000000000000000000081526004016121509190614757565b60405180910390fd5b3073ffffffffffffffffffffffffffffffffffffffff168673ffffffffffffffffffffffffffffffffffffffff1663b72ddee96040518163ffffffff1660e01b815260040160206040518083038186803b1580156121b657600080fd5b505afa1580156121ca573d6000803e3d6000fd5b505050506040513d601f19601f820116820180604052508101906121ee919061415a565b73ffffffffffffffffffffffffffffffffffffffff16146122475760076040517fede8a59900000000000000000000000000000000000000000000000000000000815260040161223e9190614757565b60405180910390fd5b60018160020160006101000a81548160ff02191690831515021790555084816003018190555083816000019080519060200190612285929190613910565b508281600101908051906020019061229e929190613910565b506001600660008282546122b29190614a6a565b925050819055506007869080600181540180825580915050600190039060005260206000200160009091909190916101000a81548173ffffffffffffffffffffffffffffffffffffffff021916908373ffffffffffffffffffffffffffffffffffffffff1602179055507fcf583bb0c569eb967f806b11601c4cb93c10310485c67add5f8362c2f212321f8660405161234b9190614619565b60405180910390a1505050505050565b6123648261103c565b61237581612370613342565b61334a565b61237f83836134f0565b505050565b60036020528060005260406000206000915054906101000a900460ff1681565b600560205281600052604060002081815481106123c057600080fd5b906000526020600020016000915091509054906101000a900473ffffffffffffffffffffffffffffffffffffffff1681565b60007f5146a08baf902532d0ee2f909971144f12ca32651cd70cbee1117cddfb3b3b3361242681612421613342565b61334a565b600260008573ffffffffffffffffffffffffffffffffffffffff1673ffffffffffffffffffffffffffffffffffffffff16815260200190815260200160002060020160009054906101000a900460ff166124b85760016040517fede8a5990000000000000000000000000000000000000000000000000000000081526004016124af9190614757565b60405180910390fd5b82600360008673ffffffffffffffffffffffffffffffffffffffff1673ffffffffffffffffffffffffffffffffffffffff16815260200190815260200160002060006101000a81548160ff0219169083151502179055507f71aec636243f9709bb0007ae15e9afb8150ab01716d75fd7573be5cc096e03b0848460405161254092919061465d565b60405180910390a18291505092915050565b8173ffffffffffffffffffffffffffffffffffffffff168173ffffffffffffffffffffffffffffffffffffffff1614156125c457600d6040517fede8a5990000000000000000000000000000000000000000000000000000000081526004016125bb9190614757565b60405180910390fd5b600260008573ffffffffffffffffffffffffffffffffffffffff1673ffffffffffffffffffffffffffffffffffffffff16815260200190815260200160002060020160009054906101000a900460ff16158061266d5750600260008473ffffffffffffffffffffffffffffffffffffffff1673ffffffffffffffffffffffffffffffffffffffff16815260200190815260200160002060020160009054906101000a900460ff16155b156126b05760016040517fede8a5990000000000000000000000000000000000000000000000000000000081526004016126a79190614757565b60405180910390fd5b8273ffffffffffffffffffffffffffffffffffffffff1663b72ddee96040518163ffffffff1660e01b815260040160206040518083038186803b1580156126f657600080fd5b505afa15801561270a573d6000803e3d6000fd5b505050506040513d601f19601f8201168201806040525081019061272e919061415a565b73ffffffffffffffffffffffffffffffffffffffff168473ffffffffffffffffffffffffffffffffffffffff1663b72ddee96040518163ffffffff1660e01b815260040160206040518083038186803b15801561278a57600080fd5b505afa15801561279e573d6000803e3d6000fd5b505050506040513d601f19601f820116820180604052508101906127c2919061415a565b73ffffffffffffffffffffffffffffffffffffffff161461281b5760076040517fede8a5990000000000000000000000000000000000000000000000000000000081526004016128129190614757565b60405180910390fd5b50505050565b612829613342565b73ffffffffffffffffffffffffffffffffffffffff16612847611cd1565b73ffffffffffffffffffffffffffffffffffffffff161461289d576040517f08c379a000000000000000000000000000000000000000000000000000000000815260040161289490614850565b60405180910390fd5b600073ffffffffffffffffffffffffffffffffffffffff168173ffffffffffffffffffffffffffffffffffffffff16141561290d576040517f08c379a000000000000000000000000000000000000000000000000000000000815260040161290490614830565b60405180910390fd5b8073ffffffffffffffffffffffffffffffffffffffff1660008054906101000a900473ffffffffffffffffffffffffffffffffffffffff1673ffffffffffffffffffffffffffffffffffffffff167f8be0079c531659141344cd1fd0a4f28419497f9722a3daafe3b4186f6b6457e060405160405180910390a3806000806101000a81548173ffffffffffffffffffffffffffffffffffffffff021916908373ffffffffffffffffffffffffffffffffffffffff16021790555050565b600781815481106129da57600080fd5b906000526020600020016000915054906101000a900473ffffffffffffffffffffffffffffffffffffffff1681565b60007f01ffc9a7000000000000000000000000000000000000000000000000000000007bffffffffffffffffffffffffffffffffffffffffffffffffffffffff1916827bffffffffffffffffffffffffffffffffffffffffffffffffffffffff1916149050919050565b600073f6780c6eCFbF39CE58ac293dC2F00da27c91df4E63da4b8a4c4285600960009054906101000a900460ff166040518463ffffffff1660e01b8152600401612abf939291906148d4565b60206040518083038186803b158015612ad757600080fd5b505af4158015612aeb573d6000803e3d6000fd5b505050506040513d601f19601f82011682018060405250810190612b0f91906141ac565b9050816003811115612b4a577f4e487b7100000000000000000000000000000000000000000000000000000000600052602160045260246000fd5b816003811115612b83577f4e487b7100000000000000000000000000000000000000000000000000000000600052602160045260246000fd5b14612bc75780826040517f34e2603a000000000000000000000000000000000000000000000000000000008152600401612bbe929190614772565b60405180910390fd5b505050565b6000600260008473ffffffffffffffffffffffffffffffffffffffff1673ffffffffffffffffffffffffffffffffffffffff16815260200190815260200160002090508060020160009054906101000a900460ff16612c635760016040517fede8a599000000000000000000000000000000000000000000000000000000008152600401612c5a9190614757565b60405180910390fd5b600115158160040160008473ffffffffffffffffffffffffffffffffffffffff1673ffffffffffffffffffffffffffffffffffffffff16815260200190815260200160002060009054906101000a900460ff1615151415612cc45750612df9565b60018160040160008473ffffffffffffffffffffffffffffffffffffffff1673ffffffffffffffffffffffffffffffffffffffff16815260200190815260200160002060006101000a81548160ff021916908315150217905550600560008373ffffffffffffffffffffffffffffffffffffffff1673ffffffffffffffffffffffffffffffffffffffff168152602001908152602001600020839080600181540180825580915050600190039060005260206000200160009091909190916101000a81548173ffffffffffffffffffffffffffffffffffffffff021916908373ffffffffffffffffffffffffffffffffffffffff1602179055507f3ab23ab0d51cccc0c3085aec51f99228625aa1a922b3a8ca89a26b0f2027a1a58383604051612def929190614634565b60405180910390a1505b5050565b600080612e08613996565b6000600560008a73ffffffffffffffffffffffffffffffffffffffff1673ffffffffffffffffffffffffffffffffffffffff168152602001908152602001600020805480602002602001604051908101604052809291908181526020018280548015612ec957602002820191906000526020600020905b8160009054906101000a900473ffffffffffffffffffffffffffffffffffffffff1673ffffffffffffffffffffffffffffffffffffffff1681526020019060010190808311612e7f575b5050505050905060005b81518110156132e9576000828281518110612f17577f4e487b7100000000000000000000000000000000000000000000000000000000600052603260045260246000fd5b602002602001015190508073ffffffffffffffffffffffffffffffffffffffff166355a1ac2e8c8c6040518363ffffffff1660e01b8152600401612f5c929190614699565b604080518083038186803b158015612f7357600080fd5b505afa158015612f87573d6000803e3d6000fd5b505050506040513d601f19601f82011682018060405250810190612fab91906142a4565b856000018660200182815250828152505050600260008273ffffffffffffffffffffffffffffffffffffffff1673ffffffffffffffffffffffffffffffffffffffff16815260200190815260200160002060030154846040018181525050600960019054906101000a900473ffffffffffffffffffffffffffffffffffffffff1673ffffffffffffffffffffffffffffffffffffffff1663fe2c61988273ffffffffffffffffffffffffffffffffffffffff16636c02a9316040518163ffffffff1660e01b815260040160006040518083038186803b15801561308d57600080fd5b505afa1580156130a1573d6000803e3d6000fd5b505050506040513d6000823e3d601f19601f820116820180604052508101906130ca91906141d5565b6040518263ffffffff1660e01b81526004016130e6919061479b565b60206040518083038186803b1580156130fe57600080fd5b505afa158015613112573d6000803e3d6000fd5b505050506040513d601f19601f82011682018060405250810190613136919061423f565b84606001818152505060008460600151141561318a5760046040517fede8a5990000000000000000000000000000000000000000000000000000000081526004016131819190614757565b60405180910390fd5b6131c08460600151620f42406131b1876040015188600001516133e790919063ffffffff16565b6135d29092919063ffffffff16565b846080018181516131d19190614a6a565b915081815250506131f88460600151620f424086602001516135d29092919063ffffffff16565b8460a0018181516132099190614a6a565b915081815250508873ffffffffffffffffffffffffffffffffffffffff168173ffffffffffffffffffffffffffffffffffffffff1614156132d55760008714613281576132688460600151620f4240896135d29092919063ffffffff16565b8460a0018181516132799190614a6a565b915081815250505b600088146132d4576132bb8460600151620f42406132ac87604001518c6133e790919063ffffffff16565b6135d29092919063ffffffff16565b8460a0018181516132cc9190614a6a565b915081815250505b5b5080806132e190614d6b565b915050612ed3565b508160a001518260800151111561331b578160a00151826080015161330e9190614b4b565b6000935093505050613338565b600082608001518360a001516133319190614b4b565b9350935050505b9550959350505050565b600033905090565b6133548282611e47565b6133e3576133798173ffffffffffffffffffffffffffffffffffffffff166014613616565b6133878360001c6020613616565b6040516020016133989291906145df565b6040516020818303038152906040526040517f08c379a00000000000000000000000000000000000000000000000000000000081526004016133da919061479b565b60405180910390fd5b5050565b6000670de0b6b3a764000082846133fe9190614af1565b6134089190614ac0565b905092915050565b61341a8282611e47565b6134ec57600180600084815260200190815260200160002060000160008373ffffffffffffffffffffffffffffffffffffffff1673ffffffffffffffffffffffffffffffffffffffff16815260200190815260200160002060006101000a81548160ff021916908315150217905550613491613342565b73ffffffffffffffffffffffffffffffffffffffff168173ffffffffffffffffffffffffffffffffffffffff16837f2f8788117e7eff1d82e926ec794901d17c78024a50270940304540a733656f0d60405160405180910390a45b5050565b6134fa8282611e47565b156135ce5760006001600084815260200190815260200160002060000160008373ffffffffffffffffffffffffffffffffffffffff1673ffffffffffffffffffffffffffffffffffffffff16815260200190815260200160002060006101000a81548160ff021916908315150217905550613573613342565b73ffffffffffffffffffffffffffffffffffffffff168173ffffffffffffffffffffffffffffffffffffffff16837ff6391f5c32d9c69d2a47ea670b442974b53935d1edc7fd64eb21e047a839171b60405160405180910390a45b5050565b60008183856135e19190614af1565b6135eb9190614ac0565b90509392505050565b60008282856136039190614af1565b61360d9190614ac0565b90509392505050565b6060600060028360026136299190614af1565b6136339190614a6a565b67ffffffffffffffff811115613672577f4e487b7100000000000000000000000000000000000000000000000000000000600052604160045260246000fd5b6040519080825280601f01601f1916602001820160405280156136a45781602001600182028036833780820191505090505b5090507f300000000000000000000000000000000000000000000000000000000000000081600081518110613702577f4e487b7100000000000000000000000000000000000000000000000000000000600052603260045260246000fd5b60200101907effffffffffffffffffffffffffffffffffffffffffffffffffffffffffffff1916908160001a9053507f78000000000000000000000000000000000000000000000000000000000000008160018151811061378c577f4e487b7100000000000000000000000000000000000000000000000000000000600052603260045260246000fd5b60200101907effffffffffffffffffffffffffffffffffffffffffffffffffffffffffffff1916908160001a905350600060018460026137cc9190614af1565b6137d69190614a6a565b90505b60018111156138c2577f3031323334353637383961626364656600000000000000000000000000000000600f86166010811061383e577f4e487b7100000000000000000000000000000000000000000000000000000000600052603260045260246000fd5b1a60f81b82828151811061387b577f4e487b7100000000000000000000000000000000000000000000000000000000600052603260045260246000fd5b60200101907effffffffffffffffffffffffffffffffffffffffffffffffffffffffffffff1916908160001a905350600485901c9450806138bb90614cde565b90506137d9565b5060008414613906576040517f08c379a00000000000000000000000000000000000000000000000000000000081526004016138fd90614810565b60405180910390fd5b8091505092915050565b82805461391c90614d08565b90600052602060002090601f01602090048101928261393e5760008555613985565b82601f1061395757805160ff1916838001178555613985565b82800160010185558215613985579182015b82811115613984578251825591602001919060010190613969565b5b50905061399291906139cc565b5090565b6040518060c001604052806000815260200160008152602001600081526020016000815260200160008152602001600081525090565b5b808211156139e55760008160009055506001016139cd565b5090565b60006139fc6139f784614974565b61494f565b90508083825260208201905082856020860282011115613a1b57600080fd5b60005b85811015613a4b5781613a318882613cea565b845260208401935060208301925050600181019050613a1e565b5050509392505050565b6000613a68613a63846149a0565b61494f565b905082815260208101848484011115613a8057600080fd5b613a8b848285614c9c565b509392505050565b6000613aa6613aa1846149a0565b61494f565b905082815260208101848484011115613abe57600080fd5b613ac9848285614cab565b509392505050565b600081359050613ae081615043565b92915050565b60008083601f840112613af857600080fd5b8235905067ffffffffffffffff811115613b1157600080fd5b602083019150836020820283011115613b2957600080fd5b9250929050565b60008083601f840112613b4257600080fd5b8235905067ffffffffffffffff811115613b5b57600080fd5b602083019150836020820283011115613b7357600080fd5b9250929050565b60008083601f840112613b8c57600080fd5b8235905067ffffffffffffffff811115613ba557600080fd5b602083019150836020820283011115613bbd57600080fd5b9250929050565b600082601f830112613bd557600080fd5b8151613be58482602086016139e9565b91505092915050565b600081359050613bfd8161505a565b92915050565b600081359050613c1281615071565b92915050565b600081359050613c2781615088565b92915050565b600081519050613c3c8161509f565b92915050565b600081359050613c51816150b6565b92915050565b600081359050613c66816150cd565b92915050565b600081519050613c7b816150cd565b92915050565b600082601f830112613c9257600080fd5b8135613ca2848260208601613a55565b91505092915050565b600082601f830112613cbc57600080fd5b8151613ccc848260208601613a93565b91505092915050565b600081359050613ce4816150dd565b92915050565b600081519050613cf9816150dd565b92915050565b600060208284031215613d1157600080fd5b6000613d1f84828501613ad1565b91505092915050565b60008060008060808587031215613d3e57600080fd5b6000613d4c87828801613ad1565b9450506020613d5d87828801613ad1565b9350506040613d6e87828801613ad1565b9250506060613d7f87828801613ad1565b91505092959194509250565b60008060008060008060c08789031215613da457600080fd5b6000613db289828a01613ad1565b9650506020613dc389828a01613ad1565b9550506040613dd489828a01613ad1565b9450506060613de589828a01613ad1565b9350506080613df689828a01613cd5565b92505060a0613e0789828a01613cd5565b9150509295509295509295565b600080600060608486031215613e2957600080fd5b6000613e3786828701613ad1565b9350506020613e4886828701613ad1565b9250506040613e5986828701613cd5565b9150509250925092565b60008060008060808587031215613e7957600080fd5b6000613e8787828801613ad1565b9450506020613e9887828801613ad1565b9350506040613ea987828801613cd5565b9250506060613eba87828801613cd5565b91505092959194509250565b60008060408385031215613ed957600080fd5b6000613ee785828601613ad1565b9250506020613ef885828601613bee565b9150509250929050565b60008060408385031215613f1557600080fd5b6000613f2385828601613ad1565b9250506020613f3485828601613cd5565b9150509250929050565b60008060008060808587031215613f5457600080fd5b6000613f6287828801613ad1565b9450506020613f7387828801613cd5565b935050604085013567ffffffffffffffff811115613f9057600080fd5b613f9c87828801613c81565b925050606085013567ffffffffffffffff811115613fb957600080fd5b613fc587828801613c81565b91505092959194509250565b60008060208385031215613fe457600080fd5b600083013567ffffffffffffffff811115613ffe57600080fd5b61400a85828601613ae6565b92509250509250929050565b6000806000806040858703121561402c57600080fd5b600085013567ffffffffffffffff81111561404657600080fd5b61405287828801613b30565b9450945050602085013567ffffffffffffffff81111561407157600080fd5b61407d87828801613b7a565b925092505092959194509250565b60006020828403121561409d57600080fd5b600082015167ffffffffffffffff8111156140b757600080fd5b6140c384828501613bc4565b91505092915050565b6000602082840312156140de57600080fd5b60006140ec84828501613c03565b91505092915050565b6000806040838503121561410857600080fd5b600061411685828601613c03565b925050602061412785828601613ad1565b9150509250929050565b60006020828403121561414357600080fd5b600061415184828501613c18565b91505092915050565b60006020828403121561416c57600080fd5b600061417a84828501613c2d565b91505092915050565b60006020828403121561419557600080fd5b60006141a384828501613c42565b91505092915050565b6000602082840312156141be57600080fd5b60006141cc84828501613c6c565b91505092915050565b6000602082840312156141e757600080fd5b600082015167ffffffffffffffff81111561420157600080fd5b61420d84828501613cab565b91505092915050565b60006020828403121561422857600080fd5b600061423684828501613cd5565b91505092915050565b60006020828403121561425157600080fd5b600061425f84828501613cea565b91505092915050565b6000806040838503121561427b57600080fd5b600061428985828601613cd5565b925050602061429a85828601613c57565b9150509250929050565b600080604083850312156142b757600080fd5b60006142c585828601613cea565b92505060206142d685828601613cea565b9150509250929050565b60006142ec8383614310565b60208301905092915050565b60006143048383614594565b60208301905092915050565b61431981614b7f565b82525050565b61432881614b7f565b82525050565b6000614339826149f1565b6143438185614a2c565b935061434e836149d1565b8060005b8381101561437f57815161436688826142e0565b975061437183614a12565b925050600181019050614352565b5085935050505092915050565b6000614397826149fc565b6143a18185614a3d565b93506143ac836149e1565b8060005b838110156143dd5781516143c488826142f8565b97506143cf83614a1f565b9250506001810190506143b0565b5085935050505092915050565b6143f381614b91565b82525050565b61440281614b9d565b82525050565b61441181614c54565b82525050565b61442081614c78565b82525050565b61442f81614c8a565b82525050565b600061444082614a07565b61444a8185614a4e565b935061445a818560208601614cab565b61446381614e9f565b840191505092915050565b600061447982614a07565b6144838185614a5f565b9350614493818560208601614cab565b80840191505092915050565b60006144ac602083614a4e565b91506144b782614eb0565b602082019050919050565b60006144cf602683614a4e565b91506144da82614ed9565b604082019050919050565b60006144f2600683614a4e565b91506144fd82614f28565b602082019050919050565b6000614515602083614a4e565b915061452082614f51565b602082019050919050565b6000614538601783614a5f565b915061454382614f7a565b601782019050919050565b600061455b601183614a5f565b915061456682614fa3565b601182019050919050565b600061457e602f83614a4e565b915061458982614fcc565b604082019050919050565b61459d81614c3d565b82525050565b6145ac81614c3d565b82525050565b6145bb81614c3d565b82525050565b6145ca81614c47565b82525050565b6145d981614c47565b82525050565b60006145ea8261452b565b91506145f6828561446e565b91506146018261454e565b915061460d828461446e565b91508190509392505050565b600060208201905061462e600083018461431f565b92915050565b6000604082019050614649600083018561431f565b614656602083018461431f565b9392505050565b6000606082019050614672600083018561431f565b8181036020830152614683816144e5565b905061469260408301846143ea565b9392505050565b60006040820190506146ae600083018561431f565b6146bb60208301846145a3565b9392505050565b600060208201905081810360008301526146dc818461432e565b905092915050565b600060208201905081810360008301526146fe818461438c565b905092915050565b600060208201905061471b60008301846143ea565b92915050565b600060208201905061473660008301846143f9565b92915050565b60006020820190506147516000830184614408565b92915050565b600060208201905061476c6000830184614417565b92915050565b60006040820190506147876000830185614426565b6147946020830184614426565b9392505050565b600060208201905081810360008301526147b58184614435565b905092915050565b600060808201905081810360008301526147d78187614435565b905081810360208301526147eb8186614435565b90506147fa60408301856143ea565b61480760608301846145a3565b95945050505050565b600060208201905081810360008301526148298161449f565b9050919050565b60006020820190508181036000830152614849816144c2565b9050919050565b6000602082019050818103600083015261486981614508565b9050919050565b6000602082019050818103600083015261488981614571565b9050919050565b60006020820190506148a560008301846145a3565b92915050565b60006040820190506148c060008301856145a3565b6148cd60208301846145a3565b9392505050565b60006060820190506148e960008301866145b2565b6148f660208301856145b2565b61490360408301846145d0565b949350505050565b600060408201905061492060008301856145b2565b61492d60208301846145d0565b9392505050565b600060208201905061494960008301846145c1565b92915050565b600061495961496a565b90506149658282614d3a565b919050565b6000604051905090565b600067ffffffffffffffff82111561498f5761498e614e70565b5b602082029050602081019050919050565b600067ffffffffffffffff8211156149bb576149ba614e70565b5b6149c482614e9f565b9050602081019050919050565b6000819050602082019050919050565b6000819050602082019050919050565b600081519050919050565b600081519050919050565b600081519050919050565b6000602082019050919050565b6000602082019050919050565b600082825260208201905092915050565b600082825260208201905092915050565b600082825260208201905092915050565b600081905092915050565b6000614a7582614c3d565b9150614a8083614c3d565b9250827fffffffffffffffffffffffffffffffffffffffffffffffffffffffffffffffff03821115614ab557614ab4614db4565b5b828201905092915050565b6000614acb82614c3d565b9150614ad683614c3d565b925082614ae657614ae5614de3565b5b828204905092915050565b6000614afc82614c3d565b9150614b0783614c3d565b9250817fffffffffffffffffffffffffffffffffffffffffffffffffffffffffffffffff0483118215151615614b4057614b3f614db4565b5b828202905092915050565b6000614b5682614c3d565b9150614b6183614c3d565b925082821015614b7457614b73614db4565b5b828203905092915050565b6000614b8a82614c1d565b9050919050565b60008115159050919050565b6000819050919050565b60007fffffffff0000000000000000000000000000000000000000000000000000000082169050919050565b6000614bde82614b7f565b9050919050565b6000614bf082614b7f565b9050919050565b6000819050614c058261501b565b919050565b6000819050614c188261502f565b919050565b600073ffffffffffffffffffffffffffffffffffffffff82169050919050565b6000819050919050565b600060ff82169050919050565b6000614c5f82614c66565b9050919050565b6000614c7182614c1d565b9050919050565b6000614c8382614bf7565b9050919050565b6000614c9582614c0a565b9050919050565b82818337600083830152505050565b60005b83811015614cc9578082015181840152602081019050614cae565b83811115614cd8576000848401525b50505050565b6000614ce982614c3d565b91506000821415614cfd57614cfc614db4565b5b600182039050919050565b60006002820490506001821680614d2057607f821691505b60208210811415614d3457614d33614e41565b5b50919050565b614d4382614e9f565b810181811067ffffffffffffffff82111715614d6257614d61614e70565b5b80604052505050565b6000614d7682614c3d565b91507fffffffffffffffffffffffffffffffffffffffffffffffffffffffffffffffff821415614da957614da8614db4565b5b600182019050919050565b7f4e487b7100000000000000000000000000000000000000000000000000000000600052601160045260246000fd5b7f4e487b7100000000000000000000000000000000000000000000000000000000600052601260045260246000fd5b7f4e487b7100000000000000000000000000000000000000000000000000000000600052602160045260246000fd5b7f4e487b7100000000000000000000000000000000000000000000000000000000600052602260045260246000fd5b7f4e487b7100000000000000000000000000000000000000000000000000000000600052604160045260246000fd5b6000601f19601f8301169050919050565b7f537472696e67733a20686578206c656e67746820696e73756666696369656e74600082015250565b7f4f776e61626c653a206e6577206f776e657220697320746865207a65726f206160008201527f6464726573730000000000000000000000000000000000000000000000000000602082015250565b7f426f72726f770000000000000000000000000000000000000000000000000000600082015250565b7f4f776e61626c653a2063616c6c6572206973206e6f7420746865206f776e6572600082015250565b7f416363657373436f6e74726f6c3a206163636f756e7420000000000000000000600082015250565b7f206973206d697373696e6720726f6c6520000000000000000000000000000000600082015250565b7f416363657373436f6e74726f6c3a2063616e206f6e6c792072656e6f756e636560008201527f20726f6c657320666f722073656c660000000000000000000000000000000000602082015250565b6012811061502c5761502b614e12565b5b50565b600481106150405761503f614e12565b5b50565b61504c81614b7f565b811461505757600080fd5b50565b61506381614b91565b811461506e57600080fd5b50565b61507a81614b9d565b811461508557600080fd5b50565b61509181614ba7565b811461509c57600080fd5b50565b6150a881614bd3565b81146150b357600080fd5b50565b6150bf81614be5565b81146150ca57600080fd5b50565b600481106150da57600080fd5b50565b6150e681614c3d565b81146150f157600080fd5b5056fea2646970667358221220f5db651a7020e41e94d4024d5c8651f6937e08e1808e771ab990957bba7f7e3b64736f6c63430008040033",
  "deployedBytecode": "0x608060405234801561001057600080fd5b50600436106102065760003560e01c8063806a9f801161011a578063c2998238116100ad578063dce154491161007c578063dce15449146105d7578063dec481b814610607578063eafe967b14610637578063f2fde38b14610653578063f4ae95601461066f57610206565b8063c299823814610553578063ce8190191461056f578063d547741f1461058b578063d76a6779146105a757610206565b806397ce0d31116100e957806397ce0d31146104ca5780639e35e142146104e8578063a217fddf14610519578063b962aaeb1461053757610206565b8063806a9f801461042d5780638da5cb5b146104495780638e8f294b1461046757806391d148541461049a57610206565b80632f2ff15d1161019d5780634a5844321161016c5780634a5844321461038b57806353c4fc98146103bb5780635efadbd1146103d7578063715018a6146104075780637adbf9731461041157610206565b80632f2ff15d146103195780632f8832d61461033557806336568abe1461035157806349d5e6041461036d57610206565b80630e52dbec116101d95780630e52dbec14610293578063186db48f146102b1578063248a9ca3146102cd5780632c7c0ae8146102fd57610206565b806301ffc9a71461020b57806305308b9f1461023b578063059a80081461025957806307219b0914610275575b600080fd5b61022560048036038101906102209190614131565b61069f565b6040516102329190614706565b60405180910390f35b610243610719565b6040516102509190614890565b60405180910390f35b610273600480360381019061026e9190613e63565b61071f565b005b61027d610d1f565b60405161028a91906146e4565b60405180910390f35b61029b610dc3565b6040516102a89190614934565b60405180910390f35b6102cb60048036038101906102c69190614016565b610dd6565b005b6102e760048036038101906102e291906140cc565b61103c565b6040516102f49190614721565b60405180910390f35b61031760048036038101906103129190613d8b565b61105c565b005b610333600480360381019061032e91906140f5565b6114c0565b005b61034f600480360381019061034a9190613e63565b6114e9565b005b61036b600480360381019061036691906140f5565b61167e565b005b610375611701565b6040516103829190614721565b60405180910390f35b6103a560048036038101906103a09190613cff565b611725565b6040516103b29190614890565b60405180910390f35b6103d560048036038101906103d09190613e63565b61173d565b005b6103f160048036038101906103ec9190613e14565b6117e0565b6040516103fe9190614890565b60405180910390f35b61040f611adb565b005b61042b60048036038101906104269190613cff565b611c15565b005b61044760048036038101906104429190614268565b611cc3565b005b610451611cd1565b60405161045e9190614619565b60405180910390f35b610481600480360381019061047c9190613cff565b611cfa565b60405161049194939291906147bd565b60405180910390f35b6104b460048036038101906104af91906140f5565b611e47565b6040516104c19190614706565b60405180910390f35b6104d2611eb2565b6040516104df91906146c2565b60405180910390f35b61050260048036038101906104fd9190613f02565b611f40565b6040516105109291906148ab565b60405180910390f35b610521611f5d565b60405161052e9190614721565b60405180910390f35b610551600480360381019061054c9190613e14565b611f64565b005b61056d60048036038101906105689190613fd1565b612006565b005b61058960048036038101906105849190613f3e565b61208f565b005b6105a560048036038101906105a091906140f5565b61235b565b005b6105c160048036038101906105bc9190613cff565b612384565b6040516105ce9190614706565b60405180910390f35b6105f160048036038101906105ec9190613f02565b6123a4565b6040516105fe919061473c565b60405180910390f35b610621600480360381019061061c9190613ec6565b6123f2565b60405161062e9190614706565b60405180910390f35b610651600480360381019061064c9190613d28565b612552565b005b61066d60048036038101906106689190613cff565b612821565b005b61068960048036038101906106849190614216565b6129ca565b6040516106969190614619565b60405180910390f35b60007f7965db0b000000000000000000000000000000000000000000000000000000007bffffffffffffffffffffffffffffffffffffffffffffffffffffffff1916827bffffffffffffffffffffffffffffffffffffffffffffffffffffffff19161480610712575061071182612a09565b5b9050919050565b60085481565b600360008573ffffffffffffffffffffffffffffffffffffffff1673ffffffffffffffffffffffffffffffffffffffff16815260200190815260200160002060009054906101000a900460ff16156107af57600e6040517fede8a5990000000000000000000000000000000000000000000000000000000081526004016107a69190614757565b60405180910390fd5b6107ba816002612a73565b600260008573ffffffffffffffffffffffffffffffffffffffff1673ffffffffffffffffffffffffffffffffffffffff16815260200190815260200160002060020160009054906101000a900460ff1661084c5760016040517fede8a5990000000000000000000000000000000000000000000000000000000081526004016108439190614757565b60405180910390fd5b600260008573ffffffffffffffffffffffffffffffffffffffff1673ffffffffffffffffffffffffffffffffffffffff16815260200190815260200160002060040160008473ffffffffffffffffffffffffffffffffffffffff1673ffffffffffffffffffffffffffffffffffffffff16815260200190815260200160002060009054906101000a900460ff16610a19578373ffffffffffffffffffffffffffffffffffffffff163373ffffffffffffffffffffffffffffffffffffffff161461094e57600f6040517fede8a5990000000000000000000000000000000000000000000000000000000081526004016109459190614757565b60405180910390fd5b6109583384612bcc565b600260008573ffffffffffffffffffffffffffffffffffffffff1673ffffffffffffffffffffffffffffffffffffffff16815260200190815260200160002060040160008473ffffffffffffffffffffffffffffffffffffffff1673ffffffffffffffffffffffffffffffffffffffff16815260200190815260200160002060009054906101000a900460ff16610a18577f4e487b7100000000000000000000000000000000000000000000000000000000600052600160045260246000fd5b5b6000600960019054906101000a900473ffffffffffffffffffffffffffffffffffffffff1673ffffffffffffffffffffffffffffffffffffffff1663fe2c61988673ffffffffffffffffffffffffffffffffffffffff16636c02a9316040518163ffffffff1660e01b815260040160006040518083038186803b158015610a9f57600080fd5b505afa158015610ab3573d6000803e3d6000fd5b505050506040513d6000823e3d601f19601f82011682018060405250810190610adc91906141d5565b6040518263ffffffff1660e01b8152600401610af8919061479b565b60206040518083038186803b158015610b1057600080fd5b505afa158015610b24573d6000803e3d6000fd5b505050506040513d601f19601f82011682018060405250810190610b48919061423f565b1415610b8c5760046040517fede8a599000000000000000000000000000000000000000000000000000000008152600401610b839190614757565b60405180910390fd5b6000600460008673ffffffffffffffffffffffffffffffffffffffff1673ffffffffffffffffffffffffffffffffffffffff16815260200190815260200160002054905060008114610cbd5760008573ffffffffffffffffffffffffffffffffffffffff1663ea1cd41f846040518263ffffffff1660e01b8152600401610c139190614890565b60206040518083038186803b158015610c2b57600080fd5b505afa158015610c3f573d6000803e3d6000fd5b505050506040513d601f19601f82011682018060405250810190610c63919061423f565b905060008482610c739190614a6a565b9050828110610cba5760116040517fede8a599000000000000000000000000000000000000000000000000000000008152600401610cb19190614757565b60405180910390fd5b50505b6000610ccd858488600088612dfd565b9150506000811115610d175760056040517fede8a599000000000000000000000000000000000000000000000000000000008152600401610d0e9190614757565b60405180910390fd5b505050505050565b606073__$90f1fa1b3f91137ac60e95891d324fdd69$__63ee5c40d442600960009054906101000a900460ff166040518363ffffffff1660e01b8152600401610d6992919061490b565b60006040518083038186803b158015610d8157600080fd5b505af4158015610d95573d6000803e3d6000fd5b505050506040513d6000823e3d601f19601f82011682018060405250810190610dbe919061408b565b905090565b600960009054906101000a900460ff1681565b7f5146a08baf902532d0ee2f909971144f12ca32651cd70cbee1117cddfb3b3b33610e0881610e03613342565b61334a565b600085859050905060008484905090506000821480610e275750808214155b15610e6a5760106040517fede8a599000000000000000000000000000000000000000000000000000000008152600401610e619190614757565b60405180910390fd5b60005b8281101561103257858582818110610eae577f4e487b7100000000000000000000000000000000000000000000000000000000600052603260045260246000fd5b90506020020135600460008a8a85818110610ef2577f4e487b7100000000000000000000000000000000000000000000000000000000600052603260045260246000fd5b9050602002016020810190610f079190614183565b73ffffffffffffffffffffffffffffffffffffffff1673ffffffffffffffffffffffffffffffffffffffff16815260200190815260200160002081905550878782818110610f7e577f4e487b7100000000000000000000000000000000000000000000000000000000600052603260045260246000fd5b9050602002016020810190610f939190614183565b73ffffffffffffffffffffffffffffffffffffffff167f6f1951b2aad10f3fc81b86d91105b413a5b3f847a34bbc5ce1904201b14438f6878784818110611003577f4e487b7100000000000000000000000000000000000000000000000000000000600052603260045260246000fd5b905060200201356040516110179190614890565b60405180910390a2808061102a90614d6b565b915050610e6d565b5050505050505050565b600060016000838152602001908152602001600020600101549050919050565b60008214156110a35760096040517fede8a59900000000000000000000000000000000000000000000000000000000815260040161109a9190614757565b60405180910390fd5b8373ffffffffffffffffffffffffffffffffffffffff168373ffffffffffffffffffffffffffffffffffffffff16141561111557600d6040517fede8a59900000000000000000000000000000000000000000000000000000000815260040161110c9190614757565b60405180910390fd5b600260008773ffffffffffffffffffffffffffffffffffffffff1673ffffffffffffffffffffffffffffffffffffffff16815260200190815260200160002060020160009054906101000a900460ff1615806111be5750600260008673ffffffffffffffffffffffffffffffffffffffff1673ffffffffffffffffffffffffffffffffffffffff16815260200190815260200160002060020160009054906101000a900460ff16155b156112015760016040517fede8a5990000000000000000000000000000000000000000000000000000000081526004016111f89190614757565b60405180910390fd5b8473ffffffffffffffffffffffffffffffffffffffff1663b72ddee96040518163ffffffff1660e01b815260040160206040518083038186803b15801561124757600080fd5b505afa15801561125b573d6000803e3d6000fd5b505050506040513d601f19601f8201168201806040525081019061127f919061415a565b73ffffffffffffffffffffffffffffffffffffffff168673ffffffffffffffffffffffffffffffffffffffff1663b72ddee96040518163ffffffff1660e01b815260040160206040518083038186803b1580156112db57600080fd5b505afa1580156112ef573d6000803e3d6000fd5b505050506040513d601f19601f82011682018060405250810190611313919061415a565b73ffffffffffffffffffffffffffffffffffffffff161461136c5760076040517fede8a5990000000000000000000000000000000000000000000000000000000081526004016113639190614757565b60405180910390fd5b600061137d84836000806000612dfd565b91505060008114156113c75760066040517fede8a5990000000000000000000000000000000000000000000000000000000081526004016113be9190614757565b60405180910390fd5b60008773ffffffffffffffffffffffffffffffffffffffff166355a1ac2e86856040518363ffffffff1660e01b8152600401611404929190614699565b604080518083038186803b15801561141b57600080fd5b505afa15801561142f573d6000803e3d6000fd5b505050506040513d601f19601f8201168201806040525081019061145391906142a4565b915050600061146d826008546133e790919063ffffffff16565b9050808511156114b55760086040517fede8a5990000000000000000000000000000000000000000000000000000000081526004016114ac9190614757565b60405180910390fd5b505050505050505050565b6114c98261103c565b6114da816114d5613342565b61334a565b6114e48383613410565b505050565b600260008573ffffffffffffffffffffffffffffffffffffffff1673ffffffffffffffffffffffffffffffffffffffff16815260200190815260200160002060020160009054906101000a900460ff1661157b5760016040517fede8a5990000000000000000000000000000000000000000000000000000000081526004016115729190614757565b60405180910390fd5b611586816001612a73565b600260008573ffffffffffffffffffffffffffffffffffffffff1673ffffffffffffffffffffffffffffffffffffffff16815260200190815260200160002060040160008473ffffffffffffffffffffffffffffffffffffffff1673ffffffffffffffffffffffffffffffffffffffff16815260200190815260200160002060009054906101000a900460ff1661161c57611678565b600061162c848387866000612dfd565b91505060008111156116765760056040517fede8a59900000000000000000000000000000000000000000000000000000000815260040161166d9190614757565b60405180910390fd5b505b50505050565b611686613342565b73ffffffffffffffffffffffffffffffffffffffff168173ffffffffffffffffffffffffffffffffffffffff16146116f3576040517f08c379a00000000000000000000000000000000000000000000000000000000081526004016116ea90614870565b60405180910390fd5b6116fd82826134f0565b5050565b7f5146a08baf902532d0ee2f909971144f12ca32651cd70cbee1117cddfb3b3b3381565b60046020528060005260406000206000915090505481565b600260008573ffffffffffffffffffffffffffffffffffffffff1673ffffffffffffffffffffffffffffffffffffffff16815260200190815260200160002060020160009054906101000a900460ff166117cf5760016040517fede8a5990000000000000000000000000000000000000000000000000000000081526004016117c69190614757565b60405180910390fd5b6117da816002612a73565b50505050565b600080600960019054906101000a900473ffffffffffffffffffffffffffffffffffffffff1673ffffffffffffffffffffffffffffffffffffffff1663fe2c61988673ffffffffffffffffffffffffffffffffffffffff16636c02a9316040518163ffffffff1660e01b815260040160006040518083038186803b15801561186757600080fd5b505afa15801561187b573d6000803e3d6000fd5b505050506040513d6000823e3d601f19601f820116820180604052508101906118a491906141d5565b6040518263ffffffff1660e01b81526004016118c0919061479b565b60206040518083038186803b1580156118d857600080fd5b505afa1580156118ec573d6000803e3d6000fd5b505050506040513d601f19601f82011682018060405250810190611910919061423f565b90506000600960019054906101000a900473ffffffffffffffffffffffffffffffffffffffff1673ffffffffffffffffffffffffffffffffffffffff1663fe2c61988673ffffffffffffffffffffffffffffffffffffffff16636c02a9316040518163ffffffff1660e01b815260040160006040518083038186803b15801561199857600080fd5b505afa1580156119ac573d6000803e3d6000fd5b505050506040513d6000823e3d601f19601f820116820180604052508101906119d591906141d5565b6040518263ffffffff1660e01b81526004016119f1919061479b565b60206040518083038186803b158015611a0957600080fd5b505afa158015611a1d573d6000803e3d6000fd5b505050506040513d601f19601f82011682018060405250810190611a41919061423f565b90506000821480611a525750600081145b15611a955760046040517fede8a599000000000000000000000000000000000000000000000000000000008152600401611a8c9190614757565b60405180910390fd5b6000611aaf83620f4240876135d29092919063ffffffff16565b90506000611acb83620f4240846135f49092919063ffffffff16565b9050809450505050509392505050565b611ae3613342565b73ffffffffffffffffffffffffffffffffffffffff16611b01611cd1565b73ffffffffffffffffffffffffffffffffffffffff1614611b57576040517f08c379a0000000000000000000000000000000000000000000000000000000008152600401611b4e90614850565b60405180910390fd5b600073ffffffffffffffffffffffffffffffffffffffff1660008054906101000a900473ffffffffffffffffffffffffffffffffffffffff1673ffffffffffffffffffffffffffffffffffffffff167f8be0079c531659141344cd1fd0a4f28419497f9722a3daafe3b4186f6b6457e060405160405180910390a360008060006101000a81548173ffffffffffffffffffffffffffffffffffffffff021916908373ffffffffffffffffffffffffffffffffffffffff160217905550565b7f5146a08baf902532d0ee2f909971144f12ca32651cd70cbee1117cddfb3b3b33611c4781611c42613342565b61334a565b81600960016101000a81548173ffffffffffffffffffffffffffffffffffffffff021916908373ffffffffffffffffffffffffffffffffffffffff1602179055507f0e05ae75e8b926552cf6fcd744d19f422561e3ced1e426868730852702dbe41882604051611cb79190614619565b60405180910390a15050565b611ccd8282612a73565b5050565b60008060009054906101000a900473ffffffffffffffffffffffffffffffffffffffff16905090565b6002602052806000526040600020600091509050806000018054611d1d90614d08565b80601f0160208091040260200160405190810160405280929190818152602001828054611d4990614d08565b8015611d965780601f10611d6b57610100808354040283529160200191611d96565b820191906000526020600020905b815481529060010190602001808311611d7957829003601f168201915b505050505090806001018054611dab90614d08565b80601f0160208091040260200160405190810160405280929190818152602001828054611dd790614d08565b8015611e245780601f10611df957610100808354040283529160200191611e24565b820191906000526020600020905b815481529060010190602001808311611e0757829003601f168201915b5050505050908060020160009054906101000a900460ff16908060030154905084565b60006001600084815260200190815260200160002060000160008373ffffffffffffffffffffffffffffffffffffffff1673ffffffffffffffffffffffffffffffffffffffff16815260200190815260200160002060009054906101000a900460ff16905092915050565b60606007805480602002602001604051908101604052809291908181526020018280548015611f3657602002820191906000526020600020905b8160009054906101000a900473ffffffffffffffffffffffffffffffffffffffff1673ffffffffffffffffffffffffffffffffffffffff1681526020019060010190808311611eec575b5050505050905090565b600080611f5284846000806000612dfd565b915091509250929050565b6000801b81565b600260008473ffffffffffffffffffffffffffffffffffffffff1673ffffffffffffffffffffffffffffffffffffffff16815260200190815260200160002060020160009054906101000a900460ff16611ff65760016040517fede8a599000000000000000000000000000000000000000000000000000000008152600401611fed9190614757565b60405180910390fd5b612001816001612a73565b505050565b600082829050905060005b81811015612089576000848483818110612054577f4e487b7100000000000000000000000000000000000000000000000000000000600052603260045260246000fd5b90506020020160208101906120699190613cff565b90506120758133612bcc565b50808061208190614d6b565b915050612011565b50505050565b7f5146a08baf902532d0ee2f909971144f12ca32651cd70cbee1117cddfb3b3b336120c1816120bc613342565b61334a565b6000600260008773ffffffffffffffffffffffffffffffffffffffff1673ffffffffffffffffffffffffffffffffffffffff16815260200190815260200160002090508060020160009054906101000a900460ff16156121595760026040517fede8a5990000000000000000000000000000000000000000000000000000000081526004016121509190614757565b60405180910390fd5b3073ffffffffffffffffffffffffffffffffffffffff168673ffffffffffffffffffffffffffffffffffffffff1663b72ddee96040518163ffffffff1660e01b815260040160206040518083038186803b1580156121b657600080fd5b505afa1580156121ca573d6000803e3d6000fd5b505050506040513d601f19601f820116820180604052508101906121ee919061415a565b73ffffffffffffffffffffffffffffffffffffffff16146122475760076040517fede8a59900000000000000000000000000000000000000000000000000000000815260040161223e9190614757565b60405180910390fd5b60018160020160006101000a81548160ff02191690831515021790555084816003018190555083816000019080519060200190612285929190613910565b508281600101908051906020019061229e929190613910565b506001600660008282546122b29190614a6a565b925050819055506007869080600181540180825580915050600190039060005260206000200160009091909190916101000a81548173ffffffffffffffffffffffffffffffffffffffff021916908373ffffffffffffffffffffffffffffffffffffffff1602179055507fcf583bb0c569eb967f806b11601c4cb93c10310485c67add5f8362c2f212321f8660405161234b9190614619565b60405180910390a1505050505050565b6123648261103c565b61237581612370613342565b61334a565b61237f83836134f0565b505050565b60036020528060005260406000206000915054906101000a900460ff1681565b600560205281600052604060002081815481106123c057600080fd5b906000526020600020016000915091509054906101000a900473ffffffffffffffffffffffffffffffffffffffff1681565b60007f5146a08baf902532d0ee2f909971144f12ca32651cd70cbee1117cddfb3b3b3361242681612421613342565b61334a565b600260008573ffffffffffffffffffffffffffffffffffffffff1673ffffffffffffffffffffffffffffffffffffffff16815260200190815260200160002060020160009054906101000a900460ff166124b85760016040517fede8a5990000000000000000000000000000000000000000000000000000000081526004016124af9190614757565b60405180910390fd5b82600360008673ffffffffffffffffffffffffffffffffffffffff1673ffffffffffffffffffffffffffffffffffffffff16815260200190815260200160002060006101000a81548160ff0219169083151502179055507f71aec636243f9709bb0007ae15e9afb8150ab01716d75fd7573be5cc096e03b0848460405161254092919061465d565b60405180910390a18291505092915050565b8173ffffffffffffffffffffffffffffffffffffffff168173ffffffffffffffffffffffffffffffffffffffff1614156125c457600d6040517fede8a5990000000000000000000000000000000000000000000000000000000081526004016125bb9190614757565b60405180910390fd5b600260008573ffffffffffffffffffffffffffffffffffffffff1673ffffffffffffffffffffffffffffffffffffffff16815260200190815260200160002060020160009054906101000a900460ff16158061266d5750600260008473ffffffffffffffffffffffffffffffffffffffff1673ffffffffffffffffffffffffffffffffffffffff16815260200190815260200160002060020160009054906101000a900460ff16155b156126b05760016040517fede8a5990000000000000000000000000000000000000000000000000000000081526004016126a79190614757565b60405180910390fd5b8273ffffffffffffffffffffffffffffffffffffffff1663b72ddee96040518163ffffffff1660e01b815260040160206040518083038186803b1580156126f657600080fd5b505afa15801561270a573d6000803e3d6000fd5b505050506040513d601f19601f8201168201806040525081019061272e919061415a565b73ffffffffffffffffffffffffffffffffffffffff168473ffffffffffffffffffffffffffffffffffffffff1663b72ddee96040518163ffffffff1660e01b815260040160206040518083038186803b15801561278a57600080fd5b505afa15801561279e573d6000803e3d6000fd5b505050506040513d601f19601f820116820180604052508101906127c2919061415a565b73ffffffffffffffffffffffffffffffffffffffff161461281b5760076040517fede8a5990000000000000000000000000000000000000000000000000000000081526004016128129190614757565b60405180910390fd5b50505050565b612829613342565b73ffffffffffffffffffffffffffffffffffffffff16612847611cd1565b73ffffffffffffffffffffffffffffffffffffffff161461289d576040517f08c379a000000000000000000000000000000000000000000000000000000000815260040161289490614850565b60405180910390fd5b600073ffffffffffffffffffffffffffffffffffffffff168173ffffffffffffffffffffffffffffffffffffffff16141561290d576040517f08c379a000000000000000000000000000000000000000000000000000000000815260040161290490614830565b60405180910390fd5b8073ffffffffffffffffffffffffffffffffffffffff1660008054906101000a900473ffffffffffffffffffffffffffffffffffffffff1673ffffffffffffffffffffffffffffffffffffffff167f8be0079c531659141344cd1fd0a4f28419497f9722a3daafe3b4186f6b6457e060405160405180910390a3806000806101000a81548173ffffffffffffffffffffffffffffffffffffffff021916908373ffffffffffffffffffffffffffffffffffffffff16021790555050565b600781815481106129da57600080fd5b906000526020600020016000915054906101000a900473ffffffffffffffffffffffffffffffffffffffff1681565b60007f01ffc9a7000000000000000000000000000000000000000000000000000000007bffffffffffffffffffffffffffffffffffffffffffffffffffffffff1916827bffffffffffffffffffffffffffffffffffffffffffffffffffffffff1916149050919050565b600073__$90f1fa1b3f91137ac60e95891d324fdd69$__63da4b8a4c4285600960009054906101000a900460ff166040518463ffffffff1660e01b8152600401612abf939291906148d4565b60206040518083038186803b158015612ad757600080fd5b505af4158015612aeb573d6000803e3d6000fd5b505050506040513d601f19601f82011682018060405250810190612b0f91906141ac565b9050816003811115612b4a577f4e487b7100000000000000000000000000000000000000000000000000000000600052602160045260246000fd5b816003811115612b83577f4e487b7100000000000000000000000000000000000000000000000000000000600052602160045260246000fd5b14612bc75780826040517f34e2603a000000000000000000000000000000000000000000000000000000008152600401612bbe929190614772565b60405180910390fd5b505050565b6000600260008473ffffffffffffffffffffffffffffffffffffffff1673ffffffffffffffffffffffffffffffffffffffff16815260200190815260200160002090508060020160009054906101000a900460ff16612c635760016040517fede8a599000000000000000000000000000000000000000000000000000000008152600401612c5a9190614757565b60405180910390fd5b600115158160040160008473ffffffffffffffffffffffffffffffffffffffff1673ffffffffffffffffffffffffffffffffffffffff16815260200190815260200160002060009054906101000a900460ff1615151415612cc45750612df9565b60018160040160008473ffffffffffffffffffffffffffffffffffffffff1673ffffffffffffffffffffffffffffffffffffffff16815260200190815260200160002060006101000a81548160ff021916908315150217905550600560008373ffffffffffffffffffffffffffffffffffffffff1673ffffffffffffffffffffffffffffffffffffffff168152602001908152602001600020839080600181540180825580915050600190039060005260206000200160009091909190916101000a81548173ffffffffffffffffffffffffffffffffffffffff021916908373ffffffffffffffffffffffffffffffffffffffff1602179055507f3ab23ab0d51cccc0c3085aec51f99228625aa1a922b3a8ca89a26b0f2027a1a58383604051612def929190614634565b60405180910390a1505b5050565b600080612e08613996565b6000600560008a73ffffffffffffffffffffffffffffffffffffffff1673ffffffffffffffffffffffffffffffffffffffff168152602001908152602001600020805480602002602001604051908101604052809291908181526020018280548015612ec957602002820191906000526020600020905b8160009054906101000a900473ffffffffffffffffffffffffffffffffffffffff1673ffffffffffffffffffffffffffffffffffffffff1681526020019060010190808311612e7f575b5050505050905060005b81518110156132e9576000828281518110612f17577f4e487b7100000000000000000000000000000000000000000000000000000000600052603260045260246000fd5b602002602001015190508073ffffffffffffffffffffffffffffffffffffffff166355a1ac2e8c8c6040518363ffffffff1660e01b8152600401612f5c929190614699565b604080518083038186803b158015612f7357600080fd5b505afa158015612f87573d6000803e3d6000fd5b505050506040513d601f19601f82011682018060405250810190612fab91906142a4565b856000018660200182815250828152505050600260008273ffffffffffffffffffffffffffffffffffffffff1673ffffffffffffffffffffffffffffffffffffffff16815260200190815260200160002060030154846040018181525050600960019054906101000a900473ffffffffffffffffffffffffffffffffffffffff1673ffffffffffffffffffffffffffffffffffffffff1663fe2c61988273ffffffffffffffffffffffffffffffffffffffff16636c02a9316040518163ffffffff1660e01b815260040160006040518083038186803b15801561308d57600080fd5b505afa1580156130a1573d6000803e3d6000fd5b505050506040513d6000823e3d601f19601f820116820180604052508101906130ca91906141d5565b6040518263ffffffff1660e01b81526004016130e6919061479b565b60206040518083038186803b1580156130fe57600080fd5b505afa158015613112573d6000803e3d6000fd5b505050506040513d601f19601f82011682018060405250810190613136919061423f565b84606001818152505060008460600151141561318a5760046040517fede8a5990000000000000000000000000000000000000000000000000000000081526004016131819190614757565b60405180910390fd5b6131c08460600151620f42406131b1876040015188600001516133e790919063ffffffff16565b6135d29092919063ffffffff16565b846080018181516131d19190614a6a565b915081815250506131f88460600151620f424086602001516135d29092919063ffffffff16565b8460a0018181516132099190614a6a565b915081815250508873ffffffffffffffffffffffffffffffffffffffff168173ffffffffffffffffffffffffffffffffffffffff1614156132d55760008714613281576132688460600151620f4240896135d29092919063ffffffff16565b8460a0018181516132799190614a6a565b915081815250505b600088146132d4576132bb8460600151620f42406132ac87604001518c6133e790919063ffffffff16565b6135d29092919063ffffffff16565b8460a0018181516132cc9190614a6a565b915081815250505b5b5080806132e190614d6b565b915050612ed3565b508160a001518260800151111561331b578160a00151826080015161330e9190614b4b565b6000935093505050613338565b600082608001518360a001516133319190614b4b565b9350935050505b9550959350505050565b600033905090565b6133548282611e47565b6133e3576133798173ffffffffffffffffffffffffffffffffffffffff166014613616565b6133878360001c6020613616565b6040516020016133989291906145df565b6040516020818303038152906040526040517f08c379a00000000000000000000000000000000000000000000000000000000081526004016133da919061479b565b60405180910390fd5b5050565b6000670de0b6b3a764000082846133fe9190614af1565b6134089190614ac0565b905092915050565b61341a8282611e47565b6134ec57600180600084815260200190815260200160002060000160008373ffffffffffffffffffffffffffffffffffffffff1673ffffffffffffffffffffffffffffffffffffffff16815260200190815260200160002060006101000a81548160ff021916908315150217905550613491613342565b73ffffffffffffffffffffffffffffffffffffffff168173ffffffffffffffffffffffffffffffffffffffff16837f2f8788117e7eff1d82e926ec794901d17c78024a50270940304540a733656f0d60405160405180910390a45b5050565b6134fa8282611e47565b156135ce5760006001600084815260200190815260200160002060000160008373ffffffffffffffffffffffffffffffffffffffff1673ffffffffffffffffffffffffffffffffffffffff16815260200190815260200160002060006101000a81548160ff021916908315150217905550613573613342565b73ffffffffffffffffffffffffffffffffffffffff168173ffffffffffffffffffffffffffffffffffffffff16837ff6391f5c32d9c69d2a47ea670b442974b53935d1edc7fd64eb21e047a839171b60405160405180910390a45b5050565b60008183856135e19190614af1565b6135eb9190614ac0565b90509392505050565b60008282856136039190614af1565b61360d9190614ac0565b90509392505050565b6060600060028360026136299190614af1565b6136339190614a6a565b67ffffffffffffffff811115613672577f4e487b7100000000000000000000000000000000000000000000000000000000600052604160045260246000fd5b6040519080825280601f01601f1916602001820160405280156136a45781602001600182028036833780820191505090505b5090507f300000000000000000000000000000000000000000000000000000000000000081600081518110613702577f4e487b7100000000000000000000000000000000000000000000000000000000600052603260045260246000fd5b60200101907effffffffffffffffffffffffffffffffffffffffffffffffffffffffffffff1916908160001a9053507f78000000000000000000000000000000000000000000000000000000000000008160018151811061378c577f4e487b7100000000000000000000000000000000000000000000000000000000600052603260045260246000fd5b60200101907effffffffffffffffffffffffffffffffffffffffffffffffffffffffffffff1916908160001a905350600060018460026137cc9190614af1565b6137d69190614a6a565b90505b60018111156138c2577f3031323334353637383961626364656600000000000000000000000000000000600f86166010811061383e577f4e487b7100000000000000000000000000000000000000000000000000000000600052603260045260246000fd5b1a60f81b82828151811061387b577f4e487b7100000000000000000000000000000000000000000000000000000000600052603260045260246000fd5b60200101907effffffffffffffffffffffffffffffffffffffffffffffffffffffffffffff1916908160001a905350600485901c9450806138bb90614cde565b90506137d9565b5060008414613906576040517f08c379a00000000000000000000000000000000000000000000000000000000081526004016138fd90614810565b60405180910390fd5b8091505092915050565b82805461391c90614d08565b90600052602060002090601f01602090048101928261393e5760008555613985565b82601f1061395757805160ff1916838001178555613985565b82800160010185558215613985579182015b82811115613984578251825591602001919060010190613969565b5b50905061399291906139cc565b5090565b6040518060c001604052806000815260200160008152602001600081526020016000815260200160008152602001600081525090565b5b808211156139e55760008160009055506001016139cd565b5090565b60006139fc6139f784614974565b61494f565b90508083825260208201905082856020860282011115613a1b57600080fd5b60005b85811015613a4b5781613a318882613cea565b845260208401935060208301925050600181019050613a1e565b5050509392505050565b6000613a68613a63846149a0565b61494f565b905082815260208101848484011115613a8057600080fd5b613a8b848285614c9c565b509392505050565b6000613aa6613aa1846149a0565b61494f565b905082815260208101848484011115613abe57600080fd5b613ac9848285614cab565b509392505050565b600081359050613ae081615043565b92915050565b60008083601f840112613af857600080fd5b8235905067ffffffffffffffff811115613b1157600080fd5b602083019150836020820283011115613b2957600080fd5b9250929050565b60008083601f840112613b4257600080fd5b8235905067ffffffffffffffff811115613b5b57600080fd5b602083019150836020820283011115613b7357600080fd5b9250929050565b60008083601f840112613b8c57600080fd5b8235905067ffffffffffffffff811115613ba557600080fd5b602083019150836020820283011115613bbd57600080fd5b9250929050565b600082601f830112613bd557600080fd5b8151613be58482602086016139e9565b91505092915050565b600081359050613bfd8161505a565b92915050565b600081359050613c1281615071565b92915050565b600081359050613c2781615088565b92915050565b600081519050613c3c8161509f565b92915050565b600081359050613c51816150b6565b92915050565b600081359050613c66816150cd565b92915050565b600081519050613c7b816150cd565b92915050565b600082601f830112613c9257600080fd5b8135613ca2848260208601613a55565b91505092915050565b600082601f830112613cbc57600080fd5b8151613ccc848260208601613a93565b91505092915050565b600081359050613ce4816150dd565b92915050565b600081519050613cf9816150dd565b92915050565b600060208284031215613d1157600080fd5b6000613d1f84828501613ad1565b91505092915050565b60008060008060808587031215613d3e57600080fd5b6000613d4c87828801613ad1565b9450506020613d5d87828801613ad1565b9350506040613d6e87828801613ad1565b9250506060613d7f87828801613ad1565b91505092959194509250565b60008060008060008060c08789031215613da457600080fd5b6000613db289828a01613ad1565b9650506020613dc389828a01613ad1565b9550506040613dd489828a01613ad1565b9450506060613de589828a01613ad1565b9350506080613df689828a01613cd5565b92505060a0613e0789828a01613cd5565b9150509295509295509295565b600080600060608486031215613e2957600080fd5b6000613e3786828701613ad1565b9350506020613e4886828701613ad1565b9250506040613e5986828701613cd5565b9150509250925092565b60008060008060808587031215613e7957600080fd5b6000613e8787828801613ad1565b9450506020613e9887828801613ad1565b9350506040613ea987828801613cd5565b9250506060613eba87828801613cd5565b91505092959194509250565b60008060408385031215613ed957600080fd5b6000613ee785828601613ad1565b9250506020613ef885828601613bee565b9150509250929050565b60008060408385031215613f1557600080fd5b6000613f2385828601613ad1565b9250506020613f3485828601613cd5565b9150509250929050565b60008060008060808587031215613f5457600080fd5b6000613f6287828801613ad1565b9450506020613f7387828801613cd5565b935050604085013567ffffffffffffffff811115613f9057600080fd5b613f9c87828801613c81565b925050606085013567ffffffffffffffff811115613fb957600080fd5b613fc587828801613c81565b91505092959194509250565b60008060208385031215613fe457600080fd5b600083013567ffffffffffffffff811115613ffe57600080fd5b61400a85828601613ae6565b92509250509250929050565b6000806000806040858703121561402c57600080fd5b600085013567ffffffffffffffff81111561404657600080fd5b61405287828801613b30565b9450945050602085013567ffffffffffffffff81111561407157600080fd5b61407d87828801613b7a565b925092505092959194509250565b60006020828403121561409d57600080fd5b600082015167ffffffffffffffff8111156140b757600080fd5b6140c384828501613bc4565b91505092915050565b6000602082840312156140de57600080fd5b60006140ec84828501613c03565b91505092915050565b6000806040838503121561410857600080fd5b600061411685828601613c03565b925050602061412785828601613ad1565b9150509250929050565b60006020828403121561414357600080fd5b600061415184828501613c18565b91505092915050565b60006020828403121561416c57600080fd5b600061417a84828501613c2d565b91505092915050565b60006020828403121561419557600080fd5b60006141a384828501613c42565b91505092915050565b6000602082840312156141be57600080fd5b60006141cc84828501613c6c565b91505092915050565b6000602082840312156141e757600080fd5b600082015167ffffffffffffffff81111561420157600080fd5b61420d84828501613cab565b91505092915050565b60006020828403121561422857600080fd5b600061423684828501613cd5565b91505092915050565b60006020828403121561425157600080fd5b600061425f84828501613cea565b91505092915050565b6000806040838503121561427b57600080fd5b600061428985828601613cd5565b925050602061429a85828601613c57565b9150509250929050565b600080604083850312156142b757600080fd5b60006142c585828601613cea565b92505060206142d685828601613cea565b9150509250929050565b60006142ec8383614310565b60208301905092915050565b60006143048383614594565b60208301905092915050565b61431981614b7f565b82525050565b61432881614b7f565b82525050565b6000614339826149f1565b6143438185614a2c565b935061434e836149d1565b8060005b8381101561437f57815161436688826142e0565b975061437183614a12565b925050600181019050614352565b5085935050505092915050565b6000614397826149fc565b6143a18185614a3d565b93506143ac836149e1565b8060005b838110156143dd5781516143c488826142f8565b97506143cf83614a1f565b9250506001810190506143b0565b5085935050505092915050565b6143f381614b91565b82525050565b61440281614b9d565b82525050565b61441181614c54565b82525050565b61442081614c78565b82525050565b61442f81614c8a565b82525050565b600061444082614a07565b61444a8185614a4e565b935061445a818560208601614cab565b61446381614e9f565b840191505092915050565b600061447982614a07565b6144838185614a5f565b9350614493818560208601614cab565b80840191505092915050565b60006144ac602083614a4e565b91506144b782614eb0565b602082019050919050565b60006144cf602683614a4e565b91506144da82614ed9565b604082019050919050565b60006144f2600683614a4e565b91506144fd82614f28565b602082019050919050565b6000614515602083614a4e565b915061452082614f51565b602082019050919050565b6000614538601783614a5f565b915061454382614f7a565b601782019050919050565b600061455b601183614a5f565b915061456682614fa3565b601182019050919050565b600061457e602f83614a4e565b915061458982614fcc565b604082019050919050565b61459d81614c3d565b82525050565b6145ac81614c3d565b82525050565b6145bb81614c3d565b82525050565b6145ca81614c47565b82525050565b6145d981614c47565b82525050565b60006145ea8261452b565b91506145f6828561446e565b91506146018261454e565b915061460d828461446e565b91508190509392505050565b600060208201905061462e600083018461431f565b92915050565b6000604082019050614649600083018561431f565b614656602083018461431f565b9392505050565b6000606082019050614672600083018561431f565b8181036020830152614683816144e5565b905061469260408301846143ea565b9392505050565b60006040820190506146ae600083018561431f565b6146bb60208301846145a3565b9392505050565b600060208201905081810360008301526146dc818461432e565b905092915050565b600060208201905081810360008301526146fe818461438c565b905092915050565b600060208201905061471b60008301846143ea565b92915050565b600060208201905061473660008301846143f9565b92915050565b60006020820190506147516000830184614408565b92915050565b600060208201905061476c6000830184614417565b92915050565b60006040820190506147876000830185614426565b6147946020830184614426565b9392505050565b600060208201905081810360008301526147b58184614435565b905092915050565b600060808201905081810360008301526147d78187614435565b905081810360208301526147eb8186614435565b90506147fa60408301856143ea565b61480760608301846145a3565b95945050505050565b600060208201905081810360008301526148298161449f565b9050919050565b60006020820190508181036000830152614849816144c2565b9050919050565b6000602082019050818103600083015261486981614508565b9050919050565b6000602082019050818103600083015261488981614571565b9050919050565b60006020820190506148a560008301846145a3565b92915050565b60006040820190506148c060008301856145a3565b6148cd60208301846145a3565b9392505050565b60006060820190506148e960008301866145b2565b6148f660208301856145b2565b61490360408301846145d0565b949350505050565b600060408201905061492060008301856145b2565b61492d60208301846145d0565b9392505050565b600060208201905061494960008301846145c1565b92915050565b600061495961496a565b90506149658282614d3a565b919050565b6000604051905090565b600067ffffffffffffffff82111561498f5761498e614e70565b5b602082029050602081019050919050565b600067ffffffffffffffff8211156149bb576149ba614e70565b5b6149c482614e9f565b9050602081019050919050565b6000819050602082019050919050565b6000819050602082019050919050565b600081519050919050565b600081519050919050565b600081519050919050565b6000602082019050919050565b6000602082019050919050565b600082825260208201905092915050565b600082825260208201905092915050565b600082825260208201905092915050565b600081905092915050565b6000614a7582614c3d565b9150614a8083614c3d565b9250827fffffffffffffffffffffffffffffffffffffffffffffffffffffffffffffffff03821115614ab557614ab4614db4565b5b828201905092915050565b6000614acb82614c3d565b9150614ad683614c3d565b925082614ae657614ae5614de3565b5b828204905092915050565b6000614afc82614c3d565b9150614b0783614c3d565b9250817fffffffffffffffffffffffffffffffffffffffffffffffffffffffffffffffff0483118215151615614b4057614b3f614db4565b5b828202905092915050565b6000614b5682614c3d565b9150614b6183614c3d565b925082821015614b7457614b73614db4565b5b828203905092915050565b6000614b8a82614c1d565b9050919050565b60008115159050919050565b6000819050919050565b60007fffffffff0000000000000000000000000000000000000000000000000000000082169050919050565b6000614bde82614b7f565b9050919050565b6000614bf082614b7f565b9050919050565b6000819050614c058261501b565b919050565b6000819050614c188261502f565b919050565b600073ffffffffffffffffffffffffffffffffffffffff82169050919050565b6000819050919050565b600060ff82169050919050565b6000614c5f82614c66565b9050919050565b6000614c7182614c1d565b9050919050565b6000614c8382614bf7565b9050919050565b6000614c9582614c0a565b9050919050565b82818337600083830152505050565b60005b83811015614cc9578082015181840152602081019050614cae565b83811115614cd8576000848401525b50505050565b6000614ce982614c3d565b91506000821415614cfd57614cfc614db4565b5b600182039050919050565b60006002820490506001821680614d2057607f821691505b60208210811415614d3457614d33614e41565b5b50919050565b614d4382614e9f565b810181811067ffffffffffffffff82111715614d6257614d61614e70565b5b80604052505050565b6000614d7682614c3d565b91507fffffffffffffffffffffffffffffffffffffffffffffffffffffffffffffffff821415614da957614da8614db4565b5b600182019050919050565b7f4e487b7100000000000000000000000000000000000000000000000000000000600052601160045260246000fd5b7f4e487b7100000000000000000000000000000000000000000000000000000000600052601260045260246000fd5b7f4e487b7100000000000000000000000000000000000000000000000000000000600052602160045260246000fd5b7f4e487b7100000000000000000000000000000000000000000000000000000000600052602260045260246000fd5b7f4e487b7100000000000000000000000000000000000000000000000000000000600052604160045260246000fd5b6000601f19601f8301169050919050565b7f537472696e67733a20686578206c656e67746820696e73756666696369656e74600082015250565b7f4f776e61626c653a206e6577206f776e657220697320746865207a65726f206160008201527f6464726573730000000000000000000000000000000000000000000000000000602082015250565b7f426f72726f770000000000000000000000000000000000000000000000000000600082015250565b7f4f776e61626c653a2063616c6c6572206973206e6f7420746865206f776e6572600082015250565b7f416363657373436f6e74726f6c3a206163636f756e7420000000000000000000600082015250565b7f206973206d697373696e6720726f6c6520000000000000000000000000000000600082015250565b7f416363657373436f6e74726f6c3a2063616e206f6e6c792072656e6f756e636560008201527f20726f6c657320666f722073656c660000000000000000000000000000000000602082015250565b6012811061502c5761502b614e12565b5b50565b600481106150405761503f614e12565b5b50565b61504c81614b7f565b811461505757600080fd5b50565b61506381614b91565b811461506e57600080fd5b50565b61507a81614b9d565b811461508557600080fd5b50565b61509181614ba7565b811461509c57600080fd5b50565b6150a881614bd3565b81146150b357600080fd5b50565b6150bf81614be5565b81146150ca57600080fd5b50565b600481106150da57600080fd5b50565b6150e681614c3d565b81146150f157600080fd5b5056fea2646970667358221220f5db651a7020e41e94d4024d5c8651f6937e08e1808e771ab990957bba7f7e3b64736f6c63430008040033",
  "libraries": {
    "TSUtils": "0xf6780c6eCFbF39CE58ac293dC2F00da27c91df4E"
  },
  "devdoc": {
    "kind": "dev",
    "methods": {
      "enableMarket(address,uint256,string,string)": {
        "details": "Function to enable a certain Exafin market to be used as collateral",
        "params": {
          "collateralFactor": "exafin's collateral factor for the underlying asset",
          "exafin": "address to add to the protocol"
        }
      },
      "enterMarkets(address[])": {
        "details": "Allows wallet to enter certain markets (exafinDAI, exafinETH, etc) By performing this action, the wallet's money could be used as collateral",
        "params": {
          "exafins": "contracts addresses to enable for `msg.sender`"
        }
      },
      "getAccountLiquidity(address,uint256)": {
        "details": "Function to get account's liquidity for a certain maturity pool",
        "params": {
          "account": "wallet to retrieve liquidity for a certain maturity date",
          "maturityDate": "timestamp to calculate maturity's pool"
        }
      },
      "getFuturePools()": {
        "details": "Function to retrieve valid future pools"
      },
      "getMarketAddresses()": {
        "details": "Function to retrieve all markets"
      },
      "getRoleAdmin(bytes32)": {
        "details": "Returns the admin role that controls `role`. See {grantRole} and {revokeRole}. To change a role's admin, use {_setRoleAdmin}."
      },
      "grantRole(bytes32,address)": {
        "details": "Grants `role` to `account`. If `account` had not been already granted `role`, emits a {RoleGranted} event. Requirements: - the caller must have ``role``'s admin role."
      },
      "hasRole(bytes32,address)": {
        "details": "Returns `true` if `account` has been granted `role`."
      },
      "liquidateAllowed(address,address,address,address,uint256,uint256)": {
        "details": "Function to allow/reject liquidation of assets. This function can be called  externally, but only will have effect when called from an exafin. ",
        "params": {
          "borrower": "address which the assets are being liquidated",
          "exafinBorrowed": "market from where the debt is pending",
          "exafinCollateral": "market where the assets will be liquidated (should be msg.sender on Exafin.sol)",
          "liquidator": "address that is liquidating the assets",
          "maturityDate": "maturity where the position has a shortfall in liquidity",
          "repayAmount": "amount to be repaid from the debt (outstanding debt * close factor should be bigger than this value)"
        }
      },
      "liquidateCalculateSeizeAmount(address,address,uint256)": {
        "details": "Function to calculate the amount of assets to be seized - when a position is undercollaterized it should be repaid and this functions calculates the  amount of collateral to be seized",
        "params": {
          "actualRepayAmount": "repay amount in the borrowed asset",
          "exafinBorrowed": "market from where the debt is pending",
          "exafinCollateral": "market where the assets will be liquidated (should be msg.sender on Exafin.sol)"
        }
      },
      "owner()": {
        "details": "Returns the address of the current owner."
      },
      "pauseBorrow(address,bool)": {
        "details": "Function to pause/unpause borrowing on a certain market",
        "params": {
          "exafin": "address to pause",
          "paused": "true/false"
        }
      },
      "renounceOwnership()": {
        "details": "Leaves the contract without owner. It will not be possible to call `onlyOwner` functions anymore. Can only be called by the current owner. NOTE: Renouncing ownership will leave the contract without an owner, thereby removing any functionality that is only available to the owner."
      },
      "renounceRole(bytes32,address)": {
        "details": "Revokes `role` from the calling account. Roles are often managed via {grantRole} and {revokeRole}: this function's purpose is to provide a mechanism for accounts to lose their privileges if they are compromised (such as when a trusted device is misplaced). If the calling account had been granted `role`, emits a {RoleRevoked} event. Requirements: - the caller must be `account`."
      },
      "revokeRole(bytes32,address)": {
        "details": "Revokes `role` from `account`. If `account` had been granted `role`, emits a {RoleRevoked} event. Requirements: - the caller must have ``role``'s admin role."
      },
      "seizeAllowed(address,address,address,address)": {
        "details": "Function to allow/reject seizing of assets. This function can be called  externally, but only will have effect when called from an exafin. ",
        "params": {
          "borrower": "address to validate where the assets will be removed",
          "exafinBorrowed": "market from where the debt will be paid",
          "exafinCollateral": "market where the assets will be seized (should be msg.sender on Exafin.sol)",
          "liquidator": "address to validate where the seized assets will be received"
        }
      },
      "setMarketBorrowCaps(address[],uint256[])": {
        "params": {
          "exafins": "The addresses of the markets (tokens) to change the borrow caps for",
          "newBorrowCaps": "The new borrow cap values in underlying to be set. A value of 0 corresponds to unlimited borrowing."
        }
      },
      "setOracle(address)": {
        "details": "Function to set Oracle's to be used",
        "params": {
          "_priceOracleAddress": "address of the new oracle"
        }
      },
      "supportsInterface(bytes4)": {
        "details": "See {IERC165-supportsInterface}."
      },
      "transferOwnership(address)": {
        "details": "Transfers ownership of the contract to a new account (`newOwner`). Can only be called by the current owner."
      }
    },
    "version": 1
  },
  "userdoc": {
    "kind": "user",
    "methods": {
      "setMarketBorrowCaps(address[],uint256[])": {
        "notice": "Set the given borrow caps for the given exafin markets. Borrowing that brings total borrows to or above borrow cap will revert."
      }
    },
    "version": 1
  },
  "storageLayout": {
    "storage": [
      {
        "astId": 375,
        "contract": "contracts/Auditor.sol:Auditor",
        "label": "_owner",
        "offset": 0,
        "slot": "0",
        "type": "t_address"
      },
      {
        "astId": 62,
        "contract": "contracts/Auditor.sol:Auditor",
        "label": "_roles",
        "offset": 0,
        "slot": "1",
        "type": "t_mapping(t_bytes32,t_struct(RoleData)57_storage)"
      },
      {
        "astId": 2133,
        "contract": "contracts/Auditor.sol:Auditor",
        "label": "markets",
        "offset": 0,
        "slot": "2",
        "type": "t_mapping(t_address,t_struct(Market)2175_storage)"
      },
      {
        "astId": 2137,
        "contract": "contracts/Auditor.sol:Auditor",
        "label": "borrowPaused",
        "offset": 0,
        "slot": "3",
        "type": "t_mapping(t_address,t_bool)"
      },
      {
        "astId": 2141,
        "contract": "contracts/Auditor.sol:Auditor",
        "label": "borrowCaps",
        "offset": 0,
        "slot": "4",
        "type": "t_mapping(t_address,t_uint256)"
      },
      {
        "astId": 2147,
        "contract": "contracts/Auditor.sol:Auditor",
        "label": "accountAssets",
        "offset": 0,
        "slot": "5",
        "type": "t_mapping(t_address,t_array(t_contract(IExafin)4838)dyn_storage)"
      },
      {
        "astId": 2150,
        "contract": "contracts/Auditor.sol:Auditor",
        "label": "marketCount",
        "offset": 0,
        "slot": "6",
        "type": "t_uint256"
      },
      {
        "astId": 2153,
        "contract": "contracts/Auditor.sol:Auditor",
        "label": "marketsAddress",
        "offset": 0,
        "slot": "7",
        "type": "t_array(t_address)dyn_storage"
      },
      {
        "astId": 2156,
        "contract": "contracts/Auditor.sol:Auditor",
        "label": "closeFactor",
        "offset": 0,
        "slot": "8",
        "type": "t_uint256"
      },
      {
        "astId": 2159,
        "contract": "contracts/Auditor.sol:Auditor",
        "label": "maxFuturePools",
        "offset": 0,
        "slot": "9",
        "type": "t_uint8"
      },
      {
        "astId": 2162,
        "contract": "contracts/Auditor.sol:Auditor",
        "label": "oracle",
        "offset": 1,
        "slot": "9",
        "type": "t_contract(Oracle)4882"
      }
    ],
    "types": {
      "t_address": {
        "encoding": "inplace",
        "label": "address",
        "numberOfBytes": "20"
      },
      "t_array(t_address)dyn_storage": {
        "base": "t_address",
        "encoding": "dynamic_array",
        "label": "address[]",
        "numberOfBytes": "32"
      },
      "t_array(t_contract(IExafin)4838)dyn_storage": {
        "base": "t_contract(IExafin)4838",
        "encoding": "dynamic_array",
        "label": "contract IExafin[]",
        "numberOfBytes": "32"
      },
      "t_bool": {
        "encoding": "inplace",
        "label": "bool",
        "numberOfBytes": "1"
      },
      "t_bytes32": {
        "encoding": "inplace",
        "label": "bytes32",
        "numberOfBytes": "32"
      },
      "t_contract(IExafin)4838": {
        "encoding": "inplace",
        "label": "contract IExafin",
        "numberOfBytes": "20"
      },
      "t_contract(Oracle)4882": {
        "encoding": "inplace",
        "label": "contract Oracle",
        "numberOfBytes": "20"
      },
      "t_mapping(t_address,t_array(t_contract(IExafin)4838)dyn_storage)": {
        "encoding": "mapping",
        "key": "t_address",
        "label": "mapping(address => contract IExafin[])",
        "numberOfBytes": "32",
        "value": "t_array(t_contract(IExafin)4838)dyn_storage"
      },
      "t_mapping(t_address,t_bool)": {
        "encoding": "mapping",
        "key": "t_address",
        "label": "mapping(address => bool)",
        "numberOfBytes": "32",
        "value": "t_bool"
      },
      "t_mapping(t_address,t_struct(Market)2175_storage)": {
        "encoding": "mapping",
        "key": "t_address",
        "label": "mapping(address => struct Auditor.Market)",
        "numberOfBytes": "32",
        "value": "t_struct(Market)2175_storage"
      },
      "t_mapping(t_address,t_uint256)": {
        "encoding": "mapping",
        "key": "t_address",
        "label": "mapping(address => uint256)",
        "numberOfBytes": "32",
        "value": "t_uint256"
      },
      "t_mapping(t_bytes32,t_struct(RoleData)57_storage)": {
        "encoding": "mapping",
        "key": "t_bytes32",
        "label": "mapping(bytes32 => struct AccessControl.RoleData)",
        "numberOfBytes": "32",
        "value": "t_struct(RoleData)57_storage"
      },
      "t_string_storage": {
        "encoding": "bytes",
        "label": "string",
        "numberOfBytes": "32"
      },
      "t_struct(Market)2175_storage": {
        "encoding": "inplace",
        "label": "struct Auditor.Market",
        "members": [
          {
            "astId": 2164,
            "contract": "contracts/Auditor.sol:Auditor",
            "label": "symbol",
            "offset": 0,
            "slot": "0",
            "type": "t_string_storage"
          },
          {
            "astId": 2166,
            "contract": "contracts/Auditor.sol:Auditor",
            "label": "name",
            "offset": 0,
            "slot": "1",
            "type": "t_string_storage"
          },
          {
            "astId": 2168,
            "contract": "contracts/Auditor.sol:Auditor",
            "label": "isListed",
            "offset": 0,
            "slot": "2",
            "type": "t_bool"
          },
          {
            "astId": 2170,
            "contract": "contracts/Auditor.sol:Auditor",
            "label": "collateralFactor",
            "offset": 0,
            "slot": "3",
            "type": "t_uint256"
          },
          {
            "astId": 2174,
            "contract": "contracts/Auditor.sol:Auditor",
            "label": "accountMembership",
            "offset": 0,
            "slot": "4",
            "type": "t_mapping(t_address,t_bool)"
          }
        ],
        "numberOfBytes": "160"
      },
      "t_struct(RoleData)57_storage": {
        "encoding": "inplace",
        "label": "struct AccessControl.RoleData",
        "members": [
          {
            "astId": 54,
            "contract": "contracts/Auditor.sol:Auditor",
            "label": "members",
            "offset": 0,
            "slot": "0",
            "type": "t_mapping(t_address,t_bool)"
          },
          {
            "astId": 56,
            "contract": "contracts/Auditor.sol:Auditor",
            "label": "adminRole",
            "offset": 0,
            "slot": "1",
            "type": "t_bytes32"
          }
        ],
        "numberOfBytes": "64"
      },
      "t_uint256": {
        "encoding": "inplace",
        "label": "uint256",
        "numberOfBytes": "32"
      },
      "t_uint8": {
        "encoding": "inplace",
        "label": "uint8",
        "numberOfBytes": "1"
      }
    }
  }
}