{
  "address": "0xE40c24F97E4D570931403b7a19eAD9E098D7e0eF",
  "abi": [
    {
      "inputs": [
        {
          "internalType": "address",
          "name": "_tokenAddress",
          "type": "address"
        },
        {
          "internalType": "string",
          "name": "_tokenName",
          "type": "string"
        },
        {
          "internalType": "address",
          "name": "_auditorAddress",
          "type": "address"
        },
        {
          "internalType": "address",
          "name": "_interestRateModelAddress",
          "type": "address"
        }
      ],
      "stateMutability": "nonpayable",
      "type": "constructor"
    },
    {
      "inputs": [
        {
          "internalType": "enum ErrorCode",
          "name": "error",
          "type": "uint8"
        }
      ],
      "name": "GenericError",
      "type": "error"
    },
    {
      "anonymous": false,
      "inputs": [
        {
          "indexed": true,
          "internalType": "address",
          "name": "to",
          "type": "address"
        },
        {
          "indexed": false,
          "internalType": "uint256",
          "name": "amount",
          "type": "uint256"
        },
        {
          "indexed": false,
          "internalType": "uint256",
          "name": "commission",
          "type": "uint256"
        },
        {
          "indexed": false,
          "internalType": "uint256",
          "name": "maturityDate",
          "type": "uint256"
        }
      ],
      "name": "Borrowed",
      "type": "event"
    },
    {
      "anonymous": false,
      "inputs": [
        {
          "indexed": false,
          "internalType": "address",
          "name": "liquidator",
          "type": "address"
        },
        {
          "indexed": false,
          "internalType": "address",
          "name": "borrower",
          "type": "address"
        },
        {
          "indexed": false,
          "internalType": "uint256",
          "name": "repayAmount",
          "type": "uint256"
        },
        {
          "indexed": false,
          "internalType": "address",
          "name": "exafinCollateral",
          "type": "address"
        },
        {
          "indexed": false,
          "internalType": "uint256",
          "name": "seizeAmount",
          "type": "uint256"
        },
        {
          "indexed": false,
          "internalType": "uint256",
          "name": "maturityDate",
          "type": "uint256"
        }
      ],
      "name": "LiquidateBorrow",
      "type": "event"
    },
    {
      "anonymous": false,
      "inputs": [
        {
          "indexed": true,
          "internalType": "address",
          "name": "from",
          "type": "address"
        },
        {
          "indexed": false,
          "internalType": "uint256",
          "name": "amount",
          "type": "uint256"
        },
        {
          "indexed": false,
          "internalType": "uint256",
          "name": "maturityDate",
          "type": "uint256"
        }
      ],
      "name": "Redeemed",
      "type": "event"
    },
    {
      "anonymous": false,
      "inputs": [
        {
          "indexed": true,
          "internalType": "address",
          "name": "payer",
          "type": "address"
        },
        {
          "indexed": true,
          "internalType": "address",
          "name": "borrower",
          "type": "address"
        },
        {
          "indexed": false,
          "internalType": "uint256",
          "name": "amount",
          "type": "uint256"
        },
        {
          "indexed": false,
          "internalType": "uint256",
          "name": "maturityDate",
          "type": "uint256"
        }
      ],
      "name": "Repaid",
      "type": "event"
    },
    {
      "anonymous": false,
      "inputs": [
        {
          "indexed": false,
          "internalType": "address",
          "name": "benefactor",
          "type": "address"
        },
        {
          "indexed": false,
          "internalType": "uint256",
          "name": "addAmount",
          "type": "uint256"
        }
      ],
      "name": "ReservesAdded",
      "type": "event"
    },
    {
      "anonymous": false,
      "inputs": [
        {
          "indexed": false,
          "internalType": "address",
          "name": "liquidator",
          "type": "address"
        },
        {
          "indexed": false,
          "internalType": "address",
          "name": "borrower",
          "type": "address"
        },
        {
          "indexed": false,
          "internalType": "uint256",
          "name": "seizedAmount",
          "type": "uint256"
        },
        {
          "indexed": false,
          "internalType": "uint256",
          "name": "maturityDate",
          "type": "uint256"
        }
      ],
      "name": "Seized",
      "type": "event"
    },
    {
      "anonymous": false,
      "inputs": [
        {
          "indexed": true,
          "internalType": "address",
          "name": "from",
          "type": "address"
        },
        {
          "indexed": false,
          "internalType": "uint256",
          "name": "amount",
          "type": "uint256"
        },
        {
          "indexed": false,
          "internalType": "uint256",
          "name": "commission",
          "type": "uint256"
        },
        {
          "indexed": false,
          "internalType": "uint256",
          "name": "maturityDate",
          "type": "uint256"
        }
      ],
      "name": "Supplied",
      "type": "event"
    },
    {
      "inputs": [
        {
          "internalType": "address",
          "name": "",
          "type": "address"
        },
        {
          "internalType": "uint256",
          "name": "",
          "type": "uint256"
        }
      ],
      "name": "addressPools",
      "outputs": [
        {
          "internalType": "uint256",
          "name": "",
          "type": "uint256"
        }
      ],
      "stateMutability": "view",
      "type": "function"
    },
    {
      "inputs": [],
      "name": "auditor",
      "outputs": [
        {
          "internalType": "contract IAuditor",
          "name": "",
          "type": "address"
        }
      ],
      "stateMutability": "view",
      "type": "function"
    },
    {
      "inputs": [
        {
          "internalType": "address",
          "name": "",
          "type": "address"
        }
      ],
      "name": "balances",
      "outputs": [
        {
          "internalType": "uint256",
          "name": "",
          "type": "uint256"
        }
      ],
      "stateMutability": "view",
      "type": "function"
    },
    {
      "inputs": [
        {
          "internalType": "uint256",
          "name": "amount",
          "type": "uint256"
        },
        {
          "internalType": "uint256",
          "name": "maturityDate",
          "type": "uint256"
        }
      ],
      "name": "borrow",
      "outputs": [],
      "stateMutability": "nonpayable",
      "type": "function"
    },
    {
      "inputs": [
        {
          "internalType": "uint256",
          "name": "",
          "type": "uint256"
        },
        {
          "internalType": "address",
          "name": "",
          "type": "address"
        }
      ],
      "name": "borrowedAmounts",
      "outputs": [
        {
          "internalType": "uint256",
          "name": "",
          "type": "uint256"
        }
      ],
      "stateMutability": "view",
      "type": "function"
    },
    {
      "inputs": [
        {
          "internalType": "address",
          "name": "who",
          "type": "address"
        },
        {
          "internalType": "uint256",
          "name": "maturityDate",
          "type": "uint256"
        }
      ],
      "name": "getAccountSnapshot",
      "outputs": [
        {
          "internalType": "uint256",
          "name": "",
          "type": "uint256"
        },
        {
          "internalType": "uint256",
          "name": "",
          "type": "uint256"
        }
      ],
      "stateMutability": "view",
      "type": "function"
    },
    {
      "inputs": [],
      "name": "getAuditor",
      "outputs": [
        {
          "internalType": "contract IAuditor",
          "name": "",
          "type": "address"
        }
      ],
      "stateMutability": "view",
      "type": "function"
    },
    {
      "inputs": [
        {
          "internalType": "uint256",
          "name": "amount",
          "type": "uint256"
        },
        {
          "internalType": "uint256",
          "name": "maturityDate",
          "type": "uint256"
        }
      ],
      "name": "getRateToBorrow",
      "outputs": [
        {
          "internalType": "uint256",
          "name": "",
          "type": "uint256"
        }
      ],
      "stateMutability": "view",
      "type": "function"
    },
    {
      "inputs": [
        {
          "internalType": "uint256",
          "name": "amount",
          "type": "uint256"
        },
        {
          "internalType": "uint256",
          "name": "maturityDate",
          "type": "uint256"
        }
      ],
      "name": "getRateToSupply",
      "outputs": [
        {
          "internalType": "uint256",
          "name": "",
          "type": "uint256"
        }
      ],
      "stateMutability": "view",
      "type": "function"
    },
    {
      "inputs": [
        {
          "internalType": "uint256",
          "name": "maturityDate",
          "type": "uint256"
        }
      ],
      "name": "getTotalBorrows",
      "outputs": [
        {
          "internalType": "uint256",
          "name": "",
          "type": "uint256"
        }
      ],
      "stateMutability": "view",
      "type": "function"
    },
    {
      "inputs": [],
      "name": "interestRateModel",
      "outputs": [
        {
          "internalType": "contract IInterestRateModel",
          "name": "",
          "type": "address"
        }
      ],
      "stateMutability": "view",
      "type": "function"
    },
    {
      "inputs": [
        {
          "internalType": "address",
          "name": "borrower",
          "type": "address"
        },
        {
          "internalType": "uint256",
          "name": "repayAmount",
          "type": "uint256"
        },
        {
          "internalType": "contract IExafin",
          "name": "exafinCollateral",
          "type": "address"
        },
        {
          "internalType": "uint256",
          "name": "maturityDate",
          "type": "uint256"
        }
      ],
      "name": "liquidate",
      "outputs": [
        {
          "internalType": "uint256",
          "name": "",
          "type": "uint256"
        }
      ],
      "stateMutability": "nonpayable",
      "type": "function"
    },
    {
      "inputs": [
        {
          "internalType": "uint256",
          "name": "",
          "type": "uint256"
        }
      ],
      "name": "pools",
      "outputs": [
        {
          "internalType": "uint256",
          "name": "borrowed",
          "type": "uint256"
        },
        {
          "internalType": "uint256",
          "name": "supplied",
          "type": "uint256"
        }
      ],
      "stateMutability": "view",
      "type": "function"
    },
    {
      "inputs": [
        {
          "internalType": "address payable",
          "name": "redeemer",
          "type": "address"
        },
        {
          "internalType": "uint256",
          "name": "redeemAmount",
          "type": "uint256"
        },
        {
          "internalType": "uint256",
          "name": "maturityDate",
          "type": "uint256"
        }
      ],
      "name": "redeem",
      "outputs": [],
      "stateMutability": "nonpayable",
      "type": "function"
    },
    {
      "inputs": [
        {
          "internalType": "address",
          "name": "borrower",
          "type": "address"
        },
        {
          "internalType": "uint256",
          "name": "maturityDate",
          "type": "uint256"
        }
      ],
      "name": "repay",
      "outputs": [],
      "stateMutability": "nonpayable",
      "type": "function"
    },
    {
      "inputs": [
        {
          "internalType": "address",
          "name": "liquidator",
          "type": "address"
        },
        {
          "internalType": "address",
          "name": "borrower",
          "type": "address"
        },
        {
          "internalType": "uint256",
          "name": "seizeAmount",
          "type": "uint256"
        },
        {
          "internalType": "uint256",
          "name": "maturityDate",
          "type": "uint256"
        }
      ],
      "name": "seize",
      "outputs": [],
      "stateMutability": "nonpayable",
      "type": "function"
    },
    {
      "inputs": [
        {
          "internalType": "uint256",
          "name": "",
          "type": "uint256"
        },
        {
          "internalType": "address",
          "name": "",
          "type": "address"
        }
      ],
      "name": "suppliedAmounts",
      "outputs": [
        {
          "internalType": "uint256",
          "name": "",
          "type": "uint256"
        }
      ],
      "stateMutability": "view",
      "type": "function"
    },
    {
      "inputs": [
        {
          "internalType": "address",
          "name": "from",
          "type": "address"
        },
        {
          "internalType": "uint256",
          "name": "amount",
          "type": "uint256"
        },
        {
          "internalType": "uint256",
          "name": "maturityDate",
          "type": "uint256"
        }
      ],
      "name": "supply",
      "outputs": [],
      "stateMutability": "nonpayable",
      "type": "function"
    },
    {
      "inputs": [],
      "name": "tokenName",
      "outputs": [
        {
          "internalType": "string",
          "name": "",
          "type": "string"
        }
      ],
      "stateMutability": "view",
      "type": "function"
    },
    {
      "inputs": [],
      "name": "totalSupply",
      "outputs": [
        {
          "internalType": "uint256",
          "name": "",
          "type": "uint256"
        }
      ],
      "stateMutability": "view",
      "type": "function"
    }
  ],
  "transactionHash": "0x70c7c4c98c7090f9a8c04887aed808b089da62bbef0295a5a3a52b65b3c36953",
  "args": [
    "0xC02aaA39b223FE8D0A0e5C4F27eAD9083C756Cc2",
    "ETH",
    "0xddd863413d4FaD445ff5aC1270954b1aF2F7E612",
    "0xA89411C9b2E3E3b76cc24b70B61854839C090437"
  ],
  "solcInputHash": "1d77e7a2908e8de0f43c265154e69270",
  "bytecode": "0x60806040523480156200001157600080fd5b506040516200451338038062004513833981810160405281019062000037919062000713565b600160008190555083600560006101000a81548173ffffffffffffffffffffffffffffffffffffffff021916908373ffffffffffffffffffffffffffffffffffffffff160217905550620000f4307fffffffffffffffffffffffffffffffffffffffffffffffffffffffffffffffff600560009054906101000a900473ffffffffffffffffffffffffffffffffffffffff1673ffffffffffffffffffffffffffffffffffffffff166200019960201b6200186d179092919060201c565b82600690805190602001906200010c929190620005ac565b5081600760006101000a81548173ffffffffffffffffffffffffffffffffffffffff021916908373ffffffffffffffffffffffffffffffffffffffff16021790555080600860006101000a81548173ffffffffffffffffffffffffffffffffffffffff021916908373ffffffffffffffffffffffffffffffffffffffff1602179055505050505062000d95565b600081148062000239575060008373ffffffffffffffffffffffffffffffffffffffff1663dd62ed3e30856040518363ffffffff1660e01b8152600401620001e39291906200093f565b60206040518083038186803b158015620001fc57600080fd5b505afa15801562000211573d6000803e3d6000fd5b505050506040513d601f19601f82011682018060405250810190620002379190620007c4565b145b6200027b576040517f08c379a0000000000000000000000000000000000000000000000000000000008152600401620002729062000a23565b60405180910390fd5b620003068363095ea7b360e01b84846040516024016200029d9291906200096c565b604051602081830303815290604052907bffffffffffffffffffffffffffffffffffffffffffffffffffffffff19166020820180517bffffffffffffffffffffffffffffffffffffffffffffffffffffffff83818316178352505050506200030b60201b60201c565b505050565b600062000374826040518060400160405280602081526020017f5361666545524332303a206c6f772d6c6576656c2063616c6c206661696c65648152508573ffffffffffffffffffffffffffffffffffffffff16620003df60201b620019cb179092919060201c565b9050600081511115620003da578080602001905181019062000397919062000798565b620003d9576040517f08c379a0000000000000000000000000000000000000000000000000000000008152600401620003d09062000a01565b60405180910390fd5b5b505050565b6060620003f68484600085620003ff60201b60201c565b90509392505050565b60608247101562000447576040517f08c379a00000000000000000000000000000000000000000000000000000000081526004016200043e90620009bd565b60405180910390fd5b62000458856200052d60201b60201c565b6200049a576040517f08c379a00000000000000000000000000000000000000000000000000000000081526004016200049190620009df565b60405180910390fd5b6000808673ffffffffffffffffffffffffffffffffffffffff168587604051620004c5919062000926565b60006040518083038185875af1925050503d806000811462000504576040519150601f19603f3d011682016040523d82523d6000602084013e62000509565b606091505b5091509150620005218282866200054060201b60201c565b92505050949350505050565b600080823b905060008111915050919050565b606083156200055257829050620005a5565b600083511115620005665782518084602001fd5b816040517f08c379a00000000000000000000000000000000000000000000000000000000081526004016200059c919062000999565b60405180910390fd5b9392505050565b828054620005ba9062000b56565b90600052602060002090601f016020900481019282620005de57600085556200062a565b82601f10620005f957805160ff19168380011785556200062a565b828001600101855582156200062a579182015b82811115620006295782518255916020019190600101906200060c565b5b5090506200063991906200063d565b5090565b5b80821115620006585760008160009055506001016200063e565b5090565b6000620006736200066d8462000a6e565b62000a45565b9050828152602081018484840111156200068c57600080fd5b6200069984828562000b20565b509392505050565b600081519050620006b28162000d47565b92915050565b600081519050620006c98162000d61565b92915050565b600082601f830112620006e157600080fd5b8151620006f38482602086016200065c565b91505092915050565b6000815190506200070d8162000d7b565b92915050565b600080600080608085870312156200072a57600080fd5b60006200073a87828801620006a1565b945050602085015167ffffffffffffffff8111156200075857600080fd5b6200076687828801620006cf565b93505060406200077987828801620006a1565b92505060606200078c87828801620006a1565b91505092959194509250565b600060208284031215620007ab57600080fd5b6000620007bb84828501620006b8565b91505092915050565b600060208284031215620007d757600080fd5b6000620007e784828501620006fc565b91505092915050565b620007fb8162000ad6565b82525050565b60006200080e8262000aa4565b6200081a818562000aba565b93506200082c81856020860162000b20565b80840191505092915050565b6000620008458262000aaf565b62000851818562000ac5565b93506200086381856020860162000b20565b6200086e8162000c20565b840191505092915050565b60006200088860268362000ac5565b9150620008958262000c31565b604082019050919050565b6000620008af601d8362000ac5565b9150620008bc8262000c80565b602082019050919050565b6000620008d6602a8362000ac5565b9150620008e38262000ca9565b604082019050919050565b6000620008fd60368362000ac5565b91506200090a8262000cf8565b604082019050919050565b620009208162000b16565b82525050565b600062000934828462000801565b915081905092915050565b6000604082019050620009566000830185620007f0565b620009656020830184620007f0565b9392505050565b6000604082019050620009836000830185620007f0565b62000992602083018462000915565b9392505050565b60006020820190508181036000830152620009b5818462000838565b905092915050565b60006020820190508181036000830152620009d88162000879565b9050919050565b60006020820190508181036000830152620009fa81620008a0565b9050919050565b6000602082019050818103600083015262000a1c81620008c7565b9050919050565b6000602082019050818103600083015262000a3e81620008ee565b9050919050565b600062000a5162000a64565b905062000a5f828262000b8c565b919050565b6000604051905090565b600067ffffffffffffffff82111562000a8c5762000a8b62000bf1565b5b62000a978262000c20565b9050602081019050919050565b600081519050919050565b600081519050919050565b600081905092915050565b600082825260208201905092915050565b600062000ae38262000af6565b9050919050565b60008115159050919050565b600073ffffffffffffffffffffffffffffffffffffffff82169050919050565b6000819050919050565b60005b8381101562000b4057808201518184015260208101905062000b23565b8381111562000b50576000848401525b50505050565b6000600282049050600182168062000b6f57607f821691505b6020821081141562000b865762000b8562000bc2565b5b50919050565b62000b978262000c20565b810181811067ffffffffffffffff8211171562000bb95762000bb862000bf1565b5b80604052505050565b7f4e487b7100000000000000000000000000000000000000000000000000000000600052602260045260246000fd5b7f4e487b7100000000000000000000000000000000000000000000000000000000600052604160045260246000fd5b6000601f19601f8301169050919050565b7f416464726573733a20696e73756666696369656e742062616c616e636520666f60008201527f722063616c6c0000000000000000000000000000000000000000000000000000602082015250565b7f416464726573733a2063616c6c20746f206e6f6e2d636f6e7472616374000000600082015250565b7f5361666545524332303a204552433230206f7065726174696f6e20646964206e60008201527f6f74207375636365656400000000000000000000000000000000000000000000602082015250565b7f5361666545524332303a20617070726f76652066726f6d206e6f6e2d7a65726f60008201527f20746f206e6f6e2d7a65726f20616c6c6f77616e636500000000000000000000602082015250565b62000d528162000ad6565b811462000d5e57600080fd5b50565b62000d6c8162000aea565b811462000d7857600080fd5b50565b62000d868162000b16565b811462000d9257600080fd5b50565b61376e8062000da56000396000f3fe608060405234801561001057600080fd5b506004361061012c5760003560e01c80637dbca353116100ad578063b72ddee911610071578063b72ddee91461037d578063d2c6d0dc1461039b578063d2cdcad3146103b7578063ea1cd41f146103e7578063f3fdb15a146104175761012c565b80637dbca353146102a05780639457be23146102bc5780639f3c85a8146102ec578063a593d5141461031c578063ac4afa381461034c5761012c565b80632b83cccd116100f45780632b83cccd146101e75780633c5b1c59146102035780633ec045a61461023357806355a1ac2e146102515780636c02a931146102825761012c565b80630526b7d5146101315780630ecbcdab1461016157806318160ddd1461017d57806322867d781461019b57806327e235e3146101b7575b600080fd5b61014b600480360381019061014691906129f8565b610435565b60405161015891906130af565b60405180910390f35b61017b60048036038101906101769190612a34565b61045a565b005b610185610878565b60405161019291906130af565b60405180910390f35b6101b560048036038101906101b0919061288f565b61087e565b005b6101d160048036038101906101cc91906127b4565b6108e3565b6040516101de91906130af565b60405180910390f35b61020160048036038101906101fc91906127dd565b6108fb565b005b61021d6004803603810190610218919061288f565b610c20565b60405161022a91906130af565b60405180910390f35b61023b610c51565b6040516102489190612f21565b60405180910390f35b61026b6004803603810190610266919061288f565b610c77565b6040516102799291906130ca565b60405180910390f35b61028a610df0565b6040516102979190612f72565b60405180910390f35b6102ba60048036038101906102b5919061292e565b610e7e565b005b6102d660048036038101906102d191906128cb565b61129d565b6040516102e391906130af565b60405180910390f35b61030660048036038101906103019190612a34565b61130c565b60405161031391906130af565b60405180910390f35b61033660048036038101906103319190612a34565b6114c7565b60405161034391906130af565b60405180910390f35b610366600480360381019061036191906129a6565b611682565b6040516103749291906130ca565b60405180910390f35b6103856116a6565b6040516103929190612f21565b60405180910390f35b6103b560048036038101906103b0919061282c565b6116d0565b005b6103d160048036038101906103cc91906129f8565b611739565b6040516103de91906130af565b60405180910390f35b61040160048036038101906103fc91906129a6565b61175e565b60405161040e91906130af565b60405180910390f35b61041f611847565b60405161042c9190612f3c565b60405180910390f35b6001602052816000526040600020602052806000526040600020600091509150505481565b600260005414156104a0576040517f08c379a000000000000000000000000000000000000000000000000000000000815260040161049790613054565b60405180910390fd5b60026000819055507376b39236427532F4BF047Ad28dEbCC1EAb47c9E163b142980a826040518263ffffffff1660e01b81526004016104df9190613094565b60206040518083038186803b1580156104f757600080fd5b505af415801561050b573d6000803e3d6000fd5b505050506040513d601f19601f8201168201806040525081019061052f919061297d565b61057157600c6040517fede8a5990000000000000000000000000000000000000000000000000000000081526004016105689190612f57565b60405180910390fd5b600060036000838152602001908152602001600020604051806040016040529081600082015481526020016001820154815250509050600760009054906101000a900473ffffffffffffffffffffffffffffffffffffffff1673ffffffffffffffffffffffffffffffffffffffff1663059a8008303386866040518563ffffffff1660e01b81526004016106089493929190612eb3565b600060405180830381600087803b15801561062257600080fd5b505af1158015610636573d6000803e3d6000fd5b505050506000600860009054906101000a900473ffffffffffffffffffffffffffffffffffffffff1673ffffffffffffffffffffffffffffffffffffffff1663c9c58f85858585866040518563ffffffff1660e01b815260040161069d94939291906130f3565b60206040518083038186803b1580156106b557600080fd5b505afa1580156106c9573d6000803e3d6000fd5b505050506040513d601f19601f820116820180604052508101906106ed91906129cf565b90506000670de0b6b3a764000082866107069190613228565b61071091906131f7565b9050808561071e91906131a1565b6002600086815260200190815260200160002060003373ffffffffffffffffffffffffffffffffffffffff1673ffffffffffffffffffffffffffffffffffffffff168152602001908152602001600020600082825461077d91906131a1565b92505081905550848360000181815161079691906131a1565b9150818152505082600360008681526020019081526020016000206000820151816000015560208201518160010155905050610817303387600560009054906101000a900473ffffffffffffffffffffffffffffffffffffffff1673ffffffffffffffffffffffffffffffffffffffff166119e3909392919063ffffffff16565b3373ffffffffffffffffffffffffffffffffffffffff167fc4381c9c7b508979896c55381c1cb8c2aef28d753cff7661f9cd87b9a14584f886838760405161086193929190613138565b60405180910390a250505060016000819055505050565b60095481565b600260005414156108c4576040517f08c379a00000000000000000000000000000000000000000000000000000000081526004016108bb90613054565b60405180910390fd5b60026000819055506108d7338383611a6c565b60016000819055505050565b600a6020528060005260406000206000915090505481565b60026000541415610941576040517f08c379a000000000000000000000000000000000000000000000000000000000815260040161093890613054565b60405180910390fd5b6002600081905550600082141561098d576040517f08c379a000000000000000000000000000000000000000000000000000000000815260040161098490612f94565b60405180910390fd5b600760009054906101000a900473ffffffffffffffffffffffffffffffffffffffff1673ffffffffffffffffffffffffffffffffffffffff16632f8832d6308585856040518563ffffffff1660e01b81526004016109ee9493929190612d30565b600060405180830381600087803b158015610a0857600080fd5b505af1158015610a1c573d6000803e3d6000fd5b50505050816001600083815260200190815260200160002060008573ffffffffffffffffffffffffffffffffffffffff1673ffffffffffffffffffffffffffffffffffffffff1681526020019081526020016000206000828254610a809190613282565b9250508190555081600560009054906101000a900473ffffffffffffffffffffffffffffffffffffffff1673ffffffffffffffffffffffffffffffffffffffff166370a08231306040518263ffffffff1660e01b8152600401610ae39190612cec565b60206040518083038186803b158015610afb57600080fd5b505afa158015610b0f573d6000803e3d6000fd5b505050506040513d601f19601f82011682018060405250810190610b3391906129cf565b1015610b74576040517f08c379a0000000000000000000000000000000000000000000000000000000008152600401610b6b90613014565b60405180910390fd5b610bc3308484600560009054906101000a900473ffffffffffffffffffffffffffffffffffffffff1673ffffffffffffffffffffffffffffffffffffffff166119e3909392919063ffffffff16565b8273ffffffffffffffffffffffffffffffffffffffff167ff3a670cd3af7d64b488926880889d08a8585a138ff455227af6737339a1ec2628383604051610c0b9291906130ca565b60405180910390a26001600081905550505050565b60046020528160005260406000208181548110610c3c57600080fd5b90600052602060002001600091509150505481565b600760009054906101000a900473ffffffffffffffffffffffffffffffffffffffff1681565b6000807376b39236427532F4BF047Ad28dEbCC1EAb47c9E163b142980a846040518263ffffffff1660e01b8152600401610cb19190613094565b60206040518083038186803b158015610cc957600080fd5b505af4158015610cdd573d6000803e3d6000fd5b505050506040513d601f19601f82011682018060405250810190610d01919061297d565b610d4357600c6040517fede8a599000000000000000000000000000000000000000000000000000000008152600401610d3a9190612f57565b60405180910390fd5b6001600084815260200190815260200160002060008573ffffffffffffffffffffffffffffffffffffffff1673ffffffffffffffffffffffffffffffffffffffff168152602001908152602001600020546002600085815260200190815260200160002060008673ffffffffffffffffffffffffffffffffffffffff1673ffffffffffffffffffffffffffffffffffffffff16815260200190815260200160002054915091509250929050565b60068054610dfd906133f8565b80601f0160208091040260200160405190810160405280929190818152602001828054610e29906133f8565b8015610e765780601f10610e4b57610100808354040283529160200191610e76565b820191906000526020600020905b815481529060010190602001808311610e5957829003601f168201915b505050505081565b60026000541415610ec4576040517f08c379a0000000000000000000000000000000000000000000000000000000008152600401610ebb90613054565b60405180910390fd5b60026000819055507376b39236427532F4BF047Ad28dEbCC1EAb47c9E163b142980a826040518263ffffffff1660e01b8152600401610f039190613094565b60206040518083038186803b158015610f1b57600080fd5b505af4158015610f2f573d6000803e3d6000fd5b505050506040513d601f19601f82011682018060405250810190610f53919061297d565b610f9557600c6040517fede8a599000000000000000000000000000000000000000000000000000000008152600401610f8c9190612f57565b60405180910390fd5b600060036000838152602001908152602001600020604051806040016040529081600082015481526020016001820154815250509050600760009054906101000a900473ffffffffffffffffffffffffffffffffffffffff1673ffffffffffffffffffffffffffffffffffffffff166353c4fc98308686866040518563ffffffff1660e01b815260040161102c9493929190612eb3565b600060405180830381600087803b15801561104657600080fd5b505af115801561105a573d6000803e3d6000fd5b505050506000600860009054906101000a900473ffffffffffffffffffffffffffffffffffffffff1673ffffffffffffffffffffffffffffffffffffffff16630f2f4931858585866040518563ffffffff1660e01b81526004016110c194939291906130f3565b60206040518083038186803b1580156110d957600080fd5b505afa1580156110ed573d6000803e3d6000fd5b505050506040513d601f19601f8201168201806040525081019061111191906129cf565b90506000670de0b6b3a7640000828661112a9190613228565b61113491906131f7565b9050808561114291906131a1565b6001600086815260200190815260200160002060008873ffffffffffffffffffffffffffffffffffffffff1673ffffffffffffffffffffffffffffffffffffffff16815260200190815260200160002060008282546111a191906131a1565b9250508190555084836020018181516111ba91906131a1565b915081815250508260036000868152602001908152602001600020600082015181600001556020820151816001015590505061123b863087600560009054906101000a900473ffffffffffffffffffffffffffffffffffffffff1673ffffffffffffffffffffffffffffffffffffffff166119e3909392919063ffffffff16565b8573ffffffffffffffffffffffffffffffffffffffff167f59c246e4b3d64f626b5eac2dd8e3a3c46c4531e9cc40ef4e6f120fcb3df6be1e86838760405161128593929190613138565b60405180910390a25050506001600081905550505050565b6000600260005414156112e5576040517f08c379a00000000000000000000000000000000000000000000000000000000081526004016112dc90613054565b60405180910390fd5b60026000819055506112fa3386868686611c62565b90506001600081905550949350505050565b60007376b39236427532F4BF047Ad28dEbCC1EAb47c9E163b142980a836040518263ffffffff1660e01b81526004016113459190613094565b60206040518083038186803b15801561135d57600080fd5b505af4158015611371573d6000803e3d6000fd5b505050506040513d601f19601f82011682018060405250810190611395919061297d565b6113d757600c6040517fede8a5990000000000000000000000000000000000000000000000000000000081526004016113ce9190612f57565b60405180910390fd5b600060036000848152602001908152602001600020604051806040016040529081600082015481526020016001820154815250509050600860009054906101000a900473ffffffffffffffffffffffffffffffffffffffff1673ffffffffffffffffffffffffffffffffffffffff1663c9c58f85858584856040518563ffffffff1660e01b815260040161146e94939291906130f3565b60206040518083038186803b15801561148657600080fd5b505afa15801561149a573d6000803e3d6000fd5b505050506040513d601f19601f820116820180604052508101906114be91906129cf565b91505092915050565b60007376b39236427532F4BF047Ad28dEbCC1EAb47c9E163b142980a836040518263ffffffff1660e01b81526004016115009190613094565b60206040518083038186803b15801561151857600080fd5b505af415801561152c573d6000803e3d6000fd5b505050506040513d601f19601f82011682018060405250810190611550919061297d565b61159257600c6040517fede8a5990000000000000000000000000000000000000000000000000000000081526004016115899190612f57565b60405180910390fd5b600060036000848152602001908152602001600020604051806040016040529081600082015481526020016001820154815250509050600860009054906101000a900473ffffffffffffffffffffffffffffffffffffffff1673ffffffffffffffffffffffffffffffffffffffff16630f2f4931858584856040518563ffffffff1660e01b815260040161162994939291906130f3565b60206040518083038186803b15801561164157600080fd5b505afa158015611655573d6000803e3d6000fd5b505050506040513d601f19601f8201168201806040525081019061167991906129cf565b91505092915050565b60036020528060005260406000206000915090508060000154908060010154905082565b6000600760009054906101000a900473ffffffffffffffffffffffffffffffffffffffff16905090565b60026000541415611716576040517f08c379a000000000000000000000000000000000000000000000000000000000815260040161170d90613054565b60405180910390fd5b600260008190555061172b3385858585611f94565b600160008190555050505050565b6002602052816000526040600020602052806000526040600020600091509150505481565b60007376b39236427532F4BF047Ad28dEbCC1EAb47c9E163b142980a836040518263ffffffff1660e01b81526004016117979190613094565b60206040518083038186803b1580156117af57600080fd5b505af41580156117c3573d6000803e3d6000fd5b505050506040513d601f19601f820116820180604052508101906117e7919061297d565b61182957600c6040517fede8a5990000000000000000000000000000000000000000000000000000000081526004016118209190612f57565b60405180910390fd5b60036000838152602001908152602001600020600001549050919050565b600860009054906101000a900473ffffffffffffffffffffffffffffffffffffffff1681565b6000811480611906575060008373ffffffffffffffffffffffffffffffffffffffff1663dd62ed3e30856040518363ffffffff1660e01b81526004016118b4929190612d07565b60206040518083038186803b1580156118cc57600080fd5b505afa1580156118e0573d6000803e3d6000fd5b505050506040513d601f19601f8201168201806040525081019061190491906129cf565b145b611945576040517f08c379a000000000000000000000000000000000000000000000000000000000815260040161193c90613074565b60405180910390fd5b6119c68363095ea7b360e01b8484604051602401611964929190612ef8565b604051602081830303815290604052907bffffffffffffffffffffffffffffffffffffffffffffffffffffffff19166020820180517bffffffffffffffffffffffffffffffffffffffffffffffffffffffff8381831617835250505050612201565b505050565b60606119da84846000856122c8565b90509392505050565b611a66846323b872dd60e01b858585604051602401611a0493929190612e1b565b604051602081830303815290604052907bffffffffffffffffffffffffffffffffffffffffffffffffffffffff19166020820180517bffffffffffffffffffffffffffffffffffffffffffffffffffffffff8381831617835250505050612201565b50505050565b600760009054906101000a900473ffffffffffffffffffffffffffffffffffffffff1673ffffffffffffffffffffffffffffffffffffffff1663b962aaeb3084846040518463ffffffff1660e01b8152600401611acb93929190612e1b565b600060405180830381600087803b158015611ae557600080fd5b505af1158015611af9573d6000803e3d6000fd5b5050505060006002600083815260200190815260200160002060008473ffffffffffffffffffffffffffffffffffffffff1673ffffffffffffffffffffffffffffffffffffffff168152602001908152602001600020549050611ba1843083600560009054906101000a900473ffffffffffffffffffffffffffffffffffffffff1673ffffffffffffffffffffffffffffffffffffffff166119e3909392919063ffffffff16565b6002600083815260200190815260200160002060008473ffffffffffffffffffffffffffffffffffffffff1673ffffffffffffffffffffffffffffffffffffffff168152602001908152602001600020600090558273ffffffffffffffffffffffffffffffffffffffff168473ffffffffffffffffffffffffffffffffffffffff167fe62a777dbd48d3912f68a1b9445813ee02bc3ac18b97dc129ca462cc77bb641b8385604051611c549291906130ca565b60405180910390a350505050565b6000600760009054906101000a900473ffffffffffffffffffffffffffffffffffffffff1673ffffffffffffffffffffffffffffffffffffffff16632c7c0ae83085898989886040518763ffffffff1660e01b8152600401611cc996959493929190612dba565b60006040518083038186803b158015611ce157600080fd5b505afa158015611cf5573d6000803e3d6000fd5b50505050611d05868686856123dc565b6000600760009054906101000a900473ffffffffffffffffffffffffffffffffffffffff1673ffffffffffffffffffffffffffffffffffffffff16635efadbd13086886040518463ffffffff1660e01b8152600401611d6693929190612e1b565b60206040518083038186803b158015611d7e57600080fd5b505afa158015611d92573d6000803e3d6000fd5b505050506040513d601f19601f82011682018060405250810190611db691906129cf565b905060008473ffffffffffffffffffffffffffffffffffffffff166355a1ac2e88866040518363ffffffff1660e01b8152600401611df5929190612ef8565b604080518083038186803b158015611e0c57600080fd5b505afa158015611e20573d6000803e3d6000fd5b505050506040513d601f19601f82011682018060405250810190611e449190612a70565b50905081811015611e8d57600a6040517fede8a599000000000000000000000000000000000000000000000000000000008152600401611e849190612f57565b60405180910390fd5b3073ffffffffffffffffffffffffffffffffffffffff168573ffffffffffffffffffffffffffffffffffffffff161415611ed357611ece3089898588611f94565b611f45565b8473ffffffffffffffffffffffffffffffffffffffff1663d2c6d0dc898985886040518563ffffffff1660e01b8152600401611f129493929190612eb3565b600060405180830381600087803b158015611f2c57600080fd5b505af1158015611f40573d6000803e3d6000fd5b505050505b7f9e76a01ba2e51393f58ccc22c0afc9520815e0cc3f301f7b5d7442fcaee9fdc1888888888689604051611f7e96959493929190612e52565b60405180910390a1859250505095945050505050565b600760009054906101000a900473ffffffffffffffffffffffffffffffffffffffff1673ffffffffffffffffffffffffffffffffffffffff1663eafe967b308787876040518563ffffffff1660e01b8152600401611ff59493929190612d75565b60006040518083038186803b15801561200d57600080fd5b505afa158015612021573d6000803e3d6000fd5b505050506000612041666379da05b600008461260d90919063ffffffff16565b9050600081846120519190613282565b9050836001600085815260200190815260200160002060008773ffffffffffffffffffffffffffffffffffffffff1673ffffffffffffffffffffffffffffffffffffffff16815260200190815260200160002060008282546120b39190613282565b9250508190555060006003600085815260200190815260200160002060405180604001604052908160008201548152602001600182015481525050905084816020018181516121029190613282565b91508181525050806003600086815260200190815260200160002060008201518160000155602082015181600101559050506121818783600560009054906101000a900473ffffffffffffffffffffffffffffffffffffffff1673ffffffffffffffffffffffffffffffffffffffff166126369092919063ffffffff16565b7fe51b546a59a5440500bc9464ab1cb969d07a4508292c32e540ac0f37b644aca8878787876040516121b69493929190612eb3565b60405180910390a17f9ee5619a3cc818b40b8727fa0e1b2dbfef2c9c692817ec30f6edd0c9afeab2be30846040516121ef929190612ef8565b60405180910390a15050505050505050565b6000612263826040518060400160405280602081526020017f5361666545524332303a206c6f772d6c6576656c2063616c6c206661696c65648152508573ffffffffffffffffffffffffffffffffffffffff166119cb9092919063ffffffff16565b90506000815111156122c35780806020019051810190612283919061297d565b6122c2576040517f08c379a00000000000000000000000000000000000000000000000000000000081526004016122b990613034565b60405180910390fd5b5b505050565b60608247101561230d576040517f08c379a000000000000000000000000000000000000000000000000000000000815260040161230490612fb4565b60405180910390fd5b612316856126bc565b612355576040517f08c379a000000000000000000000000000000000000000000000000000000000815260040161234c90612ff4565b60405180910390fd5b6000808673ffffffffffffffffffffffffffffffffffffffff16858760405161237e9190612cd5565b60006040518083038185875af1925050503d80600081146123bb576040519150601f19603f3d011682016040523d82523d6000602084013e6123c0565b606091505b50915091506123d08282866126cf565b92505050949350505050565b6000821415612420576040517f08c379a000000000000000000000000000000000000000000000000000000000815260040161241790612fd4565b60405180910390fd5b60006002600083815260200190815260200160002060008573ffffffffffffffffffffffffffffffffffffffff1673ffffffffffffffffffffffffffffffffffffffff1681526020019081526020016000205490506124c4853085600560009054906101000a900473ffffffffffffffffffffffffffffffffffffffff1673ffffffffffffffffffffffffffffffffffffffff166119e3909392919063ffffffff16565b82816124d09190613282565b6002600084815260200190815260200160002060008673ffffffffffffffffffffffffffffffffffffffff1673ffffffffffffffffffffffffffffffffffffffff16815260200190815260200160002081905550600060036000848152602001908152602001600020604051806040016040529081600082015481526020016001820154815250509050838160000181815161256c9190613282565b91508181525050806003600085815260200190815260200160002060008201518160000155602082015181600101559050508473ffffffffffffffffffffffffffffffffffffffff168673ffffffffffffffffffffffffffffffffffffffff167fe62a777dbd48d3912f68a1b9445813ee02bc3ac18b97dc129ca462cc77bb641b86866040516125fd9291906130ca565b60405180910390a3505050505050565b6000670de0b6b3a764000082846126249190613228565b61262e91906131f7565b905092915050565b6126b78363a9059cbb60e01b8484604051602401612655929190612ef8565b604051602081830303815290604052907bffffffffffffffffffffffffffffffffffffffffffffffffffffffff19166020820180517bffffffffffffffffffffffffffffffffffffffffffffffffffffffff8381831617835250505050612201565b505050565b600080823b905060008111915050919050565b606083156126df5782905061272f565b6000835111156126f25782518084602001fd5b816040517f08c379a00000000000000000000000000000000000000000000000000000000081526004016127269190612f72565b60405180910390fd5b9392505050565b600081359050612745816136c5565b92915050565b60008135905061275a816136dc565b92915050565b60008151905061276f816136f3565b92915050565b6000813590506127848161370a565b92915050565b60008135905061279981613721565b92915050565b6000815190506127ae81613721565b92915050565b6000602082840312156127c657600080fd5b60006127d484828501612736565b91505092915050565b6000806000606084860312156127f257600080fd5b60006128008682870161274b565b93505060206128118682870161278a565b92505060406128228682870161278a565b9150509250925092565b6000806000806080858703121561284257600080fd5b600061285087828801612736565b945050602061286187828801612736565b93505060406128728782880161278a565b92505060606128838782880161278a565b91505092959194509250565b600080604083850312156128a257600080fd5b60006128b085828601612736565b92505060206128c18582860161278a565b9150509250929050565b600080600080608085870312156128e157600080fd5b60006128ef87828801612736565b94505060206129008782880161278a565b935050604061291187828801612775565b92505060606129228782880161278a565b91505092959194509250565b60008060006060848603121561294357600080fd5b600061295186828701612736565b93505060206129628682870161278a565b92505060406129738682870161278a565b9150509250925092565b60006020828403121561298f57600080fd5b600061299d84828501612760565b91505092915050565b6000602082840312156129b857600080fd5b60006129c68482850161278a565b91505092915050565b6000602082840312156129e157600080fd5b60006129ef8482850161279f565b91505092915050565b60008060408385031215612a0b57600080fd5b6000612a198582860161278a565b9250506020612a2a85828601612736565b9150509250929050565b60008060408385031215612a4757600080fd5b6000612a558582860161278a565b9250506020612a668582860161278a565b9150509250929050565b60008060408385031215612a8357600080fd5b6000612a918582860161279f565b9250506020612aa28582860161279f565b9150509250929050565b612ab581613335565b82525050565b612ac4816132b6565b82525050565b6000612ad58261316f565b612adf8185613185565b9350612aef8185602086016133c5565b80840191505092915050565b612b0481613347565b82525050565b612b138161336b565b82525050565b612b228161338f565b82525050565b6000612b338261317a565b612b3d8185613190565b9350612b4d8185602086016133c5565b612b56816134e6565b840191505092915050565b6000612b6e601483613190565b9150612b79826134f7565b602082019050919050565b6000612b91602683613190565b9150612b9c82613520565b604082019050919050565b6000612bb4601483613190565b9150612bbf8261356f565b602082019050919050565b6000612bd7601d83613190565b9150612be282613598565b602082019050919050565b6000612bfa601483613190565b9150612c05826135c1565b602082019050919050565b6000612c1d602a83613190565b9150612c28826135ea565b604082019050919050565b6000612c40601f83613190565b9150612c4b82613639565b602082019050919050565b6000612c63603683613190565b9150612c6e82613662565b604082019050919050565b604082016000820151612c8f6000850182612ca8565b506020820151612ca26020850182612ca8565b50505050565b612cb18161332b565b82525050565b612cc08161332b565b82525050565b612ccf8161332b565b82525050565b6000612ce18284612aca565b915081905092915050565b6000602082019050612d016000830184612abb565b92915050565b6000604082019050612d1c6000830185612abb565b612d296020830184612abb565b9392505050565b6000608082019050612d456000830187612abb565b612d526020830186612aac565b612d5f6040830185612cb7565b612d6c6060830184612cb7565b95945050505050565b6000608082019050612d8a6000830187612abb565b612d976020830186612abb565b612da46040830185612abb565b612db16060830184612abb565b95945050505050565b600060c082019050612dcf6000830189612abb565b612ddc6020830188612abb565b612de96040830187612abb565b612df66060830186612abb565b612e036080830185612cb7565b612e1060a0830184612cb7565b979650505050505050565b6000606082019050612e306000830186612abb565b612e3d6020830185612abb565b612e4a6040830184612cb7565b949350505050565b600060c082019050612e676000830189612abb565b612e746020830188612abb565b612e816040830187612cb7565b612e8e6060830186612abb565b612e9b6080830185612cb7565b612ea860a0830184612cb7565b979650505050505050565b6000608082019050612ec86000830187612abb565b612ed56020830186612abb565b612ee26040830185612cb7565b612eef6060830184612cb7565b95945050505050565b6000604082019050612f0d6000830185612abb565b612f1a6020830184612cb7565b9392505050565b6000602082019050612f366000830184612afb565b92915050565b6000602082019050612f516000830184612b0a565b92915050565b6000602082019050612f6c6000830184612b19565b92915050565b60006020820190508181036000830152612f8c8184612b28565b905092915050565b60006020820190508181036000830152612fad81612b61565b9050919050565b60006020820190508181036000830152612fcd81612b84565b9050919050565b60006020820190508181036000830152612fed81612ba7565b9050919050565b6000602082019050818103600083015261300d81612bca565b9050919050565b6000602082019050818103600083015261302d81612bed565b9050919050565b6000602082019050818103600083015261304d81612c10565b9050919050565b6000602082019050818103600083015261306d81612c33565b9050919050565b6000602082019050818103600083015261308d81612c56565b9050919050565b60006020820190506130a96000830184612cc6565b92915050565b60006020820190506130c46000830184612cb7565b92915050565b60006040820190506130df6000830185612cb7565b6130ec6020830184612cb7565b9392505050565b600060c0820190506131086000830187612cb7565b6131156020830186612cb7565b6131226040830185612c79565b61312f6080830184612c79565b95945050505050565b600060608201905061314d6000830186612cb7565b61315a6020830185612cb7565b6131676040830184612cb7565b949350505050565b600081519050919050565b600081519050919050565b600081905092915050565b600082825260208201905092915050565b60006131ac8261332b565b91506131b78361332b565b9250827fffffffffffffffffffffffffffffffffffffffffffffffffffffffffffffffff038211156131ec576131eb61342a565b5b828201905092915050565b60006132028261332b565b915061320d8361332b565b92508261321d5761321c613459565b5b828204905092915050565b60006132338261332b565b915061323e8361332b565b9250817fffffffffffffffffffffffffffffffffffffffffffffffffffffffffffffffff04831182151516156132775761327661342a565b5b828202905092915050565b600061328d8261332b565b91506132988361332b565b9250828210156132ab576132aa61342a565b5b828203905092915050565b60006132c18261330b565b9050919050565b60006132d38261330b565b9050919050565b60008115159050919050565b60006132f1826132b6565b9050919050565b6000819050613306826136b1565b919050565b600073ffffffffffffffffffffffffffffffffffffffff82169050919050565b6000819050919050565b6000613340826133a1565b9050919050565b600061335282613359565b9050919050565b60006133648261330b565b9050919050565b60006133768261337d565b9050919050565b60006133888261330b565b9050919050565b600061339a826132f8565b9050919050565b60006133ac826133b3565b9050919050565b60006133be8261330b565b9050919050565b60005b838110156133e35780820151818401526020810190506133c8565b838111156133f2576000848401525b50505050565b6000600282049050600182168061341057607f821691505b60208210811415613424576134236134b7565b5b50919050565b7f4e487b7100000000000000000000000000000000000000000000000000000000600052601160045260246000fd5b7f4e487b7100000000000000000000000000000000000000000000000000000000600052601260045260246000fd5b7f4e487b7100000000000000000000000000000000000000000000000000000000600052602160045260246000fd5b7f4e487b7100000000000000000000000000000000000000000000000000000000600052602260045260246000fd5b6000601f19601f8301169050919050565b7f52656465656d2063616e2774206265207a65726f000000000000000000000000600082015250565b7f416464726573733a20696e73756666696369656e742062616c616e636520666f60008201527f722063616c6c0000000000000000000000000000000000000000000000000000602082015250565b7f596f752063616e2774207265706179207a65726f000000000000000000000000600082015250565b7f416464726573733a2063616c6c20746f206e6f6e2d636f6e7472616374000000600082015250565b7f4e6f7420656e6f756768206c6971756964697479000000000000000000000000600082015250565b7f5361666545524332303a204552433230206f7065726174696f6e20646964206e60008201527f6f74207375636365656400000000000000000000000000000000000000000000602082015250565b7f5265656e7472616e637947756172643a207265656e7472616e742063616c6c00600082015250565b7f5361666545524332303a20617070726f76652066726f6d206e6f6e2d7a65726f60008201527f20746f206e6f6e2d7a65726f20616c6c6f77616e636500000000000000000000602082015250565b601381106136c2576136c1613488565b5b50565b6136ce816132b6565b81146136d957600080fd5b50565b6136e5816132c8565b81146136f057600080fd5b50565b6136fc816132da565b811461370757600080fd5b50565b613713816132e6565b811461371e57600080fd5b50565b61372a8161332b565b811461373557600080fd5b5056fea2646970667358221220eabc811d00a3316b9f0fed43636afa2bc7a861645cab3122bbd755dfad3a6f4a64736f6c63430008040033",
  "deployedBytecode": "0x608060405234801561001057600080fd5b506004361061012c5760003560e01c80637dbca353116100ad578063b72ddee911610071578063b72ddee91461037d578063d2c6d0dc1461039b578063d2cdcad3146103b7578063ea1cd41f146103e7578063f3fdb15a146104175761012c565b80637dbca353146102a05780639457be23146102bc5780639f3c85a8146102ec578063a593d5141461031c578063ac4afa381461034c5761012c565b80632b83cccd116100f45780632b83cccd146101e75780633c5b1c59146102035780633ec045a61461023357806355a1ac2e146102515780636c02a931146102825761012c565b80630526b7d5146101315780630ecbcdab1461016157806318160ddd1461017d57806322867d781461019b57806327e235e3146101b7575b600080fd5b61014b600480360381019061014691906129f8565b610435565b60405161015891906130af565b60405180910390f35b61017b60048036038101906101769190612a34565b61045a565b005b610185610878565b60405161019291906130af565b60405180910390f35b6101b560048036038101906101b0919061288f565b61087e565b005b6101d160048036038101906101cc91906127b4565b6108e3565b6040516101de91906130af565b60405180910390f35b61020160048036038101906101fc91906127dd565b6108fb565b005b61021d6004803603810190610218919061288f565b610c20565b60405161022a91906130af565b60405180910390f35b61023b610c51565b6040516102489190612f21565b60405180910390f35b61026b6004803603810190610266919061288f565b610c77565b6040516102799291906130ca565b60405180910390f35b61028a610df0565b6040516102979190612f72565b60405180910390f35b6102ba60048036038101906102b5919061292e565b610e7e565b005b6102d660048036038101906102d191906128cb565b61129d565b6040516102e391906130af565b60405180910390f35b61030660048036038101906103019190612a34565b61130c565b60405161031391906130af565b60405180910390f35b61033660048036038101906103319190612a34565b6114c7565b60405161034391906130af565b60405180910390f35b610366600480360381019061036191906129a6565b611682565b6040516103749291906130ca565b60405180910390f35b6103856116a6565b6040516103929190612f21565b60405180910390f35b6103b560048036038101906103b0919061282c565b6116d0565b005b6103d160048036038101906103cc91906129f8565b611739565b6040516103de91906130af565b60405180910390f35b61040160048036038101906103fc91906129a6565b61175e565b60405161040e91906130af565b60405180910390f35b61041f611847565b60405161042c9190612f3c565b60405180910390f35b6001602052816000526040600020602052806000526040600020600091509150505481565b600260005414156104a0576040517f08c379a000000000000000000000000000000000000000000000000000000000815260040161049790613054565b60405180910390fd5b600260008190555073__$90f1fa1b3f91137ac60e95891d324fdd69$__63b142980a826040518263ffffffff1660e01b81526004016104df9190613094565b60206040518083038186803b1580156104f757600080fd5b505af415801561050b573d6000803e3d6000fd5b505050506040513d601f19601f8201168201806040525081019061052f919061297d565b61057157600c6040517fede8a5990000000000000000000000000000000000000000000000000000000081526004016105689190612f57565b60405180910390fd5b600060036000838152602001908152602001600020604051806040016040529081600082015481526020016001820154815250509050600760009054906101000a900473ffffffffffffffffffffffffffffffffffffffff1673ffffffffffffffffffffffffffffffffffffffff1663059a8008303386866040518563ffffffff1660e01b81526004016106089493929190612eb3565b600060405180830381600087803b15801561062257600080fd5b505af1158015610636573d6000803e3d6000fd5b505050506000600860009054906101000a900473ffffffffffffffffffffffffffffffffffffffff1673ffffffffffffffffffffffffffffffffffffffff1663c9c58f85858585866040518563ffffffff1660e01b815260040161069d94939291906130f3565b60206040518083038186803b1580156106b557600080fd5b505afa1580156106c9573d6000803e3d6000fd5b505050506040513d601f19601f820116820180604052508101906106ed91906129cf565b90506000670de0b6b3a764000082866107069190613228565b61071091906131f7565b9050808561071e91906131a1565b6002600086815260200190815260200160002060003373ffffffffffffffffffffffffffffffffffffffff1673ffffffffffffffffffffffffffffffffffffffff168152602001908152602001600020600082825461077d91906131a1565b92505081905550848360000181815161079691906131a1565b9150818152505082600360008681526020019081526020016000206000820151816000015560208201518160010155905050610817303387600560009054906101000a900473ffffffffffffffffffffffffffffffffffffffff1673ffffffffffffffffffffffffffffffffffffffff166119e3909392919063ffffffff16565b3373ffffffffffffffffffffffffffffffffffffffff167fc4381c9c7b508979896c55381c1cb8c2aef28d753cff7661f9cd87b9a14584f886838760405161086193929190613138565b60405180910390a250505060016000819055505050565b60095481565b600260005414156108c4576040517f08c379a00000000000000000000000000000000000000000000000000000000081526004016108bb90613054565b60405180910390fd5b60026000819055506108d7338383611a6c565b60016000819055505050565b600a6020528060005260406000206000915090505481565b60026000541415610941576040517f08c379a000000000000000000000000000000000000000000000000000000000815260040161093890613054565b60405180910390fd5b6002600081905550600082141561098d576040517f08c379a000000000000000000000000000000000000000000000000000000000815260040161098490612f94565b60405180910390fd5b600760009054906101000a900473ffffffffffffffffffffffffffffffffffffffff1673ffffffffffffffffffffffffffffffffffffffff16632f8832d6308585856040518563ffffffff1660e01b81526004016109ee9493929190612d30565b600060405180830381600087803b158015610a0857600080fd5b505af1158015610a1c573d6000803e3d6000fd5b50505050816001600083815260200190815260200160002060008573ffffffffffffffffffffffffffffffffffffffff1673ffffffffffffffffffffffffffffffffffffffff1681526020019081526020016000206000828254610a809190613282565b9250508190555081600560009054906101000a900473ffffffffffffffffffffffffffffffffffffffff1673ffffffffffffffffffffffffffffffffffffffff166370a08231306040518263ffffffff1660e01b8152600401610ae39190612cec565b60206040518083038186803b158015610afb57600080fd5b505afa158015610b0f573d6000803e3d6000fd5b505050506040513d601f19601f82011682018060405250810190610b3391906129cf565b1015610b74576040517f08c379a0000000000000000000000000000000000000000000000000000000008152600401610b6b90613014565b60405180910390fd5b610bc3308484600560009054906101000a900473ffffffffffffffffffffffffffffffffffffffff1673ffffffffffffffffffffffffffffffffffffffff166119e3909392919063ffffffff16565b8273ffffffffffffffffffffffffffffffffffffffff167ff3a670cd3af7d64b488926880889d08a8585a138ff455227af6737339a1ec2628383604051610c0b9291906130ca565b60405180910390a26001600081905550505050565b60046020528160005260406000208181548110610c3c57600080fd5b90600052602060002001600091509150505481565b600760009054906101000a900473ffffffffffffffffffffffffffffffffffffffff1681565b60008073__$90f1fa1b3f91137ac60e95891d324fdd69$__63b142980a846040518263ffffffff1660e01b8152600401610cb19190613094565b60206040518083038186803b158015610cc957600080fd5b505af4158015610cdd573d6000803e3d6000fd5b505050506040513d601f19601f82011682018060405250810190610d01919061297d565b610d4357600c6040517fede8a599000000000000000000000000000000000000000000000000000000008152600401610d3a9190612f57565b60405180910390fd5b6001600084815260200190815260200160002060008573ffffffffffffffffffffffffffffffffffffffff1673ffffffffffffffffffffffffffffffffffffffff168152602001908152602001600020546002600085815260200190815260200160002060008673ffffffffffffffffffffffffffffffffffffffff1673ffffffffffffffffffffffffffffffffffffffff16815260200190815260200160002054915091509250929050565b60068054610dfd906133f8565b80601f0160208091040260200160405190810160405280929190818152602001828054610e29906133f8565b8015610e765780601f10610e4b57610100808354040283529160200191610e76565b820191906000526020600020905b815481529060010190602001808311610e5957829003601f168201915b505050505081565b60026000541415610ec4576040517f08c379a0000000000000000000000000000000000000000000000000000000008152600401610ebb90613054565b60405180910390fd5b600260008190555073__$90f1fa1b3f91137ac60e95891d324fdd69$__63b142980a826040518263ffffffff1660e01b8152600401610f039190613094565b60206040518083038186803b158015610f1b57600080fd5b505af4158015610f2f573d6000803e3d6000fd5b505050506040513d601f19601f82011682018060405250810190610f53919061297d565b610f9557600c6040517fede8a599000000000000000000000000000000000000000000000000000000008152600401610f8c9190612f57565b60405180910390fd5b600060036000838152602001908152602001600020604051806040016040529081600082015481526020016001820154815250509050600760009054906101000a900473ffffffffffffffffffffffffffffffffffffffff1673ffffffffffffffffffffffffffffffffffffffff166353c4fc98308686866040518563ffffffff1660e01b815260040161102c9493929190612eb3565b600060405180830381600087803b15801561104657600080fd5b505af115801561105a573d6000803e3d6000fd5b505050506000600860009054906101000a900473ffffffffffffffffffffffffffffffffffffffff1673ffffffffffffffffffffffffffffffffffffffff16630f2f4931858585866040518563ffffffff1660e01b81526004016110c194939291906130f3565b60206040518083038186803b1580156110d957600080fd5b505afa1580156110ed573d6000803e3d6000fd5b505050506040513d601f19601f8201168201806040525081019061111191906129cf565b90506000670de0b6b3a7640000828661112a9190613228565b61113491906131f7565b9050808561114291906131a1565b6001600086815260200190815260200160002060008873ffffffffffffffffffffffffffffffffffffffff1673ffffffffffffffffffffffffffffffffffffffff16815260200190815260200160002060008282546111a191906131a1565b9250508190555084836020018181516111ba91906131a1565b915081815250508260036000868152602001908152602001600020600082015181600001556020820151816001015590505061123b863087600560009054906101000a900473ffffffffffffffffffffffffffffffffffffffff1673ffffffffffffffffffffffffffffffffffffffff166119e3909392919063ffffffff16565b8573ffffffffffffffffffffffffffffffffffffffff167f59c246e4b3d64f626b5eac2dd8e3a3c46c4531e9cc40ef4e6f120fcb3df6be1e86838760405161128593929190613138565b60405180910390a25050506001600081905550505050565b6000600260005414156112e5576040517f08c379a00000000000000000000000000000000000000000000000000000000081526004016112dc90613054565b60405180910390fd5b60026000819055506112fa3386868686611c62565b90506001600081905550949350505050565b600073__$90f1fa1b3f91137ac60e95891d324fdd69$__63b142980a836040518263ffffffff1660e01b81526004016113459190613094565b60206040518083038186803b15801561135d57600080fd5b505af4158015611371573d6000803e3d6000fd5b505050506040513d601f19601f82011682018060405250810190611395919061297d565b6113d757600c6040517fede8a5990000000000000000000000000000000000000000000000000000000081526004016113ce9190612f57565b60405180910390fd5b600060036000848152602001908152602001600020604051806040016040529081600082015481526020016001820154815250509050600860009054906101000a900473ffffffffffffffffffffffffffffffffffffffff1673ffffffffffffffffffffffffffffffffffffffff1663c9c58f85858584856040518563ffffffff1660e01b815260040161146e94939291906130f3565b60206040518083038186803b15801561148657600080fd5b505afa15801561149a573d6000803e3d6000fd5b505050506040513d601f19601f820116820180604052508101906114be91906129cf565b91505092915050565b600073__$90f1fa1b3f91137ac60e95891d324fdd69$__63b142980a836040518263ffffffff1660e01b81526004016115009190613094565b60206040518083038186803b15801561151857600080fd5b505af415801561152c573d6000803e3d6000fd5b505050506040513d601f19601f82011682018060405250810190611550919061297d565b61159257600c6040517fede8a5990000000000000000000000000000000000000000000000000000000081526004016115899190612f57565b60405180910390fd5b600060036000848152602001908152602001600020604051806040016040529081600082015481526020016001820154815250509050600860009054906101000a900473ffffffffffffffffffffffffffffffffffffffff1673ffffffffffffffffffffffffffffffffffffffff16630f2f4931858584856040518563ffffffff1660e01b815260040161162994939291906130f3565b60206040518083038186803b15801561164157600080fd5b505afa158015611655573d6000803e3d6000fd5b505050506040513d601f19601f8201168201806040525081019061167991906129cf565b91505092915050565b60036020528060005260406000206000915090508060000154908060010154905082565b6000600760009054906101000a900473ffffffffffffffffffffffffffffffffffffffff16905090565b60026000541415611716576040517f08c379a000000000000000000000000000000000000000000000000000000000815260040161170d90613054565b60405180910390fd5b600260008190555061172b3385858585611f94565b600160008190555050505050565b6002602052816000526040600020602052806000526040600020600091509150505481565b600073__$90f1fa1b3f91137ac60e95891d324fdd69$__63b142980a836040518263ffffffff1660e01b81526004016117979190613094565b60206040518083038186803b1580156117af57600080fd5b505af41580156117c3573d6000803e3d6000fd5b505050506040513d601f19601f820116820180604052508101906117e7919061297d565b61182957600c6040517fede8a5990000000000000000000000000000000000000000000000000000000081526004016118209190612f57565b60405180910390fd5b60036000838152602001908152602001600020600001549050919050565b600860009054906101000a900473ffffffffffffffffffffffffffffffffffffffff1681565b6000811480611906575060008373ffffffffffffffffffffffffffffffffffffffff1663dd62ed3e30856040518363ffffffff1660e01b81526004016118b4929190612d07565b60206040518083038186803b1580156118cc57600080fd5b505afa1580156118e0573d6000803e3d6000fd5b505050506040513d601f19601f8201168201806040525081019061190491906129cf565b145b611945576040517f08c379a000000000000000000000000000000000000000000000000000000000815260040161193c90613074565b60405180910390fd5b6119c68363095ea7b360e01b8484604051602401611964929190612ef8565b604051602081830303815290604052907bffffffffffffffffffffffffffffffffffffffffffffffffffffffff19166020820180517bffffffffffffffffffffffffffffffffffffffffffffffffffffffff8381831617835250505050612201565b505050565b60606119da84846000856122c8565b90509392505050565b611a66846323b872dd60e01b858585604051602401611a0493929190612e1b565b604051602081830303815290604052907bffffffffffffffffffffffffffffffffffffffffffffffffffffffff19166020820180517bffffffffffffffffffffffffffffffffffffffffffffffffffffffff8381831617835250505050612201565b50505050565b600760009054906101000a900473ffffffffffffffffffffffffffffffffffffffff1673ffffffffffffffffffffffffffffffffffffffff1663b962aaeb3084846040518463ffffffff1660e01b8152600401611acb93929190612e1b565b600060405180830381600087803b158015611ae557600080fd5b505af1158015611af9573d6000803e3d6000fd5b5050505060006002600083815260200190815260200160002060008473ffffffffffffffffffffffffffffffffffffffff1673ffffffffffffffffffffffffffffffffffffffff168152602001908152602001600020549050611ba1843083600560009054906101000a900473ffffffffffffffffffffffffffffffffffffffff1673ffffffffffffffffffffffffffffffffffffffff166119e3909392919063ffffffff16565b6002600083815260200190815260200160002060008473ffffffffffffffffffffffffffffffffffffffff1673ffffffffffffffffffffffffffffffffffffffff168152602001908152602001600020600090558273ffffffffffffffffffffffffffffffffffffffff168473ffffffffffffffffffffffffffffffffffffffff167fe62a777dbd48d3912f68a1b9445813ee02bc3ac18b97dc129ca462cc77bb641b8385604051611c549291906130ca565b60405180910390a350505050565b6000600760009054906101000a900473ffffffffffffffffffffffffffffffffffffffff1673ffffffffffffffffffffffffffffffffffffffff16632c7c0ae83085898989886040518763ffffffff1660e01b8152600401611cc996959493929190612dba565b60006040518083038186803b158015611ce157600080fd5b505afa158015611cf5573d6000803e3d6000fd5b50505050611d05868686856123dc565b6000600760009054906101000a900473ffffffffffffffffffffffffffffffffffffffff1673ffffffffffffffffffffffffffffffffffffffff16635efadbd13086886040518463ffffffff1660e01b8152600401611d6693929190612e1b565b60206040518083038186803b158015611d7e57600080fd5b505afa158015611d92573d6000803e3d6000fd5b505050506040513d601f19601f82011682018060405250810190611db691906129cf565b905060008473ffffffffffffffffffffffffffffffffffffffff166355a1ac2e88866040518363ffffffff1660e01b8152600401611df5929190612ef8565b604080518083038186803b158015611e0c57600080fd5b505afa158015611e20573d6000803e3d6000fd5b505050506040513d601f19601f82011682018060405250810190611e449190612a70565b50905081811015611e8d57600a6040517fede8a599000000000000000000000000000000000000000000000000000000008152600401611e849190612f57565b60405180910390fd5b3073ffffffffffffffffffffffffffffffffffffffff168573ffffffffffffffffffffffffffffffffffffffff161415611ed357611ece3089898588611f94565b611f45565b8473ffffffffffffffffffffffffffffffffffffffff1663d2c6d0dc898985886040518563ffffffff1660e01b8152600401611f129493929190612eb3565b600060405180830381600087803b158015611f2c57600080fd5b505af1158015611f40573d6000803e3d6000fd5b505050505b7f9e76a01ba2e51393f58ccc22c0afc9520815e0cc3f301f7b5d7442fcaee9fdc1888888888689604051611f7e96959493929190612e52565b60405180910390a1859250505095945050505050565b600760009054906101000a900473ffffffffffffffffffffffffffffffffffffffff1673ffffffffffffffffffffffffffffffffffffffff1663eafe967b308787876040518563ffffffff1660e01b8152600401611ff59493929190612d75565b60006040518083038186803b15801561200d57600080fd5b505afa158015612021573d6000803e3d6000fd5b505050506000612041666379da05b600008461260d90919063ffffffff16565b9050600081846120519190613282565b9050836001600085815260200190815260200160002060008773ffffffffffffffffffffffffffffffffffffffff1673ffffffffffffffffffffffffffffffffffffffff16815260200190815260200160002060008282546120b39190613282565b9250508190555060006003600085815260200190815260200160002060405180604001604052908160008201548152602001600182015481525050905084816020018181516121029190613282565b91508181525050806003600086815260200190815260200160002060008201518160000155602082015181600101559050506121818783600560009054906101000a900473ffffffffffffffffffffffffffffffffffffffff1673ffffffffffffffffffffffffffffffffffffffff166126369092919063ffffffff16565b7fe51b546a59a5440500bc9464ab1cb969d07a4508292c32e540ac0f37b644aca8878787876040516121b69493929190612eb3565b60405180910390a17f9ee5619a3cc818b40b8727fa0e1b2dbfef2c9c692817ec30f6edd0c9afeab2be30846040516121ef929190612ef8565b60405180910390a15050505050505050565b6000612263826040518060400160405280602081526020017f5361666545524332303a206c6f772d6c6576656c2063616c6c206661696c65648152508573ffffffffffffffffffffffffffffffffffffffff166119cb9092919063ffffffff16565b90506000815111156122c35780806020019051810190612283919061297d565b6122c2576040517f08c379a00000000000000000000000000000000000000000000000000000000081526004016122b990613034565b60405180910390fd5b5b505050565b60608247101561230d576040517f08c379a000000000000000000000000000000000000000000000000000000000815260040161230490612fb4565b60405180910390fd5b612316856126bc565b612355576040517f08c379a000000000000000000000000000000000000000000000000000000000815260040161234c90612ff4565b60405180910390fd5b6000808673ffffffffffffffffffffffffffffffffffffffff16858760405161237e9190612cd5565b60006040518083038185875af1925050503d80600081146123bb576040519150601f19603f3d011682016040523d82523d6000602084013e6123c0565b606091505b50915091506123d08282866126cf565b92505050949350505050565b6000821415612420576040517f08c379a000000000000000000000000000000000000000000000000000000000815260040161241790612fd4565b60405180910390fd5b60006002600083815260200190815260200160002060008573ffffffffffffffffffffffffffffffffffffffff1673ffffffffffffffffffffffffffffffffffffffff1681526020019081526020016000205490506124c4853085600560009054906101000a900473ffffffffffffffffffffffffffffffffffffffff1673ffffffffffffffffffffffffffffffffffffffff166119e3909392919063ffffffff16565b82816124d09190613282565b6002600084815260200190815260200160002060008673ffffffffffffffffffffffffffffffffffffffff1673ffffffffffffffffffffffffffffffffffffffff16815260200190815260200160002081905550600060036000848152602001908152602001600020604051806040016040529081600082015481526020016001820154815250509050838160000181815161256c9190613282565b91508181525050806003600085815260200190815260200160002060008201518160000155602082015181600101559050508473ffffffffffffffffffffffffffffffffffffffff168673ffffffffffffffffffffffffffffffffffffffff167fe62a777dbd48d3912f68a1b9445813ee02bc3ac18b97dc129ca462cc77bb641b86866040516125fd9291906130ca565b60405180910390a3505050505050565b6000670de0b6b3a764000082846126249190613228565b61262e91906131f7565b905092915050565b6126b78363a9059cbb60e01b8484604051602401612655929190612ef8565b604051602081830303815290604052907bffffffffffffffffffffffffffffffffffffffffffffffffffffffff19166020820180517bffffffffffffffffffffffffffffffffffffffffffffffffffffffff8381831617835250505050612201565b505050565b600080823b905060008111915050919050565b606083156126df5782905061272f565b6000835111156126f25782518084602001fd5b816040517f08c379a00000000000000000000000000000000000000000000000000000000081526004016127269190612f72565b60405180910390fd5b9392505050565b600081359050612745816136c5565b92915050565b60008135905061275a816136dc565b92915050565b60008151905061276f816136f3565b92915050565b6000813590506127848161370a565b92915050565b60008135905061279981613721565b92915050565b6000815190506127ae81613721565b92915050565b6000602082840312156127c657600080fd5b60006127d484828501612736565b91505092915050565b6000806000606084860312156127f257600080fd5b60006128008682870161274b565b93505060206128118682870161278a565b92505060406128228682870161278a565b9150509250925092565b6000806000806080858703121561284257600080fd5b600061285087828801612736565b945050602061286187828801612736565b93505060406128728782880161278a565b92505060606128838782880161278a565b91505092959194509250565b600080604083850312156128a257600080fd5b60006128b085828601612736565b92505060206128c18582860161278a565b9150509250929050565b600080600080608085870312156128e157600080fd5b60006128ef87828801612736565b94505060206129008782880161278a565b935050604061291187828801612775565b92505060606129228782880161278a565b91505092959194509250565b60008060006060848603121561294357600080fd5b600061295186828701612736565b93505060206129628682870161278a565b92505060406129738682870161278a565b9150509250925092565b60006020828403121561298f57600080fd5b600061299d84828501612760565b91505092915050565b6000602082840312156129b857600080fd5b60006129c68482850161278a565b91505092915050565b6000602082840312156129e157600080fd5b60006129ef8482850161279f565b91505092915050565b60008060408385031215612a0b57600080fd5b6000612a198582860161278a565b9250506020612a2a85828601612736565b9150509250929050565b60008060408385031215612a4757600080fd5b6000612a558582860161278a565b9250506020612a668582860161278a565b9150509250929050565b60008060408385031215612a8357600080fd5b6000612a918582860161279f565b9250506020612aa28582860161279f565b9150509250929050565b612ab581613335565b82525050565b612ac4816132b6565b82525050565b6000612ad58261316f565b612adf8185613185565b9350612aef8185602086016133c5565b80840191505092915050565b612b0481613347565b82525050565b612b138161336b565b82525050565b612b228161338f565b82525050565b6000612b338261317a565b612b3d8185613190565b9350612b4d8185602086016133c5565b612b56816134e6565b840191505092915050565b6000612b6e601483613190565b9150612b79826134f7565b602082019050919050565b6000612b91602683613190565b9150612b9c82613520565b604082019050919050565b6000612bb4601483613190565b9150612bbf8261356f565b602082019050919050565b6000612bd7601d83613190565b9150612be282613598565b602082019050919050565b6000612bfa601483613190565b9150612c05826135c1565b602082019050919050565b6000612c1d602a83613190565b9150612c28826135ea565b604082019050919050565b6000612c40601f83613190565b9150612c4b82613639565b602082019050919050565b6000612c63603683613190565b9150612c6e82613662565b604082019050919050565b604082016000820151612c8f6000850182612ca8565b506020820151612ca26020850182612ca8565b50505050565b612cb18161332b565b82525050565b612cc08161332b565b82525050565b612ccf8161332b565b82525050565b6000612ce18284612aca565b915081905092915050565b6000602082019050612d016000830184612abb565b92915050565b6000604082019050612d1c6000830185612abb565b612d296020830184612abb565b9392505050565b6000608082019050612d456000830187612abb565b612d526020830186612aac565b612d5f6040830185612cb7565b612d6c6060830184612cb7565b95945050505050565b6000608082019050612d8a6000830187612abb565b612d976020830186612abb565b612da46040830185612abb565b612db16060830184612abb565b95945050505050565b600060c082019050612dcf6000830189612abb565b612ddc6020830188612abb565b612de96040830187612abb565b612df66060830186612abb565b612e036080830185612cb7565b612e1060a0830184612cb7565b979650505050505050565b6000606082019050612e306000830186612abb565b612e3d6020830185612abb565b612e4a6040830184612cb7565b949350505050565b600060c082019050612e676000830189612abb565b612e746020830188612abb565b612e816040830187612cb7565b612e8e6060830186612abb565b612e9b6080830185612cb7565b612ea860a0830184612cb7565b979650505050505050565b6000608082019050612ec86000830187612abb565b612ed56020830186612abb565b612ee26040830185612cb7565b612eef6060830184612cb7565b95945050505050565b6000604082019050612f0d6000830185612abb565b612f1a6020830184612cb7565b9392505050565b6000602082019050612f366000830184612afb565b92915050565b6000602082019050612f516000830184612b0a565b92915050565b6000602082019050612f6c6000830184612b19565b92915050565b60006020820190508181036000830152612f8c8184612b28565b905092915050565b60006020820190508181036000830152612fad81612b61565b9050919050565b60006020820190508181036000830152612fcd81612b84565b9050919050565b60006020820190508181036000830152612fed81612ba7565b9050919050565b6000602082019050818103600083015261300d81612bca565b9050919050565b6000602082019050818103600083015261302d81612bed565b9050919050565b6000602082019050818103600083015261304d81612c10565b9050919050565b6000602082019050818103600083015261306d81612c33565b9050919050565b6000602082019050818103600083015261308d81612c56565b9050919050565b60006020820190506130a96000830184612cc6565b92915050565b60006020820190506130c46000830184612cb7565b92915050565b60006040820190506130df6000830185612cb7565b6130ec6020830184612cb7565b9392505050565b600060c0820190506131086000830187612cb7565b6131156020830186612cb7565b6131226040830185612c79565b61312f6080830184612c79565b95945050505050565b600060608201905061314d6000830186612cb7565b61315a6020830185612cb7565b6131676040830184612cb7565b949350505050565b600081519050919050565b600081519050919050565b600081905092915050565b600082825260208201905092915050565b60006131ac8261332b565b91506131b78361332b565b9250827fffffffffffffffffffffffffffffffffffffffffffffffffffffffffffffffff038211156131ec576131eb61342a565b5b828201905092915050565b60006132028261332b565b915061320d8361332b565b92508261321d5761321c613459565b5b828204905092915050565b60006132338261332b565b915061323e8361332b565b9250817fffffffffffffffffffffffffffffffffffffffffffffffffffffffffffffffff04831182151516156132775761327661342a565b5b828202905092915050565b600061328d8261332b565b91506132988361332b565b9250828210156132ab576132aa61342a565b5b828203905092915050565b60006132c18261330b565b9050919050565b60006132d38261330b565b9050919050565b60008115159050919050565b60006132f1826132b6565b9050919050565b6000819050613306826136b1565b919050565b600073ffffffffffffffffffffffffffffffffffffffff82169050919050565b6000819050919050565b6000613340826133a1565b9050919050565b600061335282613359565b9050919050565b60006133648261330b565b9050919050565b60006133768261337d565b9050919050565b60006133888261330b565b9050919050565b600061339a826132f8565b9050919050565b60006133ac826133b3565b9050919050565b60006133be8261330b565b9050919050565b60005b838110156133e35780820151818401526020810190506133c8565b838111156133f2576000848401525b50505050565b6000600282049050600182168061341057607f821691505b60208210811415613424576134236134b7565b5b50919050565b7f4e487b7100000000000000000000000000000000000000000000000000000000600052601160045260246000fd5b7f4e487b7100000000000000000000000000000000000000000000000000000000600052601260045260246000fd5b7f4e487b7100000000000000000000000000000000000000000000000000000000600052602160045260246000fd5b7f4e487b7100000000000000000000000000000000000000000000000000000000600052602260045260246000fd5b6000601f19601f8301169050919050565b7f52656465656d2063616e2774206265207a65726f000000000000000000000000600082015250565b7f416464726573733a20696e73756666696369656e742062616c616e636520666f60008201527f722063616c6c0000000000000000000000000000000000000000000000000000602082015250565b7f596f752063616e2774207265706179207a65726f000000000000000000000000600082015250565b7f416464726573733a2063616c6c20746f206e6f6e2d636f6e7472616374000000600082015250565b7f4e6f7420656e6f756768206c6971756964697479000000000000000000000000600082015250565b7f5361666545524332303a204552433230206f7065726174696f6e20646964206e60008201527f6f74207375636365656400000000000000000000000000000000000000000000602082015250565b7f5265656e7472616e637947756172643a207265656e7472616e742063616c6c00600082015250565b7f5361666545524332303a20617070726f76652066726f6d206e6f6e2d7a65726f60008201527f20746f206e6f6e2d7a65726f20616c6c6f77616e636500000000000000000000602082015250565b601381106136c2576136c1613488565b5b50565b6136ce816132b6565b81146136d957600080fd5b50565b6136e5816132c8565b81146136f057600080fd5b50565b6136fc816132da565b811461370757600080fd5b50565b613713816132e6565b811461371e57600080fd5b50565b61372a8161332b565b811461373557600080fd5b5056fea2646970667358221220eabc811d00a3316b9f0fed43636afa2bc7a861645cab3122bbd755dfad3a6f4a64736f6c63430008040033",
  "libraries": {
    "TSUtils": "0x76b39236427532F4BF047Ad28dEbCC1EAb47c9E1"
  },
  "devdoc": {
    "kind": "dev",
    "methods": {
      "borrow(uint256,uint256)": {
        "details": "Lends to a wallet for a certain maturity date/pool",
        "params": {
          "amount": "amount to send to the specified wallet",
          "maturityDate": "maturity date for repayment"
        }
      },
      "getAccountSnapshot(address,uint256)": {
        "details": "Gets current snapshot for a wallet in a certain maturity",
        "params": {
          "maturityDate": "maturity date",
          "who": "wallet to return status snapshot in the specified maturity date"
        }
      },
      "getAuditor()": {
        "details": "Gets the auditor contract interface being used to validate positions"
      },
      "getRateToBorrow(uint256,uint256)": {
        "details": "Get current rate to borrow a certain amount in a certain maturity in the current state of the pool and the pot",
        "params": {
          "amount": "amount to borrow from a certain maturity date",
          "maturityDate": "maturity date for calculating rates"
        }
      },
      "getRateToSupply(uint256,uint256)": {
        "details": "Get current rate for supplying a certain amount in a certain maturity in the current state of the pool and the pot",
        "params": {
          "amount": "amount to supply to a certain maturity date",
          "maturityDate": "maturity date for calculating rates"
        }
      },
      "getTotalBorrows(uint256)": {
        "details": "Gets the total amount of borrowed money for a maturityDate",
        "params": {
          "maturityDate": "maturity date"
        }
      },
      "liquidate(address,uint256,address,uint256)": {
        "details": "Msg.sender liquidates a borrower's position and repays a certain amount of collateral for a maturity date, seizing a part of borrower's collateral",
        "params": {
          "borrower": "wallet that has an outstanding debt for a certain maturity date",
          "exafinCollateral": "address of exafin from which the collateral will be seized to give the liquidator",
          "maturityDate": "maturity date for which the position will be liquidated",
          "repayAmount": "amount to be repaid by liquidator(msg.sender)"
        }
      },
      "redeem(address,uint256,uint256)": {
        "details": "The pool that the user is trying to retrieve the money should be matured",
        "params": {
          "maturityDate": "the matured date for which we're trying to retrieve the funds",
          "redeemAmount": "The number of underlying tokens to receive from redeeming this Exafin",
          "redeemer": "The address of the account which is redeeming the tokens"
        }
      },
      "repay(address,uint256)": {
        "details": "The pool that the user is trying to repay to should be matured",
        "params": {
          "borrower": "The address of the account that has the debt",
          "maturityDate": "The matured date where the debt is located"
        }
      },
      "seize(address,address,uint256,uint256)": {
        "details": "Public function for liquidator to seize borrowers tokens in a certain maturity date.  This function will only be called from another Exafins, on `liquidation` calls.  That's why msg.sender needs to be passed to the private function (to be validated as a market)",
        "params": {
          "borrower": "address from which the tokens will be seized",
          "liquidator": "address which will receive the seized tokens",
          "maturityDate": "maturity date from where the tokens will be removed. Used to remove liquidity.",
          "seizeAmount": "amount to be removed from borrower's posession"
        }
      },
      "supply(address,uint256,uint256)": {
        "details": "Supplies a certain amount to the protocol for  a certain maturity date/pool",
        "params": {
          "amount": "amount to receive from the specified wallet",
          "from": "wallet to receive amount from",
          "maturityDate": "maturity date / pool ID"
        }
      }
    },
    "version": 1
  },
  "userdoc": {
    "kind": "user",
    "methods": {
      "liquidate(address,uint256,address,uint256)": {
        "notice": "Function to liquidate an uncollaterized position"
      },
      "redeem(address,uint256,uint256)": {
        "notice": "User collects a certain amount of underlying asset after having supplied tokens until a certain maturity date"
      },
      "repay(address,uint256)": {
        "notice": "Sender repays borrower's debt for a maturity date"
      },
      "seize(address,address,uint256,uint256)": {
        "notice": "Public function to seize a certain amount of tokens"
      }
    },
    "version": 1
  },
  "storageLayout": {
    "storage": [
      {
        "astId": 378,
        "contract": "contracts/Exafin.sol:Exafin",
        "label": "_status",
        "offset": 0,
        "slot": "0",
        "type": "t_uint256"
      },
      {
        "astId": 4069,
        "contract": "contracts/Exafin.sol:Exafin",
        "label": "suppliedAmounts",
        "offset": 0,
        "slot": "1",
        "type": "t_mapping(t_uint256,t_mapping(t_address,t_uint256))"
      },
      {
        "astId": 4075,
        "contract": "contracts/Exafin.sol:Exafin",
        "label": "borrowedAmounts",
        "offset": 0,
        "slot": "2",
        "type": "t_mapping(t_uint256,t_mapping(t_address,t_uint256))"
      },
      {
        "astId": 4080,
        "contract": "contracts/Exafin.sol:Exafin",
        "label": "pools",
        "offset": 0,
        "slot": "3",
        "type": "t_mapping(t_uint256,t_struct(Pool)5834_storage)"
      },
      {
        "astId": 4085,
        "contract": "contracts/Exafin.sol:Exafin",
        "label": "addressPools",
        "offset": 0,
        "slot": "4",
        "type": "t_mapping(t_address,t_array(t_uint256)dyn_storage)"
      },
      {
        "astId": 4094,
        "contract": "contracts/Exafin.sol:Exafin",
        "label": "trustedUnderlying",
        "offset": 0,
        "slot": "5",
        "type": "t_contract(IERC20)992"
      },
      {
        "astId": 4097,
        "contract": "contracts/Exafin.sol:Exafin",
        "label": "tokenName",
        "offset": 0,
        "slot": "6",
        "type": "t_string_storage"
      },
      {
        "astId": 4100,
        "contract": "contracts/Exafin.sol:Exafin",
        "label": "auditor",
        "offset": 0,
        "slot": "7",
        "type": "t_contract(IAuditor)5494"
      },
      {
        "astId": 4103,
        "contract": "contracts/Exafin.sol:Exafin",
        "label": "interestRateModel",
        "offset": 0,
        "slot": "8",
        "type": "t_contract(IInterestRateModel)5658"
      },
      {
        "astId": 4105,
        "contract": "contracts/Exafin.sol:Exafin",
        "label": "totalSupply",
        "offset": 0,
        "slot": "9",
        "type": "t_uint256"
      },
      {
        "astId": 4109,
        "contract": "contracts/Exafin.sol:Exafin",
        "label": "balances",
        "offset": 0,
        "slot": "10",
        "type": "t_mapping(t_address,t_uint256)"
      }
    ],
    "types": {
      "t_address": {
        "encoding": "inplace",
        "label": "address",
        "numberOfBytes": "20"
      },
      "t_array(t_uint256)dyn_storage": {
        "base": "t_uint256",
        "encoding": "dynamic_array",
        "label": "uint256[]",
        "numberOfBytes": "32"
      },
      "t_contract(IAuditor)5494": {
        "encoding": "inplace",
        "label": "contract IAuditor",
        "numberOfBytes": "20"
      },
      "t_contract(IERC20)992": {
        "encoding": "inplace",
        "label": "contract IERC20",
        "numberOfBytes": "20"
      },
      "t_contract(IInterestRateModel)5658": {
        "encoding": "inplace",
        "label": "contract IInterestRateModel",
        "numberOfBytes": "20"
      },
      "t_mapping(t_address,t_array(t_uint256)dyn_storage)": {
        "encoding": "mapping",
        "key": "t_address",
        "label": "mapping(address => uint256[])",
        "numberOfBytes": "32",
        "value": "t_array(t_uint256)dyn_storage"
      },
      "t_mapping(t_address,t_uint256)": {
        "encoding": "mapping",
        "key": "t_address",
        "label": "mapping(address => uint256)",
        "numberOfBytes": "32",
        "value": "t_uint256"
      },
      "t_mapping(t_uint256,t_mapping(t_address,t_uint256))": {
        "encoding": "mapping",
        "key": "t_uint256",
        "label": "mapping(uint256 => mapping(address => uint256))",
        "numberOfBytes": "32",
        "value": "t_mapping(t_address,t_uint256)"
      },
      "t_mapping(t_uint256,t_struct(Pool)5834_storage)": {
        "encoding": "mapping",
        "key": "t_uint256",
        "label": "mapping(uint256 => struct PoolLib.Pool)",
        "numberOfBytes": "32",
        "value": "t_struct(Pool)5834_storage"
      },
      "t_string_storage": {
        "encoding": "bytes",
        "label": "string",
        "numberOfBytes": "32"
      },
      "t_struct(Pool)5834_storage": {
        "encoding": "inplace",
        "label": "struct PoolLib.Pool",
        "members": [
          {
            "astId": 5831,
            "contract": "contracts/Exafin.sol:Exafin",
            "label": "borrowed",
            "offset": 0,
            "slot": "0",
            "type": "t_uint256"
          },
          {
            "astId": 5833,
            "contract": "contracts/Exafin.sol:Exafin",
            "label": "supplied",
            "offset": 0,
            "slot": "1",
            "type": "t_uint256"
          }
        ],
        "numberOfBytes": "64"
      },
      "t_uint256": {
        "encoding": "inplace",
        "label": "uint256",
        "numberOfBytes": "32"
      }
    }
  }
}