{
  "address": "0x20815c9C6d42f249160DFc8367DBB71D0a708F31",
  "abi": [
    {
      "inputs": [
        {
          "internalType": "address",
          "name": "_tokenAddress",
          "type": "address"
        },
        {
          "internalType": "string",
          "name": "_tokenName",
          "type": "string"
        },
        {
          "internalType": "address",
          "name": "_auditorAddress",
          "type": "address"
        }
      ],
      "stateMutability": "nonpayable",
      "type": "constructor"
    },
    {
      "anonymous": false,
      "inputs": [
        {
          "indexed": true,
          "internalType": "address",
          "name": "to",
          "type": "address"
        },
        {
          "indexed": false,
          "internalType": "uint256",
          "name": "amount",
          "type": "uint256"
        },
        {
          "indexed": false,
          "internalType": "uint256",
          "name": "commission",
          "type": "uint256"
        },
        {
          "indexed": false,
          "internalType": "uint256",
          "name": "maturityDate",
          "type": "uint256"
        }
      ],
      "name": "Borrowed",
      "type": "event"
    },
    {
      "anonymous": false,
      "inputs": [
        {
          "indexed": true,
          "internalType": "address",
          "name": "previousOwner",
          "type": "address"
        },
        {
          "indexed": true,
          "internalType": "address",
          "name": "newOwner",
          "type": "address"
        }
      ],
      "name": "OwnershipTransferred",
      "type": "event"
    },
    {
      "anonymous": false,
      "inputs": [
        {
          "indexed": true,
          "internalType": "address",
          "name": "from",
          "type": "address"
        },
        {
          "indexed": false,
          "internalType": "uint256",
          "name": "amount",
          "type": "uint256"
        },
        {
          "indexed": false,
          "internalType": "uint256",
          "name": "maturityDate",
          "type": "uint256"
        }
      ],
      "name": "Redeemed",
      "type": "event"
    },
    {
      "anonymous": false,
      "inputs": [
        {
          "indexed": true,
          "internalType": "address",
          "name": "payer",
          "type": "address"
        },
        {
          "indexed": true,
          "internalType": "address",
          "name": "borrower",
          "type": "address"
        },
        {
          "indexed": false,
          "internalType": "uint256",
          "name": "amount",
          "type": "uint256"
        },
        {
          "indexed": false,
          "internalType": "uint256",
          "name": "maturityDate",
          "type": "uint256"
        }
      ],
      "name": "Repaid",
      "type": "event"
    },
    {
      "anonymous": false,
      "inputs": [
        {
          "indexed": true,
          "internalType": "address",
          "name": "from",
          "type": "address"
        },
        {
          "indexed": false,
          "internalType": "uint256",
          "name": "amount",
          "type": "uint256"
        },
        {
          "indexed": false,
          "internalType": "uint256",
          "name": "commission",
          "type": "uint256"
        },
        {
          "indexed": false,
          "internalType": "uint256",
          "name": "maturityDate",
          "type": "uint256"
        }
      ],
      "name": "Supplied",
      "type": "event"
    },
    {
      "inputs": [
        {
          "internalType": "address",
          "name": "",
          "type": "address"
        },
        {
          "internalType": "uint256",
          "name": "",
          "type": "uint256"
        }
      ],
      "name": "addressPools",
      "outputs": [
        {
          "internalType": "uint256",
          "name": "",
          "type": "uint256"
        }
      ],
      "stateMutability": "view",
      "type": "function"
    },
    {
      "inputs": [
        {
          "internalType": "address",
          "name": "to",
          "type": "address"
        },
        {
          "internalType": "uint256",
          "name": "amount",
          "type": "uint256"
        },
        {
          "internalType": "uint256",
          "name": "maturityDate",
          "type": "uint256"
        }
      ],
      "name": "borrow",
      "outputs": [],
      "stateMutability": "nonpayable",
      "type": "function"
    },
    {
      "inputs": [
        {
          "internalType": "uint256",
          "name": "",
          "type": "uint256"
        },
        {
          "internalType": "address",
          "name": "",
          "type": "address"
        }
      ],
      "name": "borrowedAmounts",
      "outputs": [
        {
          "internalType": "uint256",
          "name": "",
          "type": "uint256"
        }
      ],
      "stateMutability": "view",
      "type": "function"
    },
    {
      "inputs": [
        {
          "internalType": "address",
          "name": "who",
          "type": "address"
        },
        {
          "internalType": "uint256",
          "name": "maturityDate",
          "type": "uint256"
        }
      ],
      "name": "getAccountSnapshot",
      "outputs": [
        {
          "internalType": "uint256",
          "name": "",
          "type": "uint256"
        },
        {
          "internalType": "uint256",
          "name": "",
          "type": "uint256"
        }
      ],
      "stateMutability": "view",
      "type": "function"
    },
    {
      "inputs": [],
      "name": "getAuditor",
      "outputs": [
        {
          "internalType": "contract IAuditor",
          "name": "",
          "type": "address"
        }
      ],
      "stateMutability": "view",
      "type": "function"
    },
    {
      "inputs": [
        {
          "internalType": "uint256",
          "name": "maturityDate",
          "type": "uint256"
        }
      ],
      "name": "getTotalBorrows",
      "outputs": [
        {
          "internalType": "uint256",
          "name": "",
          "type": "uint256"
        }
      ],
      "stateMutability": "view",
      "type": "function"
    },
    {
      "inputs": [],
      "name": "owner",
      "outputs": [
        {
          "internalType": "address",
          "name": "",
          "type": "address"
        }
      ],
      "stateMutability": "view",
      "type": "function"
    },
    {
      "inputs": [
        {
          "internalType": "uint256",
          "name": "",
          "type": "uint256"
        }
      ],
      "name": "pools",
      "outputs": [
        {
          "internalType": "uint256",
          "name": "borrowed",
          "type": "uint256"
        },
        {
          "internalType": "uint256",
          "name": "supplied",
          "type": "uint256"
        }
      ],
      "stateMutability": "view",
      "type": "function"
    },
    {
      "inputs": [
        {
          "internalType": "uint256",
          "name": "amount",
          "type": "uint256"
        },
        {
          "internalType": "uint256",
          "name": "maturityDate",
          "type": "uint256"
        }
      ],
      "name": "rateForSupply",
      "outputs": [
        {
          "internalType": "uint256",
          "name": "",
          "type": "uint256"
        },
        {
          "components": [
            {
              "internalType": "uint256",
              "name": "borrowed",
              "type": "uint256"
            },
            {
              "internalType": "uint256",
              "name": "supplied",
              "type": "uint256"
            }
          ],
          "internalType": "struct Pool",
          "name": "",
          "type": "tuple"
        }
      ],
      "stateMutability": "view",
      "type": "function"
    },
    {
      "inputs": [
        {
          "internalType": "uint256",
          "name": "amount",
          "type": "uint256"
        },
        {
          "internalType": "uint256",
          "name": "maturityDate",
          "type": "uint256"
        }
      ],
      "name": "rateToBorrow",
      "outputs": [
        {
          "internalType": "uint256",
          "name": "",
          "type": "uint256"
        },
        {
          "components": [
            {
              "internalType": "uint256",
              "name": "borrowed",
              "type": "uint256"
            },
            {
              "internalType": "uint256",
              "name": "supplied",
              "type": "uint256"
            }
          ],
          "internalType": "struct Pool",
          "name": "",
          "type": "tuple"
        }
      ],
      "stateMutability": "view",
      "type": "function"
    },
    {
      "inputs": [
        {
          "internalType": "address payable",
          "name": "redeemer",
          "type": "address"
        },
        {
          "internalType": "uint256",
          "name": "redeemAmount",
          "type": "uint256"
        },
        {
          "internalType": "uint256",
          "name": "maturityDate",
          "type": "uint256"
        }
      ],
      "name": "redeem",
      "outputs": [],
      "stateMutability": "nonpayable",
      "type": "function"
    },
    {
      "inputs": [],
      "name": "renounceOwnership",
      "outputs": [],
      "stateMutability": "nonpayable",
      "type": "function"
    },
    {
      "inputs": [
        {
          "internalType": "address",
          "name": "borrower",
          "type": "address"
        },
        {
          "internalType": "uint256",
          "name": "repayAmount",
          "type": "uint256"
        },
        {
          "internalType": "uint256",
          "name": "maturityDate",
          "type": "uint256"
        }
      ],
      "name": "repay",
      "outputs": [],
      "stateMutability": "nonpayable",
      "type": "function"
    },
    {
      "inputs": [
        {
          "internalType": "uint256",
          "name": "",
          "type": "uint256"
        },
        {
          "internalType": "address",
          "name": "",
          "type": "address"
        }
      ],
      "name": "suppliedAmounts",
      "outputs": [
        {
          "internalType": "uint256",
          "name": "",
          "type": "uint256"
        }
      ],
      "stateMutability": "view",
      "type": "function"
    },
    {
      "inputs": [
        {
          "internalType": "address",
          "name": "from",
          "type": "address"
        },
        {
          "internalType": "uint256",
          "name": "amount",
          "type": "uint256"
        },
        {
          "internalType": "uint256",
          "name": "maturityDate",
          "type": "uint256"
        }
      ],
      "name": "supply",
      "outputs": [],
      "stateMutability": "nonpayable",
      "type": "function"
    },
    {
      "inputs": [],
      "name": "tokenName",
      "outputs": [
        {
          "internalType": "string",
          "name": "",
          "type": "string"
        }
      ],
      "stateMutability": "view",
      "type": "function"
    },
    {
      "inputs": [
        {
          "internalType": "address",
          "name": "newOwner",
          "type": "address"
        }
      ],
      "name": "transferOwnership",
      "outputs": [],
      "stateMutability": "nonpayable",
      "type": "function"
    }
  ],
  "transactionHash": "0xdba6b521b88319540b52604876a248febad82aaca8ab0381b4c9f7cde5f8a48d",
  "args": [
    "0xdAC17F958D2ee523a2206206994597C13D831ec7",
    "USDT",
    "0x76b39236427532F4BF047Ad28dEbCC1EAb47c9E1"
  ],
  "solcInputHash": "2b6b100c3d5b84c1bfcfb567d303beb1",
  "bytecode": "0x60806040523480156200001157600080fd5b5060405162003a0238038062003a028339818101604052810190620000379190620007ab565b6000620000496200022960201b60201c565b9050806000806101000a81548173ffffffffffffffffffffffffffffffffffffffff021916908373ffffffffffffffffffffffffffffffffffffffff1602179055508073ffffffffffffffffffffffffffffffffffffffff16600073ffffffffffffffffffffffffffffffffffffffff167f8be0079c531659141344cd1fd0a4f28419497f9722a3daafe3b4186f6b6457e060405160405180910390a35082600860006101000a81548173ffffffffffffffffffffffffffffffffffffffff021916908373ffffffffffffffffffffffffffffffffffffffff1602179055506200019c307fffffffffffffffffffffffffffffffffffffffffffffffffffffffffffffffff600860009054906101000a900473ffffffffffffffffffffffffffffffffffffffff1673ffffffffffffffffffffffffffffffffffffffff166200023160201b6200150d179092919060201c565b8160099080519060200190620001b492919062000644565b5080600a60006101000a81548173ffffffffffffffffffffffffffffffffffffffff021916908373ffffffffffffffffffffffffffffffffffffffff16021790555066470de4df820000600581905550662386f26fc1000060068190555066f8b0a10e47000060078190555050505062000db1565b600033905090565b6000811480620002d1575060008373ffffffffffffffffffffffffffffffffffffffff1663dd62ed3e30856040518363ffffffff1660e01b81526004016200027b92919062000a9f565b60206040518083038186803b1580156200029457600080fd5b505afa158015620002a9573d6000803e3d6000fd5b505050506040513d601f19601f82011682018060405250810190620002cf919062000846565b145b62000313576040517f08c379a00000000000000000000000000000000000000000000000000000000081526004016200030a9062000b83565b60405180910390fd5b6200039e8363095ea7b360e01b84846040516024016200033592919062000acc565b604051602081830303815290604052907bffffffffffffffffffffffffffffffffffffffffffffffffffffffff19166020820180517bffffffffffffffffffffffffffffffffffffffffffffffffffffffff8381831617835250505050620003a360201b60201c565b505050565b60006200040c826040518060400160405280602081526020017f5361666545524332303a206c6f772d6c6576656c2063616c6c206661696c65648152508573ffffffffffffffffffffffffffffffffffffffff166200047760201b6200166b179092919060201c565b90506000815111156200047257808060200190518101906200042f91906200081a565b62000471576040517f08c379a0000000000000000000000000000000000000000000000000000000008152600401620004689062000b61565b60405180910390fd5b5b505050565b60606200048e84846000856200049760201b60201c565b90509392505050565b606082471015620004df576040517f08c379a0000000000000000000000000000000000000000000000000000000008152600401620004d69062000b1d565b60405180910390fd5b620004f085620005c560201b60201c565b62000532576040517f08c379a0000000000000000000000000000000000000000000000000000000008152600401620005299062000b3f565b60405180910390fd5b6000808673ffffffffffffffffffffffffffffffffffffffff1685876040516200055d919062000a86565b60006040518083038185875af1925050503d80600081146200059c576040519150601f19603f3d011682016040523d82523d6000602084013e620005a1565b606091505b5091509150620005b9828286620005d860201b60201c565b92505050949350505050565b600080823b905060008111915050919050565b60608315620005ea578290506200063d565b600083511115620005fe5782518084602001fd5b816040517f08c379a000000000000000000000000000000000000000000000000000000000815260040162000634919062000af9565b60405180910390fd5b9392505050565b828054620006529062000cbe565b90600052602060002090601f016020900481019282620006765760008555620006c2565b82601f106200069157805160ff1916838001178555620006c2565b82800160010185558215620006c2579182015b82811115620006c1578251825591602001919060010190620006a4565b5b509050620006d19190620006d5565b5090565b5b80821115620006f0576000816000905550600101620006d6565b5090565b60006200070b620007058462000bd9565b62000ba5565b9050828152602081018484840111156200072457600080fd5b6200073184828562000c88565b509392505050565b6000815190506200074a8162000d63565b92915050565b600081519050620007618162000d7d565b92915050565b600082601f8301126200077957600080fd5b81516200078b848260208601620006f4565b91505092915050565b600081519050620007a58162000d97565b92915050565b600080600060608486031215620007c157600080fd5b6000620007d18682870162000739565b935050602084015167ffffffffffffffff811115620007ef57600080fd5b620007fd8682870162000767565b9250506040620008108682870162000739565b9150509250925092565b6000602082840312156200082d57600080fd5b60006200083d8482850162000750565b91505092915050565b6000602082840312156200085957600080fd5b6000620008698482850162000794565b91505092915050565b6200087d8162000c3e565b82525050565b6000620008908262000c0c565b6200089c818562000c22565b9350620008ae81856020860162000c88565b80840191505092915050565b6000620008c78262000c17565b620008d3818562000c2d565b9350620008e581856020860162000c88565b620008f08162000d52565b840191505092915050565b60006200090a60268362000c2d565b91507f416464726573733a20696e73756666696369656e742062616c616e636520666f60008301527f722063616c6c00000000000000000000000000000000000000000000000000006020830152604082019050919050565b600062000972601d8362000c2d565b91507f416464726573733a2063616c6c20746f206e6f6e2d636f6e74726163740000006000830152602082019050919050565b6000620009b4602a8362000c2d565b91507f5361666545524332303a204552433230206f7065726174696f6e20646964206e60008301527f6f742073756363656564000000000000000000000000000000000000000000006020830152604082019050919050565b600062000a1c60368362000c2d565b91507f5361666545524332303a20617070726f76652066726f6d206e6f6e2d7a65726f60008301527f20746f206e6f6e2d7a65726f20616c6c6f77616e6365000000000000000000006020830152604082019050919050565b62000a808162000c7e565b82525050565b600062000a94828462000883565b915081905092915050565b600060408201905062000ab6600083018562000872565b62000ac5602083018462000872565b9392505050565b600060408201905062000ae3600083018562000872565b62000af2602083018462000a75565b9392505050565b6000602082019050818103600083015262000b158184620008ba565b905092915050565b6000602082019050818103600083015262000b3881620008fb565b9050919050565b6000602082019050818103600083015262000b5a8162000963565b9050919050565b6000602082019050818103600083015262000b7c81620009a5565b9050919050565b6000602082019050818103600083015262000b9e8162000a0d565b9050919050565b6000604051905081810181811067ffffffffffffffff8211171562000bcf5762000bce62000d23565b5b8060405250919050565b600067ffffffffffffffff82111562000bf75762000bf662000d23565b5b601f19601f8301169050602081019050919050565b600081519050919050565b600081519050919050565b600081905092915050565b600082825260208201905092915050565b600062000c4b8262000c5e565b9050919050565b60008115159050919050565b600073ffffffffffffffffffffffffffffffffffffffff82169050919050565b6000819050919050565b60005b8381101562000ca857808201518184015260208101905062000c8b565b8381111562000cb8576000848401525b50505050565b6000600282049050600182168062000cd757607f821691505b6020821081141562000cee5762000ced62000cf4565b5b50919050565b7f4e487b7100000000000000000000000000000000000000000000000000000000600052602260045260246000fd5b7f4e487b7100000000000000000000000000000000000000000000000000000000600052604160045260246000fd5b6000601f19601f8301169050919050565b62000d6e8162000c3e565b811462000d7a57600080fd5b50565b62000d888162000c52565b811462000d9457600080fd5b50565b62000da28162000c7e565b811462000dae57600080fd5b50565b612c418062000dc16000396000f3fe608060405234801561001057600080fd5b506004361061010b5760003560e01c80638da5cb5b116100a2578063b72ddee911610071578063b72ddee9146102ce578063c1bce0b7146102ec578063d2cdcad314610308578063ea1cd41f14610338578063f2fde38b146103685761010b565b80638da5cb5b1461021d578063a2bcf0211461023b578063a82eff211461026c578063ac4afa381461029d5761010b565b80636c02a931116100de5780636c02a931146101bd578063715018a6146101db5780637dbca353146101e55780638cd2e0c7146102015761010b565b80630526b7d5146101105780632b83cccd146101405780633c5b1c591461015c57806355a1ac2e1461018c575b600080fd5b61012a60048036038101906101259190611ec6565b610384565b60405161013791906127dc565b60405180910390f35b61015a60048036038101906101559190611d71565b6103a9565b005b61017660048036038101906101719190611dc0565b610715565b60405161018391906127dc565b60405180910390f35b6101a660048036038101906101a19190611dc0565b610746565b6040516101b4929190612820565b60405180910390f35b6101c5610845565b6040516101d291906125da565b60405180910390f35b6101e36108d3565b005b6101ff60048036038101906101fa9190611dfc565b610a0d565b005b61021b60048036038101906102169190611dfc565b610cba565b005b610225610ccb565b6040516102329190612491565b60405180910390f35b61025560048036038101906102509190611f02565b610cf4565b6040516102639291906127f7565b60405180910390f35b61028660048036038101906102819190611f02565b610e6b565b6040516102949291906127f7565b60405180910390f35b6102b760048036038101906102b29190611e74565b610fd5565b6040516102c5929190612820565b60405180910390f35b6102d6610ff9565b6040516102e391906125bf565b60405180910390f35b61030660048036038101906103019190611dfc565b611023565b005b610322600480360381019061031d9190611ec6565b6112d0565b60405161032f91906127dc565b60405180910390f35b610352600480360381019061034d9190611e74565b6112f5565b60405161035f91906127dc565b60405180910390f35b610382600480360381019061037d9190611d48565b611364565b005b6001602052816000526040600020602052806000526040600020600091509150505481565b60008214156103ed576040517f08c379a00000000000000000000000000000000000000000000000000000000081526004016103e4906125fc565b60405180910390fd5b6000600a60009054906101000a900473ffffffffffffffffffffffffffffffffffffffff1673ffffffffffffffffffffffffffffffffffffffff16632f8832d6308686866040518563ffffffff1660e01b815260040161045094939291906124d5565b60206040518083038186803b15801561046857600080fd5b505afa15801561047c573d6000803e3d6000fd5b505050506040513d601f19601f820116820180604052508101906104a09190611e9d565b9050600060058111156104dc577f4e487b7100000000000000000000000000000000000000000000000000000000600052602160045260246000fd5b811461051d576040517f08c379a00000000000000000000000000000000000000000000000000000000081526004016105149061273c565b60405180910390fd5b826001600084815260200190815260200160002060008673ffffffffffffffffffffffffffffffffffffffff1673ffffffffffffffffffffffffffffffffffffffff168152602001908152602001600020600082825461057d9190612993565b9250508190555082600860009054906101000a900473ffffffffffffffffffffffffffffffffffffffff1673ffffffffffffffffffffffffffffffffffffffff166370a08231306040518263ffffffff1660e01b81526004016105e09190612491565b60206040518083038186803b1580156105f857600080fd5b505afa15801561060c573d6000803e3d6000fd5b505050506040513d601f19601f820116820180604052508101906106309190611e9d565b11610670576040517f08c379a00000000000000000000000000000000000000000000000000000000081526004016106679061277c565b60405180910390fd5b6106bf308585600860009054906101000a900473ffffffffffffffffffffffffffffffffffffffff1673ffffffffffffffffffffffffffffffffffffffff16611683909392919063ffffffff16565b8373ffffffffffffffffffffffffffffffffffffffff167ff3a670cd3af7d64b488926880889d08a8585a138ff455227af6737339a1ec2628484604051610707929190612820565b60405180910390a250505050565b6004602052816000526040600020818154811061073157600080fd5b90600052602060002001600091509150505481565b600080600115156107568461170c565b151514610798576040517f08c379a000000000000000000000000000000000000000000000000000000000815260040161078f9061275c565b60405180910390fd5b6001600084815260200190815260200160002060008573ffffffffffffffffffffffffffffffffffffffff1673ffffffffffffffffffffffffffffffffffffffff168152602001908152602001600020546002600085815260200190815260200160002060008673ffffffffffffffffffffffffffffffffffffffff1673ffffffffffffffffffffffffffffffffffffffff16815260200190815260200160002054915091509250929050565b6009805461085290612aae565b80601f016020809104026020016040519081016040528092919081815260200182805461087e90612aae565b80156108cb5780601f106108a0576101008083540402835291602001916108cb565b820191906000526020600020905b8154815290600101906020018083116108ae57829003601f168201915b505050505081565b6108db611726565b73ffffffffffffffffffffffffffffffffffffffff166108f9610ccb565b73ffffffffffffffffffffffffffffffffffffffff161461094f576040517f08c379a0000000000000000000000000000000000000000000000000000000008152600401610946906126dc565b60405180910390fd5b600073ffffffffffffffffffffffffffffffffffffffff1660008054906101000a900473ffffffffffffffffffffffffffffffffffffffff1673ffffffffffffffffffffffffffffffffffffffff167f8be0079c531659141344cd1fd0a4f28419497f9722a3daafe3b4186f6b6457e060405160405180910390a360008060006101000a81548173ffffffffffffffffffffffffffffffffffffffff021916908373ffffffffffffffffffffffffffffffffffffffff160217905550565b600080610a1a8484610e6b565b915091506000600a60009054906101000a900473ffffffffffffffffffffffffffffffffffffffff1673ffffffffffffffffffffffffffffffffffffffff166353c4fc98308888886040518563ffffffff1660e01b8152600401610a819493929190612551565b602060405180830381600087803b158015610a9b57600080fd5b505af1158015610aaf573d6000803e3d6000fd5b505050506040513d601f19601f82011682018060405250810190610ad39190611e9d565b905060006005811115610b0f577f4e487b7100000000000000000000000000000000000000000000000000000000600052602160045260246000fd5b8114610b50576040517f08c379a0000000000000000000000000000000000000000000000000000000008152600401610b47906126fc565b60405180910390fd5b6000670de0b6b3a76400008487610b679190612939565b610b719190612908565b90508086610b7f91906128b2565b6001600087815260200190815260200160002060008973ffffffffffffffffffffffffffffffffffffffff1673ffffffffffffffffffffffffffffffffffffffff1681526020019081526020016000206000828254610bde91906128b2565b9250508190555082600360008781526020019081526020016000206000820151816000015560208201518160010155905050610c5f873088600860009054906101000a900473ffffffffffffffffffffffffffffffffffffffff1673ffffffffffffffffffffffffffffffffffffffff16611683909392919063ffffffff16565b8673ffffffffffffffffffffffffffffffffffffffff167f59c246e4b3d64f626b5eac2dd8e3a3c46c4531e9cc40ef4e6f120fcb3df6be1e878388604051610ca993929190612849565b60405180910390a250505050505050565b610cc63384848461172e565b505050565b60008060009054906101000a900473ffffffffffffffffffffffffffffffffffffffff16905090565b6000610cfe611cc5565b60011515610d0b8461170c565b151514610d4d576040517f08c379a0000000000000000000000000000000000000000000000000000000008152600401610d449061275c565b60405180910390fd5b824210610d8f576040517f08c379a0000000000000000000000000000000000000000000000000000000008152600401610d869061263c565b60405180910390fd5b6000600360008581526020019081526020016000206040518060400160405290816000820154815260200160018201548152505090508481600001818151610dd791906128b2565b91508181525050600062015180610ded42611a4d565b86610df89190612993565b610e029190612908565b9050600082602001518360000151600754610e1d9190612939565b610e279190612908565b600654600554610e3791906128b2565b610e4191906128b2565b905061016d8282610e529190612939565b610e5c9190612908565b83945094505050509250929050565b6000610e75611cc5565b60011515610e828461170c565b151514610ec4576040517f08c379a0000000000000000000000000000000000000000000000000000000008152600401610ebb9061275c565b60405180910390fd5b824210610f06576040517f08c379a0000000000000000000000000000000000000000000000000000000008152600401610efd9061263c565b60405180910390fd5b6000600360008581526020019081526020016000206040518060400160405290816000820154815260200160018201548152505090508481602001818151610f4e91906128b2565b91508181525050600062015180610f6442611a4d565b86610f6f9190612993565b610f799190612908565b9050600082602001518360000151600754610f949190612939565b610f9e9190612908565b600554610fab91906128b2565b905061016d8282610fbc9190612939565b610fc69190612908565b83945094505050509250929050565b60036020528060005260406000206000915090508060000154908060010154905082565b6000600a60009054906101000a900473ffffffffffffffffffffffffffffffffffffffff16905090565b6000806110308484610cf4565b915091506000600a60009054906101000a900473ffffffffffffffffffffffffffffffffffffffff1673ffffffffffffffffffffffffffffffffffffffff1663059a8008308888886040518563ffffffff1660e01b81526004016110979493929190612551565b602060405180830381600087803b1580156110b157600080fd5b505af11580156110c5573d6000803e3d6000fd5b505050506040513d601f19601f820116820180604052508101906110e99190611e9d565b905060006005811115611125577f4e487b7100000000000000000000000000000000000000000000000000000000600052602160045260246000fd5b8114611166576040517f08c379a000000000000000000000000000000000000000000000000000000000815260040161115d906126fc565b60405180910390fd5b6000670de0b6b3a7640000848761117d9190612939565b6111879190612908565b9050808661119591906128b2565b6002600087815260200190815260200160002060008973ffffffffffffffffffffffffffffffffffffffff1673ffffffffffffffffffffffffffffffffffffffff16815260200190815260200160002060008282546111f491906128b2565b9250508190555082600360008781526020019081526020016000206000820151816000015560208201518160010155905050611275308888600860009054906101000a900473ffffffffffffffffffffffffffffffffffffffff1673ffffffffffffffffffffffffffffffffffffffff16611683909392919063ffffffff16565b8673ffffffffffffffffffffffffffffffffffffffff167fc4381c9c7b508979896c55381c1cb8c2aef28d753cff7661f9cd87b9a14584f88783886040516112bf93929190612849565b60405180910390a250505050505050565b6002602052816000526040600020602052806000526040600020600091509150505481565b6000600115156113048361170c565b151514611346576040517f08c379a000000000000000000000000000000000000000000000000000000000815260040161133d9061275c565b60405180910390fd5b60036000838152602001908152602001600020600001549050919050565b61136c611726565b73ffffffffffffffffffffffffffffffffffffffff1661138a610ccb565b73ffffffffffffffffffffffffffffffffffffffff16146113e0576040517f08c379a00000000000000000000000000000000000000000000000000000000081526004016113d7906126dc565b60405180910390fd5b600073ffffffffffffffffffffffffffffffffffffffff168173ffffffffffffffffffffffffffffffffffffffff161415611450576040517f08c379a00000000000000000000000000000000000000000000000000000000081526004016114479061261c565b60405180910390fd5b8073ffffffffffffffffffffffffffffffffffffffff1660008054906101000a900473ffffffffffffffffffffffffffffffffffffffff1673ffffffffffffffffffffffffffffffffffffffff167f8be0079c531659141344cd1fd0a4f28419497f9722a3daafe3b4186f6b6457e060405160405180910390a3806000806101000a81548173ffffffffffffffffffffffffffffffffffffffff021916908373ffffffffffffffffffffffffffffffffffffffff16021790555050565b60008114806115a6575060008373ffffffffffffffffffffffffffffffffffffffff1663dd62ed3e30856040518363ffffffff1660e01b81526004016115549291906124ac565b60206040518083038186803b15801561156c57600080fd5b505afa158015611580573d6000803e3d6000fd5b505050506040513d601f19601f820116820180604052508101906115a49190611e9d565b145b6115e5576040517f08c379a00000000000000000000000000000000000000000000000000000000081526004016115dc906127bc565b60405180910390fd5b6116668363095ea7b360e01b8484604051602401611604929190612596565b604051602081830303815290604052907bffffffffffffffffffffffffffffffffffffffffffffffffffffffff19166020820180517bffffffffffffffffffffffffffffffffffffffffffffffffffffffff8381831617835250505050611a70565b505050565b606061167a8484600085611b37565b90509392505050565b611706846323b872dd60e01b8585856040516024016116a49392919061251a565b604051602081830303815290604052907bffffffffffffffffffffffffffffffffffffffffffffffffffffffff19166020820180517bffffffffffffffffffffffffffffffffffffffffffffffffffffffff8381831617835250505050611a70565b50505050565b600080621275008361171e9190612ae0565b149050919050565b600033905090565b6000821415611772576040517f08c379a00000000000000000000000000000000000000000000000000000000081526004016117699061269c565b60405180910390fd5b6000600a60009054906101000a900473ffffffffffffffffffffffffffffffffffffffff1673ffffffffffffffffffffffffffffffffffffffff1663d9189ac4308686866040518563ffffffff1660e01b81526004016117d59493929190612551565b602060405180830381600087803b1580156117ef57600080fd5b505af1158015611803573d6000803e3d6000fd5b505050506040513d601f19601f820116820180604052508101906118279190611e9d565b905060006005811115611863577f4e487b7100000000000000000000000000000000000000000000000000000000600052602160045260246000fd5b81146118a4576040517f08c379a000000000000000000000000000000000000000000000000000000000815260040161189b906126bc565b60405180910390fd5b60006002600084815260200190815260200160002060008673ffffffffffffffffffffffffffffffffffffffff1673ffffffffffffffffffffffffffffffffffffffff16815260200190815260200160002054905083811461193b576040517f08c379a00000000000000000000000000000000000000000000000000000000081526004016119329061267c565b60405180910390fd5b61198a863086600860009054906101000a900473ffffffffffffffffffffffffffffffffffffffff1673ffffffffffffffffffffffffffffffffffffffff16611683909392919063ffffffff16565b6002600084815260200190815260200160002060008673ffffffffffffffffffffffffffffffffffffffff1673ffffffffffffffffffffffffffffffffffffffff168152602001908152602001600020600090558473ffffffffffffffffffffffffffffffffffffffff168673ffffffffffffffffffffffffffffffffffffffff167fe62a777dbd48d3912f68a1b9445813ee02bc3ac18b97dc129ca462cc77bb641b8686604051611a3d929190612820565b60405180910390a3505050505050565b60006201518082611a5e9190612ae0565b82611a699190612993565b9050919050565b6000611ad2826040518060400160405280602081526020017f5361666545524332303a206c6f772d6c6576656c2063616c6c206661696c65648152508573ffffffffffffffffffffffffffffffffffffffff1661166b9092919063ffffffff16565b9050600081511115611b325780806020019051810190611af29190611e4b565b611b31576040517f08c379a0000000000000000000000000000000000000000000000000000000008152600401611b289061279c565b60405180910390fd5b5b505050565b606082471015611b7c576040517f08c379a0000000000000000000000000000000000000000000000000000000008152600401611b739061265c565b60405180910390fd5b611b8585611c4b565b611bc4576040517f08c379a0000000000000000000000000000000000000000000000000000000008152600401611bbb9061271c565b60405180910390fd5b6000808673ffffffffffffffffffffffffffffffffffffffff168587604051611bed919061247a565b60006040518083038185875af1925050503d8060008114611c2a576040519150601f19603f3d011682016040523d82523d6000602084013e611c2f565b606091505b5091509150611c3f828286611c5e565b92505050949350505050565b600080823b905060008111915050919050565b60608315611c6e57829050611cbe565b600083511115611c815782518084602001fd5b816040517f08c379a0000000000000000000000000000000000000000000000000000000008152600401611cb591906125da565b60405180910390fd5b9392505050565b604051806040016040528060008152602001600081525090565b600081359050611cee81612baf565b92915050565b600081359050611d0381612bc6565b92915050565b600081519050611d1881612bdd565b92915050565b600081359050611d2d81612bf4565b92915050565b600081519050611d4281612bf4565b92915050565b600060208284031215611d5a57600080fd5b6000611d6884828501611cdf565b91505092915050565b600080600060608486031215611d8657600080fd5b6000611d9486828701611cf4565b9350506020611da586828701611d1e565b9250506040611db686828701611d1e565b9150509250925092565b60008060408385031215611dd357600080fd5b6000611de185828601611cdf565b9250506020611df285828601611d1e565b9150509250929050565b600080600060608486031215611e1157600080fd5b6000611e1f86828701611cdf565b9350506020611e3086828701611d1e565b9250506040611e4186828701611d1e565b9150509250925092565b600060208284031215611e5d57600080fd5b6000611e6b84828501611d09565b91505092915050565b600060208284031215611e8657600080fd5b6000611e9484828501611d1e565b91505092915050565b600060208284031215611eaf57600080fd5b6000611ebd84828501611d33565b91505092915050565b60008060408385031215611ed957600080fd5b6000611ee785828601611d1e565b9250506020611ef885828601611cdf565b9150509250929050565b60008060408385031215611f1557600080fd5b6000611f2385828601611d1e565b9250506020611f3485828601611d1e565b9150509250929050565b611f4781612a21565b82525050565b611f56816129c7565b82525050565b6000611f6782612880565b611f718185612896565b9350611f81818560208601612a7b565b80840191505092915050565b611f9681612a33565b82525050565b6000611fa78261288b565b611fb181856128a1565b9350611fc1818560208601612a7b565b611fca81612b9e565b840191505092915050565b6000611fe26014836128a1565b91507f52656465656d2063616e2774206265207a65726f0000000000000000000000006000830152602082019050919050565b60006120226026836128a1565b91507f4f776e61626c653a206e6577206f776e657220697320746865207a65726f206160008301527f64647265737300000000000000000000000000000000000000000000000000006020830152604082019050919050565b6000612088600c836128a1565b91507f506f6f6c204d61747572656400000000000000000000000000000000000000006000830152602082019050919050565b60006120c86026836128a1565b91507f416464726573733a20696e73756666696369656e742062616c616e636520666f60008301527f722063616c6c00000000000000000000000000000000000000000000000000006020830152604082019050919050565b600061212e6019836128a1565b91507f64656274206d757374206265207061696420696e2066756c6c000000000000006000830152602082019050919050565b600061216e6014836128a1565b91507f596f752063616e2774207265706179207a65726f0000000000000000000000006000830152602082019050919050565b60006121ae600b836128a1565b91507f4e6f7420616c6c6f7765640000000000000000000000000000000000000000006000830152602082019050919050565b60006121ee6020836128a1565b91507f4f776e61626c653a2063616c6c6572206973206e6f7420746865206f776e65726000830152602082019050919050565b600061222e601b836128a1565b91507f41756469746f72206e6f7420616c6c6f77696e6720626f72726f7700000000006000830152602082019050919050565b600061226e601d836128a1565b91507f416464726573733a2063616c6c20746f206e6f6e2d636f6e74726163740000006000830152602082019050919050565b60006122ae600b836128a1565b91507f63616e742072656465656d0000000000000000000000000000000000000000006000830152602082019050919050565b60006122ee600d836128a1565b91507f4e6f74206120706f6f6c204944000000000000000000000000000000000000006000830152602082019050919050565b600061232e6014836128a1565b91507f4e6f7420656e6f756768206c69717569646974790000000000000000000000006000830152602082019050919050565b600061236e602a836128a1565b91507f5361666545524332303a204552433230206f7065726174696f6e20646964206e60008301527f6f742073756363656564000000000000000000000000000000000000000000006020830152604082019050919050565b60006123d46036836128a1565b91507f5361666545524332303a20617070726f76652066726f6d206e6f6e2d7a65726f60008301527f20746f206e6f6e2d7a65726f20616c6c6f77616e6365000000000000000000006020830152604082019050919050565b604082016000820151612443600085018261245c565b506020820151612456602085018261245c565b50505050565b61246581612a17565b82525050565b61247481612a17565b82525050565b60006124868284611f5c565b915081905092915050565b60006020820190506124a66000830184611f4d565b92915050565b60006040820190506124c16000830185611f4d565b6124ce6020830184611f4d565b9392505050565b60006080820190506124ea6000830187611f4d565b6124f76020830186611f3e565b612504604083018561246b565b612511606083018461246b565b95945050505050565b600060608201905061252f6000830186611f4d565b61253c6020830185611f4d565b612549604083018461246b565b949350505050565b60006080820190506125666000830187611f4d565b6125736020830186611f4d565b612580604083018561246b565b61258d606083018461246b565b95945050505050565b60006040820190506125ab6000830185611f4d565b6125b8602083018461246b565b9392505050565b60006020820190506125d46000830184611f8d565b92915050565b600060208201905081810360008301526125f48184611f9c565b905092915050565b6000602082019050818103600083015261261581611fd5565b9050919050565b6000602082019050818103600083015261263581612015565b9050919050565b600060208201905081810360008301526126558161207b565b9050919050565b60006020820190508181036000830152612675816120bb565b9050919050565b6000602082019050818103600083015261269581612121565b9050919050565b600060208201905081810360008301526126b581612161565b9050919050565b600060208201905081810360008301526126d5816121a1565b9050919050565b600060208201905081810360008301526126f5816121e1565b9050919050565b6000602082019050818103600083015261271581612221565b9050919050565b6000602082019050818103600083015261273581612261565b9050919050565b60006020820190508181036000830152612755816122a1565b9050919050565b60006020820190508181036000830152612775816122e1565b9050919050565b6000602082019050818103600083015261279581612321565b9050919050565b600060208201905081810360008301526127b581612361565b9050919050565b600060208201905081810360008301526127d5816123c7565b9050919050565b60006020820190506127f1600083018461246b565b92915050565b600060608201905061280c600083018561246b565b612819602083018461242d565b9392505050565b6000604082019050612835600083018561246b565b612842602083018461246b565b9392505050565b600060608201905061285e600083018661246b565b61286b602083018561246b565b612878604083018461246b565b949350505050565b600081519050919050565b600081519050919050565b600081905092915050565b600082825260208201905092915050565b60006128bd82612a17565b91506128c883612a17565b9250827fffffffffffffffffffffffffffffffffffffffffffffffffffffffffffffffff038211156128fd576128fc612b11565b5b828201905092915050565b600061291382612a17565b915061291e83612a17565b92508261292e5761292d612b40565b5b828204905092915050565b600061294482612a17565b915061294f83612a17565b9250817fffffffffffffffffffffffffffffffffffffffffffffffffffffffffffffffff048311821515161561298857612987612b11565b5b828202905092915050565b600061299e82612a17565b91506129a983612a17565b9250828210156129bc576129bb612b11565b5b828203905092915050565b60006129d2826129f7565b9050919050565b60006129e4826129f7565b9050919050565b60008115159050919050565b600073ffffffffffffffffffffffffffffffffffffffff82169050919050565b6000819050919050565b6000612a2c82612a57565b9050919050565b6000612a3e82612a45565b9050919050565b6000612a50826129f7565b9050919050565b6000612a6282612a69565b9050919050565b6000612a74826129f7565b9050919050565b60005b83811015612a99578082015181840152602081019050612a7e565b83811115612aa8576000848401525b50505050565b60006002820490506001821680612ac657607f821691505b60208210811415612ada57612ad9612b6f565b5b50919050565b6000612aeb82612a17565b9150612af683612a17565b925082612b0657612b05612b40565b5b828206905092915050565b7f4e487b7100000000000000000000000000000000000000000000000000000000600052601160045260246000fd5b7f4e487b7100000000000000000000000000000000000000000000000000000000600052601260045260246000fd5b7f4e487b7100000000000000000000000000000000000000000000000000000000600052602260045260246000fd5b6000601f19601f8301169050919050565b612bb8816129c7565b8114612bc357600080fd5b50565b612bcf816129d9565b8114612bda57600080fd5b50565b612be6816129eb565b8114612bf157600080fd5b50565b612bfd81612a17565b8114612c0857600080fd5b5056fea26469706673582212200704aeca62a2705586fa62a21bf8240bde36f1ff80419d63b9fb39b9b2deb8b464736f6c63430008000033",
  "devdoc": {
    "kind": "dev",
    "methods": {
      "borrow(address,uint256,uint256)": {
        "details": "Lends to a wallet for a certain maturity date/pool",
        "params": {
          "amount": "amount to send to the specified wallet",
          "maturityDate": "maturity date for repayment",
          "to": "wallet to send the amount"
        }
      },
      "getAccountSnapshot(address,uint256)": {
        "details": "Gets current snapshot for a wallet in a certain maturity",
        "params": {
          "maturityDate": "maturity date",
          "who": "wallet to return status snapshot in the specified maturity date"
        }
      },
      "getTotalBorrows(uint256)": {
        "details": "Gets the total amount of borrowed money for a maturityDate",
        "params": {
          "maturityDate": "maturity date"
        }
      },
      "owner()": {
        "details": "Returns the address of the current owner."
      },
      "rateForSupply(uint256,uint256)": {
        "details": "Rate that the protocol will pay when borrowing from an address a certain amount at the end of the maturity date",
        "params": {
          "amount": "amount to calculate how it would affect the pool ",
          "maturityDate": "maturity date to calculate the pool"
        }
      },
      "rateToBorrow(uint256,uint256)": {
        "details": "Rate that the protocol will collect when lending to an address a certain amount at the end of the maturity date",
        "params": {
          "amount": "amount to calculate how it would affect the pool ",
          "maturityDate": "maturity date to calculate the pool"
        }
      },
      "redeem(address,uint256,uint256)": {
        "details": "The pool that the user is trying to retrieve the money should be matured",
        "params": {
          "maturityDate": "the date to calculate the pool id",
          "redeemAmount": "The number of underlying tokens to receive from redeeming this Exafin (only one of redeemTokensIn or redeemAmountIn may be non-zero)",
          "redeemer": "The address of the account which is redeeming the tokens"
        }
      },
      "renounceOwnership()": {
        "details": "Leaves the contract without owner. It will not be possible to call `onlyOwner` functions anymore. Can only be called by the current owner. NOTE: Renouncing ownership will leave the contract without an owner, thereby removing any functionality that is only available to the owner."
      },
      "repay(address,uint256,uint256)": {
        "details": "The pool that the user is trying to repay to should be matured",
        "params": {
          "borrower": "The address of the account that has the debt",
          "repayAmount": "the amount of debt of the underlying token to be paid"
        }
      },
      "supply(address,uint256,uint256)": {
        "details": "Borrows from a wallet for a certain maturity date/pool",
        "params": {
          "amount": "amount to receive from the specified wallet",
          "from": "wallet to receive amount from",
          "maturityDate": "maturity date "
        }
      },
      "transferOwnership(address)": {
        "details": "Transfers ownership of the contract to a new account (`newOwner`). Can only be called by the current owner."
      }
    },
    "version": 1
  },
  "userdoc": {
    "kind": "user",
    "methods": {
      "redeem(address,uint256,uint256)": {
        "notice": "User redeems (TODO: voucher NFT) in exchange for the underlying asset"
      },
      "repay(address,uint256,uint256)": {
        "notice": "Someone pays borrower's debt (can be borrower)"
      }
    },
    "version": 1
  },
  "storageLayout": {
    "storage": [
      {
        "astId": 375,
        "contract": "contracts/Exafin.sol:Exafin",
        "label": "_owner",
        "offset": 0,
        "slot": "0",
        "type": "t_address"
      },
      {
        "astId": 3311,
        "contract": "contracts/Exafin.sol:Exafin",
        "label": "suppliedAmounts",
        "offset": 0,
        "slot": "1",
        "type": "t_mapping(t_uint256,t_mapping(t_address,t_uint256))"
      },
      {
        "astId": 3317,
        "contract": "contracts/Exafin.sol:Exafin",
        "label": "borrowedAmounts",
        "offset": 0,
        "slot": "2",
        "type": "t_mapping(t_uint256,t_mapping(t_address,t_uint256))"
      },
      {
        "astId": 3322,
        "contract": "contracts/Exafin.sol:Exafin",
        "label": "pools",
        "offset": 0,
        "slot": "3",
        "type": "t_mapping(t_uint256,t_struct(Pool)4077_storage)"
      },
      {
        "astId": 3327,
        "contract": "contracts/Exafin.sol:Exafin",
        "label": "addressPools",
        "offset": 0,
        "slot": "4",
        "type": "t_mapping(t_address,t_array(t_uint256)dyn_storage)"
      },
      {
        "astId": 3329,
        "contract": "contracts/Exafin.sol:Exafin",
        "label": "baseRate",
        "offset": 0,
        "slot": "5",
        "type": "t_uint256"
      },
      {
        "astId": 3331,
        "contract": "contracts/Exafin.sol:Exafin",
        "label": "marginRate",
        "offset": 0,
        "slot": "6",
        "type": "t_uint256"
      },
      {
        "astId": 3333,
        "contract": "contracts/Exafin.sol:Exafin",
        "label": "slopeRate",
        "offset": 0,
        "slot": "7",
        "type": "t_uint256"
      },
      {
        "astId": 3339,
        "contract": "contracts/Exafin.sol:Exafin",
        "label": "trustedUnderlying",
        "offset": 0,
        "slot": "8",
        "type": "t_contract(IERC20)555"
      },
      {
        "astId": 3342,
        "contract": "contracts/Exafin.sol:Exafin",
        "label": "tokenName",
        "offset": 0,
        "slot": "9",
        "type": "t_string_storage"
      },
      {
        "astId": 3345,
        "contract": "contracts/Exafin.sol:Exafin",
        "label": "auditor",
        "offset": 0,
        "slot": "10",
        "type": "t_contract(IAuditor)4069"
      }
    ],
    "types": {
      "t_address": {
        "encoding": "inplace",
        "label": "address",
        "numberOfBytes": "20"
      },
      "t_array(t_uint256)dyn_storage": {
        "base": "t_uint256",
        "encoding": "dynamic_array",
        "label": "uint256[]",
        "numberOfBytes": "32"
      },
      "t_contract(IAuditor)4069": {
        "encoding": "inplace",
        "label": "contract IAuditor",
        "numberOfBytes": "20"
      },
      "t_contract(IERC20)555": {
        "encoding": "inplace",
        "label": "contract IERC20",
        "numberOfBytes": "20"
      },
      "t_mapping(t_address,t_array(t_uint256)dyn_storage)": {
        "encoding": "mapping",
        "key": "t_address",
        "label": "mapping(address => uint256[])",
        "numberOfBytes": "32",
        "value": "t_array(t_uint256)dyn_storage"
      },
      "t_mapping(t_address,t_uint256)": {
        "encoding": "mapping",
        "key": "t_address",
        "label": "mapping(address => uint256)",
        "numberOfBytes": "32",
        "value": "t_uint256"
      },
      "t_mapping(t_uint256,t_mapping(t_address,t_uint256))": {
        "encoding": "mapping",
        "key": "t_uint256",
        "label": "mapping(uint256 => mapping(address => uint256))",
        "numberOfBytes": "32",
        "value": "t_mapping(t_address,t_uint256)"
      },
      "t_mapping(t_uint256,t_struct(Pool)4077_storage)": {
        "encoding": "mapping",
        "key": "t_uint256",
        "label": "mapping(uint256 => struct Pool)",
        "numberOfBytes": "32",
        "value": "t_struct(Pool)4077_storage"
      },
      "t_string_storage": {
        "encoding": "bytes",
        "label": "string",
        "numberOfBytes": "32"
      },
      "t_struct(Pool)4077_storage": {
        "encoding": "inplace",
        "label": "struct Pool",
        "members": [
          {
            "astId": 4074,
            "contract": "contracts/Exafin.sol:Exafin",
            "label": "borrowed",
            "offset": 0,
            "slot": "0",
            "type": "t_uint256"
          },
          {
            "astId": 4076,
            "contract": "contracts/Exafin.sol:Exafin",
            "label": "supplied",
            "offset": 0,
            "slot": "1",
            "type": "t_uint256"
          }
        ],
        "numberOfBytes": "64"
      },
      "t_uint256": {
        "encoding": "inplace",
        "label": "uint256",
        "numberOfBytes": "32"
      }
    }
  }
}