{
  "address": "0xb390eAFa0fbA07bC2B49643683501584C33a709a",
  "abi": [
    {
      "inputs": [
        {
          "internalType": "address",
          "name": "_tokenAddress",
          "type": "address"
        },
        {
          "internalType": "string",
          "name": "_underlyingTokenName",
          "type": "string"
        },
        {
          "internalType": "address",
          "name": "_eTokenAddress",
          "type": "address"
        },
        {
          "internalType": "address",
          "name": "_auditorAddress",
          "type": "address"
        },
        {
          "internalType": "address",
          "name": "_interestRateModelAddress",
          "type": "address"
        }
      ],
      "stateMutability": "nonpayable",
      "type": "constructor"
    },
    {
      "inputs": [
        {
          "internalType": "enum ErrorCode",
          "name": "error",
          "type": "uint8"
        }
      ],
      "name": "GenericError",
      "type": "error"
    },
    {
      "anonymous": false,
      "inputs": [
        {
          "indexed": true,
          "internalType": "address",
          "name": "to",
          "type": "address"
        },
        {
          "indexed": false,
          "internalType": "uint256",
          "name": "amount",
          "type": "uint256"
        },
        {
          "indexed": false,
          "internalType": "uint256",
          "name": "commission",
          "type": "uint256"
        },
        {
          "indexed": false,
          "internalType": "uint256",
          "name": "maturityDate",
          "type": "uint256"
        }
      ],
      "name": "Borrowed",
      "type": "event"
    },
    {
      "anonymous": false,
      "inputs": [
        {
          "indexed": true,
          "internalType": "address",
          "name": "user",
          "type": "address"
        },
        {
          "indexed": false,
          "internalType": "uint256",
          "name": "amount",
          "type": "uint256"
        }
      ],
      "name": "DepositToSmartPool",
      "type": "event"
    },
    {
      "anonymous": false,
      "inputs": [
        {
          "indexed": false,
          "internalType": "address",
          "name": "liquidator",
          "type": "address"
        },
        {
          "indexed": false,
          "internalType": "address",
          "name": "borrower",
          "type": "address"
        },
        {
          "indexed": false,
          "internalType": "uint256",
          "name": "repayAmount",
          "type": "uint256"
        },
        {
          "indexed": false,
          "internalType": "address",
          "name": "fixedLenderCollateral",
          "type": "address"
        },
        {
          "indexed": false,
          "internalType": "uint256",
          "name": "seizedAmount",
          "type": "uint256"
        },
        {
          "indexed": false,
          "internalType": "uint256",
          "name": "maturityDate",
          "type": "uint256"
        }
      ],
      "name": "LiquidateBorrow",
      "type": "event"
    },
    {
      "anonymous": false,
      "inputs": [
        {
          "indexed": true,
          "internalType": "address",
          "name": "from",
          "type": "address"
        },
        {
          "indexed": false,
          "internalType": "uint256",
          "name": "amount",
          "type": "uint256"
        },
        {
          "indexed": false,
          "internalType": "uint256",
          "name": "maturityDate",
          "type": "uint256"
        }
      ],
      "name": "Redeemed",
      "type": "event"
    },
    {
      "anonymous": false,
      "inputs": [
        {
          "indexed": true,
          "internalType": "address",
          "name": "payer",
          "type": "address"
        },
        {
          "indexed": true,
          "internalType": "address",
          "name": "borrower",
          "type": "address"
        },
        {
          "indexed": false,
          "internalType": "uint256",
          "name": "amount",
          "type": "uint256"
        },
        {
          "indexed": false,
          "internalType": "uint256",
          "name": "maturityDate",
          "type": "uint256"
        }
      ],
      "name": "Repaid",
      "type": "event"
    },
    {
      "anonymous": false,
      "inputs": [
        {
          "indexed": false,
          "internalType": "address",
          "name": "benefactor",
          "type": "address"
        },
        {
          "indexed": false,
          "internalType": "uint256",
          "name": "addAmount",
          "type": "uint256"
        }
      ],
      "name": "ReservesAdded",
      "type": "event"
    },
    {
      "anonymous": false,
      "inputs": [
        {
          "indexed": true,
          "internalType": "bytes32",
          "name": "role",
          "type": "bytes32"
        },
        {
          "indexed": true,
          "internalType": "bytes32",
          "name": "previousAdminRole",
          "type": "bytes32"
        },
        {
          "indexed": true,
          "internalType": "bytes32",
          "name": "newAdminRole",
          "type": "bytes32"
        }
      ],
      "name": "RoleAdminChanged",
      "type": "event"
    },
    {
      "anonymous": false,
      "inputs": [
        {
          "indexed": true,
          "internalType": "bytes32",
          "name": "role",
          "type": "bytes32"
        },
        {
          "indexed": true,
          "internalType": "address",
          "name": "account",
          "type": "address"
        },
        {
          "indexed": true,
          "internalType": "address",
          "name": "sender",
          "type": "address"
        }
      ],
      "name": "RoleGranted",
      "type": "event"
    },
    {
      "anonymous": false,
      "inputs": [
        {
          "indexed": true,
          "internalType": "bytes32",
          "name": "role",
          "type": "bytes32"
        },
        {
          "indexed": true,
          "internalType": "address",
          "name": "account",
          "type": "address"
        },
        {
          "indexed": true,
          "internalType": "address",
          "name": "sender",
          "type": "address"
        }
      ],
      "name": "RoleRevoked",
      "type": "event"
    },
    {
      "anonymous": false,
      "inputs": [
        {
          "indexed": false,
          "internalType": "address",
          "name": "liquidator",
          "type": "address"
        },
        {
          "indexed": false,
          "internalType": "address",
          "name": "borrower",
          "type": "address"
        },
        {
          "indexed": false,
          "internalType": "uint256",
          "name": "seizedAmount",
          "type": "uint256"
        },
        {
          "indexed": false,
          "internalType": "uint256",
          "name": "maturityDate",
          "type": "uint256"
        }
      ],
      "name": "Seized",
      "type": "event"
    },
    {
      "anonymous": false,
      "inputs": [
        {
          "indexed": true,
          "internalType": "address",
          "name": "from",
          "type": "address"
        },
        {
          "indexed": false,
          "internalType": "uint256",
          "name": "amount",
          "type": "uint256"
        },
        {
          "indexed": false,
          "internalType": "uint256",
          "name": "commission",
          "type": "uint256"
        },
        {
          "indexed": false,
          "internalType": "uint256",
          "name": "maturityDate",
          "type": "uint256"
        }
      ],
      "name": "Supplied",
      "type": "event"
    },
    {
      "anonymous": false,
      "inputs": [
        {
          "indexed": true,
          "internalType": "address",
          "name": "user",
          "type": "address"
        },
        {
          "indexed": false,
          "internalType": "uint256",
          "name": "amount",
          "type": "uint256"
        }
      ],
      "name": "WithdrawFromSmartPool",
      "type": "event"
    },
    {
      "inputs": [],
      "name": "DEFAULT_ADMIN_ROLE",
      "outputs": [
        {
          "internalType": "bytes32",
          "name": "",
          "type": "bytes32"
        }
      ],
      "stateMutability": "view",
      "type": "function"
    },
    {
      "inputs": [
        {
          "internalType": "address",
          "name": "",
          "type": "address"
        },
        {
          "internalType": "uint256",
          "name": "",
          "type": "uint256"
        }
      ],
      "name": "addressPools",
      "outputs": [
        {
          "internalType": "uint256",
          "name": "",
          "type": "uint256"
        }
      ],
      "stateMutability": "view",
      "type": "function"
    },
    {
      "inputs": [],
      "name": "auditor",
      "outputs": [
        {
          "internalType": "contract IAuditor",
          "name": "",
          "type": "address"
        }
      ],
      "stateMutability": "view",
      "type": "function"
    },
    {
      "inputs": [
        {
          "internalType": "uint256",
          "name": "amount",
          "type": "uint256"
        },
        {
          "internalType": "uint256",
          "name": "maturityDate",
          "type": "uint256"
        }
      ],
      "name": "borrow",
      "outputs": [],
      "stateMutability": "nonpayable",
      "type": "function"
    },
    {
      "inputs": [
        {
          "internalType": "uint256",
          "name": "",
          "type": "uint256"
        },
        {
          "internalType": "address",
          "name": "",
          "type": "address"
        }
      ],
      "name": "borrowedAmounts",
      "outputs": [
        {
          "internalType": "uint256",
          "name": "",
          "type": "uint256"
        }
      ],
      "stateMutability": "view",
      "type": "function"
    },
    {
      "inputs": [
        {
          "internalType": "uint256",
          "name": "amount",
          "type": "uint256"
        }
      ],
      "name": "depositToSmartPool",
      "outputs": [],
      "stateMutability": "nonpayable",
      "type": "function"
    },
    {
      "inputs": [],
      "name": "eToken",
      "outputs": [
        {
          "internalType": "contract IEToken",
          "name": "",
          "type": "address"
        }
      ],
      "stateMutability": "view",
      "type": "function"
    },
    {
      "inputs": [
        {
          "internalType": "address",
          "name": "who",
          "type": "address"
        },
        {
          "internalType": "uint256",
          "name": "maturityDate",
          "type": "uint256"
        }
      ],
      "name": "getAccountSnapshot",
      "outputs": [
        {
          "internalType": "uint256",
          "name": "",
          "type": "uint256"
        },
        {
          "internalType": "uint256",
          "name": "",
          "type": "uint256"
        }
      ],
      "stateMutability": "view",
      "type": "function"
    },
    {
      "inputs": [],
      "name": "getAuditor",
      "outputs": [
        {
          "internalType": "contract IAuditor",
          "name": "",
          "type": "address"
        }
      ],
      "stateMutability": "view",
      "type": "function"
    },
    {
      "inputs": [
        {
          "internalType": "bytes32",
          "name": "role",
          "type": "bytes32"
        }
      ],
      "name": "getRoleAdmin",
      "outputs": [
        {
          "internalType": "bytes32",
          "name": "",
          "type": "bytes32"
        }
      ],
      "stateMutability": "view",
      "type": "function"
    },
    {
      "inputs": [
        {
          "internalType": "uint256",
          "name": "maturityDate",
          "type": "uint256"
        }
      ],
      "name": "getTotalBorrows",
      "outputs": [
        {
          "internalType": "uint256",
          "name": "",
          "type": "uint256"
        }
      ],
      "stateMutability": "view",
      "type": "function"
    },
    {
      "inputs": [
        {
          "internalType": "bytes32",
          "name": "role",
          "type": "bytes32"
        },
        {
          "internalType": "address",
          "name": "account",
          "type": "address"
        }
      ],
      "name": "grantRole",
      "outputs": [],
      "stateMutability": "nonpayable",
      "type": "function"
    },
    {
      "inputs": [
        {
          "internalType": "bytes32",
          "name": "role",
          "type": "bytes32"
        },
        {
          "internalType": "address",
          "name": "account",
          "type": "address"
        }
      ],
      "name": "hasRole",
      "outputs": [
        {
          "internalType": "bool",
          "name": "",
          "type": "bool"
        }
      ],
      "stateMutability": "view",
      "type": "function"
    },
    {
      "inputs": [],
      "name": "interestRateModel",
      "outputs": [
        {
          "internalType": "contract IInterestRateModel",
          "name": "",
          "type": "address"
        }
      ],
      "stateMutability": "view",
      "type": "function"
    },
    {
      "inputs": [
        {
          "internalType": "address",
          "name": "borrower",
          "type": "address"
        },
        {
          "internalType": "uint256",
          "name": "repayAmount",
          "type": "uint256"
        },
        {
          "internalType": "contract IFixedLender",
          "name": "fixedLenderCollateral",
          "type": "address"
        },
        {
          "internalType": "uint256",
          "name": "maturityDate",
          "type": "uint256"
        }
      ],
      "name": "liquidate",
      "outputs": [
        {
          "internalType": "uint256",
          "name": "",
          "type": "uint256"
        }
      ],
      "stateMutability": "nonpayable",
      "type": "function"
    },
    {
      "inputs": [
        {
          "internalType": "uint256",
          "name": "",
          "type": "uint256"
        }
      ],
      "name": "pools",
      "outputs": [
        {
          "internalType": "uint256",
          "name": "borrowed",
          "type": "uint256"
        },
        {
          "internalType": "uint256",
          "name": "supplied",
          "type": "uint256"
        },
        {
          "internalType": "uint256",
          "name": "debt",
          "type": "uint256"
        },
        {
          "internalType": "uint256",
          "name": "available",
          "type": "uint256"
        }
      ],
      "stateMutability": "view",
      "type": "function"
    },
    {
      "inputs": [
        {
          "internalType": "address payable",
          "name": "redeemer",
          "type": "address"
        },
        {
          "internalType": "uint256",
          "name": "redeemAmount",
          "type": "uint256"
        },
        {
          "internalType": "uint256",
          "name": "maturityDate",
          "type": "uint256"
        }
      ],
      "name": "redeem",
      "outputs": [],
      "stateMutability": "nonpayable",
      "type": "function"
    },
    {
      "inputs": [
        {
          "internalType": "bytes32",
          "name": "role",
          "type": "bytes32"
        },
        {
          "internalType": "address",
          "name": "account",
          "type": "address"
        }
      ],
      "name": "renounceRole",
      "outputs": [],
      "stateMutability": "nonpayable",
      "type": "function"
    },
    {
      "inputs": [
        {
          "internalType": "address",
          "name": "borrower",
          "type": "address"
        },
        {
          "internalType": "uint256",
          "name": "maturityDate",
          "type": "uint256"
        }
      ],
      "name": "repay",
      "outputs": [],
      "stateMutability": "nonpayable",
      "type": "function"
    },
    {
      "inputs": [
        {
          "internalType": "bytes32",
          "name": "role",
          "type": "bytes32"
        },
        {
          "internalType": "address",
          "name": "account",
          "type": "address"
        }
      ],
      "name": "revokeRole",
      "outputs": [],
      "stateMutability": "nonpayable",
      "type": "function"
    },
    {
      "inputs": [
        {
          "internalType": "address",
          "name": "liquidator",
          "type": "address"
        },
        {
          "internalType": "address",
          "name": "borrower",
          "type": "address"
        },
        {
          "internalType": "uint256",
          "name": "seizeAmount",
          "type": "uint256"
        },
        {
          "internalType": "uint256",
          "name": "maturityDate",
          "type": "uint256"
        }
      ],
      "name": "seize",
      "outputs": [],
      "stateMutability": "nonpayable",
      "type": "function"
    },
    {
      "inputs": [
        {
          "internalType": "uint256",
          "name": "_liquidationFee",
          "type": "uint256"
        }
      ],
      "name": "setLiquidationFee",
      "outputs": [],
      "stateMutability": "nonpayable",
      "type": "function"
    },
    {
      "inputs": [],
      "name": "smartPool",
      "outputs": [
        {
          "internalType": "uint256",
          "name": "borrowed",
          "type": "uint256"
        },
        {
          "internalType": "uint256",
          "name": "supplied",
          "type": "uint256"
        }
      ],
      "stateMutability": "view",
      "type": "function"
    },
    {
      "inputs": [
        {
          "internalType": "uint256",
          "name": "",
          "type": "uint256"
        },
        {
          "internalType": "address",
          "name": "",
          "type": "address"
        }
      ],
      "name": "suppliedAmounts",
      "outputs": [
        {
          "internalType": "uint256",
          "name": "",
          "type": "uint256"
        }
      ],
      "stateMutability": "view",
      "type": "function"
    },
    {
      "inputs": [
        {
          "internalType": "address",
          "name": "from",
          "type": "address"
        },
        {
          "internalType": "uint256",
          "name": "amount",
          "type": "uint256"
        },
        {
          "internalType": "uint256",
          "name": "maturityDate",
          "type": "uint256"
        }
      ],
      "name": "supply",
      "outputs": [],
      "stateMutability": "nonpayable",
      "type": "function"
    },
    {
      "inputs": [
        {
          "internalType": "bytes4",
          "name": "interfaceId",
          "type": "bytes4"
        }
      ],
      "name": "supportsInterface",
      "outputs": [
        {
          "internalType": "bool",
          "name": "",
          "type": "bool"
        }
      ],
      "stateMutability": "view",
      "type": "function"
    },
    {
      "inputs": [],
      "name": "totalBorrows",
      "outputs": [
        {
          "internalType": "uint256",
          "name": "",
          "type": "uint256"
        }
      ],
      "stateMutability": "view",
      "type": "function"
    },
    {
      "inputs": [
        {
          "internalType": "address",
          "name": "",
          "type": "address"
        }
      ],
      "name": "totalBorrowsUser",
      "outputs": [
        {
          "internalType": "uint256",
          "name": "",
          "type": "uint256"
        }
      ],
      "stateMutability": "view",
      "type": "function"
    },
    {
      "inputs": [],
      "name": "totalDeposits",
      "outputs": [
        {
          "internalType": "uint256",
          "name": "",
          "type": "uint256"
        }
      ],
      "stateMutability": "view",
      "type": "function"
    },
    {
      "inputs": [
        {
          "internalType": "address",
          "name": "",
          "type": "address"
        }
      ],
      "name": "totalDepositsUser",
      "outputs": [
        {
          "internalType": "uint256",
          "name": "",
          "type": "uint256"
        }
      ],
      "stateMutability": "view",
      "type": "function"
    },
    {
      "inputs": [],
      "name": "underlyingTokenName",
      "outputs": [
        {
          "internalType": "string",
          "name": "",
          "type": "string"
        }
      ],
      "stateMutability": "view",
      "type": "function"
    },
    {
      "inputs": [
        {
          "internalType": "uint256",
          "name": "amount",
          "type": "uint256"
        }
      ],
      "name": "withdrawFromSmartPool",
      "outputs": [],
      "stateMutability": "nonpayable",
      "type": "function"
    }
  ],
  "transactionHash": "0xfd56ea799bba4668fa53519738d9ebec028a7c28aef6a45648d1391f923fc950",
  "args": [
    "0xC02aaA39b223FE8D0A0e5C4F27eAD9083C756Cc2",
    "ETH",
    "0x37ef4ad938E01640156AC0d5D4e7656891949F04",
    "0xDC891752642e1e98C9e4b5060045FD7C8Db4fD92",
    "0xfdD353090EEb947bC6d75570F8B1288b9fe032aD"
  ],
  "solcInputHash": "3cf35dcdb734498eb5af86c22f4c70c4",
  "bytecode": "0x6080604052666379da05b600006006553480156200001c57600080fd5b5060405162005da238038062005da2833981810160405281019062000042919062000905565b60016000819055506200005f6000801b336200021160201b60201c565b84600960006101000a81548173ffffffffffffffffffffffffffffffffffffffff021916908373ffffffffffffffffffffffffffffffffffffffff16021790555062000114307fffffffffffffffffffffffffffffffffffffffffffffffffffffffffffffffff600960009054906101000a900473ffffffffffffffffffffffffffffffffffffffff1673ffffffffffffffffffffffffffffffffffffffff166200022760201b620024f0179092919060201c565b83600b90805190602001906200012c9291906200079e565b5081600c60006101000a81548173ffffffffffffffffffffffffffffffffffffffff021916908373ffffffffffffffffffffffffffffffffffffffff16021790555082600a60006101000a81548173ffffffffffffffffffffffffffffffffffffffff021916908373ffffffffffffffffffffffffffffffffffffffff16021790555080600d60006101000a81548173ffffffffffffffffffffffffffffffffffffffff021916908373ffffffffffffffffffffffffffffffffffffffff16021790555060006007600001819055506000600760010181905550505050505062000f9d565b6200022382826200039960201b60201c565b5050565b6000811480620002c7575060008373ffffffffffffffffffffffffffffffffffffffff1663dd62ed3e30856040518363ffffffff1660e01b81526004016200027192919062000b47565b60206040518083038186803b1580156200028a57600080fd5b505afa1580156200029f573d6000803e3d6000fd5b505050506040513d601f19601f82011682018060405250810190620002c59190620009cc565b145b62000309576040517f08c379a0000000000000000000000000000000000000000000000000000000008152600401620003009062000c2b565b60405180910390fd5b620003948363095ea7b360e01b84846040516024016200032b92919062000b74565b604051602081830303815290604052907bffffffffffffffffffffffffffffffffffffffffffffffffffffffff19166020820180517bffffffffffffffffffffffffffffffffffffffffffffffffffffffff83818316178352505050506200048a60201b60201c565b505050565b620003ab82826200055e60201b60201c565b6200048657600180600084815260200190815260200160002060000160008373ffffffffffffffffffffffffffffffffffffffff1673ffffffffffffffffffffffffffffffffffffffff16815260200190815260200160002060006101000a81548160ff0219169083151502179055506200042b620005c960201b60201c565b73ffffffffffffffffffffffffffffffffffffffff168173ffffffffffffffffffffffffffffffffffffffff16837f2f8788117e7eff1d82e926ec794901d17c78024a50270940304540a733656f0d60405160405180910390a45b5050565b6000620004f3826040518060400160405280602081526020017f5361666545524332303a206c6f772d6c6576656c2063616c6c206661696c65648152508573ffffffffffffffffffffffffffffffffffffffff16620005d160201b6200264e179092919060201c565b9050600081511115620005595780806020019051810190620005169190620009a0565b62000558576040517f08c379a00000000000000000000000000000000000000000000000000000000081526004016200054f9062000c09565b60405180910390fd5b5b505050565b60006001600084815260200190815260200160002060000160008373ffffffffffffffffffffffffffffffffffffffff1673ffffffffffffffffffffffffffffffffffffffff16815260200190815260200160002060009054906101000a900460ff16905092915050565b600033905090565b6060620005e88484600085620005f160201b60201c565b90509392505050565b60608247101562000639576040517f08c379a0000000000000000000000000000000000000000000000000000000008152600401620006309062000bc5565b60405180910390fd5b6200064a856200071f60201b60201c565b6200068c576040517f08c379a0000000000000000000000000000000000000000000000000000000008152600401620006839062000be7565b60405180910390fd5b6000808673ffffffffffffffffffffffffffffffffffffffff168587604051620006b7919062000b2e565b60006040518083038185875af1925050503d8060008114620006f6576040519150601f19603f3d011682016040523d82523d6000602084013e620006fb565b606091505b5091509150620007138282866200073260201b60201c565b92505050949350505050565b600080823b905060008111915050919050565b60608315620007445782905062000797565b600083511115620007585782518084602001fd5b816040517f08c379a00000000000000000000000000000000000000000000000000000000081526004016200078e919062000ba1565b60405180910390fd5b9392505050565b828054620007ac9062000d5e565b90600052602060002090601f016020900481019282620007d057600085556200081c565b82601f10620007eb57805160ff19168380011785556200081c565b828001600101855582156200081c579182015b828111156200081b578251825591602001919060010190620007fe565b5b5090506200082b91906200082f565b5090565b5b808211156200084a57600081600090555060010162000830565b5090565b6000620008656200085f8462000c76565b62000c4d565b9050828152602081018484840111156200087e57600080fd5b6200088b84828562000d28565b509392505050565b600081519050620008a48162000f4f565b92915050565b600081519050620008bb8162000f69565b92915050565b600082601f830112620008d357600080fd5b8151620008e58482602086016200084e565b91505092915050565b600081519050620008ff8162000f83565b92915050565b600080600080600060a086880312156200091e57600080fd5b60006200092e8882890162000893565b955050602086015167ffffffffffffffff8111156200094c57600080fd5b6200095a88828901620008c1565b94505060406200096d8882890162000893565b9350506060620009808882890162000893565b9250506080620009938882890162000893565b9150509295509295909350565b600060208284031215620009b357600080fd5b6000620009c384828501620008aa565b91505092915050565b600060208284031215620009df57600080fd5b6000620009ef84828501620008ee565b91505092915050565b62000a038162000cde565b82525050565b600062000a168262000cac565b62000a22818562000cc2565b935062000a3481856020860162000d28565b80840191505092915050565b600062000a4d8262000cb7565b62000a59818562000ccd565b935062000a6b81856020860162000d28565b62000a768162000e28565b840191505092915050565b600062000a9060268362000ccd565b915062000a9d8262000e39565b604082019050919050565b600062000ab7601d8362000ccd565b915062000ac48262000e88565b602082019050919050565b600062000ade602a8362000ccd565b915062000aeb8262000eb1565b604082019050919050565b600062000b0560368362000ccd565b915062000b128262000f00565b604082019050919050565b62000b288162000d1e565b82525050565b600062000b3c828462000a09565b915081905092915050565b600060408201905062000b5e6000830185620009f8565b62000b6d6020830184620009f8565b9392505050565b600060408201905062000b8b6000830185620009f8565b62000b9a602083018462000b1d565b9392505050565b6000602082019050818103600083015262000bbd818462000a40565b905092915050565b6000602082019050818103600083015262000be08162000a81565b9050919050565b6000602082019050818103600083015262000c028162000aa8565b9050919050565b6000602082019050818103600083015262000c248162000acf565b9050919050565b6000602082019050818103600083015262000c468162000af6565b9050919050565b600062000c5962000c6c565b905062000c67828262000d94565b919050565b6000604051905090565b600067ffffffffffffffff82111562000c945762000c9362000df9565b5b62000c9f8262000e28565b9050602081019050919050565b600081519050919050565b600081519050919050565b600081905092915050565b600082825260208201905092915050565b600062000ceb8262000cfe565b9050919050565b60008115159050919050565b600073ffffffffffffffffffffffffffffffffffffffff82169050919050565b6000819050919050565b60005b8381101562000d4857808201518184015260208101905062000d2b565b8381111562000d58576000848401525b50505050565b6000600282049050600182168062000d7757607f821691505b6020821081141562000d8e5762000d8d62000dca565b5b50919050565b62000d9f8262000e28565b810181811067ffffffffffffffff8211171562000dc15762000dc062000df9565b5b80604052505050565b7f4e487b7100000000000000000000000000000000000000000000000000000000600052602260045260246000fd5b7f4e487b7100000000000000000000000000000000000000000000000000000000600052604160045260246000fd5b6000601f19601f8301169050919050565b7f416464726573733a20696e73756666696369656e742062616c616e636520666f60008201527f722063616c6c0000000000000000000000000000000000000000000000000000602082015250565b7f416464726573733a2063616c6c20746f206e6f6e2d636f6e7472616374000000600082015250565b7f5361666545524332303a204552433230206f7065726174696f6e20646964206e60008201527f6f74207375636365656400000000000000000000000000000000000000000000602082015250565b7f5361666545524332303a20617070726f76652066726f6d206e6f6e2d7a65726f60008201527f20746f206e6f6e2d7a65726f20616c6c6f77616e636500000000000000000000602082015250565b62000f5a8162000cde565b811462000f6657600080fd5b50565b62000f748162000cf2565b811462000f8057600080fd5b50565b62000f8e8162000d1e565b811462000f9a57600080fd5b50565b614df58062000fad6000396000f3fe608060405234801561001057600080fd5b50600436106101f05760003560e01c80637dbca3531161010f578063b7f394c0116100a2578063d547741f11610071578063d547741f146105f6578063ea1cd41f14610612578063f3fdb15a14610642578063fef0bec814610660576101f0565b8063b7f394c01461055e578063c84ad1be1461057a578063d2c6d0dc146105aa578063d2cdcad3146105c6576101f0565b8063953d9cf1116100de578063953d9cf1146104d1578063a217fddf146104ef578063ac4afa381461050d578063b72ddee914610540576101f0565b80637dbca3531461043757806391d148541461045357806391f3e472146104835780639457be23146104a1576101f0565b80633c5b1c59116101875780634b728f89116101565780634b728f89146103ad57806355a1ac2e146103cc5780636135600f146103fd5780637d88209714610419576101f0565b80633c5b1c59146103115780633ec045a61461034157806347bd37181461035f57806348cdbe071461037d576101f0565b8063248a9ca3116101c3578063248a9ca31461028d5780632b83cccd146102bd5780632f2ff15d146102d957806336568abe146102f5576101f0565b806301ffc9a7146101f55780630526b7d5146102255780630ecbcdab1461025557806322867d7814610271575b600080fd5b61020f600480360381019061020a9190613bb6565b61067c565b60405161021c91906142d7565b60405180910390f35b61023f600480360381019061023a9190613c31565b6106f6565b60405161024c91906144d6565b60405180910390f35b61026f600480360381019061026a9190613c6d565b61071b565b005b61028b60048036038101906102869190613a3a565b610da9565b005b6102a760048036038101906102a29190613b51565b611061565b6040516102b491906142f2565b60405180910390f35b6102d760048036038101906102d29190613988565b611081565b005b6102f360048036038101906102ee9190613b7a565b611418565b005b61030f600480360381019061030a9190613b7a565b611441565b005b61032b60048036038101906103269190613a3a565b6114c4565b60405161033891906144d6565b60405180910390f35b6103496114f5565b604051610356919061430d565b60405180910390f35b61036761151b565b60405161037491906144d6565b60405180910390f35b6103976004803603810190610392919061395f565b611521565b6040516103a491906144d6565b60405180910390f35b6103b5611539565b6040516103c3929190614589565b60405180910390f35b6103e660048036038101906103e19190613a3a565b61154b565b6040516103f4929190614589565b60405180910390f35b61041760048036038101906104129190613bdf565b6116c4565b005b61042161189e565b60405161042e91906144d6565b60405180910390f35b610451600480360381019061044c9190613ad9565b6118a4565b005b61046d60048036038101906104689190613b7a565b611dec565b60405161047a91906142d7565b60405180910390f35b61048b611e57565b6040516104989190614379565b60405180910390f35b6104bb60048036038101906104b69190613a76565b611ee5565b6040516104c891906144d6565b60405180910390f35b6104d9611f54565b6040516104e69190614328565b60405180910390f35b6104f7611f7a565b60405161050491906142f2565b60405180910390f35b61052760048036038101906105229190613bdf565b611f81565b60405161053794939291906145e9565b60405180910390f35b610548611fb1565b604051610555919061430d565b60405180910390f35b61057860048036038101906105739190613bdf565b611fdb565b005b610594600480360381019061058f919061395f565b6122f2565b6040516105a191906144d6565b60405180910390f35b6105c460048036038101906105bf91906139d7565b61230a565b005b6105e060048036038101906105db9190613c31565b612373565b6040516105ed91906144d6565b60405180910390f35b610610600480360381019061060b9190613b7a565b612398565b005b61062c60048036038101906106279190613bdf565b6123c1565b60405161063991906144d6565b60405180910390f35b61064a6124aa565b6040516106579190614343565b60405180910390f35b61067a60048036038101906106759190613bdf565b6124d0565b005b60007f7965db0b000000000000000000000000000000000000000000000000000000007bffffffffffffffffffffffffffffffffffffffffffffffffffffffff1916827bffffffffffffffffffffffffffffffffffffffffffffffffffffffff191614806106ef57506106ee82612666565b5b9050919050565b6002602052816000526040600020602052806000526040600020600091509150505481565b60026000541415610761576040517f08c379a00000000000000000000000000000000000000000000000000000000081526004016107589061445b565b60405180910390fd5b6002600081905550600073f6780c6eCFbF39CE58ac293dC2F00da27c91df4E63b142980a836040518263ffffffff1660e01b81526004016107a291906144bb565b60206040518083038186803b1580156107ba57600080fd5b505af41580156107ce573d6000803e3d6000fd5b505050506040513d601f19601f820116820180604052508101906107f29190613b28565b61083457600c6040517fede8a59900000000000000000000000000000000000000000000000000000000815260040161082b919061435e565b60405180910390fd5b600c60009054906101000a900473ffffffffffffffffffffffffffffffffffffffff1673ffffffffffffffffffffffffffffffffffffffff1663806a9f808360026040518363ffffffff1660e01b81526004016108929291906144f1565b60006040518083038186803b1580156108aa57600080fd5b505afa1580156108be573d6000803e3d6000fd5b50505050600060046000848152602001908152602001600020604051806080016040529081600082015481526020016001820154815260200160028201548152602001600382015481525050905083816000015161091c919061466b565b8160000181815250508060600151841115610a2e576000600760000154600760010154610949919061474c565b90508082606001518661095c919061474c565b11156109a05760176040517fede8a599000000000000000000000000000000000000000000000000000000008152600401610997919061435e565b60405180910390fd5b8160600151856007600001546109b6919061466b565b6109c0919061474c565b60076000018190555081606001518583604001516109de919061466b565b6109e8919061474c565b8260400181815250508160600151858360200151610a06919061466b565b610a10919061474c565b82602001818152505060008260600181815250506001925050610a48565b838160600151610a3e919061474c565b8160600181815250505b6000600d60009054906101000a900473ffffffffffffffffffffffffffffffffffffffff1673ffffffffffffffffffffffffffffffffffffffff16633b949d9c85846007876040518563ffffffff1660e01b8152600401610aac9493929190614543565b60206040518083038186803b158015610ac457600080fd5b505afa158015610ad8573d6000803e3d6000fd5b505050506040513d601f19601f82011682018060405250810190610afc9190613c08565b90506000610b1382876126d090919063ffffffff16565b905060008187610b23919061466b565b9050600c60009054906101000a900473ffffffffffffffffffffffffffffffffffffffff1673ffffffffffffffffffffffffffffffffffffffff1663059a80083033848a6040518563ffffffff1660e01b8152600401610b869493929190614269565b600060405180830381600087803b158015610ba057600080fd5b505af1158015610bb4573d6000803e3d6000fd5b50505050818460000151610bc8919061466b565b84600001818152505083600460008881526020019081526020016000206000820151816000015560208201518160010155604082015181600201556060820151816003015590505060008288610c1e919061466b565b9050806003600089815260200190815260200160002060003373ffffffffffffffffffffffffffffffffffffffff1673ffffffffffffffffffffffffffffffffffffffff1681526020019081526020016000206000828254610c80919061466b565b925050819055508060106000828254610c99919061466b565b9250508190555080601160003373ffffffffffffffffffffffffffffffffffffffff1673ffffffffffffffffffffffffffffffffffffffff1681526020019081526020016000206000828254610cef919061466b565b92505081905550610d4530338a600960009054906101000a900473ffffffffffffffffffffffffffffffffffffffff1673ffffffffffffffffffffffffffffffffffffffff166126f9909392919063ffffffff16565b3373ffffffffffffffffffffffffffffffffffffffff167fc4381c9c7b508979896c55381c1cb8c2aef28d753cff7661f9cd87b9a14584f889858a604051610d8f939291906145b2565b60405180910390a250505050505060016000819055505050565b60026000541415610def576040517f08c379a0000000000000000000000000000000000000000000000000000000008152600401610de69061445b565b60405180910390fd5b6002600081905550600c60009054906101000a900473ffffffffffffffffffffffffffffffffffffffff1673ffffffffffffffffffffffffffffffffffffffff16632d409a6730846040518363ffffffff1660e01b8152600401610e549291906140bd565b600060405180830381600087803b158015610e6e57600080fd5b505af1158015610e82573d6000803e3d6000fd5b5050505060006003600083815260200190815260200160002060008473ffffffffffffffffffffffffffffffffffffffff1673ffffffffffffffffffffffffffffffffffffffff168152602001908152602001600020549050610f2a333083600960009054906101000a900473ffffffffffffffffffffffffffffffffffffffff1673ffffffffffffffffffffffffffffffffffffffff166126f9909392919063ffffffff16565b8060106000828254610f3c919061474c565b9250508190555080601160008573ffffffffffffffffffffffffffffffffffffffff1673ffffffffffffffffffffffffffffffffffffffff1681526020019081526020016000206000828254610f92919061474c565b925050819055506003600083815260200190815260200160002060008473ffffffffffffffffffffffffffffffffffffffff1673ffffffffffffffffffffffffffffffffffffffff168152602001908152602001600020600090558273ffffffffffffffffffffffffffffffffffffffff163373ffffffffffffffffffffffffffffffffffffffff167fe62a777dbd48d3912f68a1b9445813ee02bc3ac18b97dc129ca462cc77bb641b838560405161104c929190614589565b60405180910390a35060016000819055505050565b600060016000838152602001908152602001600020600101549050919050565b600260005414156110c7576040517f08c379a00000000000000000000000000000000000000000000000000000000081526004016110be9061445b565b60405180910390fd5b600260008190555060008214156111165760136040517fede8a59900000000000000000000000000000000000000000000000000000000815260040161110d919061435e565b60405180910390fd5b600c60009054906101000a900473ffffffffffffffffffffffffffffffffffffffff1673ffffffffffffffffffffffffffffffffffffffff16632f8832d6308585856040518563ffffffff1660e01b815260040161117794939291906140e6565b600060405180830381600087803b15801561119157600080fd5b505af11580156111a5573d6000803e3d6000fd5b50505050816002600083815260200190815260200160002060008573ffffffffffffffffffffffffffffffffffffffff1673ffffffffffffffffffffffffffffffffffffffff1681526020019081526020016000206000828254611209919061474c565b9250508190555081600e6000828254611222919061474c565b9250508190555081600f60008573ffffffffffffffffffffffffffffffffffffffff1673ffffffffffffffffffffffffffffffffffffffff1681526020019081526020016000206000828254611278919061474c565b9250508190555081600960009054906101000a900473ffffffffffffffffffffffffffffffffffffffff1673ffffffffffffffffffffffffffffffffffffffff166370a08231306040518263ffffffff1660e01b81526004016112db91906140a2565b60206040518083038186803b1580156112f357600080fd5b505afa158015611307573d6000803e3d6000fd5b505050506040513d601f19601f8201168201806040525081019061132b9190613c08565b101561136c576040517f08c379a00000000000000000000000000000000000000000000000000000000081526004016113639061441b565b60405180910390fd5b6113bb308484600960009054906101000a900473ffffffffffffffffffffffffffffffffffffffff1673ffffffffffffffffffffffffffffffffffffffff166126f9909392919063ffffffff16565b8273ffffffffffffffffffffffffffffffffffffffff167ff3a670cd3af7d64b488926880889d08a8585a138ff455227af6737339a1ec2628383604051611403929190614589565b60405180910390a26001600081905550505050565b61142182611061565b6114328161142d612782565b61278a565b61143c8383612827565b505050565b611449612782565b73ffffffffffffffffffffffffffffffffffffffff168173ffffffffffffffffffffffffffffffffffffffff16146114b6576040517f08c379a00000000000000000000000000000000000000000000000000000000081526004016114ad9061449b565b60405180910390fd5b6114c08282612907565b5050565b600560205281600052604060002081815481106114e057600080fd5b90600052602060002001600091509150505481565b600c60009054906101000a900473ffffffffffffffffffffffffffffffffffffffff1681565b60105481565b60116020528060005260406000206000915090505481565b60078060000154908060010154905082565b60008073f6780c6eCFbF39CE58ac293dC2F00da27c91df4E63b142980a846040518263ffffffff1660e01b815260040161158591906144bb565b60206040518083038186803b15801561159d57600080fd5b505af41580156115b1573d6000803e3d6000fd5b505050506040513d601f19601f820116820180604052508101906115d59190613b28565b61161757600c6040517fede8a59900000000000000000000000000000000000000000000000000000000815260040161160e919061435e565b60405180910390fd5b6002600084815260200190815260200160002060008573ffffffffffffffffffffffffffffffffffffffff1673ffffffffffffffffffffffffffffffffffffffff168152602001908152602001600020546003600085815260200190815260200160002060008673ffffffffffffffffffffffffffffffffffffffff1673ffffffffffffffffffffffffffffffffffffffff16815260200190815260200160002054915091509250929050565b600c60009054906101000a900473ffffffffffffffffffffffffffffffffffffffff1673ffffffffffffffffffffffffffffffffffffffff16630ce6f63030336040518363ffffffff1660e01b81526004016117219291906140bd565b600060405180830381600087803b15801561173b57600080fd5b505af115801561174f573d6000803e3d6000fd5b505050506117a2333083600960009054906101000a900473ffffffffffffffffffffffffffffffffffffffff1673ffffffffffffffffffffffffffffffffffffffff166126f9909392919063ffffffff16565b600a60009054906101000a900473ffffffffffffffffffffffffffffffffffffffff1673ffffffffffffffffffffffffffffffffffffffff166340c10f1933836040518363ffffffff1660e01b81526004016117ff9291906142ae565b600060405180830381600087803b15801561181957600080fd5b505af115801561182d573d6000803e3d6000fd5b505050508060076001016000828254611846919061466b565b925050819055503373ffffffffffffffffffffffffffffffffffffffff167fd5656bd5348ef71585f018f0e1310274a6c223cc991afb5c5c2ee9f42313ad448260405161189391906144d6565b60405180910390a250565b600e5481565b600260005414156118ea576040517f08c379a00000000000000000000000000000000000000000000000000000000081526004016118e19061445b565b60405180910390fd5b600260008190555073f6780c6eCFbF39CE58ac293dC2F00da27c91df4E63b142980a826040518263ffffffff1660e01b815260040161192991906144bb565b60206040518083038186803b15801561194157600080fd5b505af4158015611955573d6000803e3d6000fd5b505050506040513d601f19601f820116820180604052508101906119799190613b28565b6119bb57600c6040517fede8a5990000000000000000000000000000000000000000000000000000000081526004016119b2919061435e565b60405180910390fd5b6000600460008381526020019081526020016000206040518060800160405290816000820154815260200160018201548152602001600282015481526020016003820154815250509050600c60009054906101000a900473ffffffffffffffffffffffffffffffffffffffff1673ffffffffffffffffffffffffffffffffffffffff1663a82585da3086856040518463ffffffff1660e01b8152600401611a64939291906141d1565b600060405180830381600087803b158015611a7e57600080fd5b505af1158015611a92573d6000803e3d6000fd5b50505050600081604001511115611b1a5780604001518310611ae1576000816040018181525050828160200151611ac9919061466b565b81602001818152505082816060018181525050611b15565b828160400151611af1919061474c565b81604001818152505082600760010154611b0b919061466b565b6007600101819055505b611b4d565b828160200151611b2a919061466b565b816020018181525050828160600151611b43919061466b565b8160600181815250505b8060046000848152602001908152602001600020600082015181600001556020820151816001015560408201518160020155606082015181600301559050506000600d60009054906101000a900473ffffffffffffffffffffffffffffffffffffffff1673ffffffffffffffffffffffffffffffffffffffff1663ed4ba59d84846040518363ffffffff1660e01b8152600401611beb92919061451a565b60206040518083038186803b158015611c0357600080fd5b505afa158015611c17573d6000803e3d6000fd5b505050506040513d601f19601f82011682018060405250810190611c3b9190613c08565b90506000611c5282866126d090919063ffffffff16565b905060008186611c62919061466b565b9050806002600087815260200190815260200160002060008973ffffffffffffffffffffffffffffffffffffffff1673ffffffffffffffffffffffffffffffffffffffff1681526020019081526020016000206000828254611cc4919061466b565b9250508190555080600e6000828254611cdd919061466b565b9250508190555080600f60008973ffffffffffffffffffffffffffffffffffffffff1673ffffffffffffffffffffffffffffffffffffffff1681526020019081526020016000206000828254611d33919061466b565b92505081905550611d89873088600960009054906101000a900473ffffffffffffffffffffffffffffffffffffffff1673ffffffffffffffffffffffffffffffffffffffff166126f9909392919063ffffffff16565b8673ffffffffffffffffffffffffffffffffffffffff167f59c246e4b3d64f626b5eac2dd8e3a3c46c4531e9cc40ef4e6f120fcb3df6be1e878488604051611dd3939291906145b2565b60405180910390a2505050506001600081905550505050565b60006001600084815260200190815260200160002060000160008373ffffffffffffffffffffffffffffffffffffffff1673ffffffffffffffffffffffffffffffffffffffff16815260200190815260200160002060009054906101000a900460ff16905092915050565b600b8054611e6490614975565b80601f0160208091040260200160405190810160405280929190818152602001828054611e9090614975565b8015611edd5780601f10611eb257610100808354040283529160200191611edd565b820191906000526020600020905b815481529060010190602001808311611ec057829003601f168201915b505050505081565b600060026000541415611f2d576040517f08c379a0000000000000000000000000000000000000000000000000000000008152600401611f249061445b565b60405180910390fd5b6002600081905550611f4233868686866129e9565b90506001600081905550949350505050565b600a60009054906101000a900473ffffffffffffffffffffffffffffffffffffffff1681565b6000801b81565b60046020528060005260406000206000915090508060000154908060010154908060020154908060030154905084565b6000600c60009054906101000a900473ffffffffffffffffffffffffffffffffffffffff16905090565b600c60009054906101000a900473ffffffffffffffffffffffffffffffffffffffff1673ffffffffffffffffffffffffffffffffffffffff166394e1329d30336040518363ffffffff1660e01b81526004016120389291906140bd565b600060405180830381600087803b15801561205257600080fd5b505af1158015612066573d6000803e3d6000fd5b505050506000600a60009054906101000a900473ffffffffffffffffffffffffffffffffffffffff1673ffffffffffffffffffffffffffffffffffffffff166370a08231336040518263ffffffff1660e01b81526004016120c791906140a2565b60206040518083038186803b1580156120df57600080fd5b505afa1580156120f3573d6000803e3d6000fd5b505050506040513d601f19601f820116820180604052508101906121179190613c08565b905060008290507fffffffffffffffffffffffffffffffffffffffffffffffffffffffffffffffff83141561214a578190505b60076000015481600760010154612161919061474c565b10156121a55760176040517fede8a59900000000000000000000000000000000000000000000000000000000815260040161219c919061435e565b60405180910390fd5b600a60009054906101000a900473ffffffffffffffffffffffffffffffffffffffff1673ffffffffffffffffffffffffffffffffffffffff16639dc29fac33836040518363ffffffff1660e01b81526004016122029291906142ae565b600060405180830381600087803b15801561221c57600080fd5b505af1158015612230573d6000803e3d6000fd5b50505050612283303383600960009054906101000a900473ffffffffffffffffffffffffffffffffffffffff1673ffffffffffffffffffffffffffffffffffffffff166126f9909392919063ffffffff16565b8060076001016000828254612298919061474c565b925050819055503373ffffffffffffffffffffffffffffffffffffffff167f2326675290def598d0fd820ee11f06c58c01b80230ab369044cf0b17dbfdc57f846040516122e591906144d6565b60405180910390a2505050565b600f6020528060005260406000206000915090505481565b60026000541415612350576040517f08c379a00000000000000000000000000000000000000000000000000000000081526004016123479061445b565b60405180910390fd5b60026000819055506123653385858585612d1b565b600160008190555050505050565b6003602052816000526040600020602052806000526040600020600091509150505481565b6123a182611061565b6123b2816123ad612782565b61278a565b6123bc8383612907565b505050565b600073f6780c6eCFbF39CE58ac293dC2F00da27c91df4E63b142980a836040518263ffffffff1660e01b81526004016123fa91906144bb565b60206040518083038186803b15801561241257600080fd5b505af4158015612426573d6000803e3d6000fd5b505050506040513d601f19601f8201168201806040525081019061244a9190613b28565b61248c57600c6040517fede8a599000000000000000000000000000000000000000000000000000000008152600401612483919061435e565b60405180910390fd5b60046000838152602001908152602001600020600001549050919050565b600d60009054906101000a900473ffffffffffffffffffffffffffffffffffffffff1681565b6000801b6124e5816124e0612782565b61278a565b816006819055505050565b6000811480612589575060008373ffffffffffffffffffffffffffffffffffffffff1663dd62ed3e30856040518363ffffffff1660e01b81526004016125379291906140bd565b60206040518083038186803b15801561254f57600080fd5b505afa158015612563573d6000803e3d6000fd5b505050506040513d601f19601f820116820180604052508101906125879190613c08565b145b6125c8576040517f08c379a00000000000000000000000000000000000000000000000000000000081526004016125bf9061447b565b60405180910390fd5b6126498363095ea7b360e01b84846040516024016125e79291906142ae565b604051602081830303815290604052907bffffffffffffffffffffffffffffffffffffffffffffffffffffffff19166020820180517bffffffffffffffffffffffffffffffffffffffffffffffffffffffff838183161783525050505061301a565b505050565b606061265d84846000856130e1565b90509392505050565b60007f01ffc9a7000000000000000000000000000000000000000000000000000000007bffffffffffffffffffffffffffffffffffffffffffffffffffffffff1916827bffffffffffffffffffffffffffffffffffffffffffffffffffffffff1916149050919050565b6000670de0b6b3a764000082846126e791906146f2565b6126f191906146c1565b905092915050565b61277c846323b872dd60e01b85858560405160240161271a939291906141d1565b604051602081830303815290604052907bffffffffffffffffffffffffffffffffffffffffffffffffffffffff19166020820180517bffffffffffffffffffffffffffffffffffffffffffffffffffffffff838183161783525050505061301a565b50505050565b600033905090565b6127948282611dec565b612823576127b98173ffffffffffffffffffffffffffffffffffffffff1660146131f5565b6127c78360001c60206131f5565b6040516020016127d8929190614068565b6040516020818303038152906040526040517f08c379a000000000000000000000000000000000000000000000000000000000815260040161281a9190614379565b60405180910390fd5b5050565b6128318282611dec565b61290357600180600084815260200190815260200160002060000160008373ffffffffffffffffffffffffffffffffffffffff1673ffffffffffffffffffffffffffffffffffffffff16815260200190815260200160002060006101000a81548160ff0219169083151502179055506128a8612782565b73ffffffffffffffffffffffffffffffffffffffff168173ffffffffffffffffffffffffffffffffffffffff16837f2f8788117e7eff1d82e926ec794901d17c78024a50270940304540a733656f0d60405160405180910390a45b5050565b6129118282611dec565b156129e55760006001600084815260200190815260200160002060000160008373ffffffffffffffffffffffffffffffffffffffff1673ffffffffffffffffffffffffffffffffffffffff16815260200190815260200160002060006101000a81548160ff02191690831515021790555061298a612782565b73ffffffffffffffffffffffffffffffffffffffff168173ffffffffffffffffffffffffffffffffffffffff16837ff6391f5c32d9c69d2a47ea670b442974b53935d1edc7fd64eb21e047a839171b60405160405180910390a45b5050565b6000600c60009054906101000a900473ffffffffffffffffffffffffffffffffffffffff1673ffffffffffffffffffffffffffffffffffffffff16632c7c0ae83085898989886040518763ffffffff1660e01b8152600401612a5096959493929190614170565b60006040518083038186803b158015612a6857600080fd5b505afa158015612a7c573d6000803e3d6000fd5b50505050612a8c868686856134ef565b6000600c60009054906101000a900473ffffffffffffffffffffffffffffffffffffffff1673ffffffffffffffffffffffffffffffffffffffff16635efadbd13086886040518463ffffffff1660e01b8152600401612aed939291906141d1565b60206040518083038186803b158015612b0557600080fd5b505afa158015612b19573d6000803e3d6000fd5b505050506040513d601f19601f82011682018060405250810190612b3d9190613c08565b905060008473ffffffffffffffffffffffffffffffffffffffff166355a1ac2e88866040518363ffffffff1660e01b8152600401612b7c9291906142ae565b604080518083038186803b158015612b9357600080fd5b505afa158015612ba7573d6000803e3d6000fd5b505050506040513d601f19601f82011682018060405250810190612bcb9190613ca9565b50905081811015612c1457600a6040517fede8a599000000000000000000000000000000000000000000000000000000008152600401612c0b919061435e565b60405180910390fd5b3073ffffffffffffffffffffffffffffffffffffffff168573ffffffffffffffffffffffffffffffffffffffff161415612c5a57612c553089898588612d1b565b612ccc565b8473ffffffffffffffffffffffffffffffffffffffff1663d2c6d0dc898985886040518563ffffffff1660e01b8152600401612c999493929190614269565b600060405180830381600087803b158015612cb357600080fd5b505af1158015612cc7573d6000803e3d6000fd5b505050505b7f9e76a01ba2e51393f58ccc22c0afc9520815e0cc3f301f7b5d7442fcaee9fdc1888888888689604051612d0596959493929190614208565b60405180910390a1859250505095945050505050565b600c60009054906101000a900473ffffffffffffffffffffffffffffffffffffffff1673ffffffffffffffffffffffffffffffffffffffff1663eafe967b308787876040518563ffffffff1660e01b8152600401612d7c949392919061412b565b60006040518083038186803b158015612d9457600080fd5b505afa158015612da8573d6000803e3d6000fd5b505050506000612dc3600654846126d090919063ffffffff16565b905060008184612dd3919061474c565b9050836002600085815260200190815260200160002060008773ffffffffffffffffffffffffffffffffffffffff1673ffffffffffffffffffffffffffffffffffffffff1681526020019081526020016000206000828254612e35919061474c565b9250508190555060006004600085815260200190815260200160002060405180608001604052908160008201548152602001600182015481526020016002820154815260200160038201548152505090508481602001818151612e98919061474c565b9150818152505080600460008681526020019081526020016000206000820151816000015560208201518160010155604082015181600201556060820151816003015590505084600e6000828254612ef0919061474c565b9250508190555084600f60008873ffffffffffffffffffffffffffffffffffffffff1673ffffffffffffffffffffffffffffffffffffffff1681526020019081526020016000206000828254612f46919061474c565b92505081905550612f9a8783600960009054906101000a900473ffffffffffffffffffffffffffffffffffffffff1673ffffffffffffffffffffffffffffffffffffffff166137b79092919063ffffffff16565b7fe51b546a59a5440500bc9464ab1cb969d07a4508292c32e540ac0f37b644aca887878787604051612fcf9493929190614269565b60405180910390a17f9ee5619a3cc818b40b8727fa0e1b2dbfef2c9c692817ec30f6edd0c9afeab2be30846040516130089291906142ae565b60405180910390a15050505050505050565b600061307c826040518060400160405280602081526020017f5361666545524332303a206c6f772d6c6576656c2063616c6c206661696c65648152508573ffffffffffffffffffffffffffffffffffffffff1661264e9092919063ffffffff16565b90506000815111156130dc578080602001905181019061309c9190613b28565b6130db576040517f08c379a00000000000000000000000000000000000000000000000000000000081526004016130d29061443b565b60405180910390fd5b5b505050565b606082471015613126576040517f08c379a000000000000000000000000000000000000000000000000000000000815260040161311d906143bb565b60405180910390fd5b61312f8561383d565b61316e576040517f08c379a0000000000000000000000000000000000000000000000000000000008152600401613165906143fb565b60405180910390fd5b6000808673ffffffffffffffffffffffffffffffffffffffff1685876040516131979190614051565b60006040518083038185875af1925050503d80600081146131d4576040519150601f19603f3d011682016040523d82523d6000602084013e6131d9565b606091505b50915091506131e9828286613850565b92505050949350505050565b60606000600283600261320891906146f2565b613212919061466b565b67ffffffffffffffff811115613251577f4e487b7100000000000000000000000000000000000000000000000000000000600052604160045260246000fd5b6040519080825280601f01601f1916602001820160405280156132835781602001600182028036833780820191505090505b5090507f3000000000000000000000000000000000000000000000000000000000000000816000815181106132e1577f4e487b7100000000000000000000000000000000000000000000000000000000600052603260045260246000fd5b60200101907effffffffffffffffffffffffffffffffffffffffffffffffffffffffffffff1916908160001a9053507f78000000000000000000000000000000000000000000000000000000000000008160018151811061336b577f4e487b7100000000000000000000000000000000000000000000000000000000600052603260045260246000fd5b60200101907effffffffffffffffffffffffffffffffffffffffffffffffffffffffffffff1916908160001a905350600060018460026133ab91906146f2565b6133b5919061466b565b90505b60018111156134a1577f3031323334353637383961626364656600000000000000000000000000000000600f86166010811061341d577f4e487b7100000000000000000000000000000000000000000000000000000000600052603260045260246000fd5b1a60f81b82828151811061345a577f4e487b7100000000000000000000000000000000000000000000000000000000600052603260045260246000fd5b60200101907effffffffffffffffffffffffffffffffffffffffffffffffffffffffffffff1916908160001a905350600485901c94508061349a9061494b565b90506133b8565b50600084146134e5576040517f08c379a00000000000000000000000000000000000000000000000000000000081526004016134dc9061439b565b60405180910390fd5b8091505092915050565b6000821415613533576040517f08c379a000000000000000000000000000000000000000000000000000000000815260040161352a906143db565b60405180910390fd5b613582843084600960009054906101000a900473ffffffffffffffffffffffffffffffffffffffff1673ffffffffffffffffffffffffffffffffffffffff166126f9909392919063ffffffff16565b60006003600083815260200190815260200160002060008573ffffffffffffffffffffffffffffffffffffffff1673ffffffffffffffffffffffffffffffffffffffff16815260200190815260200160002054905082816135e3919061474c565b6003600084815260200190815260200160002060008673ffffffffffffffffffffffffffffffffffffffff1673ffffffffffffffffffffffffffffffffffffffff1681526020019081526020016000208190555060006004600084815260200190815260200160002060405180608001604052908160008201548152602001600182015481526020016002820154815260200160038201548152505090508381600001818151613693919061474c565b9150818152505080600460008581526020019081526020016000206000820151816000015560208201518160010155604082015181600201556060820151816003015590505083601060008282546136eb919061474c565b9250508190555083601160008773ffffffffffffffffffffffffffffffffffffffff1673ffffffffffffffffffffffffffffffffffffffff1681526020019081526020016000206000828254613741919061474c565b925050819055508473ffffffffffffffffffffffffffffffffffffffff168673ffffffffffffffffffffffffffffffffffffffff167fe62a777dbd48d3912f68a1b9445813ee02bc3ac18b97dc129ca462cc77bb641b86866040516137a7929190614589565b60405180910390a3505050505050565b6138388363a9059cbb60e01b84846040516024016137d69291906142ae565b604051602081830303815290604052907bffffffffffffffffffffffffffffffffffffffffffffffffffffffff19166020820180517bffffffffffffffffffffffffffffffffffffffffffffffffffffffff838183161783525050505061301a565b505050565b600080823b905060008111915050919050565b60608315613860578290506138b0565b6000835111156138735782518084602001fd5b816040517f08c379a00000000000000000000000000000000000000000000000000000000081526004016138a79190614379565b60405180910390fd5b9392505050565b6000813590506138c681614d1e565b92915050565b6000813590506138db81614d35565b92915050565b6000815190506138f081614d4c565b92915050565b60008135905061390581614d63565b92915050565b60008135905061391a81614d7a565b92915050565b60008135905061392f81614d91565b92915050565b60008135905061394481614da8565b92915050565b60008151905061395981614da8565b92915050565b60006020828403121561397157600080fd5b600061397f848285016138b7565b91505092915050565b60008060006060848603121561399d57600080fd5b60006139ab868287016138cc565b93505060206139bc86828701613935565b92505060406139cd86828701613935565b9150509250925092565b600080600080608085870312156139ed57600080fd5b60006139fb878288016138b7565b9450506020613a0c878288016138b7565b9350506040613a1d87828801613935565b9250506060613a2e87828801613935565b91505092959194509250565b60008060408385031215613a4d57600080fd5b6000613a5b858286016138b7565b9250506020613a6c85828601613935565b9150509250929050565b60008060008060808587031215613a8c57600080fd5b6000613a9a878288016138b7565b9450506020613aab87828801613935565b9350506040613abc87828801613920565b9250506060613acd87828801613935565b91505092959194509250565b600080600060608486031215613aee57600080fd5b6000613afc868287016138b7565b9350506020613b0d86828701613935565b9250506040613b1e86828701613935565b9150509250925092565b600060208284031215613b3a57600080fd5b6000613b48848285016138e1565b91505092915050565b600060208284031215613b6357600080fd5b6000613b71848285016138f6565b91505092915050565b60008060408385031215613b8d57600080fd5b6000613b9b858286016138f6565b9250506020613bac858286016138b7565b9150509250929050565b600060208284031215613bc857600080fd5b6000613bd68482850161390b565b91505092915050565b600060208284031215613bf157600080fd5b6000613bff84828501613935565b91505092915050565b600060208284031215613c1a57600080fd5b6000613c288482850161394a565b91505092915050565b60008060408385031215613c4457600080fd5b6000613c5285828601613935565b9250506020613c63858286016138b7565b9150509250929050565b60008060408385031215613c8057600080fd5b6000613c8e85828601613935565b9250506020613c9f85828601613935565b9150509250929050565b60008060408385031215613cbc57600080fd5b6000613cca8582860161394a565b9250506020613cdb8582860161394a565b9150509250929050565b613cee81614852565b82525050565b613cfd8161478a565b82525050565b613d0c816147ae565b82525050565b613d1b816147ba565b82525050565b6000613d2c8261462e565b613d368185614644565b9350613d46818560208601614918565b80840191505092915050565b613d5b81614864565b82525050565b613d6a81614888565b82525050565b613d79816148ac565b82525050565b613d88816148d0565b82525050565b613d97816148e2565b82525050565b6000613da882614639565b613db2818561464f565b9350613dc2818560208601614918565b613dcb81614a7d565b840191505092915050565b6000613de182614639565b613deb8185614660565b9350613dfb818560208601614918565b80840191505092915050565b6000613e1460208361464f565b9150613e1f82614a9b565b602082019050919050565b6000613e3760268361464f565b9150613e4282614ac4565b604082019050919050565b6000613e5a60148361464f565b9150613e6582614b13565b602082019050919050565b6000613e7d601d8361464f565b9150613e8882614b3c565b602082019050919050565b6000613ea060148361464f565b9150613eab82614b65565b602082019050919050565b6000613ec3601783614660565b9150613ece82614b8e565b601782019050919050565b6000613ee6602a8361464f565b9150613ef182614bb7565b604082019050919050565b6000613f09601f8361464f565b9150613f1482614c06565b602082019050919050565b6000613f2c60368361464f565b9150613f3782614c2f565b604082019050919050565b6000613f4f601183614660565b9150613f5a82614c7e565b601182019050919050565b6000613f72602f8361464f565b9150613f7d82614ca7565b604082019050919050565b608082016000820151613f9e6000850182614024565b506020820151613fb16020850182614024565b506040820151613fc46040850182614024565b506060820151613fd76060850182614024565b50505050565b604082016000808301549050613ff2816149a7565b613fff6000860182614024565b5060018301549050614010816149a7565b61401d6020860182614024565b5050505050565b61402d81614848565b82525050565b61403c81614848565b82525050565b61404b81614848565b82525050565b600061405d8284613d21565b915081905092915050565b600061407382613eb6565b915061407f8285613dd6565b915061408a82613f42565b91506140968284613dd6565b91508190509392505050565b60006020820190506140b76000830184613cf4565b92915050565b60006040820190506140d26000830185613cf4565b6140df6020830184613cf4565b9392505050565b60006080820190506140fb6000830187613cf4565b6141086020830186613ce5565b6141156040830185614033565b6141226060830184614033565b95945050505050565b60006080820190506141406000830187613cf4565b61414d6020830186613cf4565b61415a6040830185613cf4565b6141676060830184613cf4565b95945050505050565b600060c0820190506141856000830189613cf4565b6141926020830188613cf4565b61419f6040830187613cf4565b6141ac6060830186613cf4565b6141b96080830185614033565b6141c660a0830184614033565b979650505050505050565b60006060820190506141e66000830186613cf4565b6141f36020830185613cf4565b6142006040830184614033565b949350505050565b600060c08201905061421d6000830189613cf4565b61422a6020830188613cf4565b6142376040830187614033565b6142446060830186613cf4565b6142516080830185614033565b61425e60a0830184614033565b979650505050505050565b600060808201905061427e6000830187613cf4565b61428b6020830186613cf4565b6142986040830185614033565b6142a56060830184614033565b95945050505050565b60006040820190506142c36000830185613cf4565b6142d06020830184614033565b9392505050565b60006020820190506142ec6000830184613d03565b92915050565b60006020820190506143076000830184613d12565b92915050565b60006020820190506143226000830184613d52565b92915050565b600060208201905061433d6000830184613d61565b92915050565b60006020820190506143586000830184613d70565b92915050565b60006020820190506143736000830184613d7f565b92915050565b600060208201905081810360008301526143938184613d9d565b905092915050565b600060208201905081810360008301526143b481613e07565b9050919050565b600060208201905081810360008301526143d481613e2a565b9050919050565b600060208201905081810360008301526143f481613e4d565b9050919050565b6000602082019050818103600083015261441481613e70565b9050919050565b6000602082019050818103600083015261443481613e93565b9050919050565b6000602082019050818103600083015261445481613ed9565b9050919050565b6000602082019050818103600083015261447481613efc565b9050919050565b6000602082019050818103600083015261449481613f1f565b9050919050565b600060208201905081810360008301526144b481613f65565b9050919050565b60006020820190506144d06000830184614042565b92915050565b60006020820190506144eb6000830184614033565b92915050565b60006040820190506145066000830185614033565b6145136020830184613d8e565b9392505050565b600060a08201905061452f6000830185614033565b61453c6020830184613f88565b9392505050565b6000610100820190506145596000830187614033565b6145666020830186613f88565b61457360a0830185613fdd565b61458060e0830184613d03565b95945050505050565b600060408201905061459e6000830185614033565b6145ab6020830184614033565b9392505050565b60006060820190506145c76000830186614033565b6145d46020830185614033565b6145e16040830184614033565b949350505050565b60006080820190506145fe6000830187614033565b61460b6020830186614033565b6146186040830185614033565b6146256060830184614033565b95945050505050565b600081519050919050565b600081519050919050565b600081905092915050565b600082825260208201905092915050565b600081905092915050565b600061467682614848565b915061468183614848565b9250827fffffffffffffffffffffffffffffffffffffffffffffffffffffffffffffffff038211156146b6576146b56149c1565b5b828201905092915050565b60006146cc82614848565b91506146d783614848565b9250826146e7576146e66149f0565b5b828204905092915050565b60006146fd82614848565b915061470883614848565b9250817fffffffffffffffffffffffffffffffffffffffffffffffffffffffffffffffff0483118215151615614741576147406149c1565b5b828202905092915050565b600061475782614848565b915061476283614848565b925082821015614775576147746149c1565b5b828203905092915050565b6000819050919050565b600061479582614828565b9050919050565b60006147a782614828565b9050919050565b60008115159050919050565b6000819050919050565b60007fffffffff0000000000000000000000000000000000000000000000000000000082169050919050565b60006147fb8261478a565b9050919050565b600081905061481082614cf6565b919050565b600081905061482382614d0a565b919050565b600073ffffffffffffffffffffffffffffffffffffffff82169050919050565b6000819050919050565b600061485d826148f4565b9050919050565b600061486f82614876565b9050919050565b600061488182614828565b9050919050565b60006148938261489a565b9050919050565b60006148a582614828565b9050919050565b60006148b7826148be565b9050919050565b60006148c982614828565b9050919050565b60006148db82614802565b9050919050565b60006148ed82614815565b9050919050565b60006148ff82614906565b9050919050565b600061491182614828565b9050919050565b60005b8381101561493657808201518184015260208101905061491b565b83811115614945576000848401525b50505050565b600061495682614848565b9150600082141561496a576149696149c1565b5b600182039050919050565b6000600282049050600182168061498d57607f821691505b602082108114156149a1576149a0614a4e565b5b50919050565b60006149ba6149b583614a8e565b614780565b9050919050565b7f4e487b7100000000000000000000000000000000000000000000000000000000600052601160045260246000fd5b7f4e487b7100000000000000000000000000000000000000000000000000000000600052601260045260246000fd5b7f4e487b7100000000000000000000000000000000000000000000000000000000600052602160045260246000fd5b7f4e487b7100000000000000000000000000000000000000000000000000000000600052602260045260246000fd5b6000601f19601f8301169050919050565b60008160001c9050919050565b7f537472696e67733a20686578206c656e67746820696e73756666696369656e74600082015250565b7f416464726573733a20696e73756666696369656e742062616c616e636520666f60008201527f722063616c6c0000000000000000000000000000000000000000000000000000602082015250565b7f596f752063616e2774207265706179207a65726f000000000000000000000000600082015250565b7f416464726573733a2063616c6c20746f206e6f6e2d636f6e7472616374000000600082015250565b7f4e6f7420656e6f756768206c6971756964697479000000000000000000000000600082015250565b7f416363657373436f6e74726f6c3a206163636f756e7420000000000000000000600082015250565b7f5361666545524332303a204552433230206f7065726174696f6e20646964206e60008201527f6f74207375636365656400000000000000000000000000000000000000000000602082015250565b7f5265656e7472616e637947756172643a207265656e7472616e742063616c6c00600082015250565b7f5361666545524332303a20617070726f76652066726f6d206e6f6e2d7a65726f60008201527f20746f206e6f6e2d7a65726f20616c6c6f77616e636500000000000000000000602082015250565b7f206973206d697373696e6720726f6c6520000000000000000000000000000000600082015250565b7f416363657373436f6e74726f6c3a2063616e206f6e6c792072656e6f756e636560008201527f20726f6c657320666f722073656c660000000000000000000000000000000000602082015250565b60188110614d0757614d06614a1f565b5b50565b60048110614d1b57614d1a614a1f565b5b50565b614d278161478a565b8114614d3257600080fd5b50565b614d3e8161479c565b8114614d4957600080fd5b50565b614d55816147ae565b8114614d6057600080fd5b50565b614d6c816147ba565b8114614d7757600080fd5b50565b614d83816147c4565b8114614d8e57600080fd5b50565b614d9a816147f0565b8114614da557600080fd5b50565b614db181614848565b8114614dbc57600080fd5b5056fea26469706673582212202eb462785a1a87abfd1b560ed09f367d80989bdaa4e42b9c0d6b26d7a16acfdc64736f6c63430008040033",
  "deployedBytecode": "0x608060405234801561001057600080fd5b50600436106101f05760003560e01c80637dbca3531161010f578063b7f394c0116100a2578063d547741f11610071578063d547741f146105f6578063ea1cd41f14610612578063f3fdb15a14610642578063fef0bec814610660576101f0565b8063b7f394c01461055e578063c84ad1be1461057a578063d2c6d0dc146105aa578063d2cdcad3146105c6576101f0565b8063953d9cf1116100de578063953d9cf1146104d1578063a217fddf146104ef578063ac4afa381461050d578063b72ddee914610540576101f0565b80637dbca3531461043757806391d148541461045357806391f3e472146104835780639457be23146104a1576101f0565b80633c5b1c59116101875780634b728f89116101565780634b728f89146103ad57806355a1ac2e146103cc5780636135600f146103fd5780637d88209714610419576101f0565b80633c5b1c59146103115780633ec045a61461034157806347bd37181461035f57806348cdbe071461037d576101f0565b8063248a9ca3116101c3578063248a9ca31461028d5780632b83cccd146102bd5780632f2ff15d146102d957806336568abe146102f5576101f0565b806301ffc9a7146101f55780630526b7d5146102255780630ecbcdab1461025557806322867d7814610271575b600080fd5b61020f600480360381019061020a9190613bb6565b61067c565b60405161021c91906142d7565b60405180910390f35b61023f600480360381019061023a9190613c31565b6106f6565b60405161024c91906144d6565b60405180910390f35b61026f600480360381019061026a9190613c6d565b61071b565b005b61028b60048036038101906102869190613a3a565b610da9565b005b6102a760048036038101906102a29190613b51565b611061565b6040516102b491906142f2565b60405180910390f35b6102d760048036038101906102d29190613988565b611081565b005b6102f360048036038101906102ee9190613b7a565b611418565b005b61030f600480360381019061030a9190613b7a565b611441565b005b61032b60048036038101906103269190613a3a565b6114c4565b60405161033891906144d6565b60405180910390f35b6103496114f5565b604051610356919061430d565b60405180910390f35b61036761151b565b60405161037491906144d6565b60405180910390f35b6103976004803603810190610392919061395f565b611521565b6040516103a491906144d6565b60405180910390f35b6103b5611539565b6040516103c3929190614589565b60405180910390f35b6103e660048036038101906103e19190613a3a565b61154b565b6040516103f4929190614589565b60405180910390f35b61041760048036038101906104129190613bdf565b6116c4565b005b61042161189e565b60405161042e91906144d6565b60405180910390f35b610451600480360381019061044c9190613ad9565b6118a4565b005b61046d60048036038101906104689190613b7a565b611dec565b60405161047a91906142d7565b60405180910390f35b61048b611e57565b6040516104989190614379565b60405180910390f35b6104bb60048036038101906104b69190613a76565b611ee5565b6040516104c891906144d6565b60405180910390f35b6104d9611f54565b6040516104e69190614328565b60405180910390f35b6104f7611f7a565b60405161050491906142f2565b60405180910390f35b61052760048036038101906105229190613bdf565b611f81565b60405161053794939291906145e9565b60405180910390f35b610548611fb1565b604051610555919061430d565b60405180910390f35b61057860048036038101906105739190613bdf565b611fdb565b005b610594600480360381019061058f919061395f565b6122f2565b6040516105a191906144d6565b60405180910390f35b6105c460048036038101906105bf91906139d7565b61230a565b005b6105e060048036038101906105db9190613c31565b612373565b6040516105ed91906144d6565b60405180910390f35b610610600480360381019061060b9190613b7a565b612398565b005b61062c60048036038101906106279190613bdf565b6123c1565b60405161063991906144d6565b60405180910390f35b61064a6124aa565b6040516106579190614343565b60405180910390f35b61067a60048036038101906106759190613bdf565b6124d0565b005b60007f7965db0b000000000000000000000000000000000000000000000000000000007bffffffffffffffffffffffffffffffffffffffffffffffffffffffff1916827bffffffffffffffffffffffffffffffffffffffffffffffffffffffff191614806106ef57506106ee82612666565b5b9050919050565b6002602052816000526040600020602052806000526040600020600091509150505481565b60026000541415610761576040517f08c379a00000000000000000000000000000000000000000000000000000000081526004016107589061445b565b60405180910390fd5b6002600081905550600073__$90f1fa1b3f91137ac60e95891d324fdd69$__63b142980a836040518263ffffffff1660e01b81526004016107a291906144bb565b60206040518083038186803b1580156107ba57600080fd5b505af41580156107ce573d6000803e3d6000fd5b505050506040513d601f19601f820116820180604052508101906107f29190613b28565b61083457600c6040517fede8a59900000000000000000000000000000000000000000000000000000000815260040161082b919061435e565b60405180910390fd5b600c60009054906101000a900473ffffffffffffffffffffffffffffffffffffffff1673ffffffffffffffffffffffffffffffffffffffff1663806a9f808360026040518363ffffffff1660e01b81526004016108929291906144f1565b60006040518083038186803b1580156108aa57600080fd5b505afa1580156108be573d6000803e3d6000fd5b50505050600060046000848152602001908152602001600020604051806080016040529081600082015481526020016001820154815260200160028201548152602001600382015481525050905083816000015161091c919061466b565b8160000181815250508060600151841115610a2e576000600760000154600760010154610949919061474c565b90508082606001518661095c919061474c565b11156109a05760176040517fede8a599000000000000000000000000000000000000000000000000000000008152600401610997919061435e565b60405180910390fd5b8160600151856007600001546109b6919061466b565b6109c0919061474c565b60076000018190555081606001518583604001516109de919061466b565b6109e8919061474c565b8260400181815250508160600151858360200151610a06919061466b565b610a10919061474c565b82602001818152505060008260600181815250506001925050610a48565b838160600151610a3e919061474c565b8160600181815250505b6000600d60009054906101000a900473ffffffffffffffffffffffffffffffffffffffff1673ffffffffffffffffffffffffffffffffffffffff16633b949d9c85846007876040518563ffffffff1660e01b8152600401610aac9493929190614543565b60206040518083038186803b158015610ac457600080fd5b505afa158015610ad8573d6000803e3d6000fd5b505050506040513d601f19601f82011682018060405250810190610afc9190613c08565b90506000610b1382876126d090919063ffffffff16565b905060008187610b23919061466b565b9050600c60009054906101000a900473ffffffffffffffffffffffffffffffffffffffff1673ffffffffffffffffffffffffffffffffffffffff1663059a80083033848a6040518563ffffffff1660e01b8152600401610b869493929190614269565b600060405180830381600087803b158015610ba057600080fd5b505af1158015610bb4573d6000803e3d6000fd5b50505050818460000151610bc8919061466b565b84600001818152505083600460008881526020019081526020016000206000820151816000015560208201518160010155604082015181600201556060820151816003015590505060008288610c1e919061466b565b9050806003600089815260200190815260200160002060003373ffffffffffffffffffffffffffffffffffffffff1673ffffffffffffffffffffffffffffffffffffffff1681526020019081526020016000206000828254610c80919061466b565b925050819055508060106000828254610c99919061466b565b9250508190555080601160003373ffffffffffffffffffffffffffffffffffffffff1673ffffffffffffffffffffffffffffffffffffffff1681526020019081526020016000206000828254610cef919061466b565b92505081905550610d4530338a600960009054906101000a900473ffffffffffffffffffffffffffffffffffffffff1673ffffffffffffffffffffffffffffffffffffffff166126f9909392919063ffffffff16565b3373ffffffffffffffffffffffffffffffffffffffff167fc4381c9c7b508979896c55381c1cb8c2aef28d753cff7661f9cd87b9a14584f889858a604051610d8f939291906145b2565b60405180910390a250505050505060016000819055505050565b60026000541415610def576040517f08c379a0000000000000000000000000000000000000000000000000000000008152600401610de69061445b565b60405180910390fd5b6002600081905550600c60009054906101000a900473ffffffffffffffffffffffffffffffffffffffff1673ffffffffffffffffffffffffffffffffffffffff16632d409a6730846040518363ffffffff1660e01b8152600401610e549291906140bd565b600060405180830381600087803b158015610e6e57600080fd5b505af1158015610e82573d6000803e3d6000fd5b5050505060006003600083815260200190815260200160002060008473ffffffffffffffffffffffffffffffffffffffff1673ffffffffffffffffffffffffffffffffffffffff168152602001908152602001600020549050610f2a333083600960009054906101000a900473ffffffffffffffffffffffffffffffffffffffff1673ffffffffffffffffffffffffffffffffffffffff166126f9909392919063ffffffff16565b8060106000828254610f3c919061474c565b9250508190555080601160008573ffffffffffffffffffffffffffffffffffffffff1673ffffffffffffffffffffffffffffffffffffffff1681526020019081526020016000206000828254610f92919061474c565b925050819055506003600083815260200190815260200160002060008473ffffffffffffffffffffffffffffffffffffffff1673ffffffffffffffffffffffffffffffffffffffff168152602001908152602001600020600090558273ffffffffffffffffffffffffffffffffffffffff163373ffffffffffffffffffffffffffffffffffffffff167fe62a777dbd48d3912f68a1b9445813ee02bc3ac18b97dc129ca462cc77bb641b838560405161104c929190614589565b60405180910390a35060016000819055505050565b600060016000838152602001908152602001600020600101549050919050565b600260005414156110c7576040517f08c379a00000000000000000000000000000000000000000000000000000000081526004016110be9061445b565b60405180910390fd5b600260008190555060008214156111165760136040517fede8a59900000000000000000000000000000000000000000000000000000000815260040161110d919061435e565b60405180910390fd5b600c60009054906101000a900473ffffffffffffffffffffffffffffffffffffffff1673ffffffffffffffffffffffffffffffffffffffff16632f8832d6308585856040518563ffffffff1660e01b815260040161117794939291906140e6565b600060405180830381600087803b15801561119157600080fd5b505af11580156111a5573d6000803e3d6000fd5b50505050816002600083815260200190815260200160002060008573ffffffffffffffffffffffffffffffffffffffff1673ffffffffffffffffffffffffffffffffffffffff1681526020019081526020016000206000828254611209919061474c565b9250508190555081600e6000828254611222919061474c565b9250508190555081600f60008573ffffffffffffffffffffffffffffffffffffffff1673ffffffffffffffffffffffffffffffffffffffff1681526020019081526020016000206000828254611278919061474c565b9250508190555081600960009054906101000a900473ffffffffffffffffffffffffffffffffffffffff1673ffffffffffffffffffffffffffffffffffffffff166370a08231306040518263ffffffff1660e01b81526004016112db91906140a2565b60206040518083038186803b1580156112f357600080fd5b505afa158015611307573d6000803e3d6000fd5b505050506040513d601f19601f8201168201806040525081019061132b9190613c08565b101561136c576040517f08c379a00000000000000000000000000000000000000000000000000000000081526004016113639061441b565b60405180910390fd5b6113bb308484600960009054906101000a900473ffffffffffffffffffffffffffffffffffffffff1673ffffffffffffffffffffffffffffffffffffffff166126f9909392919063ffffffff16565b8273ffffffffffffffffffffffffffffffffffffffff167ff3a670cd3af7d64b488926880889d08a8585a138ff455227af6737339a1ec2628383604051611403929190614589565b60405180910390a26001600081905550505050565b61142182611061565b6114328161142d612782565b61278a565b61143c8383612827565b505050565b611449612782565b73ffffffffffffffffffffffffffffffffffffffff168173ffffffffffffffffffffffffffffffffffffffff16146114b6576040517f08c379a00000000000000000000000000000000000000000000000000000000081526004016114ad9061449b565b60405180910390fd5b6114c08282612907565b5050565b600560205281600052604060002081815481106114e057600080fd5b90600052602060002001600091509150505481565b600c60009054906101000a900473ffffffffffffffffffffffffffffffffffffffff1681565b60105481565b60116020528060005260406000206000915090505481565b60078060000154908060010154905082565b60008073__$90f1fa1b3f91137ac60e95891d324fdd69$__63b142980a846040518263ffffffff1660e01b815260040161158591906144bb565b60206040518083038186803b15801561159d57600080fd5b505af41580156115b1573d6000803e3d6000fd5b505050506040513d601f19601f820116820180604052508101906115d59190613b28565b61161757600c6040517fede8a59900000000000000000000000000000000000000000000000000000000815260040161160e919061435e565b60405180910390fd5b6002600084815260200190815260200160002060008573ffffffffffffffffffffffffffffffffffffffff1673ffffffffffffffffffffffffffffffffffffffff168152602001908152602001600020546003600085815260200190815260200160002060008673ffffffffffffffffffffffffffffffffffffffff1673ffffffffffffffffffffffffffffffffffffffff16815260200190815260200160002054915091509250929050565b600c60009054906101000a900473ffffffffffffffffffffffffffffffffffffffff1673ffffffffffffffffffffffffffffffffffffffff16630ce6f63030336040518363ffffffff1660e01b81526004016117219291906140bd565b600060405180830381600087803b15801561173b57600080fd5b505af115801561174f573d6000803e3d6000fd5b505050506117a2333083600960009054906101000a900473ffffffffffffffffffffffffffffffffffffffff1673ffffffffffffffffffffffffffffffffffffffff166126f9909392919063ffffffff16565b600a60009054906101000a900473ffffffffffffffffffffffffffffffffffffffff1673ffffffffffffffffffffffffffffffffffffffff166340c10f1933836040518363ffffffff1660e01b81526004016117ff9291906142ae565b600060405180830381600087803b15801561181957600080fd5b505af115801561182d573d6000803e3d6000fd5b505050508060076001016000828254611846919061466b565b925050819055503373ffffffffffffffffffffffffffffffffffffffff167fd5656bd5348ef71585f018f0e1310274a6c223cc991afb5c5c2ee9f42313ad448260405161189391906144d6565b60405180910390a250565b600e5481565b600260005414156118ea576040517f08c379a00000000000000000000000000000000000000000000000000000000081526004016118e19061445b565b60405180910390fd5b600260008190555073__$90f1fa1b3f91137ac60e95891d324fdd69$__63b142980a826040518263ffffffff1660e01b815260040161192991906144bb565b60206040518083038186803b15801561194157600080fd5b505af4158015611955573d6000803e3d6000fd5b505050506040513d601f19601f820116820180604052508101906119799190613b28565b6119bb57600c6040517fede8a5990000000000000000000000000000000000000000000000000000000081526004016119b2919061435e565b60405180910390fd5b6000600460008381526020019081526020016000206040518060800160405290816000820154815260200160018201548152602001600282015481526020016003820154815250509050600c60009054906101000a900473ffffffffffffffffffffffffffffffffffffffff1673ffffffffffffffffffffffffffffffffffffffff1663a82585da3086856040518463ffffffff1660e01b8152600401611a64939291906141d1565b600060405180830381600087803b158015611a7e57600080fd5b505af1158015611a92573d6000803e3d6000fd5b50505050600081604001511115611b1a5780604001518310611ae1576000816040018181525050828160200151611ac9919061466b565b81602001818152505082816060018181525050611b15565b828160400151611af1919061474c565b81604001818152505082600760010154611b0b919061466b565b6007600101819055505b611b4d565b828160200151611b2a919061466b565b816020018181525050828160600151611b43919061466b565b8160600181815250505b8060046000848152602001908152602001600020600082015181600001556020820151816001015560408201518160020155606082015181600301559050506000600d60009054906101000a900473ffffffffffffffffffffffffffffffffffffffff1673ffffffffffffffffffffffffffffffffffffffff1663ed4ba59d84846040518363ffffffff1660e01b8152600401611beb92919061451a565b60206040518083038186803b158015611c0357600080fd5b505afa158015611c17573d6000803e3d6000fd5b505050506040513d601f19601f82011682018060405250810190611c3b9190613c08565b90506000611c5282866126d090919063ffffffff16565b905060008186611c62919061466b565b9050806002600087815260200190815260200160002060008973ffffffffffffffffffffffffffffffffffffffff1673ffffffffffffffffffffffffffffffffffffffff1681526020019081526020016000206000828254611cc4919061466b565b9250508190555080600e6000828254611cdd919061466b565b9250508190555080600f60008973ffffffffffffffffffffffffffffffffffffffff1673ffffffffffffffffffffffffffffffffffffffff1681526020019081526020016000206000828254611d33919061466b565b92505081905550611d89873088600960009054906101000a900473ffffffffffffffffffffffffffffffffffffffff1673ffffffffffffffffffffffffffffffffffffffff166126f9909392919063ffffffff16565b8673ffffffffffffffffffffffffffffffffffffffff167f59c246e4b3d64f626b5eac2dd8e3a3c46c4531e9cc40ef4e6f120fcb3df6be1e878488604051611dd3939291906145b2565b60405180910390a2505050506001600081905550505050565b60006001600084815260200190815260200160002060000160008373ffffffffffffffffffffffffffffffffffffffff1673ffffffffffffffffffffffffffffffffffffffff16815260200190815260200160002060009054906101000a900460ff16905092915050565b600b8054611e6490614975565b80601f0160208091040260200160405190810160405280929190818152602001828054611e9090614975565b8015611edd5780601f10611eb257610100808354040283529160200191611edd565b820191906000526020600020905b815481529060010190602001808311611ec057829003601f168201915b505050505081565b600060026000541415611f2d576040517f08c379a0000000000000000000000000000000000000000000000000000000008152600401611f249061445b565b60405180910390fd5b6002600081905550611f4233868686866129e9565b90506001600081905550949350505050565b600a60009054906101000a900473ffffffffffffffffffffffffffffffffffffffff1681565b6000801b81565b60046020528060005260406000206000915090508060000154908060010154908060020154908060030154905084565b6000600c60009054906101000a900473ffffffffffffffffffffffffffffffffffffffff16905090565b600c60009054906101000a900473ffffffffffffffffffffffffffffffffffffffff1673ffffffffffffffffffffffffffffffffffffffff166394e1329d30336040518363ffffffff1660e01b81526004016120389291906140bd565b600060405180830381600087803b15801561205257600080fd5b505af1158015612066573d6000803e3d6000fd5b505050506000600a60009054906101000a900473ffffffffffffffffffffffffffffffffffffffff1673ffffffffffffffffffffffffffffffffffffffff166370a08231336040518263ffffffff1660e01b81526004016120c791906140a2565b60206040518083038186803b1580156120df57600080fd5b505afa1580156120f3573d6000803e3d6000fd5b505050506040513d601f19601f820116820180604052508101906121179190613c08565b905060008290507fffffffffffffffffffffffffffffffffffffffffffffffffffffffffffffffff83141561214a578190505b60076000015481600760010154612161919061474c565b10156121a55760176040517fede8a59900000000000000000000000000000000000000000000000000000000815260040161219c919061435e565b60405180910390fd5b600a60009054906101000a900473ffffffffffffffffffffffffffffffffffffffff1673ffffffffffffffffffffffffffffffffffffffff16639dc29fac33836040518363ffffffff1660e01b81526004016122029291906142ae565b600060405180830381600087803b15801561221c57600080fd5b505af1158015612230573d6000803e3d6000fd5b50505050612283303383600960009054906101000a900473ffffffffffffffffffffffffffffffffffffffff1673ffffffffffffffffffffffffffffffffffffffff166126f9909392919063ffffffff16565b8060076001016000828254612298919061474c565b925050819055503373ffffffffffffffffffffffffffffffffffffffff167f2326675290def598d0fd820ee11f06c58c01b80230ab369044cf0b17dbfdc57f846040516122e591906144d6565b60405180910390a2505050565b600f6020528060005260406000206000915090505481565b60026000541415612350576040517f08c379a00000000000000000000000000000000000000000000000000000000081526004016123479061445b565b60405180910390fd5b60026000819055506123653385858585612d1b565b600160008190555050505050565b6003602052816000526040600020602052806000526040600020600091509150505481565b6123a182611061565b6123b2816123ad612782565b61278a565b6123bc8383612907565b505050565b600073__$90f1fa1b3f91137ac60e95891d324fdd69$__63b142980a836040518263ffffffff1660e01b81526004016123fa91906144bb565b60206040518083038186803b15801561241257600080fd5b505af4158015612426573d6000803e3d6000fd5b505050506040513d601f19601f8201168201806040525081019061244a9190613b28565b61248c57600c6040517fede8a599000000000000000000000000000000000000000000000000000000008152600401612483919061435e565b60405180910390fd5b60046000838152602001908152602001600020600001549050919050565b600d60009054906101000a900473ffffffffffffffffffffffffffffffffffffffff1681565b6000801b6124e5816124e0612782565b61278a565b816006819055505050565b6000811480612589575060008373ffffffffffffffffffffffffffffffffffffffff1663dd62ed3e30856040518363ffffffff1660e01b81526004016125379291906140bd565b60206040518083038186803b15801561254f57600080fd5b505afa158015612563573d6000803e3d6000fd5b505050506040513d601f19601f820116820180604052508101906125879190613c08565b145b6125c8576040517f08c379a00000000000000000000000000000000000000000000000000000000081526004016125bf9061447b565b60405180910390fd5b6126498363095ea7b360e01b84846040516024016125e79291906142ae565b604051602081830303815290604052907bffffffffffffffffffffffffffffffffffffffffffffffffffffffff19166020820180517bffffffffffffffffffffffffffffffffffffffffffffffffffffffff838183161783525050505061301a565b505050565b606061265d84846000856130e1565b90509392505050565b60007f01ffc9a7000000000000000000000000000000000000000000000000000000007bffffffffffffffffffffffffffffffffffffffffffffffffffffffff1916827bffffffffffffffffffffffffffffffffffffffffffffffffffffffff1916149050919050565b6000670de0b6b3a764000082846126e791906146f2565b6126f191906146c1565b905092915050565b61277c846323b872dd60e01b85858560405160240161271a939291906141d1565b604051602081830303815290604052907bffffffffffffffffffffffffffffffffffffffffffffffffffffffff19166020820180517bffffffffffffffffffffffffffffffffffffffffffffffffffffffff838183161783525050505061301a565b50505050565b600033905090565b6127948282611dec565b612823576127b98173ffffffffffffffffffffffffffffffffffffffff1660146131f5565b6127c78360001c60206131f5565b6040516020016127d8929190614068565b6040516020818303038152906040526040517f08c379a000000000000000000000000000000000000000000000000000000000815260040161281a9190614379565b60405180910390fd5b5050565b6128318282611dec565b61290357600180600084815260200190815260200160002060000160008373ffffffffffffffffffffffffffffffffffffffff1673ffffffffffffffffffffffffffffffffffffffff16815260200190815260200160002060006101000a81548160ff0219169083151502179055506128a8612782565b73ffffffffffffffffffffffffffffffffffffffff168173ffffffffffffffffffffffffffffffffffffffff16837f2f8788117e7eff1d82e926ec794901d17c78024a50270940304540a733656f0d60405160405180910390a45b5050565b6129118282611dec565b156129e55760006001600084815260200190815260200160002060000160008373ffffffffffffffffffffffffffffffffffffffff1673ffffffffffffffffffffffffffffffffffffffff16815260200190815260200160002060006101000a81548160ff02191690831515021790555061298a612782565b73ffffffffffffffffffffffffffffffffffffffff168173ffffffffffffffffffffffffffffffffffffffff16837ff6391f5c32d9c69d2a47ea670b442974b53935d1edc7fd64eb21e047a839171b60405160405180910390a45b5050565b6000600c60009054906101000a900473ffffffffffffffffffffffffffffffffffffffff1673ffffffffffffffffffffffffffffffffffffffff16632c7c0ae83085898989886040518763ffffffff1660e01b8152600401612a5096959493929190614170565b60006040518083038186803b158015612a6857600080fd5b505afa158015612a7c573d6000803e3d6000fd5b50505050612a8c868686856134ef565b6000600c60009054906101000a900473ffffffffffffffffffffffffffffffffffffffff1673ffffffffffffffffffffffffffffffffffffffff16635efadbd13086886040518463ffffffff1660e01b8152600401612aed939291906141d1565b60206040518083038186803b158015612b0557600080fd5b505afa158015612b19573d6000803e3d6000fd5b505050506040513d601f19601f82011682018060405250810190612b3d9190613c08565b905060008473ffffffffffffffffffffffffffffffffffffffff166355a1ac2e88866040518363ffffffff1660e01b8152600401612b7c9291906142ae565b604080518083038186803b158015612b9357600080fd5b505afa158015612ba7573d6000803e3d6000fd5b505050506040513d601f19601f82011682018060405250810190612bcb9190613ca9565b50905081811015612c1457600a6040517fede8a599000000000000000000000000000000000000000000000000000000008152600401612c0b919061435e565b60405180910390fd5b3073ffffffffffffffffffffffffffffffffffffffff168573ffffffffffffffffffffffffffffffffffffffff161415612c5a57612c553089898588612d1b565b612ccc565b8473ffffffffffffffffffffffffffffffffffffffff1663d2c6d0dc898985886040518563ffffffff1660e01b8152600401612c999493929190614269565b600060405180830381600087803b158015612cb357600080fd5b505af1158015612cc7573d6000803e3d6000fd5b505050505b7f9e76a01ba2e51393f58ccc22c0afc9520815e0cc3f301f7b5d7442fcaee9fdc1888888888689604051612d0596959493929190614208565b60405180910390a1859250505095945050505050565b600c60009054906101000a900473ffffffffffffffffffffffffffffffffffffffff1673ffffffffffffffffffffffffffffffffffffffff1663eafe967b308787876040518563ffffffff1660e01b8152600401612d7c949392919061412b565b60006040518083038186803b158015612d9457600080fd5b505afa158015612da8573d6000803e3d6000fd5b505050506000612dc3600654846126d090919063ffffffff16565b905060008184612dd3919061474c565b9050836002600085815260200190815260200160002060008773ffffffffffffffffffffffffffffffffffffffff1673ffffffffffffffffffffffffffffffffffffffff1681526020019081526020016000206000828254612e35919061474c565b9250508190555060006004600085815260200190815260200160002060405180608001604052908160008201548152602001600182015481526020016002820154815260200160038201548152505090508481602001818151612e98919061474c565b9150818152505080600460008681526020019081526020016000206000820151816000015560208201518160010155604082015181600201556060820151816003015590505084600e6000828254612ef0919061474c565b9250508190555084600f60008873ffffffffffffffffffffffffffffffffffffffff1673ffffffffffffffffffffffffffffffffffffffff1681526020019081526020016000206000828254612f46919061474c565b92505081905550612f9a8783600960009054906101000a900473ffffffffffffffffffffffffffffffffffffffff1673ffffffffffffffffffffffffffffffffffffffff166137b79092919063ffffffff16565b7fe51b546a59a5440500bc9464ab1cb969d07a4508292c32e540ac0f37b644aca887878787604051612fcf9493929190614269565b60405180910390a17f9ee5619a3cc818b40b8727fa0e1b2dbfef2c9c692817ec30f6edd0c9afeab2be30846040516130089291906142ae565b60405180910390a15050505050505050565b600061307c826040518060400160405280602081526020017f5361666545524332303a206c6f772d6c6576656c2063616c6c206661696c65648152508573ffffffffffffffffffffffffffffffffffffffff1661264e9092919063ffffffff16565b90506000815111156130dc578080602001905181019061309c9190613b28565b6130db576040517f08c379a00000000000000000000000000000000000000000000000000000000081526004016130d29061443b565b60405180910390fd5b5b505050565b606082471015613126576040517f08c379a000000000000000000000000000000000000000000000000000000000815260040161311d906143bb565b60405180910390fd5b61312f8561383d565b61316e576040517f08c379a0000000000000000000000000000000000000000000000000000000008152600401613165906143fb565b60405180910390fd5b6000808673ffffffffffffffffffffffffffffffffffffffff1685876040516131979190614051565b60006040518083038185875af1925050503d80600081146131d4576040519150601f19603f3d011682016040523d82523d6000602084013e6131d9565b606091505b50915091506131e9828286613850565b92505050949350505050565b60606000600283600261320891906146f2565b613212919061466b565b67ffffffffffffffff811115613251577f4e487b7100000000000000000000000000000000000000000000000000000000600052604160045260246000fd5b6040519080825280601f01601f1916602001820160405280156132835781602001600182028036833780820191505090505b5090507f3000000000000000000000000000000000000000000000000000000000000000816000815181106132e1577f4e487b7100000000000000000000000000000000000000000000000000000000600052603260045260246000fd5b60200101907effffffffffffffffffffffffffffffffffffffffffffffffffffffffffffff1916908160001a9053507f78000000000000000000000000000000000000000000000000000000000000008160018151811061336b577f4e487b7100000000000000000000000000000000000000000000000000000000600052603260045260246000fd5b60200101907effffffffffffffffffffffffffffffffffffffffffffffffffffffffffffff1916908160001a905350600060018460026133ab91906146f2565b6133b5919061466b565b90505b60018111156134a1577f3031323334353637383961626364656600000000000000000000000000000000600f86166010811061341d577f4e487b7100000000000000000000000000000000000000000000000000000000600052603260045260246000fd5b1a60f81b82828151811061345a577f4e487b7100000000000000000000000000000000000000000000000000000000600052603260045260246000fd5b60200101907effffffffffffffffffffffffffffffffffffffffffffffffffffffffffffff1916908160001a905350600485901c94508061349a9061494b565b90506133b8565b50600084146134e5576040517f08c379a00000000000000000000000000000000000000000000000000000000081526004016134dc9061439b565b60405180910390fd5b8091505092915050565b6000821415613533576040517f08c379a000000000000000000000000000000000000000000000000000000000815260040161352a906143db565b60405180910390fd5b613582843084600960009054906101000a900473ffffffffffffffffffffffffffffffffffffffff1673ffffffffffffffffffffffffffffffffffffffff166126f9909392919063ffffffff16565b60006003600083815260200190815260200160002060008573ffffffffffffffffffffffffffffffffffffffff1673ffffffffffffffffffffffffffffffffffffffff16815260200190815260200160002054905082816135e3919061474c565b6003600084815260200190815260200160002060008673ffffffffffffffffffffffffffffffffffffffff1673ffffffffffffffffffffffffffffffffffffffff1681526020019081526020016000208190555060006004600084815260200190815260200160002060405180608001604052908160008201548152602001600182015481526020016002820154815260200160038201548152505090508381600001818151613693919061474c565b9150818152505080600460008581526020019081526020016000206000820151816000015560208201518160010155604082015181600201556060820151816003015590505083601060008282546136eb919061474c565b9250508190555083601160008773ffffffffffffffffffffffffffffffffffffffff1673ffffffffffffffffffffffffffffffffffffffff1681526020019081526020016000206000828254613741919061474c565b925050819055508473ffffffffffffffffffffffffffffffffffffffff168673ffffffffffffffffffffffffffffffffffffffff167fe62a777dbd48d3912f68a1b9445813ee02bc3ac18b97dc129ca462cc77bb641b86866040516137a7929190614589565b60405180910390a3505050505050565b6138388363a9059cbb60e01b84846040516024016137d69291906142ae565b604051602081830303815290604052907bffffffffffffffffffffffffffffffffffffffffffffffffffffffff19166020820180517bffffffffffffffffffffffffffffffffffffffffffffffffffffffff838183161783525050505061301a565b505050565b600080823b905060008111915050919050565b60608315613860578290506138b0565b6000835111156138735782518084602001fd5b816040517f08c379a00000000000000000000000000000000000000000000000000000000081526004016138a79190614379565b60405180910390fd5b9392505050565b6000813590506138c681614d1e565b92915050565b6000813590506138db81614d35565b92915050565b6000815190506138f081614d4c565b92915050565b60008135905061390581614d63565b92915050565b60008135905061391a81614d7a565b92915050565b60008135905061392f81614d91565b92915050565b60008135905061394481614da8565b92915050565b60008151905061395981614da8565b92915050565b60006020828403121561397157600080fd5b600061397f848285016138b7565b91505092915050565b60008060006060848603121561399d57600080fd5b60006139ab868287016138cc565b93505060206139bc86828701613935565b92505060406139cd86828701613935565b9150509250925092565b600080600080608085870312156139ed57600080fd5b60006139fb878288016138b7565b9450506020613a0c878288016138b7565b9350506040613a1d87828801613935565b9250506060613a2e87828801613935565b91505092959194509250565b60008060408385031215613a4d57600080fd5b6000613a5b858286016138b7565b9250506020613a6c85828601613935565b9150509250929050565b60008060008060808587031215613a8c57600080fd5b6000613a9a878288016138b7565b9450506020613aab87828801613935565b9350506040613abc87828801613920565b9250506060613acd87828801613935565b91505092959194509250565b600080600060608486031215613aee57600080fd5b6000613afc868287016138b7565b9350506020613b0d86828701613935565b9250506040613b1e86828701613935565b9150509250925092565b600060208284031215613b3a57600080fd5b6000613b48848285016138e1565b91505092915050565b600060208284031215613b6357600080fd5b6000613b71848285016138f6565b91505092915050565b60008060408385031215613b8d57600080fd5b6000613b9b858286016138f6565b9250506020613bac858286016138b7565b9150509250929050565b600060208284031215613bc857600080fd5b6000613bd68482850161390b565b91505092915050565b600060208284031215613bf157600080fd5b6000613bff84828501613935565b91505092915050565b600060208284031215613c1a57600080fd5b6000613c288482850161394a565b91505092915050565b60008060408385031215613c4457600080fd5b6000613c5285828601613935565b9250506020613c63858286016138b7565b9150509250929050565b60008060408385031215613c8057600080fd5b6000613c8e85828601613935565b9250506020613c9f85828601613935565b9150509250929050565b60008060408385031215613cbc57600080fd5b6000613cca8582860161394a565b9250506020613cdb8582860161394a565b9150509250929050565b613cee81614852565b82525050565b613cfd8161478a565b82525050565b613d0c816147ae565b82525050565b613d1b816147ba565b82525050565b6000613d2c8261462e565b613d368185614644565b9350613d46818560208601614918565b80840191505092915050565b613d5b81614864565b82525050565b613d6a81614888565b82525050565b613d79816148ac565b82525050565b613d88816148d0565b82525050565b613d97816148e2565b82525050565b6000613da882614639565b613db2818561464f565b9350613dc2818560208601614918565b613dcb81614a7d565b840191505092915050565b6000613de182614639565b613deb8185614660565b9350613dfb818560208601614918565b80840191505092915050565b6000613e1460208361464f565b9150613e1f82614a9b565b602082019050919050565b6000613e3760268361464f565b9150613e4282614ac4565b604082019050919050565b6000613e5a60148361464f565b9150613e6582614b13565b602082019050919050565b6000613e7d601d8361464f565b9150613e8882614b3c565b602082019050919050565b6000613ea060148361464f565b9150613eab82614b65565b602082019050919050565b6000613ec3601783614660565b9150613ece82614b8e565b601782019050919050565b6000613ee6602a8361464f565b9150613ef182614bb7565b604082019050919050565b6000613f09601f8361464f565b9150613f1482614c06565b602082019050919050565b6000613f2c60368361464f565b9150613f3782614c2f565b604082019050919050565b6000613f4f601183614660565b9150613f5a82614c7e565b601182019050919050565b6000613f72602f8361464f565b9150613f7d82614ca7565b604082019050919050565b608082016000820151613f9e6000850182614024565b506020820151613fb16020850182614024565b506040820151613fc46040850182614024565b506060820151613fd76060850182614024565b50505050565b604082016000808301549050613ff2816149a7565b613fff6000860182614024565b5060018301549050614010816149a7565b61401d6020860182614024565b5050505050565b61402d81614848565b82525050565b61403c81614848565b82525050565b61404b81614848565b82525050565b600061405d8284613d21565b915081905092915050565b600061407382613eb6565b915061407f8285613dd6565b915061408a82613f42565b91506140968284613dd6565b91508190509392505050565b60006020820190506140b76000830184613cf4565b92915050565b60006040820190506140d26000830185613cf4565b6140df6020830184613cf4565b9392505050565b60006080820190506140fb6000830187613cf4565b6141086020830186613ce5565b6141156040830185614033565b6141226060830184614033565b95945050505050565b60006080820190506141406000830187613cf4565b61414d6020830186613cf4565b61415a6040830185613cf4565b6141676060830184613cf4565b95945050505050565b600060c0820190506141856000830189613cf4565b6141926020830188613cf4565b61419f6040830187613cf4565b6141ac6060830186613cf4565b6141b96080830185614033565b6141c660a0830184614033565b979650505050505050565b60006060820190506141e66000830186613cf4565b6141f36020830185613cf4565b6142006040830184614033565b949350505050565b600060c08201905061421d6000830189613cf4565b61422a6020830188613cf4565b6142376040830187614033565b6142446060830186613cf4565b6142516080830185614033565b61425e60a0830184614033565b979650505050505050565b600060808201905061427e6000830187613cf4565b61428b6020830186613cf4565b6142986040830185614033565b6142a56060830184614033565b95945050505050565b60006040820190506142c36000830185613cf4565b6142d06020830184614033565b9392505050565b60006020820190506142ec6000830184613d03565b92915050565b60006020820190506143076000830184613d12565b92915050565b60006020820190506143226000830184613d52565b92915050565b600060208201905061433d6000830184613d61565b92915050565b60006020820190506143586000830184613d70565b92915050565b60006020820190506143736000830184613d7f565b92915050565b600060208201905081810360008301526143938184613d9d565b905092915050565b600060208201905081810360008301526143b481613e07565b9050919050565b600060208201905081810360008301526143d481613e2a565b9050919050565b600060208201905081810360008301526143f481613e4d565b9050919050565b6000602082019050818103600083015261441481613e70565b9050919050565b6000602082019050818103600083015261443481613e93565b9050919050565b6000602082019050818103600083015261445481613ed9565b9050919050565b6000602082019050818103600083015261447481613efc565b9050919050565b6000602082019050818103600083015261449481613f1f565b9050919050565b600060208201905081810360008301526144b481613f65565b9050919050565b60006020820190506144d06000830184614042565b92915050565b60006020820190506144eb6000830184614033565b92915050565b60006040820190506145066000830185614033565b6145136020830184613d8e565b9392505050565b600060a08201905061452f6000830185614033565b61453c6020830184613f88565b9392505050565b6000610100820190506145596000830187614033565b6145666020830186613f88565b61457360a0830185613fdd565b61458060e0830184613d03565b95945050505050565b600060408201905061459e6000830185614033565b6145ab6020830184614033565b9392505050565b60006060820190506145c76000830186614033565b6145d46020830185614033565b6145e16040830184614033565b949350505050565b60006080820190506145fe6000830187614033565b61460b6020830186614033565b6146186040830185614033565b6146256060830184614033565b95945050505050565b600081519050919050565b600081519050919050565b600081905092915050565b600082825260208201905092915050565b600081905092915050565b600061467682614848565b915061468183614848565b9250827fffffffffffffffffffffffffffffffffffffffffffffffffffffffffffffffff038211156146b6576146b56149c1565b5b828201905092915050565b60006146cc82614848565b91506146d783614848565b9250826146e7576146e66149f0565b5b828204905092915050565b60006146fd82614848565b915061470883614848565b9250817fffffffffffffffffffffffffffffffffffffffffffffffffffffffffffffffff0483118215151615614741576147406149c1565b5b828202905092915050565b600061475782614848565b915061476283614848565b925082821015614775576147746149c1565b5b828203905092915050565b6000819050919050565b600061479582614828565b9050919050565b60006147a782614828565b9050919050565b60008115159050919050565b6000819050919050565b60007fffffffff0000000000000000000000000000000000000000000000000000000082169050919050565b60006147fb8261478a565b9050919050565b600081905061481082614cf6565b919050565b600081905061482382614d0a565b919050565b600073ffffffffffffffffffffffffffffffffffffffff82169050919050565b6000819050919050565b600061485d826148f4565b9050919050565b600061486f82614876565b9050919050565b600061488182614828565b9050919050565b60006148938261489a565b9050919050565b60006148a582614828565b9050919050565b60006148b7826148be565b9050919050565b60006148c982614828565b9050919050565b60006148db82614802565b9050919050565b60006148ed82614815565b9050919050565b60006148ff82614906565b9050919050565b600061491182614828565b9050919050565b60005b8381101561493657808201518184015260208101905061491b565b83811115614945576000848401525b50505050565b600061495682614848565b9150600082141561496a576149696149c1565b5b600182039050919050565b6000600282049050600182168061498d57607f821691505b602082108114156149a1576149a0614a4e565b5b50919050565b60006149ba6149b583614a8e565b614780565b9050919050565b7f4e487b7100000000000000000000000000000000000000000000000000000000600052601160045260246000fd5b7f4e487b7100000000000000000000000000000000000000000000000000000000600052601260045260246000fd5b7f4e487b7100000000000000000000000000000000000000000000000000000000600052602160045260246000fd5b7f4e487b7100000000000000000000000000000000000000000000000000000000600052602260045260246000fd5b6000601f19601f8301169050919050565b60008160001c9050919050565b7f537472696e67733a20686578206c656e67746820696e73756666696369656e74600082015250565b7f416464726573733a20696e73756666696369656e742062616c616e636520666f60008201527f722063616c6c0000000000000000000000000000000000000000000000000000602082015250565b7f596f752063616e2774207265706179207a65726f000000000000000000000000600082015250565b7f416464726573733a2063616c6c20746f206e6f6e2d636f6e7472616374000000600082015250565b7f4e6f7420656e6f756768206c6971756964697479000000000000000000000000600082015250565b7f416363657373436f6e74726f6c3a206163636f756e7420000000000000000000600082015250565b7f5361666545524332303a204552433230206f7065726174696f6e20646964206e60008201527f6f74207375636365656400000000000000000000000000000000000000000000602082015250565b7f5265656e7472616e637947756172643a207265656e7472616e742063616c6c00600082015250565b7f5361666545524332303a20617070726f76652066726f6d206e6f6e2d7a65726f60008201527f20746f206e6f6e2d7a65726f20616c6c6f77616e636500000000000000000000602082015250565b7f206973206d697373696e6720726f6c6520000000000000000000000000000000600082015250565b7f416363657373436f6e74726f6c3a2063616e206f6e6c792072656e6f756e636560008201527f20726f6c657320666f722073656c660000000000000000000000000000000000602082015250565b60188110614d0757614d06614a1f565b5b50565b60048110614d1b57614d1a614a1f565b5b50565b614d278161478a565b8114614d3257600080fd5b50565b614d3e8161479c565b8114614d4957600080fd5b50565b614d55816147ae565b8114614d6057600080fd5b50565b614d6c816147ba565b8114614d7757600080fd5b50565b614d83816147c4565b8114614d8e57600080fd5b50565b614d9a816147f0565b8114614da557600080fd5b50565b614db181614848565b8114614dbc57600080fd5b5056fea26469706673582212202eb462785a1a87abfd1b560ed09f367d80989bdaa4e42b9c0d6b26d7a16acfdc64736f6c63430008040033",
  "libraries": {
    "TSUtils": "0xf6780c6eCFbF39CE58ac293dC2F00da27c91df4E"
  },
  "devdoc": {
    "events": {
      "Borrowed(address,uint256,uint256,uint256)": {
        "params": {
          "amount": "of the asset that it was borrowed",
          "commission": "is the amount extra that it will need to be paid at                    maturity",
          "maturityDate": "dateID/poolID/maturity in which the user will have                      to repay the loan",
          "to": "address which borrowed the asset"
        }
      },
      "DepositToSmartPool(address,uint256)": {
        "params": {
          "amount": "amount added to the smart pool",
          "user": "address that added a certain amount to the smart pool"
        }
      },
      "LiquidateBorrow(address,address,uint256,address,uint256,uint256)": {
        "params": {
          "borrower": "address which had the original debt",
          "fixedLenderCollateral": "address of the asset that it was seized                               by the liquidator",
          "liquidator": "address which repaid the previously borrowed amount",
          "maturityDate": "poolID where the borrower had an uncollaterized position",
          "repayAmount": "amount of the asset that it was repaid",
          "seizedAmount": "amount seized of the collateral"
        }
      },
      "Redeemed(address,uint256,uint256)": {
        "params": {
          "amount": "of the asset that it was supplied",
          "from": "address which will be collecting the asset",
          "maturityDate": "poolID where the user collected its deposits"
        }
      },
      "Repaid(address,address,uint256,uint256)": {
        "params": {
          "amount": "of the asset that it was repaid",
          "borrower": "address which had the original debt",
          "maturityDate": "poolID where the user repaid its borrowed amounts",
          "payer": "address which repaid the previously borrowed amount"
        }
      },
      "ReservesAdded(address,uint256)": {
        "params": {
          "addAmount": "amount added as reserves as part of the liquidation event",
          "benefactor": "address added a certain amount to its reserves"
        }
      },
      "Seized(address,address,uint256,uint256)": {
        "params": {
          "borrower": "address which had the original debt",
          "liquidator": "address which seized this collateral",
          "maturityDate": "poolID where the borrower lost the amount of collateral",
          "seizedAmount": "amount seized of the collateral"
        }
      },
      "Supplied(address,uint256,uint256,uint256)": {
        "params": {
          "amount": "of the asset that it was supplied",
          "commission": "is the amount extra that it will be collected at maturity",
          "from": "address which supplied the asset",
          "maturityDate": "dateID/poolID/maturity in which the user will be able                      to collect his deposit + his commission"
        }
      },
      "WithdrawFromSmartPool(address,uint256)": {
        "params": {
          "amount": "amount withdrawn to the smart pool",
          "user": "address that withdrew a certain amount from the smart pool"
        }
      }
    },
    "kind": "dev",
    "methods": {
      "borrow(uint256,uint256)": {
        "details": "Lends to a wallet for a certain maturity date/pool",
        "params": {
          "amount": "amount to send to the specified wallet",
          "maturityDate": "maturity date for repayment"
        }
      },
      "depositToSmartPool(uint256)": {
        "details": "Deposits an `amount` of underlying asset into the smart pool, receiving in return overlying eTokens. - E.g. User deposits 100 USDC and gets in return 100 eUSDC",
        "params": {
          "amount": "The amount to be deposited"
        }
      },
      "getAccountSnapshot(address,uint256)": {
        "details": "Gets current snapshot for a wallet in a certain maturity",
        "params": {
          "maturityDate": "maturity date",
          "who": "wallet to return status snapshot in the specified maturity date"
        }
      },
      "getAuditor()": {
        "details": "Gets the auditor contract interface being used to validate positions"
      },
      "getRoleAdmin(bytes32)": {
        "details": "Returns the admin role that controls `role`. See {grantRole} and {revokeRole}. To change a role's admin, use {_setRoleAdmin}."
      },
      "getTotalBorrows(uint256)": {
        "details": "Gets the total amount of borrowed money for a maturityDate",
        "params": {
          "maturityDate": "maturity date"
        }
      },
      "grantRole(bytes32,address)": {
        "details": "Grants `role` to `account`. If `account` had not been already granted `role`, emits a {RoleGranted} event. Requirements: - the caller must have ``role``'s admin role."
      },
      "hasRole(bytes32,address)": {
        "details": "Returns `true` if `account` has been granted `role`."
      },
      "liquidate(address,uint256,address,uint256)": {
        "details": "Msg.sender liquidates a borrower's position and repays a certain amount of collateral      for a maturity date, seizing a part of borrower's collateral",
        "params": {
          "borrower": "wallet that has an outstanding debt for a certain maturity date",
          "fixedLenderCollateral": "address of fixedLender from which the collateral will be seized to give the liquidator",
          "maturityDate": "maturity date for which the position will be liquidated",
          "repayAmount": "amount to be repaid by liquidator(msg.sender)"
        }
      },
      "redeem(address,uint256,uint256)": {
        "details": "The pool that the user is trying to retrieve the money should be matured",
        "params": {
          "maturityDate": "The matured date for which we're trying to retrieve the funds",
          "redeemAmount": "The number of underlying tokens to receive",
          "redeemer": "The address of the account which is redeeming the tokens"
        }
      },
      "renounceRole(bytes32,address)": {
        "details": "Revokes `role` from the calling account. Roles are often managed via {grantRole} and {revokeRole}: this function's purpose is to provide a mechanism for accounts to lose their privileges if they are compromised (such as when a trusted device is misplaced). If the calling account had been granted `role`, emits a {RoleRevoked} event. Requirements: - the caller must be `account`."
      },
      "repay(address,uint256)": {
        "details": "The pool that the user is trying to repay to should be matured",
        "params": {
          "borrower": "The address of the account that has the debt",
          "maturityDate": "The matured date where the debt is located"
        }
      },
      "revokeRole(bytes32,address)": {
        "details": "Revokes `role` from `account`. If `account` had been granted `role`, emits a {RoleRevoked} event. Requirements: - the caller must have ``role``'s admin role."
      },
      "seize(address,address,uint256,uint256)": {
        "details": "Public function for liquidator to seize borrowers tokens in a certain maturity date.      This function will only be called from another FixedLender, on `liquidation` calls.      That's why msg.sender needs to be passed to the private function (to be validated as a market)",
        "params": {
          "borrower": "address from which the tokens will be seized",
          "liquidator": "address which will receive the seized tokens",
          "maturityDate": "maturity date from where the tokens will be removed. Used to remove liquidity.",
          "seizeAmount": "amount to be removed from borrower's posession"
        }
      },
      "supply(address,uint256,uint256)": {
        "details": "Supplies a certain amount to the protocol for      a certain maturity date/pool",
        "params": {
          "amount": "amount to receive from the specified wallet",
          "from": "wallet to receive amount from",
          "maturityDate": "maturity date / pool ID"
        }
      },
      "supportsInterface(bytes4)": {
        "details": "See {IERC165-supportsInterface}."
      },
      "withdrawFromSmartPool(uint256)": {
        "details": "Withdraws an `amount` of underlying asset from the smart pool, burning the equivalent eTokens owned - E.g. User has 100 eUSDC, calls withdraw() and receives 100 USDC, burning the 100 eUSDC",
        "params": {
          "amount": "The underlying amount to be withdrawn - Send the value type(uint256).max in order to withdraw the whole eToken balance"
        }
      }
    },
    "version": 1
  },
  "userdoc": {
    "events": {
      "Borrowed(address,uint256,uint256,uint256)": {
        "notice": "Event emitted when a user borrows amount of an asset from a          certain maturity date"
      },
      "DepositToSmartPool(address,uint256)": {
        "notice": "Event emitted when a user contributed to the smart pool"
      },
      "LiquidateBorrow(address,address,uint256,address,uint256,uint256)": {
        "notice": "Event emitted when a user's position had a liquidation"
      },
      "Redeemed(address,uint256,uint256)": {
        "notice": "Event emitted when a user collects its deposits after maturity"
      },
      "Repaid(address,address,uint256,uint256)": {
        "notice": "Event emitted when a user repays its borrows after maturity"
      },
      "ReservesAdded(address,uint256)": {
        "notice": "Event emitted reserves have been added to the protocol"
      },
      "Seized(address,address,uint256,uint256)": {
        "notice": "Event emitted when a user's collateral has been seized"
      },
      "Supplied(address,uint256,uint256,uint256)": {
        "notice": "Event emitted when a user deposits an amount of an asset to a         certain maturity date collecting a commission at the end of the         period"
      },
      "WithdrawFromSmartPool(address,uint256)": {
        "notice": "Event emitted when a user contributed to the smart pool"
      }
    },
    "kind": "user",
    "methods": {
      "liquidate(address,uint256,address,uint256)": {
        "notice": "Function to liquidate an uncollaterized position"
      },
      "redeem(address,uint256,uint256)": {
        "notice": "User collects a certain amount of underlying asset after having         supplied tokens until a certain maturity date"
      },
      "repay(address,uint256)": {
        "notice": "Sender repays borrower's debt for a maturity date"
      },
      "seize(address,address,uint256,uint256)": {
        "notice": "Public function to seize a certain amount of tokens"
      }
    },
    "version": 1
  },
  "storageLayout": {
    "storage": [
      {
        "astId": 390,
        "contract": "contracts/FixedLender.sol:FixedLender",
        "label": "_status",
        "offset": 0,
        "slot": "0",
        "type": "t_uint256"
      },
      {
        "astId": 24,
        "contract": "contracts/FixedLender.sol:FixedLender",
        "label": "_roles",
        "offset": 0,
        "slot": "1",
        "type": "t_mapping(t_bytes32,t_struct(RoleData)19_storage)"
      },
      {
        "astId": 6172,
        "contract": "contracts/FixedLender.sol:FixedLender",
        "label": "suppliedAmounts",
        "offset": 0,
        "slot": "2",
        "type": "t_mapping(t_uint256,t_mapping(t_address,t_uint256))"
      },
      {
        "astId": 6178,
        "contract": "contracts/FixedLender.sol:FixedLender",
        "label": "borrowedAmounts",
        "offset": 0,
        "slot": "3",
        "type": "t_mapping(t_uint256,t_mapping(t_address,t_uint256))"
      },
      {
        "astId": 6183,
        "contract": "contracts/FixedLender.sol:FixedLender",
        "label": "pools",
        "offset": 0,
        "slot": "4",
        "type": "t_mapping(t_uint256,t_struct(MaturityPool)11254_storage)"
      },
      {
        "astId": 6188,
        "contract": "contracts/FixedLender.sol:FixedLender",
        "label": "addressPools",
        "offset": 0,
        "slot": "5",
        "type": "t_mapping(t_address,t_array(t_uint256)dyn_storage)"
      },
      {
        "astId": 6191,
        "contract": "contracts/FixedLender.sol:FixedLender",
        "label": "liquidationFee",
        "offset": 0,
        "slot": "6",
        "type": "t_uint256"
      },
      {
        "astId": 6194,
        "contract": "contracts/FixedLender.sol:FixedLender",
        "label": "smartPool",
        "offset": 0,
        "slot": "7",
        "type": "t_struct(SmartPool)11259_storage"
      },
      {
        "astId": 6197,
        "contract": "contracts/FixedLender.sol:FixedLender",
        "label": "trustedUnderlying",
        "offset": 0,
        "slot": "9",
        "type": "t_contract(IERC20)1043"
      },
      {
        "astId": 6201,
        "contract": "contracts/FixedLender.sol:FixedLender",
        "label": "eToken",
        "offset": 0,
        "slot": "10",
        "type": "t_contract(IEToken)8914"
      },
      {
        "astId": 6204,
        "contract": "contracts/FixedLender.sol:FixedLender",
        "label": "underlyingTokenName",
        "offset": 0,
        "slot": "11",
        "type": "t_string_storage"
      },
      {
        "astId": 6207,
        "contract": "contracts/FixedLender.sol:FixedLender",
        "label": "auditor",
        "offset": 0,
        "slot": "12",
        "type": "t_contract(IAuditor)8851"
      },
      {
        "astId": 6210,
        "contract": "contracts/FixedLender.sol:FixedLender",
        "label": "interestRateModel",
        "offset": 0,
        "slot": "13",
        "type": "t_contract(IInterestRateModel)9074"
      },
      {
        "astId": 6213,
        "contract": "contracts/FixedLender.sol:FixedLender",
        "label": "totalDeposits",
        "offset": 0,
        "slot": "14",
        "type": "t_uint256"
      },
      {
        "astId": 6218,
        "contract": "contracts/FixedLender.sol:FixedLender",
        "label": "totalDepositsUser",
        "offset": 0,
        "slot": "15",
        "type": "t_mapping(t_address,t_uint256)"
      },
      {
        "astId": 6221,
        "contract": "contracts/FixedLender.sol:FixedLender",
        "label": "totalBorrows",
        "offset": 0,
        "slot": "16",
        "type": "t_uint256"
      },
      {
        "astId": 6226,
        "contract": "contracts/FixedLender.sol:FixedLender",
        "label": "totalBorrowsUser",
        "offset": 0,
        "slot": "17",
        "type": "t_mapping(t_address,t_uint256)"
      }
    ],
    "types": {
      "t_address": {
        "encoding": "inplace",
        "label": "address",
        "numberOfBytes": "20"
      },
      "t_array(t_uint256)dyn_storage": {
        "base": "t_uint256",
        "encoding": "dynamic_array",
        "label": "uint256[]",
        "numberOfBytes": "32"
      },
      "t_bool": {
        "encoding": "inplace",
        "label": "bool",
        "numberOfBytes": "1"
      },
      "t_bytes32": {
        "encoding": "inplace",
        "label": "bytes32",
        "numberOfBytes": "32"
      },
      "t_contract(IAuditor)8851": {
        "encoding": "inplace",
        "label": "contract IAuditor",
        "numberOfBytes": "20"
      },
      "t_contract(IERC20)1043": {
        "encoding": "inplace",
        "label": "contract IERC20",
        "numberOfBytes": "20"
      },
      "t_contract(IEToken)8914": {
        "encoding": "inplace",
        "label": "contract IEToken",
        "numberOfBytes": "20"
      },
      "t_contract(IInterestRateModel)9074": {
        "encoding": "inplace",
        "label": "contract IInterestRateModel",
        "numberOfBytes": "20"
      },
      "t_mapping(t_address,t_array(t_uint256)dyn_storage)": {
        "encoding": "mapping",
        "key": "t_address",
        "label": "mapping(address => uint256[])",
        "numberOfBytes": "32",
        "value": "t_array(t_uint256)dyn_storage"
      },
      "t_mapping(t_address,t_bool)": {
        "encoding": "mapping",
        "key": "t_address",
        "label": "mapping(address => bool)",
        "numberOfBytes": "32",
        "value": "t_bool"
      },
      "t_mapping(t_address,t_uint256)": {
        "encoding": "mapping",
        "key": "t_address",
        "label": "mapping(address => uint256)",
        "numberOfBytes": "32",
        "value": "t_uint256"
      },
      "t_mapping(t_bytes32,t_struct(RoleData)19_storage)": {
        "encoding": "mapping",
        "key": "t_bytes32",
        "label": "mapping(bytes32 => struct AccessControl.RoleData)",
        "numberOfBytes": "32",
        "value": "t_struct(RoleData)19_storage"
      },
      "t_mapping(t_uint256,t_mapping(t_address,t_uint256))": {
        "encoding": "mapping",
        "key": "t_uint256",
        "label": "mapping(uint256 => mapping(address => uint256))",
        "numberOfBytes": "32",
        "value": "t_mapping(t_address,t_uint256)"
      },
      "t_mapping(t_uint256,t_struct(MaturityPool)11254_storage)": {
        "encoding": "mapping",
        "key": "t_uint256",
        "label": "mapping(uint256 => struct PoolLib.MaturityPool)",
        "numberOfBytes": "32",
        "value": "t_struct(MaturityPool)11254_storage"
      },
      "t_string_storage": {
        "encoding": "bytes",
        "label": "string",
        "numberOfBytes": "32"
      },
      "t_struct(MaturityPool)11254_storage": {
        "encoding": "inplace",
        "label": "struct PoolLib.MaturityPool",
        "members": [
          {
            "astId": 11247,
            "contract": "contracts/FixedLender.sol:FixedLender",
            "label": "borrowed",
            "offset": 0,
            "slot": "0",
            "type": "t_uint256"
          },
          {
            "astId": 11249,
            "contract": "contracts/FixedLender.sol:FixedLender",
            "label": "supplied",
            "offset": 0,
            "slot": "1",
            "type": "t_uint256"
          },
          {
            "astId": 11251,
            "contract": "contracts/FixedLender.sol:FixedLender",
            "label": "debt",
            "offset": 0,
            "slot": "2",
            "type": "t_uint256"
          },
          {
            "astId": 11253,
            "contract": "contracts/FixedLender.sol:FixedLender",
            "label": "available",
            "offset": 0,
            "slot": "3",
            "type": "t_uint256"
          }
        ],
        "numberOfBytes": "128"
      },
      "t_struct(RoleData)19_storage": {
        "encoding": "inplace",
        "label": "struct AccessControl.RoleData",
        "members": [
          {
            "astId": 16,
            "contract": "contracts/FixedLender.sol:FixedLender",
            "label": "members",
            "offset": 0,
            "slot": "0",
            "type": "t_mapping(t_address,t_bool)"
          },
          {
            "astId": 18,
            "contract": "contracts/FixedLender.sol:FixedLender",
            "label": "adminRole",
            "offset": 0,
            "slot": "1",
            "type": "t_bytes32"
          }
        ],
        "numberOfBytes": "64"
      },
      "t_struct(SmartPool)11259_storage": {
        "encoding": "inplace",
        "label": "struct PoolLib.SmartPool",
        "members": [
          {
            "astId": 11256,
            "contract": "contracts/FixedLender.sol:FixedLender",
            "label": "borrowed",
            "offset": 0,
            "slot": "0",
            "type": "t_uint256"
          },
          {
            "astId": 11258,
            "contract": "contracts/FixedLender.sol:FixedLender",
            "label": "supplied",
            "offset": 0,
            "slot": "1",
            "type": "t_uint256"
          }
        ],
        "numberOfBytes": "64"
      },
      "t_uint256": {
        "encoding": "inplace",
        "label": "uint256",
        "numberOfBytes": "32"
      }
    }
  }
}