{
  "address": "0xd851315C672b06aFD8b4b17AF0d09Cd410F3eD3D",
  "abi": [
    {
      "inputs": [
        {
          "internalType": "address",
          "name": "_tokenAddress",
          "type": "address"
        },
        {
          "internalType": "string",
          "name": "_tokenName",
          "type": "string"
        },
        {
          "internalType": "address",
          "name": "_auditorAddress",
          "type": "address"
        },
        {
          "internalType": "address",
          "name": "_interestRateModelAddress",
          "type": "address"
        }
      ],
      "stateMutability": "nonpayable",
      "type": "constructor"
    },
    {
      "inputs": [
        {
          "internalType": "enum ErrorCode",
          "name": "error",
          "type": "uint8"
        }
      ],
      "name": "GenericError",
      "type": "error"
    },
    {
      "anonymous": false,
      "inputs": [
        {
          "indexed": true,
          "internalType": "address",
          "name": "to",
          "type": "address"
        },
        {
          "indexed": false,
          "internalType": "uint256",
          "name": "amount",
          "type": "uint256"
        },
        {
          "indexed": false,
          "internalType": "uint256",
          "name": "commission",
          "type": "uint256"
        },
        {
          "indexed": false,
          "internalType": "uint256",
          "name": "maturityDate",
          "type": "uint256"
        }
      ],
      "name": "Borrowed",
      "type": "event"
    },
    {
      "anonymous": false,
      "inputs": [
        {
          "indexed": false,
          "internalType": "address",
          "name": "liquidator",
          "type": "address"
        },
        {
          "indexed": false,
          "internalType": "address",
          "name": "borrower",
          "type": "address"
        },
        {
          "indexed": false,
          "internalType": "uint256",
          "name": "repayAmount",
          "type": "uint256"
        },
        {
          "indexed": false,
          "internalType": "address",
          "name": "exafinCollateral",
          "type": "address"
        },
        {
          "indexed": false,
          "internalType": "uint256",
          "name": "seizeAmount",
          "type": "uint256"
        },
        {
          "indexed": false,
          "internalType": "uint256",
          "name": "maturityDate",
          "type": "uint256"
        }
      ],
      "name": "LiquidateBorrow",
      "type": "event"
    },
    {
      "anonymous": false,
      "inputs": [
        {
          "indexed": true,
          "internalType": "address",
          "name": "previousOwner",
          "type": "address"
        },
        {
          "indexed": true,
          "internalType": "address",
          "name": "newOwner",
          "type": "address"
        }
      ],
      "name": "OwnershipTransferred",
      "type": "event"
    },
    {
      "anonymous": false,
      "inputs": [
        {
          "indexed": true,
          "internalType": "address",
          "name": "from",
          "type": "address"
        },
        {
          "indexed": false,
          "internalType": "uint256",
          "name": "amount",
          "type": "uint256"
        },
        {
          "indexed": false,
          "internalType": "uint256",
          "name": "maturityDate",
          "type": "uint256"
        }
      ],
      "name": "Redeemed",
      "type": "event"
    },
    {
      "anonymous": false,
      "inputs": [
        {
          "indexed": true,
          "internalType": "address",
          "name": "payer",
          "type": "address"
        },
        {
          "indexed": true,
          "internalType": "address",
          "name": "borrower",
          "type": "address"
        },
        {
          "indexed": false,
          "internalType": "uint256",
          "name": "amount",
          "type": "uint256"
        },
        {
          "indexed": false,
          "internalType": "uint256",
          "name": "maturityDate",
          "type": "uint256"
        }
      ],
      "name": "Repaid",
      "type": "event"
    },
    {
      "anonymous": false,
      "inputs": [
        {
          "indexed": false,
          "internalType": "address",
          "name": "benefactor",
          "type": "address"
        },
        {
          "indexed": false,
          "internalType": "uint256",
          "name": "addAmount",
          "type": "uint256"
        }
      ],
      "name": "ReservesAdded",
      "type": "event"
    },
    {
      "anonymous": false,
      "inputs": [
        {
          "indexed": false,
          "internalType": "address",
          "name": "liquidator",
          "type": "address"
        },
        {
          "indexed": false,
          "internalType": "address",
          "name": "borrower",
          "type": "address"
        },
        {
          "indexed": false,
          "internalType": "uint256",
          "name": "seizedAmount",
          "type": "uint256"
        },
        {
          "indexed": false,
          "internalType": "uint256",
          "name": "maturityDate",
          "type": "uint256"
        }
      ],
      "name": "Seized",
      "type": "event"
    },
    {
      "anonymous": false,
      "inputs": [
        {
          "indexed": true,
          "internalType": "address",
          "name": "from",
          "type": "address"
        },
        {
          "indexed": false,
          "internalType": "uint256",
          "name": "amount",
          "type": "uint256"
        },
        {
          "indexed": false,
          "internalType": "uint256",
          "name": "commission",
          "type": "uint256"
        },
        {
          "indexed": false,
          "internalType": "uint256",
          "name": "maturityDate",
          "type": "uint256"
        }
      ],
      "name": "Supplied",
      "type": "event"
    },
    {
      "inputs": [
        {
          "internalType": "address",
          "name": "",
          "type": "address"
        },
        {
          "internalType": "uint256",
          "name": "",
          "type": "uint256"
        }
      ],
      "name": "addressPools",
      "outputs": [
        {
          "internalType": "uint256",
          "name": "",
          "type": "uint256"
        }
      ],
      "stateMutability": "view",
      "type": "function"
    },
    {
      "inputs": [],
      "name": "auditor",
      "outputs": [
        {
          "internalType": "contract IAuditor",
          "name": "",
          "type": "address"
        }
      ],
      "stateMutability": "view",
      "type": "function"
    },
    {
      "inputs": [
        {
          "internalType": "address",
          "name": "",
          "type": "address"
        }
      ],
      "name": "balances",
      "outputs": [
        {
          "internalType": "uint256",
          "name": "",
          "type": "uint256"
        }
      ],
      "stateMutability": "view",
      "type": "function"
    },
    {
      "inputs": [
        {
          "internalType": "uint256",
          "name": "amount",
          "type": "uint256"
        },
        {
          "internalType": "uint256",
          "name": "maturityDate",
          "type": "uint256"
        }
      ],
      "name": "borrow",
      "outputs": [],
      "stateMutability": "nonpayable",
      "type": "function"
    },
    {
      "inputs": [
        {
          "internalType": "uint256",
          "name": "",
          "type": "uint256"
        },
        {
          "internalType": "address",
          "name": "",
          "type": "address"
        }
      ],
      "name": "borrowedAmounts",
      "outputs": [
        {
          "internalType": "uint256",
          "name": "",
          "type": "uint256"
        }
      ],
      "stateMutability": "view",
      "type": "function"
    },
    {
      "inputs": [
        {
          "internalType": "address",
          "name": "who",
          "type": "address"
        },
        {
          "internalType": "uint256",
          "name": "maturityDate",
          "type": "uint256"
        }
      ],
      "name": "getAccountSnapshot",
      "outputs": [
        {
          "internalType": "uint256",
          "name": "",
          "type": "uint256"
        },
        {
          "internalType": "uint256",
          "name": "",
          "type": "uint256"
        }
      ],
      "stateMutability": "view",
      "type": "function"
    },
    {
      "inputs": [],
      "name": "getAuditor",
      "outputs": [
        {
          "internalType": "contract IAuditor",
          "name": "",
          "type": "address"
        }
      ],
      "stateMutability": "view",
      "type": "function"
    },
    {
      "inputs": [
        {
          "internalType": "uint256",
          "name": "amount",
          "type": "uint256"
        },
        {
          "internalType": "uint256",
          "name": "maturityDate",
          "type": "uint256"
        }
      ],
      "name": "getRateToBorrow",
      "outputs": [
        {
          "internalType": "uint256",
          "name": "",
          "type": "uint256"
        }
      ],
      "stateMutability": "view",
      "type": "function"
    },
    {
      "inputs": [
        {
          "internalType": "uint256",
          "name": "amount",
          "type": "uint256"
        },
        {
          "internalType": "uint256",
          "name": "maturityDate",
          "type": "uint256"
        }
      ],
      "name": "getRateToSupply",
      "outputs": [
        {
          "internalType": "uint256",
          "name": "",
          "type": "uint256"
        }
      ],
      "stateMutability": "view",
      "type": "function"
    },
    {
      "inputs": [
        {
          "internalType": "uint256",
          "name": "maturityDate",
          "type": "uint256"
        }
      ],
      "name": "getTotalBorrows",
      "outputs": [
        {
          "internalType": "uint256",
          "name": "",
          "type": "uint256"
        }
      ],
      "stateMutability": "view",
      "type": "function"
    },
    {
      "inputs": [],
      "name": "interestRateModel",
      "outputs": [
        {
          "internalType": "contract IInterestRateModel",
          "name": "",
          "type": "address"
        }
      ],
      "stateMutability": "view",
      "type": "function"
    },
    {
      "inputs": [
        {
          "internalType": "address",
          "name": "borrower",
          "type": "address"
        },
        {
          "internalType": "uint256",
          "name": "repayAmount",
          "type": "uint256"
        },
        {
          "internalType": "contract IExafin",
          "name": "exafinCollateral",
          "type": "address"
        },
        {
          "internalType": "uint256",
          "name": "maturityDate",
          "type": "uint256"
        }
      ],
      "name": "liquidate",
      "outputs": [
        {
          "internalType": "uint256",
          "name": "",
          "type": "uint256"
        }
      ],
      "stateMutability": "nonpayable",
      "type": "function"
    },
    {
      "inputs": [],
      "name": "owner",
      "outputs": [
        {
          "internalType": "address",
          "name": "",
          "type": "address"
        }
      ],
      "stateMutability": "view",
      "type": "function"
    },
    {
      "inputs": [
        {
          "internalType": "uint256",
          "name": "",
          "type": "uint256"
        }
      ],
      "name": "pools",
      "outputs": [
        {
          "internalType": "uint256",
          "name": "borrowed",
          "type": "uint256"
        },
        {
          "internalType": "uint256",
          "name": "supplied",
          "type": "uint256"
        }
      ],
      "stateMutability": "view",
      "type": "function"
    },
    {
      "inputs": [
        {
          "internalType": "address payable",
          "name": "redeemer",
          "type": "address"
        },
        {
          "internalType": "uint256",
          "name": "redeemAmount",
          "type": "uint256"
        },
        {
          "internalType": "uint256",
          "name": "maturityDate",
          "type": "uint256"
        }
      ],
      "name": "redeem",
      "outputs": [],
      "stateMutability": "nonpayable",
      "type": "function"
    },
    {
      "inputs": [],
      "name": "renounceOwnership",
      "outputs": [],
      "stateMutability": "nonpayable",
      "type": "function"
    },
    {
      "inputs": [
        {
          "internalType": "address",
          "name": "borrower",
          "type": "address"
        },
        {
          "internalType": "uint256",
          "name": "maturityDate",
          "type": "uint256"
        }
      ],
      "name": "repay",
      "outputs": [],
      "stateMutability": "nonpayable",
      "type": "function"
    },
    {
      "inputs": [
        {
          "internalType": "address",
          "name": "liquidator",
          "type": "address"
        },
        {
          "internalType": "address",
          "name": "borrower",
          "type": "address"
        },
        {
          "internalType": "uint256",
          "name": "seizeAmount",
          "type": "uint256"
        },
        {
          "internalType": "uint256",
          "name": "maturityDate",
          "type": "uint256"
        }
      ],
      "name": "seize",
      "outputs": [],
      "stateMutability": "nonpayable",
      "type": "function"
    },
    {
      "inputs": [
        {
          "internalType": "uint256",
          "name": "",
          "type": "uint256"
        },
        {
          "internalType": "address",
          "name": "",
          "type": "address"
        }
      ],
      "name": "suppliedAmounts",
      "outputs": [
        {
          "internalType": "uint256",
          "name": "",
          "type": "uint256"
        }
      ],
      "stateMutability": "view",
      "type": "function"
    },
    {
      "inputs": [
        {
          "internalType": "address",
          "name": "from",
          "type": "address"
        },
        {
          "internalType": "uint256",
          "name": "amount",
          "type": "uint256"
        },
        {
          "internalType": "uint256",
          "name": "maturityDate",
          "type": "uint256"
        }
      ],
      "name": "supply",
      "outputs": [],
      "stateMutability": "nonpayable",
      "type": "function"
    },
    {
      "inputs": [],
      "name": "tokenName",
      "outputs": [
        {
          "internalType": "string",
          "name": "",
          "type": "string"
        }
      ],
      "stateMutability": "view",
      "type": "function"
    },
    {
      "inputs": [],
      "name": "totalSupply",
      "outputs": [
        {
          "internalType": "uint256",
          "name": "",
          "type": "uint256"
        }
      ],
      "stateMutability": "view",
      "type": "function"
    },
    {
      "inputs": [
        {
          "internalType": "address",
          "name": "newOwner",
          "type": "address"
        }
      ],
      "name": "transferOwnership",
      "outputs": [],
      "stateMutability": "nonpayable",
      "type": "function"
    }
  ],
  "transactionHash": "0x6983a23df0d625f4ec3abf1f7c1055c496a2b6ce4561b301148bff9ff58e347f",
  "args": [
    "0xC02aaA39b223FE8D0A0e5C4F27eAD9083C756Cc2",
    "ETH",
    "0x687Daa40FEc9A0Bad9a4153787cd1F295f4abc33",
    "0x5F5A5531CF864FA2BB97A7d455E0850d8ea27922"
  ],
  "solcInputHash": "b5e250247fadf82f7a51f0e5ac668a65",
  "bytecode": "0x60806040523480156200001157600080fd5b5060405162004ab638038062004ab68339818101604052810190620000379190620007ca565b6000620000496200024860201b60201c565b9050806000806101000a81548173ffffffffffffffffffffffffffffffffffffffff021916908373ffffffffffffffffffffffffffffffffffffffff1602179055508073ffffffffffffffffffffffffffffffffffffffff16600073ffffffffffffffffffffffffffffffffffffffff167f8be0079c531659141344cd1fd0a4f28419497f9722a3daafe3b4186f6b6457e060405160405180910390a3506001808190555083600660006101000a81548173ffffffffffffffffffffffffffffffffffffffff021916908373ffffffffffffffffffffffffffffffffffffffff160217905550620001a3307fffffffffffffffffffffffffffffffffffffffffffffffffffffffffffffffff600660009054906101000a900473ffffffffffffffffffffffffffffffffffffffff1673ffffffffffffffffffffffffffffffffffffffff166200025060201b62001be7179092919060201c565b8260079080519060200190620001bb92919062000663565b5081600860006101000a81548173ffffffffffffffffffffffffffffffffffffffff021916908373ffffffffffffffffffffffffffffffffffffffff16021790555080600960006101000a81548173ffffffffffffffffffffffffffffffffffffffff021916908373ffffffffffffffffffffffffffffffffffffffff1602179055505050505062000e4c565b600033905090565b6000811480620002f0575060008373ffffffffffffffffffffffffffffffffffffffff1663dd62ed3e30856040518363ffffffff1660e01b81526004016200029a929190620009f6565b60206040518083038186803b158015620002b357600080fd5b505afa158015620002c8573d6000803e3d6000fd5b505050506040513d601f19601f82011682018060405250810190620002ee91906200087b565b145b62000332576040517f08c379a0000000000000000000000000000000000000000000000000000000008152600401620003299062000ada565b60405180910390fd5b620003bd8363095ea7b360e01b84846040516024016200035492919062000a23565b604051602081830303815290604052907bffffffffffffffffffffffffffffffffffffffffffffffffffffffff19166020820180517bffffffffffffffffffffffffffffffffffffffffffffffffffffffff8381831617835250505050620003c260201b60201c565b505050565b60006200042b826040518060400160405280602081526020017f5361666545524332303a206c6f772d6c6576656c2063616c6c206661696c65648152508573ffffffffffffffffffffffffffffffffffffffff166200049660201b62001d45179092919060201c565b90506000815111156200049157808060200190518101906200044e91906200084f565b62000490576040517f08c379a0000000000000000000000000000000000000000000000000000000008152600401620004879062000ab8565b60405180910390fd5b5b505050565b6060620004ad8484600085620004b660201b60201c565b90509392505050565b606082471015620004fe576040517f08c379a0000000000000000000000000000000000000000000000000000000008152600401620004f59062000a74565b60405180910390fd5b6200050f85620005e460201b60201c565b62000551576040517f08c379a0000000000000000000000000000000000000000000000000000000008152600401620005489062000a96565b60405180910390fd5b6000808673ffffffffffffffffffffffffffffffffffffffff1685876040516200057c9190620009dd565b60006040518083038185875af1925050503d8060008114620005bb576040519150601f19603f3d011682016040523d82523d6000602084013e620005c0565b606091505b5091509150620005d8828286620005f760201b60201c565b92505050949350505050565b600080823b905060008111915050919050565b6060831562000609578290506200065c565b6000835111156200061d5782518084602001fd5b816040517f08c379a000000000000000000000000000000000000000000000000000000000815260040162000653919062000a50565b60405180910390fd5b9392505050565b828054620006719062000c0d565b90600052602060002090601f016020900481019282620006955760008555620006e1565b82601f10620006b057805160ff1916838001178555620006e1565b82800160010185558215620006e1579182015b82811115620006e0578251825591602001919060010190620006c3565b5b509050620006f09190620006f4565b5090565b5b808211156200070f576000816000905550600101620006f5565b5090565b60006200072a620007248462000b25565b62000afc565b9050828152602081018484840111156200074357600080fd5b6200075084828562000bd7565b509392505050565b600081519050620007698162000dfe565b92915050565b600081519050620007808162000e18565b92915050565b600082601f8301126200079857600080fd5b8151620007aa84826020860162000713565b91505092915050565b600081519050620007c48162000e32565b92915050565b60008060008060808587031215620007e157600080fd5b6000620007f18782880162000758565b945050602085015167ffffffffffffffff8111156200080f57600080fd5b6200081d8782880162000786565b9350506040620008308782880162000758565b9250506060620008438782880162000758565b91505092959194509250565b6000602082840312156200086257600080fd5b600062000872848285016200076f565b91505092915050565b6000602082840312156200088e57600080fd5b60006200089e84828501620007b3565b91505092915050565b620008b28162000b8d565b82525050565b6000620008c58262000b5b565b620008d1818562000b71565b9350620008e381856020860162000bd7565b80840191505092915050565b6000620008fc8262000b66565b62000908818562000b7c565b93506200091a81856020860162000bd7565b620009258162000cd7565b840191505092915050565b60006200093f60268362000b7c565b91506200094c8262000ce8565b604082019050919050565b600062000966601d8362000b7c565b9150620009738262000d37565b602082019050919050565b60006200098d602a8362000b7c565b91506200099a8262000d60565b604082019050919050565b6000620009b460368362000b7c565b9150620009c18262000daf565b604082019050919050565b620009d78162000bcd565b82525050565b6000620009eb8284620008b8565b915081905092915050565b600060408201905062000a0d6000830185620008a7565b62000a1c6020830184620008a7565b9392505050565b600060408201905062000a3a6000830185620008a7565b62000a496020830184620009cc565b9392505050565b6000602082019050818103600083015262000a6c8184620008ef565b905092915050565b6000602082019050818103600083015262000a8f8162000930565b9050919050565b6000602082019050818103600083015262000ab18162000957565b9050919050565b6000602082019050818103600083015262000ad3816200097e565b9050919050565b6000602082019050818103600083015262000af581620009a5565b9050919050565b600062000b0862000b1b565b905062000b16828262000c43565b919050565b6000604051905090565b600067ffffffffffffffff82111562000b435762000b4262000ca8565b5b62000b4e8262000cd7565b9050602081019050919050565b600081519050919050565b600081519050919050565b600081905092915050565b600082825260208201905092915050565b600062000b9a8262000bad565b9050919050565b60008115159050919050565b600073ffffffffffffffffffffffffffffffffffffffff82169050919050565b6000819050919050565b60005b8381101562000bf757808201518184015260208101905062000bda565b8381111562000c07576000848401525b50505050565b6000600282049050600182168062000c2657607f821691505b6020821081141562000c3d5762000c3c62000c79565b5b50919050565b62000c4e8262000cd7565b810181811067ffffffffffffffff8211171562000c705762000c6f62000ca8565b5b80604052505050565b7f4e487b7100000000000000000000000000000000000000000000000000000000600052602260045260246000fd5b7f4e487b7100000000000000000000000000000000000000000000000000000000600052604160045260246000fd5b6000601f19601f8301169050919050565b7f416464726573733a20696e73756666696369656e742062616c616e636520666f60008201527f722063616c6c0000000000000000000000000000000000000000000000000000602082015250565b7f416464726573733a2063616c6c20746f206e6f6e2d636f6e7472616374000000600082015250565b7f5361666545524332303a204552433230206f7065726174696f6e20646964206e60008201527f6f74207375636365656400000000000000000000000000000000000000000000602082015250565b7f5361666545524332303a20617070726f76652066726f6d206e6f6e2d7a65726f60008201527f20746f206e6f6e2d7a65726f20616c6c6f77616e636500000000000000000000602082015250565b62000e098162000b8d565b811462000e1557600080fd5b50565b62000e238162000ba1565b811462000e2f57600080fd5b50565b62000e3d8162000bcd565b811462000e4957600080fd5b50565b613c5a8062000e5c6000396000f3fe608060405234801561001057600080fd5b506004361061014d5760003560e01c80637dbca353116100c3578063b72ddee91161007c578063b72ddee9146103c6578063d2c6d0dc146103e4578063d2cdcad314610400578063ea1cd41f14610430578063f2fde38b14610460578063f3fdb15a1461047c5761014d565b80637dbca353146102cb5780638da5cb5b146102e75780639457be23146103055780639f3c85a814610335578063a593d51414610365578063ac4afa38146103955761014d565b80632b83cccd116101155780632b83cccd146102085780633c5b1c59146102245780633ec045a61461025457806355a1ac2e146102725780636c02a931146102a3578063715018a6146102c15761014d565b80630526b7d5146101525780630ecbcdab1461018257806318160ddd1461019e57806322867d78146101bc57806327e235e3146101d8575b600080fd5b61016c60048036038101906101679190612d7a565b61049a565b60405161017991906134fa565b60405180910390f35b61019c60048036038101906101979190612db6565b6104bf565b005b6101a66108dc565b6040516101b391906134fa565b60405180910390f35b6101d660048036038101906101d19190612c11565b6108e2565b005b6101f260048036038101906101ed9190612b36565b610946565b6040516101ff91906134fa565b60405180910390f35b610222600480360381019061021d9190612b5f565b61095e565b005b61023e60048036038101906102399190612c11565b610c81565b60405161024b91906134fa565b60405180910390f35b61025c610cb2565b604051610269919061330c565b60405180910390f35b61028c60048036038101906102879190612c11565b610cd8565b60405161029a929190613515565b60405180910390f35b6102ab610e55565b6040516102b8919061335d565b60405180910390f35b6102c9610ee3565b005b6102e560048036038101906102e09190612cb0565b61101d565b005b6102ef61143b565b6040516102fc91906130d7565b60405180910390f35b61031f600480360381019061031a9190612c4d565b611464565b60405161032c91906134fa565b60405180910390f35b61034f600480360381019061034a9190612db6565b6114d2565b60405161035c91906134fa565b60405180910390f35b61037f600480360381019061037a9190612db6565b611691565b60405161038c91906134fa565b60405180910390f35b6103af60048036038101906103aa9190612d28565b611850565b6040516103bd929190613515565b60405180910390f35b6103ce611874565b6040516103db919061330c565b60405180910390f35b6103fe60048036038101906103f99190612bae565b61189e565b005b61041a60048036038101906104159190612d7a565b611906565b60405161042791906134fa565b60405180910390f35b61044a60048036038101906104459190612d28565b61192b565b60405161045791906134fa565b60405180910390f35b61047a60048036038101906104759190612b36565b611a18565b005b610484611bc1565b6040516104919190613327565b60405180910390f35b6002602052816000526040600020602052806000526040600020600091509150505481565b60026001541415610505576040517f08c379a00000000000000000000000000000000000000000000000000000000081526004016104fc9061349f565b60405180910390fd5b600260018190555073f6780c6eCFbF39CE58ac293dC2F00da27c91df4E63b142980a826040518263ffffffff1660e01b815260040161054491906134df565b60206040518083038186803b15801561055c57600080fd5b505af4158015610570573d6000803e3d6000fd5b505050506040513d601f19601f820116820180604052508101906105949190612cff565b6105d657600c6040517fede8a5990000000000000000000000000000000000000000000000000000000081526004016105cd9190613342565b60405180910390fd5b600060046000838152602001908152602001600020604051806040016040529081600082015481526020016001820154815250509050600860009054906101000a900473ffffffffffffffffffffffffffffffffffffffff1673ffffffffffffffffffffffffffffffffffffffff1663059a8008303386866040518563ffffffff1660e01b815260040161066d949392919061329e565b600060405180830381600087803b15801561068757600080fd5b505af115801561069b573d6000803e3d6000fd5b505050506000600960009054906101000a900473ffffffffffffffffffffffffffffffffffffffff1673ffffffffffffffffffffffffffffffffffffffff1663c9c58f85858585866040518563ffffffff1660e01b8152600401610702949392919061353e565b60206040518083038186803b15801561071a57600080fd5b505afa15801561072e573d6000803e3d6000fd5b505050506040513d601f19601f820116820180604052508101906107529190612d51565b90506000670de0b6b3a7640000828661076b9190613673565b6107759190613642565b9050808561078391906135ec565b6003600086815260200190815260200160002060003373ffffffffffffffffffffffffffffffffffffffff1673ffffffffffffffffffffffffffffffffffffffff16815260200190815260200160002060008282546107e291906135ec565b9250508190555084836000018181516107fb91906135ec565b915081815250508260046000868152602001908152602001600020600082015181600001556020820151816001015590505061087c303387600660009054906101000a900473ffffffffffffffffffffffffffffffffffffffff1673ffffffffffffffffffffffffffffffffffffffff16611d5d909392919063ffffffff16565b3373ffffffffffffffffffffffffffffffffffffffff167fc4381c9c7b508979896c55381c1cb8c2aef28d753cff7661f9cd87b9a14584f88683876040516108c693929190613583565b60405180910390a2505050600180819055505050565b600a5481565b60026001541415610928576040517f08c379a000000000000000000000000000000000000000000000000000000000815260040161091f9061349f565b60405180910390fd5b600260018190555061093b338383611de6565b600180819055505050565b600b6020528060005260406000206000915090505481565b600260015414156109a4576040517f08c379a000000000000000000000000000000000000000000000000000000000815260040161099b9061349f565b60405180910390fd5b600260018190555060008214156109f0576040517f08c379a00000000000000000000000000000000000000000000000000000000081526004016109e79061337f565b60405180910390fd5b600860009054906101000a900473ffffffffffffffffffffffffffffffffffffffff1673ffffffffffffffffffffffffffffffffffffffff16632f8832d6308585856040518563ffffffff1660e01b8152600401610a51949392919061311b565b600060405180830381600087803b158015610a6b57600080fd5b505af1158015610a7f573d6000803e3d6000fd5b50505050816002600083815260200190815260200160002060008573ffffffffffffffffffffffffffffffffffffffff1673ffffffffffffffffffffffffffffffffffffffff1681526020019081526020016000206000828254610ae391906136cd565b9250508190555081600660009054906101000a900473ffffffffffffffffffffffffffffffffffffffff1673ffffffffffffffffffffffffffffffffffffffff166370a08231306040518263ffffffff1660e01b8152600401610b4691906130d7565b60206040518083038186803b158015610b5e57600080fd5b505afa158015610b72573d6000803e3d6000fd5b505050506040513d601f19601f82011682018060405250810190610b969190612d51565b11610bd6576040517f08c379a0000000000000000000000000000000000000000000000000000000008152600401610bcd9061345f565b60405180910390fd5b610c25308484600660009054906101000a900473ffffffffffffffffffffffffffffffffffffffff1673ffffffffffffffffffffffffffffffffffffffff16611d5d909392919063ffffffff16565b8273ffffffffffffffffffffffffffffffffffffffff167ff3a670cd3af7d64b488926880889d08a8585a138ff455227af6737339a1ec2628383604051610c6d929190613515565b60405180910390a260018081905550505050565b60056020528160005260406000208181548110610c9d57600080fd5b90600052602060002001600091509150505481565b600860009054906101000a900473ffffffffffffffffffffffffffffffffffffffff1681565b6000806001151573f6780c6eCFbF39CE58ac293dC2F00da27c91df4E63b142980a856040518263ffffffff1660e01b8152600401610d1691906134df565b60206040518083038186803b158015610d2e57600080fd5b505af4158015610d42573d6000803e3d6000fd5b505050506040513d601f19601f82011682018060405250810190610d669190612cff565b151514610da8576040517f08c379a0000000000000000000000000000000000000000000000000000000008152600401610d9f9061343f565b60405180910390fd5b6002600084815260200190815260200160002060008573ffffffffffffffffffffffffffffffffffffffff1673ffffffffffffffffffffffffffffffffffffffff168152602001908152602001600020546003600085815260200190815260200160002060008673ffffffffffffffffffffffffffffffffffffffff1673ffffffffffffffffffffffffffffffffffffffff16815260200190815260200160002054915091509250929050565b60078054610e6290613843565b80601f0160208091040260200160405190810160405280929190818152602001828054610e8e90613843565b8015610edb5780601f10610eb057610100808354040283529160200191610edb565b820191906000526020600020905b815481529060010190602001808311610ebe57829003601f168201915b505050505081565b610eeb611fdc565b73ffffffffffffffffffffffffffffffffffffffff16610f0961143b565b73ffffffffffffffffffffffffffffffffffffffff1614610f5f576040517f08c379a0000000000000000000000000000000000000000000000000000000008152600401610f56906133ff565b60405180910390fd5b600073ffffffffffffffffffffffffffffffffffffffff1660008054906101000a900473ffffffffffffffffffffffffffffffffffffffff1673ffffffffffffffffffffffffffffffffffffffff167f8be0079c531659141344cd1fd0a4f28419497f9722a3daafe3b4186f6b6457e060405160405180910390a360008060006101000a81548173ffffffffffffffffffffffffffffffffffffffff021916908373ffffffffffffffffffffffffffffffffffffffff160217905550565b60026001541415611063576040517f08c379a000000000000000000000000000000000000000000000000000000000815260040161105a9061349f565b60405180910390fd5b600260018190555073f6780c6eCFbF39CE58ac293dC2F00da27c91df4E63b142980a826040518263ffffffff1660e01b81526004016110a291906134df565b60206040518083038186803b1580156110ba57600080fd5b505af41580156110ce573d6000803e3d6000fd5b505050506040513d601f19601f820116820180604052508101906110f29190612cff565b61113457600c6040517fede8a59900000000000000000000000000000000000000000000000000000000815260040161112b9190613342565b60405180910390fd5b600060046000838152602001908152602001600020604051806040016040529081600082015481526020016001820154815250509050600860009054906101000a900473ffffffffffffffffffffffffffffffffffffffff1673ffffffffffffffffffffffffffffffffffffffff166353c4fc98308686866040518563ffffffff1660e01b81526004016111cb949392919061329e565b600060405180830381600087803b1580156111e557600080fd5b505af11580156111f9573d6000803e3d6000fd5b505050506000600960009054906101000a900473ffffffffffffffffffffffffffffffffffffffff1673ffffffffffffffffffffffffffffffffffffffff16630f2f4931858585866040518563ffffffff1660e01b8152600401611260949392919061353e565b60206040518083038186803b15801561127857600080fd5b505afa15801561128c573d6000803e3d6000fd5b505050506040513d601f19601f820116820180604052508101906112b09190612d51565b90506000670de0b6b3a764000082866112c99190613673565b6112d39190613642565b905080856112e191906135ec565b6002600086815260200190815260200160002060008873ffffffffffffffffffffffffffffffffffffffff1673ffffffffffffffffffffffffffffffffffffffff168152602001908152602001600020600082825461134091906135ec565b92505081905550848360200181815161135991906135ec565b91508181525050826004600086815260200190815260200160002060008201518160000155602082015181600101559050506113da863087600660009054906101000a900473ffffffffffffffffffffffffffffffffffffffff1673ffffffffffffffffffffffffffffffffffffffff16611d5d909392919063ffffffff16565b8573ffffffffffffffffffffffffffffffffffffffff167f59c246e4b3d64f626b5eac2dd8e3a3c46c4531e9cc40ef4e6f120fcb3df6be1e86838760405161142493929190613583565b60405180910390a250505060018081905550505050565b60008060009054906101000a900473ffffffffffffffffffffffffffffffffffffffff16905090565b6000600260015414156114ac576040517f08c379a00000000000000000000000000000000000000000000000000000000081526004016114a39061349f565b60405180910390fd5b60026001819055506114c13386868686611fe4565b905060018081905550949350505050565b60006001151573f6780c6eCFbF39CE58ac293dC2F00da27c91df4E63b142980a846040518263ffffffff1660e01b815260040161150f91906134df565b60206040518083038186803b15801561152757600080fd5b505af415801561153b573d6000803e3d6000fd5b505050506040513d601f19601f8201168201806040525081019061155f9190612cff565b1515146115a1576040517f08c379a00000000000000000000000000000000000000000000000000000000081526004016115989061343f565b60405180910390fd5b600060046000848152602001908152602001600020604051806040016040529081600082015481526020016001820154815250509050600960009054906101000a900473ffffffffffffffffffffffffffffffffffffffff1673ffffffffffffffffffffffffffffffffffffffff1663c9c58f85858584856040518563ffffffff1660e01b8152600401611638949392919061353e565b60206040518083038186803b15801561165057600080fd5b505afa158015611664573d6000803e3d6000fd5b505050506040513d601f19601f820116820180604052508101906116889190612d51565b91505092915050565b60006001151573f6780c6eCFbF39CE58ac293dC2F00da27c91df4E63b142980a846040518263ffffffff1660e01b81526004016116ce91906134df565b60206040518083038186803b1580156116e657600080fd5b505af41580156116fa573d6000803e3d6000fd5b505050506040513d601f19601f8201168201806040525081019061171e9190612cff565b151514611760576040517f08c379a00000000000000000000000000000000000000000000000000000000081526004016117579061343f565b60405180910390fd5b600060046000848152602001908152602001600020604051806040016040529081600082015481526020016001820154815250509050600960009054906101000a900473ffffffffffffffffffffffffffffffffffffffff1673ffffffffffffffffffffffffffffffffffffffff16630f2f4931858584856040518563ffffffff1660e01b81526004016117f7949392919061353e565b60206040518083038186803b15801561180f57600080fd5b505afa158015611823573d6000803e3d6000fd5b505050506040513d601f19601f820116820180604052508101906118479190612d51565b91505092915050565b60046020528060005260406000206000915090508060000154908060010154905082565b6000600860009054906101000a900473ffffffffffffffffffffffffffffffffffffffff16905090565b600260015414156118e4576040517f08c379a00000000000000000000000000000000000000000000000000000000081526004016118db9061349f565b60405180910390fd5b60026001819055506118f93385858585612316565b6001808190555050505050565b6003602052816000526040600020602052806000526040600020600091509150505481565b60006001151573f6780c6eCFbF39CE58ac293dC2F00da27c91df4E63b142980a846040518263ffffffff1660e01b815260040161196891906134df565b60206040518083038186803b15801561198057600080fd5b505af4158015611994573d6000803e3d6000fd5b505050506040513d601f19601f820116820180604052508101906119b89190612cff565b1515146119fa576040517f08c379a00000000000000000000000000000000000000000000000000000000081526004016119f19061343f565b60405180910390fd5b60046000838152602001908152602001600020600001549050919050565b611a20611fdc565b73ffffffffffffffffffffffffffffffffffffffff16611a3e61143b565b73ffffffffffffffffffffffffffffffffffffffff1614611a94576040517f08c379a0000000000000000000000000000000000000000000000000000000008152600401611a8b906133ff565b60405180910390fd5b600073ffffffffffffffffffffffffffffffffffffffff168173ffffffffffffffffffffffffffffffffffffffff161415611b04576040517f08c379a0000000000000000000000000000000000000000000000000000000008152600401611afb9061339f565b60405180910390fd5b8073ffffffffffffffffffffffffffffffffffffffff1660008054906101000a900473ffffffffffffffffffffffffffffffffffffffff1673ffffffffffffffffffffffffffffffffffffffff167f8be0079c531659141344cd1fd0a4f28419497f9722a3daafe3b4186f6b6457e060405160405180910390a3806000806101000a81548173ffffffffffffffffffffffffffffffffffffffff021916908373ffffffffffffffffffffffffffffffffffffffff16021790555050565b600960009054906101000a900473ffffffffffffffffffffffffffffffffffffffff1681565b6000811480611c80575060008373ffffffffffffffffffffffffffffffffffffffff1663dd62ed3e30856040518363ffffffff1660e01b8152600401611c2e9291906130f2565b60206040518083038186803b158015611c4657600080fd5b505afa158015611c5a573d6000803e3d6000fd5b505050506040513d601f19601f82011682018060405250810190611c7e9190612d51565b145b611cbf576040517f08c379a0000000000000000000000000000000000000000000000000000000008152600401611cb6906134bf565b60405180910390fd5b611d408363095ea7b360e01b8484604051602401611cde9291906132e3565b604051602081830303815290604052907bffffffffffffffffffffffffffffffffffffffffffffffffffffffff19166020820180517bffffffffffffffffffffffffffffffffffffffffffffffffffffffff8381831617835250505050612583565b505050565b6060611d54848460008561264a565b90509392505050565b611de0846323b872dd60e01b858585604051602401611d7e93929190613206565b604051602081830303815290604052907bffffffffffffffffffffffffffffffffffffffffffffffffffffffff19166020820180517bffffffffffffffffffffffffffffffffffffffffffffffffffffffff8381831617835250505050612583565b50505050565b600860009054906101000a900473ffffffffffffffffffffffffffffffffffffffff1673ffffffffffffffffffffffffffffffffffffffff1663b962aaeb3084846040518463ffffffff1660e01b8152600401611e4593929190613206565b600060405180830381600087803b158015611e5f57600080fd5b505af1158015611e73573d6000803e3d6000fd5b5050505060006003600083815260200190815260200160002060008473ffffffffffffffffffffffffffffffffffffffff1673ffffffffffffffffffffffffffffffffffffffff168152602001908152602001600020549050611f1b843083600660009054906101000a900473ffffffffffffffffffffffffffffffffffffffff1673ffffffffffffffffffffffffffffffffffffffff16611d5d909392919063ffffffff16565b6003600083815260200190815260200160002060008473ffffffffffffffffffffffffffffffffffffffff1673ffffffffffffffffffffffffffffffffffffffff168152602001908152602001600020600090558273ffffffffffffffffffffffffffffffffffffffff168473ffffffffffffffffffffffffffffffffffffffff167fe62a777dbd48d3912f68a1b9445813ee02bc3ac18b97dc129ca462cc77bb641b8385604051611fce929190613515565b60405180910390a350505050565b600033905090565b6000600860009054906101000a900473ffffffffffffffffffffffffffffffffffffffff1673ffffffffffffffffffffffffffffffffffffffff16632c7c0ae83085898989886040518763ffffffff1660e01b815260040161204b969594939291906131a5565b60006040518083038186803b15801561206357600080fd5b505afa158015612077573d6000803e3d6000fd5b505050506120878686868561275e565b6000600860009054906101000a900473ffffffffffffffffffffffffffffffffffffffff1673ffffffffffffffffffffffffffffffffffffffff16635efadbd13086886040518463ffffffff1660e01b81526004016120e893929190613206565b60206040518083038186803b15801561210057600080fd5b505afa158015612114573d6000803e3d6000fd5b505050506040513d601f19601f820116820180604052508101906121389190612d51565b905060008473ffffffffffffffffffffffffffffffffffffffff166355a1ac2e88866040518363ffffffff1660e01b81526004016121779291906132e3565b604080518083038186803b15801561218e57600080fd5b505afa1580156121a2573d6000803e3d6000fd5b505050506040513d601f19601f820116820180604052508101906121c69190612df2565b5090508181101561220f57600a6040517fede8a5990000000000000000000000000000000000000000000000000000000081526004016122069190613342565b60405180910390fd5b3073ffffffffffffffffffffffffffffffffffffffff168573ffffffffffffffffffffffffffffffffffffffff161415612255576122503089898588612316565b6122c7565b8473ffffffffffffffffffffffffffffffffffffffff1663d2c6d0dc898985886040518563ffffffff1660e01b8152600401612294949392919061329e565b600060405180830381600087803b1580156122ae57600080fd5b505af11580156122c2573d6000803e3d6000fd5b505050505b7f9e76a01ba2e51393f58ccc22c0afc9520815e0cc3f301f7b5d7442fcaee9fdc18888888886896040516123009695949392919061323d565b60405180910390a1859250505095945050505050565b600860009054906101000a900473ffffffffffffffffffffffffffffffffffffffff1673ffffffffffffffffffffffffffffffffffffffff1663eafe967b308787876040518563ffffffff1660e01b81526004016123779493929190613160565b60006040518083038186803b15801561238f57600080fd5b505afa1580156123a3573d6000803e3d6000fd5b5050505060006123c3666379da05b600008461298f90919063ffffffff16565b9050600081846123d391906136cd565b9050836002600085815260200190815260200160002060008773ffffffffffffffffffffffffffffffffffffffff1673ffffffffffffffffffffffffffffffffffffffff168152602001908152602001600020600082825461243591906136cd565b92505081905550600060046000858152602001908152602001600020604051806040016040529081600082015481526020016001820154815250509050848160200181815161248491906136cd565b91508181525050806004600086815260200190815260200160002060008201518160000155602082015181600101559050506125038783600660009054906101000a900473ffffffffffffffffffffffffffffffffffffffff1673ffffffffffffffffffffffffffffffffffffffff166129b89092919063ffffffff16565b7fe51b546a59a5440500bc9464ab1cb969d07a4508292c32e540ac0f37b644aca887878787604051612538949392919061329e565b60405180910390a17f9ee5619a3cc818b40b8727fa0e1b2dbfef2c9c692817ec30f6edd0c9afeab2be30846040516125719291906132e3565b60405180910390a15050505050505050565b60006125e5826040518060400160405280602081526020017f5361666545524332303a206c6f772d6c6576656c2063616c6c206661696c65648152508573ffffffffffffffffffffffffffffffffffffffff16611d459092919063ffffffff16565b905060008151111561264557808060200190518101906126059190612cff565b612644576040517f08c379a000000000000000000000000000000000000000000000000000000000815260040161263b9061347f565b60405180910390fd5b5b505050565b60608247101561268f576040517f08c379a0000000000000000000000000000000000000000000000000000000008152600401612686906133bf565b60405180910390fd5b61269885612a3e565b6126d7576040517f08c379a00000000000000000000000000000000000000000000000000000000081526004016126ce9061341f565b60405180910390fd5b6000808673ffffffffffffffffffffffffffffffffffffffff16858760405161270091906130c0565b60006040518083038185875af1925050503d806000811461273d576040519150601f19603f3d011682016040523d82523d6000602084013e612742565b606091505b5091509150612752828286612a51565b92505050949350505050565b60008214156127a2576040517f08c379a0000000000000000000000000000000000000000000000000000000008152600401612799906133df565b60405180910390fd5b60006003600083815260200190815260200160002060008573ffffffffffffffffffffffffffffffffffffffff1673ffffffffffffffffffffffffffffffffffffffff168152602001908152602001600020549050612846853085600660009054906101000a900473ffffffffffffffffffffffffffffffffffffffff1673ffffffffffffffffffffffffffffffffffffffff16611d5d909392919063ffffffff16565b828161285291906136cd565b6003600084815260200190815260200160002060008673ffffffffffffffffffffffffffffffffffffffff1673ffffffffffffffffffffffffffffffffffffffff1681526020019081526020016000208190555060006004600084815260200190815260200160002060405180604001604052908160008201548152602001600182015481525050905083816000018181516128ee91906136cd565b91508181525050806004600085815260200190815260200160002060008201518160000155602082015181600101559050508473ffffffffffffffffffffffffffffffffffffffff168673ffffffffffffffffffffffffffffffffffffffff167fe62a777dbd48d3912f68a1b9445813ee02bc3ac18b97dc129ca462cc77bb641b868660405161297f929190613515565b60405180910390a3505050505050565b6000670de0b6b3a764000082846129a69190613673565b6129b09190613642565b905092915050565b612a398363a9059cbb60e01b84846040516024016129d79291906132e3565b604051602081830303815290604052907bffffffffffffffffffffffffffffffffffffffffffffffffffffffff19166020820180517bffffffffffffffffffffffffffffffffffffffffffffffffffffffff8381831617835250505050612583565b505050565b600080823b905060008111915050919050565b60608315612a6157829050612ab1565b600083511115612a745782518084602001fd5b816040517f08c379a0000000000000000000000000000000000000000000000000000000008152600401612aa8919061335d565b60405180910390fd5b9392505050565b600081359050612ac781613bb1565b92915050565b600081359050612adc81613bc8565b92915050565b600081519050612af181613bdf565b92915050565b600081359050612b0681613bf6565b92915050565b600081359050612b1b81613c0d565b92915050565b600081519050612b3081613c0d565b92915050565b600060208284031215612b4857600080fd5b6000612b5684828501612ab8565b91505092915050565b600080600060608486031215612b7457600080fd5b6000612b8286828701612acd565b9350506020612b9386828701612b0c565b9250506040612ba486828701612b0c565b9150509250925092565b60008060008060808587031215612bc457600080fd5b6000612bd287828801612ab8565b9450506020612be387828801612ab8565b9350506040612bf487828801612b0c565b9250506060612c0587828801612b0c565b91505092959194509250565b60008060408385031215612c2457600080fd5b6000612c3285828601612ab8565b9250506020612c4385828601612b0c565b9150509250929050565b60008060008060808587031215612c6357600080fd5b6000612c7187828801612ab8565b9450506020612c8287828801612b0c565b9350506040612c9387828801612af7565b9250506060612ca487828801612b0c565b91505092959194509250565b600080600060608486031215612cc557600080fd5b6000612cd386828701612ab8565b9350506020612ce486828701612b0c565b9250506040612cf586828701612b0c565b9150509250925092565b600060208284031215612d1157600080fd5b6000612d1f84828501612ae2565b91505092915050565b600060208284031215612d3a57600080fd5b6000612d4884828501612b0c565b91505092915050565b600060208284031215612d6357600080fd5b6000612d7184828501612b21565b91505092915050565b60008060408385031215612d8d57600080fd5b6000612d9b85828601612b0c565b9250506020612dac85828601612ab8565b9150509250929050565b60008060408385031215612dc957600080fd5b6000612dd785828601612b0c565b9250506020612de885828601612b0c565b9150509250929050565b60008060408385031215612e0557600080fd5b6000612e1385828601612b21565b9250506020612e2485828601612b21565b9150509250929050565b612e3781613780565b82525050565b612e4681613701565b82525050565b6000612e57826135ba565b612e6181856135d0565b9350612e71818560208601613810565b80840191505092915050565b612e8681613792565b82525050565b612e95816137b6565b82525050565b612ea4816137da565b82525050565b6000612eb5826135c5565b612ebf81856135db565b9350612ecf818560208601613810565b612ed881613931565b840191505092915050565b6000612ef06014836135db565b9150612efb82613942565b602082019050919050565b6000612f136026836135db565b9150612f1e8261396b565b604082019050919050565b6000612f366026836135db565b9150612f41826139ba565b604082019050919050565b6000612f596014836135db565b9150612f6482613a09565b602082019050919050565b6000612f7c6020836135db565b9150612f8782613a32565b602082019050919050565b6000612f9f601d836135db565b9150612faa82613a5b565b602082019050919050565b6000612fc2600d836135db565b9150612fcd82613a84565b602082019050919050565b6000612fe56014836135db565b9150612ff082613aad565b602082019050919050565b6000613008602a836135db565b915061301382613ad6565b604082019050919050565b600061302b601f836135db565b915061303682613b25565b602082019050919050565b600061304e6036836135db565b915061305982613b4e565b604082019050919050565b60408201600082015161307a6000850182613093565b50602082015161308d6020850182613093565b50505050565b61309c81613776565b82525050565b6130ab81613776565b82525050565b6130ba81613776565b82525050565b60006130cc8284612e4c565b915081905092915050565b60006020820190506130ec6000830184612e3d565b92915050565b60006040820190506131076000830185612e3d565b6131146020830184612e3d565b9392505050565b60006080820190506131306000830187612e3d565b61313d6020830186612e2e565b61314a60408301856130a2565b61315760608301846130a2565b95945050505050565b60006080820190506131756000830187612e3d565b6131826020830186612e3d565b61318f6040830185612e3d565b61319c6060830184612e3d565b95945050505050565b600060c0820190506131ba6000830189612e3d565b6131c76020830188612e3d565b6131d46040830187612e3d565b6131e16060830186612e3d565b6131ee60808301856130a2565b6131fb60a08301846130a2565b979650505050505050565b600060608201905061321b6000830186612e3d565b6132286020830185612e3d565b61323560408301846130a2565b949350505050565b600060c0820190506132526000830189612e3d565b61325f6020830188612e3d565b61326c60408301876130a2565b6132796060830186612e3d565b61328660808301856130a2565b61329360a08301846130a2565b979650505050505050565b60006080820190506132b36000830187612e3d565b6132c06020830186612e3d565b6132cd60408301856130a2565b6132da60608301846130a2565b95945050505050565b60006040820190506132f86000830185612e3d565b61330560208301846130a2565b9392505050565b60006020820190506133216000830184612e7d565b92915050565b600060208201905061333c6000830184612e8c565b92915050565b60006020820190506133576000830184612e9b565b92915050565b600060208201905081810360008301526133778184612eaa565b905092915050565b6000602082019050818103600083015261339881612ee3565b9050919050565b600060208201905081810360008301526133b881612f06565b9050919050565b600060208201905081810360008301526133d881612f29565b9050919050565b600060208201905081810360008301526133f881612f4c565b9050919050565b6000602082019050818103600083015261341881612f6f565b9050919050565b6000602082019050818103600083015261343881612f92565b9050919050565b6000602082019050818103600083015261345881612fb5565b9050919050565b6000602082019050818103600083015261347881612fd8565b9050919050565b6000602082019050818103600083015261349881612ffb565b9050919050565b600060208201905081810360008301526134b88161301e565b9050919050565b600060208201905081810360008301526134d881613041565b9050919050565b60006020820190506134f460008301846130b1565b92915050565b600060208201905061350f60008301846130a2565b92915050565b600060408201905061352a60008301856130a2565b61353760208301846130a2565b9392505050565b600060c08201905061355360008301876130a2565b61356060208301866130a2565b61356d6040830185613064565b61357a6080830184613064565b95945050505050565b600060608201905061359860008301866130a2565b6135a560208301856130a2565b6135b260408301846130a2565b949350505050565b600081519050919050565b600081519050919050565b600081905092915050565b600082825260208201905092915050565b60006135f782613776565b915061360283613776565b9250827fffffffffffffffffffffffffffffffffffffffffffffffffffffffffffffffff0382111561363757613636613875565b5b828201905092915050565b600061364d82613776565b915061365883613776565b925082613668576136676138a4565b5b828204905092915050565b600061367e82613776565b915061368983613776565b9250817fffffffffffffffffffffffffffffffffffffffffffffffffffffffffffffffff04831182151516156136c2576136c1613875565b5b828202905092915050565b60006136d882613776565b91506136e383613776565b9250828210156136f6576136f5613875565b5b828203905092915050565b600061370c82613756565b9050919050565b600061371e82613756565b9050919050565b60008115159050919050565b600061373c82613701565b9050919050565b600081905061375182613b9d565b919050565b600073ffffffffffffffffffffffffffffffffffffffff82169050919050565b6000819050919050565b600061378b826137ec565b9050919050565b600061379d826137a4565b9050919050565b60006137af82613756565b9050919050565b60006137c1826137c8565b9050919050565b60006137d382613756565b9050919050565b60006137e582613743565b9050919050565b60006137f7826137fe565b9050919050565b600061380982613756565b9050919050565b60005b8381101561382e578082015181840152602081019050613813565b8381111561383d576000848401525b50505050565b6000600282049050600182168061385b57607f821691505b6020821081141561386f5761386e613902565b5b50919050565b7f4e487b7100000000000000000000000000000000000000000000000000000000600052601160045260246000fd5b7f4e487b7100000000000000000000000000000000000000000000000000000000600052601260045260246000fd5b7f4e487b7100000000000000000000000000000000000000000000000000000000600052602160045260246000fd5b7f4e487b7100000000000000000000000000000000000000000000000000000000600052602260045260246000fd5b6000601f19601f8301169050919050565b7f52656465656d2063616e2774206265207a65726f000000000000000000000000600082015250565b7f4f776e61626c653a206e6577206f776e657220697320746865207a65726f206160008201527f6464726573730000000000000000000000000000000000000000000000000000602082015250565b7f416464726573733a20696e73756666696369656e742062616c616e636520666f60008201527f722063616c6c0000000000000000000000000000000000000000000000000000602082015250565b7f596f752063616e2774207265706179207a65726f000000000000000000000000600082015250565b7f4f776e61626c653a2063616c6c6572206973206e6f7420746865206f776e6572600082015250565b7f416464726573733a2063616c6c20746f206e6f6e2d636f6e7472616374000000600082015250565b7f4e6f74206120706f6f6c20494400000000000000000000000000000000000000600082015250565b7f4e6f7420656e6f756768206c6971756964697479000000000000000000000000600082015250565b7f5361666545524332303a204552433230206f7065726174696f6e20646964206e60008201527f6f74207375636365656400000000000000000000000000000000000000000000602082015250565b7f5265656e7472616e637947756172643a207265656e7472616e742063616c6c00600082015250565b7f5361666545524332303a20617070726f76652066726f6d206e6f6e2d7a65726f60008201527f20746f206e6f6e2d7a65726f20616c6c6f77616e636500000000000000000000602082015250565b60128110613bae57613bad6138d3565b5b50565b613bba81613701565b8114613bc557600080fd5b50565b613bd181613713565b8114613bdc57600080fd5b50565b613be881613725565b8114613bf357600080fd5b50565b613bff81613731565b8114613c0a57600080fd5b50565b613c1681613776565b8114613c2157600080fd5b5056fea2646970667358221220f20e0b6da6cb7263c1f01426f4e7ff85f7d701993df526f393c85e65c7272ae164736f6c63430008040033",
  "deployedBytecode": "0x608060405234801561001057600080fd5b506004361061014d5760003560e01c80637dbca353116100c3578063b72ddee91161007c578063b72ddee9146103c6578063d2c6d0dc146103e4578063d2cdcad314610400578063ea1cd41f14610430578063f2fde38b14610460578063f3fdb15a1461047c5761014d565b80637dbca353146102cb5780638da5cb5b146102e75780639457be23146103055780639f3c85a814610335578063a593d51414610365578063ac4afa38146103955761014d565b80632b83cccd116101155780632b83cccd146102085780633c5b1c59146102245780633ec045a61461025457806355a1ac2e146102725780636c02a931146102a3578063715018a6146102c15761014d565b80630526b7d5146101525780630ecbcdab1461018257806318160ddd1461019e57806322867d78146101bc57806327e235e3146101d8575b600080fd5b61016c60048036038101906101679190612d7a565b61049a565b60405161017991906134fa565b60405180910390f35b61019c60048036038101906101979190612db6565b6104bf565b005b6101a66108dc565b6040516101b391906134fa565b60405180910390f35b6101d660048036038101906101d19190612c11565b6108e2565b005b6101f260048036038101906101ed9190612b36565b610946565b6040516101ff91906134fa565b60405180910390f35b610222600480360381019061021d9190612b5f565b61095e565b005b61023e60048036038101906102399190612c11565b610c81565b60405161024b91906134fa565b60405180910390f35b61025c610cb2565b604051610269919061330c565b60405180910390f35b61028c60048036038101906102879190612c11565b610cd8565b60405161029a929190613515565b60405180910390f35b6102ab610e55565b6040516102b8919061335d565b60405180910390f35b6102c9610ee3565b005b6102e560048036038101906102e09190612cb0565b61101d565b005b6102ef61143b565b6040516102fc91906130d7565b60405180910390f35b61031f600480360381019061031a9190612c4d565b611464565b60405161032c91906134fa565b60405180910390f35b61034f600480360381019061034a9190612db6565b6114d2565b60405161035c91906134fa565b60405180910390f35b61037f600480360381019061037a9190612db6565b611691565b60405161038c91906134fa565b60405180910390f35b6103af60048036038101906103aa9190612d28565b611850565b6040516103bd929190613515565b60405180910390f35b6103ce611874565b6040516103db919061330c565b60405180910390f35b6103fe60048036038101906103f99190612bae565b61189e565b005b61041a60048036038101906104159190612d7a565b611906565b60405161042791906134fa565b60405180910390f35b61044a60048036038101906104459190612d28565b61192b565b60405161045791906134fa565b60405180910390f35b61047a60048036038101906104759190612b36565b611a18565b005b610484611bc1565b6040516104919190613327565b60405180910390f35b6002602052816000526040600020602052806000526040600020600091509150505481565b60026001541415610505576040517f08c379a00000000000000000000000000000000000000000000000000000000081526004016104fc9061349f565b60405180910390fd5b600260018190555073__$90f1fa1b3f91137ac60e95891d324fdd69$__63b142980a826040518263ffffffff1660e01b815260040161054491906134df565b60206040518083038186803b15801561055c57600080fd5b505af4158015610570573d6000803e3d6000fd5b505050506040513d601f19601f820116820180604052508101906105949190612cff565b6105d657600c6040517fede8a5990000000000000000000000000000000000000000000000000000000081526004016105cd9190613342565b60405180910390fd5b600060046000838152602001908152602001600020604051806040016040529081600082015481526020016001820154815250509050600860009054906101000a900473ffffffffffffffffffffffffffffffffffffffff1673ffffffffffffffffffffffffffffffffffffffff1663059a8008303386866040518563ffffffff1660e01b815260040161066d949392919061329e565b600060405180830381600087803b15801561068757600080fd5b505af115801561069b573d6000803e3d6000fd5b505050506000600960009054906101000a900473ffffffffffffffffffffffffffffffffffffffff1673ffffffffffffffffffffffffffffffffffffffff1663c9c58f85858585866040518563ffffffff1660e01b8152600401610702949392919061353e565b60206040518083038186803b15801561071a57600080fd5b505afa15801561072e573d6000803e3d6000fd5b505050506040513d601f19601f820116820180604052508101906107529190612d51565b90506000670de0b6b3a7640000828661076b9190613673565b6107759190613642565b9050808561078391906135ec565b6003600086815260200190815260200160002060003373ffffffffffffffffffffffffffffffffffffffff1673ffffffffffffffffffffffffffffffffffffffff16815260200190815260200160002060008282546107e291906135ec565b9250508190555084836000018181516107fb91906135ec565b915081815250508260046000868152602001908152602001600020600082015181600001556020820151816001015590505061087c303387600660009054906101000a900473ffffffffffffffffffffffffffffffffffffffff1673ffffffffffffffffffffffffffffffffffffffff16611d5d909392919063ffffffff16565b3373ffffffffffffffffffffffffffffffffffffffff167fc4381c9c7b508979896c55381c1cb8c2aef28d753cff7661f9cd87b9a14584f88683876040516108c693929190613583565b60405180910390a2505050600180819055505050565b600a5481565b60026001541415610928576040517f08c379a000000000000000000000000000000000000000000000000000000000815260040161091f9061349f565b60405180910390fd5b600260018190555061093b338383611de6565b600180819055505050565b600b6020528060005260406000206000915090505481565b600260015414156109a4576040517f08c379a000000000000000000000000000000000000000000000000000000000815260040161099b9061349f565b60405180910390fd5b600260018190555060008214156109f0576040517f08c379a00000000000000000000000000000000000000000000000000000000081526004016109e79061337f565b60405180910390fd5b600860009054906101000a900473ffffffffffffffffffffffffffffffffffffffff1673ffffffffffffffffffffffffffffffffffffffff16632f8832d6308585856040518563ffffffff1660e01b8152600401610a51949392919061311b565b600060405180830381600087803b158015610a6b57600080fd5b505af1158015610a7f573d6000803e3d6000fd5b50505050816002600083815260200190815260200160002060008573ffffffffffffffffffffffffffffffffffffffff1673ffffffffffffffffffffffffffffffffffffffff1681526020019081526020016000206000828254610ae391906136cd565b9250508190555081600660009054906101000a900473ffffffffffffffffffffffffffffffffffffffff1673ffffffffffffffffffffffffffffffffffffffff166370a08231306040518263ffffffff1660e01b8152600401610b4691906130d7565b60206040518083038186803b158015610b5e57600080fd5b505afa158015610b72573d6000803e3d6000fd5b505050506040513d601f19601f82011682018060405250810190610b969190612d51565b11610bd6576040517f08c379a0000000000000000000000000000000000000000000000000000000008152600401610bcd9061345f565b60405180910390fd5b610c25308484600660009054906101000a900473ffffffffffffffffffffffffffffffffffffffff1673ffffffffffffffffffffffffffffffffffffffff16611d5d909392919063ffffffff16565b8273ffffffffffffffffffffffffffffffffffffffff167ff3a670cd3af7d64b488926880889d08a8585a138ff455227af6737339a1ec2628383604051610c6d929190613515565b60405180910390a260018081905550505050565b60056020528160005260406000208181548110610c9d57600080fd5b90600052602060002001600091509150505481565b600860009054906101000a900473ffffffffffffffffffffffffffffffffffffffff1681565b6000806001151573__$90f1fa1b3f91137ac60e95891d324fdd69$__63b142980a856040518263ffffffff1660e01b8152600401610d1691906134df565b60206040518083038186803b158015610d2e57600080fd5b505af4158015610d42573d6000803e3d6000fd5b505050506040513d601f19601f82011682018060405250810190610d669190612cff565b151514610da8576040517f08c379a0000000000000000000000000000000000000000000000000000000008152600401610d9f9061343f565b60405180910390fd5b6002600084815260200190815260200160002060008573ffffffffffffffffffffffffffffffffffffffff1673ffffffffffffffffffffffffffffffffffffffff168152602001908152602001600020546003600085815260200190815260200160002060008673ffffffffffffffffffffffffffffffffffffffff1673ffffffffffffffffffffffffffffffffffffffff16815260200190815260200160002054915091509250929050565b60078054610e6290613843565b80601f0160208091040260200160405190810160405280929190818152602001828054610e8e90613843565b8015610edb5780601f10610eb057610100808354040283529160200191610edb565b820191906000526020600020905b815481529060010190602001808311610ebe57829003601f168201915b505050505081565b610eeb611fdc565b73ffffffffffffffffffffffffffffffffffffffff16610f0961143b565b73ffffffffffffffffffffffffffffffffffffffff1614610f5f576040517f08c379a0000000000000000000000000000000000000000000000000000000008152600401610f56906133ff565b60405180910390fd5b600073ffffffffffffffffffffffffffffffffffffffff1660008054906101000a900473ffffffffffffffffffffffffffffffffffffffff1673ffffffffffffffffffffffffffffffffffffffff167f8be0079c531659141344cd1fd0a4f28419497f9722a3daafe3b4186f6b6457e060405160405180910390a360008060006101000a81548173ffffffffffffffffffffffffffffffffffffffff021916908373ffffffffffffffffffffffffffffffffffffffff160217905550565b60026001541415611063576040517f08c379a000000000000000000000000000000000000000000000000000000000815260040161105a9061349f565b60405180910390fd5b600260018190555073__$90f1fa1b3f91137ac60e95891d324fdd69$__63b142980a826040518263ffffffff1660e01b81526004016110a291906134df565b60206040518083038186803b1580156110ba57600080fd5b505af41580156110ce573d6000803e3d6000fd5b505050506040513d601f19601f820116820180604052508101906110f29190612cff565b61113457600c6040517fede8a59900000000000000000000000000000000000000000000000000000000815260040161112b9190613342565b60405180910390fd5b600060046000838152602001908152602001600020604051806040016040529081600082015481526020016001820154815250509050600860009054906101000a900473ffffffffffffffffffffffffffffffffffffffff1673ffffffffffffffffffffffffffffffffffffffff166353c4fc98308686866040518563ffffffff1660e01b81526004016111cb949392919061329e565b600060405180830381600087803b1580156111e557600080fd5b505af11580156111f9573d6000803e3d6000fd5b505050506000600960009054906101000a900473ffffffffffffffffffffffffffffffffffffffff1673ffffffffffffffffffffffffffffffffffffffff16630f2f4931858585866040518563ffffffff1660e01b8152600401611260949392919061353e565b60206040518083038186803b15801561127857600080fd5b505afa15801561128c573d6000803e3d6000fd5b505050506040513d601f19601f820116820180604052508101906112b09190612d51565b90506000670de0b6b3a764000082866112c99190613673565b6112d39190613642565b905080856112e191906135ec565b6002600086815260200190815260200160002060008873ffffffffffffffffffffffffffffffffffffffff1673ffffffffffffffffffffffffffffffffffffffff168152602001908152602001600020600082825461134091906135ec565b92505081905550848360200181815161135991906135ec565b91508181525050826004600086815260200190815260200160002060008201518160000155602082015181600101559050506113da863087600660009054906101000a900473ffffffffffffffffffffffffffffffffffffffff1673ffffffffffffffffffffffffffffffffffffffff16611d5d909392919063ffffffff16565b8573ffffffffffffffffffffffffffffffffffffffff167f59c246e4b3d64f626b5eac2dd8e3a3c46c4531e9cc40ef4e6f120fcb3df6be1e86838760405161142493929190613583565b60405180910390a250505060018081905550505050565b60008060009054906101000a900473ffffffffffffffffffffffffffffffffffffffff16905090565b6000600260015414156114ac576040517f08c379a00000000000000000000000000000000000000000000000000000000081526004016114a39061349f565b60405180910390fd5b60026001819055506114c13386868686611fe4565b905060018081905550949350505050565b60006001151573__$90f1fa1b3f91137ac60e95891d324fdd69$__63b142980a846040518263ffffffff1660e01b815260040161150f91906134df565b60206040518083038186803b15801561152757600080fd5b505af415801561153b573d6000803e3d6000fd5b505050506040513d601f19601f8201168201806040525081019061155f9190612cff565b1515146115a1576040517f08c379a00000000000000000000000000000000000000000000000000000000081526004016115989061343f565b60405180910390fd5b600060046000848152602001908152602001600020604051806040016040529081600082015481526020016001820154815250509050600960009054906101000a900473ffffffffffffffffffffffffffffffffffffffff1673ffffffffffffffffffffffffffffffffffffffff1663c9c58f85858584856040518563ffffffff1660e01b8152600401611638949392919061353e565b60206040518083038186803b15801561165057600080fd5b505afa158015611664573d6000803e3d6000fd5b505050506040513d601f19601f820116820180604052508101906116889190612d51565b91505092915050565b60006001151573__$90f1fa1b3f91137ac60e95891d324fdd69$__63b142980a846040518263ffffffff1660e01b81526004016116ce91906134df565b60206040518083038186803b1580156116e657600080fd5b505af41580156116fa573d6000803e3d6000fd5b505050506040513d601f19601f8201168201806040525081019061171e9190612cff565b151514611760576040517f08c379a00000000000000000000000000000000000000000000000000000000081526004016117579061343f565b60405180910390fd5b600060046000848152602001908152602001600020604051806040016040529081600082015481526020016001820154815250509050600960009054906101000a900473ffffffffffffffffffffffffffffffffffffffff1673ffffffffffffffffffffffffffffffffffffffff16630f2f4931858584856040518563ffffffff1660e01b81526004016117f7949392919061353e565b60206040518083038186803b15801561180f57600080fd5b505afa158015611823573d6000803e3d6000fd5b505050506040513d601f19601f820116820180604052508101906118479190612d51565b91505092915050565b60046020528060005260406000206000915090508060000154908060010154905082565b6000600860009054906101000a900473ffffffffffffffffffffffffffffffffffffffff16905090565b600260015414156118e4576040517f08c379a00000000000000000000000000000000000000000000000000000000081526004016118db9061349f565b60405180910390fd5b60026001819055506118f93385858585612316565b6001808190555050505050565b6003602052816000526040600020602052806000526040600020600091509150505481565b60006001151573__$90f1fa1b3f91137ac60e95891d324fdd69$__63b142980a846040518263ffffffff1660e01b815260040161196891906134df565b60206040518083038186803b15801561198057600080fd5b505af4158015611994573d6000803e3d6000fd5b505050506040513d601f19601f820116820180604052508101906119b89190612cff565b1515146119fa576040517f08c379a00000000000000000000000000000000000000000000000000000000081526004016119f19061343f565b60405180910390fd5b60046000838152602001908152602001600020600001549050919050565b611a20611fdc565b73ffffffffffffffffffffffffffffffffffffffff16611a3e61143b565b73ffffffffffffffffffffffffffffffffffffffff1614611a94576040517f08c379a0000000000000000000000000000000000000000000000000000000008152600401611a8b906133ff565b60405180910390fd5b600073ffffffffffffffffffffffffffffffffffffffff168173ffffffffffffffffffffffffffffffffffffffff161415611b04576040517f08c379a0000000000000000000000000000000000000000000000000000000008152600401611afb9061339f565b60405180910390fd5b8073ffffffffffffffffffffffffffffffffffffffff1660008054906101000a900473ffffffffffffffffffffffffffffffffffffffff1673ffffffffffffffffffffffffffffffffffffffff167f8be0079c531659141344cd1fd0a4f28419497f9722a3daafe3b4186f6b6457e060405160405180910390a3806000806101000a81548173ffffffffffffffffffffffffffffffffffffffff021916908373ffffffffffffffffffffffffffffffffffffffff16021790555050565b600960009054906101000a900473ffffffffffffffffffffffffffffffffffffffff1681565b6000811480611c80575060008373ffffffffffffffffffffffffffffffffffffffff1663dd62ed3e30856040518363ffffffff1660e01b8152600401611c2e9291906130f2565b60206040518083038186803b158015611c4657600080fd5b505afa158015611c5a573d6000803e3d6000fd5b505050506040513d601f19601f82011682018060405250810190611c7e9190612d51565b145b611cbf576040517f08c379a0000000000000000000000000000000000000000000000000000000008152600401611cb6906134bf565b60405180910390fd5b611d408363095ea7b360e01b8484604051602401611cde9291906132e3565b604051602081830303815290604052907bffffffffffffffffffffffffffffffffffffffffffffffffffffffff19166020820180517bffffffffffffffffffffffffffffffffffffffffffffffffffffffff8381831617835250505050612583565b505050565b6060611d54848460008561264a565b90509392505050565b611de0846323b872dd60e01b858585604051602401611d7e93929190613206565b604051602081830303815290604052907bffffffffffffffffffffffffffffffffffffffffffffffffffffffff19166020820180517bffffffffffffffffffffffffffffffffffffffffffffffffffffffff8381831617835250505050612583565b50505050565b600860009054906101000a900473ffffffffffffffffffffffffffffffffffffffff1673ffffffffffffffffffffffffffffffffffffffff1663b962aaeb3084846040518463ffffffff1660e01b8152600401611e4593929190613206565b600060405180830381600087803b158015611e5f57600080fd5b505af1158015611e73573d6000803e3d6000fd5b5050505060006003600083815260200190815260200160002060008473ffffffffffffffffffffffffffffffffffffffff1673ffffffffffffffffffffffffffffffffffffffff168152602001908152602001600020549050611f1b843083600660009054906101000a900473ffffffffffffffffffffffffffffffffffffffff1673ffffffffffffffffffffffffffffffffffffffff16611d5d909392919063ffffffff16565b6003600083815260200190815260200160002060008473ffffffffffffffffffffffffffffffffffffffff1673ffffffffffffffffffffffffffffffffffffffff168152602001908152602001600020600090558273ffffffffffffffffffffffffffffffffffffffff168473ffffffffffffffffffffffffffffffffffffffff167fe62a777dbd48d3912f68a1b9445813ee02bc3ac18b97dc129ca462cc77bb641b8385604051611fce929190613515565b60405180910390a350505050565b600033905090565b6000600860009054906101000a900473ffffffffffffffffffffffffffffffffffffffff1673ffffffffffffffffffffffffffffffffffffffff16632c7c0ae83085898989886040518763ffffffff1660e01b815260040161204b969594939291906131a5565b60006040518083038186803b15801561206357600080fd5b505afa158015612077573d6000803e3d6000fd5b505050506120878686868561275e565b6000600860009054906101000a900473ffffffffffffffffffffffffffffffffffffffff1673ffffffffffffffffffffffffffffffffffffffff16635efadbd13086886040518463ffffffff1660e01b81526004016120e893929190613206565b60206040518083038186803b15801561210057600080fd5b505afa158015612114573d6000803e3d6000fd5b505050506040513d601f19601f820116820180604052508101906121389190612d51565b905060008473ffffffffffffffffffffffffffffffffffffffff166355a1ac2e88866040518363ffffffff1660e01b81526004016121779291906132e3565b604080518083038186803b15801561218e57600080fd5b505afa1580156121a2573d6000803e3d6000fd5b505050506040513d601f19601f820116820180604052508101906121c69190612df2565b5090508181101561220f57600a6040517fede8a5990000000000000000000000000000000000000000000000000000000081526004016122069190613342565b60405180910390fd5b3073ffffffffffffffffffffffffffffffffffffffff168573ffffffffffffffffffffffffffffffffffffffff161415612255576122503089898588612316565b6122c7565b8473ffffffffffffffffffffffffffffffffffffffff1663d2c6d0dc898985886040518563ffffffff1660e01b8152600401612294949392919061329e565b600060405180830381600087803b1580156122ae57600080fd5b505af11580156122c2573d6000803e3d6000fd5b505050505b7f9e76a01ba2e51393f58ccc22c0afc9520815e0cc3f301f7b5d7442fcaee9fdc18888888886896040516123009695949392919061323d565b60405180910390a1859250505095945050505050565b600860009054906101000a900473ffffffffffffffffffffffffffffffffffffffff1673ffffffffffffffffffffffffffffffffffffffff1663eafe967b308787876040518563ffffffff1660e01b81526004016123779493929190613160565b60006040518083038186803b15801561238f57600080fd5b505afa1580156123a3573d6000803e3d6000fd5b5050505060006123c3666379da05b600008461298f90919063ffffffff16565b9050600081846123d391906136cd565b9050836002600085815260200190815260200160002060008773ffffffffffffffffffffffffffffffffffffffff1673ffffffffffffffffffffffffffffffffffffffff168152602001908152602001600020600082825461243591906136cd565b92505081905550600060046000858152602001908152602001600020604051806040016040529081600082015481526020016001820154815250509050848160200181815161248491906136cd565b91508181525050806004600086815260200190815260200160002060008201518160000155602082015181600101559050506125038783600660009054906101000a900473ffffffffffffffffffffffffffffffffffffffff1673ffffffffffffffffffffffffffffffffffffffff166129b89092919063ffffffff16565b7fe51b546a59a5440500bc9464ab1cb969d07a4508292c32e540ac0f37b644aca887878787604051612538949392919061329e565b60405180910390a17f9ee5619a3cc818b40b8727fa0e1b2dbfef2c9c692817ec30f6edd0c9afeab2be30846040516125719291906132e3565b60405180910390a15050505050505050565b60006125e5826040518060400160405280602081526020017f5361666545524332303a206c6f772d6c6576656c2063616c6c206661696c65648152508573ffffffffffffffffffffffffffffffffffffffff16611d459092919063ffffffff16565b905060008151111561264557808060200190518101906126059190612cff565b612644576040517f08c379a000000000000000000000000000000000000000000000000000000000815260040161263b9061347f565b60405180910390fd5b5b505050565b60608247101561268f576040517f08c379a0000000000000000000000000000000000000000000000000000000008152600401612686906133bf565b60405180910390fd5b61269885612a3e565b6126d7576040517f08c379a00000000000000000000000000000000000000000000000000000000081526004016126ce9061341f565b60405180910390fd5b6000808673ffffffffffffffffffffffffffffffffffffffff16858760405161270091906130c0565b60006040518083038185875af1925050503d806000811461273d576040519150601f19603f3d011682016040523d82523d6000602084013e612742565b606091505b5091509150612752828286612a51565b92505050949350505050565b60008214156127a2576040517f08c379a0000000000000000000000000000000000000000000000000000000008152600401612799906133df565b60405180910390fd5b60006003600083815260200190815260200160002060008573ffffffffffffffffffffffffffffffffffffffff1673ffffffffffffffffffffffffffffffffffffffff168152602001908152602001600020549050612846853085600660009054906101000a900473ffffffffffffffffffffffffffffffffffffffff1673ffffffffffffffffffffffffffffffffffffffff16611d5d909392919063ffffffff16565b828161285291906136cd565b6003600084815260200190815260200160002060008673ffffffffffffffffffffffffffffffffffffffff1673ffffffffffffffffffffffffffffffffffffffff1681526020019081526020016000208190555060006004600084815260200190815260200160002060405180604001604052908160008201548152602001600182015481525050905083816000018181516128ee91906136cd565b91508181525050806004600085815260200190815260200160002060008201518160000155602082015181600101559050508473ffffffffffffffffffffffffffffffffffffffff168673ffffffffffffffffffffffffffffffffffffffff167fe62a777dbd48d3912f68a1b9445813ee02bc3ac18b97dc129ca462cc77bb641b868660405161297f929190613515565b60405180910390a3505050505050565b6000670de0b6b3a764000082846129a69190613673565b6129b09190613642565b905092915050565b612a398363a9059cbb60e01b84846040516024016129d79291906132e3565b604051602081830303815290604052907bffffffffffffffffffffffffffffffffffffffffffffffffffffffff19166020820180517bffffffffffffffffffffffffffffffffffffffffffffffffffffffff8381831617835250505050612583565b505050565b600080823b905060008111915050919050565b60608315612a6157829050612ab1565b600083511115612a745782518084602001fd5b816040517f08c379a0000000000000000000000000000000000000000000000000000000008152600401612aa8919061335d565b60405180910390fd5b9392505050565b600081359050612ac781613bb1565b92915050565b600081359050612adc81613bc8565b92915050565b600081519050612af181613bdf565b92915050565b600081359050612b0681613bf6565b92915050565b600081359050612b1b81613c0d565b92915050565b600081519050612b3081613c0d565b92915050565b600060208284031215612b4857600080fd5b6000612b5684828501612ab8565b91505092915050565b600080600060608486031215612b7457600080fd5b6000612b8286828701612acd565b9350506020612b9386828701612b0c565b9250506040612ba486828701612b0c565b9150509250925092565b60008060008060808587031215612bc457600080fd5b6000612bd287828801612ab8565b9450506020612be387828801612ab8565b9350506040612bf487828801612b0c565b9250506060612c0587828801612b0c565b91505092959194509250565b60008060408385031215612c2457600080fd5b6000612c3285828601612ab8565b9250506020612c4385828601612b0c565b9150509250929050565b60008060008060808587031215612c6357600080fd5b6000612c7187828801612ab8565b9450506020612c8287828801612b0c565b9350506040612c9387828801612af7565b9250506060612ca487828801612b0c565b91505092959194509250565b600080600060608486031215612cc557600080fd5b6000612cd386828701612ab8565b9350506020612ce486828701612b0c565b9250506040612cf586828701612b0c565b9150509250925092565b600060208284031215612d1157600080fd5b6000612d1f84828501612ae2565b91505092915050565b600060208284031215612d3a57600080fd5b6000612d4884828501612b0c565b91505092915050565b600060208284031215612d6357600080fd5b6000612d7184828501612b21565b91505092915050565b60008060408385031215612d8d57600080fd5b6000612d9b85828601612b0c565b9250506020612dac85828601612ab8565b9150509250929050565b60008060408385031215612dc957600080fd5b6000612dd785828601612b0c565b9250506020612de885828601612b0c565b9150509250929050565b60008060408385031215612e0557600080fd5b6000612e1385828601612b21565b9250506020612e2485828601612b21565b9150509250929050565b612e3781613780565b82525050565b612e4681613701565b82525050565b6000612e57826135ba565b612e6181856135d0565b9350612e71818560208601613810565b80840191505092915050565b612e8681613792565b82525050565b612e95816137b6565b82525050565b612ea4816137da565b82525050565b6000612eb5826135c5565b612ebf81856135db565b9350612ecf818560208601613810565b612ed881613931565b840191505092915050565b6000612ef06014836135db565b9150612efb82613942565b602082019050919050565b6000612f136026836135db565b9150612f1e8261396b565b604082019050919050565b6000612f366026836135db565b9150612f41826139ba565b604082019050919050565b6000612f596014836135db565b9150612f6482613a09565b602082019050919050565b6000612f7c6020836135db565b9150612f8782613a32565b602082019050919050565b6000612f9f601d836135db565b9150612faa82613a5b565b602082019050919050565b6000612fc2600d836135db565b9150612fcd82613a84565b602082019050919050565b6000612fe56014836135db565b9150612ff082613aad565b602082019050919050565b6000613008602a836135db565b915061301382613ad6565b604082019050919050565b600061302b601f836135db565b915061303682613b25565b602082019050919050565b600061304e6036836135db565b915061305982613b4e565b604082019050919050565b60408201600082015161307a6000850182613093565b50602082015161308d6020850182613093565b50505050565b61309c81613776565b82525050565b6130ab81613776565b82525050565b6130ba81613776565b82525050565b60006130cc8284612e4c565b915081905092915050565b60006020820190506130ec6000830184612e3d565b92915050565b60006040820190506131076000830185612e3d565b6131146020830184612e3d565b9392505050565b60006080820190506131306000830187612e3d565b61313d6020830186612e2e565b61314a60408301856130a2565b61315760608301846130a2565b95945050505050565b60006080820190506131756000830187612e3d565b6131826020830186612e3d565b61318f6040830185612e3d565b61319c6060830184612e3d565b95945050505050565b600060c0820190506131ba6000830189612e3d565b6131c76020830188612e3d565b6131d46040830187612e3d565b6131e16060830186612e3d565b6131ee60808301856130a2565b6131fb60a08301846130a2565b979650505050505050565b600060608201905061321b6000830186612e3d565b6132286020830185612e3d565b61323560408301846130a2565b949350505050565b600060c0820190506132526000830189612e3d565b61325f6020830188612e3d565b61326c60408301876130a2565b6132796060830186612e3d565b61328660808301856130a2565b61329360a08301846130a2565b979650505050505050565b60006080820190506132b36000830187612e3d565b6132c06020830186612e3d565b6132cd60408301856130a2565b6132da60608301846130a2565b95945050505050565b60006040820190506132f86000830185612e3d565b61330560208301846130a2565b9392505050565b60006020820190506133216000830184612e7d565b92915050565b600060208201905061333c6000830184612e8c565b92915050565b60006020820190506133576000830184612e9b565b92915050565b600060208201905081810360008301526133778184612eaa565b905092915050565b6000602082019050818103600083015261339881612ee3565b9050919050565b600060208201905081810360008301526133b881612f06565b9050919050565b600060208201905081810360008301526133d881612f29565b9050919050565b600060208201905081810360008301526133f881612f4c565b9050919050565b6000602082019050818103600083015261341881612f6f565b9050919050565b6000602082019050818103600083015261343881612f92565b9050919050565b6000602082019050818103600083015261345881612fb5565b9050919050565b6000602082019050818103600083015261347881612fd8565b9050919050565b6000602082019050818103600083015261349881612ffb565b9050919050565b600060208201905081810360008301526134b88161301e565b9050919050565b600060208201905081810360008301526134d881613041565b9050919050565b60006020820190506134f460008301846130b1565b92915050565b600060208201905061350f60008301846130a2565b92915050565b600060408201905061352a60008301856130a2565b61353760208301846130a2565b9392505050565b600060c08201905061355360008301876130a2565b61356060208301866130a2565b61356d6040830185613064565b61357a6080830184613064565b95945050505050565b600060608201905061359860008301866130a2565b6135a560208301856130a2565b6135b260408301846130a2565b949350505050565b600081519050919050565b600081519050919050565b600081905092915050565b600082825260208201905092915050565b60006135f782613776565b915061360283613776565b9250827fffffffffffffffffffffffffffffffffffffffffffffffffffffffffffffffff0382111561363757613636613875565b5b828201905092915050565b600061364d82613776565b915061365883613776565b925082613668576136676138a4565b5b828204905092915050565b600061367e82613776565b915061368983613776565b9250817fffffffffffffffffffffffffffffffffffffffffffffffffffffffffffffffff04831182151516156136c2576136c1613875565b5b828202905092915050565b60006136d882613776565b91506136e383613776565b9250828210156136f6576136f5613875565b5b828203905092915050565b600061370c82613756565b9050919050565b600061371e82613756565b9050919050565b60008115159050919050565b600061373c82613701565b9050919050565b600081905061375182613b9d565b919050565b600073ffffffffffffffffffffffffffffffffffffffff82169050919050565b6000819050919050565b600061378b826137ec565b9050919050565b600061379d826137a4565b9050919050565b60006137af82613756565b9050919050565b60006137c1826137c8565b9050919050565b60006137d382613756565b9050919050565b60006137e582613743565b9050919050565b60006137f7826137fe565b9050919050565b600061380982613756565b9050919050565b60005b8381101561382e578082015181840152602081019050613813565b8381111561383d576000848401525b50505050565b6000600282049050600182168061385b57607f821691505b6020821081141561386f5761386e613902565b5b50919050565b7f4e487b7100000000000000000000000000000000000000000000000000000000600052601160045260246000fd5b7f4e487b7100000000000000000000000000000000000000000000000000000000600052601260045260246000fd5b7f4e487b7100000000000000000000000000000000000000000000000000000000600052602160045260246000fd5b7f4e487b7100000000000000000000000000000000000000000000000000000000600052602260045260246000fd5b6000601f19601f8301169050919050565b7f52656465656d2063616e2774206265207a65726f000000000000000000000000600082015250565b7f4f776e61626c653a206e6577206f776e657220697320746865207a65726f206160008201527f6464726573730000000000000000000000000000000000000000000000000000602082015250565b7f416464726573733a20696e73756666696369656e742062616c616e636520666f60008201527f722063616c6c0000000000000000000000000000000000000000000000000000602082015250565b7f596f752063616e2774207265706179207a65726f000000000000000000000000600082015250565b7f4f776e61626c653a2063616c6c6572206973206e6f7420746865206f776e6572600082015250565b7f416464726573733a2063616c6c20746f206e6f6e2d636f6e7472616374000000600082015250565b7f4e6f74206120706f6f6c20494400000000000000000000000000000000000000600082015250565b7f4e6f7420656e6f756768206c6971756964697479000000000000000000000000600082015250565b7f5361666545524332303a204552433230206f7065726174696f6e20646964206e60008201527f6f74207375636365656400000000000000000000000000000000000000000000602082015250565b7f5265656e7472616e637947756172643a207265656e7472616e742063616c6c00600082015250565b7f5361666545524332303a20617070726f76652066726f6d206e6f6e2d7a65726f60008201527f20746f206e6f6e2d7a65726f20616c6c6f77616e636500000000000000000000602082015250565b60128110613bae57613bad6138d3565b5b50565b613bba81613701565b8114613bc557600080fd5b50565b613bd181613713565b8114613bdc57600080fd5b50565b613be881613725565b8114613bf357600080fd5b50565b613bff81613731565b8114613c0a57600080fd5b50565b613c1681613776565b8114613c2157600080fd5b5056fea2646970667358221220f20e0b6da6cb7263c1f01426f4e7ff85f7d701993df526f393c85e65c7272ae164736f6c63430008040033",
  "libraries": {
    "TSUtils": "0xf6780c6eCFbF39CE58ac293dC2F00da27c91df4E"
  },
  "devdoc": {
    "kind": "dev",
    "methods": {
      "borrow(uint256,uint256)": {
        "details": "Lends to a wallet for a certain maturity date/pool",
        "params": {
          "amount": "amount to send to the specified wallet",
          "maturityDate": "maturity date for repayment"
        }
      },
      "getAccountSnapshot(address,uint256)": {
        "details": "Gets current snapshot for a wallet in a certain maturity",
        "params": {
          "maturityDate": "maturity date",
          "who": "wallet to return status snapshot in the specified maturity date"
        }
      },
      "getAuditor()": {
        "details": "Gets the auditor contract interface being used to validate positions"
      },
      "getRateToBorrow(uint256,uint256)": {
        "details": "Get current rate to borrow a certain amount in a certain maturity in the current state of the pool and the pot",
        "params": {
          "amount": "amount to borrow from a certain maturity date",
          "maturityDate": "maturity date for calculating rates"
        }
      },
      "getRateToSupply(uint256,uint256)": {
        "details": "Get current rate for supplying a certain amount in a certain maturity in the current state of the pool and the pot",
        "params": {
          "amount": "amount to supply to a certain maturity date",
          "maturityDate": "maturity date for calculating rates"
        }
      },
      "getTotalBorrows(uint256)": {
        "details": "Gets the total amount of borrowed money for a maturityDate",
        "params": {
          "maturityDate": "maturity date"
        }
      },
      "liquidate(address,uint256,address,uint256)": {
        "details": "Msg.sender liquidates a borrower's position and repays a certain amount of collateral for a maturity date, seizing a part of borrower's collateral",
        "params": {
          "borrower": "wallet that has an outstanding debt for a certain maturity date",
          "exafinCollateral": "address of exafin from which the collateral will be seized to give the liquidator",
          "maturityDate": "maturity date for which the position will be liquidated",
          "repayAmount": "amount to be repaid by liquidator(msg.sender)"
        }
      },
      "owner()": {
        "details": "Returns the address of the current owner."
      },
      "redeem(address,uint256,uint256)": {
        "details": "The pool that the user is trying to retrieve the money should be matured",
        "params": {
          "maturityDate": "the matured date for which we're trying to retrieve the funds",
          "redeemAmount": "The number of underlying tokens to receive from redeeming this Exafin",
          "redeemer": "The address of the account which is redeeming the tokens"
        }
      },
      "renounceOwnership()": {
        "details": "Leaves the contract without owner. It will not be possible to call `onlyOwner` functions anymore. Can only be called by the current owner. NOTE: Renouncing ownership will leave the contract without an owner, thereby removing any functionality that is only available to the owner."
      },
      "repay(address,uint256)": {
        "details": "The pool that the user is trying to repay to should be matured",
        "params": {
          "borrower": "The address of the account that has the debt",
          "maturityDate": "The matured date where the debt is located"
        }
      },
      "seize(address,address,uint256,uint256)": {
        "details": "Public function for liquidator to seize borrowers tokens in a certain maturity date.  This function will only be called from another Exafins, on `liquidation` calls.  That's why msg.sender needs to be passed to the private function (to be validated as a market)",
        "params": {
          "borrower": "address from which the tokens will be seized",
          "liquidator": "address which will receive the seized tokens",
          "maturityDate": "maturity date from where the tokens will be removed. Used to remove liquidity.",
          "seizeAmount": "amount to be removed from borrower's posession"
        }
      },
      "supply(address,uint256,uint256)": {
        "details": "Supplies a certain amount to the protocol for  a certain maturity date/pool",
        "params": {
          "amount": "amount to receive from the specified wallet",
          "from": "wallet to receive amount from",
          "maturityDate": "maturity date / pool ID"
        }
      },
      "transferOwnership(address)": {
        "details": "Transfers ownership of the contract to a new account (`newOwner`). Can only be called by the current owner."
      }
    },
    "version": 1
  },
  "userdoc": {
    "kind": "user",
    "methods": {
      "liquidate(address,uint256,address,uint256)": {
        "notice": "Function to liquidate an uncollaterized position"
      },
      "redeem(address,uint256,uint256)": {
        "notice": "User collects a certain amount of underlying asset after having supplied tokens until a certain maturity date"
      },
      "repay(address,uint256)": {
        "notice": "Sender repays borrower's debt for a maturity date"
      },
      "seize(address,address,uint256,uint256)": {
        "notice": "Public function to seize a certain amount of tokens"
      }
    },
    "version": 1
  },
  "storageLayout": {
    "storage": [
      {
        "astId": 375,
        "contract": "contracts/Exafin.sol:Exafin",
        "label": "_owner",
        "offset": 0,
        "slot": "0",
        "type": "t_address"
      },
      {
        "astId": 488,
        "contract": "contracts/Exafin.sol:Exafin",
        "label": "_status",
        "offset": 0,
        "slot": "1",
        "type": "t_uint256"
      },
      {
        "astId": 3682,
        "contract": "contracts/Exafin.sol:Exafin",
        "label": "suppliedAmounts",
        "offset": 0,
        "slot": "2",
        "type": "t_mapping(t_uint256,t_mapping(t_address,t_uint256))"
      },
      {
        "astId": 3688,
        "contract": "contracts/Exafin.sol:Exafin",
        "label": "borrowedAmounts",
        "offset": 0,
        "slot": "3",
        "type": "t_mapping(t_uint256,t_mapping(t_address,t_uint256))"
      },
      {
        "astId": 3693,
        "contract": "contracts/Exafin.sol:Exafin",
        "label": "pools",
        "offset": 0,
        "slot": "4",
        "type": "t_mapping(t_uint256,t_struct(Pool)4987_storage)"
      },
      {
        "astId": 3698,
        "contract": "contracts/Exafin.sol:Exafin",
        "label": "addressPools",
        "offset": 0,
        "slot": "5",
        "type": "t_mapping(t_address,t_array(t_uint256)dyn_storage)"
      },
      {
        "astId": 3707,
        "contract": "contracts/Exafin.sol:Exafin",
        "label": "trustedUnderlying",
        "offset": 0,
        "slot": "6",
        "type": "t_contract(IERC20)595"
      },
      {
        "astId": 3710,
        "contract": "contracts/Exafin.sol:Exafin",
        "label": "tokenName",
        "offset": 0,
        "slot": "7",
        "type": "t_string_storage"
      },
      {
        "astId": 3713,
        "contract": "contracts/Exafin.sol:Exafin",
        "label": "auditor",
        "offset": 0,
        "slot": "8",
        "type": "t_contract(IAuditor)4730"
      },
      {
        "astId": 3716,
        "contract": "contracts/Exafin.sol:Exafin",
        "label": "interestRateModel",
        "offset": 0,
        "slot": "9",
        "type": "t_contract(IInterestRateModel)4872"
      },
      {
        "astId": 3718,
        "contract": "contracts/Exafin.sol:Exafin",
        "label": "totalSupply",
        "offset": 0,
        "slot": "10",
        "type": "t_uint256"
      },
      {
        "astId": 3722,
        "contract": "contracts/Exafin.sol:Exafin",
        "label": "balances",
        "offset": 0,
        "slot": "11",
        "type": "t_mapping(t_address,t_uint256)"
      }
    ],
    "types": {
      "t_address": {
        "encoding": "inplace",
        "label": "address",
        "numberOfBytes": "20"
      },
      "t_array(t_uint256)dyn_storage": {
        "base": "t_uint256",
        "encoding": "dynamic_array",
        "label": "uint256[]",
        "numberOfBytes": "32"
      },
      "t_contract(IAuditor)4730": {
        "encoding": "inplace",
        "label": "contract IAuditor",
        "numberOfBytes": "20"
      },
      "t_contract(IERC20)595": {
        "encoding": "inplace",
        "label": "contract IERC20",
        "numberOfBytes": "20"
      },
      "t_contract(IInterestRateModel)4872": {
        "encoding": "inplace",
        "label": "contract IInterestRateModel",
        "numberOfBytes": "20"
      },
      "t_mapping(t_address,t_array(t_uint256)dyn_storage)": {
        "encoding": "mapping",
        "key": "t_address",
        "label": "mapping(address => uint256[])",
        "numberOfBytes": "32",
        "value": "t_array(t_uint256)dyn_storage"
      },
      "t_mapping(t_address,t_uint256)": {
        "encoding": "mapping",
        "key": "t_address",
        "label": "mapping(address => uint256)",
        "numberOfBytes": "32",
        "value": "t_uint256"
      },
      "t_mapping(t_uint256,t_mapping(t_address,t_uint256))": {
        "encoding": "mapping",
        "key": "t_uint256",
        "label": "mapping(uint256 => mapping(address => uint256))",
        "numberOfBytes": "32",
        "value": "t_mapping(t_address,t_uint256)"
      },
      "t_mapping(t_uint256,t_struct(Pool)4987_storage)": {
        "encoding": "mapping",
        "key": "t_uint256",
        "label": "mapping(uint256 => struct PoolLib.Pool)",
        "numberOfBytes": "32",
        "value": "t_struct(Pool)4987_storage"
      },
      "t_string_storage": {
        "encoding": "bytes",
        "label": "string",
        "numberOfBytes": "32"
      },
      "t_struct(Pool)4987_storage": {
        "encoding": "inplace",
        "label": "struct PoolLib.Pool",
        "members": [
          {
            "astId": 4984,
            "contract": "contracts/Exafin.sol:Exafin",
            "label": "borrowed",
            "offset": 0,
            "slot": "0",
            "type": "t_uint256"
          },
          {
            "astId": 4986,
            "contract": "contracts/Exafin.sol:Exafin",
            "label": "supplied",
            "offset": 0,
            "slot": "1",
            "type": "t_uint256"
          }
        ],
        "numberOfBytes": "64"
      },
      "t_uint256": {
        "encoding": "inplace",
        "label": "uint256",
        "numberOfBytes": "32"
      }
    }
  }
}