{
  "address": "0xE40c24F97E4D570931403b7a19eAD9E098D7e0eF",
  "abi": [
    {
      "inputs": [
        {
          "internalType": "address",
          "name": "_tokenAddress",
          "type": "address"
        },
        {
          "internalType": "string",
          "name": "_tokenName",
          "type": "string"
        },
        {
          "internalType": "address",
          "name": "_exaFrontAddress",
          "type": "address"
        }
      ],
      "stateMutability": "nonpayable",
      "type": "constructor"
    },
    {
      "anonymous": false,
      "inputs": [
        {
          "indexed": true,
          "internalType": "address",
          "name": "to",
          "type": "address"
        },
        {
          "indexed": false,
          "internalType": "uint256",
          "name": "amount",
          "type": "uint256"
        },
        {
          "indexed": false,
          "internalType": "uint256",
          "name": "commission",
          "type": "uint256"
        },
        {
          "indexed": false,
          "internalType": "uint256",
          "name": "maturityDate",
          "type": "uint256"
        }
      ],
      "name": "Borrowed",
      "type": "event"
    },
    {
      "anonymous": false,
      "inputs": [
        {
          "indexed": true,
          "internalType": "address",
          "name": "previousOwner",
          "type": "address"
        },
        {
          "indexed": true,
          "internalType": "address",
          "name": "newOwner",
          "type": "address"
        }
      ],
      "name": "OwnershipTransferred",
      "type": "event"
    },
    {
      "anonymous": false,
      "inputs": [
        {
          "indexed": true,
          "internalType": "address",
          "name": "from",
          "type": "address"
        },
        {
          "indexed": false,
          "internalType": "uint256",
          "name": "amount",
          "type": "uint256"
        },
        {
          "indexed": false,
          "internalType": "uint256",
          "name": "commission",
          "type": "uint256"
        },
        {
          "indexed": false,
          "internalType": "uint256",
          "name": "maturityDate",
          "type": "uint256"
        }
      ],
      "name": "Supplied",
      "type": "event"
    },
    {
      "inputs": [
        {
          "internalType": "address",
          "name": "",
          "type": "address"
        },
        {
          "internalType": "uint256",
          "name": "",
          "type": "uint256"
        }
      ],
      "name": "addressPools",
      "outputs": [
        {
          "internalType": "uint256",
          "name": "",
          "type": "uint256"
        }
      ],
      "stateMutability": "view",
      "type": "function"
    },
    {
      "inputs": [
        {
          "internalType": "address",
          "name": "to",
          "type": "address"
        },
        {
          "internalType": "uint256",
          "name": "amount",
          "type": "uint256"
        },
        {
          "internalType": "uint256",
          "name": "maturityDate",
          "type": "uint256"
        }
      ],
      "name": "borrow",
      "outputs": [],
      "stateMutability": "nonpayable",
      "type": "function"
    },
    {
      "inputs": [
        {
          "internalType": "uint256",
          "name": "",
          "type": "uint256"
        },
        {
          "internalType": "address",
          "name": "",
          "type": "address"
        }
      ],
      "name": "borrowedAmounts",
      "outputs": [
        {
          "internalType": "uint256",
          "name": "",
          "type": "uint256"
        }
      ],
      "stateMutability": "view",
      "type": "function"
    },
    {
      "inputs": [
        {
          "internalType": "address",
          "name": "who",
          "type": "address"
        },
        {
          "internalType": "uint256",
          "name": "maturityDate",
          "type": "uint256"
        }
      ],
      "name": "getAccountSnapshot",
      "outputs": [
        {
          "internalType": "uint256",
          "name": "",
          "type": "uint256"
        },
        {
          "internalType": "uint256",
          "name": "",
          "type": "uint256"
        },
        {
          "internalType": "uint256",
          "name": "",
          "type": "uint256"
        }
      ],
      "stateMutability": "view",
      "type": "function"
    },
    {
      "inputs": [
        {
          "internalType": "uint256",
          "name": "maturityDate",
          "type": "uint256"
        }
      ],
      "name": "getTotalBorrows",
      "outputs": [
        {
          "internalType": "uint256",
          "name": "",
          "type": "uint256"
        }
      ],
      "stateMutability": "view",
      "type": "function"
    },
    {
      "inputs": [
        {
          "internalType": "address",
          "name": "spender",
          "type": "address"
        },
        {
          "internalType": "uint256",
          "name": "value",
          "type": "uint256"
        }
      ],
      "name": "increaseAllowance",
      "outputs": [
        {
          "internalType": "bool",
          "name": "",
          "type": "bool"
        }
      ],
      "stateMutability": "nonpayable",
      "type": "function"
    },
    {
      "inputs": [],
      "name": "owner",
      "outputs": [
        {
          "internalType": "address",
          "name": "",
          "type": "address"
        }
      ],
      "stateMutability": "view",
      "type": "function"
    },
    {
      "inputs": [
        {
          "internalType": "uint256",
          "name": "",
          "type": "uint256"
        }
      ],
      "name": "pools",
      "outputs": [
        {
          "internalType": "uint256",
          "name": "lent",
          "type": "uint256"
        },
        {
          "internalType": "uint256",
          "name": "supplied",
          "type": "uint256"
        }
      ],
      "stateMutability": "view",
      "type": "function"
    },
    {
      "inputs": [
        {
          "internalType": "uint256",
          "name": "amount",
          "type": "uint256"
        },
        {
          "internalType": "uint256",
          "name": "maturityDate",
          "type": "uint256"
        }
      ],
      "name": "rateForSupply",
      "outputs": [
        {
          "internalType": "uint256",
          "name": "",
          "type": "uint256"
        },
        {
          "components": [
            {
              "internalType": "uint256",
              "name": "lent",
              "type": "uint256"
            },
            {
              "internalType": "uint256",
              "name": "supplied",
              "type": "uint256"
            }
          ],
          "internalType": "struct Pool",
          "name": "",
          "type": "tuple"
        }
      ],
      "stateMutability": "view",
      "type": "function"
    },
    {
      "inputs": [
        {
          "internalType": "uint256",
          "name": "amount",
          "type": "uint256"
        },
        {
          "internalType": "uint256",
          "name": "maturityDate",
          "type": "uint256"
        }
      ],
      "name": "rateToBorrow",
      "outputs": [
        {
          "internalType": "uint256",
          "name": "",
          "type": "uint256"
        },
        {
          "components": [
            {
              "internalType": "uint256",
              "name": "lent",
              "type": "uint256"
            },
            {
              "internalType": "uint256",
              "name": "supplied",
              "type": "uint256"
            }
          ],
          "internalType": "struct Pool",
          "name": "",
          "type": "tuple"
        }
      ],
      "stateMutability": "view",
      "type": "function"
    },
    {
      "inputs": [],
      "name": "renounceOwnership",
      "outputs": [],
      "stateMutability": "nonpayable",
      "type": "function"
    },
    {
      "inputs": [
        {
          "internalType": "uint256",
          "name": "",
          "type": "uint256"
        },
        {
          "internalType": "address",
          "name": "",
          "type": "address"
        }
      ],
      "name": "suppliedAmmounts",
      "outputs": [
        {
          "internalType": "uint256",
          "name": "",
          "type": "uint256"
        }
      ],
      "stateMutability": "view",
      "type": "function"
    },
    {
      "inputs": [
        {
          "internalType": "address",
          "name": "from",
          "type": "address"
        },
        {
          "internalType": "uint256",
          "name": "amount",
          "type": "uint256"
        },
        {
          "internalType": "uint256",
          "name": "maturityDate",
          "type": "uint256"
        }
      ],
      "name": "supply",
      "outputs": [],
      "stateMutability": "nonpayable",
      "type": "function"
    },
    {
      "inputs": [],
      "name": "tokenName",
      "outputs": [
        {
          "internalType": "string",
          "name": "",
          "type": "string"
        }
      ],
      "stateMutability": "view",
      "type": "function"
    },
    {
      "inputs": [
        {
          "internalType": "address",
          "name": "newOwner",
          "type": "address"
        }
      ],
      "name": "transferOwnership",
      "outputs": [],
      "stateMutability": "nonpayable",
      "type": "function"
    }
  ],
  "transactionHash": "0x257abcfb66929fe3cd2a2574d3be6288a321a94aeb2e010271d410ebcb8c2b5b",
  "args": [
    "0xC02aaA39b223FE8D0A0e5C4F27eAD9083C756Cc2",
    "ETH",
    "0x1c7B43a0bbab0a5EA0A1435F31D1c8e05Cc6aE98"
  ],
  "solcInputHash": "16510bc22069769f7915ab9e31e40da4",
  "bytecode": "0x60806040523480156200001157600080fd5b50604051620027eb380380620027eb8339818101604052810190620000379190620002f6565b600062000049620001b560201b60201c565b9050806000806101000a81548173ffffffffffffffffffffffffffffffffffffffff021916908373ffffffffffffffffffffffffffffffffffffffff1602179055508073ffffffffffffffffffffffffffffffffffffffff16600073ffffffffffffffffffffffffffffffffffffffff167f8be0079c531659141344cd1fd0a4f28419497f9722a3daafe3b4186f6b6457e060405160405180910390a35082600860006101000a81548173ffffffffffffffffffffffffffffffffffffffff021916908373ffffffffffffffffffffffffffffffffffffffff160217905550816009908051906020019062000140929190620001bd565b5080600a60006101000a81548173ffffffffffffffffffffffffffffffffffffffff021916908373ffffffffffffffffffffffffffffffffffffffff16021790555066470de4df820000600581905550662386f26fc1000060068190555066f8b0a10e470000600781905550505050620004e4565b600033905090565b828054620001cb9062000436565b90600052602060002090601f016020900481019282620001ef57600085556200023b565b82601f106200020a57805160ff19168380011785556200023b565b828001600101855582156200023b579182015b828111156200023a5782518255916020019190600101906200021d565b5b5090506200024a91906200024e565b5090565b5b80821115620002695760008160009055506001016200024f565b5090565b6000620002846200027e8462000399565b62000365565b9050828152602081018484840111156200029d57600080fd5b620002aa84828562000400565b509392505050565b600081519050620002c381620004ca565b92915050565b600082601f830112620002db57600080fd5b8151620002ed8482602086016200026d565b91505092915050565b6000806000606084860312156200030c57600080fd5b60006200031c86828701620002b2565b935050602084015167ffffffffffffffff8111156200033a57600080fd5b6200034886828701620002c9565b92505060406200035b86828701620002b2565b9150509250925092565b6000604051905081810181811067ffffffffffffffff821117156200038f576200038e6200049b565b5b8060405250919050565b600067ffffffffffffffff821115620003b757620003b66200049b565b5b601f19601f8301169050602081019050919050565b6000620003d982620003e0565b9050919050565b600073ffffffffffffffffffffffffffffffffffffffff82169050919050565b60005b838110156200042057808201518184015260208101905062000403565b8381111562000430576000848401525b50505050565b600060028204905060018216806200044f57607f821691505b602082108114156200046657620004656200046c565b5b50919050565b7f4e487b7100000000000000000000000000000000000000000000000000000000600052602260045260246000fd5b7f4e487b7100000000000000000000000000000000000000000000000000000000600052604160045260246000fd5b620004d581620003cc565b8114620004e157600080fd5b50565b6122f780620004f46000396000f3fe608060405234801561001057600080fd5b50600436106100f55760003560e01c80638da5cb5b11610097578063c1bce0b711610066578063c1bce0b7146102b1578063d2cdcad3146102cd578063ea1cd41f146102fd578063f2fde38b1461032d576100f5565b80638da5cb5b14610200578063a2bcf0211461021e578063a82eff211461024f578063ac4afa3814610280576100f5565b806355a1ac2e116100d357806355a1ac2e1461018a5780636c02a931146101bc578063715018a6146101da5780637dbca353146101e4576100f5565b80630d6547a2146100fa578063395093511461012a5780633c5b1c591461015a575b600080fd5b610114600480360381019061010f9190611921565b610349565b6040516101219190611f03565b60405180910390f35b610144600480360381019061013f919061181b565b61036e565b6040516101519190611de6565b60405180910390f35b610174600480360381019061016f919061181b565b6103c7565b6040516101819190611f03565b60405180910390f35b6101a4600480360381019061019f919061181b565b6103f8565b6040516101b393929190611f70565b60405180910390f35b6101c46104fd565b6040516101d19190611e01565b60405180910390f35b6101e261058b565b005b6101fe60048036038101906101f99190611857565b6106c5565b005b6102086109e9565b6040516102159190611cc6565b60405180910390f35b6102386004803603810190610233919061195d565b610a12565b604051610246929190611f1e565b60405180910390f35b6102696004803603810190610264919061195d565b610b48565b604051610277929190611f1e565b60405180910390f35b61029a600480360381019061029591906118cf565b610c71565b6040516102a8929190611f47565b60405180910390f35b6102cb60048036038101906102c69190611857565b610c95565b005b6102e760048036038101906102e29190611921565b610f92565b6040516102f49190611f03565b60405180910390f35b610317600480360381019061031291906118cf565b610fb7565b6040516103249190611f03565b60405180910390f35b610347600480360381019061034291906117f2565b610fe4565b005b6001602052816000526040600020602052806000526040600020600091509150505481565b60006103bd8383600860009054906101000a900473ffffffffffffffffffffffffffffffffffffffff1673ffffffffffffffffffffffffffffffffffffffff1661118d9092919063ffffffff16565b6001905092915050565b600460205281600052604060002081815481106103e357600080fd5b90600052602060002001600091509150505481565b600080600080610407856112ae565b905080421061044b576040517f08c379a000000000000000000000000000000000000000000000000000000000815260040161044290611ea3565b60405180910390fd5b60006001600083815260200190815260200160002060008873ffffffffffffffffffffffffffffffffffffffff1673ffffffffffffffffffffffffffffffffffffffff168152602001908152602001600020546002600084815260200190815260200160002060008973ffffffffffffffffffffffffffffffffffffffff1673ffffffffffffffffffffffffffffffffffffffff16815260200190815260200160002054935093509350509250925092565b6009805461050a9061217b565b80601f01602080910402602001604051908101604052809291908181526020018280546105369061217b565b80156105835780601f1061055857610100808354040283529160200191610583565b820191906000526020600020905b81548152906001019060200180831161056657829003601f168201915b505050505081565b6105936112cd565b73ffffffffffffffffffffffffffffffffffffffff166105b16109e9565b73ffffffffffffffffffffffffffffffffffffffff1614610607576040517f08c379a00000000000000000000000000000000000000000000000000000000081526004016105fe90611e83565b60405180910390fd5b600073ffffffffffffffffffffffffffffffffffffffff1660008054906101000a900473ffffffffffffffffffffffffffffffffffffffff1673ffffffffffffffffffffffffffffffffffffffff167f8be0079c531659141344cd1fd0a4f28419497f9722a3daafe3b4186f6b6457e060405160405180910390a360008060006101000a81548173ffffffffffffffffffffffffffffffffffffffff021916908373ffffffffffffffffffffffffffffffffffffffff160217905550565b60006106d0826112ae565b9050804210610714576040517f08c379a000000000000000000000000000000000000000000000000000000000815260040161070b90611ea3565b60405180910390fd5b61071e60016112d5565b60008061072b8585610b48565b9150915061073960026112d5565b6000670de0b6b3a764000083876107509190612060565b61075a919061202f565b905080866107689190611fd9565b6001600086815260200190815260200160002060008973ffffffffffffffffffffffffffffffffffffffff1673ffffffffffffffffffffffffffffffffffffffff16815260200190815260200160002060008282546107c79190611fd9565b925050819055508160036000868152602001908152602001600020600082015181600001556020820151816001015590505061080360036112d5565b61080c8761136e565b6108153061136e565b61081e866112d5565b6108d1600860009054906101000a900473ffffffffffffffffffffffffffffffffffffffff1673ffffffffffffffffffffffffffffffffffffffff166370a08231896040518263ffffffff1660e01b815260040161087c9190611cc6565b60206040518083038186803b15801561089457600080fd5b505afa1580156108a8573d6000803e3d6000fd5b505050506040513d601f19601f820116820180604052508101906108cc91906118f8565b6112d5565b600860009054906101000a900473ffffffffffffffffffffffffffffffffffffffff1673ffffffffffffffffffffffffffffffffffffffff166323b872dd883060016040518463ffffffff1660e01b815260040161093193929190611d0a565b602060405180830381600087803b15801561094b57600080fd5b505af115801561095f573d6000803e3d6000fd5b505050506040513d601f19601f8201168201806040525081019061098391906118a6565b5061098e60046112d5565b8673ffffffffffffffffffffffffffffffffffffffff167f59c246e4b3d64f626b5eac2dd8e3a3c46c4531e9cc40ef4e6f120fcb3df6be1e8783876040516109d893929190611f70565b60405180910390a250505050505050565b60008060009054906101000a900473ffffffffffffffffffffffffffffffffffffffff16905090565b6000610a1c611784565b6000610a27846112ae565b9050804210610a6b576040517f08c379a0000000000000000000000000000000000000000000000000000000008152600401610a6290611ea3565b60405180910390fd5b6000600360008381526020019081526020016000206040518060400160405290816000820154815260200160018201548152505090508581600001818151610ab39190611fd9565b91508181525050600062015180610ac942611407565b84610ad491906120ba565b610ade919061202f565b9050600082602001518360000151600754610af99190612060565b610b03919061202f565b600654600554610b139190611fd9565b610b1d9190611fd9565b905061016d8282610b2e9190612060565b610b38919061202f565b8395509550505050509250929050565b6000610b52611784565b6000610b5d846112ae565b9050804210610ba1576040517f08c379a0000000000000000000000000000000000000000000000000000000008152600401610b9890611ea3565b60405180910390fd5b6000600360008381526020019081526020016000206040518060400160405290816000820154815260200160018201548152505090508581602001818151610be99190611fd9565b91508181525050600062015180610bff42611407565b84610c0a91906120ba565b610c14919061202f565b9050600082602001518360000151600754610c2f9190612060565b610c39919061202f565b600554610c469190611fd9565b905061016d8282610c579190612060565b610c61919061202f565b8395509550505050509250929050565b60036020528060005260406000206000915090508060000154908060010154905082565b6000610ca0826112ae565b9050804210610ce4576040517f08c379a0000000000000000000000000000000000000000000000000000000008152600401610cdb90611ea3565b60405180910390fd5b600080610cf18585610a12565b915091506000600a60009054906101000a900473ffffffffffffffffffffffffffffffffffffffff1673ffffffffffffffffffffffffffffffffffffffff1663059a8008308989896040518563ffffffff1660e01b8152600401610d589493929190611d78565b602060405180830381600087803b158015610d7257600080fd5b505af1158015610d86573d6000803e3d6000fd5b505050506040513d601f19601f82011682018060405250810190610daa91906118f8565b905060006004811115610de6577f4e487b7100000000000000000000000000000000000000000000000000000000600052602160045260246000fd5b8114610e27576040517f08c379a0000000000000000000000000000000000000000000000000000000008152600401610e1e90611e43565b60405180910390fd5b6000670de0b6b3a76400008488610e3e9190612060565b610e48919061202f565b90508087610e569190611fd9565b6002600087815260200190815260200160002060008a73ffffffffffffffffffffffffffffffffffffffff1673ffffffffffffffffffffffffffffffffffffffff1681526020019081526020016000206000828254610eb59190611fd9565b9250508190555082600360008781526020019081526020016000206000820151816000015560208201518160010155905050610f36308989600860009054906101000a900473ffffffffffffffffffffffffffffffffffffffff1673ffffffffffffffffffffffffffffffffffffffff1661142a909392919063ffffffff16565b8773ffffffffffffffffffffffffffffffffffffffff167fc4381c9c7b508979896c55381c1cb8c2aef28d753cff7661f9cd87b9a14584f8888388604051610f8093929190611f70565b60405180910390a25050505050505050565b6002602052816000526040600020602052806000526040600020600091509150505481565b600080610fc3836112ae565b90506003600082815260200190815260200160002060000154915050919050565b610fec6112cd565b73ffffffffffffffffffffffffffffffffffffffff1661100a6109e9565b73ffffffffffffffffffffffffffffffffffffffff1614611060576040517f08c379a000000000000000000000000000000000000000000000000000000000815260040161105790611e83565b60405180910390fd5b600073ffffffffffffffffffffffffffffffffffffffff168173ffffffffffffffffffffffffffffffffffffffff1614156110d0576040517f08c379a00000000000000000000000000000000000000000000000000000000081526004016110c790611e23565b60405180910390fd5b8073ffffffffffffffffffffffffffffffffffffffff1660008054906101000a900473ffffffffffffffffffffffffffffffffffffffff1673ffffffffffffffffffffffffffffffffffffffff167f8be0079c531659141344cd1fd0a4f28419497f9722a3daafe3b4186f6b6457e060405160405180910390a3806000806101000a81548173ffffffffffffffffffffffffffffffffffffffff021916908373ffffffffffffffffffffffffffffffffffffffff16021790555050565b6000818473ffffffffffffffffffffffffffffffffffffffff1663dd62ed3e30866040518363ffffffff1660e01b81526004016111cb929190611ce1565b60206040518083038186803b1580156111e357600080fd5b505afa1580156111f7573d6000803e3d6000fd5b505050506040513d601f19601f8201168201806040525081019061121b91906118f8565b6112259190611fd9565b90506112a88463095ea7b360e01b8584604051602401611246929190611dbd565b604051602081830303815290604052907bffffffffffffffffffffffffffffffffffffffffffffffffffffffff19166020820180517bffffffffffffffffffffffffffffffffffffffffffffffffffffffff83818316178352505050506114b3565b50505050565b6000806112c26112bd8461157a565b61159d565b905080915050919050565b600033905090565b61136b816040516024016112e99190611f03565b6040516020818303038152906040527ff5b1bba9000000000000000000000000000000000000000000000000000000007bffffffffffffffffffffffffffffffffffffffffffffffffffffffff19166020820180517bffffffffffffffffffffffffffffffffffffffffffffffffffffffff83818316178352505050506115b5565b50565b611404816040516024016113829190611cc6565b6040516020818303038152906040527f2c2ecbc2000000000000000000000000000000000000000000000000000000007bffffffffffffffffffffffffffffffffffffffffffffffffffffffff19166020820180517bffffffffffffffffffffffffffffffffffffffffffffffffffffffff83818316178352505050506115b5565b50565b6000620151808261141891906121ad565b8261142391906120ba565b9050919050565b6114ad846323b872dd60e01b85858560405160240161144b93929190611d41565b604051602081830303815290604052907bffffffffffffffffffffffffffffffffffffffffffffffffffffffff19166020820180517bffffffffffffffffffffffffffffffffffffffffffffffffffffffff83818316178352505050506114b3565b50505050565b6000611515826040518060400160405280602081526020017f5361666545524332303a206c6f772d6c6576656c2063616c6c206661696c65648152508573ffffffffffffffffffffffffffffffffffffffff166115de9092919063ffffffff16565b9050600081511115611575578080602001905181019061153591906118a6565b611574576040517f08c379a000000000000000000000000000000000000000000000000000000000815260040161156b90611ee3565b60405180910390fd5b5b505050565b600062278d008261158b91906121ad565b8261159691906120ba565b9050919050565b600062278d00826115ae9190611fd9565b9050919050565b60008151905060006a636f6e736f6c652e6c6f679050602083016000808483855afa5050505050565b60606115ed84846000856115f6565b90509392505050565b60608247101561163b576040517f08c379a000000000000000000000000000000000000000000000000000000000815260040161163290611e63565b60405180910390fd5b6116448561170a565b611683576040517f08c379a000000000000000000000000000000000000000000000000000000000815260040161167a90611ec3565b60405180910390fd5b6000808673ffffffffffffffffffffffffffffffffffffffff1685876040516116ac9190611caf565b60006040518083038185875af1925050503d80600081146116e9576040519150601f19603f3d011682016040523d82523d6000602084013e6116ee565b606091505b50915091506116fe82828661171d565b92505050949350505050565b600080823b905060008111915050919050565b6060831561172d5782905061177d565b6000835111156117405782518084602001fd5b816040517f08c379a00000000000000000000000000000000000000000000000000000000081526004016117749190611e01565b60405180910390fd5b9392505050565b604051806040016040528060008152602001600081525090565b6000813590506117ad8161227c565b92915050565b6000815190506117c281612293565b92915050565b6000813590506117d7816122aa565b92915050565b6000815190506117ec816122aa565b92915050565b60006020828403121561180457600080fd5b60006118128482850161179e565b91505092915050565b6000806040838503121561182e57600080fd5b600061183c8582860161179e565b925050602061184d858286016117c8565b9150509250929050565b60008060006060848603121561186c57600080fd5b600061187a8682870161179e565b935050602061188b868287016117c8565b925050604061189c868287016117c8565b9150509250925092565b6000602082840312156118b857600080fd5b60006118c6848285016117b3565b91505092915050565b6000602082840312156118e157600080fd5b60006118ef848285016117c8565b91505092915050565b60006020828403121561190a57600080fd5b6000611918848285016117dd565b91505092915050565b6000806040838503121561193457600080fd5b6000611942858286016117c8565b92505060206119538582860161179e565b9150509250929050565b6000806040838503121561197057600080fd5b600061197e858286016117c8565b925050602061198f858286016117c8565b9150509250929050565b6119a2816120ee565b82525050565b6119b181612100565b82525050565b60006119c282611fa7565b6119cc8185611fbd565b93506119dc818560208601612148565b80840191505092915050565b6119f181612136565b82525050565b6000611a0282611fb2565b611a0c8185611fc8565b9350611a1c818560208601612148565b611a258161226b565b840191505092915050565b6000611a3d602683611fc8565b91507f4f776e61626c653a206e6577206f776e657220697320746865207a65726f206160008301527f64647265737300000000000000000000000000000000000000000000000000006020830152604082019050919050565b6000611aa3601c83611fc8565b91507f65786146726f6e74206e6f7420616c6c6f77696e6720626f72726f77000000006000830152602082019050919050565b6000611ae3602683611fc8565b91507f416464726573733a20696e73756666696369656e742062616c616e636520666f60008301527f722063616c6c00000000000000000000000000000000000000000000000000006020830152604082019050919050565b6000611b49602083611fc8565b91507f4f776e61626c653a2063616c6c6572206973206e6f7420746865206f776e65726000830152602082019050919050565b6000611b89601483611fc8565b91507f45786166696e3a20506f6f6c204d6174757265640000000000000000000000006000830152602082019050919050565b6000611bc9601d83611fc8565b91507f416464726573733a2063616c6c20746f206e6f6e2d636f6e74726163740000006000830152602082019050919050565b6000611c09602a83611fc8565b91507f5361666545524332303a204552433230206f7065726174696f6e20646964206e60008301527f6f742073756363656564000000000000000000000000000000000000000000006020830152604082019050919050565b604082016000820151611c786000850182611c91565b506020820151611c8b6020850182611c91565b50505050565b611c9a8161212c565b82525050565b611ca98161212c565b82525050565b6000611cbb82846119b7565b915081905092915050565b6000602082019050611cdb6000830184611999565b92915050565b6000604082019050611cf66000830185611999565b611d036020830184611999565b9392505050565b6000606082019050611d1f6000830186611999565b611d2c6020830185611999565b611d3960408301846119e8565b949350505050565b6000606082019050611d566000830186611999565b611d636020830185611999565b611d706040830184611ca0565b949350505050565b6000608082019050611d8d6000830187611999565b611d9a6020830186611999565b611da76040830185611ca0565b611db46060830184611ca0565b95945050505050565b6000604082019050611dd26000830185611999565b611ddf6020830184611ca0565b9392505050565b6000602082019050611dfb60008301846119a8565b92915050565b60006020820190508181036000830152611e1b81846119f7565b905092915050565b60006020820190508181036000830152611e3c81611a30565b9050919050565b60006020820190508181036000830152611e5c81611a96565b9050919050565b60006020820190508181036000830152611e7c81611ad6565b9050919050565b60006020820190508181036000830152611e9c81611b3c565b9050919050565b60006020820190508181036000830152611ebc81611b7c565b9050919050565b60006020820190508181036000830152611edc81611bbc565b9050919050565b60006020820190508181036000830152611efc81611bfc565b9050919050565b6000602082019050611f186000830184611ca0565b92915050565b6000606082019050611f336000830185611ca0565b611f406020830184611c62565b9392505050565b6000604082019050611f5c6000830185611ca0565b611f696020830184611ca0565b9392505050565b6000606082019050611f856000830186611ca0565b611f926020830185611ca0565b611f9f6040830184611ca0565b949350505050565b600081519050919050565b600081519050919050565b600081905092915050565b600082825260208201905092915050565b6000611fe48261212c565b9150611fef8361212c565b9250827fffffffffffffffffffffffffffffffffffffffffffffffffffffffffffffffff03821115612024576120236121de565b5b828201905092915050565b600061203a8261212c565b91506120458361212c565b9250826120555761205461220d565b5b828204905092915050565b600061206b8261212c565b91506120768361212c565b9250817fffffffffffffffffffffffffffffffffffffffffffffffffffffffffffffffff04831182151516156120af576120ae6121de565b5b828202905092915050565b60006120c58261212c565b91506120d08361212c565b9250828210156120e3576120e26121de565b5b828203905092915050565b60006120f98261210c565b9050919050565b60008115159050919050565b600073ffffffffffffffffffffffffffffffffffffffff82169050919050565b6000819050919050565b60006121418261212c565b9050919050565b60005b8381101561216657808201518184015260208101905061214b565b83811115612175576000848401525b50505050565b6000600282049050600182168061219357607f821691505b602082108114156121a7576121a661223c565b5b50919050565b60006121b88261212c565b91506121c38361212c565b9250826121d3576121d261220d565b5b828206905092915050565b7f4e487b7100000000000000000000000000000000000000000000000000000000600052601160045260246000fd5b7f4e487b7100000000000000000000000000000000000000000000000000000000600052601260045260246000fd5b7f4e487b7100000000000000000000000000000000000000000000000000000000600052602260045260246000fd5b6000601f19601f8301169050919050565b612285816120ee565b811461229057600080fd5b50565b61229c81612100565b81146122a757600080fd5b50565b6122b38161212c565b81146122be57600080fd5b5056fea26469706673582212207dadc4f01b2cceee8702811b68c12303248448418e43c6602818696f3d60037964736f6c63430008000033",
  "devdoc": {
    "kind": "dev",
    "methods": {
      "borrow(address,uint256,uint256)": {
        "details": "Lends to a wallet for a certain maturity date/pool",
        "params": {
          "amount": "amount to send to the specified wallet",
          "maturityDate": "maturity date for repayment",
          "to": "wallet to send the amount"
        }
      },
      "getAccountSnapshot(address,uint256)": {
        "details": "Gets current snapshot for a wallet in a certain maturity",
        "params": {
          "maturityDate": "maturity date",
          "who": "wallet to return status snapshot in the specified maturity date"
        }
      },
      "getTotalBorrows(uint256)": {
        "details": "Gets the total amount of borrowed money for a maturityDate",
        "params": {
          "maturityDate": "maturity date"
        }
      },
      "owner()": {
        "details": "Returns the address of the current owner."
      },
      "rateForSupply(uint256,uint256)": {
        "details": "Rate that the protocol will pay when borrowing from an address a certain amount at the end of the maturity date",
        "params": {
          "amount": "amount to calculate how it would affect the pool ",
          "maturityDate": "maturity date to calculate the pool"
        }
      },
      "rateToBorrow(uint256,uint256)": {
        "details": "Rate that the protocol will collect when lending to an address a certain amount at the end of the maturity date",
        "params": {
          "amount": "amount to calculate how it would affect the pool ",
          "maturityDate": "maturity date to calculate the pool"
        }
      },
      "renounceOwnership()": {
        "details": "Leaves the contract without owner. It will not be possible to call `onlyOwner` functions anymore. Can only be called by the current owner. NOTE: Renouncing ownership will leave the contract without an owner, thereby removing any functionality that is only available to the owner."
      },
      "supply(address,uint256,uint256)": {
        "details": "Borrows from a wallet for a certain maturity date/pool",
        "params": {
          "amount": "amount to receive from the specified wallet",
          "from": "wallet to receive amount from",
          "maturityDate": "maturity date "
        }
      },
      "transferOwnership(address)": {
        "details": "Transfers ownership of the contract to a new account (`newOwner`). Can only be called by the current owner."
      }
    },
    "version": 1
  },
  "userdoc": {
    "kind": "user",
    "methods": {},
    "version": 1
  },
  "storageLayout": {
    "storage": [
      {
        "astId": 7,
        "contract": "contracts/Exafin.sol:Exafin",
        "label": "_owner",
        "offset": 0,
        "slot": "0",
        "type": "t_address"
      },
      {
        "astId": 1407,
        "contract": "contracts/Exafin.sol:Exafin",
        "label": "suppliedAmmounts",
        "offset": 0,
        "slot": "1",
        "type": "t_mapping(t_uint256,t_mapping(t_address,t_uint256))"
      },
      {
        "astId": 1413,
        "contract": "contracts/Exafin.sol:Exafin",
        "label": "borrowedAmounts",
        "offset": 0,
        "slot": "2",
        "type": "t_mapping(t_uint256,t_mapping(t_address,t_uint256))"
      },
      {
        "astId": 1418,
        "contract": "contracts/Exafin.sol:Exafin",
        "label": "pools",
        "offset": 0,
        "slot": "3",
        "type": "t_mapping(t_uint256,t_struct(Pool)2013_storage)"
      },
      {
        "astId": 1423,
        "contract": "contracts/Exafin.sol:Exafin",
        "label": "addressPools",
        "offset": 0,
        "slot": "4",
        "type": "t_mapping(t_address,t_array(t_uint256)dyn_storage)"
      },
      {
        "astId": 1425,
        "contract": "contracts/Exafin.sol:Exafin",
        "label": "baseRate",
        "offset": 0,
        "slot": "5",
        "type": "t_uint256"
      },
      {
        "astId": 1427,
        "contract": "contracts/Exafin.sol:Exafin",
        "label": "marginRate",
        "offset": 0,
        "slot": "6",
        "type": "t_uint256"
      },
      {
        "astId": 1429,
        "contract": "contracts/Exafin.sol:Exafin",
        "label": "slopeRate",
        "offset": 0,
        "slot": "7",
        "type": "t_uint256"
      },
      {
        "astId": 1435,
        "contract": "contracts/Exafin.sol:Exafin",
        "label": "trustedUnderlying",
        "offset": 0,
        "slot": "8",
        "type": "t_contract(IERC20)187"
      },
      {
        "astId": 1438,
        "contract": "contracts/Exafin.sol:Exafin",
        "label": "tokenName",
        "offset": 0,
        "slot": "9",
        "type": "t_string_storage"
      },
      {
        "astId": 1441,
        "contract": "contracts/Exafin.sol:Exafin",
        "label": "exaFront",
        "offset": 0,
        "slot": "10",
        "type": "t_contract(IExaFront)2006"
      }
    ],
    "types": {
      "t_address": {
        "encoding": "inplace",
        "label": "address",
        "numberOfBytes": "20"
      },
      "t_array(t_uint256)dyn_storage": {
        "base": "t_uint256",
        "encoding": "dynamic_array",
        "label": "uint256[]",
        "numberOfBytes": "32"
      },
      "t_contract(IERC20)187": {
        "encoding": "inplace",
        "label": "contract IERC20",
        "numberOfBytes": "20"
      },
      "t_contract(IExaFront)2006": {
        "encoding": "inplace",
        "label": "contract IExaFront",
        "numberOfBytes": "20"
      },
      "t_mapping(t_address,t_array(t_uint256)dyn_storage)": {
        "encoding": "mapping",
        "key": "t_address",
        "label": "mapping(address => uint256[])",
        "numberOfBytes": "32",
        "value": "t_array(t_uint256)dyn_storage"
      },
      "t_mapping(t_address,t_uint256)": {
        "encoding": "mapping",
        "key": "t_address",
        "label": "mapping(address => uint256)",
        "numberOfBytes": "32",
        "value": "t_uint256"
      },
      "t_mapping(t_uint256,t_mapping(t_address,t_uint256))": {
        "encoding": "mapping",
        "key": "t_uint256",
        "label": "mapping(uint256 => mapping(address => uint256))",
        "numberOfBytes": "32",
        "value": "t_mapping(t_address,t_uint256)"
      },
      "t_mapping(t_uint256,t_struct(Pool)2013_storage)": {
        "encoding": "mapping",
        "key": "t_uint256",
        "label": "mapping(uint256 => struct Pool)",
        "numberOfBytes": "32",
        "value": "t_struct(Pool)2013_storage"
      },
      "t_string_storage": {
        "encoding": "bytes",
        "label": "string",
        "numberOfBytes": "32"
      },
      "t_struct(Pool)2013_storage": {
        "encoding": "inplace",
        "label": "struct Pool",
        "members": [
          {
            "astId": 2010,
            "contract": "contracts/Exafin.sol:Exafin",
            "label": "lent",
            "offset": 0,
            "slot": "0",
            "type": "t_uint256"
          },
          {
            "astId": 2012,
            "contract": "contracts/Exafin.sol:Exafin",
            "label": "supplied",
            "offset": 0,
            "slot": "1",
            "type": "t_uint256"
          }
        ],
        "numberOfBytes": "64"
      },
      "t_uint256": {
        "encoding": "inplace",
        "label": "uint256",
        "numberOfBytes": "32"
      }
    }
  }
}