{
  "address": "0x91595D68E9097f953a19ae66ac28fDC068582BbD",
  "abi": [
    {
      "inputs": [
        {
          "internalType": "address",
          "name": "_priceOracleAddress",
          "type": "address"
        }
      ],
      "stateMutability": "nonpayable",
      "type": "constructor"
    },
    {
      "anonymous": false,
      "inputs": [
        {
          "indexed": false,
          "internalType": "address",
          "name": "exafin",
          "type": "address"
        },
        {
          "indexed": false,
          "internalType": "string",
          "name": "action",
          "type": "string"
        },
        {
          "indexed": false,
          "internalType": "bool",
          "name": "paused",
          "type": "bool"
        }
      ],
      "name": "ActionPaused",
      "type": "event"
    },
    {
      "anonymous": false,
      "inputs": [
        {
          "indexed": false,
          "internalType": "contract IExafin",
          "name": "exafin",
          "type": "address"
        },
        {
          "indexed": false,
          "internalType": "address",
          "name": "account",
          "type": "address"
        }
      ],
      "name": "MarketEntered",
      "type": "event"
    },
    {
      "anonymous": false,
      "inputs": [
        {
          "indexed": true,
          "internalType": "address",
          "name": "previousOwner",
          "type": "address"
        },
        {
          "indexed": true,
          "internalType": "address",
          "name": "newOwner",
          "type": "address"
        }
      ],
      "name": "OwnershipTransferred",
      "type": "event"
    },
    {
      "anonymous": false,
      "inputs": [
        {
          "indexed": true,
          "internalType": "bytes32",
          "name": "role",
          "type": "bytes32"
        },
        {
          "indexed": true,
          "internalType": "bytes32",
          "name": "previousAdminRole",
          "type": "bytes32"
        },
        {
          "indexed": true,
          "internalType": "bytes32",
          "name": "newAdminRole",
          "type": "bytes32"
        }
      ],
      "name": "RoleAdminChanged",
      "type": "event"
    },
    {
      "anonymous": false,
      "inputs": [
        {
          "indexed": true,
          "internalType": "bytes32",
          "name": "role",
          "type": "bytes32"
        },
        {
          "indexed": true,
          "internalType": "address",
          "name": "account",
          "type": "address"
        },
        {
          "indexed": true,
          "internalType": "address",
          "name": "sender",
          "type": "address"
        }
      ],
      "name": "RoleGranted",
      "type": "event"
    },
    {
      "anonymous": false,
      "inputs": [
        {
          "indexed": true,
          "internalType": "bytes32",
          "name": "role",
          "type": "bytes32"
        },
        {
          "indexed": true,
          "internalType": "address",
          "name": "account",
          "type": "address"
        },
        {
          "indexed": true,
          "internalType": "address",
          "name": "sender",
          "type": "address"
        }
      ],
      "name": "RoleRevoked",
      "type": "event"
    },
    {
      "inputs": [],
      "name": "DEFAULT_ADMIN_ROLE",
      "outputs": [
        {
          "internalType": "bytes32",
          "name": "",
          "type": "bytes32"
        }
      ],
      "stateMutability": "view",
      "type": "function"
    },
    {
      "inputs": [],
      "name": "TEAM_ROLE",
      "outputs": [
        {
          "internalType": "bytes32",
          "name": "",
          "type": "bytes32"
        }
      ],
      "stateMutability": "view",
      "type": "function"
    },
    {
      "inputs": [
        {
          "internalType": "address",
          "name": "",
          "type": "address"
        },
        {
          "internalType": "uint256",
          "name": "",
          "type": "uint256"
        }
      ],
      "name": "accountAssets",
      "outputs": [
        {
          "internalType": "contract IExafin",
          "name": "",
          "type": "address"
        }
      ],
      "stateMutability": "view",
      "type": "function"
    },
    {
      "inputs": [
        {
          "internalType": "address",
          "name": "exafinAddress",
          "type": "address"
        },
        {
          "internalType": "address",
          "name": "borrower",
          "type": "address"
        },
        {
          "internalType": "uint256",
          "name": "borrowAmount",
          "type": "uint256"
        },
        {
          "internalType": "uint256",
          "name": "maturityDate",
          "type": "uint256"
        }
      ],
      "name": "borrowAllowed",
      "outputs": [
        {
          "internalType": "uint256",
          "name": "",
          "type": "uint256"
        }
      ],
      "stateMutability": "nonpayable",
      "type": "function"
    },
    {
      "inputs": [
        {
          "internalType": "address",
          "name": "",
          "type": "address"
        }
      ],
      "name": "borrowCaps",
      "outputs": [
        {
          "internalType": "uint256",
          "name": "",
          "type": "uint256"
        }
      ],
      "stateMutability": "view",
      "type": "function"
    },
    {
      "inputs": [
        {
          "internalType": "address",
          "name": "",
          "type": "address"
        }
      ],
      "name": "borrowPaused",
      "outputs": [
        {
          "internalType": "bool",
          "name": "",
          "type": "bool"
        }
      ],
      "stateMutability": "view",
      "type": "function"
    },
    {
      "inputs": [],
      "name": "closeFactor",
      "outputs": [
        {
          "internalType": "uint256",
          "name": "",
          "type": "uint256"
        }
      ],
      "stateMutability": "view",
      "type": "function"
    },
    {
      "inputs": [
        {
          "internalType": "address",
          "name": "exafin",
          "type": "address"
        },
        {
          "internalType": "uint256",
          "name": "collateralFactor",
          "type": "uint256"
        },
        {
          "internalType": "string",
          "name": "symbol",
          "type": "string"
        },
        {
          "internalType": "string",
          "name": "name",
          "type": "string"
        }
      ],
      "name": "enableMarket",
      "outputs": [],
      "stateMutability": "nonpayable",
      "type": "function"
    },
    {
      "inputs": [
        {
          "internalType": "address[]",
          "name": "exafins",
          "type": "address[]"
        }
      ],
      "name": "enterMarkets",
      "outputs": [
        {
          "internalType": "uint256[]",
          "name": "",
          "type": "uint256[]"
        }
      ],
      "stateMutability": "nonpayable",
      "type": "function"
    },
    {
      "inputs": [
        {
          "internalType": "address",
          "name": "account",
          "type": "address"
        },
        {
          "internalType": "uint256",
          "name": "maturityDate",
          "type": "uint256"
        }
      ],
      "name": "getAccountLiquidity",
      "outputs": [
        {
          "internalType": "uint256",
          "name": "",
          "type": "uint256"
        },
        {
          "internalType": "uint256",
          "name": "",
          "type": "uint256"
        },
        {
          "internalType": "uint256",
          "name": "",
          "type": "uint256"
        }
      ],
      "stateMutability": "view",
      "type": "function"
    },
    {
      "inputs": [
        {
          "internalType": "address",
          "name": "contractAddress",
          "type": "address"
        }
      ],
      "name": "getMarketByAddress",
      "outputs": [
        {
          "internalType": "address",
          "name": "",
          "type": "address"
        },
        {
          "internalType": "string",
          "name": "",
          "type": "string"
        },
        {
          "internalType": "bool",
          "name": "",
          "type": "bool"
        },
        {
          "internalType": "uint256",
          "name": "",
          "type": "uint256"
        },
        {
          "internalType": "string",
          "name": "",
          "type": "string"
        }
      ],
      "stateMutability": "view",
      "type": "function"
    },
    {
      "inputs": [],
      "name": "getMarkets",
      "outputs": [
        {
          "internalType": "address[]",
          "name": "",
          "type": "address[]"
        },
        {
          "internalType": "string[]",
          "name": "",
          "type": "string[]"
        },
        {
          "internalType": "bool[]",
          "name": "",
          "type": "bool[]"
        },
        {
          "internalType": "uint256[]",
          "name": "",
          "type": "uint256[]"
        },
        {
          "internalType": "string[]",
          "name": "",
          "type": "string[]"
        }
      ],
      "stateMutability": "view",
      "type": "function"
    },
    {
      "inputs": [
        {
          "internalType": "bytes32",
          "name": "role",
          "type": "bytes32"
        }
      ],
      "name": "getRoleAdmin",
      "outputs": [
        {
          "internalType": "bytes32",
          "name": "",
          "type": "bytes32"
        }
      ],
      "stateMutability": "view",
      "type": "function"
    },
    {
      "inputs": [
        {
          "internalType": "bytes32",
          "name": "role",
          "type": "bytes32"
        },
        {
          "internalType": "address",
          "name": "account",
          "type": "address"
        }
      ],
      "name": "grantRole",
      "outputs": [],
      "stateMutability": "nonpayable",
      "type": "function"
    },
    {
      "inputs": [
        {
          "internalType": "bytes32",
          "name": "role",
          "type": "bytes32"
        },
        {
          "internalType": "address",
          "name": "account",
          "type": "address"
        }
      ],
      "name": "hasRole",
      "outputs": [
        {
          "internalType": "bool",
          "name": "",
          "type": "bool"
        }
      ],
      "stateMutability": "view",
      "type": "function"
    },
    {
      "inputs": [
        {
          "internalType": "address",
          "name": "exafin",
          "type": "address"
        }
      ],
      "name": "listMarket",
      "outputs": [],
      "stateMutability": "nonpayable",
      "type": "function"
    },
    {
      "inputs": [
        {
          "internalType": "address",
          "name": "",
          "type": "address"
        }
      ],
      "name": "listedMarkets",
      "outputs": [
        {
          "internalType": "string",
          "name": "symbol",
          "type": "string"
        },
        {
          "internalType": "string",
          "name": "name",
          "type": "string"
        },
        {
          "internalType": "bool",
          "name": "isListed",
          "type": "bool"
        },
        {
          "internalType": "uint256",
          "name": "collateralFactor",
          "type": "uint256"
        },
        {
          "internalType": "bool",
          "name": "exists",
          "type": "bool"
        }
      ],
      "stateMutability": "view",
      "type": "function"
    },
    {
      "inputs": [
        {
          "internalType": "address",
          "name": "",
          "type": "address"
        }
      ],
      "name": "markets",
      "outputs": [
        {
          "components": [
            {
              "internalType": "string",
              "name": "symbol",
              "type": "string"
            },
            {
              "internalType": "string",
              "name": "name",
              "type": "string"
            },
            {
              "internalType": "bool",
              "name": "isListed",
              "type": "bool"
            },
            {
              "internalType": "uint256",
              "name": "collateralFactor",
              "type": "uint256"
            },
            {
              "internalType": "bool",
              "name": "exists",
              "type": "bool"
            }
          ],
          "internalType": "struct Auditor.BaseMarket",
          "name": "baseMarket",
          "type": "tuple"
        }
      ],
      "stateMutability": "view",
      "type": "function"
    },
    {
      "inputs": [
        {
          "internalType": "uint256",
          "name": "",
          "type": "uint256"
        }
      ],
      "name": "marketsAddress",
      "outputs": [
        {
          "internalType": "address",
          "name": "",
          "type": "address"
        }
      ],
      "stateMutability": "view",
      "type": "function"
    },
    {
      "inputs": [],
      "name": "owner",
      "outputs": [
        {
          "internalType": "address",
          "name": "",
          "type": "address"
        }
      ],
      "stateMutability": "view",
      "type": "function"
    },
    {
      "inputs": [
        {
          "internalType": "address",
          "name": "exafin",
          "type": "address"
        },
        {
          "internalType": "bool",
          "name": "paused",
          "type": "bool"
        }
      ],
      "name": "pauseBorrow",
      "outputs": [
        {
          "internalType": "bool",
          "name": "",
          "type": "bool"
        }
      ],
      "stateMutability": "nonpayable",
      "type": "function"
    },
    {
      "inputs": [
        {
          "internalType": "address",
          "name": "exafinAddress",
          "type": "address"
        },
        {
          "internalType": "address",
          "name": "redeemer",
          "type": "address"
        },
        {
          "internalType": "uint256",
          "name": "redeemTokens",
          "type": "uint256"
        },
        {
          "internalType": "uint256",
          "name": "maturityDate",
          "type": "uint256"
        }
      ],
      "name": "redeemAllowed",
      "outputs": [
        {
          "internalType": "uint256",
          "name": "",
          "type": "uint256"
        }
      ],
      "stateMutability": "view",
      "type": "function"
    },
    {
      "inputs": [],
      "name": "renounceOwnership",
      "outputs": [],
      "stateMutability": "nonpayable",
      "type": "function"
    },
    {
      "inputs": [
        {
          "internalType": "bytes32",
          "name": "role",
          "type": "bytes32"
        },
        {
          "internalType": "address",
          "name": "account",
          "type": "address"
        }
      ],
      "name": "renounceRole",
      "outputs": [],
      "stateMutability": "nonpayable",
      "type": "function"
    },
    {
      "inputs": [
        {
          "internalType": "address",
          "name": "exafinAddress",
          "type": "address"
        },
        {
          "internalType": "address",
          "name": "borrower",
          "type": "address"
        },
        {
          "internalType": "uint256",
          "name": "repayAmount",
          "type": "uint256"
        },
        {
          "internalType": "uint256",
          "name": "maturityDate",
          "type": "uint256"
        }
      ],
      "name": "repayAllowed",
      "outputs": [
        {
          "internalType": "uint256",
          "name": "",
          "type": "uint256"
        }
      ],
      "stateMutability": "view",
      "type": "function"
    },
    {
      "inputs": [
        {
          "internalType": "bytes32",
          "name": "role",
          "type": "bytes32"
        },
        {
          "internalType": "address",
          "name": "account",
          "type": "address"
        }
      ],
      "name": "revokeRole",
      "outputs": [],
      "stateMutability": "nonpayable",
      "type": "function"
    },
    {
      "inputs": [
        {
          "internalType": "address",
          "name": "_priceOracleAddress",
          "type": "address"
        }
      ],
      "name": "setOracle",
      "outputs": [],
      "stateMutability": "nonpayable",
      "type": "function"
    },
    {
      "inputs": [
        {
          "internalType": "address",
          "name": "exafinAddress",
          "type": "address"
        },
        {
          "internalType": "address",
          "name": "supplier",
          "type": "address"
        },
        {
          "internalType": "uint256",
          "name": "supplyAmount",
          "type": "uint256"
        },
        {
          "internalType": "uint256",
          "name": "maturityDate",
          "type": "uint256"
        }
      ],
      "name": "supplyAllowed",
      "outputs": [
        {
          "internalType": "uint256",
          "name": "",
          "type": "uint256"
        }
      ],
      "stateMutability": "view",
      "type": "function"
    },
    {
      "inputs": [
        {
          "internalType": "bytes4",
          "name": "interfaceId",
          "type": "bytes4"
        }
      ],
      "name": "supportsInterface",
      "outputs": [
        {
          "internalType": "bool",
          "name": "",
          "type": "bool"
        }
      ],
      "stateMutability": "view",
      "type": "function"
    },
    {
      "inputs": [
        {
          "internalType": "address",
          "name": "newOwner",
          "type": "address"
        }
      ],
      "name": "transferOwnership",
      "outputs": [],
      "stateMutability": "nonpayable",
      "type": "function"
    },
    {
      "inputs": [
        {
          "internalType": "address",
          "name": "exafin",
          "type": "address"
        }
      ],
      "name": "unlistMarket",
      "outputs": [],
      "stateMutability": "nonpayable",
      "type": "function"
    }
  ],
  "transactionHash": "0x6bb7cfe52df647696f28fb5b07947ba97a86df89312fed6285057b89d750bb37",
  "args": [
    "0x6d2299c48a8dd07a872fdd0f8233924872ad1071"
  ],
  "solcInputHash": "a4d32c0697ee955e59e0c3a29e9978df",
  "bytecode": "0x608060405260006007556706f05b59d3b200006009553480156200002257600080fd5b506040516200596c3803806200596c833981810160405281019062000048919062000318565b60006200005a6200018760201b60201c565b9050806000806101000a81548173ffffffffffffffffffffffffffffffffffffffff021916908373ffffffffffffffffffffffffffffffffffffffff1602179055508073ffffffffffffffffffffffffffffffffffffffff16600073ffffffffffffffffffffffffffffffffffffffff167f8be0079c531659141344cd1fd0a4f28419497f9722a3daafe3b4186f6b6457e060405160405180910390a35080600a60006101000a81548173ffffffffffffffffffffffffffffffffffffffff021916908373ffffffffffffffffffffffffffffffffffffffff1602179055506200014e6000801b336200018f60201b60201c565b620001807f5146a08baf902532d0ee2f909971144f12ca32651cd70cbee1117cddfb3b3b33336200018f60201b60201c565b5062000392565b600033905090565b620001a18282620001a560201b60201c565b5050565b620001b782826200029660201b60201c565b6200029257600180600084815260200190815260200160002060000160008373ffffffffffffffffffffffffffffffffffffffff1673ffffffffffffffffffffffffffffffffffffffff16815260200190815260200160002060006101000a81548160ff021916908315150217905550620002376200018760201b60201c565b73ffffffffffffffffffffffffffffffffffffffff168173ffffffffffffffffffffffffffffffffffffffff16837f2f8788117e7eff1d82e926ec794901d17c78024a50270940304540a733656f0d60405160405180910390a45b5050565b60006001600084815260200190815260200160002060000160008373ffffffffffffffffffffffffffffffffffffffff1673ffffffffffffffffffffffffffffffffffffffff16815260200190815260200160002060009054906101000a900460ff16905092915050565b600081519050620003128162000378565b92915050565b6000602082840312156200032b57600080fd5b60006200033b8482850162000301565b91505092915050565b6000620003518262000358565b9050919050565b600073ffffffffffffffffffffffffffffffffffffffff82169050919050565b620003838162000344565b81146200038f57600080fd5b50565b6155ca80620003a26000396000f3fe608060405234801561001057600080fd5b50600436106101e55760003560e01c80638da5cb5b1161010f578063d76a6779116100a2578063df26c46811610071578063df26c46814610606578063ec2c90161461063a578063f2fde38b1461065c578063f4ae956014610678576101e5565b8063d76a677914610546578063d9189ac414610576578063dce15449146105a6578063dec481b8146105d6576101e5565b8063a217fddf116100de578063a217fddf146104c0578063c2998238146104de578063ce8190191461050e578063d547741f1461052a576101e5565b80638da5cb5b146104105780638e8f294b1461042e57806391d148541461045e5780639e35e1421461048e576101e5565b80632f2ff15d116101875780634a584432116101565780634a5844321461038a57806353c4fc98146103ba578063715018a6146103ea5780637adbf973146103f4576101e5565b80632f2ff15d146103045780632f8832d61461032057806336568abe1461035057806349d5e6041461036c576101e5565b80630686dab6116101c35780630686dab614610268578063248a9ca31461028457806326319519146102b45780632ee01216146102d0576101e5565b806301ffc9a7146101ea57806305308b9f1461021a578063059a800814610238575b600080fd5b61020460048036038101906101ff919061427d565b6106a8565b6040516102119190614cf7565b60405180910390f35b610222610722565b60405161022f9190614fb6565b60405180910390f35b610252600480360381019061024d9190614065565b610728565b60405161025f9190614fb6565b60405180910390f35b610282600480360381019061027d919061403c565b610f72565b005b61029e60048036038101906102999190614218565b61112a565b6040516102ab9190614d12565b60405180910390f35b6102ce60048036038101906102c9919061403c565b61114a565b005b6102ea60048036038101906102e5919061403c565b611398565b6040516102fb959493929190614d93565b60405180910390f35b61031e60048036038101906103199190614241565b6114f8565b005b61033a60048036038101906103359190614065565b611521565b6040516103479190614fb6565b60405180910390f35b61036a60048036038101906103659190614241565b611881565b005b610374611904565b6040516103819190614d12565b60405180910390f35b6103a4600480360381019061039f919061403c565b611928565b6040516103b19190614fb6565b60405180910390f35b6103d460048036038101906103cf9190614065565b611940565b6040516103e19190614fb6565b60405180910390f35b6103f2611ab0565b005b61040e6004803603810190610409919061403c565b611bea565b005b610418611c61565b6040516104259190614b7e565b60405180910390f35b6104486004803603810190610443919061403c565b611c8a565b6040516104559190614f94565b60405180910390f35b61047860048036038101906104739190614241565b611e16565b6040516104859190614cf7565b60405180910390f35b6104a860048036038101906104a39190614104565b611e81565b6040516104b793929190614fd1565b60405180910390f35b6104c8611eea565b6040516104d59190614d12565b60405180910390f35b6104f860048036038101906104f391906141d3565b611ef1565b6040516105059190614cd5565b60405180910390f35b61052860048036038101906105239190614140565b612072565b005b610544600480360381019061053f9190614241565b6122da565b005b610560600480360381019061055b919061403c565b612303565b60405161056d9190614cf7565b60405180910390f35b610590600480360381019061058b9190614065565b612323565b60405161059d9190614fb6565b60405180910390f35b6105c060048036038101906105bb9190614104565b612493565b6040516105cd9190614d2d565b60405180910390f35b6105f060048036038101906105eb91906140c8565b6124e1565b6040516105fd9190614cf7565b60405180910390f35b610620600480360381019061061b919061403c565b612641565b604051610631959493929190614b99565b60405180910390f35b6106426127e5565b604051610653959493929190614c5f565b60405180910390f35b6106766004803603810190610671919061403c565b612d8c565b005b610692600480360381019061068d91906142e7565b612f35565b60405161069f9190614b7e565b60405180910390f35b60007f7965db0b000000000000000000000000000000000000000000000000000000007bffffffffffffffffffffffffffffffffffffffffffffffffffffffff1916827bffffffffffffffffffffffffffffffffffffffffffffffffffffffff1916148061071b575061071a82612f74565b5b9050919050565b60095481565b6000600460008673ffffffffffffffffffffffffffffffffffffffff1673ffffffffffffffffffffffffffffffffffffffff16815260200190815260200160002060009054906101000a900460ff16156107b7576040517f08c379a00000000000000000000000000000000000000000000000000000000081526004016107ae90614f54565b60405180910390fd5b600115156107c483612fde565b151514610806576040517f08c379a00000000000000000000000000000000000000000000000000000000081526004016107fd90614f34565b60405180910390fd5b814210610848576040517f08c379a000000000000000000000000000000000000000000000000000000000815260040161083f90614e54565b60405180910390fd5b600260008673ffffffffffffffffffffffffffffffffffffffff1673ffffffffffffffffffffffffffffffffffffffff16815260200190815260200160002060000160020160009054906101000a900460ff166108e057600160058111156108d9577f4e487b7100000000000000000000000000000000000000000000000000000000600052602160045260246000fd5b9050610f6a565b600260008673ffffffffffffffffffffffffffffffffffffffff1673ffffffffffffffffffffffffffffffffffffffff16815260200190815260200160002060050160008573ffffffffffffffffffffffffffffffffffffffff1673ffffffffffffffffffffffffffffffffffffffff16815260200190815260200160002060009054906101000a900460ff16610b68578473ffffffffffffffffffffffffffffffffffffffff163373ffffffffffffffffffffffffffffffffffffffff16146109df576040517f08c379a00000000000000000000000000000000000000000000000000000000081526004016109d690614eb4565b60405180910390fd5b60006109eb3386612ff8565b905060006005811115610a27577f4e487b7100000000000000000000000000000000000000000000000000000000600052602160045260246000fd5b816005811115610a60577f4e487b7100000000000000000000000000000000000000000000000000000000600052602160045260246000fd5b14610aa657806005811115610a9e577f4e487b7100000000000000000000000000000000000000000000000000000000600052602160045260246000fd5b915050610f6a565b600260008773ffffffffffffffffffffffffffffffffffffffff1673ffffffffffffffffffffffffffffffffffffffff16815260200190815260200160002060050160008673ffffffffffffffffffffffffffffffffffffffff1673ffffffffffffffffffffffffffffffffffffffff16815260200190815260200160002060009054906101000a900460ff16610b66577f4e487b7100000000000000000000000000000000000000000000000000000000600052600160045260246000fd5b505b6000600a60009054906101000a900473ffffffffffffffffffffffffffffffffffffffff1673ffffffffffffffffffffffffffffffffffffffff1663fe2c61988773ffffffffffffffffffffffffffffffffffffffff16636c02a9316040518163ffffffff1660e01b815260040160006040518083038186803b158015610bee57600080fd5b505afa158015610c02573d6000803e3d6000fd5b505050506040513d6000823e3d601f19601f82011682018060405250810190610c2b91906142a6565b6040518263ffffffff1660e01b8152600401610c479190614d71565b60206040518083038186803b158015610c5f57600080fd5b505afa158015610c73573d6000803e3d6000fd5b505050506040513d601f19601f82011682018060405250810190610c979190614310565b1415610cde5760036005811115610cd7577f4e487b7100000000000000000000000000000000000000000000000000000000600052602160045260246000fd5b9050610f6a565b6000600560008773ffffffffffffffffffffffffffffffffffffffff1673ffffffffffffffffffffffffffffffffffffffff16815260200190815260200160002054905060008114610e0c5760008673ffffffffffffffffffffffffffffffffffffffff1663ea1cd41f856040518263ffffffff1660e01b8152600401610d659190614fb6565b60206040518083038186803b158015610d7d57600080fd5b505afa158015610d91573d6000803e3d6000fd5b505050506040513d601f19601f82011682018060405250810190610db59190614310565b905060008582610dc59190615185565b9050828110610e09576040517f08c379a0000000000000000000000000000000000000000000000000000000008152600401610e0090614ef4565b60405180910390fd5b50505b600080610e1d87868a60008a613203565b925050915060006005811115610e5c577f4e487b7100000000000000000000000000000000000000000000000000000000600052602160045260246000fd5b826005811115610e95577f4e487b7100000000000000000000000000000000000000000000000000000000600052602160045260246000fd5b14610edd57816005811115610ed3577f4e487b7100000000000000000000000000000000000000000000000000000000600052602160045260246000fd5b9350505050610f6a565b6000811115610f2a5760046005811115610f20577f4e487b7100000000000000000000000000000000000000000000000000000000600052602160045260246000fd5b9350505050610f6a565b60006005811115610f64577f4e487b7100000000000000000000000000000000000000000000000000000000600052602160045260246000fd5b93505050505b949350505050565b7f5146a08baf902532d0ee2f909971144f12ca32651cd70cbee1117cddfb3b3b33610fa481610f9f613752565b61375a565b600260008373ffffffffffffffffffffffffffffffffffffffff1673ffffffffffffffffffffffffffffffffffffffff16815260200190815260200160002060000160040160009054906101000a900460ff16611036576040517f08c379a000000000000000000000000000000000000000000000000000000000815260040161102d90614f14565b60405180910390fd5b6000600260008473ffffffffffffffffffffffffffffffffffffffff1673ffffffffffffffffffffffffffffffffffffffff16815260200190815260200160002060000160020160006101000a81548160ff021916908315150217905550600360008373ffffffffffffffffffffffffffffffffffffffff1673ffffffffffffffffffffffffffffffffffffffff168152602001908152602001600020600080820160006110e49190613cfe565b6001820160006110f49190613cfe565b6002820160006101000a81549060ff021916905560038201600090556004820160006101000a81549060ff021916905550505050565b600060016000838152602001908152602001600020600101549050919050565b7f5146a08baf902532d0ee2f909971144f12ca32651cd70cbee1117cddfb3b3b3361117c81611177613752565b61375a565b600260008373ffffffffffffffffffffffffffffffffffffffff1673ffffffffffffffffffffffffffffffffffffffff16815260200190815260200160002060000160040160009054906101000a900460ff1661120e576040517f08c379a000000000000000000000000000000000000000000000000000000000815260040161120590614f14565b60405180910390fd5b6001600260008473ffffffffffffffffffffffffffffffffffffffff1673ffffffffffffffffffffffffffffffffffffffff16815260200190815260200160002060000160020160006101000a81548160ff021916908315150217905550600260008373ffffffffffffffffffffffffffffffffffffffff1673ffffffffffffffffffffffffffffffffffffffff168152602001908152602001600020600001600360008473ffffffffffffffffffffffffffffffffffffffff1673ffffffffffffffffffffffffffffffffffffffff1681526020019081526020016000206000820181600001908054611301906153a8565b61130c929190613d3e565b506001820181600101908054611321906153a8565b61132c929190613d3e565b506002820160009054906101000a900460ff168160020160006101000a81548160ff021916908315150217905550600382015481600301556004820160009054906101000a900460ff168160040160006101000a81548160ff0219169083151502179055509050505050565b60036020528060005260406000206000915090508060000180546113bb906153a8565b80601f01602080910402602001604051908101604052809291908181526020018280546113e7906153a8565b80156114345780601f1061140957610100808354040283529160200191611434565b820191906000526020600020905b81548152906001019060200180831161141757829003601f168201915b505050505090806001018054611449906153a8565b80601f0160208091040260200160405190810160405280929190818152602001828054611475906153a8565b80156114c25780601f10611497576101008083540402835291602001916114c2565b820191906000526020600020905b8154815290600101906020018083116114a557829003601f168201915b5050505050908060020160009054906101000a900460ff16908060030154908060040160009054906101000a900460ff16905085565b6115018261112a565b6115128161150d613752565b61375a565b61151c83836137f7565b505050565b6000600260008673ffffffffffffffffffffffffffffffffffffffff1673ffffffffffffffffffffffffffffffffffffffff16815260200190815260200160002060000160020160009054906101000a900460ff166115bb57600160058111156115b4577f4e487b7100000000000000000000000000000000000000000000000000000000600052602160045260246000fd5b9050611879565b600115156115c883612fde565b15151461160a576040517f08c379a000000000000000000000000000000000000000000000000000000000815260040161160190614f34565b60405180910390fd5b81421161164c576040517f08c379a000000000000000000000000000000000000000000000000000000000815260040161164390614df4565b60405180910390fd5b600260008673ffffffffffffffffffffffffffffffffffffffff1673ffffffffffffffffffffffffffffffffffffffff16815260200190815260200160002060050160008573ffffffffffffffffffffffffffffffffffffffff1673ffffffffffffffffffffffffffffffffffffffff16815260200190815260200160002060009054906101000a900460ff1661171e5760006005811115611717577f4e487b7100000000000000000000000000000000000000000000000000000000600052602160045260246000fd5b9050611879565b60008061172f868589886000613203565b92505091506000600581111561176e577f4e487b7100000000000000000000000000000000000000000000000000000000600052602160045260246000fd5b8260058111156117a7577f4e487b7100000000000000000000000000000000000000000000000000000000600052602160045260246000fd5b146117ee578160058111156117e5577f4e487b7100000000000000000000000000000000000000000000000000000000600052602160045260246000fd5b92505050611879565b600081111561183a5760046005811115611831577f4e487b7100000000000000000000000000000000000000000000000000000000600052602160045260246000fd5b92505050611879565b60006005811115611874577f4e487b7100000000000000000000000000000000000000000000000000000000600052602160045260246000fd5b925050505b949350505050565b611889613752565b73ffffffffffffffffffffffffffffffffffffffff168173ffffffffffffffffffffffffffffffffffffffff16146118f6576040517f08c379a00000000000000000000000000000000000000000000000000000000081526004016118ed90614f74565b60405180910390fd5b61190082826138d7565b5050565b7f5146a08baf902532d0ee2f909971144f12ca32651cd70cbee1117cddfb3b3b3381565b60056020528060005260406000206000915090505481565b6000600260008673ffffffffffffffffffffffffffffffffffffffff1673ffffffffffffffffffffffffffffffffffffffff16815260200190815260200160002060000160020160009054906101000a900460ff166119da57600160058111156119d3577f4e487b7100000000000000000000000000000000000000000000000000000000600052602160045260246000fd5b9050611aa8565b600115156119e783612fde565b151514611a29576040517f08c379a0000000000000000000000000000000000000000000000000000000008152600401611a2090614f34565b60405180910390fd5b814210611a6b576040517f08c379a0000000000000000000000000000000000000000000000000000000008152600401611a6290614e54565b60405180910390fd5b60006005811115611aa5577f4e487b7100000000000000000000000000000000000000000000000000000000600052602160045260246000fd5b90505b949350505050565b611ab8613752565b73ffffffffffffffffffffffffffffffffffffffff16611ad6611c61565b73ffffffffffffffffffffffffffffffffffffffff1614611b2c576040517f08c379a0000000000000000000000000000000000000000000000000000000008152600401611b2390614e74565b60405180910390fd5b600073ffffffffffffffffffffffffffffffffffffffff1660008054906101000a900473ffffffffffffffffffffffffffffffffffffffff1673ffffffffffffffffffffffffffffffffffffffff167f8be0079c531659141344cd1fd0a4f28419497f9722a3daafe3b4186f6b6457e060405160405180910390a360008060006101000a81548173ffffffffffffffffffffffffffffffffffffffff021916908373ffffffffffffffffffffffffffffffffffffffff160217905550565b7f5146a08baf902532d0ee2f909971144f12ca32651cd70cbee1117cddfb3b3b33611c1c81611c17613752565b61375a565b81600a60006101000a81548173ffffffffffffffffffffffffffffffffffffffff021916908373ffffffffffffffffffffffffffffffffffffffff1602179055505050565b60008060009054906101000a900473ffffffffffffffffffffffffffffffffffffffff16905090565b6002602052806000526040600020600091509050806000016040518060a0016040529081600082018054611cbd906153a8565b80601f0160208091040260200160405190810160405280929190818152602001828054611ce9906153a8565b8015611d365780601f10611d0b57610100808354040283529160200191611d36565b820191906000526020600020905b815481529060010190602001808311611d1957829003601f168201915b50505050508152602001600182018054611d4f906153a8565b80601f0160208091040260200160405190810160405280929190818152602001828054611d7b906153a8565b8015611dc85780601f10611d9d57610100808354040283529160200191611dc8565b820191906000526020600020905b815481529060010190602001808311611dab57829003601f168201915b505050505081526020016002820160009054906101000a900460ff16151515158152602001600382015481526020016004820160009054906101000a900460ff161515151581525050905081565b60006001600084815260200190815260200160002060000160008373ffffffffffffffffffffffffffffffffffffffff1673ffffffffffffffffffffffffffffffffffffffff16815260200190815260200160002060009054906101000a900460ff16905092915050565b600080600080600080611e9988886000806000613203565b925092509250826005811115611ed8577f4e487b7100000000000000000000000000000000000000000000000000000000600052602160045260246000fd5b82829550955095505050509250925092565b6000801b81565b6060600083839050905060008167ffffffffffffffff811115611f3d577f4e487b7100000000000000000000000000000000000000000000000000000000600052604160045260246000fd5b604051908082528060200260200182016040528015611f6b5781602001602082028036833780820191505090505b50905060005b82811015612066576000868683818110611fb4577f4e487b7100000000000000000000000000000000000000000000000000000000600052603260045260246000fd5b9050602002016020810190611fc9919061403c565b9050611fd58133612ff8565b600581111561200d577f4e487b7100000000000000000000000000000000000000000000000000000000600052602160045260246000fd5b838381518110612046577f4e487b7100000000000000000000000000000000000000000000000000000000600052603260045260246000fd5b60200260200101818152505050808061205e906153da565b915050611f71565b50809250505092915050565b7f5146a08baf902532d0ee2f909971144f12ca32651cd70cbee1117cddfb3b3b336120a48161209f613752565b61375a565b6000600260008773ffffffffffffffffffffffffffffffffffffffff1673ffffffffffffffffffffffffffffffffffffffff168152602001908152602001600020905060018160000160020160006101000a81548160ff02191690831515021790555060018160000160040160006101000a81548160ff0219169083151502179055508481600001600301819055508381600001600001908051906020019061214e929190613dcb565b508281600001600101908051906020019061216a929190613dcb565b5080600001600360008873ffffffffffffffffffffffffffffffffffffffff1673ffffffffffffffffffffffffffffffffffffffff16815260200190815260200160002060008201816000019080546121c2906153a8565b6121cd929190613d3e565b5060018201816001019080546121e2906153a8565b6121ed929190613d3e565b506002820160009054906101000a900460ff168160020160006101000a81548160ff021916908315150217905550600382015481600301556004820160009054906101000a900460ff168160040160006101000a81548160ff0219169083151502179055509050506001600760008282546122689190615185565b925050819055506008869080600181540180825580915050600190039060005260206000200160009091909190916101000a81548173ffffffffffffffffffffffffffffffffffffffff021916908373ffffffffffffffffffffffffffffffffffffffff160217905550505050505050565b6122e38261112a565b6122f4816122ef613752565b61375a565b6122fe83836138d7565b505050565b60046020528060005260406000206000915054906101000a900460ff1681565b6000600260008673ffffffffffffffffffffffffffffffffffffffff1673ffffffffffffffffffffffffffffffffffffffff16815260200190815260200160002060000160020160009054906101000a900460ff166123bd57600160058111156123b6577f4e487b7100000000000000000000000000000000000000000000000000000000600052602160045260246000fd5b905061248b565b600115156123ca83612fde565b15151461240c576040517f08c379a000000000000000000000000000000000000000000000000000000000815260040161240390614f34565b60405180910390fd5b81421161244e576040517f08c379a000000000000000000000000000000000000000000000000000000000815260040161244590614df4565b60405180910390fd5b60006005811115612488577f4e487b7100000000000000000000000000000000000000000000000000000000600052602160045260246000fd5b90505b949350505050565b600660205281600052604060002081815481106124af57600080fd5b906000526020600020016000915091509054906101000a900473ffffffffffffffffffffffffffffffffffffffff1681565b60007f5146a08baf902532d0ee2f909971144f12ca32651cd70cbee1117cddfb3b3b3361251581612510613752565b61375a565b600260008573ffffffffffffffffffffffffffffffffffffffff1673ffffffffffffffffffffffffffffffffffffffff16815260200190815260200160002060000160020160009054906101000a900460ff166125a7576040517f08c379a000000000000000000000000000000000000000000000000000000000815260040161259e90614ed4565b60405180910390fd5b82600460008673ffffffffffffffffffffffffffffffffffffffff1673ffffffffffffffffffffffffffffffffffffffff16815260200190815260200160002060006101000a81548160ff0219169083151502179055507f71aec636243f9709bb0007ae15e9afb8150ab01716d75fd7573be5cc096e03b0848460405161262f929190614bfa565b60405180910390a18291505092915050565b6000606060008060606000600260008873ffffffffffffffffffffffffffffffffffffffff1673ffffffffffffffffffffffffffffffffffffffff168152602001908152602001600020905086816000016000018260000160020160009054906101000a900460ff168360000160030154846000016001018380546126c5906153a8565b80601f01602080910402602001604051908101604052809291908181526020018280546126f1906153a8565b801561273e5780601f106127135761010080835404028352916020019161273e565b820191906000526020600020905b81548152906001019060200180831161272157829003601f168201915b50505050509350808054612751906153a8565b80601f016020809104026020016040519081016040528092919081815260200182805461277d906153a8565b80156127ca5780601f1061279f576101008083540402835291602001916127ca565b820191906000526020600020905b8154815290600101906020018083116127ad57829003601f168201915b50505050509050955095509550955095505091939590929450565b6060806060806060600060075467ffffffffffffffff811115612831577f4e487b7100000000000000000000000000000000000000000000000000000000600052604160045260246000fd5b60405190808252806020026020018201604052801561285f5781602001602082028036833780820191505090505b509050600060075467ffffffffffffffff8111156128a6577f4e487b7100000000000000000000000000000000000000000000000000000000600052604160045260246000fd5b6040519080825280602002602001820160405280156128d957816020015b60608152602001906001900390816128c45790505b509050600060075467ffffffffffffffff811115612920577f4e487b7100000000000000000000000000000000000000000000000000000000600052604160045260246000fd5b60405190808252806020026020018201604052801561295357816020015b606081526020019060019003908161293e5790505b509050600060075467ffffffffffffffff81111561299a577f4e487b7100000000000000000000000000000000000000000000000000000000600052604160045260246000fd5b6040519080825280602002602001820160405280156129c85781602001602082028036833780820191505090505b50905060005b600754811015612ce85760006002600060088481548110612a18577f4e487b7100000000000000000000000000000000000000000000000000000000600052603260045260246000fd5b9060005260206000200160009054906101000a900473ffffffffffffffffffffffffffffffffffffffff1673ffffffffffffffffffffffffffffffffffffffff1673ffffffffffffffffffffffffffffffffffffffff16815260200190815260200160002090508060000160020160009054906101000a900460ff16868381518110612acd577f4e487b7100000000000000000000000000000000000000000000000000000000600052603260045260246000fd5b602002602001019015159081151581525050806000016000018054612af1906153a8565b80601f0160208091040260200160405190810160405280929190818152602001828054612b1d906153a8565b8015612b6a5780601f10612b3f57610100808354040283529160200191612b6a565b820191906000526020600020905b815481529060010190602001808311612b4d57829003601f168201915b5050505050858381518110612ba8577f4e487b7100000000000000000000000000000000000000000000000000000000600052603260045260246000fd5b6020026020010181905250806000016001018054612bc5906153a8565b80601f0160208091040260200160405190810160405280929190818152602001828054612bf1906153a8565b8015612c3e5780601f10612c1357610100808354040283529160200191612c3e565b820191906000526020600020905b815481529060010190602001808311612c2157829003601f168201915b5050505050848381518110612c7c577f4e487b7100000000000000000000000000000000000000000000000000000000600052603260045260246000fd5b60200260200101819052508060000160030154838381518110612cc8577f4e487b7100000000000000000000000000000000000000000000000000000000600052603260045260246000fd5b602002602001018181525050508080612ce0906153da565b9150506129ce565b5060088385838584805480602002602001604051908101604052809291908181526020018280548015612d7057602002820191906000526020600020905b8160009054906101000a900473ffffffffffffffffffffffffffffffffffffffff1673ffffffffffffffffffffffffffffffffffffffff1681526020019060010190808311612d26575b5050505050945098509850985098509850505050509091929394565b612d94613752565b73ffffffffffffffffffffffffffffffffffffffff16612db2611c61565b73ffffffffffffffffffffffffffffffffffffffff1614612e08576040517f08c379a0000000000000000000000000000000000000000000000000000000008152600401612dff90614e74565b60405180910390fd5b600073ffffffffffffffffffffffffffffffffffffffff168173ffffffffffffffffffffffffffffffffffffffff161415612e78576040517f08c379a0000000000000000000000000000000000000000000000000000000008152600401612e6f90614e34565b60405180910390fd5b8073ffffffffffffffffffffffffffffffffffffffff1660008054906101000a900473ffffffffffffffffffffffffffffffffffffffff1673ffffffffffffffffffffffffffffffffffffffff167f8be0079c531659141344cd1fd0a4f28419497f9722a3daafe3b4186f6b6457e060405160405180910390a3806000806101000a81548173ffffffffffffffffffffffffffffffffffffffff021916908373ffffffffffffffffffffffffffffffffffffffff16021790555050565b60088181548110612f4557600080fd5b906000526020600020016000915054906101000a900473ffffffffffffffffffffffffffffffffffffffff1681565b60007f01ffc9a7000000000000000000000000000000000000000000000000000000007bffffffffffffffffffffffffffffffffffffffffffffffffffffffff1916827bffffffffffffffffffffffffffffffffffffffffffffffffffffffff1916149050919050565b6000806212750083612ff09190615423565b149050919050565b600080600260008573ffffffffffffffffffffffffffffffffffffffff1673ffffffffffffffffffffffffffffffffffffffff16815260200190815260200160002090508060000160020160009054906101000a900460ff1661305f5760019150506131fd565b600115158160050160008573ffffffffffffffffffffffffffffffffffffffff1673ffffffffffffffffffffffffffffffffffffffff16815260200190815260200160002060009054906101000a900460ff16151514156130c45760009150506131fd565b60018160050160008573ffffffffffffffffffffffffffffffffffffffff1673ffffffffffffffffffffffffffffffffffffffff16815260200190815260200160002060006101000a81548160ff021916908315150217905550600660008473ffffffffffffffffffffffffffffffffffffffff1673ffffffffffffffffffffffffffffffffffffffff168152602001908152602001600020849080600181540180825580915050600190039060005260206000200160009091909190916101000a81548173ffffffffffffffffffffffffffffffffffffffff021916908373ffffffffffffffffffffffffffffffffffffffff1602179055507f3ab23ab0d51cccc0c3085aec51f99228625aa1a922b3a8ca89a26b0f2027a1a584846040516131ef929190614d48565b60405180910390a160009150505b92915050565b6000806000613210613e51565b6000600660008b73ffffffffffffffffffffffffffffffffffffffff1673ffffffffffffffffffffffffffffffffffffffff1681526020019081526020016000208054806020026020016040519081016040528092919081815260200182805480156132d157602002820191906000526020600020905b8160009054906101000a900473ffffffffffffffffffffffffffffffffffffffff1673ffffffffffffffffffffffffffffffffffffffff1681526020019060010190808311613287575b5050505050905060005b81518110156136f157600082828151811061331f577f4e487b7100000000000000000000000000000000000000000000000000000000600052603260045260246000fd5b602002602001015190508073ffffffffffffffffffffffffffffffffffffffff166355a1ac2e8d8d6040518363ffffffff1660e01b8152600401613364929190614c36565b604080518083038186803b15801561337b57600080fd5b505afa15801561338f573d6000803e3d6000fd5b505050506040513d601f19601f820116820180604052508101906133b39190614339565b856000018660200182815250828152505050600260008273ffffffffffffffffffffffffffffffffffffffff1673ffffffffffffffffffffffffffffffffffffffff16815260200190815260200160002060000160030154846040018181525050600a60009054906101000a900473ffffffffffffffffffffffffffffffffffffffff1673ffffffffffffffffffffffffffffffffffffffff1663fe2c61988273ffffffffffffffffffffffffffffffffffffffff16636c02a9316040518163ffffffff1660e01b815260040160006040518083038186803b15801561349857600080fd5b505afa1580156134ac573d6000803e3d6000fd5b505050506040513d6000823e3d601f19601f820116820180604052508101906134d591906142a6565b6040518263ffffffff1660e01b81526004016134f19190614d71565b60206040518083038186803b15801561350957600080fd5b505afa15801561351d573d6000803e3d6000fd5b505050506040513d601f19601f820116820180604052508101906135419190614310565b846060018181525050600084606001511415613592576040517f08c379a000000000000000000000000000000000000000000000000000000000815260040161358990614e94565b60405180910390fd5b6135c88460600151620f42406135b9876040015188600001516139b990919063ffffffff16565b6139e29092919063ffffffff16565b846080018181516135d99190615185565b915081815250506136008460600151620f424086602001516139e29092919063ffffffff16565b8460a0018181516136119190615185565b915081815250508973ffffffffffffffffffffffffffffffffffffffff168173ffffffffffffffffffffffffffffffffffffffff1614156136dd5760008814613689576136708460600151620f42408a6139e29092919063ffffffff16565b8460a0018181516136819190615185565b915081815250505b600089146136dc576136c38460600151620f42406136b487604001518d6139b990919063ffffffff16565b6139e29092919063ffffffff16565b8460a0018181516136d49190615185565b915081815250505b5b5080806136e9906153da565b9150506132db565b508160a00151826080015111156137275760008260a0015183608001516137189190615266565b60009450945094505050613747565b60008083608001518460a0015161373e9190615266565b94509450945050505b955095509592505050565b600033905090565b6137648282611e16565b6137f3576137898173ffffffffffffffffffffffffffffffffffffffff166014613a04565b6137978360001c6020613a04565b6040516020016137a8929190614b44565b6040516020818303038152906040526040517f08c379a00000000000000000000000000000000000000000000000000000000081526004016137ea9190614d71565b60405180910390fd5b5050565b6138018282611e16565b6138d357600180600084815260200190815260200160002060000160008373ffffffffffffffffffffffffffffffffffffffff1673ffffffffffffffffffffffffffffffffffffffff16815260200190815260200160002060006101000a81548160ff021916908315150217905550613878613752565b73ffffffffffffffffffffffffffffffffffffffff168173ffffffffffffffffffffffffffffffffffffffff16837f2f8788117e7eff1d82e926ec794901d17c78024a50270940304540a733656f0d60405160405180910390a45b5050565b6138e18282611e16565b156139b55760006001600084815260200190815260200160002060000160008373ffffffffffffffffffffffffffffffffffffffff1673ffffffffffffffffffffffffffffffffffffffff16815260200190815260200160002060006101000a81548160ff02191690831515021790555061395a613752565b73ffffffffffffffffffffffffffffffffffffffff168173ffffffffffffffffffffffffffffffffffffffff16837ff6391f5c32d9c69d2a47ea670b442974b53935d1edc7fd64eb21e047a839171b60405160405180910390a45b5050565b6000670de0b6b3a764000082846139d0919061520c565b6139da91906151db565b905092915050565b60008183856139f1919061520c565b6139fb91906151db565b90509392505050565b606060006002836002613a17919061520c565b613a219190615185565b67ffffffffffffffff811115613a60577f4e487b7100000000000000000000000000000000000000000000000000000000600052604160045260246000fd5b6040519080825280601f01601f191660200182016040528015613a925781602001600182028036833780820191505090505b5090507f300000000000000000000000000000000000000000000000000000000000000081600081518110613af0577f4e487b7100000000000000000000000000000000000000000000000000000000600052603260045260246000fd5b60200101907effffffffffffffffffffffffffffffffffffffffffffffffffffffffffffff1916908160001a9053507f780000000000000000000000000000000000000000000000000000000000000081600181518110613b7a577f4e487b7100000000000000000000000000000000000000000000000000000000600052603260045260246000fd5b60200101907effffffffffffffffffffffffffffffffffffffffffffffffffffffffffffff1916908160001a90535060006001846002613bba919061520c565b613bc49190615185565b90505b6001811115613cb0577f3031323334353637383961626364656600000000000000000000000000000000600f861660108110613c2c577f4e487b7100000000000000000000000000000000000000000000000000000000600052603260045260246000fd5b1a60f81b828281518110613c69577f4e487b7100000000000000000000000000000000000000000000000000000000600052603260045260246000fd5b60200101907effffffffffffffffffffffffffffffffffffffffffffffffffffffffffffff1916908160001a905350600485901c945080613ca99061537e565b9050613bc7565b5060008414613cf4576040517f08c379a0000000000000000000000000000000000000000000000000000000008152600401613ceb90614e14565b60405180910390fd5b8091505092915050565b508054613d0a906153a8565b6000825580601f10613d1c5750613d3b565b601f016020900490600052602060002090810190613d3a9190613e87565b5b50565b828054613d4a906153a8565b90600052602060002090601f016020900481019282613d6c5760008555613dba565b82601f10613d7d5780548555613dba565b82800160010185558215613dba57600052602060002091601f016020900482015b82811115613db9578254825591600101919060010190613d9e565b5b509050613dc79190613e87565b5090565b828054613dd7906153a8565b90600052602060002090601f016020900481019282613df95760008555613e40565b82601f10613e1257805160ff1916838001178555613e40565b82800160010185558215613e40579182015b82811115613e3f578251825591602001919060010190613e24565b5b509050613e4d9190613e87565b5090565b6040518060c001604052806000815260200160008152602001600081526020016000815260200160008152602001600081525090565b5b80821115613ea0576000816000905550600101613e88565b5090565b6000613eb7613eb284615039565b615008565b905082815260208101848484011115613ecf57600080fd5b613eda84828561533c565b509392505050565b6000613ef5613ef084615039565b615008565b905082815260208101848484011115613f0d57600080fd5b613f1884828561534b565b509392505050565b600081359050613f2f81615521565b92915050565b60008083601f840112613f4757600080fd5b8235905067ffffffffffffffff811115613f6057600080fd5b602083019150836020820283011115613f7857600080fd5b9250929050565b600081359050613f8e81615538565b92915050565b600081359050613fa38161554f565b92915050565b600081359050613fb881615566565b92915050565b600082601f830112613fcf57600080fd5b8135613fdf848260208601613ea4565b91505092915050565b600082601f830112613ff957600080fd5b8151614009848260208601613ee2565b91505092915050565b6000813590506140218161557d565b92915050565b6000815190506140368161557d565b92915050565b60006020828403121561404e57600080fd5b600061405c84828501613f20565b91505092915050565b6000806000806080858703121561407b57600080fd5b600061408987828801613f20565b945050602061409a87828801613f20565b93505060406140ab87828801614012565b92505060606140bc87828801614012565b91505092959194509250565b600080604083850312156140db57600080fd5b60006140e985828601613f20565b92505060206140fa85828601613f7f565b9150509250929050565b6000806040838503121561411757600080fd5b600061412585828601613f20565b925050602061413685828601614012565b9150509250929050565b6000806000806080858703121561415657600080fd5b600061416487828801613f20565b945050602061417587828801614012565b935050604085013567ffffffffffffffff81111561419257600080fd5b61419e87828801613fbe565b925050606085013567ffffffffffffffff8111156141bb57600080fd5b6141c787828801613fbe565b91505092959194509250565b600080602083850312156141e657600080fd5b600083013567ffffffffffffffff81111561420057600080fd5b61420c85828601613f35565b92509250509250929050565b60006020828403121561422a57600080fd5b600061423884828501613f94565b91505092915050565b6000806040838503121561425457600080fd5b600061426285828601613f94565b925050602061427385828601613f20565b9150509250929050565b60006020828403121561428f57600080fd5b600061429d84828501613fa9565b91505092915050565b6000602082840312156142b857600080fd5b600082015167ffffffffffffffff8111156142d257600080fd5b6142de84828501613fe8565b91505092915050565b6000602082840312156142f957600080fd5b600061430784828501614012565b91505092915050565b60006020828403121561432257600080fd5b600061433084828501614027565b91505092915050565b6000806040838503121561434c57600080fd5b600061435a85828601614027565b925050602061436b85828601614027565b9150509250929050565b600061438183836143d1565b60208301905092915050565b6000614399838361457e565b60208301905092915050565b60006143b183836145ba565b905092915050565b60006143c58383614b26565b60208301905092915050565b6143da8161529a565b82525050565b6143e98161529a565b82525050565b60006143fa826150a9565b6144048185615114565b935061440f83615069565b8060005b838110156144405781516144278882614375565b9750614432836150e0565b925050600181019050614413565b5085935050505092915050565b6000614458826150b4565b6144628185615125565b935061446d83615079565b8060005b8381101561449e578151614485888261438d565b9750614490836150ed565b925050600181019050614471565b5085935050505092915050565b60006144b6826150bf565b6144c08185615136565b9350836020820285016144d285615089565b8060005b8581101561450e57848403895281516144ef85826143a5565b94506144fa836150fa565b925060208a019950506001810190506144d6565b50829750879550505050505092915050565b600061452b826150ca565b6145358185615147565b935061454083615099565b8060005b8381101561457157815161455888826143b9565b975061456383615107565b925050600181019050614544565b5085935050505092915050565b614587816152ac565b82525050565b614596816152ac565b82525050565b6145a5816152b8565b82525050565b6145b481615318565b82525050565b60006145c5826150d5565b6145cf8185615158565b93506145df81856020860161534b565b6145e881615510565b840191505092915050565b60006145fe826150d5565b6146088185615169565b935061461881856020860161534b565b61462181615510565b840191505092915050565b6000614637826150d5565b614641818561517a565b935061465181856020860161534b565b80840191505092915050565b600061466a600f83615169565b91507f506f6f6c204e6f74204d617475726500000000000000000000000000000000006000830152602082019050919050565b60006146aa602083615169565b91507f537472696e67733a20686578206c656e67746820696e73756666696369656e746000830152602082019050919050565b60006146ea602683615169565b91507f4f776e61626c653a206e6577206f776e657220697320746865207a65726f206160008301527f64647265737300000000000000000000000000000000000000000000000000006020830152604082019050919050565b6000614750600c83615169565b91507f506f6f6c204d61747572656400000000000000000000000000000000000000006000830152602082019050919050565b6000614790600683615169565b91507f426f72726f7700000000000000000000000000000000000000000000000000006000830152602082019050919050565b60006147d0602083615169565b91507f4f776e61626c653a2063616c6c6572206973206e6f7420746865206f776e65726000830152602082019050919050565b6000614810601283615169565b91507f5072696365204f7261636c65206572726f7200000000000000000000000000006000830152602082019050919050565b6000614850601583615169565b91507f73656e646572206d7573742062652063546f6b656e00000000000000000000006000830152602082019050919050565b6000614890600a83615169565b91507f6e6f74206c6973746564000000000000000000000000000000000000000000006000830152602082019050919050565b60006148d0601983615169565b91507f6d61726b657420626f72726f77206361702072656163686564000000000000006000830152602082019050919050565b6000614910601783615169565b91507f41646472657373206973206e6f742061206d61726b65740000000000000000006000830152602082019050919050565b6000614950600d83615169565b91507f4e6f74206120706f6f6c204944000000000000000000000000000000000000006000830152602082019050919050565b600061499060178361517a565b91507f416363657373436f6e74726f6c3a206163636f756e74200000000000000000006000830152601782019050919050565b60006149d060118361517a565b91507f206973206d697373696e6720726f6c65200000000000000000000000000000006000830152601182019050919050565b6000614a10601083615169565b91507f626f72726f7720697320706175736564000000000000000000000000000000006000830152602082019050919050565b6000614a50602f83615169565b91507f416363657373436f6e74726f6c3a2063616e206f6e6c792072656e6f756e636560008301527f20726f6c657320666f722073656c6600000000000000000000000000000000006020830152604082019050919050565b600060a0830160008301518482036000860152614ac682826145ba565b91505060208301518482036020860152614ae082826145ba565b9150506040830151614af5604086018261457e565b506060830151614b086060860182614b26565b506080830151614b1b608086018261457e565b508091505092915050565b614b2f8161530e565b82525050565b614b3e8161530e565b82525050565b6000614b4f82614983565b9150614b5b828561462c565b9150614b66826149c3565b9150614b72828461462c565b91508190509392505050565b6000602082019050614b9360008301846143e0565b92915050565b600060a082019050614bae60008301886143e0565b8181036020830152614bc081876145f3565b9050614bcf604083018661458d565b614bdc6060830185614b35565b8181036080830152614bee81846145f3565b90509695505050505050565b6000606082019050614c0f60008301856143e0565b8181036020830152614c2081614783565b9050614c2f604083018461458d565b9392505050565b6000604082019050614c4b60008301856143e0565b614c586020830184614b35565b9392505050565b600060a0820190508181036000830152614c7981886143ef565b90508181036020830152614c8d81876144ab565b90508181036040830152614ca1818661444d565b90508181036060830152614cb58185614520565b90508181036080830152614cc981846144ab565b90509695505050505050565b60006020820190508181036000830152614cef8184614520565b905092915050565b6000602082019050614d0c600083018461458d565b92915050565b6000602082019050614d27600083018461459c565b92915050565b6000602082019050614d4260008301846145ab565b92915050565b6000604082019050614d5d60008301856145ab565b614d6a60208301846143e0565b9392505050565b60006020820190508181036000830152614d8b81846145f3565b905092915050565b600060a0820190508181036000830152614dad81886145f3565b90508181036020830152614dc181876145f3565b9050614dd0604083018661458d565b614ddd6060830185614b35565b614dea608083018461458d565b9695505050505050565b60006020820190508181036000830152614e0d8161465d565b9050919050565b60006020820190508181036000830152614e2d8161469d565b9050919050565b60006020820190508181036000830152614e4d816146dd565b9050919050565b60006020820190508181036000830152614e6d81614743565b9050919050565b60006020820190508181036000830152614e8d816147c3565b9050919050565b60006020820190508181036000830152614ead81614803565b9050919050565b60006020820190508181036000830152614ecd81614843565b9050919050565b60006020820190508181036000830152614eed81614883565b9050919050565b60006020820190508181036000830152614f0d816148c3565b9050919050565b60006020820190508181036000830152614f2d81614903565b9050919050565b60006020820190508181036000830152614f4d81614943565b9050919050565b60006020820190508181036000830152614f6d81614a03565b9050919050565b60006020820190508181036000830152614f8d81614a43565b9050919050565b60006020820190508181036000830152614fae8184614aa9565b905092915050565b6000602082019050614fcb6000830184614b35565b92915050565b6000606082019050614fe66000830186614b35565b614ff36020830185614b35565b6150006040830184614b35565b949350505050565b6000604051905081810181811067ffffffffffffffff8211171561502f5761502e6154e1565b5b8060405250919050565b600067ffffffffffffffff821115615054576150536154e1565b5b601f19601f8301169050602081019050919050565b6000819050602082019050919050565b6000819050602082019050919050565b6000819050602082019050919050565b6000819050602082019050919050565b600081519050919050565b600081519050919050565b600081519050919050565b600081519050919050565b600081519050919050565b6000602082019050919050565b6000602082019050919050565b6000602082019050919050565b6000602082019050919050565b600082825260208201905092915050565b600082825260208201905092915050565b600082825260208201905092915050565b600082825260208201905092915050565b600082825260208201905092915050565b600082825260208201905092915050565b600081905092915050565b60006151908261530e565b915061519b8361530e565b9250827fffffffffffffffffffffffffffffffffffffffffffffffffffffffffffffffff038211156151d0576151cf615454565b5b828201905092915050565b60006151e68261530e565b91506151f18361530e565b92508261520157615200615483565b5b828204905092915050565b60006152178261530e565b91506152228361530e565b9250817fffffffffffffffffffffffffffffffffffffffffffffffffffffffffffffffff048311821515161561525b5761525a615454565b5b828202905092915050565b60006152718261530e565b915061527c8361530e565b92508282101561528f5761528e615454565b5b828203905092915050565b60006152a5826152ee565b9050919050565b60008115159050919050565b6000819050919050565b60007fffffffff0000000000000000000000000000000000000000000000000000000082169050919050565b600073ffffffffffffffffffffffffffffffffffffffff82169050919050565b6000819050919050565b60006153238261532a565b9050919050565b6000615335826152ee565b9050919050565b82818337600083830152505050565b60005b8381101561536957808201518184015260208101905061534e565b83811115615378576000848401525b50505050565b60006153898261530e565b9150600082141561539d5761539c615454565b5b600182039050919050565b600060028204905060018216806153c057607f821691505b602082108114156153d4576153d36154b2565b5b50919050565b60006153e58261530e565b91507fffffffffffffffffffffffffffffffffffffffffffffffffffffffffffffffff82141561541857615417615454565b5b600182019050919050565b600061542e8261530e565b91506154398361530e565b92508261544957615448615483565b5b828206905092915050565b7f4e487b7100000000000000000000000000000000000000000000000000000000600052601160045260246000fd5b7f4e487b7100000000000000000000000000000000000000000000000000000000600052601260045260246000fd5b7f4e487b7100000000000000000000000000000000000000000000000000000000600052602260045260246000fd5b7f4e487b7100000000000000000000000000000000000000000000000000000000600052604160045260246000fd5b6000601f19601f8301169050919050565b61552a8161529a565b811461553557600080fd5b50565b615541816152ac565b811461554c57600080fd5b50565b615558816152b8565b811461556357600080fd5b50565b61556f816152c2565b811461557a57600080fd5b50565b6155868161530e565b811461559157600080fd5b5056fea2646970667358221220e418c96906cb4673c6a6b4ad694f2c2e2b506c379a90060dc47ceb9c83d975f664736f6c63430008000033",
  "devdoc": {
    "kind": "dev",
    "methods": {
      "enableMarket(address,uint256,string,string)": {
        "details": "Function to enable a certain Exafin market to be used as collateral",
        "params": {
          "collateralFactor": "exafin's collateral factor for the underlying asset",
          "exafin": "address to add to the protocol"
        }
      },
      "enterMarkets(address[])": {
        "details": "Allows wallet to enter certain markets (exafinDAI, exafinETH, etc) By performing this action, the wallet's money could be used as collateral",
        "params": {
          "exafins": "contracts addresses to enable for `msg.sender`"
        }
      },
      "getAccountLiquidity(address,uint256)": {
        "details": "Function to get account's liquidity for a certain maturity pool",
        "params": {
          "account": "wallet to retrieve liquidity for a certain maturity date",
          "maturityDate": "timestamp to calculate maturity's pool"
        }
      },
      "getMarketByAddress(address)": {
        "details": "Get market data filtered by address",
        "params": {
          "contractAddress": "address to get market data"
        }
      },
      "getMarkets()": {
        "details": "List all markets, listed or not"
      },
      "getRoleAdmin(bytes32)": {
        "details": "Returns the admin role that controls `role`. See {grantRole} and {revokeRole}. To change a role's admin, use {_setRoleAdmin}."
      },
      "grantRole(bytes32,address)": {
        "details": "Grants `role` to `account`. If `account` had not been already granted `role`, emits a {RoleGranted} event. Requirements: - the caller must have ``role``'s admin role."
      },
      "hasRole(bytes32,address)": {
        "details": "Returns `true` if `account` has been granted `role`."
      },
      "listMarket(address)": {
        "details": "Add market to listedMarkets and change boolean to true",
        "params": {
          "exafin": "address to add to the protocol"
        }
      },
      "owner()": {
        "details": "Returns the address of the current owner."
      },
      "pauseBorrow(address,bool)": {
        "details": "Function to pause/unpause borrowing on a certain market",
        "params": {
          "exafin": "address to pause",
          "paused": "true/false"
        }
      },
      "renounceOwnership()": {
        "details": "Leaves the contract without owner. It will not be possible to call `onlyOwner` functions anymore. Can only be called by the current owner. NOTE: Renouncing ownership will leave the contract without an owner, thereby removing any functionality that is only available to the owner."
      },
      "renounceRole(bytes32,address)": {
        "details": "Revokes `role` from the calling account. Roles are often managed via {grantRole} and {revokeRole}: this function's purpose is to provide a mechanism for accounts to lose their privileges if they are compromised (such as when a trusted device is misplaced). If the calling account had been granted `role`, emits a {RoleRevoked} event. Requirements: - the caller must be `account`."
      },
      "revokeRole(bytes32,address)": {
        "details": "Revokes `role` from `account`. If `account` had been granted `role`, emits a {RoleRevoked} event. Requirements: - the caller must have ``role``'s admin role."
      },
      "setOracle(address)": {
        "details": "Function to set Oracle's to be used",
        "params": {
          "_priceOracleAddress": "address of the new oracle"
        }
      },
      "supportsInterface(bytes4)": {
        "details": "See {IERC165-supportsInterface}."
      },
      "transferOwnership(address)": {
        "details": "Transfers ownership of the contract to a new account (`newOwner`). Can only be called by the current owner."
      },
      "unlistMarket(address)": {
        "details": "Delete market to listedMarkets and change boolean to false",
        "params": {
          "exafin": "address to add to the protocol"
        }
      }
    },
    "version": 1
  },
  "userdoc": {
    "kind": "user",
    "methods": {},
    "version": 1
  },
  "storageLayout": {
    "storage": [
      {
        "astId": 375,
        "contract": "contracts/Auditor.sol:Auditor",
        "label": "_owner",
        "offset": 0,
        "slot": "0",
        "type": "t_address"
      },
      {
        "astId": 62,
        "contract": "contracts/Auditor.sol:Auditor",
        "label": "_roles",
        "offset": 0,
        "slot": "1",
        "type": "t_mapping(t_bytes32,t_struct(RoleData)57_storage)"
      },
      {
        "astId": 2007,
        "contract": "contracts/Auditor.sol:Auditor",
        "label": "markets",
        "offset": 0,
        "slot": "2",
        "type": "t_mapping(t_address,t_struct(Market)2054_storage)"
      },
      {
        "astId": 2012,
        "contract": "contracts/Auditor.sol:Auditor",
        "label": "listedMarkets",
        "offset": 0,
        "slot": "3",
        "type": "t_mapping(t_address,t_struct(BaseMarket)2046_storage)"
      },
      {
        "astId": 2016,
        "contract": "contracts/Auditor.sol:Auditor",
        "label": "borrowPaused",
        "offset": 0,
        "slot": "4",
        "type": "t_mapping(t_address,t_bool)"
      },
      {
        "astId": 2020,
        "contract": "contracts/Auditor.sol:Auditor",
        "label": "borrowCaps",
        "offset": 0,
        "slot": "5",
        "type": "t_mapping(t_address,t_uint256)"
      },
      {
        "astId": 2026,
        "contract": "contracts/Auditor.sol:Auditor",
        "label": "accountAssets",
        "offset": 0,
        "slot": "6",
        "type": "t_mapping(t_address,t_array(t_contract(IExafin)4209)dyn_storage)"
      },
      {
        "astId": 2029,
        "contract": "contracts/Auditor.sol:Auditor",
        "label": "marketCount",
        "offset": 0,
        "slot": "7",
        "type": "t_uint256"
      },
      {
        "astId": 2032,
        "contract": "contracts/Auditor.sol:Auditor",
        "label": "marketsAddress",
        "offset": 0,
        "slot": "8",
        "type": "t_array(t_address)dyn_storage"
      },
      {
        "astId": 2035,
        "contract": "contracts/Auditor.sol:Auditor",
        "label": "closeFactor",
        "offset": 0,
        "slot": "9",
        "type": "t_uint256"
      },
      {
        "astId": 2070,
        "contract": "contracts/Auditor.sol:Auditor",
        "label": "oracle",
        "offset": 0,
        "slot": "10",
        "type": "t_contract(Oracle)4219"
      }
    ],
    "types": {
      "t_address": {
        "encoding": "inplace",
        "label": "address",
        "numberOfBytes": "20"
      },
      "t_array(t_address)dyn_storage": {
        "base": "t_address",
        "encoding": "dynamic_array",
        "label": "address[]",
        "numberOfBytes": "32"
      },
      "t_array(t_contract(IExafin)4209)dyn_storage": {
        "base": "t_contract(IExafin)4209",
        "encoding": "dynamic_array",
        "label": "contract IExafin[]",
        "numberOfBytes": "32"
      },
      "t_bool": {
        "encoding": "inplace",
        "label": "bool",
        "numberOfBytes": "1"
      },
      "t_bytes32": {
        "encoding": "inplace",
        "label": "bytes32",
        "numberOfBytes": "32"
      },
      "t_contract(IExafin)4209": {
        "encoding": "inplace",
        "label": "contract IExafin",
        "numberOfBytes": "20"
      },
      "t_contract(Oracle)4219": {
        "encoding": "inplace",
        "label": "contract Oracle",
        "numberOfBytes": "20"
      },
      "t_mapping(t_address,t_array(t_contract(IExafin)4209)dyn_storage)": {
        "encoding": "mapping",
        "key": "t_address",
        "label": "mapping(address => contract IExafin[])",
        "numberOfBytes": "32",
        "value": "t_array(t_contract(IExafin)4209)dyn_storage"
      },
      "t_mapping(t_address,t_bool)": {
        "encoding": "mapping",
        "key": "t_address",
        "label": "mapping(address => bool)",
        "numberOfBytes": "32",
        "value": "t_bool"
      },
      "t_mapping(t_address,t_struct(BaseMarket)2046_storage)": {
        "encoding": "mapping",
        "key": "t_address",
        "label": "mapping(address => struct Auditor.BaseMarket)",
        "numberOfBytes": "32",
        "value": "t_struct(BaseMarket)2046_storage"
      },
      "t_mapping(t_address,t_struct(Market)2054_storage)": {
        "encoding": "mapping",
        "key": "t_address",
        "label": "mapping(address => struct Auditor.Market)",
        "numberOfBytes": "32",
        "value": "t_struct(Market)2054_storage"
      },
      "t_mapping(t_address,t_uint256)": {
        "encoding": "mapping",
        "key": "t_address",
        "label": "mapping(address => uint256)",
        "numberOfBytes": "32",
        "value": "t_uint256"
      },
      "t_mapping(t_bytes32,t_struct(RoleData)57_storage)": {
        "encoding": "mapping",
        "key": "t_bytes32",
        "label": "mapping(bytes32 => struct AccessControl.RoleData)",
        "numberOfBytes": "32",
        "value": "t_struct(RoleData)57_storage"
      },
      "t_string_storage": {
        "encoding": "bytes",
        "label": "string",
        "numberOfBytes": "32"
      },
      "t_struct(BaseMarket)2046_storage": {
        "encoding": "inplace",
        "label": "struct Auditor.BaseMarket",
        "members": [
          {
            "astId": 2037,
            "contract": "contracts/Auditor.sol:Auditor",
            "label": "symbol",
            "offset": 0,
            "slot": "0",
            "type": "t_string_storage"
          },
          {
            "astId": 2039,
            "contract": "contracts/Auditor.sol:Auditor",
            "label": "name",
            "offset": 0,
            "slot": "1",
            "type": "t_string_storage"
          },
          {
            "astId": 2041,
            "contract": "contracts/Auditor.sol:Auditor",
            "label": "isListed",
            "offset": 0,
            "slot": "2",
            "type": "t_bool"
          },
          {
            "astId": 2043,
            "contract": "contracts/Auditor.sol:Auditor",
            "label": "collateralFactor",
            "offset": 0,
            "slot": "3",
            "type": "t_uint256"
          },
          {
            "astId": 2045,
            "contract": "contracts/Auditor.sol:Auditor",
            "label": "exists",
            "offset": 0,
            "slot": "4",
            "type": "t_bool"
          }
        ],
        "numberOfBytes": "160"
      },
      "t_struct(Market)2054_storage": {
        "encoding": "inplace",
        "label": "struct Auditor.Market",
        "members": [
          {
            "astId": 2049,
            "contract": "contracts/Auditor.sol:Auditor",
            "label": "baseMarket",
            "offset": 0,
            "slot": "0",
            "type": "t_struct(BaseMarket)2046_storage"
          },
          {
            "astId": 2053,
            "contract": "contracts/Auditor.sol:Auditor",
            "label": "accountMembership",
            "offset": 0,
            "slot": "5",
            "type": "t_mapping(t_address,t_bool)"
          }
        ],
        "numberOfBytes": "192"
      },
      "t_struct(RoleData)57_storage": {
        "encoding": "inplace",
        "label": "struct AccessControl.RoleData",
        "members": [
          {
            "astId": 54,
            "contract": "contracts/Auditor.sol:Auditor",
            "label": "members",
            "offset": 0,
            "slot": "0",
            "type": "t_mapping(t_address,t_bool)"
          },
          {
            "astId": 56,
            "contract": "contracts/Auditor.sol:Auditor",
            "label": "adminRole",
            "offset": 0,
            "slot": "1",
            "type": "t_bytes32"
          }
        ],
        "numberOfBytes": "64"
      },
      "t_uint256": {
        "encoding": "inplace",
        "label": "uint256",
        "numberOfBytes": "32"
      }
    }
  }
}