{
  "address": "0xb390eAFa0fbA07bC2B49643683501584C33a709a",
  "abi": [
    {
      "inputs": [
        {
          "internalType": "address",
          "name": "_tokenAddress",
          "type": "address"
        },
        {
          "internalType": "string",
          "name": "_underlyingTokenName",
          "type": "string"
        },
        {
          "internalType": "address",
          "name": "_eTokenAddress",
          "type": "address"
        },
        {
          "internalType": "address",
          "name": "_auditorAddress",
          "type": "address"
        },
        {
          "internalType": "address",
          "name": "_interestRateModelAddress",
          "type": "address"
        }
      ],
      "stateMutability": "nonpayable",
      "type": "constructor"
    },
    {
      "inputs": [
        {
          "internalType": "enum ErrorCode",
          "name": "error",
          "type": "uint8"
        }
      ],
      "name": "GenericError",
      "type": "error"
    },
    {
      "anonymous": false,
      "inputs": [
        {
          "indexed": false,
          "internalType": "address",
          "name": "benefactor",
          "type": "address"
        },
        {
          "indexed": false,
          "internalType": "uint256",
          "name": "addAmount",
          "type": "uint256"
        }
      ],
      "name": "AddReserves",
      "type": "event"
    },
    {
      "anonymous": false,
      "inputs": [
        {
          "indexed": true,
          "internalType": "address",
          "name": "to",
          "type": "address"
        },
        {
          "indexed": false,
          "internalType": "uint256",
          "name": "amount",
          "type": "uint256"
        },
        {
          "indexed": false,
          "internalType": "uint256",
          "name": "commission",
          "type": "uint256"
        },
        {
          "indexed": false,
          "internalType": "uint256",
          "name": "maturityDate",
          "type": "uint256"
        }
      ],
      "name": "BorrowFromMaturityPool",
      "type": "event"
    },
    {
      "anonymous": false,
      "inputs": [
        {
          "indexed": true,
          "internalType": "address",
          "name": "from",
          "type": "address"
        },
        {
          "indexed": false,
          "internalType": "uint256",
          "name": "amount",
          "type": "uint256"
        },
        {
          "indexed": false,
          "internalType": "uint256",
          "name": "commission",
          "type": "uint256"
        },
        {
          "indexed": false,
          "internalType": "uint256",
          "name": "maturityDate",
          "type": "uint256"
        }
      ],
      "name": "DepositToMaturityPool",
      "type": "event"
    },
    {
      "anonymous": false,
      "inputs": [
        {
          "indexed": true,
          "internalType": "address",
          "name": "user",
          "type": "address"
        },
        {
          "indexed": false,
          "internalType": "uint256",
          "name": "amount",
          "type": "uint256"
        }
      ],
      "name": "DepositToSmartPool",
      "type": "event"
    },
    {
      "anonymous": false,
      "inputs": [
        {
          "indexed": false,
          "internalType": "address",
          "name": "liquidator",
          "type": "address"
        },
        {
          "indexed": false,
          "internalType": "address",
          "name": "borrower",
          "type": "address"
        },
        {
          "indexed": false,
          "internalType": "uint256",
          "name": "repayAmount",
          "type": "uint256"
        },
        {
          "indexed": false,
          "internalType": "address",
          "name": "fixedLenderCollateral",
          "type": "address"
        },
        {
          "indexed": false,
          "internalType": "uint256",
          "name": "seizedAmount",
          "type": "uint256"
        },
        {
          "indexed": false,
          "internalType": "uint256",
          "name": "maturityDate",
          "type": "uint256"
        }
      ],
      "name": "LiquidateBorrow",
      "type": "event"
    },
    {
      "anonymous": false,
      "inputs": [
        {
          "indexed": true,
          "internalType": "address",
          "name": "payer",
          "type": "address"
        },
        {
          "indexed": true,
          "internalType": "address",
          "name": "borrower",
          "type": "address"
        },
        {
          "indexed": false,
          "internalType": "uint256",
          "name": "penalty",
          "type": "uint256"
        },
        {
          "indexed": false,
          "internalType": "uint256",
          "name": "amountBorrowed",
          "type": "uint256"
        },
        {
          "indexed": false,
          "internalType": "uint256",
          "name": "maturityDate",
          "type": "uint256"
        }
      ],
      "name": "RepayToMaturityPool",
      "type": "event"
    },
    {
      "anonymous": false,
      "inputs": [
        {
          "indexed": true,
          "internalType": "address",
          "name": "payer",
          "type": "address"
        },
        {
          "indexed": true,
          "internalType": "address",
          "name": "borrower",
          "type": "address"
        },
        {
          "indexed": false,
          "internalType": "uint256",
          "name": "repayAmount",
          "type": "uint256"
        },
        {
          "indexed": false,
          "internalType": "uint256",
          "name": "maturityDate",
          "type": "uint256"
        }
      ],
      "name": "RepayToMaturityPoolLiquidate",
      "type": "event"
    },
    {
      "anonymous": false,
      "inputs": [
        {
          "indexed": true,
          "internalType": "bytes32",
          "name": "role",
          "type": "bytes32"
        },
        {
          "indexed": true,
          "internalType": "bytes32",
          "name": "previousAdminRole",
          "type": "bytes32"
        },
        {
          "indexed": true,
          "internalType": "bytes32",
          "name": "newAdminRole",
          "type": "bytes32"
        }
      ],
      "name": "RoleAdminChanged",
      "type": "event"
    },
    {
      "anonymous": false,
      "inputs": [
        {
          "indexed": true,
          "internalType": "bytes32",
          "name": "role",
          "type": "bytes32"
        },
        {
          "indexed": true,
          "internalType": "address",
          "name": "account",
          "type": "address"
        },
        {
          "indexed": true,
          "internalType": "address",
          "name": "sender",
          "type": "address"
        }
      ],
      "name": "RoleGranted",
      "type": "event"
    },
    {
      "anonymous": false,
      "inputs": [
        {
          "indexed": true,
          "internalType": "bytes32",
          "name": "role",
          "type": "bytes32"
        },
        {
          "indexed": true,
          "internalType": "address",
          "name": "account",
          "type": "address"
        },
        {
          "indexed": true,
          "internalType": "address",
          "name": "sender",
          "type": "address"
        }
      ],
      "name": "RoleRevoked",
      "type": "event"
    },
    {
      "anonymous": false,
      "inputs": [
        {
          "indexed": false,
          "internalType": "address",
          "name": "liquidator",
          "type": "address"
        },
        {
          "indexed": false,
          "internalType": "address",
          "name": "borrower",
          "type": "address"
        },
        {
          "indexed": false,
          "internalType": "uint256",
          "name": "seizedAmount",
          "type": "uint256"
        },
        {
          "indexed": false,
          "internalType": "uint256",
          "name": "maturityDate",
          "type": "uint256"
        }
      ],
      "name": "SeizeAsset",
      "type": "event"
    },
    {
      "anonymous": false,
      "inputs": [
        {
          "indexed": true,
          "internalType": "address",
          "name": "from",
          "type": "address"
        },
        {
          "indexed": false,
          "internalType": "uint256",
          "name": "amount",
          "type": "uint256"
        },
        {
          "indexed": false,
          "internalType": "uint256",
          "name": "maturityDate",
          "type": "uint256"
        }
      ],
      "name": "WithdrawFromMaturityPool",
      "type": "event"
    },
    {
      "anonymous": false,
      "inputs": [
        {
          "indexed": true,
          "internalType": "address",
          "name": "user",
          "type": "address"
        },
        {
          "indexed": false,
          "internalType": "uint256",
          "name": "amount",
          "type": "uint256"
        }
      ],
      "name": "WithdrawFromSmartPool",
      "type": "event"
    },
    {
      "inputs": [],
      "name": "DEFAULT_ADMIN_ROLE",
      "outputs": [
        {
          "internalType": "bytes32",
          "name": "",
          "type": "bytes32"
        }
      ],
      "stateMutability": "view",
      "type": "function"
    },
    {
      "inputs": [],
      "name": "auditor",
      "outputs": [
        {
          "internalType": "contract IAuditor",
          "name": "",
          "type": "address"
        }
      ],
      "stateMutability": "view",
      "type": "function"
    },
    {
      "inputs": [
        {
          "internalType": "uint256",
          "name": "amount",
          "type": "uint256"
        },
        {
          "internalType": "uint256",
          "name": "maturityDate",
          "type": "uint256"
        }
      ],
      "name": "borrowFromMaturityPool",
      "outputs": [],
      "stateMutability": "nonpayable",
      "type": "function"
    },
    {
      "inputs": [
        {
          "internalType": "uint256",
          "name": "amount",
          "type": "uint256"
        },
        {
          "internalType": "uint256",
          "name": "maturityDate",
          "type": "uint256"
        }
      ],
      "name": "depositToMaturityPool",
      "outputs": [],
      "stateMutability": "nonpayable",
      "type": "function"
    },
    {
      "inputs": [
        {
          "internalType": "uint256",
          "name": "amount",
          "type": "uint256"
        }
      ],
      "name": "depositToSmartPool",
      "outputs": [],
      "stateMutability": "nonpayable",
      "type": "function"
    },
    {
      "inputs": [],
      "name": "eToken",
      "outputs": [
        {
          "internalType": "contract IEToken",
          "name": "",
          "type": "address"
        }
      ],
      "stateMutability": "view",
      "type": "function"
    },
    {
      "inputs": [
        {
          "internalType": "address",
          "name": "who",
          "type": "address"
        },
        {
          "internalType": "uint256",
          "name": "maturityDate",
          "type": "uint256"
        }
      ],
      "name": "getAccountSnapshot",
      "outputs": [
        {
          "internalType": "uint256",
          "name": "",
          "type": "uint256"
        },
        {
          "internalType": "uint256",
          "name": "",
          "type": "uint256"
        }
      ],
      "stateMutability": "view",
      "type": "function"
    },
    {
      "inputs": [],
      "name": "getAuditor",
      "outputs": [
        {
          "internalType": "contract IAuditor",
          "name": "",
          "type": "address"
        }
      ],
      "stateMutability": "view",
      "type": "function"
    },
    {
      "inputs": [
        {
          "internalType": "bytes32",
          "name": "role",
          "type": "bytes32"
        }
      ],
      "name": "getRoleAdmin",
      "outputs": [
        {
          "internalType": "bytes32",
          "name": "",
          "type": "bytes32"
        }
      ],
      "stateMutability": "view",
      "type": "function"
    },
    {
      "inputs": [
        {
          "internalType": "uint256",
          "name": "maturityDate",
          "type": "uint256"
        }
      ],
      "name": "getTotalMpBorrows",
      "outputs": [
        {
          "internalType": "uint256",
          "name": "",
          "type": "uint256"
        }
      ],
      "stateMutability": "view",
      "type": "function"
    },
    {
      "inputs": [
        {
          "internalType": "bytes32",
          "name": "role",
          "type": "bytes32"
        },
        {
          "internalType": "address",
          "name": "account",
          "type": "address"
        }
      ],
      "name": "grantRole",
      "outputs": [],
      "stateMutability": "nonpayable",
      "type": "function"
    },
    {
      "inputs": [
        {
          "internalType": "bytes32",
          "name": "role",
          "type": "bytes32"
        },
        {
          "internalType": "address",
          "name": "account",
          "type": "address"
        }
      ],
      "name": "hasRole",
      "outputs": [
        {
          "internalType": "bool",
          "name": "",
          "type": "bool"
        }
      ],
      "stateMutability": "view",
      "type": "function"
    },
    {
      "inputs": [],
      "name": "interestRateModel",
      "outputs": [
        {
          "internalType": "contract IInterestRateModel",
          "name": "",
          "type": "address"
        }
      ],
      "stateMutability": "view",
      "type": "function"
    },
    {
      "inputs": [
        {
          "internalType": "address",
          "name": "borrower",
          "type": "address"
        },
        {
          "internalType": "uint256",
          "name": "repayAmount",
          "type": "uint256"
        },
        {
          "internalType": "contract IFixedLender",
          "name": "fixedLenderCollateral",
          "type": "address"
        },
        {
          "internalType": "uint256",
          "name": "maturityDate",
          "type": "uint256"
        }
      ],
      "name": "liquidate",
      "outputs": [
        {
          "internalType": "uint256",
          "name": "",
          "type": "uint256"
        }
      ],
      "stateMutability": "nonpayable",
      "type": "function"
    },
    {
      "inputs": [
        {
          "internalType": "uint256",
          "name": "",
          "type": "uint256"
        }
      ],
      "name": "maturityPools",
      "outputs": [
        {
          "internalType": "uint256",
          "name": "borrowed",
          "type": "uint256"
        },
        {
          "internalType": "uint256",
          "name": "supplied",
          "type": "uint256"
        },
        {
          "internalType": "uint256",
          "name": "debt",
          "type": "uint256"
        },
        {
          "internalType": "uint256",
          "name": "available",
          "type": "uint256"
        }
      ],
      "stateMutability": "view",
      "type": "function"
    },
    {
      "inputs": [
        {
          "internalType": "uint256",
          "name": "",
          "type": "uint256"
        },
        {
          "internalType": "address",
          "name": "",
          "type": "address"
        }
      ],
      "name": "mpUserBorrowedAmount",
      "outputs": [
        {
          "internalType": "uint256",
          "name": "",
          "type": "uint256"
        }
      ],
      "stateMutability": "view",
      "type": "function"
    },
    {
      "inputs": [
        {
          "internalType": "uint256",
          "name": "",
          "type": "uint256"
        },
        {
          "internalType": "address",
          "name": "",
          "type": "address"
        }
      ],
      "name": "mpUserSuppliedAmount",
      "outputs": [
        {
          "internalType": "uint256",
          "name": "",
          "type": "uint256"
        }
      ],
      "stateMutability": "view",
      "type": "function"
    },
    {
      "inputs": [
        {
          "internalType": "bytes32",
          "name": "role",
          "type": "bytes32"
        },
        {
          "internalType": "address",
          "name": "account",
          "type": "address"
        }
      ],
      "name": "renounceRole",
      "outputs": [],
      "stateMutability": "nonpayable",
      "type": "function"
    },
    {
      "inputs": [
        {
          "internalType": "address",
          "name": "borrower",
          "type": "address"
        },
        {
          "internalType": "uint256",
          "name": "maturityDate",
          "type": "uint256"
        }
      ],
      "name": "repayToMaturityPool",
      "outputs": [],
      "stateMutability": "nonpayable",
      "type": "function"
    },
    {
      "inputs": [
        {
          "internalType": "bytes32",
          "name": "role",
          "type": "bytes32"
        },
        {
          "internalType": "address",
          "name": "account",
          "type": "address"
        }
      ],
      "name": "revokeRole",
      "outputs": [],
      "stateMutability": "nonpayable",
      "type": "function"
    },
    {
      "inputs": [
        {
          "internalType": "address",
          "name": "liquidator",
          "type": "address"
        },
        {
          "internalType": "address",
          "name": "borrower",
          "type": "address"
        },
        {
          "internalType": "uint256",
          "name": "seizeAmount",
          "type": "uint256"
        },
        {
          "internalType": "uint256",
          "name": "maturityDate",
          "type": "uint256"
        }
      ],
      "name": "seize",
      "outputs": [],
      "stateMutability": "nonpayable",
      "type": "function"
    },
    {
      "inputs": [
        {
          "internalType": "uint256",
          "name": "_liquidationFee",
          "type": "uint256"
        }
      ],
      "name": "setLiquidationFee",
      "outputs": [],
      "stateMutability": "nonpayable",
      "type": "function"
    },
    {
      "inputs": [],
      "name": "smartPool",
      "outputs": [
        {
          "internalType": "uint256",
          "name": "borrowed",
          "type": "uint256"
        },
        {
          "internalType": "uint256",
          "name": "supplied",
          "type": "uint256"
        }
      ],
      "stateMutability": "view",
      "type": "function"
    },
    {
      "inputs": [
        {
          "internalType": "bytes4",
          "name": "interfaceId",
          "type": "bytes4"
        }
      ],
      "name": "supportsInterface",
      "outputs": [
        {
          "internalType": "bool",
          "name": "",
          "type": "bool"
        }
      ],
      "stateMutability": "view",
      "type": "function"
    },
    {
      "inputs": [],
      "name": "totalMpBorrows",
      "outputs": [
        {
          "internalType": "uint256",
          "name": "",
          "type": "uint256"
        }
      ],
      "stateMutability": "view",
      "type": "function"
    },
    {
      "inputs": [
        {
          "internalType": "address",
          "name": "",
          "type": "address"
        }
      ],
      "name": "totalMpBorrowsUser",
      "outputs": [
        {
          "internalType": "uint256",
          "name": "",
          "type": "uint256"
        }
      ],
      "stateMutability": "view",
      "type": "function"
    },
    {
      "inputs": [],
      "name": "totalMpDeposits",
      "outputs": [
        {
          "internalType": "uint256",
          "name": "",
          "type": "uint256"
        }
      ],
      "stateMutability": "view",
      "type": "function"
    },
    {
      "inputs": [
        {
          "internalType": "address",
          "name": "",
          "type": "address"
        }
      ],
      "name": "totalMpDepositsUser",
      "outputs": [
        {
          "internalType": "uint256",
          "name": "",
          "type": "uint256"
        }
      ],
      "stateMutability": "view",
      "type": "function"
    },
    {
      "inputs": [],
      "name": "underlyingTokenName",
      "outputs": [
        {
          "internalType": "string",
          "name": "",
          "type": "string"
        }
      ],
      "stateMutability": "view",
      "type": "function"
    },
    {
      "inputs": [
        {
          "internalType": "address payable",
          "name": "redeemer",
          "type": "address"
        },
        {
          "internalType": "uint256",
          "name": "redeemAmount",
          "type": "uint256"
        },
        {
          "internalType": "uint256",
          "name": "maturityDate",
          "type": "uint256"
        }
      ],
      "name": "withdrawFromMaturityPool",
      "outputs": [],
      "stateMutability": "nonpayable",
      "type": "function"
    },
    {
      "inputs": [
        {
          "internalType": "uint256",
          "name": "amount",
          "type": "uint256"
        }
      ],
      "name": "withdrawFromSmartPool",
      "outputs": [],
      "stateMutability": "nonpayable",
      "type": "function"
    }
  ],
  "transactionHash": "0xf79b39ecc2cdf812881eac32db4b6b542863d076ff32b4ecd82aeed306ec54ec",
  "args": [
    "0xC02aaA39b223FE8D0A0e5C4F27eAD9083C756Cc2",
    "ETH",
    "0x37ef4ad938E01640156AC0d5D4e7656891949F04",
    "0xDC891752642e1e98C9e4b5060045FD7C8Db4fD92",
    "0xfdD353090EEb947bC6d75570F8B1288b9fe032aD"
  ],
  "solcInputHash": "55b41d0d375b94982167edc35fa1a51a",
  "bytecode": "0x6080604052666379da05b600006007553480156200001c57600080fd5b5060405162005faa38038062005faa8339818101604052810190620000429190620008ef565b60016000819055506200005f6000801b33620001fb60201b60201c565b84600860006101000a81548173ffffffffffffffffffffffffffffffffffffffff021916908373ffffffffffffffffffffffffffffffffffffffff16021790555062000114307fffffffffffffffffffffffffffffffffffffffffffffffffffffffffffffffff600860009054906101000a900473ffffffffffffffffffffffffffffffffffffffff1673ffffffffffffffffffffffffffffffffffffffff166200021160201b62002699179092919060201c565b83600a90805190602001906200012c92919062000788565b5081600b60006101000a81548173ffffffffffffffffffffffffffffffffffffffff021916908373ffffffffffffffffffffffffffffffffffffffff16021790555082600960006101000a81548173ffffffffffffffffffffffffffffffffffffffff021916908373ffffffffffffffffffffffffffffffffffffffff16021790555080600c60006101000a81548173ffffffffffffffffffffffffffffffffffffffff021916908373ffffffffffffffffffffffffffffffffffffffff160217905550505050505062000f87565b6200020d82826200038360201b60201c565b5050565b6000811480620002b1575060008373ffffffffffffffffffffffffffffffffffffffff1663dd62ed3e30856040518363ffffffff1660e01b81526004016200025b92919062000b31565b60206040518083038186803b1580156200027457600080fd5b505afa15801562000289573d6000803e3d6000fd5b505050506040513d601f19601f82011682018060405250810190620002af9190620009b6565b145b620002f3576040517f08c379a0000000000000000000000000000000000000000000000000000000008152600401620002ea9062000c15565b60405180910390fd5b6200037e8363095ea7b360e01b84846040516024016200031592919062000b5e565b604051602081830303815290604052907bffffffffffffffffffffffffffffffffffffffffffffffffffffffff19166020820180517bffffffffffffffffffffffffffffffffffffffffffffffffffffffff83818316178352505050506200047460201b60201c565b505050565b6200039582826200054860201b60201c565b6200047057600180600084815260200190815260200160002060000160008373ffffffffffffffffffffffffffffffffffffffff1673ffffffffffffffffffffffffffffffffffffffff16815260200190815260200160002060006101000a81548160ff02191690831515021790555062000415620005b360201b60201c565b73ffffffffffffffffffffffffffffffffffffffff168173ffffffffffffffffffffffffffffffffffffffff16837f2f8788117e7eff1d82e926ec794901d17c78024a50270940304540a733656f0d60405160405180910390a45b5050565b6000620004dd826040518060400160405280602081526020017f5361666545524332303a206c6f772d6c6576656c2063616c6c206661696c65648152508573ffffffffffffffffffffffffffffffffffffffff16620005bb60201b620027f7179092919060201c565b90506000815111156200054357808060200190518101906200050091906200098a565b62000542576040517f08c379a0000000000000000000000000000000000000000000000000000000008152600401620005399062000bf3565b60405180910390fd5b5b505050565b60006001600084815260200190815260200160002060000160008373ffffffffffffffffffffffffffffffffffffffff1673ffffffffffffffffffffffffffffffffffffffff16815260200190815260200160002060009054906101000a900460ff16905092915050565b600033905090565b6060620005d28484600085620005db60201b60201c565b90509392505050565b60608247101562000623576040517f08c379a00000000000000000000000000000000000000000000000000000000081526004016200061a9062000baf565b60405180910390fd5b62000634856200070960201b60201c565b62000676576040517f08c379a00000000000000000000000000000000000000000000000000000000081526004016200066d9062000bd1565b60405180910390fd5b6000808673ffffffffffffffffffffffffffffffffffffffff168587604051620006a1919062000b18565b60006040518083038185875af1925050503d8060008114620006e0576040519150601f19603f3d011682016040523d82523d6000602084013e620006e5565b606091505b5091509150620006fd8282866200071c60201b60201c565b92505050949350505050565b600080823b905060008111915050919050565b606083156200072e5782905062000781565b600083511115620007425782518084602001fd5b816040517f08c379a000000000000000000000000000000000000000000000000000000000815260040162000778919062000b8b565b60405180910390fd5b9392505050565b828054620007969062000d48565b90600052602060002090601f016020900481019282620007ba576000855562000806565b82601f10620007d557805160ff191683800117855562000806565b8280016001018555821562000806579182015b8281111562000805578251825591602001919060010190620007e8565b5b50905062000815919062000819565b5090565b5b80821115620008345760008160009055506001016200081a565b5090565b60006200084f620008498462000c60565b62000c37565b9050828152602081018484840111156200086857600080fd5b6200087584828562000d12565b509392505050565b6000815190506200088e8162000f39565b92915050565b600081519050620008a58162000f53565b92915050565b600082601f830112620008bd57600080fd5b8151620008cf84826020860162000838565b91505092915050565b600081519050620008e98162000f6d565b92915050565b600080600080600060a086880312156200090857600080fd5b600062000918888289016200087d565b955050602086015167ffffffffffffffff8111156200093657600080fd5b6200094488828901620008ab565b945050604062000957888289016200087d565b93505060606200096a888289016200087d565b92505060806200097d888289016200087d565b9150509295509295909350565b6000602082840312156200099d57600080fd5b6000620009ad8482850162000894565b91505092915050565b600060208284031215620009c957600080fd5b6000620009d984828501620008d8565b91505092915050565b620009ed8162000cc8565b82525050565b600062000a008262000c96565b62000a0c818562000cac565b935062000a1e81856020860162000d12565b80840191505092915050565b600062000a378262000ca1565b62000a43818562000cb7565b935062000a5581856020860162000d12565b62000a608162000e12565b840191505092915050565b600062000a7a60268362000cb7565b915062000a878262000e23565b604082019050919050565b600062000aa1601d8362000cb7565b915062000aae8262000e72565b602082019050919050565b600062000ac8602a8362000cb7565b915062000ad58262000e9b565b604082019050919050565b600062000aef60368362000cb7565b915062000afc8262000eea565b604082019050919050565b62000b128162000d08565b82525050565b600062000b268284620009f3565b915081905092915050565b600060408201905062000b486000830185620009e2565b62000b576020830184620009e2565b9392505050565b600060408201905062000b756000830185620009e2565b62000b84602083018462000b07565b9392505050565b6000602082019050818103600083015262000ba7818462000a2a565b905092915050565b6000602082019050818103600083015262000bca8162000a6b565b9050919050565b6000602082019050818103600083015262000bec8162000a92565b9050919050565b6000602082019050818103600083015262000c0e8162000ab9565b9050919050565b6000602082019050818103600083015262000c308162000ae0565b9050919050565b600062000c4362000c56565b905062000c51828262000d7e565b919050565b6000604051905090565b600067ffffffffffffffff82111562000c7e5762000c7d62000de3565b5b62000c898262000e12565b9050602081019050919050565b600081519050919050565b600081519050919050565b600081905092915050565b600082825260208201905092915050565b600062000cd58262000ce8565b9050919050565b60008115159050919050565b600073ffffffffffffffffffffffffffffffffffffffff82169050919050565b6000819050919050565b60005b8381101562000d3257808201518184015260208101905062000d15565b8381111562000d42576000848401525b50505050565b6000600282049050600182168062000d6157607f821691505b6020821081141562000d785762000d7762000db4565b5b50919050565b62000d898262000e12565b810181811067ffffffffffffffff8211171562000dab5762000daa62000de3565b5b80604052505050565b7f4e487b7100000000000000000000000000000000000000000000000000000000600052602260045260246000fd5b7f4e487b7100000000000000000000000000000000000000000000000000000000600052604160045260246000fd5b6000601f19601f8301169050919050565b7f416464726573733a20696e73756666696369656e742062616c616e636520666f60008201527f722063616c6c0000000000000000000000000000000000000000000000000000602082015250565b7f416464726573733a2063616c6c20746f206e6f6e2d636f6e7472616374000000600082015250565b7f5361666545524332303a204552433230206f7065726174696f6e20646964206e60008201527f6f74207375636365656400000000000000000000000000000000000000000000602082015250565b7f5361666545524332303a20617070726f76652066726f6d206e6f6e2d7a65726f60008201527f20746f206e6f6e2d7a65726f20616c6c6f77616e636500000000000000000000602082015250565b62000f448162000cc8565b811462000f5057600080fd5b50565b62000f5e8162000cdc565b811462000f6a57600080fd5b50565b62000f788162000d08565b811462000f8457600080fd5b50565b6150138062000f976000396000f3fe608060405234801561001057600080fd5b50600436106101e55760003560e01c80638988b9b81161010f578063b72ddee9116100a2578063d547741f11610071578063d547741f146105cf578063dea9e879146105eb578063f3fdb15a14610607578063fef0bec814610625576101e5565b8063b72ddee91461055b578063b7f394c014610579578063c0107f8114610595578063d2c6d0dc146105b3576101e5565b8063953d9cf1116100de578063953d9cf1146104bc578063a217fddf146104da578063a29cb7e1146104f8578063a3456a101461052b576101e5565b80638988b9b81461042057806391d148541461043e57806391f3e4721461046e5780639457be231461048c576101e5565b806345227d5f116101875780636c296b00116101565780636c296b001461037457806375e1d781146103a4578063821993ec146103d4578063887463ab14610404576101e5565b806345227d5f146102d85780634b728f891461030857806355a1ac2e146103275780636135600f14610358576101e5565b80632f2ff15d116101c35780632f2ff15d1461026657806336568abe146102825780633ec045a61461029e57806342e49ed4146102bc576101e5565b806301ffc9a7146101ea578063248a9ca31461021a57806327f1a8841461024a575b600080fd5b61020460048036038101906101ff9190613dd4565b610641565b60405161021191906144f5565b60405180910390f35b610234600480360381019061022f9190613d6f565b6106bb565b6040516102419190614510565b60405180910390f35b610264600480360381019061025f9190613bf5565b6106db565b005b610280600480360381019061027b9190613d98565b610a72565b005b61029c60048036038101906102979190613d98565b610a9b565b005b6102a6610b1e565b6040516102b3919061452b565b60405180910390f35b6102d660048036038101906102d19190613ca7565b610b44565b005b6102f260048036038101906102ed9190613e4f565b610eac565b6040516102ff91906146f4565b60405180910390f35b610310610ed1565b60405161031e9291906147a7565b60405180910390f35b610341600480360381019061033c9190613ca7565b610ee3565b60405161034f9291906147a7565b60405180910390f35b610372600480360381019061036d9190613dfd565b6111c2565b005b61038e60048036038101906103899190613bcc565b61139c565b60405161039b91906146f4565b60405180910390f35b6103be60048036038101906103b99190613dfd565b6113b4565b6040516103cb91906146f4565b60405180910390f35b6103ee60048036038101906103e99190613e4f565b61149d565b6040516103fb91906146f4565b60405180910390f35b61041e60048036038101906104199190613e8b565b6114c2565b005b610428611a09565b60405161043591906146f4565b60405180910390f35b61045860048036038101906104539190613d98565b611a0f565b60405161046591906144f5565b60405180910390f35b610476611a7a565b6040516104839190614597565b60405180910390f35b6104a660048036038101906104a19190613ce3565b611b08565b6040516104b391906146f4565b60405180910390f35b6104c4611b77565b6040516104d19190614546565b60405180910390f35b6104e2611b9d565b6040516104ef9190614510565b60405180910390f35b610512600480360381019061050d9190613dfd565b611ba4565b6040516105229493929190614807565b60405180910390f35b61054560048036038101906105409190613bcc565b611bd4565b60405161055291906146f4565b60405180910390f35b610563611bec565b604051610570919061452b565b60405180910390f35b610593600480360381019061058e9190613dfd565b611c16565b005b61059d611f2d565b6040516105aa91906146f4565b60405180910390f35b6105cd60048036038101906105c89190613c44565b611f33565b005b6105e960048036038101906105e49190613d98565b611f9c565b005b61060560048036038101906106009190613e8b565b611fc5565b005b61060f612653565b60405161061c9190614561565b60405180910390f35b61063f600480360381019061063a9190613dfd565b612679565b005b60007f7965db0b000000000000000000000000000000000000000000000000000000007bffffffffffffffffffffffffffffffffffffffffffffffffffffffff1916827bffffffffffffffffffffffffffffffffffffffffffffffffffffffff191614806106b457506106b38261280f565b5b9050919050565b600060016000838152602001908152602001600020600101549050919050565b60026000541415610721576040517f08c379a000000000000000000000000000000000000000000000000000000000815260040161071890614679565b60405180910390fd5b600260008190555060008214156107705760136040517fede8a599000000000000000000000000000000000000000000000000000000008152600401610767919061457c565b60405180910390fd5b600b60009054906101000a900473ffffffffffffffffffffffffffffffffffffffff1673ffffffffffffffffffffffffffffffffffffffff166321e23a98308585856040518563ffffffff1660e01b81526004016107d19493929190614304565b600060405180830381600087803b1580156107eb57600080fd5b505af11580156107ff573d6000803e3d6000fd5b50505050816002600083815260200190815260200160002060008573ffffffffffffffffffffffffffffffffffffffff1673ffffffffffffffffffffffffffffffffffffffff1681526020019081526020016000206000828254610863919061496a565b9250508190555081600d600082825461087c919061496a565b9250508190555081600e60008573ffffffffffffffffffffffffffffffffffffffff1673ffffffffffffffffffffffffffffffffffffffff16815260200190815260200160002060008282546108d2919061496a565b9250508190555081600860009054906101000a900473ffffffffffffffffffffffffffffffffffffffff1673ffffffffffffffffffffffffffffffffffffffff166370a08231306040518263ffffffff1660e01b815260040161093591906142c0565b60206040518083038186803b15801561094d57600080fd5b505afa158015610961573d6000803e3d6000fd5b505050506040513d601f19601f820116820180604052508101906109859190613e26565b10156109c6576040517f08c379a00000000000000000000000000000000000000000000000000000000081526004016109bd90614639565b60405180910390fd5b610a15308484600860009054906101000a900473ffffffffffffffffffffffffffffffffffffffff1673ffffffffffffffffffffffffffffffffffffffff16612879909392919063ffffffff16565b8273ffffffffffffffffffffffffffffffffffffffff167fac44b7cd8d864cbf99c4acc9c9787f54f5a4ac089349fecf3de4ce2ddff7b7bb8383604051610a5d9291906147a7565b60405180910390a26001600081905550505050565b610a7b826106bb565b610a8c81610a87612902565b61290a565b610a9683836129a7565b505050565b610aa3612902565b73ffffffffffffffffffffffffffffffffffffffff168173ffffffffffffffffffffffffffffffffffffffff1614610b10576040517f08c379a0000000000000000000000000000000000000000000000000000000008152600401610b07906146b9565b60405180910390fd5b610b1a8282612a87565b5050565b600b60009054906101000a900473ffffffffffffffffffffffffffffffffffffffff1681565b60026000541415610b8a576040517f08c379a0000000000000000000000000000000000000000000000000000000008152600401610b8190614679565b60405180910390fd5b6002600081905550600b60009054906101000a900473ffffffffffffffffffffffffffffffffffffffff1673ffffffffffffffffffffffffffffffffffffffff1663924f6ced30846040518363ffffffff1660e01b8152600401610bef9291906142db565b600060405180830381600087803b158015610c0957600080fd5b505af1158015610c1d573d6000803e3d6000fd5b5050505060006003600083815260200190815260200160002060008473ffffffffffffffffffffffffffffffffffffffff1673ffffffffffffffffffffffffffffffffffffffff1681526020019081526020016000205490506000610c828484610ee3565b915050610cd4333083600860009054906101000a900473ffffffffffffffffffffffffffffffffffffffff1673ffffffffffffffffffffffffffffffffffffffff16612879909392919063ffffffff16565b81600f6000828254610ce6919061496a565b9250508190555081601060008673ffffffffffffffffffffffffffffffffffffffff1673ffffffffffffffffffffffffffffffffffffffff1681526020019081526020016000206000828254610d3c919061496a565b9250508190555060008282610d51919061496a565b9050600960009054906101000a900473ffffffffffffffffffffffffffffffffffffffff1673ffffffffffffffffffffffffffffffffffffffff16638fa467c4826040518263ffffffff1660e01b8152600401610dae91906146f4565b600060405180830381600087803b158015610dc857600080fd5b505af1158015610ddc573d6000803e3d6000fd5b505050506003600085815260200190815260200160002060008673ffffffffffffffffffffffffffffffffffffffff1673ffffffffffffffffffffffffffffffffffffffff168152602001908152602001600020600090558473ffffffffffffffffffffffffffffffffffffffff163373ffffffffffffffffffffffffffffffffffffffff167f29c098a0b2f51718bfec23f9b7f06f8d3a257d44b55f33fb0ccf606e7104820c838688604051610e95939291906147d0565b60405180910390a350505060016000819055505050565b6002602052816000526040600020602052806000526040600020600091509150505481565b60058060000154908060010154905082565b60008073f6780c6eCFbF39CE58ac293dC2F00da27c91df4E63b142980a846040518263ffffffff1660e01b8152600401610f1d91906146d9565b60206040518083038186803b158015610f3557600080fd5b505af4158015610f49573d6000803e3d6000fd5b505050506040513d601f19601f82011682018060405250810190610f6d9190613d46565b610faf57600c6040517fede8a599000000000000000000000000000000000000000000000000000000008152600401610fa6919061457c565b60405180910390fd5b60006003600085815260200190815260200160002060008673ffffffffffffffffffffffffffffffffffffffff1673ffffffffffffffffffffffffffffffffffffffff168152602001908152602001600020549050600073f6780c6eCFbF39CE58ac293dC2F00da27c91df4E6328845ff0866040518263ffffffff1660e01b815260040161103d91906146d9565b60206040518083038186803b15801561105557600080fd5b505af4158015611069573d6000803e3d6000fd5b505050506040513d601f19601f8201168201806040525081019061108d9190613e26565b9050600081111561116357611155600c60009054906101000a900473ffffffffffffffffffffffffffffffffffffffff1673ffffffffffffffffffffffffffffffffffffffff1663d6b7494f6040518163ffffffff1660e01b815260040160206040518083038186803b15801561110357600080fd5b505afa158015611117573d6000803e3d6000fd5b505050506040513d601f19601f8201168201806040525081019061113b9190613e26565b826111469190614910565b83612b6990919063ffffffff16565b826111609190614889565b91505b6002600086815260200190815260200160002060008773ffffffffffffffffffffffffffffffffffffffff1673ffffffffffffffffffffffffffffffffffffffff16815260200190815260200160002054829350935050509250929050565b600b60009054906101000a900473ffffffffffffffffffffffffffffffffffffffff1673ffffffffffffffffffffffffffffffffffffffff166328bc83c130336040518363ffffffff1660e01b815260040161121f9291906142db565b600060405180830381600087803b15801561123957600080fd5b505af115801561124d573d6000803e3d6000fd5b505050506112a0333083600860009054906101000a900473ffffffffffffffffffffffffffffffffffffffff1673ffffffffffffffffffffffffffffffffffffffff16612879909392919063ffffffff16565b600960009054906101000a900473ffffffffffffffffffffffffffffffffffffffff1673ffffffffffffffffffffffffffffffffffffffff166340c10f1933836040518363ffffffff1660e01b81526004016112fd9291906144cc565b600060405180830381600087803b15801561131757600080fd5b505af115801561132b573d6000803e3d6000fd5b5050505080600560010160008282546113449190614889565b925050819055503373ffffffffffffffffffffffffffffffffffffffff167fd5656bd5348ef71585f018f0e1310274a6c223cc991afb5c5c2ee9f42313ad448260405161139191906146f4565b60405180910390a250565b600e6020528060005260406000206000915090505481565b600073f6780c6eCFbF39CE58ac293dC2F00da27c91df4E63b142980a836040518263ffffffff1660e01b81526004016113ed91906146d9565b60206040518083038186803b15801561140557600080fd5b505af4158015611419573d6000803e3d6000fd5b505050506040513d601f19601f8201168201806040525081019061143d9190613d46565b61147f57600c6040517fede8a599000000000000000000000000000000000000000000000000000000008152600401611476919061457c565b60405180910390fd5b60046000838152602001908152602001600020600001549050919050565b6003602052816000526040600020602052806000526040600020600091509150505481565b60026000541415611508576040517f08c379a00000000000000000000000000000000000000000000000000000000081526004016114ff90614679565b60405180910390fd5b600260008190555073f6780c6eCFbF39CE58ac293dC2F00da27c91df4E63b142980a826040518263ffffffff1660e01b815260040161154791906146d9565b60206040518083038186803b15801561155f57600080fd5b505af4158015611573573d6000803e3d6000fd5b505050506040513d601f19601f820116820180604052508101906115979190613d46565b6115d957600c6040517fede8a5990000000000000000000000000000000000000000000000000000000081526004016115d0919061457c565b60405180910390fd5b6000600460008381526020019081526020016000206040518060800160405290816000820154815260200160018201548152602001600282015481526020016003820154815250509050600b60009054906101000a900473ffffffffffffffffffffffffffffffffffffffff1673ffffffffffffffffffffffffffffffffffffffff1663635f8fc23033856040518463ffffffff1660e01b8152600401611682939291906143ef565b600060405180830381600087803b15801561169c57600080fd5b505af11580156116b0573d6000803e3d6000fd5b5050505060008160400151111561173857806040015183106116ff5760008160400181815250508281602001516116e79190614889565b81602001818152505082816060018181525050611733565b82816040015161170f919061496a565b816040018181525050826005600101546117299190614889565b6005600101819055505b61176b565b8281602001516117489190614889565b8160200181815250508281606001516117619190614889565b8160600181815250505b8060046000848152602001908152602001600020600082015181600001556020820151816001015560408201518160020155606082015181600301559050506000600c60009054906101000a900473ffffffffffffffffffffffffffffffffffffffff1673ffffffffffffffffffffffffffffffffffffffff1663ed4ba59d84846040518363ffffffff1660e01b8152600401611809929190614738565b60206040518083038186803b15801561182157600080fd5b505afa158015611835573d6000803e3d6000fd5b505050506040513d601f19601f820116820180604052508101906118599190613e26565b905060006118708286612b6990919063ffffffff16565b9050600081866118809190614889565b9050806002600087815260200190815260200160002060003373ffffffffffffffffffffffffffffffffffffffff1673ffffffffffffffffffffffffffffffffffffffff16815260200190815260200160002060008282546118e29190614889565b9250508190555080600d60008282546118fb9190614889565b9250508190555080600e60003373ffffffffffffffffffffffffffffffffffffffff1673ffffffffffffffffffffffffffffffffffffffff16815260200190815260200160002060008282546119519190614889565b925050819055506119a7333088600860009054906101000a900473ffffffffffffffffffffffffffffffffffffffff1673ffffffffffffffffffffffffffffffffffffffff16612879909392919063ffffffff16565b3373ffffffffffffffffffffffffffffffffffffffff167fe983baebb65a77750c6277cf1d19a6a07b25a472b789a59005944cb59b91425a8784886040516119f1939291906147d0565b60405180910390a25050505060016000819055505050565b600d5481565b60006001600084815260200190815260200160002060000160008373ffffffffffffffffffffffffffffffffffffffff1673ffffffffffffffffffffffffffffffffffffffff16815260200190815260200160002060009054906101000a900460ff16905092915050565b600a8054611a8790614b93565b80601f0160208091040260200160405190810160405280929190818152602001828054611ab390614b93565b8015611b005780601f10611ad557610100808354040283529160200191611b00565b820191906000526020600020905b815481529060010190602001808311611ae357829003601f168201915b505050505081565b600060026000541415611b50576040517f08c379a0000000000000000000000000000000000000000000000000000000008152600401611b4790614679565b60405180910390fd5b6002600081905550611b653386868686612b92565b90506001600081905550949350505050565b600960009054906101000a900473ffffffffffffffffffffffffffffffffffffffff1681565b6000801b81565b60046020528060005260406000206000915090508060000154908060010154908060020154908060030154905084565b60106020528060005260406000206000915090505481565b6000600b60009054906101000a900473ffffffffffffffffffffffffffffffffffffffff16905090565b600b60009054906101000a900473ffffffffffffffffffffffffffffffffffffffff1673ffffffffffffffffffffffffffffffffffffffff1663055d325430336040518363ffffffff1660e01b8152600401611c739291906142db565b600060405180830381600087803b158015611c8d57600080fd5b505af1158015611ca1573d6000803e3d6000fd5b505050506000600960009054906101000a900473ffffffffffffffffffffffffffffffffffffffff1673ffffffffffffffffffffffffffffffffffffffff166370a08231336040518263ffffffff1660e01b8152600401611d0291906142c0565b60206040518083038186803b158015611d1a57600080fd5b505afa158015611d2e573d6000803e3d6000fd5b505050506040513d601f19601f82011682018060405250810190611d529190613e26565b905060008290507fffffffffffffffffffffffffffffffffffffffffffffffffffffffffffffffff831415611d85578190505b60056000015481600560010154611d9c919061496a565b1015611de05760176040517fede8a599000000000000000000000000000000000000000000000000000000008152600401611dd7919061457c565b60405180910390fd5b600960009054906101000a900473ffffffffffffffffffffffffffffffffffffffff1673ffffffffffffffffffffffffffffffffffffffff16639dc29fac33836040518363ffffffff1660e01b8152600401611e3d9291906144cc565b600060405180830381600087803b158015611e5757600080fd5b505af1158015611e6b573d6000803e3d6000fd5b50505050611ebe303383600860009054906101000a900473ffffffffffffffffffffffffffffffffffffffff1673ffffffffffffffffffffffffffffffffffffffff16612879909392919063ffffffff16565b8060056001016000828254611ed3919061496a565b925050819055503373ffffffffffffffffffffffffffffffffffffffff167f2326675290def598d0fd820ee11f06c58c01b80230ab369044cf0b17dbfdc57f84604051611f2091906146f4565b60405180910390a2505050565b600f5481565b60026000541415611f79576040517f08c379a0000000000000000000000000000000000000000000000000000000008152600401611f7090614679565b60405180910390fd5b6002600081905550611f8e3385858585612ec4565b600160008190555050505050565b611fa5826106bb565b611fb681611fb1612902565b61290a565b611fc08383612a87565b505050565b6002600054141561200b576040517f08c379a000000000000000000000000000000000000000000000000000000000815260040161200290614679565b60405180910390fd5b6002600081905550600073f6780c6eCFbF39CE58ac293dC2F00da27c91df4E63b142980a836040518263ffffffff1660e01b815260040161204c91906146d9565b60206040518083038186803b15801561206457600080fd5b505af4158015612078573d6000803e3d6000fd5b505050506040513d601f19601f8201168201806040525081019061209c9190613d46565b6120de57600c6040517fede8a5990000000000000000000000000000000000000000000000000000000081526004016120d5919061457c565b60405180910390fd5b600b60009054906101000a900473ffffffffffffffffffffffffffffffffffffffff1673ffffffffffffffffffffffffffffffffffffffff1663806a9f808360026040518363ffffffff1660e01b815260040161213c92919061470f565b60006040518083038186803b15801561215457600080fd5b505afa158015612168573d6000803e3d6000fd5b5050505060006004600084815260200190815260200160002060405180608001604052908160008201548152602001600182015481526020016002820154815260200160038201548152505090508381600001516121c69190614889565b81600001818152505080606001518411156122d85760006005600001546005600101546121f3919061496a565b905080826060015186612206919061496a565b111561224a5760176040517fede8a599000000000000000000000000000000000000000000000000000000008152600401612241919061457c565b60405180910390fd5b8160600151856005600001546122609190614889565b61226a919061496a565b60056000018190555081606001518583604001516122889190614889565b612292919061496a565b82604001818152505081606001518583602001516122b09190614889565b6122ba919061496a565b826020018181525050600082606001818152505060019250506122f2565b8381606001516122e8919061496a565b8160600181815250505b6000600c60009054906101000a900473ffffffffffffffffffffffffffffffffffffffff1673ffffffffffffffffffffffffffffffffffffffff16633b949d9c85846005876040518563ffffffff1660e01b81526004016123569493929190614761565b60206040518083038186803b15801561236e57600080fd5b505afa158015612382573d6000803e3d6000fd5b505050506040513d601f19601f820116820180604052508101906123a69190613e26565b905060006123bd8287612b6990919063ffffffff16565b9050600081876123cd9190614889565b9050600b60009054906101000a900473ffffffffffffffffffffffffffffffffffffffff1673ffffffffffffffffffffffffffffffffffffffff16630ac8f7443033848a6040518563ffffffff1660e01b81526004016124309493929190614487565b600060405180830381600087803b15801561244a57600080fd5b505af115801561245e573d6000803e3d6000fd5b505050508184600001516124729190614889565b846000018181525050836004600088815260200190815260200160002060008201518160000155602082015181600101556040820151816002015560608201518160030155905050600082886124c89190614889565b9050806003600089815260200190815260200160002060003373ffffffffffffffffffffffffffffffffffffffff1673ffffffffffffffffffffffffffffffffffffffff168152602001908152602001600020600082825461252a9190614889565b9250508190555080600f60008282546125439190614889565b9250508190555080601060003373ffffffffffffffffffffffffffffffffffffffff1673ffffffffffffffffffffffffffffffffffffffff16815260200190815260200160002060008282546125999190614889565b925050819055506125ef30338a600860009054906101000a900473ffffffffffffffffffffffffffffffffffffffff1673ffffffffffffffffffffffffffffffffffffffff16612879909392919063ffffffff16565b3373ffffffffffffffffffffffffffffffffffffffff167fee72e8c8b6eca9a0d0d7e3769f539ba283595748fe87a842d8d64d5d825173a889858a604051612639939291906147d0565b60405180910390a250505050505060016000819055505050565b600c60009054906101000a900473ffffffffffffffffffffffffffffffffffffffff1681565b6000801b61268e81612689612902565b61290a565b816007819055505050565b6000811480612732575060008373ffffffffffffffffffffffffffffffffffffffff1663dd62ed3e30856040518363ffffffff1660e01b81526004016126e09291906142db565b60206040518083038186803b1580156126f857600080fd5b505afa15801561270c573d6000803e3d6000fd5b505050506040513d601f19601f820116820180604052508101906127309190613e26565b145b612771576040517f08c379a000000000000000000000000000000000000000000000000000000000815260040161276890614699565b60405180910390fd5b6127f28363095ea7b360e01b84846040516024016127909291906144cc565b604051602081830303815290604052907bffffffffffffffffffffffffffffffffffffffffffffffffffffffff19166020820180517bffffffffffffffffffffffffffffffffffffffffffffffffffffffff83818316178352505050506131c3565b505050565b6060612806848460008561328a565b90509392505050565b60007f01ffc9a7000000000000000000000000000000000000000000000000000000007bffffffffffffffffffffffffffffffffffffffffffffffffffffffff1916827bffffffffffffffffffffffffffffffffffffffffffffffffffffffff1916149050919050565b6128fc846323b872dd60e01b85858560405160240161289a939291906143ef565b604051602081830303815290604052907bffffffffffffffffffffffffffffffffffffffffffffffffffffffff19166020820180517bffffffffffffffffffffffffffffffffffffffffffffffffffffffff83818316178352505050506131c3565b50505050565b600033905090565b6129148282611a0f565b6129a3576129398173ffffffffffffffffffffffffffffffffffffffff16601461339e565b6129478360001c602061339e565b604051602001612958929190614286565b6040516020818303038152906040526040517f08c379a000000000000000000000000000000000000000000000000000000000815260040161299a9190614597565b60405180910390fd5b5050565b6129b18282611a0f565b612a8357600180600084815260200190815260200160002060000160008373ffffffffffffffffffffffffffffffffffffffff1673ffffffffffffffffffffffffffffffffffffffff16815260200190815260200160002060006101000a81548160ff021916908315150217905550612a28612902565b73ffffffffffffffffffffffffffffffffffffffff168173ffffffffffffffffffffffffffffffffffffffff16837f2f8788117e7eff1d82e926ec794901d17c78024a50270940304540a733656f0d60405160405180910390a45b5050565b612a918282611a0f565b15612b655760006001600084815260200190815260200160002060000160008373ffffffffffffffffffffffffffffffffffffffff1673ffffffffffffffffffffffffffffffffffffffff16815260200190815260200160002060006101000a81548160ff021916908315150217905550612b0a612902565b73ffffffffffffffffffffffffffffffffffffffff168173ffffffffffffffffffffffffffffffffffffffff16837ff6391f5c32d9c69d2a47ea670b442974b53935d1edc7fd64eb21e047a839171b60405160405180910390a45b5050565b6000670de0b6b3a76400008284612b809190614910565b612b8a91906148df565b905092915050565b6000600b60009054906101000a900473ffffffffffffffffffffffffffffffffffffffff1673ffffffffffffffffffffffffffffffffffffffff16632c7c0ae83085898989886040518763ffffffff1660e01b8152600401612bf99695949392919061438e565b60006040518083038186803b158015612c1157600080fd5b505afa158015612c25573d6000803e3d6000fd5b50505050612c3586868685613698565b6000600b60009054906101000a900473ffffffffffffffffffffffffffffffffffffffff1673ffffffffffffffffffffffffffffffffffffffff16635efadbd13086886040518463ffffffff1660e01b8152600401612c96939291906143ef565b60206040518083038186803b158015612cae57600080fd5b505afa158015612cc2573d6000803e3d6000fd5b505050506040513d601f19601f82011682018060405250810190612ce69190613e26565b905060008473ffffffffffffffffffffffffffffffffffffffff166355a1ac2e88866040518363ffffffff1660e01b8152600401612d259291906144cc565b604080518083038186803b158015612d3c57600080fd5b505afa158015612d50573d6000803e3d6000fd5b505050506040513d601f19601f82011682018060405250810190612d749190613ec7565b50905081811015612dbd57600a6040517fede8a599000000000000000000000000000000000000000000000000000000008152600401612db4919061457c565b60405180910390fd5b3073ffffffffffffffffffffffffffffffffffffffff168573ffffffffffffffffffffffffffffffffffffffff161415612e0357612dfe3089898588612ec4565b612e75565b8473ffffffffffffffffffffffffffffffffffffffff1663d2c6d0dc898985886040518563ffffffff1660e01b8152600401612e429493929190614487565b600060405180830381600087803b158015612e5c57600080fd5b505af1158015612e70573d6000803e3d6000fd5b505050505b7f9e76a01ba2e51393f58ccc22c0afc9520815e0cc3f301f7b5d7442fcaee9fdc1888888888689604051612eae96959493929190614426565b60405180910390a1859250505095945050505050565b600b60009054906101000a900473ffffffffffffffffffffffffffffffffffffffff1673ffffffffffffffffffffffffffffffffffffffff1663eafe967b308787876040518563ffffffff1660e01b8152600401612f259493929190614349565b60006040518083038186803b158015612f3d57600080fd5b505afa158015612f51573d6000803e3d6000fd5b505050506000612f6c60075484612b6990919063ffffffff16565b905060008184612f7c919061496a565b9050836002600085815260200190815260200160002060008773ffffffffffffffffffffffffffffffffffffffff1673ffffffffffffffffffffffffffffffffffffffff1681526020019081526020016000206000828254612fde919061496a565b9250508190555060006004600085815260200190815260200160002060405180608001604052908160008201548152602001600182015481526020016002820154815260200160038201548152505090508481602001818151613041919061496a565b9150818152505080600460008681526020019081526020016000206000820151816000015560208201518160010155604082015181600201556060820151816003015590505084600d6000828254613099919061496a565b9250508190555084600e60008873ffffffffffffffffffffffffffffffffffffffff1673ffffffffffffffffffffffffffffffffffffffff16815260200190815260200160002060008282546130ef919061496a565b925050819055506131438783600860009054906101000a900473ffffffffffffffffffffffffffffffffffffffff1673ffffffffffffffffffffffffffffffffffffffff16613a249092919063ffffffff16565b7f3a9ce1fec5ebf7e61a4965c55f20ec0a88e791282568d736a19d878223d10d90878787876040516131789493929190614487565b60405180910390a17f77c97459a115e74ba5adced182b076766b1b9825e785d85b5f0f06d444bef21130846040516131b19291906144cc565b60405180910390a15050505050505050565b6000613225826040518060400160405280602081526020017f5361666545524332303a206c6f772d6c6576656c2063616c6c206661696c65648152508573ffffffffffffffffffffffffffffffffffffffff166127f79092919063ffffffff16565b905060008151111561328557808060200190518101906132459190613d46565b613284576040517f08c379a000000000000000000000000000000000000000000000000000000000815260040161327b90614659565b60405180910390fd5b5b505050565b6060824710156132cf576040517f08c379a00000000000000000000000000000000000000000000000000000000081526004016132c6906145d9565b60405180910390fd5b6132d885613aaa565b613317576040517f08c379a000000000000000000000000000000000000000000000000000000000815260040161330e90614619565b60405180910390fd5b6000808673ffffffffffffffffffffffffffffffffffffffff168587604051613340919061426f565b60006040518083038185875af1925050503d806000811461337d576040519150601f19603f3d011682016040523d82523d6000602084013e613382565b606091505b5091509150613392828286613abd565b92505050949350505050565b6060600060028360026133b19190614910565b6133bb9190614889565b67ffffffffffffffff8111156133fa577f4e487b7100000000000000000000000000000000000000000000000000000000600052604160045260246000fd5b6040519080825280601f01601f19166020018201604052801561342c5781602001600182028036833780820191505090505b5090507f30000000000000000000000000000000000000000000000000000000000000008160008151811061348a577f4e487b7100000000000000000000000000000000000000000000000000000000600052603260045260246000fd5b60200101907effffffffffffffffffffffffffffffffffffffffffffffffffffffffffffff1916908160001a9053507f780000000000000000000000000000000000000000000000000000000000000081600181518110613514577f4e487b7100000000000000000000000000000000000000000000000000000000600052603260045260246000fd5b60200101907effffffffffffffffffffffffffffffffffffffffffffffffffffffffffffff1916908160001a905350600060018460026135549190614910565b61355e9190614889565b90505b600181111561364a577f3031323334353637383961626364656600000000000000000000000000000000600f8616601081106135c6577f4e487b7100000000000000000000000000000000000000000000000000000000600052603260045260246000fd5b1a60f81b828281518110613603577f4e487b7100000000000000000000000000000000000000000000000000000000600052603260045260246000fd5b60200101907effffffffffffffffffffffffffffffffffffffffffffffffffffffffffffff1916908160001a905350600485901c94508061364390614b69565b9050613561565b506000841461368e576040517f08c379a0000000000000000000000000000000000000000000000000000000008152600401613685906145b9565b60405180910390fd5b8091505092915050565b60008214156136dc576040517f08c379a00000000000000000000000000000000000000000000000000000000081526004016136d3906145f9565b60405180910390fd5b61372b843084600860009054906101000a900473ffffffffffffffffffffffffffffffffffffffff1673ffffffffffffffffffffffffffffffffffffffff16612879909392919063ffffffff16565b60006003600083815260200190815260200160002060008573ffffffffffffffffffffffffffffffffffffffff1673ffffffffffffffffffffffffffffffffffffffff168152602001908152602001600020549050600061378c8584610ee3565b915050600081838661379e9190614910565b6137a891906148df565b9050600960009054906101000a900473ffffffffffffffffffffffffffffffffffffffff1673ffffffffffffffffffffffffffffffffffffffff16638fa467c482876137f4919061496a565b6040518263ffffffff1660e01b815260040161381091906146f4565b600060405180830381600087803b15801561382a57600080fd5b505af115801561383e573d6000803e3d6000fd5b50505050808361384e919061496a565b6003600086815260200190815260200160002060008873ffffffffffffffffffffffffffffffffffffffff1673ffffffffffffffffffffffffffffffffffffffff16815260200190815260200160002081905550600060046000868152602001908152602001600020604051806080016040529081600082015481526020016001820154815260200160028201548152602001600382015481525050905081816000018181516138fe919061496a565b9150818152505080600460008781526020019081526020016000206000820151816000015560208201518160010155604082015181600201556060820151816003015590505081600f6000828254613956919061496a565b9250508190555081601060008973ffffffffffffffffffffffffffffffffffffffff1673ffffffffffffffffffffffffffffffffffffffff16815260200190815260200160002060008282546139ac919061496a565b925050819055508673ffffffffffffffffffffffffffffffffffffffff168873ffffffffffffffffffffffffffffffffffffffff167f88eb7c2c19b5929301cbabb6e688004a28f396c44a81fdd9ae080360c3ecdef48888604051613a129291906147a7565b60405180910390a35050505050505050565b613aa58363a9059cbb60e01b8484604051602401613a439291906144cc565b604051602081830303815290604052907bffffffffffffffffffffffffffffffffffffffffffffffffffffffff19166020820180517bffffffffffffffffffffffffffffffffffffffffffffffffffffffff83818316178352505050506131c3565b505050565b600080823b905060008111915050919050565b60608315613acd57829050613b1d565b600083511115613ae05782518084602001fd5b816040517f08c379a0000000000000000000000000000000000000000000000000000000008152600401613b149190614597565b60405180910390fd5b9392505050565b600081359050613b3381614f3c565b92915050565b600081359050613b4881614f53565b92915050565b600081519050613b5d81614f6a565b92915050565b600081359050613b7281614f81565b92915050565b600081359050613b8781614f98565b92915050565b600081359050613b9c81614faf565b92915050565b600081359050613bb181614fc6565b92915050565b600081519050613bc681614fc6565b92915050565b600060208284031215613bde57600080fd5b6000613bec84828501613b24565b91505092915050565b600080600060608486031215613c0a57600080fd5b6000613c1886828701613b39565b9350506020613c2986828701613ba2565b9250506040613c3a86828701613ba2565b9150509250925092565b60008060008060808587031215613c5a57600080fd5b6000613c6887828801613b24565b9450506020613c7987828801613b24565b9350506040613c8a87828801613ba2565b9250506060613c9b87828801613ba2565b91505092959194509250565b60008060408385031215613cba57600080fd5b6000613cc885828601613b24565b9250506020613cd985828601613ba2565b9150509250929050565b60008060008060808587031215613cf957600080fd5b6000613d0787828801613b24565b9450506020613d1887828801613ba2565b9350506040613d2987828801613b8d565b9250506060613d3a87828801613ba2565b91505092959194509250565b600060208284031215613d5857600080fd5b6000613d6684828501613b4e565b91505092915050565b600060208284031215613d8157600080fd5b6000613d8f84828501613b63565b91505092915050565b60008060408385031215613dab57600080fd5b6000613db985828601613b63565b9250506020613dca85828601613b24565b9150509250929050565b600060208284031215613de657600080fd5b6000613df484828501613b78565b91505092915050565b600060208284031215613e0f57600080fd5b6000613e1d84828501613ba2565b91505092915050565b600060208284031215613e3857600080fd5b6000613e4684828501613bb7565b91505092915050565b60008060408385031215613e6257600080fd5b6000613e7085828601613ba2565b9250506020613e8185828601613b24565b9150509250929050565b60008060408385031215613e9e57600080fd5b6000613eac85828601613ba2565b9250506020613ebd85828601613ba2565b9150509250929050565b60008060408385031215613eda57600080fd5b6000613ee885828601613bb7565b9250506020613ef985828601613bb7565b9150509250929050565b613f0c81614a70565b82525050565b613f1b816149a8565b82525050565b613f2a816149cc565b82525050565b613f39816149d8565b82525050565b6000613f4a8261484c565b613f548185614862565b9350613f64818560208601614b36565b80840191505092915050565b613f7981614a82565b82525050565b613f8881614aa6565b82525050565b613f9781614aca565b82525050565b613fa681614aee565b82525050565b613fb581614b00565b82525050565b6000613fc682614857565b613fd0818561486d565b9350613fe0818560208601614b36565b613fe981614c9b565b840191505092915050565b6000613fff82614857565b614009818561487e565b9350614019818560208601614b36565b80840191505092915050565b600061403260208361486d565b915061403d82614cb9565b602082019050919050565b600061405560268361486d565b915061406082614ce2565b604082019050919050565b600061407860148361486d565b915061408382614d31565b602082019050919050565b600061409b601d8361486d565b91506140a682614d5a565b602082019050919050565b60006140be60148361486d565b91506140c982614d83565b602082019050919050565b60006140e160178361487e565b91506140ec82614dac565b601782019050919050565b6000614104602a8361486d565b915061410f82614dd5565b604082019050919050565b6000614127601f8361486d565b915061413282614e24565b602082019050919050565b600061414a60368361486d565b915061415582614e4d565b604082019050919050565b600061416d60118361487e565b915061417882614e9c565b601182019050919050565b6000614190602f8361486d565b915061419b82614ec5565b604082019050919050565b6080820160008201516141bc6000850182614242565b5060208201516141cf6020850182614242565b5060408201516141e26040850182614242565b5060608201516141f56060850182614242565b50505050565b60408201600080830154905061421081614bc5565b61421d6000860182614242565b506001830154905061422e81614bc5565b61423b6020860182614242565b5050505050565b61424b81614a66565b82525050565b61425a81614a66565b82525050565b61426981614a66565b82525050565b600061427b8284613f3f565b915081905092915050565b6000614291826140d4565b915061429d8285613ff4565b91506142a882614160565b91506142b48284613ff4565b91508190509392505050565b60006020820190506142d56000830184613f12565b92915050565b60006040820190506142f06000830185613f12565b6142fd6020830184613f12565b9392505050565b60006080820190506143196000830187613f12565b6143266020830186613f03565b6143336040830185614251565b6143406060830184614251565b95945050505050565b600060808201905061435e6000830187613f12565b61436b6020830186613f12565b6143786040830185613f12565b6143856060830184613f12565b95945050505050565b600060c0820190506143a36000830189613f12565b6143b06020830188613f12565b6143bd6040830187613f12565b6143ca6060830186613f12565b6143d76080830185614251565b6143e460a0830184614251565b979650505050505050565b60006060820190506144046000830186613f12565b6144116020830185613f12565b61441e6040830184614251565b949350505050565b600060c08201905061443b6000830189613f12565b6144486020830188613f12565b6144556040830187614251565b6144626060830186613f12565b61446f6080830185614251565b61447c60a0830184614251565b979650505050505050565b600060808201905061449c6000830187613f12565b6144a96020830186613f12565b6144b66040830185614251565b6144c36060830184614251565b95945050505050565b60006040820190506144e16000830185613f12565b6144ee6020830184614251565b9392505050565b600060208201905061450a6000830184613f21565b92915050565b60006020820190506145256000830184613f30565b92915050565b60006020820190506145406000830184613f70565b92915050565b600060208201905061455b6000830184613f7f565b92915050565b60006020820190506145766000830184613f8e565b92915050565b60006020820190506145916000830184613f9d565b92915050565b600060208201905081810360008301526145b18184613fbb565b905092915050565b600060208201905081810360008301526145d281614025565b9050919050565b600060208201905081810360008301526145f281614048565b9050919050565b600060208201905081810360008301526146128161406b565b9050919050565b600060208201905081810360008301526146328161408e565b9050919050565b60006020820190508181036000830152614652816140b1565b9050919050565b60006020820190508181036000830152614672816140f7565b9050919050565b600060208201905081810360008301526146928161411a565b9050919050565b600060208201905081810360008301526146b28161413d565b9050919050565b600060208201905081810360008301526146d281614183565b9050919050565b60006020820190506146ee6000830184614260565b92915050565b60006020820190506147096000830184614251565b92915050565b60006040820190506147246000830185614251565b6147316020830184613fac565b9392505050565b600060a08201905061474d6000830185614251565b61475a60208301846141a6565b9392505050565b6000610100820190506147776000830187614251565b61478460208301866141a6565b61479160a08301856141fb565b61479e60e0830184613f21565b95945050505050565b60006040820190506147bc6000830185614251565b6147c96020830184614251565b9392505050565b60006060820190506147e56000830186614251565b6147f26020830185614251565b6147ff6040830184614251565b949350505050565b600060808201905061481c6000830187614251565b6148296020830186614251565b6148366040830185614251565b6148436060830184614251565b95945050505050565b600081519050919050565b600081519050919050565b600081905092915050565b600082825260208201905092915050565b600081905092915050565b600061489482614a66565b915061489f83614a66565b9250827fffffffffffffffffffffffffffffffffffffffffffffffffffffffffffffffff038211156148d4576148d3614bdf565b5b828201905092915050565b60006148ea82614a66565b91506148f583614a66565b92508261490557614904614c0e565b5b828204905092915050565b600061491b82614a66565b915061492683614a66565b9250817fffffffffffffffffffffffffffffffffffffffffffffffffffffffffffffffff048311821515161561495f5761495e614bdf565b5b828202905092915050565b600061497582614a66565b915061498083614a66565b92508282101561499357614992614bdf565b5b828203905092915050565b6000819050919050565b60006149b382614a46565b9050919050565b60006149c582614a46565b9050919050565b60008115159050919050565b6000819050919050565b60007fffffffff0000000000000000000000000000000000000000000000000000000082169050919050565b6000614a19826149a8565b9050919050565b6000819050614a2e82614f14565b919050565b6000819050614a4182614f28565b919050565b600073ffffffffffffffffffffffffffffffffffffffff82169050919050565b6000819050919050565b6000614a7b82614b12565b9050919050565b6000614a8d82614a94565b9050919050565b6000614a9f82614a46565b9050919050565b6000614ab182614ab8565b9050919050565b6000614ac382614a46565b9050919050565b6000614ad582614adc565b9050919050565b6000614ae782614a46565b9050919050565b6000614af982614a20565b9050919050565b6000614b0b82614a33565b9050919050565b6000614b1d82614b24565b9050919050565b6000614b2f82614a46565b9050919050565b60005b83811015614b54578082015181840152602081019050614b39565b83811115614b63576000848401525b50505050565b6000614b7482614a66565b91506000821415614b8857614b87614bdf565b5b600182039050919050565b60006002820490506001821680614bab57607f821691505b60208210811415614bbf57614bbe614c6c565b5b50919050565b6000614bd8614bd383614cac565b61499e565b9050919050565b7f4e487b7100000000000000000000000000000000000000000000000000000000600052601160045260246000fd5b7f4e487b7100000000000000000000000000000000000000000000000000000000600052601260045260246000fd5b7f4e487b7100000000000000000000000000000000000000000000000000000000600052602160045260246000fd5b7f4e487b7100000000000000000000000000000000000000000000000000000000600052602260045260246000fd5b6000601f19601f8301169050919050565b60008160001c9050919050565b7f537472696e67733a20686578206c656e67746820696e73756666696369656e74600082015250565b7f416464726573733a20696e73756666696369656e742062616c616e636520666f60008201527f722063616c6c0000000000000000000000000000000000000000000000000000602082015250565b7f596f752063616e2774207265706179207a65726f000000000000000000000000600082015250565b7f416464726573733a2063616c6c20746f206e6f6e2d636f6e7472616374000000600082015250565b7f4e6f7420656e6f756768206c6971756964697479000000000000000000000000600082015250565b7f416363657373436f6e74726f6c3a206163636f756e7420000000000000000000600082015250565b7f5361666545524332303a204552433230206f7065726174696f6e20646964206e60008201527f6f74207375636365656400000000000000000000000000000000000000000000602082015250565b7f5265656e7472616e637947756172643a207265656e7472616e742063616c6c00600082015250565b7f5361666545524332303a20617070726f76652066726f6d206e6f6e2d7a65726f60008201527f20746f206e6f6e2d7a65726f20616c6c6f77616e636500000000000000000000602082015250565b7f206973206d697373696e6720726f6c6520000000000000000000000000000000600082015250565b7f416363657373436f6e74726f6c3a2063616e206f6e6c792072656e6f756e636560008201527f20726f6c657320666f722073656c660000000000000000000000000000000000602082015250565b60188110614f2557614f24614c3d565b5b50565b60048110614f3957614f38614c3d565b5b50565b614f45816149a8565b8114614f5057600080fd5b50565b614f5c816149ba565b8114614f6757600080fd5b50565b614f73816149cc565b8114614f7e57600080fd5b50565b614f8a816149d8565b8114614f9557600080fd5b50565b614fa1816149e2565b8114614fac57600080fd5b50565b614fb881614a0e565b8114614fc357600080fd5b50565b614fcf81614a66565b8114614fda57600080fd5b5056fea2646970667358221220ae3c5a09a32e39ec21a3b1ad497b0d2f59a7a85ba19bab0cf07b111d4c2156ae64736f6c63430008040033",
  "deployedBytecode": "0x608060405234801561001057600080fd5b50600436106101e55760003560e01c80638988b9b81161010f578063b72ddee9116100a2578063d547741f11610071578063d547741f146105cf578063dea9e879146105eb578063f3fdb15a14610607578063fef0bec814610625576101e5565b8063b72ddee91461055b578063b7f394c014610579578063c0107f8114610595578063d2c6d0dc146105b3576101e5565b8063953d9cf1116100de578063953d9cf1146104bc578063a217fddf146104da578063a29cb7e1146104f8578063a3456a101461052b576101e5565b80638988b9b81461042057806391d148541461043e57806391f3e4721461046e5780639457be231461048c576101e5565b806345227d5f116101875780636c296b00116101565780636c296b001461037457806375e1d781146103a4578063821993ec146103d4578063887463ab14610404576101e5565b806345227d5f146102d85780634b728f891461030857806355a1ac2e146103275780636135600f14610358576101e5565b80632f2ff15d116101c35780632f2ff15d1461026657806336568abe146102825780633ec045a61461029e57806342e49ed4146102bc576101e5565b806301ffc9a7146101ea578063248a9ca31461021a57806327f1a8841461024a575b600080fd5b61020460048036038101906101ff9190613dd4565b610641565b60405161021191906144f5565b60405180910390f35b610234600480360381019061022f9190613d6f565b6106bb565b6040516102419190614510565b60405180910390f35b610264600480360381019061025f9190613bf5565b6106db565b005b610280600480360381019061027b9190613d98565b610a72565b005b61029c60048036038101906102979190613d98565b610a9b565b005b6102a6610b1e565b6040516102b3919061452b565b60405180910390f35b6102d660048036038101906102d19190613ca7565b610b44565b005b6102f260048036038101906102ed9190613e4f565b610eac565b6040516102ff91906146f4565b60405180910390f35b610310610ed1565b60405161031e9291906147a7565b60405180910390f35b610341600480360381019061033c9190613ca7565b610ee3565b60405161034f9291906147a7565b60405180910390f35b610372600480360381019061036d9190613dfd565b6111c2565b005b61038e60048036038101906103899190613bcc565b61139c565b60405161039b91906146f4565b60405180910390f35b6103be60048036038101906103b99190613dfd565b6113b4565b6040516103cb91906146f4565b60405180910390f35b6103ee60048036038101906103e99190613e4f565b61149d565b6040516103fb91906146f4565b60405180910390f35b61041e60048036038101906104199190613e8b565b6114c2565b005b610428611a09565b60405161043591906146f4565b60405180910390f35b61045860048036038101906104539190613d98565b611a0f565b60405161046591906144f5565b60405180910390f35b610476611a7a565b6040516104839190614597565b60405180910390f35b6104a660048036038101906104a19190613ce3565b611b08565b6040516104b391906146f4565b60405180910390f35b6104c4611b77565b6040516104d19190614546565b60405180910390f35b6104e2611b9d565b6040516104ef9190614510565b60405180910390f35b610512600480360381019061050d9190613dfd565b611ba4565b6040516105229493929190614807565b60405180910390f35b61054560048036038101906105409190613bcc565b611bd4565b60405161055291906146f4565b60405180910390f35b610563611bec565b604051610570919061452b565b60405180910390f35b610593600480360381019061058e9190613dfd565b611c16565b005b61059d611f2d565b6040516105aa91906146f4565b60405180910390f35b6105cd60048036038101906105c89190613c44565b611f33565b005b6105e960048036038101906105e49190613d98565b611f9c565b005b61060560048036038101906106009190613e8b565b611fc5565b005b61060f612653565b60405161061c9190614561565b60405180910390f35b61063f600480360381019061063a9190613dfd565b612679565b005b60007f7965db0b000000000000000000000000000000000000000000000000000000007bffffffffffffffffffffffffffffffffffffffffffffffffffffffff1916827bffffffffffffffffffffffffffffffffffffffffffffffffffffffff191614806106b457506106b38261280f565b5b9050919050565b600060016000838152602001908152602001600020600101549050919050565b60026000541415610721576040517f08c379a000000000000000000000000000000000000000000000000000000000815260040161071890614679565b60405180910390fd5b600260008190555060008214156107705760136040517fede8a599000000000000000000000000000000000000000000000000000000008152600401610767919061457c565b60405180910390fd5b600b60009054906101000a900473ffffffffffffffffffffffffffffffffffffffff1673ffffffffffffffffffffffffffffffffffffffff166321e23a98308585856040518563ffffffff1660e01b81526004016107d19493929190614304565b600060405180830381600087803b1580156107eb57600080fd5b505af11580156107ff573d6000803e3d6000fd5b50505050816002600083815260200190815260200160002060008573ffffffffffffffffffffffffffffffffffffffff1673ffffffffffffffffffffffffffffffffffffffff1681526020019081526020016000206000828254610863919061496a565b9250508190555081600d600082825461087c919061496a565b9250508190555081600e60008573ffffffffffffffffffffffffffffffffffffffff1673ffffffffffffffffffffffffffffffffffffffff16815260200190815260200160002060008282546108d2919061496a565b9250508190555081600860009054906101000a900473ffffffffffffffffffffffffffffffffffffffff1673ffffffffffffffffffffffffffffffffffffffff166370a08231306040518263ffffffff1660e01b815260040161093591906142c0565b60206040518083038186803b15801561094d57600080fd5b505afa158015610961573d6000803e3d6000fd5b505050506040513d601f19601f820116820180604052508101906109859190613e26565b10156109c6576040517f08c379a00000000000000000000000000000000000000000000000000000000081526004016109bd90614639565b60405180910390fd5b610a15308484600860009054906101000a900473ffffffffffffffffffffffffffffffffffffffff1673ffffffffffffffffffffffffffffffffffffffff16612879909392919063ffffffff16565b8273ffffffffffffffffffffffffffffffffffffffff167fac44b7cd8d864cbf99c4acc9c9787f54f5a4ac089349fecf3de4ce2ddff7b7bb8383604051610a5d9291906147a7565b60405180910390a26001600081905550505050565b610a7b826106bb565b610a8c81610a87612902565b61290a565b610a9683836129a7565b505050565b610aa3612902565b73ffffffffffffffffffffffffffffffffffffffff168173ffffffffffffffffffffffffffffffffffffffff1614610b10576040517f08c379a0000000000000000000000000000000000000000000000000000000008152600401610b07906146b9565b60405180910390fd5b610b1a8282612a87565b5050565b600b60009054906101000a900473ffffffffffffffffffffffffffffffffffffffff1681565b60026000541415610b8a576040517f08c379a0000000000000000000000000000000000000000000000000000000008152600401610b8190614679565b60405180910390fd5b6002600081905550600b60009054906101000a900473ffffffffffffffffffffffffffffffffffffffff1673ffffffffffffffffffffffffffffffffffffffff1663924f6ced30846040518363ffffffff1660e01b8152600401610bef9291906142db565b600060405180830381600087803b158015610c0957600080fd5b505af1158015610c1d573d6000803e3d6000fd5b5050505060006003600083815260200190815260200160002060008473ffffffffffffffffffffffffffffffffffffffff1673ffffffffffffffffffffffffffffffffffffffff1681526020019081526020016000205490506000610c828484610ee3565b915050610cd4333083600860009054906101000a900473ffffffffffffffffffffffffffffffffffffffff1673ffffffffffffffffffffffffffffffffffffffff16612879909392919063ffffffff16565b81600f6000828254610ce6919061496a565b9250508190555081601060008673ffffffffffffffffffffffffffffffffffffffff1673ffffffffffffffffffffffffffffffffffffffff1681526020019081526020016000206000828254610d3c919061496a565b9250508190555060008282610d51919061496a565b9050600960009054906101000a900473ffffffffffffffffffffffffffffffffffffffff1673ffffffffffffffffffffffffffffffffffffffff16638fa467c4826040518263ffffffff1660e01b8152600401610dae91906146f4565b600060405180830381600087803b158015610dc857600080fd5b505af1158015610ddc573d6000803e3d6000fd5b505050506003600085815260200190815260200160002060008673ffffffffffffffffffffffffffffffffffffffff1673ffffffffffffffffffffffffffffffffffffffff168152602001908152602001600020600090558473ffffffffffffffffffffffffffffffffffffffff163373ffffffffffffffffffffffffffffffffffffffff167f29c098a0b2f51718bfec23f9b7f06f8d3a257d44b55f33fb0ccf606e7104820c838688604051610e95939291906147d0565b60405180910390a350505060016000819055505050565b6002602052816000526040600020602052806000526040600020600091509150505481565b60058060000154908060010154905082565b60008073__$90f1fa1b3f91137ac60e95891d324fdd69$__63b142980a846040518263ffffffff1660e01b8152600401610f1d91906146d9565b60206040518083038186803b158015610f3557600080fd5b505af4158015610f49573d6000803e3d6000fd5b505050506040513d601f19601f82011682018060405250810190610f6d9190613d46565b610faf57600c6040517fede8a599000000000000000000000000000000000000000000000000000000008152600401610fa6919061457c565b60405180910390fd5b60006003600085815260200190815260200160002060008673ffffffffffffffffffffffffffffffffffffffff1673ffffffffffffffffffffffffffffffffffffffff168152602001908152602001600020549050600073__$90f1fa1b3f91137ac60e95891d324fdd69$__6328845ff0866040518263ffffffff1660e01b815260040161103d91906146d9565b60206040518083038186803b15801561105557600080fd5b505af4158015611069573d6000803e3d6000fd5b505050506040513d601f19601f8201168201806040525081019061108d9190613e26565b9050600081111561116357611155600c60009054906101000a900473ffffffffffffffffffffffffffffffffffffffff1673ffffffffffffffffffffffffffffffffffffffff1663d6b7494f6040518163ffffffff1660e01b815260040160206040518083038186803b15801561110357600080fd5b505afa158015611117573d6000803e3d6000fd5b505050506040513d601f19601f8201168201806040525081019061113b9190613e26565b826111469190614910565b83612b6990919063ffffffff16565b826111609190614889565b91505b6002600086815260200190815260200160002060008773ffffffffffffffffffffffffffffffffffffffff1673ffffffffffffffffffffffffffffffffffffffff16815260200190815260200160002054829350935050509250929050565b600b60009054906101000a900473ffffffffffffffffffffffffffffffffffffffff1673ffffffffffffffffffffffffffffffffffffffff166328bc83c130336040518363ffffffff1660e01b815260040161121f9291906142db565b600060405180830381600087803b15801561123957600080fd5b505af115801561124d573d6000803e3d6000fd5b505050506112a0333083600860009054906101000a900473ffffffffffffffffffffffffffffffffffffffff1673ffffffffffffffffffffffffffffffffffffffff16612879909392919063ffffffff16565b600960009054906101000a900473ffffffffffffffffffffffffffffffffffffffff1673ffffffffffffffffffffffffffffffffffffffff166340c10f1933836040518363ffffffff1660e01b81526004016112fd9291906144cc565b600060405180830381600087803b15801561131757600080fd5b505af115801561132b573d6000803e3d6000fd5b5050505080600560010160008282546113449190614889565b925050819055503373ffffffffffffffffffffffffffffffffffffffff167fd5656bd5348ef71585f018f0e1310274a6c223cc991afb5c5c2ee9f42313ad448260405161139191906146f4565b60405180910390a250565b600e6020528060005260406000206000915090505481565b600073__$90f1fa1b3f91137ac60e95891d324fdd69$__63b142980a836040518263ffffffff1660e01b81526004016113ed91906146d9565b60206040518083038186803b15801561140557600080fd5b505af4158015611419573d6000803e3d6000fd5b505050506040513d601f19601f8201168201806040525081019061143d9190613d46565b61147f57600c6040517fede8a599000000000000000000000000000000000000000000000000000000008152600401611476919061457c565b60405180910390fd5b60046000838152602001908152602001600020600001549050919050565b6003602052816000526040600020602052806000526040600020600091509150505481565b60026000541415611508576040517f08c379a00000000000000000000000000000000000000000000000000000000081526004016114ff90614679565b60405180910390fd5b600260008190555073__$90f1fa1b3f91137ac60e95891d324fdd69$__63b142980a826040518263ffffffff1660e01b815260040161154791906146d9565b60206040518083038186803b15801561155f57600080fd5b505af4158015611573573d6000803e3d6000fd5b505050506040513d601f19601f820116820180604052508101906115979190613d46565b6115d957600c6040517fede8a5990000000000000000000000000000000000000000000000000000000081526004016115d0919061457c565b60405180910390fd5b6000600460008381526020019081526020016000206040518060800160405290816000820154815260200160018201548152602001600282015481526020016003820154815250509050600b60009054906101000a900473ffffffffffffffffffffffffffffffffffffffff1673ffffffffffffffffffffffffffffffffffffffff1663635f8fc23033856040518463ffffffff1660e01b8152600401611682939291906143ef565b600060405180830381600087803b15801561169c57600080fd5b505af11580156116b0573d6000803e3d6000fd5b5050505060008160400151111561173857806040015183106116ff5760008160400181815250508281602001516116e79190614889565b81602001818152505082816060018181525050611733565b82816040015161170f919061496a565b816040018181525050826005600101546117299190614889565b6005600101819055505b61176b565b8281602001516117489190614889565b8160200181815250508281606001516117619190614889565b8160600181815250505b8060046000848152602001908152602001600020600082015181600001556020820151816001015560408201518160020155606082015181600301559050506000600c60009054906101000a900473ffffffffffffffffffffffffffffffffffffffff1673ffffffffffffffffffffffffffffffffffffffff1663ed4ba59d84846040518363ffffffff1660e01b8152600401611809929190614738565b60206040518083038186803b15801561182157600080fd5b505afa158015611835573d6000803e3d6000fd5b505050506040513d601f19601f820116820180604052508101906118599190613e26565b905060006118708286612b6990919063ffffffff16565b9050600081866118809190614889565b9050806002600087815260200190815260200160002060003373ffffffffffffffffffffffffffffffffffffffff1673ffffffffffffffffffffffffffffffffffffffff16815260200190815260200160002060008282546118e29190614889565b9250508190555080600d60008282546118fb9190614889565b9250508190555080600e60003373ffffffffffffffffffffffffffffffffffffffff1673ffffffffffffffffffffffffffffffffffffffff16815260200190815260200160002060008282546119519190614889565b925050819055506119a7333088600860009054906101000a900473ffffffffffffffffffffffffffffffffffffffff1673ffffffffffffffffffffffffffffffffffffffff16612879909392919063ffffffff16565b3373ffffffffffffffffffffffffffffffffffffffff167fe983baebb65a77750c6277cf1d19a6a07b25a472b789a59005944cb59b91425a8784886040516119f1939291906147d0565b60405180910390a25050505060016000819055505050565b600d5481565b60006001600084815260200190815260200160002060000160008373ffffffffffffffffffffffffffffffffffffffff1673ffffffffffffffffffffffffffffffffffffffff16815260200190815260200160002060009054906101000a900460ff16905092915050565b600a8054611a8790614b93565b80601f0160208091040260200160405190810160405280929190818152602001828054611ab390614b93565b8015611b005780601f10611ad557610100808354040283529160200191611b00565b820191906000526020600020905b815481529060010190602001808311611ae357829003601f168201915b505050505081565b600060026000541415611b50576040517f08c379a0000000000000000000000000000000000000000000000000000000008152600401611b4790614679565b60405180910390fd5b6002600081905550611b653386868686612b92565b90506001600081905550949350505050565b600960009054906101000a900473ffffffffffffffffffffffffffffffffffffffff1681565b6000801b81565b60046020528060005260406000206000915090508060000154908060010154908060020154908060030154905084565b60106020528060005260406000206000915090505481565b6000600b60009054906101000a900473ffffffffffffffffffffffffffffffffffffffff16905090565b600b60009054906101000a900473ffffffffffffffffffffffffffffffffffffffff1673ffffffffffffffffffffffffffffffffffffffff1663055d325430336040518363ffffffff1660e01b8152600401611c739291906142db565b600060405180830381600087803b158015611c8d57600080fd5b505af1158015611ca1573d6000803e3d6000fd5b505050506000600960009054906101000a900473ffffffffffffffffffffffffffffffffffffffff1673ffffffffffffffffffffffffffffffffffffffff166370a08231336040518263ffffffff1660e01b8152600401611d0291906142c0565b60206040518083038186803b158015611d1a57600080fd5b505afa158015611d2e573d6000803e3d6000fd5b505050506040513d601f19601f82011682018060405250810190611d529190613e26565b905060008290507fffffffffffffffffffffffffffffffffffffffffffffffffffffffffffffffff831415611d85578190505b60056000015481600560010154611d9c919061496a565b1015611de05760176040517fede8a599000000000000000000000000000000000000000000000000000000008152600401611dd7919061457c565b60405180910390fd5b600960009054906101000a900473ffffffffffffffffffffffffffffffffffffffff1673ffffffffffffffffffffffffffffffffffffffff16639dc29fac33836040518363ffffffff1660e01b8152600401611e3d9291906144cc565b600060405180830381600087803b158015611e5757600080fd5b505af1158015611e6b573d6000803e3d6000fd5b50505050611ebe303383600860009054906101000a900473ffffffffffffffffffffffffffffffffffffffff1673ffffffffffffffffffffffffffffffffffffffff16612879909392919063ffffffff16565b8060056001016000828254611ed3919061496a565b925050819055503373ffffffffffffffffffffffffffffffffffffffff167f2326675290def598d0fd820ee11f06c58c01b80230ab369044cf0b17dbfdc57f84604051611f2091906146f4565b60405180910390a2505050565b600f5481565b60026000541415611f79576040517f08c379a0000000000000000000000000000000000000000000000000000000008152600401611f7090614679565b60405180910390fd5b6002600081905550611f8e3385858585612ec4565b600160008190555050505050565b611fa5826106bb565b611fb681611fb1612902565b61290a565b611fc08383612a87565b505050565b6002600054141561200b576040517f08c379a000000000000000000000000000000000000000000000000000000000815260040161200290614679565b60405180910390fd5b6002600081905550600073__$90f1fa1b3f91137ac60e95891d324fdd69$__63b142980a836040518263ffffffff1660e01b815260040161204c91906146d9565b60206040518083038186803b15801561206457600080fd5b505af4158015612078573d6000803e3d6000fd5b505050506040513d601f19601f8201168201806040525081019061209c9190613d46565b6120de57600c6040517fede8a5990000000000000000000000000000000000000000000000000000000081526004016120d5919061457c565b60405180910390fd5b600b60009054906101000a900473ffffffffffffffffffffffffffffffffffffffff1673ffffffffffffffffffffffffffffffffffffffff1663806a9f808360026040518363ffffffff1660e01b815260040161213c92919061470f565b60006040518083038186803b15801561215457600080fd5b505afa158015612168573d6000803e3d6000fd5b5050505060006004600084815260200190815260200160002060405180608001604052908160008201548152602001600182015481526020016002820154815260200160038201548152505090508381600001516121c69190614889565b81600001818152505080606001518411156122d85760006005600001546005600101546121f3919061496a565b905080826060015186612206919061496a565b111561224a5760176040517fede8a599000000000000000000000000000000000000000000000000000000008152600401612241919061457c565b60405180910390fd5b8160600151856005600001546122609190614889565b61226a919061496a565b60056000018190555081606001518583604001516122889190614889565b612292919061496a565b82604001818152505081606001518583602001516122b09190614889565b6122ba919061496a565b826020018181525050600082606001818152505060019250506122f2565b8381606001516122e8919061496a565b8160600181815250505b6000600c60009054906101000a900473ffffffffffffffffffffffffffffffffffffffff1673ffffffffffffffffffffffffffffffffffffffff16633b949d9c85846005876040518563ffffffff1660e01b81526004016123569493929190614761565b60206040518083038186803b15801561236e57600080fd5b505afa158015612382573d6000803e3d6000fd5b505050506040513d601f19601f820116820180604052508101906123a69190613e26565b905060006123bd8287612b6990919063ffffffff16565b9050600081876123cd9190614889565b9050600b60009054906101000a900473ffffffffffffffffffffffffffffffffffffffff1673ffffffffffffffffffffffffffffffffffffffff16630ac8f7443033848a6040518563ffffffff1660e01b81526004016124309493929190614487565b600060405180830381600087803b15801561244a57600080fd5b505af115801561245e573d6000803e3d6000fd5b505050508184600001516124729190614889565b846000018181525050836004600088815260200190815260200160002060008201518160000155602082015181600101556040820151816002015560608201518160030155905050600082886124c89190614889565b9050806003600089815260200190815260200160002060003373ffffffffffffffffffffffffffffffffffffffff1673ffffffffffffffffffffffffffffffffffffffff168152602001908152602001600020600082825461252a9190614889565b9250508190555080600f60008282546125439190614889565b9250508190555080601060003373ffffffffffffffffffffffffffffffffffffffff1673ffffffffffffffffffffffffffffffffffffffff16815260200190815260200160002060008282546125999190614889565b925050819055506125ef30338a600860009054906101000a900473ffffffffffffffffffffffffffffffffffffffff1673ffffffffffffffffffffffffffffffffffffffff16612879909392919063ffffffff16565b3373ffffffffffffffffffffffffffffffffffffffff167fee72e8c8b6eca9a0d0d7e3769f539ba283595748fe87a842d8d64d5d825173a889858a604051612639939291906147d0565b60405180910390a250505050505060016000819055505050565b600c60009054906101000a900473ffffffffffffffffffffffffffffffffffffffff1681565b6000801b61268e81612689612902565b61290a565b816007819055505050565b6000811480612732575060008373ffffffffffffffffffffffffffffffffffffffff1663dd62ed3e30856040518363ffffffff1660e01b81526004016126e09291906142db565b60206040518083038186803b1580156126f857600080fd5b505afa15801561270c573d6000803e3d6000fd5b505050506040513d601f19601f820116820180604052508101906127309190613e26565b145b612771576040517f08c379a000000000000000000000000000000000000000000000000000000000815260040161276890614699565b60405180910390fd5b6127f28363095ea7b360e01b84846040516024016127909291906144cc565b604051602081830303815290604052907bffffffffffffffffffffffffffffffffffffffffffffffffffffffff19166020820180517bffffffffffffffffffffffffffffffffffffffffffffffffffffffff83818316178352505050506131c3565b505050565b6060612806848460008561328a565b90509392505050565b60007f01ffc9a7000000000000000000000000000000000000000000000000000000007bffffffffffffffffffffffffffffffffffffffffffffffffffffffff1916827bffffffffffffffffffffffffffffffffffffffffffffffffffffffff1916149050919050565b6128fc846323b872dd60e01b85858560405160240161289a939291906143ef565b604051602081830303815290604052907bffffffffffffffffffffffffffffffffffffffffffffffffffffffff19166020820180517bffffffffffffffffffffffffffffffffffffffffffffffffffffffff83818316178352505050506131c3565b50505050565b600033905090565b6129148282611a0f565b6129a3576129398173ffffffffffffffffffffffffffffffffffffffff16601461339e565b6129478360001c602061339e565b604051602001612958929190614286565b6040516020818303038152906040526040517f08c379a000000000000000000000000000000000000000000000000000000000815260040161299a9190614597565b60405180910390fd5b5050565b6129b18282611a0f565b612a8357600180600084815260200190815260200160002060000160008373ffffffffffffffffffffffffffffffffffffffff1673ffffffffffffffffffffffffffffffffffffffff16815260200190815260200160002060006101000a81548160ff021916908315150217905550612a28612902565b73ffffffffffffffffffffffffffffffffffffffff168173ffffffffffffffffffffffffffffffffffffffff16837f2f8788117e7eff1d82e926ec794901d17c78024a50270940304540a733656f0d60405160405180910390a45b5050565b612a918282611a0f565b15612b655760006001600084815260200190815260200160002060000160008373ffffffffffffffffffffffffffffffffffffffff1673ffffffffffffffffffffffffffffffffffffffff16815260200190815260200160002060006101000a81548160ff021916908315150217905550612b0a612902565b73ffffffffffffffffffffffffffffffffffffffff168173ffffffffffffffffffffffffffffffffffffffff16837ff6391f5c32d9c69d2a47ea670b442974b53935d1edc7fd64eb21e047a839171b60405160405180910390a45b5050565b6000670de0b6b3a76400008284612b809190614910565b612b8a91906148df565b905092915050565b6000600b60009054906101000a900473ffffffffffffffffffffffffffffffffffffffff1673ffffffffffffffffffffffffffffffffffffffff16632c7c0ae83085898989886040518763ffffffff1660e01b8152600401612bf99695949392919061438e565b60006040518083038186803b158015612c1157600080fd5b505afa158015612c25573d6000803e3d6000fd5b50505050612c3586868685613698565b6000600b60009054906101000a900473ffffffffffffffffffffffffffffffffffffffff1673ffffffffffffffffffffffffffffffffffffffff16635efadbd13086886040518463ffffffff1660e01b8152600401612c96939291906143ef565b60206040518083038186803b158015612cae57600080fd5b505afa158015612cc2573d6000803e3d6000fd5b505050506040513d601f19601f82011682018060405250810190612ce69190613e26565b905060008473ffffffffffffffffffffffffffffffffffffffff166355a1ac2e88866040518363ffffffff1660e01b8152600401612d259291906144cc565b604080518083038186803b158015612d3c57600080fd5b505afa158015612d50573d6000803e3d6000fd5b505050506040513d601f19601f82011682018060405250810190612d749190613ec7565b50905081811015612dbd57600a6040517fede8a599000000000000000000000000000000000000000000000000000000008152600401612db4919061457c565b60405180910390fd5b3073ffffffffffffffffffffffffffffffffffffffff168573ffffffffffffffffffffffffffffffffffffffff161415612e0357612dfe3089898588612ec4565b612e75565b8473ffffffffffffffffffffffffffffffffffffffff1663d2c6d0dc898985886040518563ffffffff1660e01b8152600401612e429493929190614487565b600060405180830381600087803b158015612e5c57600080fd5b505af1158015612e70573d6000803e3d6000fd5b505050505b7f9e76a01ba2e51393f58ccc22c0afc9520815e0cc3f301f7b5d7442fcaee9fdc1888888888689604051612eae96959493929190614426565b60405180910390a1859250505095945050505050565b600b60009054906101000a900473ffffffffffffffffffffffffffffffffffffffff1673ffffffffffffffffffffffffffffffffffffffff1663eafe967b308787876040518563ffffffff1660e01b8152600401612f259493929190614349565b60006040518083038186803b158015612f3d57600080fd5b505afa158015612f51573d6000803e3d6000fd5b505050506000612f6c60075484612b6990919063ffffffff16565b905060008184612f7c919061496a565b9050836002600085815260200190815260200160002060008773ffffffffffffffffffffffffffffffffffffffff1673ffffffffffffffffffffffffffffffffffffffff1681526020019081526020016000206000828254612fde919061496a565b9250508190555060006004600085815260200190815260200160002060405180608001604052908160008201548152602001600182015481526020016002820154815260200160038201548152505090508481602001818151613041919061496a565b9150818152505080600460008681526020019081526020016000206000820151816000015560208201518160010155604082015181600201556060820151816003015590505084600d6000828254613099919061496a565b9250508190555084600e60008873ffffffffffffffffffffffffffffffffffffffff1673ffffffffffffffffffffffffffffffffffffffff16815260200190815260200160002060008282546130ef919061496a565b925050819055506131438783600860009054906101000a900473ffffffffffffffffffffffffffffffffffffffff1673ffffffffffffffffffffffffffffffffffffffff16613a249092919063ffffffff16565b7f3a9ce1fec5ebf7e61a4965c55f20ec0a88e791282568d736a19d878223d10d90878787876040516131789493929190614487565b60405180910390a17f77c97459a115e74ba5adced182b076766b1b9825e785d85b5f0f06d444bef21130846040516131b19291906144cc565b60405180910390a15050505050505050565b6000613225826040518060400160405280602081526020017f5361666545524332303a206c6f772d6c6576656c2063616c6c206661696c65648152508573ffffffffffffffffffffffffffffffffffffffff166127f79092919063ffffffff16565b905060008151111561328557808060200190518101906132459190613d46565b613284576040517f08c379a000000000000000000000000000000000000000000000000000000000815260040161327b90614659565b60405180910390fd5b5b505050565b6060824710156132cf576040517f08c379a00000000000000000000000000000000000000000000000000000000081526004016132c6906145d9565b60405180910390fd5b6132d885613aaa565b613317576040517f08c379a000000000000000000000000000000000000000000000000000000000815260040161330e90614619565b60405180910390fd5b6000808673ffffffffffffffffffffffffffffffffffffffff168587604051613340919061426f565b60006040518083038185875af1925050503d806000811461337d576040519150601f19603f3d011682016040523d82523d6000602084013e613382565b606091505b5091509150613392828286613abd565b92505050949350505050565b6060600060028360026133b19190614910565b6133bb9190614889565b67ffffffffffffffff8111156133fa577f4e487b7100000000000000000000000000000000000000000000000000000000600052604160045260246000fd5b6040519080825280601f01601f19166020018201604052801561342c5781602001600182028036833780820191505090505b5090507f30000000000000000000000000000000000000000000000000000000000000008160008151811061348a577f4e487b7100000000000000000000000000000000000000000000000000000000600052603260045260246000fd5b60200101907effffffffffffffffffffffffffffffffffffffffffffffffffffffffffffff1916908160001a9053507f780000000000000000000000000000000000000000000000000000000000000081600181518110613514577f4e487b7100000000000000000000000000000000000000000000000000000000600052603260045260246000fd5b60200101907effffffffffffffffffffffffffffffffffffffffffffffffffffffffffffff1916908160001a905350600060018460026135549190614910565b61355e9190614889565b90505b600181111561364a577f3031323334353637383961626364656600000000000000000000000000000000600f8616601081106135c6577f4e487b7100000000000000000000000000000000000000000000000000000000600052603260045260246000fd5b1a60f81b828281518110613603577f4e487b7100000000000000000000000000000000000000000000000000000000600052603260045260246000fd5b60200101907effffffffffffffffffffffffffffffffffffffffffffffffffffffffffffff1916908160001a905350600485901c94508061364390614b69565b9050613561565b506000841461368e576040517f08c379a0000000000000000000000000000000000000000000000000000000008152600401613685906145b9565b60405180910390fd5b8091505092915050565b60008214156136dc576040517f08c379a00000000000000000000000000000000000000000000000000000000081526004016136d3906145f9565b60405180910390fd5b61372b843084600860009054906101000a900473ffffffffffffffffffffffffffffffffffffffff1673ffffffffffffffffffffffffffffffffffffffff16612879909392919063ffffffff16565b60006003600083815260200190815260200160002060008573ffffffffffffffffffffffffffffffffffffffff1673ffffffffffffffffffffffffffffffffffffffff168152602001908152602001600020549050600061378c8584610ee3565b915050600081838661379e9190614910565b6137a891906148df565b9050600960009054906101000a900473ffffffffffffffffffffffffffffffffffffffff1673ffffffffffffffffffffffffffffffffffffffff16638fa467c482876137f4919061496a565b6040518263ffffffff1660e01b815260040161381091906146f4565b600060405180830381600087803b15801561382a57600080fd5b505af115801561383e573d6000803e3d6000fd5b50505050808361384e919061496a565b6003600086815260200190815260200160002060008873ffffffffffffffffffffffffffffffffffffffff1673ffffffffffffffffffffffffffffffffffffffff16815260200190815260200160002081905550600060046000868152602001908152602001600020604051806080016040529081600082015481526020016001820154815260200160028201548152602001600382015481525050905081816000018181516138fe919061496a565b9150818152505080600460008781526020019081526020016000206000820151816000015560208201518160010155604082015181600201556060820151816003015590505081600f6000828254613956919061496a565b9250508190555081601060008973ffffffffffffffffffffffffffffffffffffffff1673ffffffffffffffffffffffffffffffffffffffff16815260200190815260200160002060008282546139ac919061496a565b925050819055508673ffffffffffffffffffffffffffffffffffffffff168873ffffffffffffffffffffffffffffffffffffffff167f88eb7c2c19b5929301cbabb6e688004a28f396c44a81fdd9ae080360c3ecdef48888604051613a129291906147a7565b60405180910390a35050505050505050565b613aa58363a9059cbb60e01b8484604051602401613a439291906144cc565b604051602081830303815290604052907bffffffffffffffffffffffffffffffffffffffffffffffffffffffff19166020820180517bffffffffffffffffffffffffffffffffffffffffffffffffffffffff83818316178352505050506131c3565b505050565b600080823b905060008111915050919050565b60608315613acd57829050613b1d565b600083511115613ae05782518084602001fd5b816040517f08c379a0000000000000000000000000000000000000000000000000000000008152600401613b149190614597565b60405180910390fd5b9392505050565b600081359050613b3381614f3c565b92915050565b600081359050613b4881614f53565b92915050565b600081519050613b5d81614f6a565b92915050565b600081359050613b7281614f81565b92915050565b600081359050613b8781614f98565b92915050565b600081359050613b9c81614faf565b92915050565b600081359050613bb181614fc6565b92915050565b600081519050613bc681614fc6565b92915050565b600060208284031215613bde57600080fd5b6000613bec84828501613b24565b91505092915050565b600080600060608486031215613c0a57600080fd5b6000613c1886828701613b39565b9350506020613c2986828701613ba2565b9250506040613c3a86828701613ba2565b9150509250925092565b60008060008060808587031215613c5a57600080fd5b6000613c6887828801613b24565b9450506020613c7987828801613b24565b9350506040613c8a87828801613ba2565b9250506060613c9b87828801613ba2565b91505092959194509250565b60008060408385031215613cba57600080fd5b6000613cc885828601613b24565b9250506020613cd985828601613ba2565b9150509250929050565b60008060008060808587031215613cf957600080fd5b6000613d0787828801613b24565b9450506020613d1887828801613ba2565b9350506040613d2987828801613b8d565b9250506060613d3a87828801613ba2565b91505092959194509250565b600060208284031215613d5857600080fd5b6000613d6684828501613b4e565b91505092915050565b600060208284031215613d8157600080fd5b6000613d8f84828501613b63565b91505092915050565b60008060408385031215613dab57600080fd5b6000613db985828601613b63565b9250506020613dca85828601613b24565b9150509250929050565b600060208284031215613de657600080fd5b6000613df484828501613b78565b91505092915050565b600060208284031215613e0f57600080fd5b6000613e1d84828501613ba2565b91505092915050565b600060208284031215613e3857600080fd5b6000613e4684828501613bb7565b91505092915050565b60008060408385031215613e6257600080fd5b6000613e7085828601613ba2565b9250506020613e8185828601613b24565b9150509250929050565b60008060408385031215613e9e57600080fd5b6000613eac85828601613ba2565b9250506020613ebd85828601613ba2565b9150509250929050565b60008060408385031215613eda57600080fd5b6000613ee885828601613bb7565b9250506020613ef985828601613bb7565b9150509250929050565b613f0c81614a70565b82525050565b613f1b816149a8565b82525050565b613f2a816149cc565b82525050565b613f39816149d8565b82525050565b6000613f4a8261484c565b613f548185614862565b9350613f64818560208601614b36565b80840191505092915050565b613f7981614a82565b82525050565b613f8881614aa6565b82525050565b613f9781614aca565b82525050565b613fa681614aee565b82525050565b613fb581614b00565b82525050565b6000613fc682614857565b613fd0818561486d565b9350613fe0818560208601614b36565b613fe981614c9b565b840191505092915050565b6000613fff82614857565b614009818561487e565b9350614019818560208601614b36565b80840191505092915050565b600061403260208361486d565b915061403d82614cb9565b602082019050919050565b600061405560268361486d565b915061406082614ce2565b604082019050919050565b600061407860148361486d565b915061408382614d31565b602082019050919050565b600061409b601d8361486d565b91506140a682614d5a565b602082019050919050565b60006140be60148361486d565b91506140c982614d83565b602082019050919050565b60006140e160178361487e565b91506140ec82614dac565b601782019050919050565b6000614104602a8361486d565b915061410f82614dd5565b604082019050919050565b6000614127601f8361486d565b915061413282614e24565b602082019050919050565b600061414a60368361486d565b915061415582614e4d565b604082019050919050565b600061416d60118361487e565b915061417882614e9c565b601182019050919050565b6000614190602f8361486d565b915061419b82614ec5565b604082019050919050565b6080820160008201516141bc6000850182614242565b5060208201516141cf6020850182614242565b5060408201516141e26040850182614242565b5060608201516141f56060850182614242565b50505050565b60408201600080830154905061421081614bc5565b61421d6000860182614242565b506001830154905061422e81614bc5565b61423b6020860182614242565b5050505050565b61424b81614a66565b82525050565b61425a81614a66565b82525050565b61426981614a66565b82525050565b600061427b8284613f3f565b915081905092915050565b6000614291826140d4565b915061429d8285613ff4565b91506142a882614160565b91506142b48284613ff4565b91508190509392505050565b60006020820190506142d56000830184613f12565b92915050565b60006040820190506142f06000830185613f12565b6142fd6020830184613f12565b9392505050565b60006080820190506143196000830187613f12565b6143266020830186613f03565b6143336040830185614251565b6143406060830184614251565b95945050505050565b600060808201905061435e6000830187613f12565b61436b6020830186613f12565b6143786040830185613f12565b6143856060830184613f12565b95945050505050565b600060c0820190506143a36000830189613f12565b6143b06020830188613f12565b6143bd6040830187613f12565b6143ca6060830186613f12565b6143d76080830185614251565b6143e460a0830184614251565b979650505050505050565b60006060820190506144046000830186613f12565b6144116020830185613f12565b61441e6040830184614251565b949350505050565b600060c08201905061443b6000830189613f12565b6144486020830188613f12565b6144556040830187614251565b6144626060830186613f12565b61446f6080830185614251565b61447c60a0830184614251565b979650505050505050565b600060808201905061449c6000830187613f12565b6144a96020830186613f12565b6144b66040830185614251565b6144c36060830184614251565b95945050505050565b60006040820190506144e16000830185613f12565b6144ee6020830184614251565b9392505050565b600060208201905061450a6000830184613f21565b92915050565b60006020820190506145256000830184613f30565b92915050565b60006020820190506145406000830184613f70565b92915050565b600060208201905061455b6000830184613f7f565b92915050565b60006020820190506145766000830184613f8e565b92915050565b60006020820190506145916000830184613f9d565b92915050565b600060208201905081810360008301526145b18184613fbb565b905092915050565b600060208201905081810360008301526145d281614025565b9050919050565b600060208201905081810360008301526145f281614048565b9050919050565b600060208201905081810360008301526146128161406b565b9050919050565b600060208201905081810360008301526146328161408e565b9050919050565b60006020820190508181036000830152614652816140b1565b9050919050565b60006020820190508181036000830152614672816140f7565b9050919050565b600060208201905081810360008301526146928161411a565b9050919050565b600060208201905081810360008301526146b28161413d565b9050919050565b600060208201905081810360008301526146d281614183565b9050919050565b60006020820190506146ee6000830184614260565b92915050565b60006020820190506147096000830184614251565b92915050565b60006040820190506147246000830185614251565b6147316020830184613fac565b9392505050565b600060a08201905061474d6000830185614251565b61475a60208301846141a6565b9392505050565b6000610100820190506147776000830187614251565b61478460208301866141a6565b61479160a08301856141fb565b61479e60e0830184613f21565b95945050505050565b60006040820190506147bc6000830185614251565b6147c96020830184614251565b9392505050565b60006060820190506147e56000830186614251565b6147f26020830185614251565b6147ff6040830184614251565b949350505050565b600060808201905061481c6000830187614251565b6148296020830186614251565b6148366040830185614251565b6148436060830184614251565b95945050505050565b600081519050919050565b600081519050919050565b600081905092915050565b600082825260208201905092915050565b600081905092915050565b600061489482614a66565b915061489f83614a66565b9250827fffffffffffffffffffffffffffffffffffffffffffffffffffffffffffffffff038211156148d4576148d3614bdf565b5b828201905092915050565b60006148ea82614a66565b91506148f583614a66565b92508261490557614904614c0e565b5b828204905092915050565b600061491b82614a66565b915061492683614a66565b9250817fffffffffffffffffffffffffffffffffffffffffffffffffffffffffffffffff048311821515161561495f5761495e614bdf565b5b828202905092915050565b600061497582614a66565b915061498083614a66565b92508282101561499357614992614bdf565b5b828203905092915050565b6000819050919050565b60006149b382614a46565b9050919050565b60006149c582614a46565b9050919050565b60008115159050919050565b6000819050919050565b60007fffffffff0000000000000000000000000000000000000000000000000000000082169050919050565b6000614a19826149a8565b9050919050565b6000819050614a2e82614f14565b919050565b6000819050614a4182614f28565b919050565b600073ffffffffffffffffffffffffffffffffffffffff82169050919050565b6000819050919050565b6000614a7b82614b12565b9050919050565b6000614a8d82614a94565b9050919050565b6000614a9f82614a46565b9050919050565b6000614ab182614ab8565b9050919050565b6000614ac382614a46565b9050919050565b6000614ad582614adc565b9050919050565b6000614ae782614a46565b9050919050565b6000614af982614a20565b9050919050565b6000614b0b82614a33565b9050919050565b6000614b1d82614b24565b9050919050565b6000614b2f82614a46565b9050919050565b60005b83811015614b54578082015181840152602081019050614b39565b83811115614b63576000848401525b50505050565b6000614b7482614a66565b91506000821415614b8857614b87614bdf565b5b600182039050919050565b60006002820490506001821680614bab57607f821691505b60208210811415614bbf57614bbe614c6c565b5b50919050565b6000614bd8614bd383614cac565b61499e565b9050919050565b7f4e487b7100000000000000000000000000000000000000000000000000000000600052601160045260246000fd5b7f4e487b7100000000000000000000000000000000000000000000000000000000600052601260045260246000fd5b7f4e487b7100000000000000000000000000000000000000000000000000000000600052602160045260246000fd5b7f4e487b7100000000000000000000000000000000000000000000000000000000600052602260045260246000fd5b6000601f19601f8301169050919050565b60008160001c9050919050565b7f537472696e67733a20686578206c656e67746820696e73756666696369656e74600082015250565b7f416464726573733a20696e73756666696369656e742062616c616e636520666f60008201527f722063616c6c0000000000000000000000000000000000000000000000000000602082015250565b7f596f752063616e2774207265706179207a65726f000000000000000000000000600082015250565b7f416464726573733a2063616c6c20746f206e6f6e2d636f6e7472616374000000600082015250565b7f4e6f7420656e6f756768206c6971756964697479000000000000000000000000600082015250565b7f416363657373436f6e74726f6c3a206163636f756e7420000000000000000000600082015250565b7f5361666545524332303a204552433230206f7065726174696f6e20646964206e60008201527f6f74207375636365656400000000000000000000000000000000000000000000602082015250565b7f5265656e7472616e637947756172643a207265656e7472616e742063616c6c00600082015250565b7f5361666545524332303a20617070726f76652066726f6d206e6f6e2d7a65726f60008201527f20746f206e6f6e2d7a65726f20616c6c6f77616e636500000000000000000000602082015250565b7f206973206d697373696e6720726f6c6520000000000000000000000000000000600082015250565b7f416363657373436f6e74726f6c3a2063616e206f6e6c792072656e6f756e636560008201527f20726f6c657320666f722073656c660000000000000000000000000000000000602082015250565b60188110614f2557614f24614c3d565b5b50565b60048110614f3957614f38614c3d565b5b50565b614f45816149a8565b8114614f5057600080fd5b50565b614f5c816149ba565b8114614f6757600080fd5b50565b614f73816149cc565b8114614f7e57600080fd5b50565b614f8a816149d8565b8114614f9557600080fd5b50565b614fa1816149e2565b8114614fac57600080fd5b50565b614fb881614a0e565b8114614fc357600080fd5b50565b614fcf81614a66565b8114614fda57600080fd5b5056fea2646970667358221220ae3c5a09a32e39ec21a3b1ad497b0d2f59a7a85ba19bab0cf07b111d4c2156ae64736f6c63430008040033",
  "libraries": {
    "TSUtils": "0xf6780c6eCFbF39CE58ac293dC2F00da27c91df4E"
  },
  "devdoc": {
    "events": {
      "AddReserves(address,uint256)": {
        "params": {
          "addAmount": "amount added as reserves as part of the liquidation event",
          "benefactor": "address added a certain amount to its reserves"
        }
      },
      "BorrowFromMaturityPool(address,uint256,uint256,uint256)": {
        "params": {
          "amount": "of the asset that it was borrowed",
          "commission": "is the amount extra that it will need to be paid at                   maturity",
          "maturityDate": "dateID/poolID/maturity in which the user will have                     to repay the loan",
          "to": "address which borrowed the asset"
        }
      },
      "DepositToMaturityPool(address,uint256,uint256,uint256)": {
        "params": {
          "amount": "of the asset that it was deposited",
          "commission": "is the amount extra that it will be collected at maturity",
          "from": "address which deposited the asset",
          "maturityDate": "dateID/poolID/maturity in which the user will be able                     to collect his deposit + his commission"
        }
      },
      "DepositToSmartPool(address,uint256)": {
        "params": {
          "amount": "amount added to the smart pool",
          "user": "address that added a certain amount to the smart pool"
        }
      },
      "LiquidateBorrow(address,address,uint256,address,uint256,uint256)": {
        "params": {
          "borrower": "address which had the original debt",
          "fixedLenderCollateral": "address of the asset that it was seized                              by the liquidator",
          "liquidator": "address which repaid the previously borrowed amount",
          "maturityDate": "poolID where the borrower had an uncollaterized position",
          "repayAmount": "amount of the asset that it was repaid",
          "seizedAmount": "amount seized of the collateral"
        }
      },
      "RepayToMaturityPool(address,address,uint256,uint256,uint256)": {
        "params": {
          "amountBorrowed": "of the asset that it was repaid",
          "borrower": "address which had the original debt",
          "maturityDate": "poolID where the user repaid its borrowed amounts",
          "payer": "address which repaid the previously borrowed amount",
          "penalty": "amount paid for penalties"
        }
      },
      "RepayToMaturityPoolLiquidate(address,address,uint256,uint256)": {
        "params": {
          "borrower": "address which had the original debt",
          "maturityDate": "poolID where the user repaid its borrowed amounts",
          "payer": "address which repaid the previously borrowed amount",
          "repayAmount": "amount paid by the liquidator"
        }
      },
      "SeizeAsset(address,address,uint256,uint256)": {
        "params": {
          "borrower": "address which had the original debt",
          "liquidator": "address which seized this collateral",
          "maturityDate": "poolID where the borrower lost the amount of collateral",
          "seizedAmount": "amount seized of the collateral"
        }
      },
      "WithdrawFromMaturityPool(address,uint256,uint256)": {
        "params": {
          "amount": "of the asset that it was deposited",
          "from": "address which will be collecting the asset",
          "maturityDate": "poolID where the user collected its deposits"
        }
      },
      "WithdrawFromSmartPool(address,uint256)": {
        "params": {
          "amount": "amount withdrawn to the smart pool",
          "user": "address that withdrew a certain amount from the smart pool"
        }
      }
    },
    "kind": "dev",
    "methods": {
      "borrowFromMaturityPool(uint256,uint256)": {
        "details": "Lends to a wallet for a certain maturity date/pool",
        "params": {
          "amount": "amount to send to the msg.sender",
          "maturityDate": "maturity date for repayment"
        }
      },
      "depositToMaturityPool(uint256,uint256)": {
        "details": "Deposits a certain amount to the protocol for      a certain maturity date/pool",
        "params": {
          "amount": "amount to receive from the msg.sender",
          "maturityDate": "maturity date / pool ID"
        }
      },
      "depositToSmartPool(uint256)": {
        "details": "Deposits an `amount` of underlying asset into the smart pool, receiving in return overlying eTokens. - E.g. User deposits 100 USDC and gets in return 100 eUSDC",
        "params": {
          "amount": "The amount to be deposited"
        }
      },
      "getAccountSnapshot(address,uint256)": {
        "details": "Gets current snapshot for a wallet in a certain maturity",
        "params": {
          "maturityDate": "maturity date",
          "who": "wallet to return status snapshot in the specified maturity date"
        }
      },
      "getAuditor()": {
        "details": "Gets the auditor contract interface being used to validate positions"
      },
      "getRoleAdmin(bytes32)": {
        "details": "Returns the admin role that controls `role`. See {grantRole} and {revokeRole}. To change a role's admin, use {_setRoleAdmin}."
      },
      "getTotalMpBorrows(uint256)": {
        "details": "Gets the total amount of borrowed money for a maturityDate",
        "params": {
          "maturityDate": "maturity date"
        }
      },
      "grantRole(bytes32,address)": {
        "details": "Grants `role` to `account`. If `account` had not been already granted `role`, emits a {RoleGranted} event. Requirements: - the caller must have ``role``'s admin role."
      },
      "hasRole(bytes32,address)": {
        "details": "Returns `true` if `account` has been granted `role`."
      },
      "liquidate(address,uint256,address,uint256)": {
        "details": "Msg.sender liquidates a borrower's position and repays a certain amount of collateral      for a maturity date, seizing a part of borrower's collateral",
        "params": {
          "borrower": "wallet that has an outstanding debt for a certain maturity date",
          "fixedLenderCollateral": "address of fixedLender from which the collateral will be seized to give the liquidator",
          "maturityDate": "maturity date for which the position will be liquidated",
          "repayAmount": "amount to be repaid by liquidator(msg.sender)"
        }
      },
      "renounceRole(bytes32,address)": {
        "details": "Revokes `role` from the calling account. Roles are often managed via {grantRole} and {revokeRole}: this function's purpose is to provide a mechanism for accounts to lose their privileges if they are compromised (such as when a trusted device is misplaced). If the calling account had been granted `role`, emits a {RoleRevoked} event. Requirements: - the caller must be `account`."
      },
      "repayToMaturityPool(address,uint256)": {
        "details": "The pool that the user is trying to repay to should be matured",
        "params": {
          "borrower": "The address of the account that has the debt",
          "maturityDate": "The matured date where the debt is located"
        }
      },
      "revokeRole(bytes32,address)": {
        "details": "Revokes `role` from `account`. If `account` had been granted `role`, emits a {RoleRevoked} event. Requirements: - the caller must have ``role``'s admin role."
      },
      "seize(address,address,uint256,uint256)": {
        "details": "Public function for liquidator to seize borrowers tokens in a certain maturity date.      This function will only be called from another FixedLender, on `liquidation` calls.      That's why msg.sender needs to be passed to the private function (to be validated as a market)",
        "params": {
          "borrower": "address from which the tokens will be seized",
          "liquidator": "address which will receive the seized tokens",
          "maturityDate": "maturity date from where the tokens will be removed. Used to remove liquidity.",
          "seizeAmount": "amount to be removed from borrower's posession"
        }
      },
      "setLiquidationFee(uint256)": {
        "details": "Sets the protocol's liquidation fee for the underlying asset of this fixedLender",
        "params": {
          "_liquidationFee": "fee that the protocol earns when position is liquidated"
        }
      },
      "supportsInterface(bytes4)": {
        "details": "See {IERC165-supportsInterface}."
      },
      "withdrawFromMaturityPool(address,uint256,uint256)": {
        "details": "The pool that the user is trying to retrieve the money should be matured",
        "params": {
          "maturityDate": "The matured date for which we're trying to retrieve the funds",
          "redeemAmount": "The number of underlying tokens to receive",
          "redeemer": "The address of the account which is redeeming the tokens"
        }
      },
      "withdrawFromSmartPool(uint256)": {
        "details": "Withdraws an `amount` of underlying asset from the smart pool, burning the equivalent eTokens owned - E.g. User has 100 eUSDC, calls withdraw() and receives 100 USDC, burning the 100 eUSDC",
        "params": {
          "amount": "The underlying amount to be withdrawn - Send the value type(uint256).max in order to withdraw the whole eToken balance"
        }
      }
    },
    "version": 1
  },
  "userdoc": {
    "events": {
      "AddReserves(address,uint256)": {
        "notice": "Event emitted reserves have been added to the protocol"
      },
      "BorrowFromMaturityPool(address,uint256,uint256,uint256)": {
        "notice": "Event emitted when a user borrows amount of an asset from a         certain maturity date"
      },
      "DepositToMaturityPool(address,uint256,uint256,uint256)": {
        "notice": "Event emitted when a user deposits an amount of an asset to a         certain maturity date collecting a commission at the end of the         period"
      },
      "DepositToSmartPool(address,uint256)": {
        "notice": "Event emitted when a user contributed to the smart pool"
      },
      "LiquidateBorrow(address,address,uint256,address,uint256,uint256)": {
        "notice": "Event emitted when a user's position had a liquidation"
      },
      "RepayToMaturityPool(address,address,uint256,uint256,uint256)": {
        "notice": "Event emitted when a user repays its borrows after maturity"
      },
      "RepayToMaturityPoolLiquidate(address,address,uint256,uint256)": {
        "notice": "Event emitted when a liquidator repays a debt in a liquidation"
      },
      "SeizeAsset(address,address,uint256,uint256)": {
        "notice": "Event emitted when a user's collateral has been seized"
      },
      "WithdrawFromMaturityPool(address,uint256,uint256)": {
        "notice": "Event emitted when a user collects its deposits after maturity"
      },
      "WithdrawFromSmartPool(address,uint256)": {
        "notice": "Event emitted when a user contributed to the smart pool"
      }
    },
    "kind": "user",
    "methods": {
      "liquidate(address,uint256,address,uint256)": {
        "notice": "Function to liquidate an uncollaterized position"
      },
      "repayToMaturityPool(address,uint256)": {
        "notice": "Sender repays borrower's debt for a maturity date"
      },
      "seize(address,address,uint256,uint256)": {
        "notice": "Public function to seize a certain amount of tokens"
      },
      "withdrawFromMaturityPool(address,uint256,uint256)": {
        "notice": "User collects a certain amount of underlying asset after having         supplied tokens until a certain maturity date"
      }
    },
    "version": 1
  },
  "storageLayout": {
    "storage": [
      {
        "astId": 390,
        "contract": "contracts/FixedLender.sol:FixedLender",
        "label": "_status",
        "offset": 0,
        "slot": "0",
        "type": "t_uint256"
      },
      {
        "astId": 24,
        "contract": "contracts/FixedLender.sol:FixedLender",
        "label": "_roles",
        "offset": 0,
        "slot": "1",
        "type": "t_mapping(t_bytes32,t_struct(RoleData)19_storage)"
      },
      {
        "astId": 6111,
        "contract": "contracts/FixedLender.sol:FixedLender",
        "label": "mpUserSuppliedAmount",
        "offset": 0,
        "slot": "2",
        "type": "t_mapping(t_uint256,t_mapping(t_address,t_uint256))"
      },
      {
        "astId": 6117,
        "contract": "contracts/FixedLender.sol:FixedLender",
        "label": "mpUserBorrowedAmount",
        "offset": 0,
        "slot": "3",
        "type": "t_mapping(t_uint256,t_mapping(t_address,t_uint256))"
      },
      {
        "astId": 6122,
        "contract": "contracts/FixedLender.sol:FixedLender",
        "label": "maturityPools",
        "offset": 0,
        "slot": "4",
        "type": "t_mapping(t_uint256,t_struct(MaturityPool)11412_storage)"
      },
      {
        "astId": 6125,
        "contract": "contracts/FixedLender.sol:FixedLender",
        "label": "smartPool",
        "offset": 0,
        "slot": "5",
        "type": "t_struct(SmartPool)11417_storage"
      },
      {
        "astId": 6128,
        "contract": "contracts/FixedLender.sol:FixedLender",
        "label": "liquidationFee",
        "offset": 0,
        "slot": "7",
        "type": "t_uint256"
      },
      {
        "astId": 6131,
        "contract": "contracts/FixedLender.sol:FixedLender",
        "label": "trustedUnderlying",
        "offset": 0,
        "slot": "8",
        "type": "t_contract(IERC20)1043"
      },
      {
        "astId": 6135,
        "contract": "contracts/FixedLender.sol:FixedLender",
        "label": "eToken",
        "offset": 0,
        "slot": "9",
        "type": "t_contract(IEToken)9082"
      },
      {
        "astId": 6138,
        "contract": "contracts/FixedLender.sol:FixedLender",
        "label": "underlyingTokenName",
        "offset": 0,
        "slot": "10",
        "type": "t_string_storage"
      },
      {
        "astId": 6141,
        "contract": "contracts/FixedLender.sol:FixedLender",
        "label": "auditor",
        "offset": 0,
        "slot": "11",
        "type": "t_contract(IAuditor)9019"
      },
      {
        "astId": 6144,
        "contract": "contracts/FixedLender.sol:FixedLender",
        "label": "interestRateModel",
        "offset": 0,
        "slot": "12",
        "type": "t_contract(IInterestRateModel)9245"
      },
      {
        "astId": 6147,
        "contract": "contracts/FixedLender.sol:FixedLender",
        "label": "totalMpDeposits",
        "offset": 0,
        "slot": "13",
        "type": "t_uint256"
      },
      {
        "astId": 6152,
        "contract": "contracts/FixedLender.sol:FixedLender",
        "label": "totalMpDepositsUser",
        "offset": 0,
        "slot": "14",
        "type": "t_mapping(t_address,t_uint256)"
      },
      {
        "astId": 6155,
        "contract": "contracts/FixedLender.sol:FixedLender",
        "label": "totalMpBorrows",
        "offset": 0,
        "slot": "15",
        "type": "t_uint256"
      },
      {
        "astId": 6160,
        "contract": "contracts/FixedLender.sol:FixedLender",
        "label": "totalMpBorrowsUser",
        "offset": 0,
        "slot": "16",
        "type": "t_mapping(t_address,t_uint256)"
      }
    ],
    "types": {
      "t_address": {
        "encoding": "inplace",
        "label": "address",
        "numberOfBytes": "20"
      },
      "t_bool": {
        "encoding": "inplace",
        "label": "bool",
        "numberOfBytes": "1"
      },
      "t_bytes32": {
        "encoding": "inplace",
        "label": "bytes32",
        "numberOfBytes": "32"
      },
      "t_contract(IAuditor)9019": {
        "encoding": "inplace",
        "label": "contract IAuditor",
        "numberOfBytes": "20"
      },
      "t_contract(IERC20)1043": {
        "encoding": "inplace",
        "label": "contract IERC20",
        "numberOfBytes": "20"
      },
      "t_contract(IEToken)9082": {
        "encoding": "inplace",
        "label": "contract IEToken",
        "numberOfBytes": "20"
      },
      "t_contract(IInterestRateModel)9245": {
        "encoding": "inplace",
        "label": "contract IInterestRateModel",
        "numberOfBytes": "20"
      },
      "t_mapping(t_address,t_bool)": {
        "encoding": "mapping",
        "key": "t_address",
        "label": "mapping(address => bool)",
        "numberOfBytes": "32",
        "value": "t_bool"
      },
      "t_mapping(t_address,t_uint256)": {
        "encoding": "mapping",
        "key": "t_address",
        "label": "mapping(address => uint256)",
        "numberOfBytes": "32",
        "value": "t_uint256"
      },
      "t_mapping(t_bytes32,t_struct(RoleData)19_storage)": {
        "encoding": "mapping",
        "key": "t_bytes32",
        "label": "mapping(bytes32 => struct AccessControl.RoleData)",
        "numberOfBytes": "32",
        "value": "t_struct(RoleData)19_storage"
      },
      "t_mapping(t_uint256,t_mapping(t_address,t_uint256))": {
        "encoding": "mapping",
        "key": "t_uint256",
        "label": "mapping(uint256 => mapping(address => uint256))",
        "numberOfBytes": "32",
        "value": "t_mapping(t_address,t_uint256)"
      },
      "t_mapping(t_uint256,t_struct(MaturityPool)11412_storage)": {
        "encoding": "mapping",
        "key": "t_uint256",
        "label": "mapping(uint256 => struct PoolLib.MaturityPool)",
        "numberOfBytes": "32",
        "value": "t_struct(MaturityPool)11412_storage"
      },
      "t_string_storage": {
        "encoding": "bytes",
        "label": "string",
        "numberOfBytes": "32"
      },
      "t_struct(MaturityPool)11412_storage": {
        "encoding": "inplace",
        "label": "struct PoolLib.MaturityPool",
        "members": [
          {
            "astId": 11405,
            "contract": "contracts/FixedLender.sol:FixedLender",
            "label": "borrowed",
            "offset": 0,
            "slot": "0",
            "type": "t_uint256"
          },
          {
            "astId": 11407,
            "contract": "contracts/FixedLender.sol:FixedLender",
            "label": "supplied",
            "offset": 0,
            "slot": "1",
            "type": "t_uint256"
          },
          {
            "astId": 11409,
            "contract": "contracts/FixedLender.sol:FixedLender",
            "label": "debt",
            "offset": 0,
            "slot": "2",
            "type": "t_uint256"
          },
          {
            "astId": 11411,
            "contract": "contracts/FixedLender.sol:FixedLender",
            "label": "available",
            "offset": 0,
            "slot": "3",
            "type": "t_uint256"
          }
        ],
        "numberOfBytes": "128"
      },
      "t_struct(RoleData)19_storage": {
        "encoding": "inplace",
        "label": "struct AccessControl.RoleData",
        "members": [
          {
            "astId": 16,
            "contract": "contracts/FixedLender.sol:FixedLender",
            "label": "members",
            "offset": 0,
            "slot": "0",
            "type": "t_mapping(t_address,t_bool)"
          },
          {
            "astId": 18,
            "contract": "contracts/FixedLender.sol:FixedLender",
            "label": "adminRole",
            "offset": 0,
            "slot": "1",
            "type": "t_bytes32"
          }
        ],
        "numberOfBytes": "64"
      },
      "t_struct(SmartPool)11417_storage": {
        "encoding": "inplace",
        "label": "struct PoolLib.SmartPool",
        "members": [
          {
            "astId": 11414,
            "contract": "contracts/FixedLender.sol:FixedLender",
            "label": "borrowed",
            "offset": 0,
            "slot": "0",
            "type": "t_uint256"
          },
          {
            "astId": 11416,
            "contract": "contracts/FixedLender.sol:FixedLender",
            "label": "supplied",
            "offset": 0,
            "slot": "1",
            "type": "t_uint256"
          }
        ],
        "numberOfBytes": "64"
      },
      "t_uint256": {
        "encoding": "inplace",
        "label": "uint256",
        "numberOfBytes": "32"
      }
    }
  }
}