{
  "address": "0xfdD353090EEb947bC6d75570F8B1288b9fe032aD",
  "abi": [
    {
      "inputs": [
        {
          "internalType": "uint256",
          "name": "_mpSlopeRate",
          "type": "uint256"
        },
        {
          "internalType": "uint256",
          "name": "_spSlopeRate",
          "type": "uint256"
        },
        {
          "internalType": "uint256",
          "name": "_spHighURSlopeRate",
          "type": "uint256"
        },
        {
          "internalType": "uint256",
          "name": "_slopeChangeRate",
          "type": "uint256"
        },
        {
          "internalType": "uint256",
          "name": "_baseRate",
          "type": "uint256"
        },
        {
          "internalType": "uint256",
          "name": "_penaltyRate",
          "type": "uint256"
        }
      ],
      "stateMutability": "nonpayable",
      "type": "constructor"
    },
    {
      "inputs": [
        {
          "internalType": "enum ErrorCode",
          "name": "error",
          "type": "uint8"
        }
      ],
      "name": "GenericError",
      "type": "error"
    },
    {
      "anonymous": false,
      "inputs": [
        {
          "indexed": true,
          "internalType": "bytes32",
          "name": "role",
          "type": "bytes32"
        },
        {
          "indexed": true,
          "internalType": "bytes32",
          "name": "previousAdminRole",
          "type": "bytes32"
        },
        {
          "indexed": true,
          "internalType": "bytes32",
          "name": "newAdminRole",
          "type": "bytes32"
        }
      ],
      "name": "RoleAdminChanged",
      "type": "event"
    },
    {
      "anonymous": false,
      "inputs": [
        {
          "indexed": true,
          "internalType": "bytes32",
          "name": "role",
          "type": "bytes32"
        },
        {
          "indexed": true,
          "internalType": "address",
          "name": "account",
          "type": "address"
        },
        {
          "indexed": true,
          "internalType": "address",
          "name": "sender",
          "type": "address"
        }
      ],
      "name": "RoleGranted",
      "type": "event"
    },
    {
      "anonymous": false,
      "inputs": [
        {
          "indexed": true,
          "internalType": "bytes32",
          "name": "role",
          "type": "bytes32"
        },
        {
          "indexed": true,
          "internalType": "address",
          "name": "account",
          "type": "address"
        },
        {
          "indexed": true,
          "internalType": "address",
          "name": "sender",
          "type": "address"
        }
      ],
      "name": "RoleRevoked",
      "type": "event"
    },
    {
      "inputs": [],
      "name": "DEFAULT_ADMIN_ROLE",
      "outputs": [
        {
          "internalType": "bytes32",
          "name": "",
          "type": "bytes32"
        }
      ],
      "stateMutability": "view",
      "type": "function"
    },
    {
      "inputs": [],
      "name": "baseRate",
      "outputs": [
        {
          "internalType": "uint256",
          "name": "",
          "type": "uint256"
        }
      ],
      "stateMutability": "view",
      "type": "function"
    },
    {
      "inputs": [
        {
          "internalType": "uint256",
          "name": "maturityDate",
          "type": "uint256"
        },
        {
          "components": [
            {
              "internalType": "uint256",
              "name": "borrowed",
              "type": "uint256"
            },
            {
              "internalType": "uint256",
              "name": "supplied",
              "type": "uint256"
            },
            {
              "internalType": "uint256",
              "name": "debt",
              "type": "uint256"
            },
            {
              "internalType": "uint256",
              "name": "available",
              "type": "uint256"
            }
          ],
          "internalType": "struct PoolLib.MaturityPool",
          "name": "maturityPool",
          "type": "tuple"
        },
        {
          "components": [
            {
              "internalType": "uint256",
              "name": "borrowed",
              "type": "uint256"
            },
            {
              "internalType": "uint256",
              "name": "supplied",
              "type": "uint256"
            }
          ],
          "internalType": "struct PoolLib.SmartPool",
          "name": "smartPool",
          "type": "tuple"
        },
        {
          "internalType": "bool",
          "name": "newDebt",
          "type": "bool"
        }
      ],
      "name": "getRateToBorrow",
      "outputs": [
        {
          "internalType": "uint256",
          "name": "",
          "type": "uint256"
        }
      ],
      "stateMutability": "view",
      "type": "function"
    },
    {
      "inputs": [
        {
          "internalType": "uint256",
          "name": "maturityDate",
          "type": "uint256"
        },
        {
          "components": [
            {
              "internalType": "uint256",
              "name": "borrowed",
              "type": "uint256"
            },
            {
              "internalType": "uint256",
              "name": "supplied",
              "type": "uint256"
            },
            {
              "internalType": "uint256",
              "name": "debt",
              "type": "uint256"
            },
            {
              "internalType": "uint256",
              "name": "available",
              "type": "uint256"
            }
          ],
          "internalType": "struct PoolLib.MaturityPool",
          "name": "maturityPool",
          "type": "tuple"
        }
      ],
      "name": "getRateToSupply",
      "outputs": [
        {
          "internalType": "uint256",
          "name": "",
          "type": "uint256"
        }
      ],
      "stateMutability": "view",
      "type": "function"
    },
    {
      "inputs": [
        {
          "internalType": "bytes32",
          "name": "role",
          "type": "bytes32"
        }
      ],
      "name": "getRoleAdmin",
      "outputs": [
        {
          "internalType": "bytes32",
          "name": "",
          "type": "bytes32"
        }
      ],
      "stateMutability": "view",
      "type": "function"
    },
    {
      "inputs": [
        {
          "internalType": "bytes32",
          "name": "role",
          "type": "bytes32"
        },
        {
          "internalType": "address",
          "name": "account",
          "type": "address"
        }
      ],
      "name": "grantRole",
      "outputs": [],
      "stateMutability": "nonpayable",
      "type": "function"
    },
    {
      "inputs": [
        {
          "internalType": "bytes32",
          "name": "role",
          "type": "bytes32"
        },
        {
          "internalType": "address",
          "name": "account",
          "type": "address"
        }
      ],
      "name": "hasRole",
      "outputs": [
        {
          "internalType": "bool",
          "name": "",
          "type": "bool"
        }
      ],
      "stateMutability": "view",
      "type": "function"
    },
    {
      "inputs": [],
      "name": "mpSlopeRate",
      "outputs": [
        {
          "internalType": "uint256",
          "name": "",
          "type": "uint256"
        }
      ],
      "stateMutability": "view",
      "type": "function"
    },
    {
      "inputs": [],
      "name": "penaltyRate",
      "outputs": [
        {
          "internalType": "uint256",
          "name": "",
          "type": "uint256"
        }
      ],
      "stateMutability": "view",
      "type": "function"
    },
    {
      "inputs": [
        {
          "internalType": "bytes32",
          "name": "role",
          "type": "bytes32"
        },
        {
          "internalType": "address",
          "name": "account",
          "type": "address"
        }
      ],
      "name": "renounceRole",
      "outputs": [],
      "stateMutability": "nonpayable",
      "type": "function"
    },
    {
      "inputs": [
        {
          "internalType": "bytes32",
          "name": "role",
          "type": "bytes32"
        },
        {
          "internalType": "address",
          "name": "account",
          "type": "address"
        }
      ],
      "name": "revokeRole",
      "outputs": [],
      "stateMutability": "nonpayable",
      "type": "function"
    },
    {
      "inputs": [
        {
          "internalType": "uint256",
          "name": "_mpSlopeRate",
          "type": "uint256"
        },
        {
          "internalType": "uint256",
          "name": "_spSlopeRate",
          "type": "uint256"
        },
        {
          "internalType": "uint256",
          "name": "_spHighURSlopeRate",
          "type": "uint256"
        },
        {
          "internalType": "uint256",
          "name": "_slopeChangeRate",
          "type": "uint256"
        },
        {
          "internalType": "uint256",
          "name": "_baseRate",
          "type": "uint256"
        },
        {
          "internalType": "uint256",
          "name": "_penaltyRate",
          "type": "uint256"
        }
      ],
      "name": "setParameters",
      "outputs": [],
      "stateMutability": "nonpayable",
      "type": "function"
    },
    {
      "inputs": [],
      "name": "slopeChangeRate",
      "outputs": [
        {
          "internalType": "uint256",
          "name": "",
          "type": "uint256"
        }
      ],
      "stateMutability": "view",
      "type": "function"
    },
    {
      "inputs": [],
      "name": "spHighURSlopeRate",
      "outputs": [
        {
          "internalType": "uint256",
          "name": "",
          "type": "uint256"
        }
      ],
      "stateMutability": "view",
      "type": "function"
    },
    {
      "inputs": [],
      "name": "spSlopeRate",
      "outputs": [
        {
          "internalType": "uint256",
          "name": "",
          "type": "uint256"
        }
      ],
      "stateMutability": "view",
      "type": "function"
    },
    {
      "inputs": [
        {
          "internalType": "bytes4",
          "name": "interfaceId",
          "type": "bytes4"
        }
      ],
      "name": "supportsInterface",
      "outputs": [
        {
          "internalType": "bool",
          "name": "",
          "type": "bool"
        }
      ],
      "stateMutability": "view",
      "type": "function"
    }
  ],
  "transactionHash": "0x0caca303c10a441b6d27691ec5b452c87f480cd83406621740a9df2ac907d97e",
  "args": [
    "70000000000000000",
    "70000000000000000",
    "400000000000000000",
    "800000000000000000",
    "20000000000000000",
    "20000000000000000"
  ],
  "solcInputHash": "5c87df12e29dc2079cea619578365c10",
  "bytecode": "0x60806040523480156200001157600080fd5b5060405162001dc938038062001dc9833981810160405281019062000037919062000212565b856001819055508460028190555083600381905550826005819055508160048190555080600681905550620000766000801b336200008260201b60201c565b505050505050620002cc565b6200009482826200009860201b60201c565b5050565b620000aa82826200018960201b60201c565b6200018557600160008084815260200190815260200160002060000160008373ffffffffffffffffffffffffffffffffffffffff1673ffffffffffffffffffffffffffffffffffffffff16815260200190815260200160002060006101000a81548160ff0219169083151502179055506200012a620001f360201b60201c565b73ffffffffffffffffffffffffffffffffffffffff168173ffffffffffffffffffffffffffffffffffffffff16837f2f8788117e7eff1d82e926ec794901d17c78024a50270940304540a733656f0d60405160405180910390a45b5050565b600080600084815260200190815260200160002060000160008373ffffffffffffffffffffffffffffffffffffffff1673ffffffffffffffffffffffffffffffffffffffff16815260200190815260200160002060009054906101000a900460ff16905092915050565b600033905090565b6000815190506200020c81620002b2565b92915050565b60008060008060008060c087890312156200022c57600080fd5b60006200023c89828a01620001fb565b96505060206200024f89828a01620001fb565b95505060406200026289828a01620001fb565b94505060606200027589828a01620001fb565b93505060806200028889828a01620001fb565b92505060a06200029b89828a01620001fb565b9150509295509295509295565b6000819050919050565b620002bd81620002a8565b8114620002c957600080fd5b50565b611aed80620002dc6000396000f3fe608060405234801561001057600080fd5b50600436106101005760003560e01c80633b949d9c11610097578063d51bfb4411610066578063d51bfb44146102af578063d547741f146102cd578063d6b7494f146102e9578063ed4ba59d1461030757610100565b80633b949d9c14610213578063447cf8e01461024357806391d1485414610261578063a217fddf1461029157610100565b8063282c8749116100d3578063282c8749146101a15780632aa353e4146101bd5780632f2ff15d146101db57806336568abe146101f757610100565b80630114f7521461010557806301ffc9a7146101235780631f68f20a14610153578063248a9ca314610171575b600080fd5b61010d610337565b60405161011a91906115ec565b60405180910390f35b61013d60048036038101906101389190611228565b61033d565b60405161014a919061151e565b60405180910390f35b61015b6103b7565b60405161016891906115ec565b60405180910390f35b61018b600480360381019061018691906111c3565b6103bd565b6040516101989190611539565b60405180910390f35b6101bb60048036038101906101b6919061131a565b6103dc565b005b6101c5610424565b6040516101d291906115ec565b60405180910390f35b6101f560048036038101906101f091906111ec565b61042a565b005b610211600480360381019061020c91906111ec565b610453565b005b61022d600480360381019061022891906112b6565b6104d6565b60405161023a91906115ec565b60405180910390f35b61024b6107b7565b60405161025891906115ec565b60405180910390f35b61027b600480360381019061027691906111ec565b6107bd565b604051610288919061151e565b60405180910390f35b610299610827565b6040516102a69190611539565b60405180910390f35b6102b761082e565b6040516102c491906115ec565b60405180910390f35b6102e760048036038101906102e291906111ec565b610834565b005b6102f161085d565b6040516102fe91906115ec565b60405180910390f35b610321600480360381019061031c919061127a565b610863565b60405161032e91906115ec565b60405180910390f35b60035481565b60007f7965db0b000000000000000000000000000000000000000000000000000000007bffffffffffffffffffffffffffffffffffffffffffffffffffffffff1916827bffffffffffffffffffffffffffffffffffffffffffffffffffffffff191614806103b057506103af82610a3a565b5b9050919050565b60045481565b6000806000838152602001908152602001600020600101549050919050565b6000801b6103f1816103ec610aa4565b610aac565b86600181905550856002819055508460038190555083600581905550826004819055508160068190555050505050505050565b60025481565b610433826103bd565b6104448161043f610aa4565b610aac565b61044e8383610b49565b505050565b61045b610aa4565b73ffffffffffffffffffffffffffffffffffffffff168173ffffffffffffffffffffffffffffffffffffffff16146104c8576040517f08c379a00000000000000000000000000000000000000000000000000000000081526004016104bf906115b1565b60405180910390fd5b6104d28282610c29565b5050565b600073f6780c6eCFbF39CE58ac293dC2F00da27c91df4E63b142980a866040518263ffffffff1660e01b815260040161050f91906115d1565b60206040518083038186803b15801561052757600080fd5b505af415801561053b573d6000803e3d6000fd5b505050506040513d601f19601f8201168201806040525081019061055f919061119a565b6105a157600c6040517fede8a5990000000000000000000000000000000000000000000000000000000081526004016105989190611554565b60405180910390fd5b60006201518073f6780c6eCFbF39CE58ac293dC2F00da27c91df4E63d0f431ff426040518263ffffffff1660e01b81526004016105de91906115d1565b60206040518083038186803b1580156105f657600080fd5b505af415801561060a573d6000803e3d6000fd5b505050506040513d601f19601f8201168201806040525081019061062e9190611251565b876106399190611734565b61064391906116a9565b905060008361069557600086602001511461068b578560200151866000015160015461066f91906116da565b61067991906116a9565b6004546106869190611653565b61068e565b60005b9050610792565b6000856020015114156106e05760176040517fede8a5990000000000000000000000000000000000000000000000000000000081526004016106d79190611554565b60405180910390fd5b60006106fd86602001518760000151610d0a90919063ffffffff16565b9050600060055482101561071357600254610717565b6003545b90506000876020015188600001518361073091906116da565b61073a91906116a9565b90506000808a602001511461077c5789602001518a6000015160015461076091906116da565b61076a91906116a9565b6004546107779190611653565b61077f565b60005b905061078b8282610d33565b9450505050505b61016d82826107a191906116da565b6107ab91906116a9565b92505050949350505050565b60015481565b600080600084815260200190815260200160002060000160008373ffffffffffffffffffffffffffffffffffffffff1673ffffffffffffffffffffffffffffffffffffffff16815260200190815260200160002060009054906101000a900460ff16905092915050565b6000801b81565b60055481565b61083d826103bd565b61084e81610849610aa4565b610aac565b6108588383610c29565b505050565b60065481565b600073f6780c6eCFbF39CE58ac293dC2F00da27c91df4E63b142980a846040518263ffffffff1660e01b815260040161089c91906115d1565b60206040518083038186803b1580156108b457600080fd5b505af41580156108c8573d6000803e3d6000fd5b505050506040513d601f19601f820116820180604052508101906108ec919061119a565b61092e57600c6040517fede8a5990000000000000000000000000000000000000000000000000000000081526004016109259190611554565b60405180910390fd5b60008083602001511461096e578260200151836000015160015461095291906116da565b61095c91906116a9565b6004546109699190611653565b610971565b60005b905060006201518073f6780c6eCFbF39CE58ac293dC2F00da27c91df4E63d0f431ff426040518263ffffffff1660e01b81526004016109b091906115d1565b60206040518083038186803b1580156109c857600080fd5b505af41580156109dc573d6000803e3d6000fd5b505050506040513d601f19601f82011682018060405250810190610a009190611251565b86610a0b9190611734565b610a1591906116a9565b905061016d8183610a2691906116da565b610a3091906116a9565b9250505092915050565b60007f01ffc9a7000000000000000000000000000000000000000000000000000000007bffffffffffffffffffffffffffffffffffffffffffffffffffffffff1916827bffffffffffffffffffffffffffffffffffffffffffffffffffffffff1916149050919050565b600033905090565b610ab682826107bd565b610b4557610adb8173ffffffffffffffffffffffffffffffffffffffff166014610d4d565b610ae98360001c6020610d4d565b604051602001610afa9291906114e4565b6040516020818303038152906040526040517f08c379a0000000000000000000000000000000000000000000000000000000008152600401610b3c919061156f565b60405180910390fd5b5050565b610b5382826107bd565b610c2557600160008084815260200190815260200160002060000160008373ffffffffffffffffffffffffffffffffffffffff1673ffffffffffffffffffffffffffffffffffffffff16815260200190815260200160002060006101000a81548160ff021916908315150217905550610bca610aa4565b73ffffffffffffffffffffffffffffffffffffffff168173ffffffffffffffffffffffffffffffffffffffff16837f2f8788117e7eff1d82e926ec794901d17c78024a50270940304540a733656f0d60405160405180910390a45b5050565b610c3382826107bd565b15610d0657600080600084815260200190815260200160002060000160008373ffffffffffffffffffffffffffffffffffffffff1673ffffffffffffffffffffffffffffffffffffffff16815260200190815260200160002060006101000a81548160ff021916908315150217905550610cab610aa4565b73ffffffffffffffffffffffffffffffffffffffff168173ffffffffffffffffffffffffffffffffffffffff16837ff6391f5c32d9c69d2a47ea670b442974b53935d1edc7fd64eb21e047a839171b60405160405180910390a45b5050565b600081670de0b6b3a764000084610d2191906116da565b610d2b91906116a9565b905092915050565b600081831015610d435781610d45565b825b905092915050565b606060006002836002610d6091906116da565b610d6a9190611653565b67ffffffffffffffff811115610da9577f4e487b7100000000000000000000000000000000000000000000000000000000600052604160045260246000fd5b6040519080825280601f01601f191660200182016040528015610ddb5781602001600182028036833780820191505090505b5090507f300000000000000000000000000000000000000000000000000000000000000081600081518110610e39577f4e487b7100000000000000000000000000000000000000000000000000000000600052603260045260246000fd5b60200101907effffffffffffffffffffffffffffffffffffffffffffffffffffffffffffff1916908160001a9053507f780000000000000000000000000000000000000000000000000000000000000081600181518110610ec3577f4e487b7100000000000000000000000000000000000000000000000000000000600052603260045260246000fd5b60200101907effffffffffffffffffffffffffffffffffffffffffffffffffffffffffffff1916908160001a90535060006001846002610f0391906116da565b610f0d9190611653565b90505b6001811115610ff9577f3031323334353637383961626364656600000000000000000000000000000000600f861660108110610f75577f4e487b7100000000000000000000000000000000000000000000000000000000600052603260045260246000fd5b1a60f81b828281518110610fb2577f4e487b7100000000000000000000000000000000000000000000000000000000600052603260045260246000fd5b60200101907effffffffffffffffffffffffffffffffffffffffffffffffffffffffffffff1916908160001a905350600485901c945080610ff29061183e565b9050610f10565b506000841461103d576040517f08c379a000000000000000000000000000000000000000000000000000000000815260040161103490611591565b60405180910390fd5b8091505092915050565b60008135905061105681611a44565b92915050565b60008135905061106b81611a5b565b92915050565b60008151905061108081611a5b565b92915050565b60008135905061109581611a72565b92915050565b6000813590506110aa81611a89565b92915050565b6000608082840312156110c257600080fd5b6110cc6080611607565b905060006110dc84828501611170565b60008301525060206110f084828501611170565b602083015250604061110484828501611170565b604083015250606061111884828501611170565b60608301525092915050565b60006040828403121561113657600080fd5b6111406040611607565b9050600061115084828501611170565b600083015250602061116484828501611170565b60208301525092915050565b60008135905061117f81611aa0565b92915050565b60008151905061119481611aa0565b92915050565b6000602082840312156111ac57600080fd5b60006111ba84828501611071565b91505092915050565b6000602082840312156111d557600080fd5b60006111e384828501611086565b91505092915050565b600080604083850312156111ff57600080fd5b600061120d85828601611086565b925050602061121e85828601611047565b9150509250929050565b60006020828403121561123a57600080fd5b60006112488482850161109b565b91505092915050565b60006020828403121561126357600080fd5b600061127184828501611185565b91505092915050565b60008060a0838503121561128d57600080fd5b600061129b85828601611170565b92505060206112ac858286016110b0565b9150509250929050565b60008060008061010085870312156112cd57600080fd5b60006112db87828801611170565b94505060206112ec878288016110b0565b93505060a06112fd87828801611124565b92505060e061130e8782880161105c565b91505092959194509250565b60008060008060008060c0878903121561133357600080fd5b600061134189828a01611170565b965050602061135289828a01611170565b955050604061136389828a01611170565b945050606061137489828a01611170565b935050608061138589828a01611170565b92505060a061139689828a01611170565b9150509295509295509295565b6113ac8161177a565b82525050565b6113bb81611786565b82525050565b6113ca816117f9565b82525050565b60006113db8261162c565b6113e58185611637565b93506113f581856020860161180b565b6113fe81611955565b840191505092915050565b60006114148261162c565b61141e8185611648565b935061142e81856020860161180b565b80840191505092915050565b6000611447602083611637565b915061145282611966565b602082019050919050565b600061146a601783611648565b91506114758261198f565b601782019050919050565b600061148d601183611648565b9150611498826119b8565b601182019050919050565b60006114b0602f83611637565b91506114bb826119e1565b604082019050919050565b6114cf816117ef565b82525050565b6114de816117ef565b82525050565b60006114ef8261145d565b91506114fb8285611409565b915061150682611480565b91506115128284611409565b91508190509392505050565b600060208201905061153360008301846113a3565b92915050565b600060208201905061154e60008301846113b2565b92915050565b600060208201905061156960008301846113c1565b92915050565b6000602082019050818103600083015261158981846113d0565b905092915050565b600060208201905081810360008301526115aa8161143a565b9050919050565b600060208201905081810360008301526115ca816114a3565b9050919050565b60006020820190506115e660008301846114d5565b92915050565b600060208201905061160160008301846114c6565b92915050565b6000611611611622565b905061161d8282611868565b919050565b6000604051905090565b600081519050919050565b600082825260208201905092915050565b600081905092915050565b600061165e826117ef565b9150611669836117ef565b9250827fffffffffffffffffffffffffffffffffffffffffffffffffffffffffffffffff0382111561169e5761169d611899565b5b828201905092915050565b60006116b4826117ef565b91506116bf836117ef565b9250826116cf576116ce6118c8565b5b828204905092915050565b60006116e5826117ef565b91506116f0836117ef565b9250817fffffffffffffffffffffffffffffffffffffffffffffffffffffffffffffffff048311821515161561172957611728611899565b5b828202905092915050565b600061173f826117ef565b915061174a836117ef565b92508282101561175d5761175c611899565b5b828203905092915050565b6000611773826117cf565b9050919050565b60008115159050919050565b6000819050919050565b60007fffffffff0000000000000000000000000000000000000000000000000000000082169050919050565b60008190506117ca82611a30565b919050565b600073ffffffffffffffffffffffffffffffffffffffff82169050919050565b6000819050919050565b6000611804826117bc565b9050919050565b60005b8381101561182957808201518184015260208101905061180e565b83811115611838576000848401525b50505050565b6000611849826117ef565b9150600082141561185d5761185c611899565b5b600182039050919050565b61187182611955565b810181811067ffffffffffffffff821117156118905761188f611926565b5b80604052505050565b7f4e487b7100000000000000000000000000000000000000000000000000000000600052601160045260246000fd5b7f4e487b7100000000000000000000000000000000000000000000000000000000600052601260045260246000fd5b7f4e487b7100000000000000000000000000000000000000000000000000000000600052602160045260246000fd5b7f4e487b7100000000000000000000000000000000000000000000000000000000600052604160045260246000fd5b6000601f19601f8301169050919050565b7f537472696e67733a20686578206c656e67746820696e73756666696369656e74600082015250565b7f416363657373436f6e74726f6c3a206163636f756e7420000000000000000000600082015250565b7f206973206d697373696e6720726f6c6520000000000000000000000000000000600082015250565b7f416363657373436f6e74726f6c3a2063616e206f6e6c792072656e6f756e636560008201527f20726f6c657320666f722073656c660000000000000000000000000000000000602082015250565b601a8110611a4157611a406118f7565b5b50565b611a4d81611768565b8114611a5857600080fd5b50565b611a648161177a565b8114611a6f57600080fd5b50565b611a7b81611786565b8114611a8657600080fd5b50565b611a9281611790565b8114611a9d57600080fd5b50565b611aa9816117ef565b8114611ab457600080fd5b5056fea26469706673582212208422c43da4d98517636a51a3420c47151e6c6cae06c7ed08f2ecc95dcb32daea64736f6c63430008040033",
  "deployedBytecode": "0x608060405234801561001057600080fd5b50600436106101005760003560e01c80633b949d9c11610097578063d51bfb4411610066578063d51bfb44146102af578063d547741f146102cd578063d6b7494f146102e9578063ed4ba59d1461030757610100565b80633b949d9c14610213578063447cf8e01461024357806391d1485414610261578063a217fddf1461029157610100565b8063282c8749116100d3578063282c8749146101a15780632aa353e4146101bd5780632f2ff15d146101db57806336568abe146101f757610100565b80630114f7521461010557806301ffc9a7146101235780631f68f20a14610153578063248a9ca314610171575b600080fd5b61010d610337565b60405161011a91906115ec565b60405180910390f35b61013d60048036038101906101389190611228565b61033d565b60405161014a919061151e565b60405180910390f35b61015b6103b7565b60405161016891906115ec565b60405180910390f35b61018b600480360381019061018691906111c3565b6103bd565b6040516101989190611539565b60405180910390f35b6101bb60048036038101906101b6919061131a565b6103dc565b005b6101c5610424565b6040516101d291906115ec565b60405180910390f35b6101f560048036038101906101f091906111ec565b61042a565b005b610211600480360381019061020c91906111ec565b610453565b005b61022d600480360381019061022891906112b6565b6104d6565b60405161023a91906115ec565b60405180910390f35b61024b6107b7565b60405161025891906115ec565b60405180910390f35b61027b600480360381019061027691906111ec565b6107bd565b604051610288919061151e565b60405180910390f35b610299610827565b6040516102a69190611539565b60405180910390f35b6102b761082e565b6040516102c491906115ec565b60405180910390f35b6102e760048036038101906102e291906111ec565b610834565b005b6102f161085d565b6040516102fe91906115ec565b60405180910390f35b610321600480360381019061031c919061127a565b610863565b60405161032e91906115ec565b60405180910390f35b60035481565b60007f7965db0b000000000000000000000000000000000000000000000000000000007bffffffffffffffffffffffffffffffffffffffffffffffffffffffff1916827bffffffffffffffffffffffffffffffffffffffffffffffffffffffff191614806103b057506103af82610a3a565b5b9050919050565b60045481565b6000806000838152602001908152602001600020600101549050919050565b6000801b6103f1816103ec610aa4565b610aac565b86600181905550856002819055508460038190555083600581905550826004819055508160068190555050505050505050565b60025481565b610433826103bd565b6104448161043f610aa4565b610aac565b61044e8383610b49565b505050565b61045b610aa4565b73ffffffffffffffffffffffffffffffffffffffff168173ffffffffffffffffffffffffffffffffffffffff16146104c8576040517f08c379a00000000000000000000000000000000000000000000000000000000081526004016104bf906115b1565b60405180910390fd5b6104d28282610c29565b5050565b600073__$90f1fa1b3f91137ac60e95891d324fdd69$__63b142980a866040518263ffffffff1660e01b815260040161050f91906115d1565b60206040518083038186803b15801561052757600080fd5b505af415801561053b573d6000803e3d6000fd5b505050506040513d601f19601f8201168201806040525081019061055f919061119a565b6105a157600c6040517fede8a5990000000000000000000000000000000000000000000000000000000081526004016105989190611554565b60405180910390fd5b60006201518073__$90f1fa1b3f91137ac60e95891d324fdd69$__63d0f431ff426040518263ffffffff1660e01b81526004016105de91906115d1565b60206040518083038186803b1580156105f657600080fd5b505af415801561060a573d6000803e3d6000fd5b505050506040513d601f19601f8201168201806040525081019061062e9190611251565b876106399190611734565b61064391906116a9565b905060008361069557600086602001511461068b578560200151866000015160015461066f91906116da565b61067991906116a9565b6004546106869190611653565b61068e565b60005b9050610792565b6000856020015114156106e05760176040517fede8a5990000000000000000000000000000000000000000000000000000000081526004016106d79190611554565b60405180910390fd5b60006106fd86602001518760000151610d0a90919063ffffffff16565b9050600060055482101561071357600254610717565b6003545b90506000876020015188600001518361073091906116da565b61073a91906116a9565b90506000808a602001511461077c5789602001518a6000015160015461076091906116da565b61076a91906116a9565b6004546107779190611653565b61077f565b60005b905061078b8282610d33565b9450505050505b61016d82826107a191906116da565b6107ab91906116a9565b92505050949350505050565b60015481565b600080600084815260200190815260200160002060000160008373ffffffffffffffffffffffffffffffffffffffff1673ffffffffffffffffffffffffffffffffffffffff16815260200190815260200160002060009054906101000a900460ff16905092915050565b6000801b81565b60055481565b61083d826103bd565b61084e81610849610aa4565b610aac565b6108588383610c29565b505050565b60065481565b600073__$90f1fa1b3f91137ac60e95891d324fdd69$__63b142980a846040518263ffffffff1660e01b815260040161089c91906115d1565b60206040518083038186803b1580156108b457600080fd5b505af41580156108c8573d6000803e3d6000fd5b505050506040513d601f19601f820116820180604052508101906108ec919061119a565b61092e57600c6040517fede8a5990000000000000000000000000000000000000000000000000000000081526004016109259190611554565b60405180910390fd5b60008083602001511461096e578260200151836000015160015461095291906116da565b61095c91906116a9565b6004546109699190611653565b610971565b60005b905060006201518073__$90f1fa1b3f91137ac60e95891d324fdd69$__63d0f431ff426040518263ffffffff1660e01b81526004016109b091906115d1565b60206040518083038186803b1580156109c857600080fd5b505af41580156109dc573d6000803e3d6000fd5b505050506040513d601f19601f82011682018060405250810190610a009190611251565b86610a0b9190611734565b610a1591906116a9565b905061016d8183610a2691906116da565b610a3091906116a9565b9250505092915050565b60007f01ffc9a7000000000000000000000000000000000000000000000000000000007bffffffffffffffffffffffffffffffffffffffffffffffffffffffff1916827bffffffffffffffffffffffffffffffffffffffffffffffffffffffff1916149050919050565b600033905090565b610ab682826107bd565b610b4557610adb8173ffffffffffffffffffffffffffffffffffffffff166014610d4d565b610ae98360001c6020610d4d565b604051602001610afa9291906114e4565b6040516020818303038152906040526040517f08c379a0000000000000000000000000000000000000000000000000000000008152600401610b3c919061156f565b60405180910390fd5b5050565b610b5382826107bd565b610c2557600160008084815260200190815260200160002060000160008373ffffffffffffffffffffffffffffffffffffffff1673ffffffffffffffffffffffffffffffffffffffff16815260200190815260200160002060006101000a81548160ff021916908315150217905550610bca610aa4565b73ffffffffffffffffffffffffffffffffffffffff168173ffffffffffffffffffffffffffffffffffffffff16837f2f8788117e7eff1d82e926ec794901d17c78024a50270940304540a733656f0d60405160405180910390a45b5050565b610c3382826107bd565b15610d0657600080600084815260200190815260200160002060000160008373ffffffffffffffffffffffffffffffffffffffff1673ffffffffffffffffffffffffffffffffffffffff16815260200190815260200160002060006101000a81548160ff021916908315150217905550610cab610aa4565b73ffffffffffffffffffffffffffffffffffffffff168173ffffffffffffffffffffffffffffffffffffffff16837ff6391f5c32d9c69d2a47ea670b442974b53935d1edc7fd64eb21e047a839171b60405160405180910390a45b5050565b600081670de0b6b3a764000084610d2191906116da565b610d2b91906116a9565b905092915050565b600081831015610d435781610d45565b825b905092915050565b606060006002836002610d6091906116da565b610d6a9190611653565b67ffffffffffffffff811115610da9577f4e487b7100000000000000000000000000000000000000000000000000000000600052604160045260246000fd5b6040519080825280601f01601f191660200182016040528015610ddb5781602001600182028036833780820191505090505b5090507f300000000000000000000000000000000000000000000000000000000000000081600081518110610e39577f4e487b7100000000000000000000000000000000000000000000000000000000600052603260045260246000fd5b60200101907effffffffffffffffffffffffffffffffffffffffffffffffffffffffffffff1916908160001a9053507f780000000000000000000000000000000000000000000000000000000000000081600181518110610ec3577f4e487b7100000000000000000000000000000000000000000000000000000000600052603260045260246000fd5b60200101907effffffffffffffffffffffffffffffffffffffffffffffffffffffffffffff1916908160001a90535060006001846002610f0391906116da565b610f0d9190611653565b90505b6001811115610ff9577f3031323334353637383961626364656600000000000000000000000000000000600f861660108110610f75577f4e487b7100000000000000000000000000000000000000000000000000000000600052603260045260246000fd5b1a60f81b828281518110610fb2577f4e487b7100000000000000000000000000000000000000000000000000000000600052603260045260246000fd5b60200101907effffffffffffffffffffffffffffffffffffffffffffffffffffffffffffff1916908160001a905350600485901c945080610ff29061183e565b9050610f10565b506000841461103d576040517f08c379a000000000000000000000000000000000000000000000000000000000815260040161103490611591565b60405180910390fd5b8091505092915050565b60008135905061105681611a44565b92915050565b60008135905061106b81611a5b565b92915050565b60008151905061108081611a5b565b92915050565b60008135905061109581611a72565b92915050565b6000813590506110aa81611a89565b92915050565b6000608082840312156110c257600080fd5b6110cc6080611607565b905060006110dc84828501611170565b60008301525060206110f084828501611170565b602083015250604061110484828501611170565b604083015250606061111884828501611170565b60608301525092915050565b60006040828403121561113657600080fd5b6111406040611607565b9050600061115084828501611170565b600083015250602061116484828501611170565b60208301525092915050565b60008135905061117f81611aa0565b92915050565b60008151905061119481611aa0565b92915050565b6000602082840312156111ac57600080fd5b60006111ba84828501611071565b91505092915050565b6000602082840312156111d557600080fd5b60006111e384828501611086565b91505092915050565b600080604083850312156111ff57600080fd5b600061120d85828601611086565b925050602061121e85828601611047565b9150509250929050565b60006020828403121561123a57600080fd5b60006112488482850161109b565b91505092915050565b60006020828403121561126357600080fd5b600061127184828501611185565b91505092915050565b60008060a0838503121561128d57600080fd5b600061129b85828601611170565b92505060206112ac858286016110b0565b9150509250929050565b60008060008061010085870312156112cd57600080fd5b60006112db87828801611170565b94505060206112ec878288016110b0565b93505060a06112fd87828801611124565b92505060e061130e8782880161105c565b91505092959194509250565b60008060008060008060c0878903121561133357600080fd5b600061134189828a01611170565b965050602061135289828a01611170565b955050604061136389828a01611170565b945050606061137489828a01611170565b935050608061138589828a01611170565b92505060a061139689828a01611170565b9150509295509295509295565b6113ac8161177a565b82525050565b6113bb81611786565b82525050565b6113ca816117f9565b82525050565b60006113db8261162c565b6113e58185611637565b93506113f581856020860161180b565b6113fe81611955565b840191505092915050565b60006114148261162c565b61141e8185611648565b935061142e81856020860161180b565b80840191505092915050565b6000611447602083611637565b915061145282611966565b602082019050919050565b600061146a601783611648565b91506114758261198f565b601782019050919050565b600061148d601183611648565b9150611498826119b8565b601182019050919050565b60006114b0602f83611637565b91506114bb826119e1565b604082019050919050565b6114cf816117ef565b82525050565b6114de816117ef565b82525050565b60006114ef8261145d565b91506114fb8285611409565b915061150682611480565b91506115128284611409565b91508190509392505050565b600060208201905061153360008301846113a3565b92915050565b600060208201905061154e60008301846113b2565b92915050565b600060208201905061156960008301846113c1565b92915050565b6000602082019050818103600083015261158981846113d0565b905092915050565b600060208201905081810360008301526115aa8161143a565b9050919050565b600060208201905081810360008301526115ca816114a3565b9050919050565b60006020820190506115e660008301846114d5565b92915050565b600060208201905061160160008301846114c6565b92915050565b6000611611611622565b905061161d8282611868565b919050565b6000604051905090565b600081519050919050565b600082825260208201905092915050565b600081905092915050565b600061165e826117ef565b9150611669836117ef565b9250827fffffffffffffffffffffffffffffffffffffffffffffffffffffffffffffffff0382111561169e5761169d611899565b5b828201905092915050565b60006116b4826117ef565b91506116bf836117ef565b9250826116cf576116ce6118c8565b5b828204905092915050565b60006116e5826117ef565b91506116f0836117ef565b9250817fffffffffffffffffffffffffffffffffffffffffffffffffffffffffffffffff048311821515161561172957611728611899565b5b828202905092915050565b600061173f826117ef565b915061174a836117ef565b92508282101561175d5761175c611899565b5b828203905092915050565b6000611773826117cf565b9050919050565b60008115159050919050565b6000819050919050565b60007fffffffff0000000000000000000000000000000000000000000000000000000082169050919050565b60008190506117ca82611a30565b919050565b600073ffffffffffffffffffffffffffffffffffffffff82169050919050565b6000819050919050565b6000611804826117bc565b9050919050565b60005b8381101561182957808201518184015260208101905061180e565b83811115611838576000848401525b50505050565b6000611849826117ef565b9150600082141561185d5761185c611899565b5b600182039050919050565b61187182611955565b810181811067ffffffffffffffff821117156118905761188f611926565b5b80604052505050565b7f4e487b7100000000000000000000000000000000000000000000000000000000600052601160045260246000fd5b7f4e487b7100000000000000000000000000000000000000000000000000000000600052601260045260246000fd5b7f4e487b7100000000000000000000000000000000000000000000000000000000600052602160045260246000fd5b7f4e487b7100000000000000000000000000000000000000000000000000000000600052604160045260246000fd5b6000601f19601f8301169050919050565b7f537472696e67733a20686578206c656e67746820696e73756666696369656e74600082015250565b7f416363657373436f6e74726f6c3a206163636f756e7420000000000000000000600082015250565b7f206973206d697373696e6720726f6c6520000000000000000000000000000000600082015250565b7f416363657373436f6e74726f6c3a2063616e206f6e6c792072656e6f756e636560008201527f20726f6c657320666f722073656c660000000000000000000000000000000000602082015250565b601a8110611a4157611a406118f7565b5b50565b611a4d81611768565b8114611a5857600080fd5b50565b611a648161177a565b8114611a6f57600080fd5b50565b611a7b81611786565b8114611a8657600080fd5b50565b611a9281611790565b8114611a9d57600080fd5b50565b611aa9816117ef565b8114611ab457600080fd5b5056fea26469706673582212208422c43da4d98517636a51a3420c47151e6c6cae06c7ed08f2ecc95dcb32daea64736f6c63430008040033",
  "libraries": {
    "TSUtils": "0xf6780c6eCFbF39CE58ac293dC2F00da27c91df4E"
  },
  "devdoc": {
    "kind": "dev",
    "methods": {
      "getRateToBorrow(uint256,(uint256,uint256,uint256,uint256),(uint256,uint256),bool)": {
        "details": "Get current rate for borrow a certain amount in a certain maturity      with supply/demand values in the maturity pool and supply demand values      in the smart pool",
        "params": {
          "maturityDate": "maturity date for calculating days left to maturity",
          "maturityPool": "supply/demand values for the maturity pool",
          "newDebt": "checks if the maturity pool borrows money from the smart pool in this borrow",
          "smartPool": "supply/demand values for the smartPool"
        }
      },
      "getRateToSupply(uint256,(uint256,uint256,uint256,uint256))": {
        "details": "Get current rate for supplying a certain amount in a certain maturity      with supply/demand values in the maturity pool and supply demand values      in the smart pool",
        "params": {
          "maturityDate": "maturity date for calculating days left to maturity",
          "maturityPool": "supply/demand values for the maturity pool"
        }
      },
      "getRoleAdmin(bytes32)": {
        "details": "Returns the admin role that controls `role`. See {grantRole} and {revokeRole}. To change a role's admin, use {_setRoleAdmin}."
      },
      "grantRole(bytes32,address)": {
        "details": "Grants `role` to `account`. If `account` had not been already granted `role`, emits a {RoleGranted} event. Requirements: - the caller must have ``role``'s admin role."
      },
      "hasRole(bytes32,address)": {
        "details": "Returns `true` if `account` has been granted `role`."
      },
      "renounceRole(bytes32,address)": {
        "details": "Revokes `role` from the calling account. Roles are often managed via {grantRole} and {revokeRole}: this function's purpose is to provide a mechanism for accounts to lose their privileges if they are compromised (such as when a trusted device is misplaced). If the calling account had been granted `role`, emits a {RoleRevoked} event. Requirements: - the caller must be `account`."
      },
      "revokeRole(bytes32,address)": {
        "details": "Revokes `role` from `account`. If `account` had been granted `role`, emits a {RoleRevoked} event. Requirements: - the caller must have ``role``'s admin role."
      },
      "setParameters(uint256,uint256,uint256,uint256,uint256,uint256)": {
        "details": "Function to update this model's parameters (DEFAULT_ADMIN_ROLE)",
        "params": {
          "_baseRate": "rate that defines if we are using _spSlopeRate or _spHighURSlopeRate",
          "_mpSlopeRate": "slope to alter the utilization rate of maturity pool",
          "_spHighURSlopeRate": "slope when utilization rate is higher than baseRate",
          "_spSlopeRate": "slope to alter the utilization rate of smart pool"
        }
      },
      "supportsInterface(bytes4)": {
        "details": "See {IERC165-supportsInterface}."
      }
    },
    "version": 1
  },
  "userdoc": {
    "kind": "user",
    "methods": {},
    "version": 1
  },
  "storageLayout": {
    "storage": [
      {
        "astId": 24,
        "contract": "contracts/InterestRateModel.sol:InterestRateModel",
        "label": "_roles",
        "offset": 0,
        "slot": "0",
        "type": "t_mapping(t_bytes32,t_struct(RoleData)19_storage)"
      },
      {
        "astId": 7598,
        "contract": "contracts/InterestRateModel.sol:InterestRateModel",
        "label": "mpSlopeRate",
        "offset": 0,
        "slot": "1",
        "type": "t_uint256"
      },
      {
        "astId": 7600,
        "contract": "contracts/InterestRateModel.sol:InterestRateModel",
        "label": "spSlopeRate",
        "offset": 0,
        "slot": "2",
        "type": "t_uint256"
      },
      {
        "astId": 7602,
        "contract": "contracts/InterestRateModel.sol:InterestRateModel",
        "label": "spHighURSlopeRate",
        "offset": 0,
        "slot": "3",
        "type": "t_uint256"
      },
      {
        "astId": 7604,
        "contract": "contracts/InterestRateModel.sol:InterestRateModel",
        "label": "baseRate",
        "offset": 0,
        "slot": "4",
        "type": "t_uint256"
      },
      {
        "astId": 7606,
        "contract": "contracts/InterestRateModel.sol:InterestRateModel",
        "label": "slopeChangeRate",
        "offset": 0,
        "slot": "5",
        "type": "t_uint256"
      },
      {
        "astId": 7609,
        "contract": "contracts/InterestRateModel.sol:InterestRateModel",
        "label": "penaltyRate",
        "offset": 0,
        "slot": "6",
        "type": "t_uint256"
      }
    ],
    "types": {
      "t_address": {
        "encoding": "inplace",
        "label": "address",
        "numberOfBytes": "20"
      },
      "t_bool": {
        "encoding": "inplace",
        "label": "bool",
        "numberOfBytes": "1"
      },
      "t_bytes32": {
        "encoding": "inplace",
        "label": "bytes32",
        "numberOfBytes": "32"
      },
      "t_mapping(t_address,t_bool)": {
        "encoding": "mapping",
        "key": "t_address",
        "label": "mapping(address => bool)",
        "numberOfBytes": "32",
        "value": "t_bool"
      },
      "t_mapping(t_bytes32,t_struct(RoleData)19_storage)": {
        "encoding": "mapping",
        "key": "t_bytes32",
        "label": "mapping(bytes32 => struct AccessControl.RoleData)",
        "numberOfBytes": "32",
        "value": "t_struct(RoleData)19_storage"
      },
      "t_struct(RoleData)19_storage": {
        "encoding": "inplace",
        "label": "struct AccessControl.RoleData",
        "members": [
          {
            "astId": 16,
            "contract": "contracts/InterestRateModel.sol:InterestRateModel",
            "label": "members",
            "offset": 0,
            "slot": "0",
            "type": "t_mapping(t_address,t_bool)"
          },
          {
            "astId": 18,
            "contract": "contracts/InterestRateModel.sol:InterestRateModel",
            "label": "adminRole",
            "offset": 0,
            "slot": "1",
            "type": "t_bytes32"
          }
        ],
        "numberOfBytes": "64"
      },
      "t_uint256": {
        "encoding": "inplace",
        "label": "uint256",
        "numberOfBytes": "32"
      }
    }
  }
}